{
  "_format": "hh-sol-artifact-1",
  "contractName": "DepositorFactory",
  "sourceName": "contracts/DepositorFactory.sol",
  "abi": [
    {
      "inputs": [
        {
          "internalType": "address",
          "name": "_implementation",
          "type": "address"
        }
      ],
      "stateMutability": "nonpayable",
      "type": "constructor"
    },
    {
      "inputs": [],
      "name": "DepositorAlreadyExists",
      "type": "error"
    },
    {
      "inputs": [],
      "name": "FailedDeployment",
      "type": "error"
    },
    {
      "inputs": [
        {
          "internalType": "uint256",
          "name": "balance",
          "type": "uint256"
        },
        {
          "internalType": "uint256",
          "name": "needed",
          "type": "uint256"
        }
      ],
      "name": "InsufficientBalance",
      "type": "error"
    },
    {
      "inputs": [],
      "name": "NoExistingDepositorToMigrate",
      "type": "error"
    },
    {
      "inputs": [
        {
          "internalType": "address",
          "name": "owner",
          "type": "address"
        }
      ],
      "name": "OwnableInvalidOwner",
      "type": "error"
    },
    {
      "inputs": [
        {
          "internalType": "address",
          "name": "account",
          "type": "address"
        }
      ],
      "name": "OwnableUnauthorizedAccount",
      "type": "error"
    },
    {
      "inputs": [],
      "name": "ZeroAddress",
      "type": "error"
    },
    {
      "anonymous": false,
      "inputs": [
        {
          "indexed": false,
          "internalType": "address",
          "name": "shareToken",
          "type": "address"
        },
        {
          "indexed": false,
          "internalType": "address",
          "name": "depositToken",
          "type": "address"
        },
        {
          "indexed": true,
          "internalType": "address",
          "name": "depositorAddress",
          "type": "address"
        }
      ],
      "name": "DepositorCreated",
      "type": "event"
    },
    {
      "anonymous": false,
      "inputs": [
        {
          "indexed": false,
          "internalType": "address",
          "name": "shareToken",
          "type": "address"
        },
        {
          "indexed": false,
          "internalType": "address",
          "name": "depositToken",
          "type": "address"
        },
        {
          "indexed": true,
          "internalType": "address",
          "name": "oldDepositorAddress",
          "type": "address"
        },
        {
          "indexed": false,
          "internalType": "address",
          "name": "newDepositorAddress",
          "type": "address"
        }
      ],
      "name": "DepositorMigrated",
      "type": "event"
    },
    {
      "anonymous": false,
      "inputs": [
        {
          "indexed": true,
          "internalType": "address",
          "name": "newImplementation",
          "type": "address"
        }
      ],
      "name": "ImplementationUpdated",
      "type": "event"
    },
    {
      "anonymous": false,
      "inputs": [
        {
          "indexed": true,
          "internalType": "address",
          "name": "previousOwner",
          "type": "address"
        },
        {
          "indexed": true,
          "internalType": "address",
          "name": "newOwner",
          "type": "address"
        }
      ],
      "name": "OwnershipTransferStarted",
      "type": "event"
    },
    {
      "anonymous": false,
      "inputs": [
        {
          "indexed": true,
          "internalType": "address",
          "name": "previousOwner",
          "type": "address"
        },
        {
          "indexed": true,
          "internalType": "address",
          "name": "newOwner",
          "type": "address"
        }
      ],
      "name": "OwnershipTransferred",
      "type": "event"
    },
    {
      "inputs": [],
      "name": "acceptOwnership",
      "outputs": [],
      "stateMutability": "nonpayable",
      "type": "function"
    },
    {
      "inputs": [
        {
          "internalType": "address",
          "name": "_shareTokenAddress",
          "type": "address"
        },
        {
          "internalType": "address",
          "name": "_depositTokenAddress",
          "type": "address"
        },
        {
          "internalType": "address",
          "name": "_amlSignerAddress",
          "type": "address"
        }
      ],
      "name": "createDepositor",
      "outputs": [
        {
          "internalType": "address",
          "name": "depositorAddress",
          "type": "address"
        }
      ],
      "stateMutability": "nonpayable",
      "type": "function"
    },
    {
      "inputs": [
        {
          "internalType": "address",
          "name": "",
          "type": "address"
        },
        {
          "internalType": "address",
          "name": "",
          "type": "address"
        }
      ],
      "name": "depositors",
      "outputs": [
        {
          "internalType": "address",
          "name": "",
          "type": "address"
        }
      ],
      "stateMutability": "view",
      "type": "function"
    },
    {
      "inputs": [],
      "name": "implementation",
      "outputs": [
        {
          "internalType": "address",
          "name": "",
          "type": "address"
        }
      ],
      "stateMutability": "view",
      "type": "function"
    },
    {
      "inputs": [
        {
          "internalType": "address",
          "name": "_shareTokenAddress",
          "type": "address"
        },
        {
          "internalType": "address",
          "name": "_depositTokenAddress",
          "type": "address"
        },
        {
          "internalType": "address",
          "name": "_amlSignerAddress",
          "type": "address"
        }
      ],
      "name": "migrateDepositor",
      "outputs": [
        {
          "internalType": "address",
          "name": "newDepositorAddress",
          "type": "address"
        }
      ],
      "stateMutability": "nonpayable",
      "type": "function"
    },
    {
      "inputs": [],
      "name": "owner",
      "outputs": [
        {
          "internalType": "address",
          "name": "",
          "type": "address"
        }
      ],
      "stateMutability": "view",
      "type": "function"
    },
    {
      "inputs": [],
      "name": "pendingOwner",
      "outputs": [
        {
          "internalType": "address",
          "name": "",
          "type": "address"
        }
      ],
      "stateMutability": "view",
      "type": "function"
    },
    {
      "inputs": [],
      "name": "renounceOwnership",
      "outputs": [],
      "stateMutability": "nonpayable",
      "type": "function"
    },
    {
      "inputs": [
        {
          "internalType": "address",
          "name": "newOwner",
          "type": "address"
        }
      ],
      "name": "transferOwnership",
      "outputs": [],
      "stateMutability": "nonpayable",
      "type": "function"
    },
    {
      "inputs": [
        {
          "internalType": "address",
          "name": "_newImplementation",
          "type": "address"
        }
      ],
      "name": "updateImplementation",
      "outputs": [],
      "stateMutability": "nonpayable",
      "type": "function"
    }
  ],
  "bytecode": "0x6080346100f957601f6108d338819003918201601f19168301916001600160401b038311848410176100fe578084926020946040528339810103126100f957516001600160a01b038116908190036100f95733156100e357600180546001600160a01b03199081169091556000805433928116831782556040519392916001600160a01b03909116907f8be0079c531659141344cd1fd0a4f28419497f9722a3daafe3b4186f6b6457e09080a380156100d257600280546001600160a01b0319169190911790556107be90816101158239f35b63d92e233d60e01b60005260046000fd5b631e4fbdf760e01b600052600060045260246000fd5b600080fd5b634e487b7160e01b600052604160045260246000fdfe6080604052600436101561001257600080fd5b6000803560e01c8063025b22bc146106905780635c60da1b14610667578063715018a61461060257806379ba50971461057d57806386372ed3146103a15780638da5cb5b1461037a578063db79cdf514610322578063e30c3978146102f9578063efc15251146100fa5763f2fde38b1461008b57600080fd5b346100f75760203660031901126100f7576100a4610709565b6100ac610788565b600180546001600160a01b0319166001600160a01b0392831690811790915582549091167f38d16b8cac22d99fc7c124b9cd0de2d3fa1faef420bfe791d8c362d765e227008380a380f35b80fd5b50346100f75760603660031901126100f757610114610709565b61011c610724565b9061012561073a565b9061012e610788565b6001600160a01b0381169182156102ea576001600160a01b0384169182156102db576001600160a01b038216156102db57838652600360209081526040808820600086815292529020546001600160a01b03166102cc57600254608881901c62ffffff16763d602d80600a3d3981f3363d3d373d3d3d363d7300000017875260781b6001600160781b0319166e5af43d82803e903d91602b57fd5bf3176020526001600160a01b036037600988f0169485156102bd57908691863b156102b95760405163c0c53b8b60e01b81526001600160a01b03918216600482015291811660248301529290921660448301528160648183885af180156102ae57610295575b506040827fa39640c5c10c8c37a1f8b57ed21b606768e0dd930c7241b1aef9ff9c04e12971928287879660209952600389522081600052875282600020856bffffffffffffffffffffffff60a01b825416179055825191825286820152a2604051908152f35b6102a0858092610750565b6102aa573861022f565b8380fd5b6040513d87823e3d90fd5b8280fd5b63b06ebf3d60e01b8752600487fd5b63b6c8f4fb60e01b8652600486fd5b63d92e233d60e01b8652600486fd5b63d92e233d60e01b8552600485fd5b50346100f757806003193601126100f7576001546040516001600160a01b039091168152602090f35b50346100f75760403660031901126100f757604061033e610709565b91610347610724565b6001600160a01b039384168252600360209081529290912090831660009081529082526040908190205490519216825290f35b50346100f757806003193601126100f757546040516001600160a01b039091168152602090f35b50346100f75760603660031901126100f7576103bb610709565b6103c3610724565b906103cc61073a565b916103d5610788565b6001600160a01b0382811680865260036020908152604080882085851689529091528620549091169290831561056e57600254608881901c62ffffff16763d602d80600a3d3981f3363d3d373d3d3d363d7300000017875260781b6001600160781b0319166e5af43d82803e903d91602b57fd5bf3176020526037600987f06001600160a01b03811695909190861561055f5787873b156100f75760405163c0c53b8b60e01b81526001600160a01b038781166004830152868116602483015292909216604483015281606481838b5af1801561055457610539926020997f5b628a35d24dfb4cd654f3869f141259e62996159e7dad293cc55532f3b7e93397969593604093610544575b5090815260038a52206001600160a01b038516600090815290895260409081902080546001600160a01b0319168917905551938493846001600160a01b0391821681529181166020830152909116604082015260600190565b0390a2604051908152f35b8161054e91610750565b386104e0565b6040513d8a823e3d90fd5b63b06ebf3d60e01b8852600488fd5b6350a2e76f60e01b8652600486fd5b50346100f757806003193601126100f757600154336001600160a01b03909116036105ef57600180546001600160a01b0319908116909155815433918116821783556001600160a01b03167f8be0079c531659141344cd1fd0a4f28419497f9722a3daafe3b4186f6b6457e08380a380f35b63118cdaa760e01b815233600452602490fd5b50346100f757806003193601126100f75761061b610788565b600180546001600160a01b03199081169091558154908116825581906001600160a01b03167f8be0079c531659141344cd1fd0a4f28419497f9722a3daafe3b4186f6b6457e08280a380f35b50346100f757806003193601126100f7576002546040516001600160a01b039091168152602090f35b50346100f75760203660031901126100f7576106aa610709565b6106b2610788565b6001600160a01b031680156106fa57600280546001600160a01b031916821790557f310ba5f1d2ed074b51e2eccd052a47ae9ab7c6b800d1fca3db3999d6a592ca038280a280f35b63d92e233d60e01b8252600482fd5b600435906001600160a01b038216820361071f57565b600080fd5b602435906001600160a01b038216820361071f57565b604435906001600160a01b038216820361071f57565b90601f8019910116810190811067ffffffffffffffff82111761077257604052565b634e487b7160e01b600052604160045260246000fd5b6000546001600160a01b0316330361079c57565b63118cdaa760e01b6000523360045260246000fdfea164736f6c634300081c000a",
  "linkReferences": {},
  "deployedLinkReferences": {}
}