{
  "_format": "hh-sol-artifact-1",
  "contractName": "DepositorFactory",
  "sourceName": "contracts/DepositorFactory.sol",
  "abi": [
    {
      "inputs": [
        {
          "internalType": "address",
          "name": "_implementation",
          "type": "address"
        }
      ],
      "stateMutability": "nonpayable",
      "type": "constructor"
    },
    {
      "inputs": [],
      "name": "DepositorAlreadyExists",
      "type": "error"
    },
    {
      "inputs": [],
      "name": "FailedDeployment",
      "type": "error"
    },
    {
      "inputs": [
        {
          "internalType": "uint256",
          "name": "balance",
          "type": "uint256"
        },
        {
          "internalType": "uint256",
          "name": "needed",
          "type": "uint256"
        }
      ],
      "name": "InsufficientBalance",
      "type": "error"
    },
    {
      "inputs": [],
      "name": "NoExistingDepositorToMigrate",
      "type": "error"
    },
    {
      "inputs": [
        {
          "internalType": "address",
          "name": "owner",
          "type": "address"
        }
      ],
      "name": "OwnableInvalidOwner",
      "type": "error"
    },
    {
      "inputs": [
        {
          "internalType": "address",
          "name": "account",
          "type": "address"
        }
      ],
      "name": "OwnableUnauthorizedAccount",
      "type": "error"
    },
    {
      "inputs": [],
      "name": "ZeroAddress",
      "type": "error"
    },
    {
      "anonymous": false,
      "inputs": [
        {
          "indexed": true,
          "internalType": "address",
          "name": "shareToken",
          "type": "address"
        },
        {
          "indexed": true,
          "internalType": "address",
          "name": "depositToken",
          "type": "address"
        },
        {
          "indexed": true,
          "internalType": "address",
          "name": "depositorAddress",
          "type": "address"
        }
      ],
      "name": "DepositorCreated",
      "type": "event"
    },
    {
      "anonymous": false,
      "inputs": [
        {
          "indexed": true,
          "internalType": "address",
          "name": "shareToken",
          "type": "address"
        },
        {
          "indexed": true,
          "internalType": "address",
          "name": "depositToken",
          "type": "address"
        },
        {
          "indexed": true,
          "internalType": "address",
          "name": "oldDepositorAddress",
          "type": "address"
        },
        {
          "indexed": false,
          "internalType": "address",
          "name": "newDepositorAddress",
          "type": "address"
        }
      ],
      "name": "DepositorMigrated",
      "type": "event"
    },
    {
      "anonymous": false,
      "inputs": [
        {
          "indexed": true,
          "internalType": "address",
          "name": "newImplementation",
          "type": "address"
        }
      ],
      "name": "ImplementationUpdated",
      "type": "event"
    },
    {
      "anonymous": false,
      "inputs": [
        {
          "indexed": true,
          "internalType": "address",
          "name": "previousOwner",
          "type": "address"
        },
        {
          "indexed": true,
          "internalType": "address",
          "name": "newOwner",
          "type": "address"
        }
      ],
      "name": "OwnershipTransferred",
      "type": "event"
    },
    {
      "inputs": [
        {
          "internalType": "address",
          "name": "_shareTokenAddress",
          "type": "address"
        },
        {
          "internalType": "address",
          "name": "_depositTokenAddress",
          "type": "address"
        },
        {
          "internalType": "address",
          "name": "_amlSignerAddress",
          "type": "address"
        }
      ],
      "name": "createDepositor",
      "outputs": [
        {
          "internalType": "address",
          "name": "depositorAddress",
          "type": "address"
        }
      ],
      "stateMutability": "nonpayable",
      "type": "function"
    },
    {
      "inputs": [
        {
          "internalType": "address",
          "name": "",
          "type": "address"
        },
        {
          "internalType": "address",
          "name": "",
          "type": "address"
        }
      ],
      "name": "depositors",
      "outputs": [
        {
          "internalType": "address",
          "name": "",
          "type": "address"
        }
      ],
      "stateMutability": "view",
      "type": "function"
    },
    {
      "inputs": [],
      "name": "implementation",
      "outputs": [
        {
          "internalType": "address",
          "name": "",
          "type": "address"
        }
      ],
      "stateMutability": "view",
      "type": "function"
    },
    {
      "inputs": [
        {
          "internalType": "address",
          "name": "_shareTokenAddress",
          "type": "address"
        },
        {
          "internalType": "address",
          "name": "_depositTokenAddress",
          "type": "address"
        },
        {
          "internalType": "address",
          "name": "_amlSignerAddress",
          "type": "address"
        }
      ],
      "name": "migrateDepositor",
      "outputs": [
        {
          "internalType": "address",
          "name": "newDepositorAddress",
          "type": "address"
        }
      ],
      "stateMutability": "nonpayable",
      "type": "function"
    },
    {
      "inputs": [],
      "name": "owner",
      "outputs": [
        {
          "internalType": "address",
          "name": "",
          "type": "address"
        }
      ],
      "stateMutability": "view",
      "type": "function"
    },
    {
      "inputs": [],
      "name": "renounceOwnership",
      "outputs": [],
      "stateMutability": "nonpayable",
      "type": "function"
    },
    {
      "inputs": [
        {
          "internalType": "address",
          "name": "newOwner",
          "type": "address"
        }
      ],
      "name": "transferOwnership",
      "outputs": [],
      "stateMutability": "nonpayable",
      "type": "function"
    },
    {
      "inputs": [
        {
          "internalType": "address",
          "name": "_newImplementation",
          "type": "address"
        }
      ],
      "name": "updateImplementation",
      "outputs": [],
      "stateMutability": "nonpayable",
      "type": "function"
    }
  ],
  "bytecode": "0x6080346100ed57601f6107d638819003918201601f19168301916001600160401b038311848410176100f2578084926020946040528339810103126100ed57516001600160a01b038116908190036100ed5733156100d75760008054336001600160a01b0319821681178355604051939290916001600160a01b0316907f8be0079c531659141344cd1fd0a4f28419497f9722a3daafe3b4186f6b6457e09080a380156100c657600180546001600160a01b0319169190911790556106cd90816101098239f35b63d92e233d60e01b60005260046000fd5b631e4fbdf760e01b600052600060045260246000fd5b600080fd5b634e487b7160e01b600052604160045260246000fdfe6080604052600436101561001257600080fd5b6000803560e01c8063025b22bc1461059f5780635c60da1b14610576578063715018a61461051c57806386372ed3146103685780638da5cb5b14610341578063db79cdf5146102e9578063efc15251146100fd5763f2fde38b1461007557600080fd5b346100fa5760203660031901126100fa5761008e610618565b610096610697565b6001600160a01b031680156100e65781546001600160a01b03198116821783556001600160a01b03167f8be0079c531659141344cd1fd0a4f28419497f9722a3daafe3b4186f6b6457e08380a380f35b631e4fbdf760e01b82526004829052602482fd5b80fd5b50346100fa5760603660031901126100fa57610117610618565b90610120610633565b610128610649565b6001600160a01b0384169081156102da576001600160a01b0383169485156102cb576001600160a01b038216156102cb57828552600260209081526040808720600089815292529020546001600160a01b03166102bc57600154608881901c62ffffff16763d602d80600a3d3981f3363d3d373d3d3d363d7300000017865260781b6001600160781b0319166e5af43d82803e903d91602b57fd5bf3176020526001600160a01b036037600987f0169384156102ad57843b156102a95760405163c0c53b8b60e01b81526001600160a01b0391821660048201529181166024830152919091166044820152838160648183875af1801561029e57610285575b50602093818392855260028652604085208260005286526040600020836bffffffffffffffffffffffff60a01b8254161790557fa39640c5c10c8c37a1f8b57ed21b606768e0dd930c7241b1aef9ff9c04e129716040519580a48152f35b61029084809261065f565b61029a5738610227565b8280fd5b6040513d86823e3d90fd5b8580fd5b63b06ebf3d60e01b8652600486fd5b63b6c8f4fb60e01b8552600485fd5b63d92e233d60e01b8552600485fd5b63d92e233d60e01b8452600484fd5b50346100fa5760403660031901126100fa576040610305610618565b9161030e610633565b6001600160a01b039384168252600260209081529290912090831660009081529082526040908190205490519216825290f35b50346100fa57806003193601126100fa57546040516001600160a01b039091168152602090f35b50346100fa5760603660031901126100fa57610382610618565b61038a610633565b90610393610649565b9161039c610697565b6001600160a01b03828116808652600260209081526040808820858516895290915286205490911692831561050d57600154608881901c62ffffff16763d602d80600a3d3981f3363d3d373d3d3d363d7300000017875260781b6001600160781b0319166e5af43d82803e903d91602b57fd5bf3176020526001600160a01b036037600988f0169485156104fe578690863b156104fa5760405163c0c53b8b60e01b81526001600160a01b0386811660048301529384166024820152921660448301528160648183895af180156104ef5795604091816020986104df575b8490525060028752206001600160a01b0392909216600081815292865260409283902080546001600160a01b0319168617905591518481527f5b628a35d24dfb4cd654f3869f141259e62996159e7dad293cc55532f3b7e933908690a4604051908152f35b6104e89161065f565b388161047a565b6040513d88823e3d90fd5b5080fd5b63b06ebf3d60e01b8752600487fd5b6350a2e76f60e01b8652600486fd5b50346100fa57806003193601126100fa57610535610697565b80546001600160a01b03198116825581906001600160a01b03167f8be0079c531659141344cd1fd0a4f28419497f9722a3daafe3b4186f6b6457e08280a380f35b50346100fa57806003193601126100fa576001546040516001600160a01b039091168152602090f35b50346100fa5760203660031901126100fa576105b9610618565b6105c1610697565b6001600160a01b0316801561060957600180546001600160a01b031916821790557f310ba5f1d2ed074b51e2eccd052a47ae9ab7c6b800d1fca3db3999d6a592ca038280a280f35b63d92e233d60e01b8252600482fd5b600435906001600160a01b038216820361062e57565b600080fd5b602435906001600160a01b038216820361062e57565b604435906001600160a01b038216820361062e57565b90601f8019910116810190811067ffffffffffffffff82111761068157604052565b634e487b7160e01b600052604160045260246000fd5b6000546001600160a01b031633036106ab57565b63118cdaa760e01b6000523360045260246000fdfea164736f6c634300081c000a",
  "linkReferences": {},
  "deployedLinkReferences": {}
}