{
  "_format": "hh-sol-artifact-1",
  "contractName": "DepositorFactory",
  "sourceName": "contracts/DepositorFactory.sol",
  "abi": [
    {
      "inputs": [
        {
          "internalType": "address",
          "name": "_implementation",
          "type": "address"
        }
      ],
      "stateMutability": "nonpayable",
      "type": "constructor"
    },
    {
      "inputs": [],
      "name": "DepositorAlreadyExists",
      "type": "error"
    },
    {
      "inputs": [],
      "name": "FailedDeployment",
      "type": "error"
    },
    {
      "inputs": [
        {
          "internalType": "uint256",
          "name": "balance",
          "type": "uint256"
        },
        {
          "internalType": "uint256",
          "name": "needed",
          "type": "uint256"
        }
      ],
      "name": "InsufficientBalance",
      "type": "error"
    },
    {
      "inputs": [],
      "name": "NoExistingDepositorToMigrate",
      "type": "error"
    },
    {
      "inputs": [
        {
          "internalType": "address",
          "name": "owner",
          "type": "address"
        }
      ],
      "name": "OwnableInvalidOwner",
      "type": "error"
    },
    {
      "inputs": [
        {
          "internalType": "address",
          "name": "account",
          "type": "address"
        }
      ],
      "name": "OwnableUnauthorizedAccount",
      "type": "error"
    },
    {
      "inputs": [],
      "name": "ZeroAddress",
      "type": "error"
    },
    {
      "anonymous": false,
      "inputs": [
        {
          "indexed": false,
          "internalType": "address",
          "name": "shareToken",
          "type": "address"
        },
        {
          "indexed": false,
          "internalType": "address",
          "name": "depositToken",
          "type": "address"
        },
        {
          "indexed": true,
          "internalType": "address",
          "name": "depositorAddress",
          "type": "address"
        }
      ],
      "name": "DepositorCreated",
      "type": "event"
    },
    {
      "anonymous": false,
      "inputs": [
        {
          "indexed": false,
          "internalType": "address",
          "name": "shareToken",
          "type": "address"
        },
        {
          "indexed": false,
          "internalType": "address",
          "name": "depositToken",
          "type": "address"
        },
        {
          "indexed": true,
          "internalType": "address",
          "name": "oldDepositorAddress",
          "type": "address"
        },
        {
          "indexed": false,
          "internalType": "address",
          "name": "newDepositorAddress",
          "type": "address"
        }
      ],
      "name": "DepositorMigrated",
      "type": "event"
    },
    {
      "anonymous": false,
      "inputs": [
        {
          "indexed": true,
          "internalType": "address",
          "name": "newImplementation",
          "type": "address"
        }
      ],
      "name": "ImplementationUpdated",
      "type": "event"
    },
    {
      "anonymous": false,
      "inputs": [
        {
          "indexed": true,
          "internalType": "address",
          "name": "previousOwner",
          "type": "address"
        },
        {
          "indexed": true,
          "internalType": "address",
          "name": "newOwner",
          "type": "address"
        }
      ],
      "name": "OwnershipTransferred",
      "type": "event"
    },
    {
      "inputs": [
        {
          "internalType": "address",
          "name": "_shareTokenAddress",
          "type": "address"
        },
        {
          "internalType": "address",
          "name": "_depositTokenAddress",
          "type": "address"
        },
        {
          "internalType": "address",
          "name": "_amlSignerAddress",
          "type": "address"
        }
      ],
      "name": "createDepositor",
      "outputs": [
        {
          "internalType": "address",
          "name": "depositorAddress",
          "type": "address"
        }
      ],
      "stateMutability": "nonpayable",
      "type": "function"
    },
    {
      "inputs": [
        {
          "internalType": "address",
          "name": "",
          "type": "address"
        },
        {
          "internalType": "address",
          "name": "",
          "type": "address"
        }
      ],
      "name": "depositors",
      "outputs": [
        {
          "internalType": "address",
          "name": "",
          "type": "address"
        }
      ],
      "stateMutability": "view",
      "type": "function"
    },
    {
      "inputs": [],
      "name": "implementation",
      "outputs": [
        {
          "internalType": "address",
          "name": "",
          "type": "address"
        }
      ],
      "stateMutability": "view",
      "type": "function"
    },
    {
      "inputs": [
        {
          "internalType": "address",
          "name": "_shareTokenAddress",
          "type": "address"
        },
        {
          "internalType": "address",
          "name": "_depositTokenAddress",
          "type": "address"
        },
        {
          "internalType": "address",
          "name": "_amlSignerAddress",
          "type": "address"
        }
      ],
      "name": "migrateDepositor",
      "outputs": [
        {
          "internalType": "address",
          "name": "newDepositorAddress",
          "type": "address"
        }
      ],
      "stateMutability": "nonpayable",
      "type": "function"
    },
    {
      "inputs": [],
      "name": "owner",
      "outputs": [
        {
          "internalType": "address",
          "name": "",
          "type": "address"
        }
      ],
      "stateMutability": "view",
      "type": "function"
    },
    {
      "inputs": [],
      "name": "renounceOwnership",
      "outputs": [],
      "stateMutability": "nonpayable",
      "type": "function"
    },
    {
      "inputs": [
        {
          "internalType": "address",
          "name": "newOwner",
          "type": "address"
        }
      ],
      "name": "transferOwnership",
      "outputs": [],
      "stateMutability": "nonpayable",
      "type": "function"
    },
    {
      "inputs": [
        {
          "internalType": "address",
          "name": "_newImplementation",
          "type": "address"
        }
      ],
      "name": "updateImplementation",
      "outputs": [],
      "stateMutability": "nonpayable",
      "type": "function"
    }
  ],
  "bytecode": "0x6080346100ed57601f61081138819003918201601f19168301916001600160401b038311848410176100f2578084926020946040528339810103126100ed57516001600160a01b038116908190036100ed5733156100d75760008054336001600160a01b0319821681178355604051939290916001600160a01b0316907f8be0079c531659141344cd1fd0a4f28419497f9722a3daafe3b4186f6b6457e09080a380156100c657600180546001600160a01b03191691909117905561070890816101098239f35b63d92e233d60e01b60005260046000fd5b631e4fbdf760e01b600052600060045260246000fd5b600080fd5b634e487b7160e01b600052604160045260246000fdfe6080604052600436101561001257600080fd5b6000803560e01c8063025b22bc146105da5780635c60da1b146105b1578063715018a61461055757806386372ed31461037b5780638da5cb5b14610354578063db79cdf5146102fc578063efc15251146100fd5763f2fde38b1461007557600080fd5b346100fa5760203660031901126100fa5761008e610653565b6100966106d2565b6001600160a01b031680156100e65781546001600160a01b03198116821783556001600160a01b03167f8be0079c531659141344cd1fd0a4f28419497f9722a3daafe3b4186f6b6457e08380a380f35b631e4fbdf760e01b82526004829052602482fd5b80fd5b50346100fa5760603660031901126100fa57610117610653565b61011f61066e565b90610128610684565b906101316106d2565b6001600160a01b0381169182156102ed576001600160a01b0384169182156102de576001600160a01b038216156102de57838652600260209081526040808820600086815292529020546001600160a01b03166102cf57600154608881901c62ffffff16763d602d80600a3d3981f3363d3d373d3d3d363d7300000017875260781b6001600160781b0319166e5af43d82803e903d91602b57fd5bf3176020526001600160a01b036037600988f0169485156102c057908691863b156102bc5760405163c0c53b8b60e01b81526001600160a01b03918216600482015291811660248301529290921660448301528160648183885af180156102b157610298575b506040827fa39640c5c10c8c37a1f8b57ed21b606768e0dd930c7241b1aef9ff9c04e12971928287879660209952600289522081600052875282600020856bffffffffffffffffffffffff60a01b825416179055825191825286820152a2604051908152f35b6102a385809261069a565b6102ad5738610232565b8380fd5b6040513d87823e3d90fd5b8280fd5b63b06ebf3d60e01b8752600487fd5b63b6c8f4fb60e01b8652600486fd5b63d92e233d60e01b8652600486fd5b63d92e233d60e01b8552600485fd5b50346100fa5760403660031901126100fa576040610318610653565b9161032161066e565b6001600160a01b039384168252600260209081529290912090831660009081529082526040908190205490519216825290f35b50346100fa57806003193601126100fa57546040516001600160a01b039091168152602090f35b50346100fa5760603660031901126100fa57610395610653565b61039d61066e565b906103a6610684565b916103af6106d2565b6001600160a01b0382811680865260026020908152604080882085851689529091528620549091169290831561054857600154608881901c62ffffff16763d602d80600a3d3981f3363d3d373d3d3d363d7300000017875260781b6001600160781b0319166e5af43d82803e903d91602b57fd5bf3176020526037600987f06001600160a01b0381169590919086156105395787873b156100fa5760405163c0c53b8b60e01b81526001600160a01b038781166004830152868116602483015292909216604483015281606481838b5af1801561052e57610513926020997f5b628a35d24dfb4cd654f3869f141259e62996159e7dad293cc55532f3b7e9339796959360409361051e575b5090815260028a52206001600160a01b038516600090815290895260409081902080546001600160a01b0319168917905551938493846001600160a01b0391821681529181166020830152909116604082015260600190565b0390a2604051908152f35b816105289161069a565b386104ba565b6040513d8a823e3d90fd5b63b06ebf3d60e01b8852600488fd5b6350a2e76f60e01b8652600486fd5b50346100fa57806003193601126100fa576105706106d2565b80546001600160a01b03198116825581906001600160a01b03167f8be0079c531659141344cd1fd0a4f28419497f9722a3daafe3b4186f6b6457e08280a380f35b50346100fa57806003193601126100fa576001546040516001600160a01b039091168152602090f35b50346100fa5760203660031901126100fa576105f4610653565b6105fc6106d2565b6001600160a01b0316801561064457600180546001600160a01b031916821790557f310ba5f1d2ed074b51e2eccd052a47ae9ab7c6b800d1fca3db3999d6a592ca038280a280f35b63d92e233d60e01b8252600482fd5b600435906001600160a01b038216820361066957565b600080fd5b602435906001600160a01b038216820361066957565b604435906001600160a01b038216820361066957565b90601f8019910116810190811067ffffffffffffffff8211176106bc57604052565b634e487b7160e01b600052604160045260246000fd5b6000546001600160a01b031633036106e657565b63118cdaa760e01b6000523360045260246000fdfea164736f6c634300081c000a",
  "linkReferences": {},
  "deployedLinkReferences": {}
}