{
  "_format": "hh-sol-artifact-1",
  "contractName": "WithdrawalFactory",
  "sourceName": "contracts/WithdrawalFactory.sol",
  "abi": [
    {
      "inputs": [
        {
          "internalType": "address",
          "name": "_implementation",
          "type": "address"
        }
      ],
      "stateMutability": "nonpayable",
      "type": "constructor"
    },
    {
      "inputs": [],
      "name": "FailedDeployment",
      "type": "error"
    },
    {
      "inputs": [
        {
          "internalType": "uint256",
          "name": "balance",
          "type": "uint256"
        },
        {
          "internalType": "uint256",
          "name": "needed",
          "type": "uint256"
        }
      ],
      "name": "InsufficientBalance",
      "type": "error"
    },
    {
      "inputs": [],
      "name": "NoExistingWithdrawalToMigrate",
      "type": "error"
    },
    {
      "inputs": [
        {
          "internalType": "address",
          "name": "owner",
          "type": "address"
        }
      ],
      "name": "OwnableInvalidOwner",
      "type": "error"
    },
    {
      "inputs": [
        {
          "internalType": "address",
          "name": "account",
          "type": "address"
        }
      ],
      "name": "OwnableUnauthorizedAccount",
      "type": "error"
    },
    {
      "inputs": [],
      "name": "WithdrawalAlreadyExists",
      "type": "error"
    },
    {
      "inputs": [],
      "name": "ZeroAddress",
      "type": "error"
    },
    {
      "anonymous": false,
      "inputs": [
        {
          "indexed": true,
          "internalType": "address",
          "name": "newImplementation",
          "type": "address"
        }
      ],
      "name": "ImplementationUpdated",
      "type": "event"
    },
    {
      "anonymous": false,
      "inputs": [
        {
          "indexed": true,
          "internalType": "address",
          "name": "previousOwner",
          "type": "address"
        },
        {
          "indexed": true,
          "internalType": "address",
          "name": "newOwner",
          "type": "address"
        }
      ],
      "name": "OwnershipTransferred",
      "type": "event"
    },
    {
      "anonymous": false,
      "inputs": [
        {
          "indexed": true,
          "internalType": "address",
          "name": "paymentToken",
          "type": "address"
        },
        {
          "indexed": true,
          "internalType": "address",
          "name": "withdrawalToken",
          "type": "address"
        },
        {
          "indexed": true,
          "internalType": "address",
          "name": "withdrawalAddress",
          "type": "address"
        }
      ],
      "name": "WithdrawalCreated",
      "type": "event"
    },
    {
      "anonymous": false,
      "inputs": [
        {
          "indexed": true,
          "internalType": "address",
          "name": "paymentToken",
          "type": "address"
        },
        {
          "indexed": true,
          "internalType": "address",
          "name": "withdrawalToken",
          "type": "address"
        },
        {
          "indexed": true,
          "internalType": "address",
          "name": "oldWithdrawalAddress",
          "type": "address"
        },
        {
          "indexed": false,
          "internalType": "address",
          "name": "newWithdrawalAddress",
          "type": "address"
        }
      ],
      "name": "WithdrawalMigrated",
      "type": "event"
    },
    {
      "inputs": [
        {
          "internalType": "address",
          "name": "_paymentTokenAddress",
          "type": "address"
        },
        {
          "internalType": "address",
          "name": "_withdrawalTokenAddress",
          "type": "address"
        },
        {
          "internalType": "address",
          "name": "_amlSignerAddress",
          "type": "address"
        },
        {
          "internalType": "address",
          "name": "_burnUser",
          "type": "address"
        }
      ],
      "name": "createWithdrawal",
      "outputs": [
        {
          "internalType": "address",
          "name": "withdrawalAddress",
          "type": "address"
        }
      ],
      "stateMutability": "nonpayable",
      "type": "function"
    },
    {
      "inputs": [],
      "name": "implementation",
      "outputs": [
        {
          "internalType": "address",
          "name": "",
          "type": "address"
        }
      ],
      "stateMutability": "view",
      "type": "function"
    },
    {
      "inputs": [
        {
          "internalType": "address",
          "name": "_paymentTokenAddress",
          "type": "address"
        },
        {
          "internalType": "address",
          "name": "_withdrawalTokenAddress",
          "type": "address"
        },
        {
          "internalType": "address",
          "name": "_amlSignerAddress",
          "type": "address"
        },
        {
          "internalType": "address",
          "name": "_burnUser",
          "type": "address"
        }
      ],
      "name": "migrateWithdrawal",
      "outputs": [
        {
          "internalType": "address",
          "name": "newWithdrawalAddress",
          "type": "address"
        }
      ],
      "stateMutability": "nonpayable",
      "type": "function"
    },
    {
      "inputs": [],
      "name": "owner",
      "outputs": [
        {
          "internalType": "address",
          "name": "",
          "type": "address"
        }
      ],
      "stateMutability": "view",
      "type": "function"
    },
    {
      "inputs": [],
      "name": "renounceOwnership",
      "outputs": [],
      "stateMutability": "nonpayable",
      "type": "function"
    },
    {
      "inputs": [
        {
          "internalType": "address",
          "name": "newOwner",
          "type": "address"
        }
      ],
      "name": "transferOwnership",
      "outputs": [],
      "stateMutability": "nonpayable",
      "type": "function"
    },
    {
      "inputs": [
        {
          "internalType": "address",
          "name": "_newImplementation",
          "type": "address"
        }
      ],
      "name": "updateImplementation",
      "outputs": [],
      "stateMutability": "nonpayable",
      "type": "function"
    },
    {
      "inputs": [
        {
          "internalType": "address",
          "name": "",
          "type": "address"
        },
        {
          "internalType": "address",
          "name": "",
          "type": "address"
        }
      ],
      "name": "withdrawals",
      "outputs": [
        {
          "internalType": "address",
          "name": "",
          "type": "address"
        }
      ],
      "stateMutability": "view",
      "type": "function"
    }
  ],
  "bytecode": "0x608080604052346101a557602081610f05803803809161001f82856101aa565b8339810103126101a557516001600160a01b038116908190036101a557331561018f576100a260406000543360018060a01b0319821617600055815190339060018060a01b03167f8be0079c531659141344cd1fd0a4f28419497f9722a3daafe3b4186f6b6457e0600080a3675b1568e60360d51b6020820152602081526101aa565b6100c06040805167d7000e244129d1146020820152602081526101aa565b6100de6040805167b361d848005418a56020820152602081526101aa565b8061013057610101604080516770e3946f2b89a35b6020820152602081526101aa565b61011f6040805167390f3196ef63b6176020820152602081526101aa565b63d92e233d60e01b60005260046000fd5b61014e6040805167617af45e4bdd083d6020820152602081526101aa565b61016c6040805167dc450d8e2a171e6f6020820152602081526101aa565b600180546001600160a01b031916919091179055604051610d2190816101e48239f35b631e4fbdf760e01b600052600060045260246000fd5b600080fd5b601f909101601f19168101906001600160401b038211908210176101cd57604052565b634e487b7160e01b600052604160045260246000fdfe608080604052600436101561001357600080fd5b600090813560e01c908163025b22bc14610a82575080632a0e9e30146107005780633a131dd4146102105780635c60da1b146101e7578063715018a61461018d5780638da5cb5b14610166578063cd47bde1146101015763f2fde38b1461007957600080fd5b346100fe5760203660031901126100fe57610092610c3a565b61009a610ceb565b6001600160a01b031680156100ea5781546001600160a01b03198116821783556001600160a01b03167f8be0079c531659141344cd1fd0a4f28419497f9722a3daafe3b4186f6b6457e08380a380f35b631e4fbdf760e01b82526004829052602482fd5b80fd5b50346100fe5760403660031901126100fe5761011b610c3a565b60243591906001600160a01b0383168303610162576001600160a01b0390811682526002602090815260409283902093821660009081529381529282902054915191168152f35b5080fd5b50346100fe57806003193601126100fe57546040516001600160a01b039091168152602090f35b50346100fe57806003193601126100fe576101a6610ceb565b80546001600160a01b03198116825581906001600160a01b03167f8be0079c531659141344cd1fd0a4f28419497f9722a3daafe3b4186f6b6457e08280a380f35b50346100fe57806003193601126100fe576001546040516001600160a01b039091168152602090f35b50346100fe5761021f36610c55565b9193929061024160408051679d53374703bcb00a602082015260208152610cb3565b61025f60408051679ffb0450cb74bbaa602082015260208152610cb3565b61027d60408051676f6fe567f141bda9602082015260208152610cb3565b6001600160a01b03821691826102d8576004856102ae6040805167122ea7f66692c108602082015260208152610cb3565b6102cc604080516752163c333084c861602082015260208152610cb3565b63d92e233d60e01b8152fd5b6102f6604080516720061c5be2ca0045602082015260208152610cb3565b61031460408051670da7d124bfdaae3c602082015260208152610cb3565b610332604080516791d59b496db0ac99602082015260208152610cb3565b6001600160a01b03861695866103815760048661036360408051674c1f3b5128a8984b602082015260208152610cb3565b6102cc604080516771c1ac02120a809a602082015260208152610cb3565b61039f6040805167e2c3fb382ad31d3c602082015260208152610cb3565b6103bd6040805167398396d649e67b5f602082015260208152610cb3565b6103db6040805167a1ca4cbd8b308f76602082015260208152610cb3565b6001600160a01b0383166104285760048661040a604080516715aa2a099e828ec5602082015260208152610cb3565b6102cc60408051673710ebbe09de98e6602082015260208152610cb3565b61044660408051671ff4e68da2573449602082015260208152610cb3565b6104646040805167446d5a367b955dc7602082015260208152610cb3565b6104826040805167e9920584b1428b6e602082015260208152610cb3565b83865260026020908152604080882060008a815292529020546001600160a01b0316156104f4576004866104ca6040805167f37d2849b3215a8a602082015260208152610cb3565b6104e86040805167122ad5061a8d1823602082015260208152610cb3565b63157c65e160e01b8152fd5b61051260408051670ef73717a70a2bd9602082015260208152610cb3565b6105306040805167469ab74f36641aed602082015260208152610cb3565b600154608881901c62ffffff16763d602d80600a3d3981f3363d3d373d3d3d363d7300000017875260781b6001600160781b0319166e5af43d82803e903d91602b57fd5bf3176020526001600160a01b036037600988f0169485156106f1576105ad6040805167097787e0ebcf5cce602082015260208152610cb3565b6105cb60408051671fd5adfc7b5d199a602082015260208152610cb3565b853b156106ed57604051637c643b2f60e11b81526001600160a01b03928316600482015292821660248401529281166044830152919091166064820152838160848183875af180156106e2576106c9575b50602093829161063e60408051671be86510385c2c1f89820152888152610cb3565b80855260028652604085208260005286526040600020836001600160601b0360a01b82541617905561068260408051677f859bbfa803ee1089820152888152610cb3565b61069e60408051671e394cfd75c6926689820152888152610cb3565b7fbaad547b8654b147f40ca238e2ce10b9f633540c00363c691cc1b09ba55a83326040519580a48152f35b6106d4848092610cb3565b6106de573861061c565b8280fd5b6040513d86823e3d90fd5b8680fd5b63b06ebf3d60e01b8752600487fd5b50346100fe5761070f36610c55565b6107306040809493945167c1047171d0ca1efe602082015260208152610cb3565b610738610ceb565b6107566040805167a6d61ec09ad241a8602082015260208152610cb3565b61077460408051674845c7c6744470a0602082015260208152610cb3565b610792604080516736d04b532fa88070602082015260208152610cb3565b6107b06040805167ab764d3213e8986c602082015260208152610cb3565b6001600160a01b038481168087526002602090815260408089208685168a528252808920548151679b8761e8063b738e81850152928352909316959193926107f791610cb3565b610815604080516726ee39dae6f2827b602082015260208152610cb3565b846108655760048761083b60408051674d9c89935ed21553602082015260208152610cb3565b61085960408051678dfd79022a2452a3602082015260208152610cb3565b631b3b544f60e01b8152fd5b610883604080516798254baf67ff886e602082015260208152610cb3565b6108a160408051671c86d628cd70645f602082015260208152610cb3565b600154608881901c62ffffff16763d602d80600a3d3981f3363d3d373d3d3d363d7300000017885260781b6001600160781b0319166e5af43d82803e903d91602b57fd5bf3176020526001600160a01b036037600989f016958615610a7357908791610921604080516742f135a46e6a3f28602082015260208152610cb3565b61093f60408051675183a976a618381b602082015260208152610cb3565b873b156106de57604051637c643b2f60e11b81526001600160a01b038781166004830152918216602482015291811660448301529290921660648301528160848183895af18015610a68579560409181602098610a58575b50506109b482805167e01e7fdb8e6e1b688a820152898152610cb3565b828152600287522060018060a01b03831660005285526040600020846001600160601b0360a01b8254161790556109fd60408051678afaad04e5f14d8488820152878152610cb3565b610a1960408051675a0f1d40393ba8fa88820152878152610cb3565b6040518481526001600160a01b03909216917f9fd9709fb6562cf5799f45b6c52d6cc0c1c1758dadf4c090c18925ea9fb62069908690a4604051908152f35b610a6191610cb3565b3881610997565b6040513d88823e3d90fd5b63b06ebf3d60e01b8852600488fd5b90503461016257602036600319011261016257610aba6040610aa2610c3a565b92673bd937b0d0ee22b9602082015260208152610cb3565b610ac2610ceb565b610ae060408051675594d23bf4005f8e602082015260208152610cb3565b610afe6040805167c68b3fbc08f336d6602082015260208152610cb3565b610b1c60408051678d83720c17a600aa602082015260208152610cb3565b610b3a6040805167138887c0ad311b50602082015260208152610cb3565b6001600160a01b031680610b8757600482610b6960408051671f9e130ae32b74a0602082015260208152610cb3565b6102cc6040805167297b8b72f63ccd07602082015260208152610cb3565b610ba56040805167b6d14b466c4fa897602082015260208152610cb3565b610bc36040805167fa71960ec14e164d602082015260208152610cb3565b806001600160601b0360a01b6001541617600155610bf56040805167ea5f426e5948b40e602082015260208152610cb3565b610c1360408051672bf6a3b9edd2855d602082015260208152610cb3565b7f310ba5f1d2ed074b51e2eccd052a47ae9ab7c6b800d1fca3db3999d6a592ca038280a280f35b600435906001600160a01b0382168203610c5057565b600080fd5b6080906003190112610c50576004356001600160a01b0381168103610c5057906024356001600160a01b0381168103610c5057906044356001600160a01b0381168103610c5057906064356001600160a01b0381168103610c505790565b90601f8019910116810190811067ffffffffffffffff821117610cd557604052565b634e487b7160e01b600052604160045260246000fd5b6000546001600160a01b03163303610cff57565b63118cdaa760e01b6000523360045260246000fdfea164736f6c634300081c000a",
  "linkReferences": {},
  "deployedLinkReferences": {}
}