{
  "_format": "hh-sol-artifact-1",
  "contractName": "WithdrawalFactory",
  "sourceName": "contracts/WithdrawalFactory.sol",
  "abi": [
    {
      "inputs": [
        {
          "internalType": "address",
          "name": "_implementation",
          "type": "address"
        }
      ],
      "stateMutability": "nonpayable",
      "type": "constructor"
    },
    {
      "inputs": [],
      "name": "FailedDeployment",
      "type": "error"
    },
    {
      "inputs": [
        {
          "internalType": "uint256",
          "name": "balance",
          "type": "uint256"
        },
        {
          "internalType": "uint256",
          "name": "needed",
          "type": "uint256"
        }
      ],
      "name": "InsufficientBalance",
      "type": "error"
    },
    {
      "inputs": [],
      "name": "NoExistingWithdrawalToMigrate",
      "type": "error"
    },
    {
      "inputs": [
        {
          "internalType": "address",
          "name": "owner",
          "type": "address"
        }
      ],
      "name": "OwnableInvalidOwner",
      "type": "error"
    },
    {
      "inputs": [
        {
          "internalType": "address",
          "name": "account",
          "type": "address"
        }
      ],
      "name": "OwnableUnauthorizedAccount",
      "type": "error"
    },
    {
      "inputs": [],
      "name": "WithdrawalAlreadyExists",
      "type": "error"
    },
    {
      "inputs": [],
      "name": "ZeroAddress",
      "type": "error"
    },
    {
      "anonymous": false,
      "inputs": [
        {
          "indexed": true,
          "internalType": "address",
          "name": "newImplementation",
          "type": "address"
        }
      ],
      "name": "ImplementationUpdated",
      "type": "event"
    },
    {
      "anonymous": false,
      "inputs": [
        {
          "indexed": true,
          "internalType": "address",
          "name": "previousOwner",
          "type": "address"
        },
        {
          "indexed": true,
          "internalType": "address",
          "name": "newOwner",
          "type": "address"
        }
      ],
      "name": "OwnershipTransferStarted",
      "type": "event"
    },
    {
      "anonymous": false,
      "inputs": [
        {
          "indexed": true,
          "internalType": "address",
          "name": "previousOwner",
          "type": "address"
        },
        {
          "indexed": true,
          "internalType": "address",
          "name": "newOwner",
          "type": "address"
        }
      ],
      "name": "OwnershipTransferred",
      "type": "event"
    },
    {
      "anonymous": false,
      "inputs": [
        {
          "indexed": false,
          "internalType": "address",
          "name": "paymentToken",
          "type": "address"
        },
        {
          "indexed": false,
          "internalType": "address",
          "name": "shareToken",
          "type": "address"
        },
        {
          "indexed": true,
          "internalType": "address",
          "name": "withdrawalAddress",
          "type": "address"
        }
      ],
      "name": "WithdrawalCreated",
      "type": "event"
    },
    {
      "anonymous": false,
      "inputs": [
        {
          "indexed": false,
          "internalType": "address",
          "name": "paymentToken",
          "type": "address"
        },
        {
          "indexed": false,
          "internalType": "address",
          "name": "shareToken",
          "type": "address"
        },
        {
          "indexed": true,
          "internalType": "address",
          "name": "oldWithdrawalAddress",
          "type": "address"
        },
        {
          "indexed": false,
          "internalType": "address",
          "name": "newWithdrawalAddress",
          "type": "address"
        }
      ],
      "name": "WithdrawalMigrated",
      "type": "event"
    },
    {
      "inputs": [],
      "name": "acceptOwnership",
      "outputs": [],
      "stateMutability": "nonpayable",
      "type": "function"
    },
    {
      "inputs": [
        {
          "internalType": "address",
          "name": "_paymentTokenAddress",
          "type": "address"
        },
        {
          "internalType": "address",
          "name": "_shareTokenAddress",
          "type": "address"
        },
        {
          "internalType": "address",
          "name": "_amlSignerAddress",
          "type": "address"
        },
        {
          "internalType": "address",
          "name": "_burnUser",
          "type": "address"
        }
      ],
      "name": "createWithdrawal",
      "outputs": [
        {
          "internalType": "address",
          "name": "withdrawalAddress",
          "type": "address"
        }
      ],
      "stateMutability": "nonpayable",
      "type": "function"
    },
    {
      "inputs": [],
      "name": "implementation",
      "outputs": [
        {
          "internalType": "address",
          "name": "",
          "type": "address"
        }
      ],
      "stateMutability": "view",
      "type": "function"
    },
    {
      "inputs": [
        {
          "internalType": "address",
          "name": "_paymentTokenAddress",
          "type": "address"
        },
        {
          "internalType": "address",
          "name": "_shareTokenAddress",
          "type": "address"
        },
        {
          "internalType": "address",
          "name": "_amlSignerAddress",
          "type": "address"
        },
        {
          "internalType": "address",
          "name": "_burnUser",
          "type": "address"
        }
      ],
      "name": "migrateWithdrawal",
      "outputs": [
        {
          "internalType": "address",
          "name": "newWithdrawalAddress",
          "type": "address"
        }
      ],
      "stateMutability": "nonpayable",
      "type": "function"
    },
    {
      "inputs": [],
      "name": "owner",
      "outputs": [
        {
          "internalType": "address",
          "name": "",
          "type": "address"
        }
      ],
      "stateMutability": "view",
      "type": "function"
    },
    {
      "inputs": [],
      "name": "pendingOwner",
      "outputs": [
        {
          "internalType": "address",
          "name": "",
          "type": "address"
        }
      ],
      "stateMutability": "view",
      "type": "function"
    },
    {
      "inputs": [],
      "name": "renounceOwnership",
      "outputs": [],
      "stateMutability": "nonpayable",
      "type": "function"
    },
    {
      "inputs": [
        {
          "internalType": "address",
          "name": "newOwner",
          "type": "address"
        }
      ],
      "name": "transferOwnership",
      "outputs": [],
      "stateMutability": "nonpayable",
      "type": "function"
    },
    {
      "inputs": [
        {
          "internalType": "address",
          "name": "_newImplementation",
          "type": "address"
        }
      ],
      "name": "updateImplementation",
      "outputs": [],
      "stateMutability": "nonpayable",
      "type": "function"
    },
    {
      "inputs": [
        {
          "internalType": "address",
          "name": "",
          "type": "address"
        },
        {
          "internalType": "address",
          "name": "",
          "type": "address"
        }
      ],
      "name": "withdrawals",
      "outputs": [
        {
          "internalType": "address",
          "name": "",
          "type": "address"
        }
      ],
      "stateMutability": "view",
      "type": "function"
    }
  ],
  "bytecode": "0x6080346100f957601f6108c338819003918201601f19168301916001600160401b038311848410176100fe578084926020946040528339810103126100f957516001600160a01b038116908190036100f95733156100e357600180546001600160a01b03199081169091556000805433928116831782556040519392916001600160a01b03909116907f8be0079c531659141344cd1fd0a4f28419497f9722a3daafe3b4186f6b6457e09080a380156100d257600280546001600160a01b0319169190911790556107ae90816101158239f35b63d92e233d60e01b60005260046000fd5b631e4fbdf760e01b600052600060045260246000fd5b600080fd5b634e487b7160e01b600052604160045260246000fdfe6080604052600436101561001257600080fd5b6000803560e01c8063025b22bc1461064e5780632a0e9e30146104ac5780633a131dd4146102c25780635c60da1b14610299578063715018a61461023457806379ba5097146101af5780638da5cb5b14610188578063cd47bde114610123578063e30c3978146100fa5763f2fde38b1461008b57600080fd5b346100f75760203660031901126100f7576100a46106c7565b6100ac610778565b600180546001600160a01b0319166001600160a01b0392831690811790915582549091167f38d16b8cac22d99fc7c124b9cd0de2d3fa1faef420bfe791d8c362d765e227008380a380f35b80fd5b50346100f757806003193601126100f7576001546040516001600160a01b039091168152602090f35b50346100f75760403660031901126100f75761013d6106c7565b60243591906001600160a01b0383168303610184576001600160a01b0390811682526003602090815260409283902093821660009081529381529282902054915191168152f35b5080fd5b50346100f757806003193601126100f757546040516001600160a01b039091168152602090f35b50346100f757806003193601126100f757600154336001600160a01b039091160361022157600180546001600160a01b0319908116909155815433918116821783556001600160a01b03167f8be0079c531659141344cd1fd0a4f28419497f9722a3daafe3b4186f6b6457e08380a380f35b63118cdaa760e01b815233600452602490fd5b50346100f757806003193601126100f75761024d610778565b600180546001600160a01b03199081169091558154908116825581906001600160a01b03167f8be0079c531659141344cd1fd0a4f28419497f9722a3daafe3b4186f6b6457e08280a380f35b50346100f757806003193601126100f7576002546040516001600160a01b039091168152602090f35b50346100f7576102d1366106e2565b9291906102dc610778565b6001600160a01b03831692831561049d576001600160a01b03831692831561048e576001600160a01b0383161561048e57848752600360209081526040808920600087815292529020546001600160a01b031661047f57600254608881901c62ffffff16763d602d80600a3d3981f3363d3d373d3d3d363d7300000017885260781b6001600160781b0319166e5af43d82803e903d91602b57fd5bf3176020526001600160a01b036037600989f0169586156104705790879291873b1561046157604051637c643b2f60e11b81526001600160a01b039283166004820152928216602484015293811660448301529290921660648301528160848183885af180156104655761044c575b506040827fbaad547b8654b147f40ca238e2ce10b9f633540c00363c691cc1b09ba55a8332928287879660209952600389522081600052875282600020856bffffffffffffffffffffffff60a01b825416179055825191825286820152a2604051908152f35b610457858092610740565b61046157386103e6565b8380fd5b6040513d87823e3d90fd5b63b06ebf3d60e01b8852600488fd5b63157c65e160e01b8752600487fd5b63d92e233d60e01b8752600487fd5b63d92e233d60e01b8652600486fd5b50346100f7576104bb366106e2565b90916104c5610778565b6001600160a01b038481168087526003602090815260408089208585168a5290915287205490911693909290841561063f57600254608881901c62ffffff16763d602d80600a3d3981f3363d3d373d3d3d363d7300000017885260781b6001600160781b0319166e5af43d82803e903d91602b57fd5bf3176020526001600160a01b036037600989f01695861561047057908791873b1561063b57604051637c643b2f60e11b81526001600160a01b038681166004830152918216602482015291811660448301529290921660648301528160848183895af1801561063057916040877f9fd9709fb6562cf5799f45b6c52d6cc0c1c1758dadf4c090c18925ea9fb620699593602099606096610620575b8590525060038952206001600160a01b0391909116600081815291885260409182902080546001600160a01b031916881790558151928352828801528101859052a2604051908152f35b61062991610740565b38816105d6565b6040513d88823e3d90fd5b8280fd5b631b3b544f60e01b8752600487fd5b50346100f75760203660031901126100f7576106686106c7565b610670610778565b6001600160a01b031680156106b857600280546001600160a01b031916821790557f310ba5f1d2ed074b51e2eccd052a47ae9ab7c6b800d1fca3db3999d6a592ca038280a280f35b63d92e233d60e01b8252600482fd5b600435906001600160a01b03821682036106dd57565b600080fd5b60809060031901126106dd576004356001600160a01b03811681036106dd57906024356001600160a01b03811681036106dd57906044356001600160a01b03811681036106dd57906064356001600160a01b03811681036106dd5790565b90601f8019910116810190811067ffffffffffffffff82111761076257604052565b634e487b7160e01b600052604160045260246000fd5b6000546001600160a01b0316330361078c57565b63118cdaa760e01b6000523360045260246000fdfea164736f6c634300081c000a",
  "linkReferences": {},
  "deployedLinkReferences": {}
}