{
  "_format": "hh-sol-artifact-1",
  "contractName": "CrossChainVaultV1",
  "sourceName": "contracts/CrossChainVaultV1.sol",
  "abi": [
    {
      "inputs": [
        {
          "internalType": "address",
          "name": "executor_",
          "type": "address"
        },
        {
          "internalType": "uint32",
          "name": "_destinationDomain",
          "type": "uint32"
        }
      ],
      "stateMutability": "nonpayable",
      "type": "constructor"
    },
    {
      "inputs": [],
      "name": "AmountMustBeGreaterThanZero",
      "type": "error"
    },
    {
      "inputs": [],
      "name": "InvalidExecutorAddress",
      "type": "error"
    },
    {
      "inputs": [],
      "name": "InvalidTokenAddress",
      "type": "error"
    },
    {
      "inputs": [],
      "name": "NormalizedAmountMustBeGreaterThanZero",
      "type": "error"
    },
    {
      "inputs": [],
      "name": "ReentrancyGuardReentrantCall",
      "type": "error"
    },
    {
      "inputs": [
        {
          "internalType": "address",
          "name": "token",
          "type": "address"
        }
      ],
      "name": "SafeERC20FailedOperation",
      "type": "error"
    },
    {
      "inputs": [],
      "name": "TargetRecipientCannotBeBytes32Zero",
      "type": "error"
    },
    {
      "inputs": [],
      "name": "destinationDomain",
      "outputs": [
        {
          "internalType": "uint32",
          "name": "",
          "type": "uint32"
        }
      ],
      "stateMutability": "view",
      "type": "function"
    },
    {
      "inputs": [],
      "name": "executor",
      "outputs": [
        {
          "internalType": "contract ICCTPv1WithExecutor",
          "name": "",
          "type": "address"
        }
      ],
      "stateMutability": "view",
      "type": "function"
    },
    {
      "inputs": [
        {
          "internalType": "address",
          "name": "token",
          "type": "address"
        },
        {
          "internalType": "uint256",
          "name": "amount",
          "type": "uint256"
        },
        {
          "internalType": "uint16",
          "name": "targetChain",
          "type": "uint16"
        },
        {
          "internalType": "bytes32",
          "name": "targetRecipient",
          "type": "bytes32"
        },
        {
          "components": [
            {
              "internalType": "address",
              "name": "refundAddress",
              "type": "address"
            },
            {
              "internalType": "bytes",
              "name": "signedQuote",
              "type": "bytes"
            },
            {
              "internalType": "bytes",
              "name": "instructions",
              "type": "bytes"
            }
          ],
          "internalType": "struct ExecutorArgs",
          "name": "executorArgs",
          "type": "tuple"
        },
        {
          "components": [
            {
              "internalType": "uint256",
              "name": "transferTokenFee",
              "type": "uint256"
            },
            {
              "internalType": "uint256",
              "name": "nativeTokenFee",
              "type": "uint256"
            },
            {
              "internalType": "address",
              "name": "payee",
              "type": "address"
            }
          ],
          "internalType": "struct FeeArgs",
          "name": "feeArgs",
          "type": "tuple"
        }
      ],
      "name": "sendTokens",
      "outputs": [],
      "stateMutability": "payable",
      "type": "function"
    }
  ],
  "bytecode": "0x60803460a857601f6106ae38819003918201601f19168301916001600160401b0383118484101760ad57808492604094855283398101031260a85780516001600160a01b038116919082900360a857602001519063ffffffff8216820360a857600160005580156098576001549163ffffffff60a01b9060a01b169160018060c01b03191617176001556040516105ea90816100c48239f35b62a4c69d60e31b60005260046000fd5b600080fd5b634e487b7160e01b600052604160045260246000fdfe608080604052600436101561001357600080fd5b60003560e01c9081632858c55a14610447575080632eb4555c1461006e5763c34c08e51461004057600080fd5b34610069576000366003190112610069576001546040516001600160a01b039091168152602090f35b600080fd5b610100366003190112610069576004356001600160a01b03811680820361006957602435916044359161ffff8316809303610069576084359060643567ffffffffffffffff8311610069578260040193606060031985360301126100695760603660a319011261006957600260005414610436576002600055821561042557861561041457811561040357600080604051602081019063313ce56760e01b82526004815261011d60248261046b565b5190845afa5061012b6104f6565b602081805181010312610069576020015160ff8116809103610069578790600881116103c3575b50156103b257806101a06101686101a593610536565b98604051906323b872dd60e01b602083015233602483015230604483015260648201526064815261019a60848261046b565b85610582565b610536565b95860395861161039c5760018060a01b03600154166040516020600081830163095ea7b360e01b81528460248501528a6044850152604484526101e960648561046b565b83519082885af16000513d82610380575b505015610340575b505060015494604051966309a345e960e21b88526004880152602487015263ffffffff8560a01c1660448701526064860152608485015261012060a4850152813560018060a01b038116809103610069576102a29261028e91610124870152604461028661027360248601846104a3565b60606101448b01526101848a01916104d5565b9301906104a3565b8583036101231901610164870152906104d5565b9060a43560c484015260c43560e484015260e4359060018060a01b03821680920361006957838060209481946101048301520391349060018060a01b03165af18015610334576102f4575b6001600055005b6020813d60201161032c575b8161030d6020938361046b565b81010312610069575167ffffffffffffffff81160361006957806102ed565b3d9150610300565b6040513d6000823e3d90fd5b610373610379926040519063095ea7b360e01b60208301526024820152600060448201526044815261019a60648261046b565b83610582565b8680610202565b9091506103945750833b15155b89806101fa565b60011461038d565b634e487b7160e01b600052601160045260246000fd5b63bc74cb5760e01b60005260046000fd5b60071901905060ff811161039c5760ff16604d811161039c57600a0a80156103ed57870488610152565b634e487b7160e01b600052601260045260246000fd5b63322fb53760e11b60005260046000fd5b635e85ae7360e01b60005260046000fd5b630f58058360e11b60005260046000fd5b633ee5aeb560e01b60005260046000fd5b346100695760003660031901126100695760209063ffffffff60015460a01c168152f35b90601f8019910116810190811067ffffffffffffffff82111761048d57604052565b634e487b7160e01b600052604160045260246000fd5b9035601e198236030181121561006957016020813591019167ffffffffffffffff821161006957813603831361006957565b908060209392818452848401376000828201840152601f01601f1916010190565b3d15610531573d9067ffffffffffffffff821161048d5760405191610525601f8201601f19166020018461046b565b82523d6000602084013e565b606090565b6000809160405160208101906370a0823160e01b82523060248201526024815261056160448261046b565b51915afa5061056e6104f6565b602081805181010312610069576020015190565b906000602091828151910182855af115610334576000513d6105d457506001600160a01b0381163b155b6105b35750565b635274afe760e01b60009081526001600160a01b0391909116600452602490fd5b600114156105ac56fea164736f6c634300081c000a",
  "linkReferences": {},
  "deployedLinkReferences": {}
}