{
  "_format": "hh-sol-artifact-1",
  "contractName": "NuvaVault",
  "sourceName": "contracts/prime/NuvaVault.sol",
  "abi": [
    {
      "inputs": [],
      "stateMutability": "nonpayable",
      "type": "constructor"
    },
    {
      "inputs": [
        {
          "internalType": "address",
          "name": "target",
          "type": "address"
        }
      ],
      "name": "AddressEmptyCode",
      "type": "error"
    },
    {
      "inputs": [],
      "name": "ECDSAInvalidSignature",
      "type": "error"
    },
    {
      "inputs": [
        {
          "internalType": "uint256",
          "name": "length",
          "type": "uint256"
        }
      ],
      "name": "ECDSAInvalidSignatureLength",
      "type": "error"
    },
    {
      "inputs": [
        {
          "internalType": "bytes32",
          "name": "s",
          "type": "bytes32"
        }
      ],
      "name": "ECDSAInvalidSignatureS",
      "type": "error"
    },
    {
      "inputs": [
        {
          "internalType": "address",
          "name": "implementation",
          "type": "address"
        }
      ],
      "name": "ERC1967InvalidImplementation",
      "type": "error"
    },
    {
      "inputs": [],
      "name": "ERC1967NonPayable",
      "type": "error"
    },
    {
      "inputs": [
        {
          "internalType": "address",
          "name": "spender",
          "type": "address"
        },
        {
          "internalType": "uint256",
          "name": "allowance",
          "type": "uint256"
        },
        {
          "internalType": "uint256",
          "name": "needed",
          "type": "uint256"
        }
      ],
      "name": "ERC20InsufficientAllowance",
      "type": "error"
    },
    {
      "inputs": [
        {
          "internalType": "address",
          "name": "sender",
          "type": "address"
        },
        {
          "internalType": "uint256",
          "name": "balance",
          "type": "uint256"
        },
        {
          "internalType": "uint256",
          "name": "needed",
          "type": "uint256"
        }
      ],
      "name": "ERC20InsufficientBalance",
      "type": "error"
    },
    {
      "inputs": [
        {
          "internalType": "address",
          "name": "approver",
          "type": "address"
        }
      ],
      "name": "ERC20InvalidApprover",
      "type": "error"
    },
    {
      "inputs": [
        {
          "internalType": "address",
          "name": "receiver",
          "type": "address"
        }
      ],
      "name": "ERC20InvalidReceiver",
      "type": "error"
    },
    {
      "inputs": [
        {
          "internalType": "address",
          "name": "sender",
          "type": "address"
        }
      ],
      "name": "ERC20InvalidSender",
      "type": "error"
    },
    {
      "inputs": [
        {
          "internalType": "address",
          "name": "spender",
          "type": "address"
        }
      ],
      "name": "ERC20InvalidSpender",
      "type": "error"
    },
    {
      "inputs": [
        {
          "internalType": "uint256",
          "name": "deadline",
          "type": "uint256"
        }
      ],
      "name": "ERC2612ExpiredSignature",
      "type": "error"
    },
    {
      "inputs": [
        {
          "internalType": "address",
          "name": "signer",
          "type": "address"
        },
        {
          "internalType": "address",
          "name": "owner",
          "type": "address"
        }
      ],
      "name": "ERC2612InvalidSigner",
      "type": "error"
    },
    {
      "inputs": [
        {
          "internalType": "address",
          "name": "receiver",
          "type": "address"
        },
        {
          "internalType": "uint256",
          "name": "assets",
          "type": "uint256"
        },
        {
          "internalType": "uint256",
          "name": "max",
          "type": "uint256"
        }
      ],
      "name": "ERC4626ExceededMaxDeposit",
      "type": "error"
    },
    {
      "inputs": [
        {
          "internalType": "address",
          "name": "receiver",
          "type": "address"
        },
        {
          "internalType": "uint256",
          "name": "shares",
          "type": "uint256"
        },
        {
          "internalType": "uint256",
          "name": "max",
          "type": "uint256"
        }
      ],
      "name": "ERC4626ExceededMaxMint",
      "type": "error"
    },
    {
      "inputs": [
        {
          "internalType": "address",
          "name": "owner",
          "type": "address"
        },
        {
          "internalType": "uint256",
          "name": "shares",
          "type": "uint256"
        },
        {
          "internalType": "uint256",
          "name": "max",
          "type": "uint256"
        }
      ],
      "name": "ERC4626ExceededMaxRedeem",
      "type": "error"
    },
    {
      "inputs": [
        {
          "internalType": "address",
          "name": "owner",
          "type": "address"
        },
        {
          "internalType": "uint256",
          "name": "assets",
          "type": "uint256"
        },
        {
          "internalType": "uint256",
          "name": "max",
          "type": "uint256"
        }
      ],
      "name": "ERC4626ExceededMaxWithdraw",
      "type": "error"
    },
    {
      "inputs": [],
      "name": "EnforcedPause",
      "type": "error"
    },
    {
      "inputs": [],
      "name": "ExpectedPause",
      "type": "error"
    },
    {
      "inputs": [],
      "name": "FailedCall",
      "type": "error"
    },
    {
      "inputs": [
        {
          "internalType": "address",
          "name": "account",
          "type": "address"
        },
        {
          "internalType": "uint256",
          "name": "currentNonce",
          "type": "uint256"
        }
      ],
      "name": "InvalidAccountNonce",
      "type": "error"
    },
    {
      "inputs": [],
      "name": "InvalidAsset",
      "type": "error"
    },
    {
      "inputs": [],
      "name": "InvalidInitialization",
      "type": "error"
    },
    {
      "inputs": [],
      "name": "NotInitializing",
      "type": "error"
    },
    {
      "inputs": [
        {
          "internalType": "address",
          "name": "owner",
          "type": "address"
        }
      ],
      "name": "OwnableInvalidOwner",
      "type": "error"
    },
    {
      "inputs": [
        {
          "internalType": "address",
          "name": "account",
          "type": "address"
        }
      ],
      "name": "OwnableUnauthorizedAccount",
      "type": "error"
    },
    {
      "inputs": [],
      "name": "ReentrancyGuardReentrantCall",
      "type": "error"
    },
    {
      "inputs": [
        {
          "internalType": "address",
          "name": "token",
          "type": "address"
        }
      ],
      "name": "SafeERC20FailedOperation",
      "type": "error"
    },
    {
      "inputs": [],
      "name": "UUPSUnauthorizedCallContext",
      "type": "error"
    },
    {
      "inputs": [
        {
          "internalType": "bytes32",
          "name": "slot",
          "type": "bytes32"
        }
      ],
      "name": "UUPSUnsupportedProxiableUUID",
      "type": "error"
    },
    {
      "anonymous": false,
      "inputs": [
        {
          "indexed": true,
          "internalType": "address",
          "name": "owner",
          "type": "address"
        },
        {
          "indexed": true,
          "internalType": "address",
          "name": "spender",
          "type": "address"
        },
        {
          "indexed": false,
          "internalType": "uint256",
          "name": "value",
          "type": "uint256"
        }
      ],
      "name": "Approval",
      "type": "event"
    },
    {
      "anonymous": false,
      "inputs": [
        {
          "indexed": true,
          "internalType": "address",
          "name": "sender",
          "type": "address"
        },
        {
          "indexed": true,
          "internalType": "address",
          "name": "owner",
          "type": "address"
        },
        {
          "indexed": false,
          "internalType": "uint256",
          "name": "assets",
          "type": "uint256"
        },
        {
          "indexed": false,
          "internalType": "uint256",
          "name": "shares",
          "type": "uint256"
        }
      ],
      "name": "Deposit",
      "type": "event"
    },
    {
      "anonymous": false,
      "inputs": [],
      "name": "EIP712DomainChanged",
      "type": "event"
    },
    {
      "anonymous": false,
      "inputs": [
        {
          "indexed": false,
          "internalType": "uint64",
          "name": "version",
          "type": "uint64"
        }
      ],
      "name": "Initialized",
      "type": "event"
    },
    {
      "anonymous": false,
      "inputs": [
        {
          "indexed": true,
          "internalType": "address",
          "name": "previousOwner",
          "type": "address"
        },
        {
          "indexed": true,
          "internalType": "address",
          "name": "newOwner",
          "type": "address"
        }
      ],
      "name": "OwnershipTransferStarted",
      "type": "event"
    },
    {
      "anonymous": false,
      "inputs": [
        {
          "indexed": true,
          "internalType": "address",
          "name": "previousOwner",
          "type": "address"
        },
        {
          "indexed": true,
          "internalType": "address",
          "name": "newOwner",
          "type": "address"
        }
      ],
      "name": "OwnershipTransferred",
      "type": "event"
    },
    {
      "anonymous": false,
      "inputs": [
        {
          "indexed": false,
          "internalType": "address",
          "name": "account",
          "type": "address"
        }
      ],
      "name": "Paused",
      "type": "event"
    },
    {
      "anonymous": false,
      "inputs": [
        {
          "indexed": true,
          "internalType": "address",
          "name": "from",
          "type": "address"
        },
        {
          "indexed": true,
          "internalType": "address",
          "name": "to",
          "type": "address"
        },
        {
          "indexed": false,
          "internalType": "uint256",
          "name": "value",
          "type": "uint256"
        }
      ],
      "name": "Transfer",
      "type": "event"
    },
    {
      "anonymous": false,
      "inputs": [
        {
          "indexed": false,
          "internalType": "address",
          "name": "account",
          "type": "address"
        }
      ],
      "name": "Unpaused",
      "type": "event"
    },
    {
      "anonymous": false,
      "inputs": [
        {
          "indexed": true,
          "internalType": "address",
          "name": "implementation",
          "type": "address"
        }
      ],
      "name": "Upgraded",
      "type": "event"
    },
    {
      "anonymous": false,
      "inputs": [
        {
          "indexed": true,
          "internalType": "address",
          "name": "sender",
          "type": "address"
        },
        {
          "indexed": true,
          "internalType": "address",
          "name": "receiver",
          "type": "address"
        },
        {
          "indexed": true,
          "internalType": "address",
          "name": "owner",
          "type": "address"
        },
        {
          "indexed": false,
          "internalType": "uint256",
          "name": "assets",
          "type": "uint256"
        },
        {
          "indexed": false,
          "internalType": "uint256",
          "name": "shares",
          "type": "uint256"
        }
      ],
      "name": "Withdraw",
      "type": "event"
    },
    {
      "inputs": [],
      "name": "DOMAIN_SEPARATOR",
      "outputs": [
        {
          "internalType": "bytes32",
          "name": "",
          "type": "bytes32"
        }
      ],
      "stateMutability": "view",
      "type": "function"
    },
    {
      "inputs": [],
      "name": "UPGRADE_INTERFACE_VERSION",
      "outputs": [
        {
          "internalType": "string",
          "name": "",
          "type": "string"
        }
      ],
      "stateMutability": "view",
      "type": "function"
    },
    {
      "inputs": [],
      "name": "acceptOwnership",
      "outputs": [],
      "stateMutability": "nonpayable",
      "type": "function"
    },
    {
      "inputs": [
        {
          "internalType": "address",
          "name": "owner",
          "type": "address"
        },
        {
          "internalType": "address",
          "name": "spender",
          "type": "address"
        }
      ],
      "name": "allowance",
      "outputs": [
        {
          "internalType": "uint256",
          "name": "",
          "type": "uint256"
        }
      ],
      "stateMutability": "view",
      "type": "function"
    },
    {
      "inputs": [
        {
          "internalType": "address",
          "name": "spender",
          "type": "address"
        },
        {
          "internalType": "uint256",
          "name": "value",
          "type": "uint256"
        }
      ],
      "name": "approve",
      "outputs": [
        {
          "internalType": "bool",
          "name": "",
          "type": "bool"
        }
      ],
      "stateMutability": "nonpayable",
      "type": "function"
    },
    {
      "inputs": [],
      "name": "asset",
      "outputs": [
        {
          "internalType": "address",
          "name": "",
          "type": "address"
        }
      ],
      "stateMutability": "view",
      "type": "function"
    },
    {
      "inputs": [
        {
          "internalType": "address",
          "name": "account",
          "type": "address"
        }
      ],
      "name": "balanceOf",
      "outputs": [
        {
          "internalType": "uint256",
          "name": "",
          "type": "uint256"
        }
      ],
      "stateMutability": "view",
      "type": "function"
    },
    {
      "inputs": [
        {
          "internalType": "uint256",
          "name": "shares",
          "type": "uint256"
        }
      ],
      "name": "convertToAssets",
      "outputs": [
        {
          "internalType": "uint256",
          "name": "",
          "type": "uint256"
        }
      ],
      "stateMutability": "view",
      "type": "function"
    },
    {
      "inputs": [
        {
          "internalType": "uint256",
          "name": "assets",
          "type": "uint256"
        }
      ],
      "name": "convertToShares",
      "outputs": [
        {
          "internalType": "uint256",
          "name": "",
          "type": "uint256"
        }
      ],
      "stateMutability": "view",
      "type": "function"
    },
    {
      "inputs": [],
      "name": "decimals",
      "outputs": [
        {
          "internalType": "uint8",
          "name": "",
          "type": "uint8"
        }
      ],
      "stateMutability": "view",
      "type": "function"
    },
    {
      "inputs": [
        {
          "internalType": "uint256",
          "name": "assets",
          "type": "uint256"
        },
        {
          "internalType": "address",
          "name": "receiver",
          "type": "address"
        }
      ],
      "name": "deposit",
      "outputs": [
        {
          "internalType": "uint256",
          "name": "shares",
          "type": "uint256"
        }
      ],
      "stateMutability": "nonpayable",
      "type": "function"
    },
    {
      "inputs": [],
      "name": "eip712Domain",
      "outputs": [
        {
          "internalType": "bytes1",
          "name": "fields",
          "type": "bytes1"
        },
        {
          "internalType": "string",
          "name": "name",
          "type": "string"
        },
        {
          "internalType": "string",
          "name": "version",
          "type": "string"
        },
        {
          "internalType": "uint256",
          "name": "chainId",
          "type": "uint256"
        },
        {
          "internalType": "address",
          "name": "verifyingContract",
          "type": "address"
        },
        {
          "internalType": "bytes32",
          "name": "salt",
          "type": "bytes32"
        },
        {
          "internalType": "uint256[]",
          "name": "extensions",
          "type": "uint256[]"
        }
      ],
      "stateMutability": "view",
      "type": "function"
    },
    {
      "inputs": [
        {
          "internalType": "address",
          "name": "_asset",
          "type": "address"
        },
        {
          "internalType": "string",
          "name": "_name",
          "type": "string"
        },
        {
          "internalType": "string",
          "name": "_symbol",
          "type": "string"
        },
        {
          "internalType": "address",
          "name": "_initialOwner",
          "type": "address"
        }
      ],
      "name": "initialize",
      "outputs": [],
      "stateMutability": "nonpayable",
      "type": "function"
    },
    {
      "inputs": [
        {
          "internalType": "address",
          "name": "",
          "type": "address"
        }
      ],
      "name": "maxDeposit",
      "outputs": [
        {
          "internalType": "uint256",
          "name": "",
          "type": "uint256"
        }
      ],
      "stateMutability": "view",
      "type": "function"
    },
    {
      "inputs": [
        {
          "internalType": "address",
          "name": "",
          "type": "address"
        }
      ],
      "name": "maxMint",
      "outputs": [
        {
          "internalType": "uint256",
          "name": "",
          "type": "uint256"
        }
      ],
      "stateMutability": "view",
      "type": "function"
    },
    {
      "inputs": [
        {
          "internalType": "address",
          "name": "owner",
          "type": "address"
        }
      ],
      "name": "maxRedeem",
      "outputs": [
        {
          "internalType": "uint256",
          "name": "",
          "type": "uint256"
        }
      ],
      "stateMutability": "view",
      "type": "function"
    },
    {
      "inputs": [
        {
          "internalType": "address",
          "name": "owner",
          "type": "address"
        }
      ],
      "name": "maxWithdraw",
      "outputs": [
        {
          "internalType": "uint256",
          "name": "",
          "type": "uint256"
        }
      ],
      "stateMutability": "view",
      "type": "function"
    },
    {
      "inputs": [
        {
          "internalType": "uint256",
          "name": "shares",
          "type": "uint256"
        },
        {
          "internalType": "address",
          "name": "receiver",
          "type": "address"
        }
      ],
      "name": "mint",
      "outputs": [
        {
          "internalType": "uint256",
          "name": "assets",
          "type": "uint256"
        }
      ],
      "stateMutability": "nonpayable",
      "type": "function"
    },
    {
      "inputs": [],
      "name": "name",
      "outputs": [
        {
          "internalType": "string",
          "name": "",
          "type": "string"
        }
      ],
      "stateMutability": "view",
      "type": "function"
    },
    {
      "inputs": [
        {
          "internalType": "address",
          "name": "owner",
          "type": "address"
        }
      ],
      "name": "nonces",
      "outputs": [
        {
          "internalType": "uint256",
          "name": "",
          "type": "uint256"
        }
      ],
      "stateMutability": "view",
      "type": "function"
    },
    {
      "inputs": [],
      "name": "owner",
      "outputs": [
        {
          "internalType": "address",
          "name": "",
          "type": "address"
        }
      ],
      "stateMutability": "view",
      "type": "function"
    },
    {
      "inputs": [],
      "name": "pause",
      "outputs": [],
      "stateMutability": "nonpayable",
      "type": "function"
    },
    {
      "inputs": [],
      "name": "paused",
      "outputs": [
        {
          "internalType": "bool",
          "name": "",
          "type": "bool"
        }
      ],
      "stateMutability": "view",
      "type": "function"
    },
    {
      "inputs": [],
      "name": "pendingOwner",
      "outputs": [
        {
          "internalType": "address",
          "name": "",
          "type": "address"
        }
      ],
      "stateMutability": "view",
      "type": "function"
    },
    {
      "inputs": [
        {
          "internalType": "address",
          "name": "owner",
          "type": "address"
        },
        {
          "internalType": "address",
          "name": "spender",
          "type": "address"
        },
        {
          "internalType": "uint256",
          "name": "value",
          "type": "uint256"
        },
        {
          "internalType": "uint256",
          "name": "deadline",
          "type": "uint256"
        },
        {
          "internalType": "uint8",
          "name": "v",
          "type": "uint8"
        },
        {
          "internalType": "bytes32",
          "name": "r",
          "type": "bytes32"
        },
        {
          "internalType": "bytes32",
          "name": "s",
          "type": "bytes32"
        }
      ],
      "name": "permit",
      "outputs": [],
      "stateMutability": "nonpayable",
      "type": "function"
    },
    {
      "inputs": [
        {
          "internalType": "uint256",
          "name": "assets",
          "type": "uint256"
        }
      ],
      "name": "previewDeposit",
      "outputs": [
        {
          "internalType": "uint256",
          "name": "",
          "type": "uint256"
        }
      ],
      "stateMutability": "view",
      "type": "function"
    },
    {
      "inputs": [
        {
          "internalType": "uint256",
          "name": "shares",
          "type": "uint256"
        }
      ],
      "name": "previewMint",
      "outputs": [
        {
          "internalType": "uint256",
          "name": "",
          "type": "uint256"
        }
      ],
      "stateMutability": "view",
      "type": "function"
    },
    {
      "inputs": [
        {
          "internalType": "uint256",
          "name": "shares",
          "type": "uint256"
        }
      ],
      "name": "previewRedeem",
      "outputs": [
        {
          "internalType": "uint256",
          "name": "",
          "type": "uint256"
        }
      ],
      "stateMutability": "view",
      "type": "function"
    },
    {
      "inputs": [
        {
          "internalType": "uint256",
          "name": "assets",
          "type": "uint256"
        }
      ],
      "name": "previewWithdraw",
      "outputs": [
        {
          "internalType": "uint256",
          "name": "",
          "type": "uint256"
        }
      ],
      "stateMutability": "view",
      "type": "function"
    },
    {
      "inputs": [],
      "name": "proxiableUUID",
      "outputs": [
        {
          "internalType": "bytes32",
          "name": "",
          "type": "bytes32"
        }
      ],
      "stateMutability": "view",
      "type": "function"
    },
    {
      "inputs": [
        {
          "internalType": "uint256",
          "name": "shares",
          "type": "uint256"
        },
        {
          "internalType": "address",
          "name": "receiver",
          "type": "address"
        },
        {
          "internalType": "address",
          "name": "owner",
          "type": "address"
        }
      ],
      "name": "redeem",
      "outputs": [
        {
          "internalType": "uint256",
          "name": "assets",
          "type": "uint256"
        }
      ],
      "stateMutability": "nonpayable",
      "type": "function"
    },
    {
      "inputs": [],
      "name": "renounceOwnership",
      "outputs": [],
      "stateMutability": "nonpayable",
      "type": "function"
    },
    {
      "inputs": [],
      "name": "symbol",
      "outputs": [
        {
          "internalType": "string",
          "name": "",
          "type": "string"
        }
      ],
      "stateMutability": "view",
      "type": "function"
    },
    {
      "inputs": [],
      "name": "totalAssets",
      "outputs": [
        {
          "internalType": "uint256",
          "name": "",
          "type": "uint256"
        }
      ],
      "stateMutability": "view",
      "type": "function"
    },
    {
      "inputs": [],
      "name": "totalSupply",
      "outputs": [
        {
          "internalType": "uint256",
          "name": "",
          "type": "uint256"
        }
      ],
      "stateMutability": "view",
      "type": "function"
    },
    {
      "inputs": [
        {
          "internalType": "address",
          "name": "to",
          "type": "address"
        },
        {
          "internalType": "uint256",
          "name": "value",
          "type": "uint256"
        }
      ],
      "name": "transfer",
      "outputs": [
        {
          "internalType": "bool",
          "name": "",
          "type": "bool"
        }
      ],
      "stateMutability": "nonpayable",
      "type": "function"
    },
    {
      "inputs": [
        {
          "internalType": "address",
          "name": "from",
          "type": "address"
        },
        {
          "internalType": "address",
          "name": "to",
          "type": "address"
        },
        {
          "internalType": "uint256",
          "name": "value",
          "type": "uint256"
        }
      ],
      "name": "transferFrom",
      "outputs": [
        {
          "internalType": "bool",
          "name": "",
          "type": "bool"
        }
      ],
      "stateMutability": "nonpayable",
      "type": "function"
    },
    {
      "inputs": [
        {
          "internalType": "address",
          "name": "newOwner",
          "type": "address"
        }
      ],
      "name": "transferOwnership",
      "outputs": [],
      "stateMutability": "nonpayable",
      "type": "function"
    },
    {
      "inputs": [],
      "name": "unpause",
      "outputs": [],
      "stateMutability": "nonpayable",
      "type": "function"
    },
    {
      "inputs": [
        {
          "internalType": "address",
          "name": "newImplementation",
          "type": "address"
        },
        {
          "internalType": "bytes",
          "name": "data",
          "type": "bytes"
        }
      ],
      "name": "upgradeToAndCall",
      "outputs": [],
      "stateMutability": "payable",
      "type": "function"
    },
    {
      "inputs": [
        {
          "internalType": "uint256",
          "name": "assets",
          "type": "uint256"
        },
        {
          "internalType": "address",
          "name": "receiver",
          "type": "address"
        },
        {
          "internalType": "address",
          "name": "owner",
          "type": "address"
        }
      ],
      "name": "withdraw",
      "outputs": [
        {
          "internalType": "uint256",
          "name": "shares",
          "type": "uint256"
        }
      ],
      "stateMutability": "nonpayable",
      "type": "function"
    }
  ],
  "bytecode": "0x60a080604052346100ea57306080527ff0c57e16840df040f15088dc2f81fe391c3923bec73e23a9662efc9c229c6a005460ff8160401c166100d9576002600160401b03196001600160401b03821601610073575b604051612a1b90816100f0823960805181818161142201526114c80152f35b6001600160401b0319166001600160401b039081177ff0c57e16840df040f15088dc2f81fe391c3923bec73e23a9662efc9c229c6a005581527fc7f505b2f371ae2175ee4913f4499e1f2633a7b5936321eed1cdaeb6115181d290602090a13880610054565b63f92ee8a960e01b60005260046000fd5b600080fdfe6080604052600436101561001257600080fd5b60003560e01c806301e1d114146118fe57806306fdde031461183c57806307a2d13a14611666578063095ea7b3146118165780630a28a477146117f857806318160ddd146117cd57806323b872dd14611795578063313ce5671461173f5780633644e5151461172457806338d52e0f146116ee5780633f4ba83a1461166b578063402d267d146104ca5780634cdad506146116665780634f1ef2861461147957806352d1902d1461140f5780635c975abb146113df578063613d25bb14610add5780636e553f6514610aa257806370a08231146102ef578063715018a614610a2157806379ba5097146109d15780637ecebe00146109795780638456cb591461090557806384b0196e146107b65780638da5cb5b1461078057806394bf804d1461074557806395d89b411461064a578063a9059cbb14610619578063ad3cb1cc146105ce578063b3d7f6b9146105b0578063b460af941461054b578063ba087652146104cf578063c63d75b6146104ca578063c6e6f5921461026b578063ce96cb77146104a7578063d505accf1461033d578063d905777e146102ef578063dd62ed3e146102a6578063e30c397814610270578063ef8b30f71461026b5763f2fde38b146101df57600080fd5b34610266576020366003190112610266576101f8611978565b610200612023565b6000805160206129ef83398151915280546001600160a01b0319166001600160a01b0392831690811790915560008051602061290f833981519152549091167f38d16b8cac22d99fc7c124b9cd0de2d3fa1faef420bfe791d8c362d765e22700600080a3005b600080fd5b611a97565b34610266576000366003190112610266576000805160206129ef833981519152546040516001600160a01b039091168152602090f35b34610266576040366003190112610266576102bf611978565b6102d06102ca61198e565b91611cf9565b9060018060a01b03166000526020526020604060002054604051908152f35b3461026657602036600319011261026657602061033561030d611978565b6001600160a01b031660009081526000805160206128af833981519152602052604090205490565b604051908152f35b346102665760e036600319011261026657610356611978565b61035e61198e565b604435906064359260843560ff81168103610266578442116104925761045361045c9160018060a01b03841696876000527f5ab42ced628888259c08ac98db1eb0cf702fc1501344311d8b100cd1bfe4bb006020526040600020908154916001830190556040519060208201927f6e71edae12b1b97f4d1f60370fef10105fa2faae0126114a169c64845d6126c984528a604084015260018060a01b038916606084015289608084015260a083015260c082015260c0815261042160e0826119ca565b51902061042c6121a0565b906040519161190160f01b83526002830152602282015260c43591604260a43592206124a3565b9092919261254c565b6001600160a01b03168481036104795750610477935061213b565b005b84906325c0072360e11b60005260045260245260446000fd5b8463313c898160e11b60005260045260246000fd5b346102665760203660031901126102665760206103356104c5611978565b611d32565b6119a4565b34610266576104dd36611a5d565b91906104e7612044565b6001600160a01b03831660008181526000805160206128af83398151915260205260409020549081841161052f57602085610335868661052682611dac565b93849133612346565b8390632e52afbb60e21b60005260045260245260445260646000fd5b346102665761055936611a5d565b9091610563612044565b61056c82611d32565b80821161058d57506020928161058461033593611de5565b93849233612346565b91633fa733bb60e21b60005260018060a01b031660045260245260445260646000fd5b34610266576020366003190112610266576020610335600435611d6d565b346102665760003660031901126102665761061560408051906105f181836119ca565b60058252640352e302e360dc1b602083015251918291602083526020830190611919565b0390f35b346102665760403660031901126102665761063f610635611978565b6024359033611f34565b602060405160018152f35b346102665760003660031901126102665760405160006000805160206128ef8339815191525461067981611b3b565b808452906001811690811561072157506001146106b5575b610615836106a1818503826119ca565b604051918291602083526020830190611919565b6000805160206128ef83398151915260009081527f46a2803e59a4de4e7a4c574b1243f25977ac4c77d5a1a4a609b5394cebb4a2aa939250905b808210610707575090915081016020016106a1610691565b9192600181602092548385880101520191019092916106ef565b60ff191660208086019190915291151560051b840190910191506106a19050610691565b3461026657604036600319011261026657602060043561033561076661198e565b9161076f612044565b61077881611d6d565b809333612235565b346102665760003660031901126102665760008051602061290f833981519152546040516001600160a01b039091168152602090f35b34610266576000366003190112610266577fa16a46d94261c7517cc8ff89f61c0ce93598e3c849801011dee649a6a557d1005415806108dc575b1561089f57610841610800611b75565b610808611c48565b602061084f6040519261081b83856119ca565b600084526000368137604051958695600f60f81b875260e08588015260e0870190611919565b908582036040870152611919565b466060850152306080850152600060a085015283810360c085015281808451928381520193019160005b82811061088857505050500390f35b835185528695509381019392810192600101610879565b60405162461bcd60e51b81526020600482015260156024820152741152540dcc4c8e88155b9a5b9a5d1a585b1a5e9959605a1b6044820152606490fd5b507fa16a46d94261c7517cc8ff89f61c0ce93598e3c849801011dee649a6a557d10154156107f0565b346102665760003660031901126102665761091e612023565b610926612044565b600160ff196000805160206129af8339815191525416176000805160206129af833981519152557f62e78cea01bee320cd4e420270b5ea74000d11b0c9f74754ebdbfc544b05a2586020604051338152a1005b3461026657602036600319011261026657610992611978565b60018060a01b03166000527f5ab42ced628888259c08ac98db1eb0cf702fc1501344311d8b100cd1bfe4bb006020526020604060002054604051908152f35b34610266576000366003190112610266576000805160206129ef83398151915254336001600160a01b0390911603610a0c576104773361206e565b63118cdaa760e01b6000523360045260246000fd5b3461026657600036600319011261026657610a3a612023565b6000805160206129ef83398151915280546001600160a01b031990811690915560008051602061290f833981519152805491821690556000906001600160a01b03167f8be0079c531659141344cd1fd0a4f28419497f9722a3daafe3b4186f6b6457e08280a3005b34610266576040366003190112610266576020600435610335610ac361198e565b610acb612044565b610ad483611e24565b92839133612235565b3461026657608036600319011261026657610af6611978565b60243567ffffffffffffffff811161026657610b16903690600401611a3f565b9060443567ffffffffffffffff811161026657610b37903690600401611a3f565b606435906001600160a01b03821690818303610266576000805160206129cf833981519152549360ff8560401c16159467ffffffffffffffff8116801590816113d7575b60011490816113cd575b1590816113c4575b506113b35767ffffffffffffffff1981166001176000805160206129cf8339815191525585611386575b506001600160a01b031690811561137557610bd0612207565b610bd8612207565b855167ffffffffffffffff811161104457610c0160008051602061288f83398151915254611b3b565b601f8111611303575b50806020601f821160011461128157600091611276575b508160011b916000199060031b1c19161760008051602061288f833981519152555b80519067ffffffffffffffff8211611044578190610c6f6000805160206128ef83398151915254611b3b565b601f81116111f9575b50602090601f83116001146111775760009261116c575b50508160011b916000199060031b1c1916176000805160206128ef833981519152555b610cba612207565b610cc2612207565b610ccb81612750565b9015611164575b60008051602061298f833981519152549060ff60a01b9060a01b16906affffffffffffffffffffff60a81b16171760008051602061298f83398151915255610d18612207565b604093845190610d2886836119ca565b60018252603160f81b6020830152610d3e612207565b80519067ffffffffffffffff8211611044578190610d6a6000805160206128cf83398151915254611b3b565b601f81116110e7575b50602090601f83116001146110655760009261105a575b50508160011b916000199060031b1c1916176000805160206128cf833981519152555b80519067ffffffffffffffff8211611044578190610dd960008051602061294f83398151915254611b3b565b601f8111610fc7575b50602090601f8311600114610f4557600092610f3a575b50508160011b916000199060031b1c19161760008051602061294f833981519152555b60007fa16a46d94261c7517cc8ff89f61c0ce93598e3c849801011dee649a6a557d1005560007fa16a46d94261c7517cc8ff89f61c0ce93598e3c849801011dee649a6a557d10155610e6c612207565b15610f2457610e7a9061206e565b610e82612207565b610e8a612207565b610e92612207565b610e9a612207565b610ea2612207565b60017f9b779b17422d0df92223018b32b4d1fa46e071723d6817e2486d003becc55f0055610ecc57005b60207fc7f505b2f371ae2175ee4913f4499e1f2633a7b5936321eed1cdaeb6115181d29168ff0000000000000000196000805160206129cf83398151915254166000805160206129cf833981519152555160018152a1005b631e4fbdf760e01b600052600060045260246000fd5b015190508680610df9565b60008051602061294f83398151915260009081528281209350601f198516905b818110610faf5750908460019594939210610f96575b505050811b0160008051602061294f83398151915255610e1c565b015160001960f88460031b161c19169055868080610f7b565b92936020600181928786015181550195019301610f65565b60008051602061294f8339815191526000529091507f5f9ce34815f8e11431c7bb75a8e6886a91478f7ffc1dbb0a98dc240fddd76b75601f840160051c8101916020851061103a575b90601f859493920160051c01905b81811061102b5750610de2565b6000815584935060010161101e565b9091508190611010565b634e487b7160e01b600052604160045260246000fd5b015190508780610d8a565b6000805160206128cf83398151915260009081528281209350601f198516905b8181106110cf57509084600195949392106110b6575b505050811b016000805160206128cf83398151915255610dad565b015160001960f88460031b161c1916905587808061109b565b92936020600181928786015181550195019301611085565b6000805160206128cf8339815191526000529091507f42ad5d3e1f2e6e70edcf6d991b8a3023d3fca8047a131592f9edb9fd9b89d57d601f840160051c8101916020851061115a575b90601f859493920160051c01905b81811061114b5750610d73565b6000815584935060010161113e565b9091508190611130565b506012610cd2565b015190508780610c8f565b6000805160206128ef83398151915260009081528281209350601f198516905b8181106111e157509084600195949392106111c8575b505050811b016000805160206128ef83398151915255610cb2565b015160001960f88460031b161c191690558780806111ad565b92936020600181928786015181550195019301611197565b6000805160206128ef8339815191526000529091507f46a2803e59a4de4e7a4c574b1243f25977ac4c77d5a1a4a609b5394cebb4a2aa601f840160051c8101916020851061126c575b90601f859493920160051c01905b81811061125d5750610c78565b60008155849350600101611250565b9091508190611242565b905087015188610c21565b60008051602061288f83398151915260009081528181209250601f198416905b8a8282106112eb57505090836001949392106112d2575b5050811b0160008051602061288f83398151915255610c43565b89015160001960f88460031b161c1916905588806112b8565b600184956020939584930151815501940192016112a1565b60008051602061288f8339815191526000527f2ae08a8e29253f69ac5d979a101956ab8f8d9d7ded63fa7a83b16fc47648eab0601f830160051c8101916020841061136b575b601f0160051c01905b81811061135f5750610c0a565b60008155600101611352565b9091508190611349565b636448d6e960e11b60005260046000fd5b68ffffffffffffffffff191668010000000000000001176000805160206129cf8339815191525586610bb7565b63f92ee8a960e01b60005260046000fd5b90501588610b8d565b303b159150610b85565b879150610b7b565b3461026657600036600319011261026657602060ff6000805160206129af83398151915254166040519015158152f35b34610266576000366003190112610266577f00000000000000000000000000000000000000000000000000000000000000006001600160a01b0316300361146857602060405160008051602061296f8339815191528152f35b63703e46dd60e11b60005260046000fd5b60403660031901126102665761148d611978565b60243567ffffffffffffffff81116102665736602382011215610266576114be903690602481600401359101611a08565b6001600160a01b037f000000000000000000000000000000000000000000000000000000000000000016308114908115611643575b5061146857611500612023565b6040516352d1902d60e01b81526001600160a01b0383169290602081600481875afa6000918161160f575b506115455783634c9c8ce360e01b60005260045260246000fd5b8060008051602061296f8339815191528592036115fb5750813b156115e75760008051602061296f83398151915280546001600160a01b031916821790557fbc7cd75a20ee27fd9adebab32041f755214dbc6bffa90cc0225b39da2e5c2d3b600080a28151156115cd5760008083602061047795519101845af46115c7612720565b916127d2565b5050346115d657005b63b398979f60e01b60005260046000fd5b634c9c8ce360e01b60005260045260246000fd5b632a87526960e21b60005260045260246000fd5b9091506020813d60201161163b575b8161162b602093836119ca565b810103126102665751908561152b565b3d915061161e565b60008051602061296f833981519152546001600160a01b031614159050836114f3565b61195a565b3461026657600036600319011261026657611684612023565b6000805160206129af8339815191525460ff8116156116dd5760ff19166000805160206129af833981519152557f5db9ee0a495bf2e6ff9c91a7834c1ba4fdd244a5e8aa4e537bd38aeae4b073aa6020604051338152a1005b638dfc202b60e01b60005260046000fd5b346102665760003660031901126102665760008051602061298f833981519152546040516001600160a01b039091168152602090f35b346102665760003660031901126102665760206103356121a0565b3461026657600036600319011261026657600c60ff60008051602061298f8339815191525460a01c160160ff811161177f5760209060ff60405191168152f35b634e487b7160e01b600052601160045260246000fd5b346102665760603660031901126102665761063f6117b1611978565b6117b961198e565b604435916117c8833383611e63565b611f34565b3461026657600036600319011261026657602060008051602061292f83398151915254604051908152f35b34610266576020366003190112610266576020610335600435611de5565b346102665760403660031901126102665761063f611832611978565b602435903361213b565b3461026657600036600319011261026657604051600060008051602061288f8339815191525461186b81611b3b565b8084529060018116908115610721575060011461189257610615836106a1818503826119ca565b60008051602061288f83398151915260009081527f2ae08a8e29253f69ac5d979a101956ab8f8d9d7ded63fa7a83b16fc47648eab0939250905b8082106118e4575090915081016020016106a1610691565b9192600181602092548385880101520191019092916118cc565b34610266576000366003190112610266576020610335611ab5565b919082519283825260005b848110611945575050826000602080949584010152601f8019910116010190565b80602080928401015182828601015201611924565b34610266576020366003190112610266576020610335600435611dac565b600435906001600160a01b038216820361026657565b602435906001600160a01b038216820361026657565b34610266576020366003190112610266576119bd611978565b5060206040516000198152f35b90601f8019910116810190811067ffffffffffffffff82111761104457604052565b67ffffffffffffffff811161104457601f01601f191660200190565b929192611a14826119ec565b91611a2260405193846119ca565b829481845281830111610266578281602093846000960137010152565b9080601f8301121561026657816020611a5a93359101611a08565b90565b606090600319011261026657600435906024356001600160a01b038116810361026657906044356001600160a01b03811681036102665790565b34610266576020366003190112610266576020610335600435611e24565b60008051602061298f833981519152546040516370a0823160e01b815230600482015290602090829060249082906001600160a01b03165afa908115611b2f57600091611b00575090565b90506020813d602011611b27575b81611b1b602093836119ca565b81010312610266575190565b3d9150611b0e565b6040513d6000823e3d90fd5b90600182811c92168015611b6b575b6020831014611b5557565b634e487b7160e01b600052602260045260246000fd5b91607f1691611b4a565b604051906000826000805160206128cf8339815191525491611b9683611b3b565b8083529260018116908115611c295750600114611bbc575b611bba925003836119ca565b565b506000805160206128cf833981519152600090815290917f42ad5d3e1f2e6e70edcf6d991b8a3023d3fca8047a131592f9edb9fd9b89d57d5b818310611c0d575050906020611bba92820101611bae565b6020919350806001915483858901015201910190918492611bf5565b60209250611bba94915060ff191682840152151560051b820101611bae565b6040519060008260008051602061294f8339815191525491611c6983611b3b565b8083529260018116908115611c295750600114611c8c57611bba925003836119ca565b5060008051602061294f833981519152600090815290917f5f9ce34815f8e11431c7bb75a8e6886a91478f7ffc1dbb0a98dc240fddd76b755b818310611cdd575050906020611bba92820101611bae565b6020919350806001915483858901015201910190918492611cc5565b6001600160a01b031660009081527f52c63247e1f47db19d5ce0460030c497f067ca4cebf71ba98eeadabe20bace016020526040902090565b6001600160a01b031660009081526000805160206128af8339815191526020526040902054611a5a90611dac565b9190820180921161177f57565b611d75611ab5565b6001810180911161177f57611a5a91600191611da660008051602061292f8339815191525464e8d4a5100090611d60565b916120dc565b611db4611ab5565b6001810180911161177f57611a5a91600091611da660008051602061292f8339815191525464e8d4a5100090611d60565b611e0460008051602061292f8339815191525464e8d4a5100090611d60565b90611e0d611ab5565b6001810180911161177f57611a5a926001926120dc565b611e4360008051602061292f8339815191525464e8d4a5100090611d60565b90611e4c611ab5565b6001810180911161177f57611a5a926000926120dc565b9190611e6e83611cf9565b60018060a01b038216600052602052604060002054926000198410611e94575b50505050565b828410611f0f576001600160a01b03811615611ef9576001600160a01b03821615611ee357611ec290611cf9565b9060018060a01b031660005260205260406000209103905538808080611e8e565b634a1406b160e11b600052600060045260246000fd5b63e602df0560e01b600052600060045260246000fd5b508290637dc7a0d960e11b60005260018060a01b031660045260245260445260646000fd5b6001600160a01b031690811561200d576001600160a01b0316918215611ff75760008281526000805160206128af8339815191526020526040812054828110611fdd5791604082827fddf252ad1be2c89b69c2b068fc378daa952ba7f163c4a11628f55a4df523b3ef9587602096526000805160206128af833981519152865203828220558681526000805160206128af833981519152845220818154019055604051908152a3565b916064928463391434e360e21b8452600452602452604452fd5b63ec442f0560e01b600052600060045260246000fd5b634b637e8f60e11b600052600060045260246000fd5b60008051602061290f833981519152546001600160a01b03163303610a0c57565b60ff6000805160206129af833981519152541661205d57565b63d93c066560e01b60005260046000fd5b6000805160206129ef83398151915280546001600160a01b031990811690915560008051602061290f83398151915280549182166001600160a01b0393841690811790915591167f8be0079c531659141344cd1fd0a4f28419497f9722a3daafe3b4186f6b6457e0600080a3565b92916001806120ec8385886125ce565b946120f68161252c565b1614918261210e575b5050611a5a9250151590611d60565b908092501561212557611a5a9309151538806120ff565b634e487b7160e01b600052601260045260246000fd5b916001600160a01b038316918215611ef9576001600160a01b0316928315611ee3577f8c5be1e5ebec7d5bd14f71427d1e84f3dd0314c0f7b2291e5b200ac8c7c3b9259161218a602092611cf9565b85600052825280604060002055604051908152a3565b6121a8612671565b6121b06126db565b6040519060208201927f8b73c3c69bb8fe3d512ecc4cf759cc79239f7b179b0ffacaa9a75d522b39400f8452604083015260608201524660808201523060a082015260a0815261220160c0826119ca565b51902090565b60ff6000805160206129cf8339815191525460401c161561222457565b631afcd79f60e31b60005260046000fd5b60008051602061298f833981519152546040516323b872dd60e01b60208201526001600160a01b03928316602482018190523060448301526064808301879052825294939261228f921661228a6084836119ca565b612833565b6001600160a01b0316928315611ff7577fdcbc1c05240f31ff3ad067ef1ee35ce4997762752e3a095284754544f4c709d791816122dd60409360008051602061292f83398151915254611d60565b60008051602061292f83398151915255856000526000805160206128af833981519152602052826000208181540190558560007fddf252ad1be2c89b69c2b068fc378daa952ba7f163c4a11628f55a4df523b3ef60208651858152a382519182526020820152a3565b6001600160a01b03808416959294908216939092918290878603612492575b505050841561200d5760008581526000805160206128af833981519152602052604081205482811061247857918181604094897ffbde797d201c681b91056529119e0b02407c7bb96a4a2c75c01fc9667232c8db9795526000805160206128af83398151915260205203848220558160008051602061292f833981519152540360008051602061292f83398151915255877fddf252ad1be2c89b69c2b068fc378daa952ba7f163c4a11628f55a4df523b3ef60208651858152a360008051602061298f83398151915254835163a9059cbb60e01b60208201526001600160a01b0397881660248201819052604480830186905282529761246b921661228a6064836119ca565b82519182526020820152a4565b916064928763391434e360e21b8452600452602452604452fd5b61249b92611e63565b388181612365565b91907f7fffffffffffffffffffffffffffffff5d576e7357a4501ddfe92f46681b20a08411612520579160209360809260ff60009560405194855216868401526040830152606082015282805260015afa15611b2f576000516001600160a01b038116156125145790600090600090565b50600090600190600090565b50505060009160039190565b6004111561253657565b634e487b7160e01b600052602160045260246000fd5b6125558161252c565b8061255e575050565b6125678161252c565b600181036125805763f645eedf60e01b60005260046000fd5b6125898161252c565b600281036125a6575063fce698f760e01b60005260045260246000fd5b6003906125b28161252c565b146125ba5750565b6335e2f38360e21b60005260045260246000fd5b90916000198383099280830292838086109503948086039514612663578483111561264a5790829109816000038216809204600281600302188082026002030280820260020302808202600203028082026002030280820260020302809102600203029360018380600003040190848311900302920304170290565b82634e487b71600052156003026011186020526024601cfd5b505080925015612125570490565b612679611b75565b8051908115612689576020012090565b50507fa16a46d94261c7517cc8ff89f61c0ce93598e3c849801011dee649a6a557d1005480156126b65790565b507fc5d2460186f7233c927e7db2dcc703c0e500b653ca82273b7bfad8045d85a47090565b6126e3611c48565b80519081156126f3576020012090565b50507fa16a46d94261c7517cc8ff89f61c0ce93598e3c849801011dee649a6a557d1015480156126b65790565b3d1561274b573d90612731826119ec565b9161273f60405193846119ca565b82523d6000602084013e565b606090565b60008091604051602081019063313ce56760e01b8252600481526127756024826119ca565b51916001600160a01b03165afa61278a612720565b90806127c6575b61279f575b50600090600090565b60208151918180820193849201010312610266575160ff8111612796579060ff6001921690565b50602081511015612791565b906127f857508051156127e757602081519101fd5b63d6bda27560e01b60005260046000fd5b8151158061282a575b612809575090565b639996b31560e01b60009081526001600160a01b0391909116600452602490fd5b50803b15612801565b906000602091828151910182855af115611b2f576000513d61288557506001600160a01b0381163b155b6128645750565b635274afe760e01b60009081526001600160a01b0391909116600452602490fd5b6001141561285d56fe52c63247e1f47db19d5ce0460030c497f067ca4cebf71ba98eeadabe20bace0352c63247e1f47db19d5ce0460030c497f067ca4cebf71ba98eeadabe20bace00a16a46d94261c7517cc8ff89f61c0ce93598e3c849801011dee649a6a557d10252c63247e1f47db19d5ce0460030c497f067ca4cebf71ba98eeadabe20bace049016d09d72d40fdae2fd8ceac6b6234c7706214fd39c1cd1e609a0528c19930052c63247e1f47db19d5ce0460030c497f067ca4cebf71ba98eeadabe20bace02a16a46d94261c7517cc8ff89f61c0ce93598e3c849801011dee649a6a557d103360894a13ba1a3210667c828492db98dca3e2076cc3735a920a3ca505d382bbc0773e532dfede91f04b12a73d3d2acd361424f41f76b4fb79f090161e36b4e00cd5ed15c6e187e77e9aee88184c21f4f2182ab5827cb3b7e07fbedcd63f03300f0c57e16840df040f15088dc2f81fe391c3923bec73e23a9662efc9c229c6a00237e158222e3e6968b72b9db0d8043aacf074ad9f650f0d1606b4d82ee432c00a164736f6c634300081c000a",
  "linkReferences": {},
  "deployedLinkReferences": {}
}