{
  "_format": "hh-sol-artifact-1",
  "contractName": "RedemptionProxy",
  "sourceName": "contracts/prime/RedemptionProxy.sol",
  "abi": [
    {
      "inputs": [],
      "name": "FundsStuck",
      "type": "error"
    },
    {
      "inputs": [],
      "name": "InsufficientBalance",
      "type": "error"
    },
    {
      "inputs": [],
      "name": "InvalidConfiguration",
      "type": "error"
    },
    {
      "inputs": [],
      "name": "InvalidInitialization",
      "type": "error"
    },
    {
      "inputs": [],
      "name": "NotInitializing",
      "type": "error"
    },
    {
      "inputs": [],
      "name": "OnlyRouter",
      "type": "error"
    },
    {
      "inputs": [
        {
          "internalType": "address",
          "name": "token",
          "type": "address"
        }
      ],
      "name": "SafeERC20FailedOperation",
      "type": "error"
    },
    {
      "inputs": [],
      "name": "TransferFailed",
      "type": "error"
    },
    {
      "anonymous": false,
      "inputs": [
        {
          "indexed": false,
          "internalType": "uint64",
          "name": "version",
          "type": "uint64"
        }
      ],
      "name": "Initialized",
      "type": "event"
    },
    {
      "inputs": [],
      "name": "asset",
      "outputs": [
        {
          "internalType": "contract IERC20",
          "name": "",
          "type": "address"
        }
      ],
      "stateMutability": "view",
      "type": "function"
    },
    {
      "inputs": [],
      "name": "assetVault",
      "outputs": [
        {
          "internalType": "contract IAsyncRedemptionVault",
          "name": "",
          "type": "address"
        }
      ],
      "stateMutability": "view",
      "type": "function"
    },
    {
      "inputs": [
        {
          "internalType": "address",
          "name": "_assetVault",
          "type": "address"
        },
        {
          "internalType": "address",
          "name": "_stakingVault",
          "type": "address"
        },
        {
          "internalType": "address",
          "name": "_receiver",
          "type": "address"
        }
      ],
      "name": "initialize",
      "outputs": [],
      "stateMutability": "nonpayable",
      "type": "function"
    },
    {
      "inputs": [],
      "name": "receiver",
      "outputs": [
        {
          "internalType": "address",
          "name": "",
          "type": "address"
        }
      ],
      "stateMutability": "view",
      "type": "function"
    },
    {
      "inputs": [],
      "name": "router",
      "outputs": [
        {
          "internalType": "address",
          "name": "",
          "type": "address"
        }
      ],
      "stateMutability": "view",
      "type": "function"
    },
    {
      "inputs": [],
      "name": "stakingVault",
      "outputs": [
        {
          "internalType": "contract IERC4626",
          "name": "",
          "type": "address"
        }
      ],
      "stateMutability": "view",
      "type": "function"
    },
    {
      "inputs": [
        {
          "internalType": "uint256",
          "name": "_amount",
          "type": "uint256"
        }
      ],
      "name": "sweep",
      "outputs": [
        {
          "internalType": "uint256",
          "name": "",
          "type": "uint256"
        }
      ],
      "stateMutability": "nonpayable",
      "type": "function"
    },
    {
      "inputs": [
        {
          "internalType": "uint256",
          "name": "_amountStakingShares",
          "type": "uint256"
        }
      ],
      "name": "triggerRedeem",
      "outputs": [
        {
          "internalType": "uint256",
          "name": "requestId",
          "type": "uint256"
        }
      ],
      "stateMutability": "nonpayable",
      "type": "function"
    }
  ],
  "bytecode": "0x60808060405234601557610a39908161001b8239f35b600080fdfe608080604052600436101561001357600080fd5b60003560e01c908162d16aad1461058f5750806324e7964a1461056657806338d52e0f1461053d578063aa60e73314610385578063c0c53b8b146100f6578063f61ebc36146100cd578063f7260d3e146100a45763f887ea401461007657600080fd5b3461009f57600036600319011261009f576000546040516001600160a01b039091168152602090f35b600080fd5b3461009f57600036600319011261009f576001546040516001600160a01b039091168152602090f35b3461009f57600036600319011261009f576002546040516001600160a01b039091168152602090f35b3461009f57606036600319011261009f576004356001600160a01b0381169081900361009f576024356001600160a01b0381169081900361009f576044356001600160a01b0381169081900361009f57600080516020610a0d833981519152549260ff8460401c16159367ffffffffffffffff81168015908161037d575b6001149081610373575b15908161036a575b506103595767ffffffffffffffff198116600117600080516020610a0d833981519152558461032c575b5080158015610324575b801561031c575b61030b57600492602092336001600160601b0360a01b60005416176000556001600160601b0360a01b6001541617600155816001600160601b0360a01b60025416176002556001600160601b0360a01b6003541617600355604051928380926338d52e0f60e01b82525afa9081156102ff576000916102b6575b5060018060a01b03166001600160601b0360a01b600454161760045561025d57005b68ff000000000000000019600080516020610a0d8339815191525416600080516020610a0d833981519152557fc7f505b2f371ae2175ee4913f4499e1f2633a7b5936321eed1cdaeb6115181d2602060405160018152a1005b6020813d6020116102f7575b816102cf60209383610979565b810103126102f35751906001600160a01b03821682036102f057508261023b565b80fd5b5080fd5b3d91506102c2565b6040513d6000823e3d90fd5b63c52a9bd360e01b60005260046000fd5b5081156101c1565b5082156101ba565b68ffffffffffffffffff19166801000000000000000117600080516020610a0d83398151915255846101b0565b63f92ee8a960e01b60005260046000fd5b90501586610186565b303b15915061017e565b869150610174565b3461009f57602036600319011261009f57600054600435906001600160a01b0316330361052c57600480546040516370a0823160e01b815230928101929092526001600160a01b0316602082602481845afa9182156102ff576000926104f8575b508282106104e757826103ff575b602083604051908152f35b60015460405163a9059cbb60e01b60208201526001600160a01b039091166024820152604480820185905281526104409161043b606483610979565b6109b1565b6024602060018060a01b0360045416604051928380926370a0823160e01b82523060048301525afa9081156102ff576000916104b5575b50810390811161049f57810361048e5781806103f4565b6312171d8360e31b60005260046000fd5b634e487b7160e01b600052601160045260246000fd5b90506020813d6020116104df575b816104d060209383610979565b8101031261009f575183610477565b3d91506104c3565b631e9acf1760e31b60005260046000fd5b90916020823d602011610524575b8161051360209383610979565b810103126102f057505190836103e6565b3d9150610506565b639e41bdd760e01b60005260046000fd5b3461009f57600036600319011261009f576004546040516001600160a01b039091168152602090f35b3461009f57600036600319011261009f576003546040516001600160a01b039091168152602090f35b3461009f57602036600319011261009f5760005460043591906001600160a01b0316330361052c576003546370a0823160e01b82523060048301526001600160a01b0316602082602481845afa9081156102ff57600091610944575b6002546040516370a0823160e01b81523060048201529350602090849060249082906001600160a01b03165afa9283156102ff5760009361090f575b50600093610662602092604051906323b872dd60e01b858301523360248301523060448301528360648301526064825261043b608483610979565b600354604051635d043b2960e11b81526004810192909252306024830181905260448301529094859160649183916001600160a01b03165af19283156102ff576000936108db575b506003546040516370a0823160e01b815230600482015290602090829060249082906001600160a01b03165afa9081156102ff576000916108a9575b50116107d55760025460405163095ea7b360e01b60208083019182526001600160a01b03909316602483018190526044808401879052835260009592909184908790610733606485610979565b83519082865af186513d8261088a575b50501561084c575b505060025460405163aa2f892d60e01b815260048101929092529093849160249183916001600160a01b03165af19182156102ff57600092610818575b506002546040516370a0823160e01b815230600482015290602090829060249082906001600160a01b03165afa9081156102ff576000916107e6575b50116107d557602090604051908152f35b630100661560e31b60005260046000fd5b90506020813d602011610810575b8161080160209383610979565b8101031261009f5751836107c4565b3d91506107f4565b9091506020813d602011610844575b8161083460209383610979565b8101031261009f57519082610788565b3d9150610827565b6108839161043b60405163095ea7b360e01b878201528260248201528860448201526044815261087d606482610979565b826109b1565b848061074b565b9091501587146108a15750813b15155b8780610743565b60011461089a565b90506020813d6020116108d3575b816108c460209383610979565b8101031261009f5751846106e6565b3d91506108b7565b90926020823d602011610907575b816108f660209383610979565b810103126102f057505191836106aa565b3d91506108e9565b9092506020813d60201161093c575b8161092b60209383610979565b8101031261009f5751916000610627565b3d915061091e565b90506020823d602011610971575b8161095f60209383610979565b8101031261009f5760249151906105eb565b3d9150610952565b90601f8019910116810190811067ffffffffffffffff82111761099b57604052565b634e487b7160e01b600052604160045260246000fd5b906000602091828151910182855af1156102ff576000513d610a0357506001600160a01b0381163b155b6109e25750565b635274afe760e01b60009081526001600160a01b0391909116600452602490fd5b600114156109db56fef0c57e16840df040f15088dc2f81fe391c3923bec73e23a9662efc9c229c6a00a164736f6c634300081c000a",
  "linkReferences": {},
  "deployedLinkReferences": {}
}