{
  "_format": "hh-sol-artifact-1",
  "contractName": "RedemptionProxy",
  "sourceName": "contracts/prime/RedemptionProxy.sol",
  "abi": [
    {
      "inputs": [],
      "name": "FundsStuck",
      "type": "error"
    },
    {
      "inputs": [],
      "name": "InsufficientBalance",
      "type": "error"
    },
    {
      "inputs": [],
      "name": "InvalidConfiguration",
      "type": "error"
    },
    {
      "inputs": [],
      "name": "InvalidInitialization",
      "type": "error"
    },
    {
      "inputs": [],
      "name": "NotInitializing",
      "type": "error"
    },
    {
      "inputs": [],
      "name": "OnlyRouter",
      "type": "error"
    },
    {
      "inputs": [
        {
          "internalType": "address",
          "name": "token",
          "type": "address"
        }
      ],
      "name": "SafeERC20FailedOperation",
      "type": "error"
    },
    {
      "inputs": [],
      "name": "TransferFailed",
      "type": "error"
    },
    {
      "anonymous": false,
      "inputs": [
        {
          "indexed": false,
          "internalType": "uint64",
          "name": "version",
          "type": "uint64"
        }
      ],
      "name": "Initialized",
      "type": "event"
    },
    {
      "inputs": [],
      "name": "asset",
      "outputs": [
        {
          "internalType": "contract IERC20",
          "name": "",
          "type": "address"
        }
      ],
      "stateMutability": "view",
      "type": "function"
    },
    {
      "inputs": [],
      "name": "assetVault",
      "outputs": [
        {
          "internalType": "contract IAsyncRedemptionVault",
          "name": "",
          "type": "address"
        }
      ],
      "stateMutability": "view",
      "type": "function"
    },
    {
      "inputs": [
        {
          "internalType": "address",
          "name": "_assetVault",
          "type": "address"
        },
        {
          "internalType": "address",
          "name": "_stakingVault",
          "type": "address"
        },
        {
          "internalType": "address",
          "name": "_nuvaVault",
          "type": "address"
        },
        {
          "internalType": "address",
          "name": "_user",
          "type": "address"
        }
      ],
      "name": "initialize",
      "outputs": [],
      "stateMutability": "nonpayable",
      "type": "function"
    },
    {
      "inputs": [],
      "name": "nuvaAsset",
      "outputs": [
        {
          "internalType": "contract IERC20",
          "name": "",
          "type": "address"
        }
      ],
      "stateMutability": "view",
      "type": "function"
    },
    {
      "inputs": [],
      "name": "nuvaVault",
      "outputs": [
        {
          "internalType": "contract IERC4626",
          "name": "",
          "type": "address"
        }
      ],
      "stateMutability": "view",
      "type": "function"
    },
    {
      "inputs": [],
      "name": "router",
      "outputs": [
        {
          "internalType": "address",
          "name": "",
          "type": "address"
        }
      ],
      "stateMutability": "view",
      "type": "function"
    },
    {
      "inputs": [],
      "name": "stakingAsset",
      "outputs": [
        {
          "internalType": "contract IERC20",
          "name": "",
          "type": "address"
        }
      ],
      "stateMutability": "view",
      "type": "function"
    },
    {
      "inputs": [],
      "name": "stakingVault",
      "outputs": [
        {
          "internalType": "contract IERC4626",
          "name": "",
          "type": "address"
        }
      ],
      "stateMutability": "view",
      "type": "function"
    },
    {
      "inputs": [
        {
          "internalType": "uint256",
          "name": "_amount",
          "type": "uint256"
        }
      ],
      "name": "sweep",
      "outputs": [
        {
          "internalType": "uint256",
          "name": "sweptAmount",
          "type": "uint256"
        }
      ],
      "stateMutability": "nonpayable",
      "type": "function"
    },
    {
      "inputs": [
        {
          "internalType": "uint256",
          "name": "_amountNuvaShares",
          "type": "uint256"
        }
      ],
      "name": "triggerRedeem",
      "outputs": [],
      "stateMutability": "nonpayable",
      "type": "function"
    },
    {
      "inputs": [],
      "name": "user",
      "outputs": [
        {
          "internalType": "address",
          "name": "",
          "type": "address"
        }
      ],
      "stateMutability": "view",
      "type": "function"
    }
  ],
  "bytecode": "0x60808060405234601557610d5a908161001b8239f35b600080fdfe608080604052600436101561001357600080fd5b600090813560e01c908162d16aad1461070e5750806324e7964a146106e557806338d52e0f146106bc5780634f8632ba14610693578063632a82631461066a5780637776768f14610641578063aa60e7331461048b578063dace1a8d14610462578063f61ebc3614610439578063f887ea40146104125763f8c8765e1461009957600080fd5b3461040f57608036600319011261040f576004356001600160a01b0381169081900361040d576024356001600160a01b03811690819003610409576044356001600160a01b0381169190829003610405576064356001600160a01b038116939084900361040157600080516020610d2e833981519152549360ff8560401c16159467ffffffffffffffff8116801590816103f9575b60011490816103ef575b1590816103e6575b506103d75767ffffffffffffffff198116600117600080516020610d2e83398151915255856103aa575b50811580156103a2575b801561039a575b8015610392575b6103835785546001600160a01b031990811633178755600180548216909217909155600280548216831790556003805482168417905560058054909116841790556040516338d52e0f60e01b815290602090829060049082905afa91821561037857600492602092879161035b575b5060018060a01b03166bffffffffffffffffffffffff60a01b6007541617600755604051928380926338d52e0f60e01b82525afa918215610350576004926020928691610333575b5083546001600160a01b0319166001600160a01b03919091161783556040516338d52e0f60e01b815292839182905afa9081156103285783916102f9575b5060018060a01b03166bffffffffffffffffffffffff60a01b600654161760065561029f5780f35b68ff000000000000000019600080516020610d2e8339815191525416600080516020610d2e833981519152557fc7f505b2f371ae2175ee4913f4499e1f2633a7b5936321eed1cdaeb6115181d2602060405160018152a180f35b61031b915060203d602011610321575b6103138183610c6f565b810190610ca7565b38610277565b503d610309565b6040513d85823e3d90fd5b61034a9150833d8511610321576103138183610c6f565b38610239565b6040513d86823e3d90fd5b6103729150833d8511610321576103138183610c6f565b386101f1565b6040513d87823e3d90fd5b63c52a9bd360e01b8652600486fd5b508015610182565b50831561017b565b508215610174565b68ffffffffffffffffff19166801000000000000000117600080516020610d2e833981519152553861016a565b63f92ee8a960e01b8752600487fd5b90501538610140565b303b159150610138565b87915061012e565b8480fd5b8380fd5b8280fd5b505b80fd5b503461040f578060031936011261040f57546040516001600160a01b039091168152602090f35b503461040f578060031936011261040f576002546040516001600160a01b039091168152602090f35b503461040f578060031936011261040f576005546040516001600160a01b039091168152602090f35b503461040f57602036600319011261040f57805460043591906001600160a01b03163303610632576007546040516370a0823160e01b8152306004820152906001600160a01b0316602082602481845afa9182156103285783926105fe575b508382106105ef5783610503575b602084604051908152f35b60015460405163a9059cbb60e01b60208201526001600160a01b039091166024820152604480820186905281526105449161053f606483610c6f565b610cc6565b6007546040516370a0823160e01b815230600482015290602090829060249082906001600160a01b03165afa9081156103285783916105b8575b5081039081116105a45782036105955780806104f8565b6312171d8360e31b8152600490fd5b634e487b7160e01b82526011600452602482fd5b90506020813d6020116105e7575b816105d360209383610c6f565b810103126105e257513861057e565b600080fd5b3d91506105c6565b631e9acf1760e31b8352600483fd5b9091506020813d60201161062a575b8161061a60209383610c6f565b810103126105e2575190386104ea565b3d915061060d565b639e41bdd760e01b8152600490fd5b503461040f578060031936011261040f576004546040516001600160a01b039091168152602090f35b503461040f578060031936011261040f576006546040516001600160a01b039091168152602090f35b503461040f578060031936011261040f576001546040516001600160a01b039091168152602090f35b503461040f578060031936011261040f576007546040516001600160a01b039091168152602090f35b503461040f578060031936011261040f576003546040516001600160a01b039091168152602090f35b823461040f57602036600319011261040f578054600435906001600160a01b03163303610c60576005546370a0823160e01b84523060048501526001600160a01b031690602084602481855afa908115610328578391610c2b575b6003546040516370a0823160e01b81523060048201529550602090869060249082906001600160a01b03165afa928315610350578493610bf6575b6002546040516370a0823160e01b81523060048201529650602090879060249082906001600160a01b03165afa958615610378578596610bc0575b5061085e85939261081d602093604051906323b872dd60e01b868301523360248301523060448301528360648301526064825261053f608483610c6f565b600554604051635d043b2960e11b8152600481019290925230602483018190526044830152909485926001600160a01b039092169183919082906064820190565b03925af1918215610350578492610b8c575b506005546040516370a0823160e01b815230600482015290602090829060249082906001600160a01b03165afa908115610378578591610b5a575b5011610b4b57600354604051635d043b2960e11b81526004810192909252306024830181905260448301529091906020908390606490829087906001600160a01b03165af1918215610328578392610b17575b506003546040516370a0823160e01b815230600482015290602090829060249082906001600160a01b03165afa908115610350578491610ae5575b5011610ad65760025460405163095ea7b360e01b60208083019182526001600160a01b03909316602483018190526044808401869052835292908590610980606485610c6f565b83519082865af184513d82610aba575b505015610a7b575b50506002546001600160a01b031690813b1561040957829160248392604051948593849263aa2f892d60e01b845260048401525af18015610a7057610a60575b506002546040516370a0823160e01b815230600482015291929190602090829060249082906001600160a01b03165afa908115610328578391610a2e575b5011610a1f5780f35b630100661560e31b8152600490fd5b90506020813d602011610a58575b81610a4960209383610c6f565b810103126105e2575183610a16565b3d9150610a3c565b81610a6a91610c6f565b826109d8565b6040513d84823e3d90fd5b610ab39161053f60405163095ea7b360e01b602082015282602482015286604482015260448152610aad606482610c6f565b82610cc6565b8380610998565b909150610ace5750813b15155b8680610990565b600114610ac7565b630100661560e31b8252600482fd5b90506020813d602011610b0f575b81610b0060209383610c6f565b81010312610405575185610939565b3d9150610af3565b9091506020813d602011610b43575b81610b3360209383610c6f565b81010312610409575190846108fe565b3d9150610b26565b630100661560e31b8352600483fd5b90506020813d602011610b84575b81610b7560209383610c6f565b810103126104015751866108ab565b3d9150610b68565b9091506020813d602011610bb8575b81610ba860209383610c6f565b8101031261040557519085610870565b3d9150610b9b565b9095506020813d602011610bee575b81610bdc60209383610c6f565b8101031261040157519461085e6107df565b3d9150610bcf565b92506020853d602011610c23575b81610c1160209383610c6f565b810103126104055760249451926107a4565b3d9150610c04565b90506020843d602011610c58575b81610c4660209383610c6f565b81010312610409576024935190610769565b3d9150610c39565b639e41bdd760e01b8252600482fd5b90601f8019910116810190811067ffffffffffffffff821117610c9157604052565b634e487b7160e01b600052604160045260246000fd5b908160209103126105e257516001600160a01b03811681036105e25790565b906000602091828151910182855af115610d21576000513d610d1857506001600160a01b0381163b155b610cf75750565b635274afe760e01b60009081526001600160a01b0391909116600452602490fd5b60011415610cf0565b6040513d6000823e3d90fdfef0c57e16840df040f15088dc2f81fe391c3923bec73e23a9662efc9c229c6a00a164736f6c634300081c000a",
  "linkReferences": {},
  "deployedLinkReferences": {}
}