{
  "_format": "hh-sol-artifact-1",
  "contractName": "CrossChainVault",
  "sourceName": "contracts/CrossChainVault.sol",
  "abi": [
    {
      "inputs": [],
      "stateMutability": "nonpayable",
      "type": "constructor"
    },
    {
      "inputs": [
        {
          "internalType": "address",
          "name": "target",
          "type": "address"
        }
      ],
      "name": "AddressEmptyCode",
      "type": "error"
    },
    {
      "inputs": [],
      "name": "AddressNotWhitelisted",
      "type": "error"
    },
    {
      "inputs": [],
      "name": "AmountMismatch",
      "type": "error"
    },
    {
      "inputs": [],
      "name": "AmountMustBeGreaterThanZero",
      "type": "error"
    },
    {
      "inputs": [
        {
          "internalType": "address",
          "name": "implementation",
          "type": "address"
        }
      ],
      "name": "ERC1967InvalidImplementation",
      "type": "error"
    },
    {
      "inputs": [],
      "name": "ERC1967NonPayable",
      "type": "error"
    },
    {
      "inputs": [],
      "name": "FailedCall",
      "type": "error"
    },
    {
      "inputs": [
        {
          "internalType": "string",
          "name": "",
          "type": "string"
        }
      ],
      "name": "InvalidAddress",
      "type": "error"
    },
    {
      "inputs": [],
      "name": "InvalidExecutorAddress",
      "type": "error"
    },
    {
      "inputs": [],
      "name": "InvalidInitialization",
      "type": "error"
    },
    {
      "inputs": [],
      "name": "InvalidTokenAddress",
      "type": "error"
    },
    {
      "inputs": [],
      "name": "NormalizedAmountMustBeGreaterThanZero",
      "type": "error"
    },
    {
      "inputs": [],
      "name": "NotInitializing",
      "type": "error"
    },
    {
      "inputs": [
        {
          "internalType": "address",
          "name": "owner",
          "type": "address"
        }
      ],
      "name": "OwnableInvalidOwner",
      "type": "error"
    },
    {
      "inputs": [
        {
          "internalType": "address",
          "name": "account",
          "type": "address"
        }
      ],
      "name": "OwnableUnauthorizedAccount",
      "type": "error"
    },
    {
      "inputs": [],
      "name": "ReentrancyGuardReentrantCall",
      "type": "error"
    },
    {
      "inputs": [
        {
          "internalType": "address",
          "name": "token",
          "type": "address"
        }
      ],
      "name": "SafeERC20FailedOperation",
      "type": "error"
    },
    {
      "inputs": [],
      "name": "TargetRecipientCannotBeBytes32Zero",
      "type": "error"
    },
    {
      "inputs": [],
      "name": "UUPSUnauthorizedCallContext",
      "type": "error"
    },
    {
      "inputs": [
        {
          "internalType": "bytes32",
          "name": "slot",
          "type": "bytes32"
        }
      ],
      "name": "UUPSUnsupportedProxiableUUID",
      "type": "error"
    },
    {
      "anonymous": false,
      "inputs": [
        {
          "indexed": false,
          "internalType": "uint64",
          "name": "version",
          "type": "uint64"
        }
      ],
      "name": "Initialized",
      "type": "event"
    },
    {
      "anonymous": false,
      "inputs": [
        {
          "indexed": true,
          "internalType": "address",
          "name": "previousOwner",
          "type": "address"
        },
        {
          "indexed": true,
          "internalType": "address",
          "name": "newOwner",
          "type": "address"
        }
      ],
      "name": "OwnershipTransferStarted",
      "type": "event"
    },
    {
      "anonymous": false,
      "inputs": [
        {
          "indexed": true,
          "internalType": "address",
          "name": "previousOwner",
          "type": "address"
        },
        {
          "indexed": true,
          "internalType": "address",
          "name": "newOwner",
          "type": "address"
        }
      ],
      "name": "OwnershipTransferred",
      "type": "event"
    },
    {
      "anonymous": false,
      "inputs": [
        {
          "indexed": true,
          "internalType": "address",
          "name": "token",
          "type": "address"
        },
        {
          "indexed": false,
          "internalType": "uint256",
          "name": "amount",
          "type": "uint256"
        },
        {
          "indexed": false,
          "internalType": "uint16",
          "name": "targetChain",
          "type": "uint16"
        },
        {
          "indexed": false,
          "internalType": "uint32",
          "name": "targetDomain",
          "type": "uint32"
        },
        {
          "indexed": false,
          "internalType": "bytes32",
          "name": "targetRecipient",
          "type": "bytes32"
        },
        {
          "indexed": false,
          "internalType": "uint64",
          "name": "nonce",
          "type": "uint64"
        }
      ],
      "name": "TokensSent",
      "type": "event"
    },
    {
      "anonymous": false,
      "inputs": [
        {
          "indexed": true,
          "internalType": "address",
          "name": "implementation",
          "type": "address"
        }
      ],
      "name": "Upgraded",
      "type": "event"
    },
    {
      "anonymous": false,
      "inputs": [
        {
          "indexed": true,
          "internalType": "address",
          "name": "addr",
          "type": "address"
        }
      ],
      "name": "WhitelistRevoked",
      "type": "event"
    },
    {
      "anonymous": false,
      "inputs": [
        {
          "indexed": true,
          "internalType": "address",
          "name": "addr",
          "type": "address"
        }
      ],
      "name": "Whitelisted",
      "type": "event"
    },
    {
      "anonymous": false,
      "inputs": [
        {
          "indexed": true,
          "internalType": "address",
          "name": "addr",
          "type": "address"
        }
      ],
      "name": "WhitelistingSkipped",
      "type": "event"
    },
    {
      "inputs": [],
      "name": "UPGRADE_INTERFACE_VERSION",
      "outputs": [
        {
          "internalType": "string",
          "name": "",
          "type": "string"
        }
      ],
      "stateMutability": "view",
      "type": "function"
    },
    {
      "inputs": [],
      "name": "acceptOwnership",
      "outputs": [],
      "stateMutability": "nonpayable",
      "type": "function"
    },
    {
      "inputs": [
        {
          "internalType": "address",
          "name": "_addr",
          "type": "address"
        }
      ],
      "name": "addToWhitelist",
      "outputs": [],
      "stateMutability": "nonpayable",
      "type": "function"
    },
    {
      "inputs": [],
      "name": "executor",
      "outputs": [
        {
          "internalType": "contract ICCTPv1WithExecutor",
          "name": "",
          "type": "address"
        }
      ],
      "stateMutability": "view",
      "type": "function"
    },
    {
      "inputs": [],
      "name": "getWhitelist",
      "outputs": [
        {
          "internalType": "address[]",
          "name": "",
          "type": "address[]"
        }
      ],
      "stateMutability": "view",
      "type": "function"
    },
    {
      "inputs": [
        {
          "internalType": "address",
          "name": "executor_",
          "type": "address"
        }
      ],
      "name": "initialize",
      "outputs": [],
      "stateMutability": "nonpayable",
      "type": "function"
    },
    {
      "inputs": [
        {
          "internalType": "address",
          "name": "",
          "type": "address"
        }
      ],
      "name": "isWhitelisted",
      "outputs": [
        {
          "internalType": "bool",
          "name": "",
          "type": "bool"
        }
      ],
      "stateMutability": "view",
      "type": "function"
    },
    {
      "inputs": [],
      "name": "owner",
      "outputs": [
        {
          "internalType": "address",
          "name": "",
          "type": "address"
        }
      ],
      "stateMutability": "view",
      "type": "function"
    },
    {
      "inputs": [],
      "name": "pendingOwner",
      "outputs": [
        {
          "internalType": "address",
          "name": "",
          "type": "address"
        }
      ],
      "stateMutability": "view",
      "type": "function"
    },
    {
      "inputs": [],
      "name": "proxiableUUID",
      "outputs": [
        {
          "internalType": "bytes32",
          "name": "",
          "type": "bytes32"
        }
      ],
      "stateMutability": "view",
      "type": "function"
    },
    {
      "inputs": [
        {
          "internalType": "address",
          "name": "_addr",
          "type": "address"
        }
      ],
      "name": "removeFromWhitelist",
      "outputs": [],
      "stateMutability": "nonpayable",
      "type": "function"
    },
    {
      "inputs": [],
      "name": "renounceOwnership",
      "outputs": [],
      "stateMutability": "nonpayable",
      "type": "function"
    },
    {
      "inputs": [
        {
          "internalType": "address",
          "name": "token",
          "type": "address"
        },
        {
          "internalType": "uint256",
          "name": "amount",
          "type": "uint256"
        },
        {
          "internalType": "uint16",
          "name": "targetChain",
          "type": "uint16"
        },
        {
          "internalType": "uint32",
          "name": "targetDomain",
          "type": "uint32"
        },
        {
          "internalType": "bytes32",
          "name": "targetRecipient",
          "type": "bytes32"
        },
        {
          "components": [
            {
              "internalType": "address",
              "name": "refundAddress",
              "type": "address"
            },
            {
              "internalType": "bytes",
              "name": "signedQuote",
              "type": "bytes"
            },
            {
              "internalType": "bytes",
              "name": "instructions",
              "type": "bytes"
            }
          ],
          "internalType": "struct ExecutorArgs",
          "name": "executorArgs",
          "type": "tuple"
        },
        {
          "components": [
            {
              "internalType": "uint256",
              "name": "transferTokenFee",
              "type": "uint256"
            },
            {
              "internalType": "uint256",
              "name": "nativeTokenFee",
              "type": "uint256"
            },
            {
              "internalType": "address",
              "name": "payee",
              "type": "address"
            }
          ],
          "internalType": "struct FeeArgs",
          "name": "feeArgs",
          "type": "tuple"
        }
      ],
      "name": "sendTokens",
      "outputs": [],
      "stateMutability": "payable",
      "type": "function"
    },
    {
      "inputs": [
        {
          "internalType": "address",
          "name": "newOwner",
          "type": "address"
        }
      ],
      "name": "transferOwnership",
      "outputs": [],
      "stateMutability": "nonpayable",
      "type": "function"
    },
    {
      "inputs": [
        {
          "internalType": "address",
          "name": "newImplementation",
          "type": "address"
        },
        {
          "internalType": "bytes",
          "name": "data",
          "type": "bytes"
        }
      ],
      "name": "upgradeToAndCall",
      "outputs": [],
      "stateMutability": "payable",
      "type": "function"
    },
    {
      "inputs": [
        {
          "internalType": "uint256",
          "name": "",
          "type": "uint256"
        }
      ],
      "name": "whitelist",
      "outputs": [
        {
          "internalType": "address",
          "name": "",
          "type": "address"
        }
      ],
      "stateMutability": "view",
      "type": "function"
    }
  ],
  "bytecode": "0x60a080604052346100ea57306080527ff0c57e16840df040f15088dc2f81fe391c3923bec73e23a9662efc9c229c6a005460ff8160401c166100d9576002600160401b03196001600160401b03821601610073575b60405161142f90816100f08239608051818181610b7a0152610c4e0152f35b6001600160401b0319166001600160401b039081177ff0c57e16840df040f15088dc2f81fe391c3923bec73e23a9662efc9c229c6a005581527fc7f505b2f371ae2175ee4913f4499e1f2633a7b5936321eed1cdaeb6115181d290602090a13880610054565b63f92ee8a960e01b60005260046000fd5b600080fdfe608080604052600436101561001357600080fd5b60003560e01c9081633af32abf14610dea575080634f1ef28614610bd157806352d1902d14610b67578063715018a614610ae657806379ba509714610a965780637ebd1b3014610a545780638ab1d68114610a2b5780638da5cb5b146109f5578063ad3cb1cc14610979578063c34c08e514610950578063c4d66de81461077e578063c923a99a14610288578063d01f63f5146101bc578063e30c397814610186578063e43252d71461015b5763f2fde38b146100cf57600080fd5b34610156576020366003190112610156576100e8610e25565b6100f061118d565b60008051602061140383398151915280546001600160a01b0319166001600160a01b03928316908117909155600080516020611383833981519152549091167f38d16b8cac22d99fc7c124b9cd0de2d3fa1faef420bfe791d8c362d765e22700600080a3005b600080fd5b3461015657602036600319011261015657610184610177610e25565b61017f61118d565b61108f565b005b3461015657600036600319011261015657600080516020611403833981519152546040516001600160a01b039091168152602090f35b34610156576000366003190112610156576040518060206001549283815201809260016000527fb10e2d527612073b26eecdfd717e6a320cf44b4afac2b0732d9fcbe2b7fa0cf69060005b818110610269575050508161021d910382610e3b565b6040519182916020830190602084525180915260408301919060005b818110610247575050500390f35b82516001600160a01b0316845285945060209384019390920191600101610239565b82546001600160a01b0316845260209093019260019283019201610207565b6101203660031901126101565761029d610e25565b6024356044359161ffff83168093036101565760643563ffffffff8116809103610156576084359060a4359467ffffffffffffffff8611610156578560040193606060031988360301126101565760603660c31901126101565760026000805160206113c3833981519152541461076d5760026000805160206113c3833981519152556001600160a01b03811696871561075c57861561074b57841561073a5733600052600260205260ff604060002054161561072957600080604051602081019063313ce56760e01b825260048152610378602482610e3b565b5190855afa5061038661121c565b602081805181010312610156576020015160ff8116809103610156578790600881116106e9575b50156106d8576103bc8261124c565b6104196104136103cb8561124c565b6104056040516323b872dd60e01b60208201523360248201523060448201528c6064820152606481526103ff608482610e3b565b8d6112c6565b61040e8661124c565b610ec0565b9361124c565b8882018092116106c257036106b15760018060a01b0360005416604051602060008b82840163095ea7b360e01b815285602486015287604486015260448552610463606486610e3b565b828551925af16000513d82610695575b50501561064f575b505061048a60c4358093610ec0565b9560018060a01b036000541691604051976309a345e960e21b8952600489015284602489015285604489015286606489015289608489015261012060a4890152813560018060a01b0381168091036101565761052e9261051a916101248b015260446105128b610184610500602488018661103c565b9190926060610144820152019161106e565b93019061103c565b89830361012319016101648b01529061106e565b9160c487015260e43560e4870152610104359060018060a01b0382168092036101565786806020948194610104830152039134905af1938415610643576000946105d5575b50927f9c7624de3e6dcf45ab9f9c540b1c7f3a7afd05cede4bb23d0c35d4e99517ad91949267ffffffffffffffff9260a095604051958652602086015260408501526060840152166080820152a260016000805160206113c383398151915255005b6020949194813d60201161063b575b816105f160209383610e3b565b8101031261063757519067ffffffffffffffff821682036106345750927f9c7624de3e6dcf45ab9f9c540b1c7f3a7afd05cede4bb23d0c35d4e99517ad91610573565b80fd5b5080fd5b3d91506105e4565b6040513d6000823e3d90fd5b61068861068e926040519063095ea7b360e01b602083015260248201526000604482015260448152610682606482610e3b565b8b6112c6565b896112c6565b888061047b565b9091506106a95750893b15155b8b80610473565b6001146106a2565b6355e97b0d60e01b60005260046000fd5b634e487b7160e01b600052601160045260246000fd5b63bc74cb5760e01b60005260046000fd5b60071901905060ff81116106c25760ff16604d81116106c257600a0a8015610713578704896103ad565b634e487b7160e01b600052601260045260246000fd5b63ad7acb4760e01b60005260046000fd5b63322fb53760e11b60005260046000fd5b635e85ae7360e01b60005260046000fd5b630f58058360e11b60005260046000fd5b633ee5aeb560e01b60005260046000fd5b3461015657602036600319011261015657610797610e25565b6000805160206113e3833981519152549060ff8260401c16159167ffffffffffffffff811680159081610948575b600114908161093e575b159081610935575b506109245767ffffffffffffffff1981166001176000805160206113e383398151915255826108f7575b5061080a611298565b610812611298565b61081a611298565b33156108e157610829336111ae565b610831611298565b610839611298565b60016000805160206113c3833981519152556001600160a01b031680156108d1576bffffffffffffffffffffffff60a01b600054161760005561087857005b68ff0000000000000000196000805160206113e383398151915254166000805160206113e3833981519152557fc7f505b2f371ae2175ee4913f4499e1f2633a7b5936321eed1cdaeb6115181d2602060405160018152a1005b62a4c69d60e31b60005260046000fd5b631e4fbdf760e01b600052600060045260246000fd5b68ffffffffffffffffff191668010000000000000001176000805160206113e38339815191525582610801565b63f92ee8a960e01b60005260046000fd5b905015846107d7565b303b1591506107cf565b8491506107c5565b34610156576000366003190112610156576000546040516001600160a01b039091168152602090f35b346101565760003660031901126101565760408051906109998183610e3b565b60058252640352e302e360dc1b6020830152805180926020825280519081602084015260005b8281106109de5750506000828201840152601f01601f19168101030190f35b6020828201810151878301870152869450016109bf565b3461015657600036600319011261015657600080516020611383833981519152546040516001600160a01b039091168152602090f35b3461015657602036600319011261015657610184610a47610e25565b610a4f61118d565b610ecd565b346101565760203660031901126101565760043560015481101561015657610a7d602091610e8f565b905460405160039290921b1c6001600160a01b03168152f35b346101565760003660031901126101565760008051602061140383398151915254336001600160a01b0390911603610ad157610184336111ae565b63118cdaa760e01b6000523360045260246000fd5b3461015657600036600319011261015657610aff61118d565b60008051602061140383398151915280546001600160a01b0319908116909155600080516020611383833981519152805491821690556000906001600160a01b03167f8be0079c531659141344cd1fd0a4f28419497f9722a3daafe3b4186f6b6457e08280a3005b34610156576000366003190112610156577f00000000000000000000000000000000000000000000000000000000000000006001600160a01b03163003610bc05760206040516000805160206113a38339815191528152f35b63703e46dd60e11b60005260046000fd5b604036600319011261015657610be5610e25565b6024359067ffffffffffffffff8211610156573660238301121561015657816004013590610c1282610e73565b91610c206040519384610e3b565b8083526020830193366024838301011161015657816000926024602093018737840101526001600160a01b037f000000000000000000000000000000000000000000000000000000000000000016308114908115610dc7575b50610bc057610c8661118d565b6040516352d1902d60e01b81526001600160a01b0382169390602081600481885afa60009181610d93575b50610ccb5784634c9c8ce360e01b60005260045260246000fd5b806000805160206113a3833981519152869203610d7f5750823b15610d6b576000805160206113a383398151915280546001600160a01b031916821790557fbc7cd75a20ee27fd9adebab32041f755214dbc6bffa90cc0225b39da2e5c2d3b600080a2825115610d505760008091610184945190845af4610d4a61121c565b91611321565b50505034610d5a57005b63b398979f60e01b60005260046000fd5b634c9c8ce360e01b60005260045260246000fd5b632a87526960e21b60005260045260246000fd5b9091506020813d602011610dbf575b81610daf60209383610e3b565b8101031261015657519086610cb1565b3d9150610da2565b6000805160206113a3833981519152546001600160a01b03161415905084610c79565b34610156576020366003190112610156576020906001600160a01b03610e0e610e25565b166000526002825260ff6040600020541615158152f35b600435906001600160a01b038216820361015657565b90601f8019910116810190811067ffffffffffffffff821117610e5d57604052565b634e487b7160e01b600052604160045260246000fd5b67ffffffffffffffff8111610e5d57601f01601f191660200190565b600154811015610eaa57600160005260206000200190600090565b634e487b7160e01b600052603260045260246000fd5b919082039182116106c257565b6001600160a01b031660008181526002602052604090205460ff16156110155780600052600360205260406000205460001981018181116106c25760015460001981019081116106c257808203610fb1575b5050506001548015610f9b5760001901610f3881610e8f565b81549060018060a01b039060031b1b1916905560015580600052600360205260006040812055806000526002602052604060002060ff1981541690557f79bc96e8fb893a32b4429ae9fd9084cdb98be910b9c7cdbb4307cc96732c7ec7600080a2565b634e487b7160e01b600052603160045260246000fd5b610fdb91610fc1610fff92610e8f565b905460039190911b1c6001600160a01b0316928391610e8f565b81546001600160a01b0393841660039290921b91821b9390911b1916919091179055565b6000526003602052604060002055388080610f1f565b7f0bf2b640ee2f020be7d73dda8dca35a0c837c284140d323571979a70207c47b5600080a2565b9035601e198236030181121561015657016020813591019167ffffffffffffffff821161015657813603831361015657565b908060209392818452848401376000828201840152601f01601f1916010190565b6001600160a01b0381169081156111585781600052600260205260ff60406000205416611130578160005260026020526040600020600160ff198254161790556001549068010000000000000000821015610e5d57610fdb8260016110f79401600155610e8f565b6001548160005260036020526040600020557faab7954e9d246b167ef88aeddad35209ca2489d95a8aeb59e288d9b19fae5a54600080a2565b507f0bf2b640ee2f020be7d73dda8dca35a0c837c284140d323571979a70207c47b5600080a2565b604051630b0f5aa160e11b815260206004820152600c60248201526b7a65726f206164647265737360a01b6044820152606490fd5b600080516020611383833981519152546001600160a01b03163303610ad157565b60008051602061140383398151915280546001600160a01b031990811690915560008051602061138383398151915280549182166001600160a01b0393841690811790915591167f8be0079c531659141344cd1fd0a4f28419497f9722a3daafe3b4186f6b6457e0600080a3565b3d15611247573d9061122d82610e73565b9161123b6040519384610e3b565b82523d6000602084013e565b606090565b6000809160405160208101906370a0823160e01b825230602482015260248152611277604482610e3b565b51915afa5061128461121c565b602081805181010312610156576020015190565b60ff6000805160206113e38339815191525460401c16156112b557565b631afcd79f60e31b60005260046000fd5b906000602091828151910182855af115610643576000513d61131857506001600160a01b0381163b155b6112f75750565b635274afe760e01b60009081526001600160a01b0391909116600452602490fd5b600114156112f0565b90611347575080511561133657602081519101fd5b63d6bda27560e01b60005260046000fd5b81511580611379575b611358575090565b639996b31560e01b60009081526001600160a01b0391909116600452602490fd5b50803b1561135056fe9016d09d72d40fdae2fd8ceac6b6234c7706214fd39c1cd1e609a0528c199300360894a13ba1a3210667c828492db98dca3e2076cc3735a920a3ca505d382bbc9b779b17422d0df92223018b32b4d1fa46e071723d6817e2486d003becc55f00f0c57e16840df040f15088dc2f81fe391c3923bec73e23a9662efc9c229c6a00237e158222e3e6968b72b9db0d8043aacf074ad9f650f0d1606b4d82ee432c00a164736f6c634300081c000a",
  "linkReferences": {},
  "deployedLinkReferences": {}
}