{
  "_format": "hh-sol-artifact-1",
  "contractName": "CrossChainVault",
  "sourceName": "contracts/CrossChainVault.sol",
  "abi": [
    {
      "inputs": [
        {
          "internalType": "address",
          "name": "wormhole_",
          "type": "address"
        },
        {
          "internalType": "address",
          "name": "tokenBridge_",
          "type": "address"
        },
        {
          "internalType": "uint16",
          "name": "chainId_",
          "type": "uint16"
        },
        {
          "internalType": "uint8",
          "name": "wormholeFinality_",
          "type": "uint8"
        },
        {
          "internalType": "uint32",
          "name": "feePrecision",
          "type": "uint32"
        },
        {
          "internalType": "uint32",
          "name": "relayerFeePercentage",
          "type": "uint32"
        }
      ],
      "stateMutability": "nonpayable",
      "type": "constructor"
    },
    {
      "inputs": [],
      "name": "AmountMustBeGreaterThanZero",
      "type": "error"
    },
    {
      "inputs": [],
      "name": "CallerNotTheOwner",
      "type": "error"
    },
    {
      "inputs": [],
      "name": "EmitterAddressCannotBeZero",
      "type": "error"
    },
    {
      "inputs": [],
      "name": "EmitterChainIdCannotBeZeroOrThisChain",
      "type": "error"
    },
    {
      "inputs": [],
      "name": "EmitterNotRegistered",
      "type": "error"
    },
    {
      "inputs": [],
      "name": "EmitterNotRegisteredForChain",
      "type": "error"
    },
    {
      "inputs": [],
      "name": "InsufficientValue",
      "type": "error"
    },
    {
      "inputs": [],
      "name": "InvalidChainId",
      "type": "error"
    },
    {
      "inputs": [],
      "name": "InvalidEvmAddress",
      "type": "error"
    },
    {
      "inputs": [],
      "name": "InvalidFeePrecision",
      "type": "error"
    },
    {
      "inputs": [],
      "name": "InvalidPayloadId",
      "type": "error"
    },
    {
      "inputs": [],
      "name": "InvalidPayloadLength",
      "type": "error"
    },
    {
      "inputs": [],
      "name": "InvalidTokenAddress",
      "type": "error"
    },
    {
      "inputs": [],
      "name": "InvalidTokenBridgeAddress",
      "type": "error"
    },
    {
      "inputs": [],
      "name": "InvalidWormholeAddress",
      "type": "error"
    },
    {
      "inputs": [],
      "name": "InvalidWormholeFinality",
      "type": "error"
    },
    {
      "inputs": [],
      "name": "NormalizedAmountMustBeGreaterThanZero",
      "type": "error"
    },
    {
      "inputs": [],
      "name": "PrecisionMustBeGreaterThanZero",
      "type": "error"
    },
    {
      "inputs": [],
      "name": "ReentrancyGuardReentrantCall",
      "type": "error"
    },
    {
      "inputs": [],
      "name": "RelayerFeePercentageMustBeLessThanPrecision",
      "type": "error"
    },
    {
      "inputs": [
        {
          "internalType": "address",
          "name": "token",
          "type": "address"
        }
      ],
      "name": "SafeERC20FailedOperation",
      "type": "error"
    },
    {
      "inputs": [],
      "name": "TargetRecipientCannotBeBytes32Zero",
      "type": "error"
    },
    {
      "inputs": [],
      "name": "TokenNotAttested",
      "type": "error"
    },
    {
      "inputs": [],
      "name": "_state",
      "outputs": [
        {
          "internalType": "address",
          "name": "owner",
          "type": "address"
        },
        {
          "internalType": "address",
          "name": "wormhole",
          "type": "address"
        },
        {
          "internalType": "address",
          "name": "tokenBridge",
          "type": "address"
        },
        {
          "internalType": "uint16",
          "name": "chainId",
          "type": "uint16"
        },
        {
          "internalType": "uint8",
          "name": "wormholeFinality",
          "type": "uint8"
        },
        {
          "internalType": "uint32",
          "name": "feePrecision",
          "type": "uint32"
        },
        {
          "internalType": "uint32",
          "name": "relayerFeePercentage",
          "type": "uint32"
        }
      ],
      "stateMutability": "view",
      "type": "function"
    },
    {
      "inputs": [
        {
          "internalType": "uint256",
          "name": "amount",
          "type": "uint256"
        }
      ],
      "name": "calculateRelayerFee",
      "outputs": [
        {
          "internalType": "uint256",
          "name": "",
          "type": "uint256"
        }
      ],
      "stateMutability": "view",
      "type": "function"
    },
    {
      "inputs": [],
      "name": "chainId",
      "outputs": [
        {
          "internalType": "uint16",
          "name": "",
          "type": "uint16"
        }
      ],
      "stateMutability": "view",
      "type": "function"
    },
    {
      "inputs": [
        {
          "internalType": "bytes",
          "name": "encodedMessage",
          "type": "bytes"
        }
      ],
      "name": "decodePayload",
      "outputs": [
        {
          "components": [
            {
              "internalType": "uint8",
              "name": "payloadID",
              "type": "uint8"
            },
            {
              "internalType": "bytes32",
              "name": "targetRecipient",
              "type": "bytes32"
            }
          ],
          "internalType": "struct CrossChainVaultStructs.CrossChainVaultMessage",
          "name": "parsedMessage",
          "type": "tuple"
        }
      ],
      "stateMutability": "pure",
      "type": "function"
    },
    {
      "inputs": [
        {
          "components": [
            {
              "internalType": "uint8",
              "name": "payloadID",
              "type": "uint8"
            },
            {
              "internalType": "bytes32",
              "name": "targetRecipient",
              "type": "bytes32"
            }
          ],
          "internalType": "struct CrossChainVaultStructs.CrossChainVaultMessage",
          "name": "parsedMessage",
          "type": "tuple"
        }
      ],
      "name": "encodePayload",
      "outputs": [
        {
          "internalType": "bytes",
          "name": "encodedMessage",
          "type": "bytes"
        }
      ],
      "stateMutability": "pure",
      "type": "function"
    },
    {
      "inputs": [],
      "name": "feePrecision",
      "outputs": [
        {
          "internalType": "uint32",
          "name": "",
          "type": "uint32"
        }
      ],
      "stateMutability": "view",
      "type": "function"
    },
    {
      "inputs": [
        {
          "internalType": "bytes",
          "name": "payload",
          "type": "bytes"
        }
      ],
      "name": "fetchLocalAddressFromTransferMessage",
      "outputs": [
        {
          "internalType": "address",
          "name": "localAddress",
          "type": "address"
        }
      ],
      "stateMutability": "view",
      "type": "function"
    },
    {
      "inputs": [
        {
          "internalType": "uint16",
          "name": "emitterChainId",
          "type": "uint16"
        }
      ],
      "name": "getRegisteredEmitter",
      "outputs": [
        {
          "internalType": "bytes32",
          "name": "",
          "type": "bytes32"
        }
      ],
      "stateMutability": "view",
      "type": "function"
    },
    {
      "inputs": [],
      "name": "owner",
      "outputs": [
        {
          "internalType": "address",
          "name": "",
          "type": "address"
        }
      ],
      "stateMutability": "view",
      "type": "function"
    },
    {
      "inputs": [
        {
          "internalType": "bytes",
          "name": "encodedTransferMessage",
          "type": "bytes"
        }
      ],
      "name": "redeemTransferWithPayload",
      "outputs": [],
      "stateMutability": "nonpayable",
      "type": "function"
    },
    {
      "inputs": [
        {
          "internalType": "uint16",
          "name": "emitterChainId",
          "type": "uint16"
        },
        {
          "internalType": "bytes32",
          "name": "emitterAddress",
          "type": "bytes32"
        }
      ],
      "name": "registerEmitter",
      "outputs": [],
      "stateMutability": "nonpayable",
      "type": "function"
    },
    {
      "inputs": [],
      "name": "relayerFeePercentage",
      "outputs": [
        {
          "internalType": "uint32",
          "name": "",
          "type": "uint32"
        }
      ],
      "stateMutability": "view",
      "type": "function"
    },
    {
      "inputs": [
        {
          "internalType": "address",
          "name": "token",
          "type": "address"
        },
        {
          "internalType": "uint256",
          "name": "amount",
          "type": "uint256"
        },
        {
          "internalType": "uint16",
          "name": "targetChain",
          "type": "uint16"
        },
        {
          "internalType": "uint32",
          "name": "batchId",
          "type": "uint32"
        },
        {
          "internalType": "bytes32",
          "name": "targetRecipient",
          "type": "bytes32"
        }
      ],
      "name": "sendTokensWithPayload",
      "outputs": [
        {
          "internalType": "uint64",
          "name": "messageSequence",
          "type": "uint64"
        }
      ],
      "stateMutability": "payable",
      "type": "function"
    },
    {
      "inputs": [],
      "name": "tokenBridge",
      "outputs": [
        {
          "internalType": "contract ITokenBridge",
          "name": "",
          "type": "address"
        }
      ],
      "stateMutability": "view",
      "type": "function"
    },
    {
      "inputs": [
        {
          "internalType": "uint32",
          "name": "relayerFeePercentage",
          "type": "uint32"
        },
        {
          "internalType": "uint32",
          "name": "relayerFeePrecision",
          "type": "uint32"
        }
      ],
      "name": "updateRelayerFee",
      "outputs": [],
      "stateMutability": "nonpayable",
      "type": "function"
    },
    {
      "inputs": [],
      "name": "wormhole",
      "outputs": [
        {
          "internalType": "contract IWormhole",
          "name": "",
          "type": "address"
        }
      ],
      "stateMutability": "view",
      "type": "function"
    },
    {
      "inputs": [],
      "name": "wormholeFinality",
      "outputs": [
        {
          "internalType": "uint8",
          "name": "",
          "type": "uint8"
        }
      ],
      "stateMutability": "view",
      "type": "function"
    }
  ],
  "bytecode": "0x6080346101cc57601f61158838819003918201601f19168301916001600160401b038311848410176101d15780849260c0946040528339810103126101cc57610047816101e7565b90610054602082016101e7565b604082015161ffff8116908181036101cc5760608401519260ff84168085036101cc5761008f60a0610088608089016101fb565b97016101fb565b6001600455966001600160a01b03169182156101bb576001600160a01b03169384156101aa571561019957156101885763ffffffff85161561017757600080546001600160a01b03199081163317909155600180549091169190911790556002805460b89590951b63ffffffff60b81b1660b09490941b60ff60b01b16600160b81b600160f81b03199093167fff000000000000000000000000000000000000000000000000000000000000009095169490941760a09190911b61ffff60a01b1617171760d89290921b63ffffffff60d81b1691909117905560405161137b908161020d8239f35b634a50e41f60e01b60005260046000fd5b63cc02be4f60e01b60005260046000fd5b633d23e4d160e11b60005260046000fd5b6310cf067560e31b60005260046000fd5b630b53078360e01b60005260046000fd5b600080fd5b634e487b7160e01b600052604160045260246000fd5b51906001600160a01b03821682036101cc57565b519063ffffffff821682036101cc5756fe608080604052600436101561001357600080fd5b60003560e01c9081630520557b14610dba575080630963d30e14610891578063197c6e771461086457806324816abb146108315780632d77e8fe1461080757806335ff1e28146107e0578063578479ec1461078757806384acd1bb1461075e57806385e66df4146107375780638da5cb5b1461070e578063960b48c3146106605780639a8a05921461063b578063a1cb31b7146105c1578063bca4b0fa14610520578063c6328a46146104f7578063ce2971cf146101055763dc404a0e146100da57600080fd5b346101005760203660031901126101005760206100f86004356111f2565b604051908152f35b600080fd5b60a0366003190112610100576004356001600160a01b0381169081810361010057602435906044359061ffff8216809203610100576064359063ffffffff821680920361010057608435906002600454146104e657600260045585156104d55784156104c45781156104b357600080604051602081019063313ce56760e01b825260048152610195602482610e0c565b5190845afa506101a3611224565b6020818051810103126101005760206101bc9101610f09565b60ff86911660088111610471575b50156104605783600052600360205260406000205495861561044f57600154604051631a90a21960e01b81529290602090849060049082906001600160a01b03165afa92831561039b57600093610418575b508234036104075761029c61028160209861027c8461027761024061033697611254565b93604051906323b872dd60e01b8f830152336024830152306044830152606482015260648152610271608482610e0c565b88611313565b611254565b610f90565b946040519061028f82610ddb565b60018252898201526111a4565b60025460405163095ea7b360e01b8a82019081526001600160a01b03909216602482018190526044808301899052825297918a906000906102de606485610e0c565b83519082895af16000513d826103eb575b5050156103a7575b50604051998a98899788966362d2f5ed60e11b88526004880152602487015260448601526064850152608484015260c060a484015260c4830190610ee4565b03925af1801561039b57600090610361575b60209060016004556001600160401b0360405191168152f35b506020813d602011610393575b8161037b60209383610e0c565b810103126101005761038e602091610f37565b610348565b3d915061036e565b6040513d6000823e3d90fd5b6103e5906103df60405163095ea7b360e01b8d8201528a602482015260006044820152604481526103d9606482610e0c565b87611313565b85611313565b8a6102f7565b9091506103ff5750843b15155b8c806102ef565b6001146103f8565b63044044a560e21b60005260046000fd5b90926020823d602011610447575b8161043360209383610e0c565b81010312610444575051918861021c565b80fd5b3d9150610426565b631604cdb560e31b60005260046000fd5b63bc74cb5760e01b60005260046000fd5b60071901905060ff811161049d5760ff16604d811161049d5761049790600a0a866111d2565b876101ca565b634e487b7160e01b600052601160045260246000fd5b63322fb53760e11b60005260046000fd5b635e85ae7360e01b60005260046000fd5b630f58058360e11b60005260046000fd5b633ee5aeb560e01b60005260046000fd5b34610100576000366003190112610100576002546040516001600160a01b039091168152602090f35b3461010057604036600319011261010057610539610eb0565b60005460243591906001600160a01b031633036105b05761ffff168015158061059d575b1561058c57811561057b576000526003602052604060002055600080f35b6324f599dd60e21b60005260046000fd5b63019f4be560e11b60005260046000fd5b5061ffff60025460a01c1681141561055d565b6301d65ae560e01b60005260046000fd5b346101005760003660031901126101005760e060018060a01b036000541663ffffffff60018060a01b036001541660025490604051938452602084015260018060a01b038116604084015261ffff8160a01c16606084015260ff8160b01c166080840152818160b81c1660a084015260d81c1660c0820152f35b3461010057600036600319011261010057602061ffff60025460a01c16604051908152f35b346101005760403660031901126101005760043563ffffffff8116808203610100576024359063ffffffff821690818303610100576000546001600160a01b031633036105b05781156106fd5710156106ec576002805467ffffffffffffffff60b81b191660d89390931b63ffffffff60d81b169290921760b89190911b63ffffffff60b81b16179055005b6304d3cffd60e31b60005260046000fd5b630f9117b760e31b60005260046000fd5b34610100576000366003190112610100576000546040516001600160a01b039091168152602090f35b3461010057600036600319011261010057602063ffffffff60025460d81c16604051908152f35b34610100576000366003190112610100576001546040516001600160a01b039091168152602090f35b34610100576040366003190112610100576040516107a481610ddb565b60043560ff8116810361010057816107c8916107dc935260243560208201526111a4565b604051918291602083526020830190610ee4565b0390f35b3461010057600036600319011261010057602063ffffffff60025460b81c16604051908152f35b3461010057602061081f61081a36610e48565b611085565b6040516001600160a01b039091168152f35b346101005760203660031901126101005760206100f861084f610eb0565b61ffff16600052600360205260406000205490565b3461010057604061087c61087736610e48565b610f9d565b602082519160ff815116835201516020820152f35b346101005761089f36610e48565b60015460405163a9e1189360e01b8152602060048201529060009082906001600160a01b031681806108d46024820188610ee4565b03915afa90811561039b57600091610b98575b50906108f660e0830151611085565b9161090083611254565b60025460405163c3f511c160e01b8152602060048201526001600160a01b039091169360009082908190610938906024830190610ee4565b038183885af190811561039b57600091610b47575b506000906109616109859361027c88611254565b94604051808095819463ea63738d60e01b8352602060048401526024830190610ee4565b03915afa90811561039b57600091610a53575b50906109c061ffff606060c08501519301511661ffff16600052600360205260406000205490565b03610a425760e06109d2910151610f9d565b6109e860206109e0846111f2565b9201516112a4565b9080158015610a30575b15610a0c5750610a0a926001600160a01b03166112d0565b005b610a0a936001600160a01b031692610a2a919061027c8233876112d0565b916112d0565b50336001600160a01b038316146109f2565b635ddd9a5760e11b60005260046000fd5b3d8083833e610a628183610e0c565b810190602081830312610b43578051906001600160401b038211610b3f57019161010083830312610444576040519261010084018481106001600160401b03821117610b2b57604052610ab481610f09565b84526020810151602085015260408101516040850152610ad660608201610f28565b606085015260808101516080850152610af160a08201610f28565b60a085015260c081015160c085015260e0810151916001600160401b0383116104445750610b20929101610f4b565b60e082015284610998565b634e487b7160e01b83526041600452602483fd5b8380fd5b8280fd5b903d8082843e610b578184610e0c565b820191602081840312610b94578051916001600160401b0383116104445750610b8b60009361098595936109619301610f4b565b9250509161094d565b5080fd5b3d8083833e610ba78183610e0c565b810190602081830312610b43578051906001600160401b038211610b3f57019061016082820312610b43576040519261016084018481106001600160401b03821117610da657604052610bf983610f09565b8452610c0760208401610f17565b6020850152610c1860408401610f17565b6040850152610c2960608401610f28565b606085015260808301516080850152610c4460a08401610f37565b60a0850152610c5560c08401610f09565b60c085015260e08301516001600160401b038111610b945782610c79918501610f4b565b60e0850152610c8b6101008401610f17565b6101008501526101208301516001600160401b038111610b9457830182601f82011215610b94578051916001600160401b038311610d925760405193610cd760208560051b0186610e0c565b83855260208086019460071b84010192818411610b4357602001935b838510610d1857505050505090610140916101208401520151610140820152826108e7565b608085830312610b4357604051608081018181106001600160401b03821117610d7e5791602091608093604052875181528288015183820152610d5d60408901610f09565b6040820152610d6e60608901610f09565b6060820152815201940193610cf3565b634e487b7160e01b85526041600452602485fd5b634e487b7160e01b81526041600452602490fd5b634e487b7160e01b82526041600452602482fd5b346101005760003660031901126101005760209060ff60025460b01c168152f35b604081019081106001600160401b03821117610df657604052565b634e487b7160e01b600052604160045260246000fd5b90601f801991011681019081106001600160401b03821117610df657604052565b6001600160401b038111610df657601f01601f191660200190565b6020600319820112610100576004356001600160401b038111610100578160238201121561010057806004013590610e7f82610e2d565b92610e8d6040519485610e0c565b828452602483830101116101005781600092602460209301838601378301015290565b6004359061ffff8216820361010057565b60005b838110610ed45750506000910152565b8181015183820152602001610ec4565b90602091610efd81518092818552858086019101610ec1565b601f01601f1916010190565b519060ff8216820361010057565b519063ffffffff8216820361010057565b519061ffff8216820361010057565b51906001600160401b038216820361010057565b81601f82011215610100578051610f6181610e2d565b92610f6f6040519485610e0c565b8184526020828401011161010057610f8d9160208085019101610ec1565b90565b9190820391821161049d57565b9060405191610fab83610ddb565b6000835260208301600081528382511561104a5760019060ff828501511680915203611039576021825110610ffc576021820151905251602103610feb57565b632f3a03e160e11b60005260046000fd5b60405162461bcd60e51b8152602060048201526015602482015274746f427974657333325f6f75744f66426f756e647360581b6044820152606490fd5b637d05c64360e11b60005260046000fd5b60405162461bcd60e51b8152602060048201526013602482015272746f55696e74385f6f75744f66426f756e647360681b6044820152606490fd5b6041815110610ffc57604181015190604381511061116857604301519061ffff600254921661ffff8360a01c1681141560001461115d579060446020926040519485938492630ff8f14360e11b84526004840152602483015260018060a01b03165afa90811561039b5760009161111b575b50906001600160a01b0382161561110a57565b630647042960e31b60005260046000fd5b6020813d602011611155575b8161113460209383610e0c565b81010312610b945751906001600160a01b03821682036104445750386110f7565b3d9150611127565b50610f8d91506112a4565b60405162461bcd60e51b8152602060048201526014602482015273746f55696e7431365f6f75744f66426f756e647360601b6044820152606490fd5b602081519101516040519160ff60f81b9060f81b166020830152602182015260218152610f8d604182610e0c565b81156111dc570490565b634e487b7160e01b600052601260045260246000fd5b6002549063ffffffff8260d81c169081810291818304149015171561049d5763ffffffff610f8d9260b81c16906111d2565b3d1561124f573d9061123582610e2d565b916112436040519384610e0c565b82523d6000602084013e565b606090565b6000809160405160208101906370a0823160e01b82523060248201526024815261127f604482610e0c565b51915afa5061128c611224565b60208151918180820193849201010312610100575190565b6001600160a01b031981166112bf576001600160a01b031690565b630b09751760e01b60005260046000fd5b60405163a9059cbb60e01b60208201526001600160a01b039290921660248301526044808301939093529181526113119161130c606483610e0c565b611313565b565b906000602091828151910182855af11561039b576000513d61136557506001600160a01b0381163b155b6113445750565b635274afe760e01b60009081526001600160a01b0391909116600452602490fd5b6001141561133d56fea164736f6c634300081c000a",
  "linkReferences": {},
  "deployedLinkReferences": {}
}