{
  "_format": "hh-sol-artifact-1",
  "contractName": "CrossChainVault",
  "sourceName": "contracts/CrossChainVault.sol",
  "abi": [
    {
      "inputs": [
        {
          "internalType": "address",
          "name": "executor_",
          "type": "address"
        }
      ],
      "stateMutability": "nonpayable",
      "type": "constructor"
    },
    {
      "inputs": [],
      "name": "AmountMustBeGreaterThanZero",
      "type": "error"
    },
    {
      "inputs": [],
      "name": "InvalidExecutorAddress",
      "type": "error"
    },
    {
      "inputs": [],
      "name": "InvalidTokenAddress",
      "type": "error"
    },
    {
      "inputs": [],
      "name": "NormalizedAmountMustBeGreaterThanZero",
      "type": "error"
    },
    {
      "inputs": [],
      "name": "ReentrancyGuardReentrantCall",
      "type": "error"
    },
    {
      "inputs": [
        {
          "internalType": "address",
          "name": "token",
          "type": "address"
        }
      ],
      "name": "SafeERC20FailedOperation",
      "type": "error"
    },
    {
      "inputs": [],
      "name": "TargetRecipientCannotBeBytes32Zero",
      "type": "error"
    },
    {
      "inputs": [],
      "name": "executor",
      "outputs": [
        {
          "internalType": "contract ICCTPv1WithExecutor",
          "name": "",
          "type": "address"
        }
      ],
      "stateMutability": "view",
      "type": "function"
    },
    {
      "inputs": [
        {
          "internalType": "address",
          "name": "token",
          "type": "address"
        },
        {
          "internalType": "uint256",
          "name": "amount",
          "type": "uint256"
        },
        {
          "internalType": "uint16",
          "name": "targetChain",
          "type": "uint16"
        },
        {
          "internalType": "uint32",
          "name": "targetDomain",
          "type": "uint32"
        },
        {
          "internalType": "bytes32",
          "name": "targetRecipient",
          "type": "bytes32"
        },
        {
          "components": [
            {
              "internalType": "address",
              "name": "refundAddress",
              "type": "address"
            },
            {
              "internalType": "bytes",
              "name": "signedQuote",
              "type": "bytes"
            },
            {
              "internalType": "bytes",
              "name": "instructions",
              "type": "bytes"
            }
          ],
          "internalType": "struct ExecutorArgs",
          "name": "executorArgs",
          "type": "tuple"
        },
        {
          "components": [
            {
              "internalType": "uint256",
              "name": "transferTokenFee",
              "type": "uint256"
            },
            {
              "internalType": "uint256",
              "name": "nativeTokenFee",
              "type": "uint256"
            },
            {
              "internalType": "address",
              "name": "payee",
              "type": "address"
            }
          ],
          "internalType": "struct FeeArgs",
          "name": "feeArgs",
          "type": "tuple"
        }
      ],
      "name": "sendTokens",
      "outputs": [],
      "stateMutability": "payable",
      "type": "function"
    }
  ],
  "bytecode": "0x608034608a57601f61068238819003918201601f19168301916001600160401b03831184841017608f57808492602094604052833981010312608a57516001600160a01b03811690819003608a5760016000558015607a57600180546001600160a01b0319169190911790556040516105dc90816100a68239f35b62a4c69d60e31b60005260046000fd5b600080fd5b634e487b7160e01b600052604160045260246000fdfe608080604052600436101561001357600080fd5b60003560e01c908163c34c08e51461042c575063c923a99a1461003557600080fd5b610120366003190112610306576004356001600160a01b038116808203610306576024356044359061ffff8216809203610306576064359363ffffffff8516809503610306576084359360a4359167ffffffffffffffff8311610306578260040193606060031985360301126103065760603660c31901126103065760026000541461041b576002600055821561040a5780156103f95786156103e857600080604051602081019063313ce56760e01b8252600481526100f660248261045d565b5190855afa506101046104e8565b602081805181010312610306576020015160ff811680910361030657819060088111610392575b5015610381576101818261017c61014461018695610528565b93604051906323b872dd60e01b602083015233602483015230604483015260648201526064815261017660848261045d565b86610574565b610528565b610450565b9460018060a01b03600154166040516020600081830163095ea7b360e01b81528460248501528a6044850152604484526101c160648561045d565b83519082885af16000513d82610365575b50501561031f575b50506101e960c4358097610450565b9660018060a01b036001541695604051986309a345e960e21b8a5260048a0152602489015260448801526064870152608486015261012060a4860152813560018060a01b038116809103610306576102869261027291610124880152604461026a6102576024860184610495565b60606101448c01526101848b01916104c7565b930190610495565b8683036101231901610164880152906104c7565b9160c484015260e43560e4840152610104359060018060a01b0382168092036103065783806020948194610104830152039134905af18015610313576102ce575b6001600055005b6020813d60201161030b575b816102e76020938361045d565b81010312610306575167ffffffffffffffff81160361030657386102c7565b600080fd5b3d91506102da565b6040513d6000823e3d90fd5b61035861035e926040519063095ea7b360e01b60208301526024820152600060448201526044815261035260648261045d565b85610574565b83610574565b38806101da565b9091506103795750833b15155b38806101d2565b600114610372565b63bc74cb5760e01b60005260046000fd5b60071901905060ff81116103d25760ff16604d81116103d257600a0a80156103bc5781043861012b565b634e487b7160e01b600052601260045260246000fd5b634e487b7160e01b600052601160045260246000fd5b63322fb53760e11b60005260046000fd5b635e85ae7360e01b60005260046000fd5b630f58058360e11b60005260046000fd5b633ee5aeb560e01b60005260046000fd5b34610306576000366003190112610306576001546001600160a01b03168152602090f35b919082039182116103d257565b90601f8019910116810190811067ffffffffffffffff82111761047f57604052565b634e487b7160e01b600052604160045260246000fd5b9035601e198236030181121561030657016020813591019167ffffffffffffffff821161030657813603831361030657565b908060209392818452848401376000828201840152601f01601f1916010190565b3d15610523573d9067ffffffffffffffff821161047f5760405191610517601f8201601f19166020018461045d565b82523d6000602084013e565b606090565b6000809160405160208101906370a0823160e01b82523060248201526024815261055360448261045d565b51915afa506105606104e8565b602081805181010312610306576020015190565b906000602091828151910182855af115610313576000513d6105c657506001600160a01b0381163b155b6105a55750565b635274afe760e01b60009081526001600160a01b0391909116600452602490fd5b6001141561059e56fea164736f6c634300081c000a",
  "linkReferences": {},
  "deployedLinkReferences": {}
}