{
  "_format": "hh-sol-artifact-1",
  "contractName": "CrossChainVault",
  "sourceName": "contracts/CrossChainVault.sol",
  "abi": [
    {
      "inputs": [
        {
          "internalType": "address",
          "name": "executor_",
          "type": "address"
        }
      ],
      "stateMutability": "nonpayable",
      "type": "constructor"
    },
    {
      "inputs": [],
      "name": "AmountMismatch",
      "type": "error"
    },
    {
      "inputs": [],
      "name": "AmountMustBeGreaterThanZero",
      "type": "error"
    },
    {
      "inputs": [],
      "name": "InvalidExecutorAddress",
      "type": "error"
    },
    {
      "inputs": [],
      "name": "InvalidTokenAddress",
      "type": "error"
    },
    {
      "inputs": [],
      "name": "NormalizedAmountMustBeGreaterThanZero",
      "type": "error"
    },
    {
      "inputs": [],
      "name": "ReentrancyGuardReentrantCall",
      "type": "error"
    },
    {
      "inputs": [
        {
          "internalType": "address",
          "name": "token",
          "type": "address"
        }
      ],
      "name": "SafeERC20FailedOperation",
      "type": "error"
    },
    {
      "inputs": [],
      "name": "TargetRecipientCannotBeBytes32Zero",
      "type": "error"
    },
    {
      "inputs": [],
      "name": "executor",
      "outputs": [
        {
          "internalType": "contract ICCTPv1WithExecutor",
          "name": "",
          "type": "address"
        }
      ],
      "stateMutability": "view",
      "type": "function"
    },
    {
      "inputs": [
        {
          "internalType": "address",
          "name": "token",
          "type": "address"
        },
        {
          "internalType": "uint256",
          "name": "amount",
          "type": "uint256"
        },
        {
          "internalType": "uint16",
          "name": "targetChain",
          "type": "uint16"
        },
        {
          "internalType": "uint32",
          "name": "targetDomain",
          "type": "uint32"
        },
        {
          "internalType": "bytes32",
          "name": "targetRecipient",
          "type": "bytes32"
        },
        {
          "components": [
            {
              "internalType": "address",
              "name": "refundAddress",
              "type": "address"
            },
            {
              "internalType": "bytes",
              "name": "signedQuote",
              "type": "bytes"
            },
            {
              "internalType": "bytes",
              "name": "instructions",
              "type": "bytes"
            }
          ],
          "internalType": "struct ExecutorArgs",
          "name": "executorArgs",
          "type": "tuple"
        },
        {
          "components": [
            {
              "internalType": "uint256",
              "name": "transferTokenFee",
              "type": "uint256"
            },
            {
              "internalType": "uint256",
              "name": "nativeTokenFee",
              "type": "uint256"
            },
            {
              "internalType": "address",
              "name": "payee",
              "type": "address"
            }
          ],
          "internalType": "struct FeeArgs",
          "name": "feeArgs",
          "type": "tuple"
        }
      ],
      "name": "sendTokens",
      "outputs": [],
      "stateMutability": "payable",
      "type": "function"
    }
  ],
  "bytecode": "0x608034608a57601f6106b338819003918201601f19168301916001600160401b03831184841017608f57808492602094604052833981010312608a57516001600160a01b03811690819003608a5760016000558015607a57600180546001600160a01b03191691909117905560405161060d90816100a68239f35b62a4c69d60e31b60005260046000fd5b600080fd5b634e487b7160e01b600052604160045260246000fdfe608080604052600436101561001357600080fd5b60003560e01c908163c34c08e51461045d575063c923a99a1461003557600080fd5b610120366003190112610326576004356001600160a01b03811690818103610326576024356044359061ffff8216809203610326576064359363ffffffff85168095036103265760a4359060843567ffffffffffffffff8311610326578260040193606060031985360301126103265760603660c31901126103265760026000541461044c576002600055821561043b57801561042a57811561041957600080604051602081019063313ce56760e01b8252600481526100f660248261048e565b51908a5afa50610104610519565b602081805181010312610326576020015160ff8116809103610326578190600881116103d9575b50156103c85761013a87610559565b9061019861019261014a8a610559565b6101846040516323b872dd60e01b60208201523360248201523060448201528560648201526064815261017e60848261048e565b886105a5565b61018d8b610559565b610481565b98610559565b9082018092116103b257036103a15760018060a01b03600154166040516020600081830163095ea7b360e01b81528460248501528a6044850152604484526101e160648561048e565b83519082885af16000513d82610385575b50501561033f575b505061020960c4358097610481565b9660018060a01b036001541695604051986309a345e960e21b8a5260048a0152602489015260448801526064870152608486015261012060a4860152813560018060a01b038116809103610326576102a69261029291610124880152604461028a61027760248601846104c6565b60606101448c01526101848b01916104f8565b9301906104c6565b8683036101231901610164880152906104f8565b9160c484015260e43560e4840152610104359060018060a01b0382168092036103265783806020948194610104830152039134905af18015610333576102ee575b6001600055005b6020813d60201161032b575b816103076020938361048e565b81010312610326575167ffffffffffffffff81160361032657386102e7565b600080fd5b3d91506102fa565b6040513d6000823e3d90fd5b61037861037e926040519063095ea7b360e01b60208301526024820152600060448201526044815261037260648261048e565b856105a5565b836105a5565b38806101fa565b9091506103995750833b15155b38806101f2565b600114610392565b6355e97b0d60e01b60005260046000fd5b634e487b7160e01b600052601160045260246000fd5b63bc74cb5760e01b60005260046000fd5b60071901905060ff81116103b25760ff16604d81116103b257600a0a80156104035781043861012b565b634e487b7160e01b600052601260045260246000fd5b63322fb53760e11b60005260046000fd5b635e85ae7360e01b60005260046000fd5b630f58058360e11b60005260046000fd5b633ee5aeb560e01b60005260046000fd5b34610326576000366003190112610326576001546001600160a01b03168152602090f35b919082039182116103b257565b90601f8019910116810190811067ffffffffffffffff8211176104b057604052565b634e487b7160e01b600052604160045260246000fd5b9035601e198236030181121561032657016020813591019167ffffffffffffffff821161032657813603831361032657565b908060209392818452848401376000828201840152601f01601f1916010190565b3d15610554573d9067ffffffffffffffff82116104b05760405191610548601f8201601f19166020018461048e565b82523d6000602084013e565b606090565b6000809160405160208101906370a0823160e01b82523060248201526024815261058460448261048e565b51915afa50610591610519565b602081805181010312610326576020015190565b906000602091828151910182855af115610333576000513d6105f757506001600160a01b0381163b155b6105d65750565b635274afe760e01b60009081526001600160a01b0391909116600452602490fd5b600114156105cf56fea164736f6c634300081c000a",
  "linkReferences": {},
  "deployedLinkReferences": {}
}