{
  "_format": "hh-sol-artifact-1",
  "contractName": "CrossChainVaultV0",
  "sourceName": "contracts/CrossChainVaultV0.sol",
  "abi": [
    {
      "inputs": [
        {
          "internalType": "address",
          "name": "wormhole_",
          "type": "address"
        },
        {
          "internalType": "address",
          "name": "tokenBridge_",
          "type": "address"
        },
        {
          "internalType": "uint16",
          "name": "chainId_",
          "type": "uint16"
        },
        {
          "internalType": "uint8",
          "name": "wormholeFinality_",
          "type": "uint8"
        },
        {
          "internalType": "uint32",
          "name": "feePrecision",
          "type": "uint32"
        },
        {
          "internalType": "uint32",
          "name": "relayerFeePercentage",
          "type": "uint32"
        }
      ],
      "stateMutability": "nonpayable",
      "type": "constructor"
    },
    {
      "inputs": [],
      "name": "AmountMustBeGreaterThanZero",
      "type": "error"
    },
    {
      "inputs": [],
      "name": "CallerNotTheOwner",
      "type": "error"
    },
    {
      "inputs": [],
      "name": "EmitterAddressCannotBeZero",
      "type": "error"
    },
    {
      "inputs": [],
      "name": "EmitterChainIdCannotBeZeroOrThisChain",
      "type": "error"
    },
    {
      "inputs": [],
      "name": "EmitterNotRegistered",
      "type": "error"
    },
    {
      "inputs": [],
      "name": "EmitterNotRegisteredForChain",
      "type": "error"
    },
    {
      "inputs": [],
      "name": "InsufficientValue",
      "type": "error"
    },
    {
      "inputs": [],
      "name": "InvalidChainId",
      "type": "error"
    },
    {
      "inputs": [],
      "name": "InvalidEvmAddress",
      "type": "error"
    },
    {
      "inputs": [],
      "name": "InvalidFeePrecision",
      "type": "error"
    },
    {
      "inputs": [],
      "name": "InvalidPayloadId",
      "type": "error"
    },
    {
      "inputs": [],
      "name": "InvalidPayloadLength",
      "type": "error"
    },
    {
      "inputs": [],
      "name": "InvalidTokenAddress",
      "type": "error"
    },
    {
      "inputs": [],
      "name": "InvalidTokenBridgeAddress",
      "type": "error"
    },
    {
      "inputs": [],
      "name": "InvalidWormholeAddress",
      "type": "error"
    },
    {
      "inputs": [],
      "name": "InvalidWormholeFinality",
      "type": "error"
    },
    {
      "inputs": [],
      "name": "NormalizedAmountMustBeGreaterThanZero",
      "type": "error"
    },
    {
      "inputs": [],
      "name": "PrecisionMustBeGreaterThanZero",
      "type": "error"
    },
    {
      "inputs": [],
      "name": "ReentrancyGuardReentrantCall",
      "type": "error"
    },
    {
      "inputs": [],
      "name": "RelayerFeePercentageMustBeLessThanPrecision",
      "type": "error"
    },
    {
      "inputs": [
        {
          "internalType": "address",
          "name": "token",
          "type": "address"
        }
      ],
      "name": "SafeERC20FailedOperation",
      "type": "error"
    },
    {
      "inputs": [],
      "name": "TargetRecipientCannotBeBytes32Zero",
      "type": "error"
    },
    {
      "inputs": [],
      "name": "_state",
      "outputs": [
        {
          "internalType": "address",
          "name": "owner",
          "type": "address"
        },
        {
          "internalType": "address",
          "name": "wormhole",
          "type": "address"
        },
        {
          "internalType": "address",
          "name": "tokenBridge",
          "type": "address"
        },
        {
          "internalType": "uint16",
          "name": "chainId",
          "type": "uint16"
        },
        {
          "internalType": "uint8",
          "name": "wormholeFinality",
          "type": "uint8"
        },
        {
          "internalType": "uint32",
          "name": "feePrecision",
          "type": "uint32"
        },
        {
          "internalType": "uint32",
          "name": "relayerFeePercentage",
          "type": "uint32"
        }
      ],
      "stateMutability": "view",
      "type": "function"
    },
    {
      "inputs": [
        {
          "internalType": "uint256",
          "name": "amount",
          "type": "uint256"
        }
      ],
      "name": "calculateRelayerFee",
      "outputs": [
        {
          "internalType": "uint256",
          "name": "",
          "type": "uint256"
        }
      ],
      "stateMutability": "view",
      "type": "function"
    },
    {
      "inputs": [],
      "name": "chainId",
      "outputs": [
        {
          "internalType": "uint16",
          "name": "",
          "type": "uint16"
        }
      ],
      "stateMutability": "view",
      "type": "function"
    },
    {
      "inputs": [],
      "name": "circleIntegration",
      "outputs": [
        {
          "internalType": "contract ICircleIntegration",
          "name": "",
          "type": "address"
        }
      ],
      "stateMutability": "view",
      "type": "function"
    },
    {
      "inputs": [
        {
          "internalType": "bytes",
          "name": "encodedMessage",
          "type": "bytes"
        }
      ],
      "name": "decodePayload",
      "outputs": [
        {
          "components": [
            {
              "internalType": "uint8",
              "name": "payloadID",
              "type": "uint8"
            },
            {
              "internalType": "bytes32",
              "name": "targetRecipient",
              "type": "bytes32"
            }
          ],
          "internalType": "struct CrossChainVaultStructs.CrossChainVaultMessage",
          "name": "parsedMessage",
          "type": "tuple"
        }
      ],
      "stateMutability": "pure",
      "type": "function"
    },
    {
      "inputs": [
        {
          "components": [
            {
              "internalType": "uint8",
              "name": "payloadID",
              "type": "uint8"
            },
            {
              "internalType": "bytes32",
              "name": "targetRecipient",
              "type": "bytes32"
            }
          ],
          "internalType": "struct CrossChainVaultStructs.CrossChainVaultMessage",
          "name": "parsedMessage",
          "type": "tuple"
        }
      ],
      "name": "encodePayload",
      "outputs": [
        {
          "internalType": "bytes",
          "name": "encodedMessage",
          "type": "bytes"
        }
      ],
      "stateMutability": "pure",
      "type": "function"
    },
    {
      "inputs": [],
      "name": "feePrecision",
      "outputs": [
        {
          "internalType": "uint32",
          "name": "",
          "type": "uint32"
        }
      ],
      "stateMutability": "view",
      "type": "function"
    },
    {
      "inputs": [
        {
          "internalType": "uint16",
          "name": "emitterChainId",
          "type": "uint16"
        }
      ],
      "name": "getRegisteredEmitter",
      "outputs": [
        {
          "internalType": "bytes32",
          "name": "",
          "type": "bytes32"
        }
      ],
      "stateMutability": "view",
      "type": "function"
    },
    {
      "inputs": [],
      "name": "owner",
      "outputs": [
        {
          "internalType": "address",
          "name": "",
          "type": "address"
        }
      ],
      "stateMutability": "view",
      "type": "function"
    },
    {
      "inputs": [
        {
          "internalType": "bytes",
          "name": "encodedTransferMessage",
          "type": "bytes"
        },
        {
          "internalType": "bytes",
          "name": "circleBridgeMessage",
          "type": "bytes"
        },
        {
          "internalType": "bytes",
          "name": "circleAttestation",
          "type": "bytes"
        }
      ],
      "name": "redeemTransferWithPayload",
      "outputs": [],
      "stateMutability": "nonpayable",
      "type": "function"
    },
    {
      "inputs": [
        {
          "internalType": "uint16",
          "name": "emitterChainId",
          "type": "uint16"
        },
        {
          "internalType": "bytes32",
          "name": "emitterAddress",
          "type": "bytes32"
        }
      ],
      "name": "registerEmitter",
      "outputs": [],
      "stateMutability": "nonpayable",
      "type": "function"
    },
    {
      "inputs": [],
      "name": "relayerFeePercentage",
      "outputs": [
        {
          "internalType": "uint32",
          "name": "",
          "type": "uint32"
        }
      ],
      "stateMutability": "view",
      "type": "function"
    },
    {
      "inputs": [
        {
          "internalType": "address",
          "name": "token",
          "type": "address"
        },
        {
          "internalType": "uint256",
          "name": "amount",
          "type": "uint256"
        },
        {
          "internalType": "uint16",
          "name": "targetChain",
          "type": "uint16"
        },
        {
          "internalType": "uint32",
          "name": "batchId",
          "type": "uint32"
        },
        {
          "internalType": "bytes32",
          "name": "targetRecipient",
          "type": "bytes32"
        }
      ],
      "name": "sendTokensWithPayload",
      "outputs": [
        {
          "internalType": "uint64",
          "name": "messageSequence",
          "type": "uint64"
        }
      ],
      "stateMutability": "payable",
      "type": "function"
    },
    {
      "inputs": [],
      "name": "tokenBridge",
      "outputs": [
        {
          "internalType": "contract ITokenBridge",
          "name": "",
          "type": "address"
        }
      ],
      "stateMutability": "view",
      "type": "function"
    },
    {
      "inputs": [
        {
          "internalType": "uint32",
          "name": "relayerFeePercentage",
          "type": "uint32"
        },
        {
          "internalType": "uint32",
          "name": "relayerFeePrecision",
          "type": "uint32"
        }
      ],
      "name": "updateRelayerFee",
      "outputs": [],
      "stateMutability": "nonpayable",
      "type": "function"
    },
    {
      "inputs": [],
      "name": "wormhole",
      "outputs": [
        {
          "internalType": "contract IWormhole",
          "name": "",
          "type": "address"
        }
      ],
      "stateMutability": "view",
      "type": "function"
    },
    {
      "inputs": [],
      "name": "wormholeFinality",
      "outputs": [
        {
          "internalType": "uint8",
          "name": "",
          "type": "uint8"
        }
      ],
      "stateMutability": "view",
      "type": "function"
    }
  ],
  "bytecode": "0x6080346101cc57601f6114a338819003918201601f19168301916001600160401b038311848410176101d15780849260c0946040528339810103126101cc57610047816101e7565b90610054602082016101e7565b604082015161ffff8116908181036101cc5760608401519260ff84168085036101cc5761008f60a0610088608089016101fb565b97016101fb565b6001600455966001600160a01b03169182156101bb576001600160a01b03169384156101aa571561019957156101885763ffffffff85161561017757600080546001600160a01b03199081163317909155600180549091169190911790556002805460b89590951b63ffffffff60b81b1660b09490941b60ff60b01b16600160b81b600160f81b03199093167fff000000000000000000000000000000000000000000000000000000000000009095169490941760a09190911b61ffff60a01b1617171760d89290921b63ffffffff60d81b16919091179055604051611296908161020d8239f35b634a50e41f60e01b60005260046000fd5b63cc02be4f60e01b60005260046000fd5b633d23e4d160e11b60005260046000fd5b6310cf067560e31b60005260046000fd5b630b53078360e01b60005260046000fd5b600080fd5b634e487b7160e01b600052604160045260246000fd5b51906001600160a01b03821682036101cc57565b519063ffffffff821682036101cc5756fe608080604052600436101561001357600080fd5b60003560e01c9081630520557b14610e1f57508063197c6e7714610dd057806324816abb14610d9d57806335ff1e2814610d76578063578479ec14610d1d5780636dbd4965146107bf57806384acd1bb1461079657806385e66df41461076f5780638da5cb5b14610746578063960b48c3146106985780639a8a059214610673578063a1cb31b7146105f9578063bca4b0fa14610558578063c6328a46146100da578063ce2971cf1461012e578063dc404a0e146101085763dd6522aa146100da57600080fd5b34610103576000366003190112610103576002546040516001600160a01b039091168152602090f35b600080fd5b3461010357602036600319011261010357602061012660043561110d565b604051908152f35b60a0366003190112610103576004356001600160a01b03811680820361010357602435906044359061ffff8216809203610103576064359363ffffffff85168095036101035760843590600260045414610547576002600455821561053657841561052557811561051457600080604051602081019063313ce56760e01b8252600481526101bd602482610e76565b5190845afa506101cb6111ae565b6020818051810103126101035760206101e4910161106b565b60ff869116600881116104d2575b50156104c1578360005260036020526040600020549283156104b057600154604051631a90a21960e01b81529290602090849060049082906001600160a01b03165afa9283156103fc57600093610479575b508234036104685761ffff976102c96102ae6020996102a9856102a461026c61039798611239565b93604051906323b872dd60e01b602083015233602483015230604483015260648201526064815261029e608482610e76565b896111de565b611239565b6110e0565b95604051906102bc82610e40565b600182528a82015261103a565b60025460405163095ea7b360e01b8b82019081526001600160a01b039092166024820181905260448083018a9052825298929392918b9060009061030e606485610e76565b835190828a5af16000513d8261044c575b505015610408575b506040519461033586610e5b565b855289850196875260408501988952606085019081526040519a8b998a9889976328a87c1360e21b895260018060a01b03905116600489015251602488015251166044860152516064850152608484015260c060a484015260c4830190610f2d565b03925af180156103fc576000906103c2575b60209060016004556001600160401b0360405191168152f35b506020813d6020116103f4575b816103dc60209383610e76565b81010312610103576103ef60209161108a565b6103a9565b3d91506103cf565b6040513d6000823e3d90fd5b6104469061044060405163095ea7b360e01b8e8201528b6024820152600060448201526044815261043a606482610e76565b886111de565b866111de565b8b610327565b9091506104605750853b15155b8d8061031f565b600114610459565b63044044a560e21b60005260046000fd5b90926020823d6020116104a8575b8161049460209383610e76565b810103126104a55750519188610244565b80fd5b3d9150610487565b631604cdb560e31b60005260046000fd5b63bc74cb5760e01b60005260046000fd5b60071901905060ff81116104fe5760ff16604d81116104fe576104f890600a0a866110ed565b876101f2565b634e487b7160e01b600052601160045260246000fd5b63322fb53760e11b60005260046000fd5b635e85ae7360e01b60005260046000fd5b630f58058360e11b60005260046000fd5b633ee5aeb560e01b60005260046000fd5b3461010357604036600319011261010357610571610ef9565b60005460243591906001600160a01b031633036105e85761ffff16801515806105d5575b156105c45781156105b3576000526003602052604060002055600080f35b6324f599dd60e21b60005260046000fd5b63019f4be560e11b60005260046000fd5b5061ffff60025460a01c16811415610595565b6301d65ae560e01b60005260046000fd5b346101035760003660031901126101035760e060018060a01b036000541663ffffffff60018060a01b036001541660025490604051938452602084015260018060a01b038116604084015261ffff8160a01c16606084015260ff8160b01c166080840152818160b81c1660a084015260d81c1660c0820152f35b3461010357600036600319011261010357602061ffff60025460a01c16604051908152f35b346101035760403660031901126101035760043563ffffffff8116808203610103576024359063ffffffff821690818303610103576000546001600160a01b031633036105e8578115610735571015610724576002805467ffffffffffffffff60b81b191660d89390931b63ffffffff60d81b169290921760b89190911b63ffffffff60b81b16179055005b6304d3cffd60e31b60005260046000fd5b630f9117b760e31b60005260046000fd5b34610103576000366003190112610103576000546040516001600160a01b039091168152602090f35b3461010357600036600319011261010357602063ffffffff60025460d81c16604051908152f35b34610103576000366003190112610103576001546040516001600160a01b039091168152602090f35b34610103576060366003190112610103576004356001600160401b038111610103576107ef903690600401610eb2565b6024356001600160401b0381116101035761080e903690600401610eb2565b6044356001600160401b0381116101035761082d903690600401610eb2565b60015460405163a9e1189360e01b815260206004820152919391929060009084906001600160a01b031681806108666024820188610f2d565b03915afa9283156103fc57600093610b11575b5060018060a01b03600254166040519460608601938685106001600160401b03861117610afb57610904966109176108f19360009793889460405283526020830196875260408301908152604051998a97889687956357bf927b60e01b87526020600488015251606060248801526084870190610f2d565b9051858203602319016044870152610f2d565b9051838203602319016064850152610f2d565b03925af19182156103fc57600092610a01575b50610935825161113f565b9061095c61ffff606060a08601519301511661ffff16600052600360205260406000205490565b036109f057602061097060e0840151610f52565b92019161098a6020610982855161110d565b92015161113f565b90801580156109de575b156109b2575091516109b09290916001600160a01b031661116b565b005b6109b0936001600160a01b03909316926109d891906109d282338761116b565b516110e0565b9161116b565b50336001600160a01b03831614610994565b635ddd9a5760e11b60005260046000fd5b3d8084833e610a108183610e76565b810190602081830312610af3578051906001600160401b038211610af757019061010082820312610af3576040519161010083018381106001600160401b03821117610adf576040528051835260208101516020840152610a7360408201611079565b6040840152610a8460608201611079565b6060840152610a956080820161108a565b608084015260a081015160a084015260c081015160c084015260e0810151906001600160401b038211610adb57610acf939495500161109e565b60e0820152908261092a565b8580fd5b634e487b7160e01b86526041600452602486fd5b8380fd5b8480fd5b634e487b7160e01b600052604160045260246000fd5b9290923d8083833e610b238183610e76565b810190602081830312610ced578051906001600160401b038211610af357019061016082820312610ced576040519261016084018481106001600160401b03821117610d0957604052610b758361106b565b8452610b8360208401611079565b6020850152610b9460408401611079565b6040850152606083015161ffff81168103610d0557606085015260808301516080850152610bc460a0840161108a565b60a0850152610bd560c0840161106b565b60c085015260e08301516001600160401b038111610d055782610bf991850161109e565b60e0850152610c0b6101008401611079565b6101008501526101208301516001600160401b038111610d0557830182601f82011215610d05578051916001600160401b038311610cf15760405193610c5760208560051b0186610e76565b83855260208086019460071b84010192818411610ced57602001935b838510610c99575050505050906101409161012084015201516101408201529184610879565b608085830312610ced576020608091604051610cb481610e5b565b875181528288015183820152610ccc6040890161106b565b6040820152610cdd6060890161106b565b6060820152815201940193610c73565b8280fd5b634e487b7160e01b81526041600452602490fd5b5080fd5b634e487b7160e01b82526041600452602482fd5b3461010357604036600319011261010357604051610d3a81610e40565b60043560ff811681036101035781610d5e91610d729352602435602082015261103a565b604051918291602083526020830190610f2d565b0390f35b3461010357600036600319011261010357602063ffffffff60025460b81c16604051908152f35b34610103576020366003190112610103576020610126610dbb610ef9565b61ffff16600052600360205260406000205490565b34610103576020366003190112610103576004356001600160401b03811161010357610e0a610e056040923690600401610eb2565b610f52565b602082519160ff815116835201516020820152f35b346101035760003660031901126101035760209060ff60025460b01c168152f35b604081019081106001600160401b03821117610afb57604052565b608081019081106001600160401b03821117610afb57604052565b90601f801991011681019081106001600160401b03821117610afb57604052565b6001600160401b038111610afb57601f01601f191660200190565b81601f8201121561010357803590610ec982610e97565b92610ed76040519485610e76565b8284526020838301011161010357816000926020809301838601378301015290565b6004359061ffff8216820361010357565b60005b838110610f1d5750506000910152565b8181015183820152602001610f0d565b90602091610f4681518092818552858086019101610f0a565b601f01601f1916010190565b9060405191610f6083610e40565b60008352602083016000815283825115610fff5760019060ff828501511680915203610fee576021825110610fb1576021820151905251602103610fa057565b632f3a03e160e11b60005260046000fd5b60405162461bcd60e51b8152602060048201526015602482015274746f427974657333325f6f75744f66426f756e647360581b6044820152606490fd5b637d05c64360e11b60005260046000fd5b60405162461bcd60e51b8152602060048201526013602482015272746f55696e74385f6f75744f66426f756e647360681b6044820152606490fd5b602081519101516040519160ff60f81b9060f81b166020830152602182015260218152611068604182610e76565b90565b519060ff8216820361010357565b519063ffffffff8216820361010357565b51906001600160401b038216820361010357565b81601f820112156101035780516110b481610e97565b926110c26040519485610e76565b81845260208284010111610103576110689160208085019101610f0a565b919082039182116104fe57565b81156110f7570490565b634e487b7160e01b600052601260045260246000fd5b6002549063ffffffff8260d81c16908181029181830414901517156104fe5763ffffffff6110689260b81c16906110ed565b6001600160a01b0319811661115a576001600160a01b031690565b630b09751760e01b60005260046000fd5b60405163a9059cbb60e01b60208201526001600160a01b039290921660248301526044808301939093529181526111ac916111a7606483610e76565b6111de565b565b3d156111d9573d906111bf82610e97565b916111cd6040519384610e76565b82523d6000602084013e565b606090565b906000602091828151910182855af1156103fc576000513d61123057506001600160a01b0381163b155b61120f5750565b635274afe760e01b60009081526001600160a01b0391909116600452602490fd5b60011415611208565b6000809160405160208101906370a0823160e01b825230602482015260248152611264604482610e76565b51915afa506112716111ae565b6020815191818082019384920101031261010357519056fea164736f6c634300081c000a",
  "linkReferences": {},
  "deployedLinkReferences": {}
}