{
  "_format": "hh-sol-artifact-1",
  "contractName": "DedicatedVaultRouter",
  "sourceName": "contracts/prime/DedicatedVaultRouter.sol",
  "abi": [
    {
      "inputs": [],
      "stateMutability": "nonpayable",
      "type": "constructor"
    },
    {
      "inputs": [],
      "name": "AccessControlBadConfirmation",
      "type": "error"
    },
    {
      "inputs": [
        {
          "internalType": "address",
          "name": "account",
          "type": "address"
        },
        {
          "internalType": "bytes32",
          "name": "neededRole",
          "type": "bytes32"
        }
      ],
      "name": "AccessControlUnauthorizedAccount",
      "type": "error"
    },
    {
      "inputs": [
        {
          "internalType": "address",
          "name": "target",
          "type": "address"
        }
      ],
      "name": "AddressEmptyCode",
      "type": "error"
    },
    {
      "inputs": [],
      "name": "AmlSignatureAlreadyUsed",
      "type": "error"
    },
    {
      "inputs": [],
      "name": "AmlSignatureExpired",
      "type": "error"
    },
    {
      "inputs": [],
      "name": "ArrayLengthMismatch",
      "type": "error"
    },
    {
      "inputs": [],
      "name": "ECDSAInvalidSignature",
      "type": "error"
    },
    {
      "inputs": [
        {
          "internalType": "uint256",
          "name": "length",
          "type": "uint256"
        }
      ],
      "name": "ECDSAInvalidSignatureLength",
      "type": "error"
    },
    {
      "inputs": [
        {
          "internalType": "bytes32",
          "name": "s",
          "type": "bytes32"
        }
      ],
      "name": "ECDSAInvalidSignatureS",
      "type": "error"
    },
    {
      "inputs": [
        {
          "internalType": "address",
          "name": "implementation",
          "type": "address"
        }
      ],
      "name": "ERC1967InvalidImplementation",
      "type": "error"
    },
    {
      "inputs": [],
      "name": "ERC1967NonPayable",
      "type": "error"
    },
    {
      "inputs": [],
      "name": "FailedCall",
      "type": "error"
    },
    {
      "inputs": [],
      "name": "FailedDeployment",
      "type": "error"
    },
    {
      "inputs": [
        {
          "internalType": "uint256",
          "name": "amount",
          "type": "uint256"
        }
      ],
      "name": "FundsStuck",
      "type": "error"
    },
    {
      "inputs": [
        {
          "internalType": "uint256",
          "name": "balance",
          "type": "uint256"
        },
        {
          "internalType": "uint256",
          "name": "needed",
          "type": "uint256"
        }
      ],
      "name": "InsufficientBalance",
      "type": "error"
    },
    {
      "inputs": [],
      "name": "InvalidAmlSignature",
      "type": "error"
    },
    {
      "inputs": [],
      "name": "InvalidAmlSigner",
      "type": "error"
    },
    {
      "inputs": [],
      "name": "InvalidInitialization",
      "type": "error"
    },
    {
      "inputs": [],
      "name": "InvalidRedemptionProxyImplementation",
      "type": "error"
    },
    {
      "inputs": [],
      "name": "InvalidVault",
      "type": "error"
    },
    {
      "inputs": [],
      "name": "NotInitializing",
      "type": "error"
    },
    {
      "inputs": [
        {
          "internalType": "address",
          "name": "owner",
          "type": "address"
        }
      ],
      "name": "OwnableInvalidOwner",
      "type": "error"
    },
    {
      "inputs": [
        {
          "internalType": "address",
          "name": "account",
          "type": "address"
        }
      ],
      "name": "OwnableUnauthorizedAccount",
      "type": "error"
    },
    {
      "inputs": [],
      "name": "RedemptionAlreadyPending",
      "type": "error"
    },
    {
      "inputs": [],
      "name": "ReentrancyGuardReentrantCall",
      "type": "error"
    },
    {
      "inputs": [
        {
          "internalType": "address",
          "name": "token",
          "type": "address"
        }
      ],
      "name": "SafeERC20FailedOperation",
      "type": "error"
    },
    {
      "inputs": [
        {
          "internalType": "uint256",
          "name": "minShares",
          "type": "uint256"
        },
        {
          "internalType": "uint256",
          "name": "actualShares",
          "type": "uint256"
        }
      ],
      "name": "SlippageExceeded",
      "type": "error"
    },
    {
      "inputs": [],
      "name": "UUPSUnauthorizedCallContext",
      "type": "error"
    },
    {
      "inputs": [
        {
          "internalType": "bytes32",
          "name": "slot",
          "type": "bytes32"
        }
      ],
      "name": "UUPSUnsupportedProxiableUUID",
      "type": "error"
    },
    {
      "anonymous": false,
      "inputs": [
        {
          "indexed": true,
          "internalType": "address",
          "name": "oldSigner",
          "type": "address"
        },
        {
          "indexed": true,
          "internalType": "address",
          "name": "newSigner",
          "type": "address"
        }
      ],
      "name": "AmlSignerUpdated",
      "type": "event"
    },
    {
      "anonymous": false,
      "inputs": [
        {
          "indexed": true,
          "internalType": "address",
          "name": "user",
          "type": "address"
        },
        {
          "indexed": true,
          "internalType": "uint256",
          "name": "assets",
          "type": "uint256"
        },
        {
          "indexed": true,
          "internalType": "uint256",
          "name": "shares",
          "type": "uint256"
        },
        {
          "indexed": false,
          "internalType": "uint256",
          "name": "stakingShares",
          "type": "uint256"
        },
        {
          "indexed": false,
          "internalType": "uint256",
          "name": "nuvaShares",
          "type": "uint256"
        }
      ],
      "name": "Deposited",
      "type": "event"
    },
    {
      "anonymous": false,
      "inputs": [
        {
          "indexed": false,
          "internalType": "uint64",
          "name": "version",
          "type": "uint64"
        }
      ],
      "name": "Initialized",
      "type": "event"
    },
    {
      "anonymous": false,
      "inputs": [
        {
          "indexed": true,
          "internalType": "address",
          "name": "user",
          "type": "address"
        },
        {
          "indexed": true,
          "internalType": "uint256",
          "name": "stakingShares",
          "type": "uint256"
        },
        {
          "indexed": true,
          "internalType": "uint256",
          "name": "nuvaShares",
          "type": "uint256"
        }
      ],
      "name": "NuvaDeposited",
      "type": "event"
    },
    {
      "anonymous": false,
      "inputs": [
        {
          "indexed": true,
          "internalType": "address",
          "name": "previousOwner",
          "type": "address"
        },
        {
          "indexed": true,
          "internalType": "address",
          "name": "newOwner",
          "type": "address"
        }
      ],
      "name": "OwnershipTransferStarted",
      "type": "event"
    },
    {
      "anonymous": false,
      "inputs": [
        {
          "indexed": true,
          "internalType": "address",
          "name": "previousOwner",
          "type": "address"
        },
        {
          "indexed": true,
          "internalType": "address",
          "name": "newOwner",
          "type": "address"
        }
      ],
      "name": "OwnershipTransferred",
      "type": "event"
    },
    {
      "anonymous": false,
      "inputs": [
        {
          "indexed": true,
          "internalType": "address",
          "name": "oldImplementation",
          "type": "address"
        },
        {
          "indexed": true,
          "internalType": "address",
          "name": "newImplementation",
          "type": "address"
        }
      ],
      "name": "RedemptionProxyImplementationUpdated",
      "type": "event"
    },
    {
      "anonymous": false,
      "inputs": [
        {
          "indexed": true,
          "internalType": "address",
          "name": "user",
          "type": "address"
        },
        {
          "indexed": true,
          "internalType": "address",
          "name": "redemptionProxy",
          "type": "address"
        }
      ],
      "name": "RedemptionRequested",
      "type": "event"
    },
    {
      "anonymous": false,
      "inputs": [
        {
          "indexed": false,
          "internalType": "address[]",
          "name": "users",
          "type": "address[]"
        },
        {
          "indexed": false,
          "internalType": "uint256",
          "name": "totalSweptAmount",
          "type": "uint256"
        }
      ],
      "name": "RedemptionsSwept",
      "type": "event"
    },
    {
      "anonymous": false,
      "inputs": [
        {
          "indexed": true,
          "internalType": "bytes32",
          "name": "role",
          "type": "bytes32"
        },
        {
          "indexed": true,
          "internalType": "bytes32",
          "name": "previousAdminRole",
          "type": "bytes32"
        },
        {
          "indexed": true,
          "internalType": "bytes32",
          "name": "newAdminRole",
          "type": "bytes32"
        }
      ],
      "name": "RoleAdminChanged",
      "type": "event"
    },
    {
      "anonymous": false,
      "inputs": [
        {
          "indexed": true,
          "internalType": "bytes32",
          "name": "role",
          "type": "bytes32"
        },
        {
          "indexed": true,
          "internalType": "address",
          "name": "account",
          "type": "address"
        },
        {
          "indexed": true,
          "internalType": "address",
          "name": "sender",
          "type": "address"
        }
      ],
      "name": "RoleGranted",
      "type": "event"
    },
    {
      "anonymous": false,
      "inputs": [
        {
          "indexed": true,
          "internalType": "bytes32",
          "name": "role",
          "type": "bytes32"
        },
        {
          "indexed": true,
          "internalType": "address",
          "name": "account",
          "type": "address"
        },
        {
          "indexed": true,
          "internalType": "address",
          "name": "sender",
          "type": "address"
        }
      ],
      "name": "RoleRevoked",
      "type": "event"
    },
    {
      "anonymous": false,
      "inputs": [
        {
          "indexed": true,
          "internalType": "address",
          "name": "implementation",
          "type": "address"
        }
      ],
      "name": "Upgraded",
      "type": "event"
    },
    {
      "inputs": [],
      "name": "DEFAULT_ADMIN_ROLE",
      "outputs": [
        {
          "internalType": "bytes32",
          "name": "",
          "type": "bytes32"
        }
      ],
      "stateMutability": "view",
      "type": "function"
    },
    {
      "inputs": [],
      "name": "KEEPER_ROLE",
      "outputs": [
        {
          "internalType": "bytes32",
          "name": "",
          "type": "bytes32"
        }
      ],
      "stateMutability": "view",
      "type": "function"
    },
    {
      "inputs": [],
      "name": "UPGRADE_INTERFACE_VERSION",
      "outputs": [
        {
          "internalType": "string",
          "name": "",
          "type": "string"
        }
      ],
      "stateMutability": "view",
      "type": "function"
    },
    {
      "inputs": [],
      "name": "acceptOwnership",
      "outputs": [],
      "stateMutability": "nonpayable",
      "type": "function"
    },
    {
      "inputs": [],
      "name": "amlSigner",
      "outputs": [
        {
          "internalType": "address",
          "name": "",
          "type": "address"
        }
      ],
      "stateMutability": "view",
      "type": "function"
    },
    {
      "inputs": [],
      "name": "asset",
      "outputs": [
        {
          "internalType": "contract IERC20",
          "name": "",
          "type": "address"
        }
      ],
      "stateMutability": "view",
      "type": "function"
    },
    {
      "inputs": [],
      "name": "assetVault",
      "outputs": [
        {
          "internalType": "contract IERC4626",
          "name": "",
          "type": "address"
        }
      ],
      "stateMutability": "view",
      "type": "function"
    },
    {
      "inputs": [
        {
          "internalType": "uint256",
          "name": "_amount",
          "type": "uint256"
        },
        {
          "internalType": "address",
          "name": "_receiver",
          "type": "address"
        },
        {
          "internalType": "uint256",
          "name": "_minVaultSharesOut",
          "type": "uint256"
        },
        {
          "internalType": "uint256",
          "name": "_minStakingVaultSharesOut",
          "type": "uint256"
        },
        {
          "internalType": "uint256",
          "name": "_minNuvaVaultSharesOut",
          "type": "uint256"
        },
        {
          "internalType": "bytes",
          "name": "_amlSignature",
          "type": "bytes"
        },
        {
          "internalType": "uint256",
          "name": "_amlDeadline",
          "type": "uint256"
        }
      ],
      "name": "deposit",
      "outputs": [
        {
          "internalType": "uint256",
          "name": "nuvaShares",
          "type": "uint256"
        }
      ],
      "stateMutability": "nonpayable",
      "type": "function"
    },
    {
      "inputs": [
        {
          "internalType": "uint256",
          "name": "_amount",
          "type": "uint256"
        },
        {
          "internalType": "address",
          "name": "_receiver",
          "type": "address"
        },
        {
          "internalType": "uint256",
          "name": "_minVaultSharesOut",
          "type": "uint256"
        },
        {
          "internalType": "uint256",
          "name": "_minStakingVaultSharesOut",
          "type": "uint256"
        },
        {
          "internalType": "uint256",
          "name": "_minNuvaVaultSharesOut",
          "type": "uint256"
        },
        {
          "internalType": "bytes",
          "name": "_amlSignature",
          "type": "bytes"
        },
        {
          "internalType": "uint256",
          "name": "_amlDeadline",
          "type": "uint256"
        },
        {
          "internalType": "uint256",
          "name": "_permitDeadline",
          "type": "uint256"
        },
        {
          "internalType": "uint8",
          "name": "_v",
          "type": "uint8"
        },
        {
          "internalType": "bytes32",
          "name": "_r",
          "type": "bytes32"
        },
        {
          "internalType": "bytes32",
          "name": "_s",
          "type": "bytes32"
        }
      ],
      "name": "depositWithPermit",
      "outputs": [
        {
          "internalType": "uint256",
          "name": "nuvaShares",
          "type": "uint256"
        }
      ],
      "stateMutability": "nonpayable",
      "type": "function"
    },
    {
      "inputs": [
        {
          "internalType": "bytes32",
          "name": "role",
          "type": "bytes32"
        }
      ],
      "name": "getRoleAdmin",
      "outputs": [
        {
          "internalType": "bytes32",
          "name": "",
          "type": "bytes32"
        }
      ],
      "stateMutability": "view",
      "type": "function"
    },
    {
      "inputs": [
        {
          "internalType": "bytes32",
          "name": "role",
          "type": "bytes32"
        },
        {
          "internalType": "address",
          "name": "account",
          "type": "address"
        }
      ],
      "name": "grantRole",
      "outputs": [],
      "stateMutability": "nonpayable",
      "type": "function"
    },
    {
      "inputs": [
        {
          "internalType": "bytes32",
          "name": "role",
          "type": "bytes32"
        },
        {
          "internalType": "address",
          "name": "account",
          "type": "address"
        }
      ],
      "name": "hasRole",
      "outputs": [
        {
          "internalType": "bool",
          "name": "",
          "type": "bool"
        }
      ],
      "stateMutability": "view",
      "type": "function"
    },
    {
      "inputs": [
        {
          "internalType": "address",
          "name": "_assetVault",
          "type": "address"
        },
        {
          "internalType": "address",
          "name": "_stakingVault",
          "type": "address"
        },
        {
          "internalType": "address",
          "name": "_nuvaVault",
          "type": "address"
        },
        {
          "internalType": "address",
          "name": "_amlSigner",
          "type": "address"
        },
        {
          "internalType": "address",
          "name": "_initialOwner",
          "type": "address"
        }
      ],
      "name": "initialize",
      "outputs": [],
      "stateMutability": "nonpayable",
      "type": "function"
    },
    {
      "inputs": [],
      "name": "nuvaAsset",
      "outputs": [
        {
          "internalType": "contract IERC20",
          "name": "",
          "type": "address"
        }
      ],
      "stateMutability": "view",
      "type": "function"
    },
    {
      "inputs": [],
      "name": "nuvaVault",
      "outputs": [
        {
          "internalType": "contract IERC4626",
          "name": "",
          "type": "address"
        }
      ],
      "stateMutability": "view",
      "type": "function"
    },
    {
      "inputs": [],
      "name": "owner",
      "outputs": [
        {
          "internalType": "address",
          "name": "",
          "type": "address"
        }
      ],
      "stateMutability": "view",
      "type": "function"
    },
    {
      "inputs": [],
      "name": "pendingOwner",
      "outputs": [
        {
          "internalType": "address",
          "name": "",
          "type": "address"
        }
      ],
      "stateMutability": "view",
      "type": "function"
    },
    {
      "inputs": [],
      "name": "proxiableUUID",
      "outputs": [
        {
          "internalType": "bytes32",
          "name": "",
          "type": "bytes32"
        }
      ],
      "stateMutability": "view",
      "type": "function"
    },
    {
      "inputs": [],
      "name": "redemptionProxyImplementation",
      "outputs": [
        {
          "internalType": "address",
          "name": "",
          "type": "address"
        }
      ],
      "stateMutability": "view",
      "type": "function"
    },
    {
      "inputs": [
        {
          "internalType": "address",
          "name": "",
          "type": "address"
        }
      ],
      "name": "redemptionProxyToUser",
      "outputs": [
        {
          "internalType": "address",
          "name": "",
          "type": "address"
        }
      ],
      "stateMutability": "view",
      "type": "function"
    },
    {
      "inputs": [],
      "name": "renounceOwnership",
      "outputs": [],
      "stateMutability": "nonpayable",
      "type": "function"
    },
    {
      "inputs": [
        {
          "internalType": "bytes32",
          "name": "role",
          "type": "bytes32"
        },
        {
          "internalType": "address",
          "name": "callerConfirmation",
          "type": "address"
        }
      ],
      "name": "renounceRole",
      "outputs": [],
      "stateMutability": "nonpayable",
      "type": "function"
    },
    {
      "inputs": [
        {
          "internalType": "uint256",
          "name": "_amountNuvaShares",
          "type": "uint256"
        }
      ],
      "name": "requestRedeem",
      "outputs": [],
      "stateMutability": "nonpayable",
      "type": "function"
    },
    {
      "inputs": [
        {
          "internalType": "uint256",
          "name": "_amountNuvaShares",
          "type": "uint256"
        },
        {
          "internalType": "uint256",
          "name": "_permitDeadline",
          "type": "uint256"
        },
        {
          "internalType": "uint8",
          "name": "_v",
          "type": "uint8"
        },
        {
          "internalType": "bytes32",
          "name": "_r",
          "type": "bytes32"
        },
        {
          "internalType": "bytes32",
          "name": "_s",
          "type": "bytes32"
        }
      ],
      "name": "requestRedeemWithPermit",
      "outputs": [],
      "stateMutability": "nonpayable",
      "type": "function"
    },
    {
      "inputs": [
        {
          "internalType": "bytes32",
          "name": "role",
          "type": "bytes32"
        },
        {
          "internalType": "address",
          "name": "account",
          "type": "address"
        }
      ],
      "name": "revokeRole",
      "outputs": [],
      "stateMutability": "nonpayable",
      "type": "function"
    },
    {
      "inputs": [
        {
          "internalType": "address",
          "name": "_newAmlSigner",
          "type": "address"
        }
      ],
      "name": "setAmlSigner",
      "outputs": [],
      "stateMutability": "nonpayable",
      "type": "function"
    },
    {
      "inputs": [
        {
          "internalType": "address",
          "name": "_newImplementation",
          "type": "address"
        }
      ],
      "name": "setRedemptionProxyImplementation",
      "outputs": [],
      "stateMutability": "nonpayable",
      "type": "function"
    },
    {
      "inputs": [],
      "name": "stakingAsset",
      "outputs": [
        {
          "internalType": "contract IERC20",
          "name": "",
          "type": "address"
        }
      ],
      "stateMutability": "view",
      "type": "function"
    },
    {
      "inputs": [],
      "name": "stakingVault",
      "outputs": [
        {
          "internalType": "contract IERC4626",
          "name": "",
          "type": "address"
        }
      ],
      "stateMutability": "view",
      "type": "function"
    },
    {
      "inputs": [
        {
          "internalType": "bytes4",
          "name": "interfaceId",
          "type": "bytes4"
        }
      ],
      "name": "supportsInterface",
      "outputs": [
        {
          "internalType": "bool",
          "name": "",
          "type": "bool"
        }
      ],
      "stateMutability": "view",
      "type": "function"
    },
    {
      "inputs": [
        {
          "internalType": "address[]",
          "name": "_proxyAddresses",
          "type": "address[]"
        },
        {
          "internalType": "uint256[]",
          "name": "_amounts",
          "type": "uint256[]"
        }
      ],
      "name": "sweepRedemptions",
      "outputs": [],
      "stateMutability": "nonpayable",
      "type": "function"
    },
    {
      "inputs": [
        {
          "internalType": "address",
          "name": "newOwner",
          "type": "address"
        }
      ],
      "name": "transferOwnership",
      "outputs": [],
      "stateMutability": "nonpayable",
      "type": "function"
    },
    {
      "inputs": [
        {
          "internalType": "address",
          "name": "newImplementation",
          "type": "address"
        },
        {
          "internalType": "bytes",
          "name": "data",
          "type": "bytes"
        }
      ],
      "name": "upgradeToAndCall",
      "outputs": [],
      "stateMutability": "payable",
      "type": "function"
    },
    {
      "inputs": [
        {
          "internalType": "bytes32",
          "name": "",
          "type": "bytes32"
        }
      ],
      "name": "usedSignatures",
      "outputs": [
        {
          "internalType": "bool",
          "name": "",
          "type": "bool"
        }
      ],
      "stateMutability": "view",
      "type": "function"
    }
  ],
  "bytecode": "0x60a080604052346100ea57306080527ff0c57e16840df040f15088dc2f81fe391c3923bec73e23a9662efc9c229c6a005460ff8160401c166100d9576002600160401b03196001600160401b03821601610073575b60405161277090816100f08239608051818181610b670152610c0d0152f35b6001600160401b0319166001600160401b039081177ff0c57e16840df040f15088dc2f81fe391c3923bec73e23a9662efc9c229c6a005581527fc7f505b2f371ae2175ee4913f4499e1f2633a7b5936321eed1cdaeb6115181d290602090a13880610054565b63f92ee8a960e01b60005260046000fd5b600080fdfe6080604052600436101561001257600080fd5b6000803560e01c80628e6a651461136057806301ffc9a7146113095780631459457a14610f1f578063248a9ca314610ef857806324e7964a14610ecf5780632f2ff15d14610e9d5780633180bab614610e74578063364bc15a14610e4b57806336568abe14610e0657806338d52e0f14610ddd5780634f1ef28614610bbc57806352d1902d14610b545780635907256814610b135780636147da5614610aea578063632a826314610ac15780636da50e3314610a3e578063715018a6146109bd5780637776768f1461099457806379ba5097146109435780638da5cb5b1461090d57806391d14854146108b7578063a217fddf1461089b578063aa2f892d14610876578063ad3cb1cc146107fc578063bbeade0d1461072b578063be5afe161461061c578063bf7bd6e2146103a0578063d547741f14610365578063dace1a8d1461033c578063e30c397814610306578063f2fde38b1461027e578063f30a8db4146101ea578063f61ebc36146101c35763f978fd611461019257600080fd5b346101c05760203660031901126101c05760ff60406020926004358152600984522054166040519015158152f35b80fd5b50346101c057806003193601126101c057546040516001600160a01b039091168152602090f35b50346101c05760e03660031901126101c0576004356102076113fe565b60443590606435926084359460a4359067ffffffffffffffff82116101c0576020610264888888888861025f6102403660048c0161149f565b60c4359161024c611909565b61025a838a8a8a8a8a611c06565b611c7b565b611dd4565b600160008051602061270483398151915255604051908152f35b50346101c05760203660031901126101c0576102986113e3565b6102a0611564565b60008051602061274483398151915280546001600160a01b0319166001600160a01b03928316908117909155600080516020612684833981519152549091167f38d16b8cac22d99fc7c124b9cd0de2d3fa1faef420bfe791d8c362d765e227008380a380f35b50346101c057806003193601126101c057600080516020612744833981519152546040516001600160a01b039091168152602090f35b50346101c057806003193601126101c0576004546040516001600160a01b039091168152602090f35b50346101c05760403660031901126101c05761039c6004356103856113fe565b906103976103928261151d565b6117b1565b6117fb565b5080f35b50346101c05760403660031901126101c05760043567ffffffffffffffff8111610618576103d29036906004016114cd565b9060243567ffffffffffffffff8111610614576103f39036906004016114cd565b6000805160206126a483398151915285526000805160206126e483398151915260209081526040808720336000908152925290205460ff16156105ef576007546001600160a01b0316156105e0578084036105d1578491855b8581106104d357505050604051928060408501604086525260608401929085905b8082106104a557867fb9406f44634c6228db9e8d145e4f5159e884b069bd28d9763e76817e2110ed968780888860208301520390a180f35b90919384359060018060a01b0382168092036104cf5760208160019382935201950192019061046d565b8780fd5b6104de81878761153e565b356001600160a01b03811694908590036104cf576104fd82858561153e565b858952600860205260408920549035906001600160a01b0316156105c6576040519063aa60e73360e01b825260048201526020816024818c8a5af19081156105bb578991610588575b5081018091116105745793875260086020526040872080546001600160a01b03191690556001905b0161044c565b634e487b7160e01b88526011600452602488fd5b905060203d81116105b4575b61059e8183611414565b602082600092810103126101c057505138610546565b503d610594565b6040513d8b823e3d90fd5b50935060019061056e565b63512509d360e11b8552600485fd5b63c291c21760e01b8552600485fd5b63e2517d3f60e01b8552336004526000805160206126a4833981519152602452604485fd5b8380fd5b5080fd5b50346101c0576101603660031901126101c05760043561063a6113fe565b60443590606435926084359460a43567ffffffffffffffff81116106185761066690369060040161149f565b60c43590610104359260ff8416840361072757906106959291610687611909565b61025a838c8c8c8c8c611c06565b6001546001600160a01b031690813b156107235760405163d505accf60e01b81523360048201523060248201526044810185905260e48035606483015260ff9290921660848201526101243560a48201526101443560c48201529183918391829084905af161070e575b60206102648888888888611dd4565b610719828092611414565b6101c057806106ff565b8280fd5b8480fd5b50346101c05760a03660031901126101c0576004358160443560ff8116810361061857610756611909565b6004546001600160a01b031690813b156107235760405163d505accf60e01b815233600482015230602480830191909152604482018690523560648083019190915260ff92909216608480830191909152913560a4820152903560c48201529190829060e490829084905af16107e6575b506107d190611945565b60016000805160206127048339815191525580f35b916107f5816107d19394611414565b91906107c7565b50346101c057806003193601126101c057604080519161081c8284611414565b60058352640352e302e360dc1b6020840152815192839160208352815191826020850152815b83811061085f575050828201840152601f01601f19168101030190f35b602082820181015188830188015287955001610842565b50346101c05760203660031901126101c057610890611909565b6107d1600435611945565b50346101c057806003193601126101c057602090604051908152f35b50346101c05760403660031901126101c05760ff60406020926108d86113fe565b60043582526000805160206126e483398151915285528282206001600160a01b03909116825284522054604051911615158152f35b50346101c057806003193601126101c057600080516020612684833981519152546040516001600160a01b039091168152602090f35b50346101c057806003193601126101c05760008051602061274483398151915254336001600160a01b03909116036109815761097e3361189b565b80f35b63118cdaa760e01b815233600452602490fd5b50346101c057806003193601126101c0576003546040516001600160a01b039091168152602090f35b50346101c057806003193601126101c0576109d6611564565b60008051602061274483398151915280546001600160a01b03199081169091556000805160206126848339815191528054918216905581906001600160a01b03167f8be0079c531659141344cd1fd0a4f28419497f9722a3daafe3b4186f6b6457e08280a380f35b50346101c05760203660031901126101c057610a586113e3565b610a60611564565b6001600160a01b03168015610ab257600754816001600160a01b0382167fd1eea419b2c4a2e74ab6fe1d5e7ea7027d4f646f83efbdd0cb293813187fb6468580a36001600160a01b0319161760075580f35b63c291c21760e01b8252600482fd5b50346101c057806003193601126101c0576005546040516001600160a01b039091168152602090f35b50346101c057806003193601126101c0576006546040516001600160a01b039091168152602090f35b50346101c05760203660031901126101c0576020906001600160a01b03610b386113e3565b16815260088252604060018060a01b0391205416604051908152f35b50346101c057806003193601126101c0577f00000000000000000000000000000000000000000000000000000000000000006001600160a01b03163003610bad5760206040516000805160206126c48339815191528152f35b63703e46dd60e11b8152600490fd5b5060403660031901126101c057610bd16113e3565b9060243567ffffffffffffffff8111610618573660238201121561061857610c03903690602481600401359101611468565b6001600160a01b037f000000000000000000000000000000000000000000000000000000000000000016308114908115610dba575b50610dab57610c45611564565b6040516352d1902d60e01b8152926001600160a01b0381169190602085600481865afa80958596610d77575b50610c8a57634c9c8ce360e01b84526004839052602484fd5b9091846000805160206126c48339815191528103610d655750813b15610d53576000805160206126c483398151915280546001600160a01b031916821790557fbc7cd75a20ee27fd9adebab32041f755214dbc6bffa90cc0225b39da2e5c2d3b8480a28151839015610d39578083602061039c95519101845af43d15610d31573d91610d158361144c565b92610d236040519485611414565b83523d85602085013e612599565b606091612599565b50505034610d445780f35b63b398979f60e01b8152600490fd5b634c9c8ce360e01b8452600452602483fd5b632a87526960e21b8552600452602484fd5b9095506020813d602011610da3575b81610d9360209383611414565b8101031261072757519438610c71565b3d9150610d86565b63703e46dd60e11b8252600482fd5b6000805160206126c4833981519152546001600160a01b03161415905038610c38565b50346101c057806003193601126101c0576001546040516001600160a01b039091168152602090f35b50346101c05760403660031901126101c057610e206113fe565b336001600160a01b03821603610e3c5761039c906004356117fb565b63334bd91960e11b8252600482fd5b50346101c057806003193601126101c05760206040516000805160206126a48339815191528152f35b50346101c057806003193601126101c0576007546040516001600160a01b039091168152602090f35b50346101c05760403660031901126101c05761039c600435610ebd6113fe565b90610eca6103928261151d565b611708565b50346101c057806003193601126101c0576002546040516001600160a01b039091168152602090f35b50346101c05760203660031901126101c0576020610f1760043561151d565b604051908152f35b50346101c05760a03660031901126101c057610f396113e3565b610f416113fe565b6044356001600160a01b03811690819003610614576064356001600160a01b0381169290839003610727576084356001600160a01b038116949085810361130557600080516020612724833981519152549560ff8760401c16159667ffffffffffffffff8116801590816112fd575b60011490816112f3575b1590816112ea575b506112db5767ffffffffffffffff19811660011760008051602061272483398151915255876112ae575b50610ff561234d565b1561129a57806110076110489261189b565b61100f61234d565b61101761234d565b61101f61234d565b61102761234d565b6001600080516020612704833981519152556110428161159a565b5061164c565b506001600160a01b031680158015611289575b8015611281575b6112725783156112635785546001600160a01b031916811786556040516338d52e0f60e01b815290602090829060049082905afa91821561125857600492602092889161123b575b50600180546001600160a01b039283166001600160a01b03199182161790915560028054939092169216821790556040516338d52e0f60e01b815292839182905afa918215611230576004926020928791611213575b50600380546001600160a01b03929092166001600160a01b0319928316179055835416811783556040516338d52e0f60e01b815292839182905afa9081156112085784916111d9575b5060018060a01b03166001600160601b0360a01b60055416176005556001600160601b0360a01b600654161760065561117f5780f35b68ff0000000000000000196000805160206127248339815191525416600080516020612724833981519152557fc7f505b2f371ae2175ee4913f4499e1f2633a7b5936321eed1cdaeb6115181d2602060405160018152a180f35b6111fb915060203d602011611201575b6111f38183611414565b8101906114fe565b38611149565b503d6111e9565b6040513d86823e3d90fd5b61122a9150833d8511611201576111f38183611414565b38611100565b6040513d87823e3d90fd5b6112529150833d8511611201576111f38183611414565b386110aa565b6040513d88823e3d90fd5b63d1cc738560e01b8652600486fd5b630681d31960e51b8652600486fd5b508215611062565b506001600160a01b0382161561105b565b631e4fbdf760e01b87526004879052602487fd5b68ffffffffffffffffff191668010000000000000001176000805160206127248339815191525538610fec565b63f92ee8a960e01b8952600489fd5b90501538610fc2565b303b159150610fba565b899150610fb0565b8680fd5b50346101c05760203660031901126101c05760043563ffffffff60e01b811680910361061857602090637965db0b60e01b811490811561134f575b506040519015158152f35b6301ffc9a760e01b14905082611344565b50346101c05760203660031901126101c05761137a6113e3565b611382611564565b6001600160a01b031680156113d457600654816001600160a01b0382167f7f7b46c0c664af2835dffe8b8e5c1ddbfcef63f608af5bbf2836a2b29a88fcb08580a36001600160a01b0319161760065580f35b63d1cc738560e01b8252600482fd5b600435906001600160a01b03821682036113f957565b600080fd5b602435906001600160a01b03821682036113f957565b90601f8019910116810190811067ffffffffffffffff82111761143657604052565b634e487b7160e01b600052604160045260246000fd5b67ffffffffffffffff811161143657601f01601f191660200190565b9291926114748261144c565b916114826040519384611414565b8294818452818301116113f9578281602093846000960137010152565b9181601f840112156113f95782359167ffffffffffffffff83116113f957602083818601950101116113f957565b9181601f840112156113f95782359167ffffffffffffffff83116113f9576020808501948460051b0101116113f957565b908160209103126113f957516001600160a01b03811681036113f95790565b6000526000805160206126e483398151915260205260016040600020015490565b919081101561154e5760051b0190565b634e487b7160e01b600052603260045260246000fd5b600080516020612684833981519152546001600160a01b0316330361158557565b63118cdaa760e01b6000523360045260246000fd5b6001600160a01b03811660009081527fb7db2dd08fcb62d0c9e08c51941cae53c267786a0b75803fb7960902fc8ef97d602052604090205460ff16611646576001600160a01b031660008181527fb7db2dd08fcb62d0c9e08c51941cae53c267786a0b75803fb7960902fc8ef97d60205260408120805460ff191660011790553391907f2f8788117e7eff1d82e926ec794901d17c78024a50270940304540a733656f0d8180a4600190565b50600090565b6001600160a01b03811660009081527fe4a823086f56383dde6966cefd1253771599ebb2bfb3e60c37e64b5a68896bea602052604090205460ff16611646576001600160a01b031660008181527fe4a823086f56383dde6966cefd1253771599ebb2bfb3e60c37e64b5a68896bea60205260408120805460ff191660011790553391906000805160206126a4833981519152907f2f8788117e7eff1d82e926ec794901d17c78024a50270940304540a733656f0d9080a4600190565b60008181526000805160206126e4833981519152602090815260408083206001600160a01b038616845290915290205460ff166117aa5760008181526000805160206126e4833981519152602090815260408083206001600160a01b0395909516808452949091528120805460ff19166001179055339291907f2f8788117e7eff1d82e926ec794901d17c78024a50270940304540a733656f0d9080a4600190565b5050600090565b60008181526000805160206126e48339815191526020908152604080832033845290915290205460ff16156117e35750565b63e2517d3f60e01b6000523360045260245260446000fd5b60008181526000805160206126e4833981519152602090815260408083206001600160a01b038616845290915290205460ff16156117aa5760008181526000805160206126e4833981519152602090815260408083206001600160a01b0395909516808452949091528120805460ff19169055339291907ff6391f5c32d9c69d2a47ea670b442974b53935d1edc7fd64eb21e047a839171b9080a4600190565b60008051602061274483398151915280546001600160a01b031990811690915560008051602061268483398151915280549182166001600160a01b0393841690811790915591167f8be0079c531659141344cd1fd0a4f28419497f9722a3daafe3b4186f6b6457e0600080a3565b6002600080516020612704833981519152541461193457600260008051602061270483398151915255565b633ee5aeb560e01b60005260046000fd5b60045460246020600092604051928380926370a0823160e01b825230600483015260018060a01b03165afa908115611bfb578291611bc9575b506007546001600160a01b03811615611bba57608881901c62ffffff16763d602d80600a3d3981f3363d3d373d3d3d363d7300000017835260781b6effffffffffffffffffffffffffffff19166e5af43d82803e903d91602b57fd5bf3176020526037600983f06001600160a01b03811693908415611bab5783546002546004546001600160a01b03928316929081169116873b156113055760405192637c643b2f60e11b84526004840152602483015260448201523360648201528481608481838a5af1801561123057611b93575b5081611a7b91611a6a82303360018060a01b036004541661237b565b6004546001600160a01b03166123c6565b833b15610723576040519062d16aad60e01b82526004820152828160248183885af18015611b7357908391611b7e575b50506024602060018060a01b0360045416604051928380926370a0823160e01b82523060048301525afa908115611b73578391611b41575b5011611b2d57818152600860205260408120336001600160601b0360a01b8254161790557e45309ccbff29fb81c8c5fc824405446ca8ac332fd6ae375251ba54005c1fef339180a3565b63eac1efd960e01b81526001600452602490fd5b90506020813d602011611b6b575b81611b5c60209383611414565b810103126113f9575138611ae3565b3d9150611b4f565b6040513d85823e3d90fd5b81611b8891611414565b610618578138611aab565b84611ba3611a7b93968593611414565b949150611a4e565b63b06ebf3d60e01b8452600484fd5b63c291c21760e01b8352600483fd5b90506020813d602011611bf3575b81611be460209383611414565b8101031261061857513861197e565b3d9150611bd7565b6040513d84823e3d90fd5b94929093916040519460208601967f825e4a0c6c1347448cb0506a6696bb6a0812431f15c82ace3f8cd1ed0da3829e8852336040880152606087015260018060a01b0316608086015260a085015260c084015260e08301526101008201526101008152611c7561012082611414565b51902090565b9190924211611dc35781600052600960205260ff60406000205416611db257611d6b611d7491611d656040956042601460208951611cb98b82611414565b82815201732232b234b1b0ba32b22b30bab63a2937baba32b960611b815220600160208a51611ce88c82611414565b82815201603160f81b81522089519060208201927f8b73c3c69bb8fe3d512ecc4cf759cc79239f7b179b0ffacaa9a75d522b39400f84528b83015260608201524660808201523060a082015260a08152611d4360c082611414565b51902088519061190160f01b8252600282015287602282015220923691611468565b906124d5565b90929192612511565b6006546001600160a01b03908116911603611da1576000526009602052600020600160ff19825416179055565b638bb79cad60e01b60005260046000fd5b63e544c62f60e01b60005260046000fd5b63288a076f60e21b60005260046000fd5b6001546040516370a0823160e01b8152306004820152959695929493926001600160a01b0390911690602081602481855afa801561215c5760009061231a575b6003546040516370a0823160e01b81523060048201529250602090839060249082906001600160a01b03165afa91821561215c576000926122e6575b506005546040516370a0823160e01b815230600482015290602090829060249082906001600160a01b03165afa93841561215c5785916000956122ad575b5090611e9d913090339061237b565b600154600054611ebb9186916001600160a01b0390811691166123c6565b60008054604051636e553f6560e01b815260048101879052306024820152969160209188916044918391906001600160a01b03165af195861561215c57600096612279575b5080861061216857506001546040516370a0823160e01b815230600482015290602090829060249082906001600160a01b03165afa90811561215c57600091612247575b501161223157600354600254611f689186916001600160a01b0390811691166123c6565b600254604051636e553f6560e01b8152600481018690523060248201529590602090879060449082906000906001600160a01b03165af195861561215c576000966121fd575b5080861061216857506003546040516370a0823160e01b815230600482015290602090829060249082906001600160a01b03165afa90811561215c576000916121cb575b50116121b55760055460045460009660209261205b926120209189916001600160a01b0390811691166123c6565b60048054604051636e553f6560e01b81529182018990526001600160a01b039283166024830152909889939190921691839182906044820190565b03925af194851561215c57600095612181575b50849680861061216857506005546040516370a0823160e01b815230600482015290602090829060249082906001600160a01b03165afa90811561215c5760009161212a575b5011612114576040518381528460208201527fe3b53cd1a44fbf11535e145d80b8ef1ed6d57a73bf5daa7e939b6b01657d654960403392a4337f25ce8023f13f06ca0d767e94c9b8af89bb3acb2ccb35720e79a7fa12cacdc0ae600080a4565b63eac1efd960e01b600052600360045260246000fd5b90506020813d602011612154575b8161214560209383611414565b810103126113f95751386120b4565b3d9150612138565b6040513d6000823e3d90fd5b85906371c4efed60e01b60005260045260245260446000fd5b90946020823d6020116121ad575b8161219c60209383611414565b810103126101c0575051933861206e565b3d915061218f565b63eac1efd960e01b600052600260045260246000fd5b90506020813d6020116121f5575b816121e660209383611414565b810103126113f9575138611ff2565b3d91506121d9565b90956020823d602011612229575b8161221860209383611414565b810103126101c05750519438611fae565b3d915061220b565b63eac1efd960e01b600052600160045260246000fd5b90506020813d602011612271575b8161226260209383611414565b810103126113f9575138611f44565b3d9150612255565b90956020823d6020116122a5575b8161229460209383611414565b810103126101c05750519438611f00565b3d9150612287565b915093506020813d6020116122de575b816122ca60209383611414565b810103126113f95751928490611e9d611e8e565b3d91506122bd565b9091506020813d602011612312575b8161230260209383611414565b810103126113f957519038611e50565b3d91506122f5565b506020813d602011612345575b8161233460209383611414565b810103126113f95760249051611e14565b3d9150612327565b60ff6000805160206127248339815191525460401c161561236a57565b631afcd79f60e31b60005260046000fd5b6040516323b872dd60e01b60208201526001600160a01b0392831660248201529290911660448301526064808301939093529181526123c4916123bf608483611414565b61247a565b565b60206000604051938285019063095ea7b360e01b825260018060a01b0316958660248701526044860152604485526123ff606486611414565b84519082855af16000513d82612455575b50501561241c57505050565b6123bf6123c4936040519063095ea7b360e01b60208301526024820152600060448201526044815261244f606482611414565b8261247a565b90915061247257506001600160a01b0381163b15155b3880612410565b60011461246b565b906000602091828151910182855af11561215c576000513d6124cc57506001600160a01b0381163b155b6124ab5750565b635274afe760e01b60009081526001600160a01b0391909116600452602490fd5b600114156124a4565b8151919060418303612506576124ff92506020820151906060604084015193015160001a906125fa565b9192909190565b505060009160029190565b9190916004811015612583578061252757509050565b6000600182036125425763f645eedf60e01b60005260046000fd5b5060028103612560578263fce698f760e01b60005260045260246000fd5b9091600360009214612570575050565b6335e2f38360e21b825260045260249150fd5b634e487b7160e01b600052602160045260246000fd5b906125bf57508051156125ae57602081519101fd5b63d6bda27560e01b60005260046000fd5b815115806125f1575b6125d0575090565b639996b31560e01b60009081526001600160a01b0391909116600452602490fd5b50803b156125c8565b91907f7fffffffffffffffffffffffffffffff5d576e7357a4501ddfe92f46681b20a08411612677579160209360809260ff60009560405194855216868401526040830152606082015282805260015afa1561215c576000516001600160a01b0381161561266b5790600090600090565b50600090600190600090565b5050506000916003919056fe9016d09d72d40fdae2fd8ceac6b6234c7706214fd39c1cd1e609a0528c199300fc8737ab85eb45125971625a9ebdb75cc78e01d5c1fa80c4c6e5203f47bc4fab360894a13ba1a3210667c828492db98dca3e2076cc3735a920a3ca505d382bbc02dd7bc7dec4dceedda775e58dd541e08a116c6c53815c0bd028192f7b6268009b779b17422d0df92223018b32b4d1fa46e071723d6817e2486d003becc55f00f0c57e16840df040f15088dc2f81fe391c3923bec73e23a9662efc9c229c6a00237e158222e3e6968b72b9db0d8043aacf074ad9f650f0d1606b4d82ee432c00a164736f6c634300081c000a",
  "linkReferences": {},
  "deployedLinkReferences": {}
}