{
  "_format": "hh-sol-artifact-1",
  "contractName": "DedicatedVaultRouter",
  "sourceName": "contracts/prime/DedicatedVaultRouter.sol",
  "abi": [
    {
      "inputs": [],
      "stateMutability": "nonpayable",
      "type": "constructor"
    },
    {
      "inputs": [],
      "name": "AccessControlBadConfirmation",
      "type": "error"
    },
    {
      "inputs": [
        {
          "internalType": "address",
          "name": "account",
          "type": "address"
        },
        {
          "internalType": "bytes32",
          "name": "neededRole",
          "type": "bytes32"
        }
      ],
      "name": "AccessControlUnauthorizedAccount",
      "type": "error"
    },
    {
      "inputs": [
        {
          "internalType": "address",
          "name": "target",
          "type": "address"
        }
      ],
      "name": "AddressEmptyCode",
      "type": "error"
    },
    {
      "inputs": [],
      "name": "AmlSignatureAlreadyUsed",
      "type": "error"
    },
    {
      "inputs": [],
      "name": "AmlSignatureExpired",
      "type": "error"
    },
    {
      "inputs": [],
      "name": "ArrayLengthMismatch",
      "type": "error"
    },
    {
      "inputs": [],
      "name": "ECDSAInvalidSignature",
      "type": "error"
    },
    {
      "inputs": [
        {
          "internalType": "uint256",
          "name": "length",
          "type": "uint256"
        }
      ],
      "name": "ECDSAInvalidSignatureLength",
      "type": "error"
    },
    {
      "inputs": [
        {
          "internalType": "bytes32",
          "name": "s",
          "type": "bytes32"
        }
      ],
      "name": "ECDSAInvalidSignatureS",
      "type": "error"
    },
    {
      "inputs": [
        {
          "internalType": "address",
          "name": "implementation",
          "type": "address"
        }
      ],
      "name": "ERC1967InvalidImplementation",
      "type": "error"
    },
    {
      "inputs": [],
      "name": "ERC1967NonPayable",
      "type": "error"
    },
    {
      "inputs": [],
      "name": "FailedCall",
      "type": "error"
    },
    {
      "inputs": [],
      "name": "FailedDeployment",
      "type": "error"
    },
    {
      "inputs": [
        {
          "internalType": "uint256",
          "name": "amount",
          "type": "uint256"
        }
      ],
      "name": "FundsStuck",
      "type": "error"
    },
    {
      "inputs": [
        {
          "internalType": "uint256",
          "name": "balance",
          "type": "uint256"
        },
        {
          "internalType": "uint256",
          "name": "needed",
          "type": "uint256"
        }
      ],
      "name": "InsufficientBalance",
      "type": "error"
    },
    {
      "inputs": [],
      "name": "InvalidAmlSignature",
      "type": "error"
    },
    {
      "inputs": [],
      "name": "InvalidAmlSigner",
      "type": "error"
    },
    {
      "inputs": [],
      "name": "InvalidInitialization",
      "type": "error"
    },
    {
      "inputs": [],
      "name": "InvalidRedemptionProxyImplementation",
      "type": "error"
    },
    {
      "inputs": [],
      "name": "InvalidVault",
      "type": "error"
    },
    {
      "inputs": [],
      "name": "NotInitializing",
      "type": "error"
    },
    {
      "inputs": [
        {
          "internalType": "address",
          "name": "owner",
          "type": "address"
        }
      ],
      "name": "OwnableInvalidOwner",
      "type": "error"
    },
    {
      "inputs": [
        {
          "internalType": "address",
          "name": "account",
          "type": "address"
        }
      ],
      "name": "OwnableUnauthorizedAccount",
      "type": "error"
    },
    {
      "inputs": [],
      "name": "RedemptionAlreadyPending",
      "type": "error"
    },
    {
      "inputs": [],
      "name": "ReentrancyGuardReentrantCall",
      "type": "error"
    },
    {
      "inputs": [
        {
          "internalType": "address",
          "name": "token",
          "type": "address"
        }
      ],
      "name": "SafeERC20FailedOperation",
      "type": "error"
    },
    {
      "inputs": [
        {
          "internalType": "uint256",
          "name": "minShares",
          "type": "uint256"
        },
        {
          "internalType": "uint256",
          "name": "actualShares",
          "type": "uint256"
        }
      ],
      "name": "SlippageExceeded",
      "type": "error"
    },
    {
      "inputs": [],
      "name": "UUPSUnauthorizedCallContext",
      "type": "error"
    },
    {
      "inputs": [
        {
          "internalType": "bytes32",
          "name": "slot",
          "type": "bytes32"
        }
      ],
      "name": "UUPSUnsupportedProxiableUUID",
      "type": "error"
    },
    {
      "anonymous": false,
      "inputs": [
        {
          "indexed": true,
          "internalType": "address",
          "name": "oldSigner",
          "type": "address"
        },
        {
          "indexed": true,
          "internalType": "address",
          "name": "newSigner",
          "type": "address"
        }
      ],
      "name": "AmlSignerUpdated",
      "type": "event"
    },
    {
      "anonymous": false,
      "inputs": [
        {
          "indexed": true,
          "internalType": "address",
          "name": "user",
          "type": "address"
        },
        {
          "indexed": true,
          "internalType": "uint256",
          "name": "assets",
          "type": "uint256"
        },
        {
          "indexed": true,
          "internalType": "uint256",
          "name": "shares",
          "type": "uint256"
        },
        {
          "indexed": false,
          "internalType": "uint256",
          "name": "stakingShares",
          "type": "uint256"
        },
        {
          "indexed": false,
          "internalType": "uint256",
          "name": "nuvaShares",
          "type": "uint256"
        }
      ],
      "name": "Deposited",
      "type": "event"
    },
    {
      "anonymous": false,
      "inputs": [
        {
          "indexed": false,
          "internalType": "uint64",
          "name": "version",
          "type": "uint64"
        }
      ],
      "name": "Initialized",
      "type": "event"
    },
    {
      "anonymous": false,
      "inputs": [
        {
          "indexed": true,
          "internalType": "address",
          "name": "user",
          "type": "address"
        },
        {
          "indexed": true,
          "internalType": "uint256",
          "name": "stakingShares",
          "type": "uint256"
        },
        {
          "indexed": true,
          "internalType": "uint256",
          "name": "nuvaShares",
          "type": "uint256"
        }
      ],
      "name": "NuvaDeposited",
      "type": "event"
    },
    {
      "anonymous": false,
      "inputs": [
        {
          "indexed": true,
          "internalType": "address",
          "name": "previousOwner",
          "type": "address"
        },
        {
          "indexed": true,
          "internalType": "address",
          "name": "newOwner",
          "type": "address"
        }
      ],
      "name": "OwnershipTransferStarted",
      "type": "event"
    },
    {
      "anonymous": false,
      "inputs": [
        {
          "indexed": true,
          "internalType": "address",
          "name": "previousOwner",
          "type": "address"
        },
        {
          "indexed": true,
          "internalType": "address",
          "name": "newOwner",
          "type": "address"
        }
      ],
      "name": "OwnershipTransferred",
      "type": "event"
    },
    {
      "anonymous": false,
      "inputs": [
        {
          "indexed": true,
          "internalType": "address",
          "name": "oldImplementation",
          "type": "address"
        },
        {
          "indexed": true,
          "internalType": "address",
          "name": "newImplementation",
          "type": "address"
        }
      ],
      "name": "RedemptionProxyImplementationUpdated",
      "type": "event"
    },
    {
      "anonymous": false,
      "inputs": [
        {
          "indexed": true,
          "internalType": "address",
          "name": "user",
          "type": "address"
        },
        {
          "indexed": true,
          "internalType": "address",
          "name": "redemptionProxy",
          "type": "address"
        }
      ],
      "name": "RedemptionRequested",
      "type": "event"
    },
    {
      "anonymous": false,
      "inputs": [
        {
          "indexed": false,
          "internalType": "address[]",
          "name": "users",
          "type": "address[]"
        },
        {
          "indexed": false,
          "internalType": "uint256",
          "name": "totalSweptAmount",
          "type": "uint256"
        }
      ],
      "name": "RedemptionsSwept",
      "type": "event"
    },
    {
      "anonymous": false,
      "inputs": [
        {
          "indexed": true,
          "internalType": "bytes32",
          "name": "role",
          "type": "bytes32"
        },
        {
          "indexed": true,
          "internalType": "bytes32",
          "name": "previousAdminRole",
          "type": "bytes32"
        },
        {
          "indexed": true,
          "internalType": "bytes32",
          "name": "newAdminRole",
          "type": "bytes32"
        }
      ],
      "name": "RoleAdminChanged",
      "type": "event"
    },
    {
      "anonymous": false,
      "inputs": [
        {
          "indexed": true,
          "internalType": "bytes32",
          "name": "role",
          "type": "bytes32"
        },
        {
          "indexed": true,
          "internalType": "address",
          "name": "account",
          "type": "address"
        },
        {
          "indexed": true,
          "internalType": "address",
          "name": "sender",
          "type": "address"
        }
      ],
      "name": "RoleGranted",
      "type": "event"
    },
    {
      "anonymous": false,
      "inputs": [
        {
          "indexed": true,
          "internalType": "bytes32",
          "name": "role",
          "type": "bytes32"
        },
        {
          "indexed": true,
          "internalType": "address",
          "name": "account",
          "type": "address"
        },
        {
          "indexed": true,
          "internalType": "address",
          "name": "sender",
          "type": "address"
        }
      ],
      "name": "RoleRevoked",
      "type": "event"
    },
    {
      "anonymous": false,
      "inputs": [
        {
          "indexed": true,
          "internalType": "address",
          "name": "implementation",
          "type": "address"
        }
      ],
      "name": "Upgraded",
      "type": "event"
    },
    {
      "inputs": [],
      "name": "DEFAULT_ADMIN_ROLE",
      "outputs": [
        {
          "internalType": "bytes32",
          "name": "",
          "type": "bytes32"
        }
      ],
      "stateMutability": "view",
      "type": "function"
    },
    {
      "inputs": [],
      "name": "KEEPER_ROLE",
      "outputs": [
        {
          "internalType": "bytes32",
          "name": "",
          "type": "bytes32"
        }
      ],
      "stateMutability": "view",
      "type": "function"
    },
    {
      "inputs": [],
      "name": "UPGRADE_INTERFACE_VERSION",
      "outputs": [
        {
          "internalType": "string",
          "name": "",
          "type": "string"
        }
      ],
      "stateMutability": "view",
      "type": "function"
    },
    {
      "inputs": [],
      "name": "acceptOwnership",
      "outputs": [],
      "stateMutability": "nonpayable",
      "type": "function"
    },
    {
      "inputs": [],
      "name": "amlSigner",
      "outputs": [
        {
          "internalType": "address",
          "name": "",
          "type": "address"
        }
      ],
      "stateMutability": "view",
      "type": "function"
    },
    {
      "inputs": [],
      "name": "asset",
      "outputs": [
        {
          "internalType": "contract IERC20",
          "name": "",
          "type": "address"
        }
      ],
      "stateMutability": "view",
      "type": "function"
    },
    {
      "inputs": [],
      "name": "assetVault",
      "outputs": [
        {
          "internalType": "contract IERC4626",
          "name": "",
          "type": "address"
        }
      ],
      "stateMutability": "view",
      "type": "function"
    },
    {
      "inputs": [
        {
          "internalType": "uint256",
          "name": "_amount",
          "type": "uint256"
        },
        {
          "internalType": "address",
          "name": "_receiver",
          "type": "address"
        },
        {
          "internalType": "uint256",
          "name": "_minVaultSharesOut",
          "type": "uint256"
        },
        {
          "internalType": "uint256",
          "name": "_minStakingVaultSharesOut",
          "type": "uint256"
        },
        {
          "internalType": "uint256",
          "name": "_minNuvaVaultSharesOut",
          "type": "uint256"
        },
        {
          "internalType": "bytes",
          "name": "_amlSignature",
          "type": "bytes"
        },
        {
          "internalType": "uint256",
          "name": "_amlDeadline",
          "type": "uint256"
        }
      ],
      "name": "deposit",
      "outputs": [
        {
          "internalType": "uint256",
          "name": "nuvaShares",
          "type": "uint256"
        }
      ],
      "stateMutability": "nonpayable",
      "type": "function"
    },
    {
      "inputs": [
        {
          "internalType": "uint256",
          "name": "_amount",
          "type": "uint256"
        },
        {
          "internalType": "address",
          "name": "_receiver",
          "type": "address"
        },
        {
          "internalType": "uint256",
          "name": "_minVaultSharesOut",
          "type": "uint256"
        },
        {
          "internalType": "uint256",
          "name": "_minStakingVaultSharesOut",
          "type": "uint256"
        },
        {
          "internalType": "uint256",
          "name": "_minNuvaVaultSharesOut",
          "type": "uint256"
        },
        {
          "internalType": "bytes",
          "name": "_amlSignature",
          "type": "bytes"
        },
        {
          "internalType": "uint256",
          "name": "_amlDeadline",
          "type": "uint256"
        },
        {
          "internalType": "uint256",
          "name": "_permitDeadline",
          "type": "uint256"
        },
        {
          "internalType": "uint8",
          "name": "_v",
          "type": "uint8"
        },
        {
          "internalType": "bytes32",
          "name": "_r",
          "type": "bytes32"
        },
        {
          "internalType": "bytes32",
          "name": "_s",
          "type": "bytes32"
        }
      ],
      "name": "depositWithPermit",
      "outputs": [
        {
          "internalType": "uint256",
          "name": "nuvaShares",
          "type": "uint256"
        }
      ],
      "stateMutability": "nonpayable",
      "type": "function"
    },
    {
      "inputs": [
        {
          "internalType": "bytes32",
          "name": "role",
          "type": "bytes32"
        }
      ],
      "name": "getRoleAdmin",
      "outputs": [
        {
          "internalType": "bytes32",
          "name": "",
          "type": "bytes32"
        }
      ],
      "stateMutability": "view",
      "type": "function"
    },
    {
      "inputs": [
        {
          "internalType": "bytes32",
          "name": "role",
          "type": "bytes32"
        },
        {
          "internalType": "address",
          "name": "account",
          "type": "address"
        }
      ],
      "name": "grantRole",
      "outputs": [],
      "stateMutability": "nonpayable",
      "type": "function"
    },
    {
      "inputs": [
        {
          "internalType": "bytes32",
          "name": "role",
          "type": "bytes32"
        },
        {
          "internalType": "address",
          "name": "account",
          "type": "address"
        }
      ],
      "name": "hasRole",
      "outputs": [
        {
          "internalType": "bool",
          "name": "",
          "type": "bool"
        }
      ],
      "stateMutability": "view",
      "type": "function"
    },
    {
      "inputs": [
        {
          "internalType": "address",
          "name": "_assetVault",
          "type": "address"
        },
        {
          "internalType": "address",
          "name": "_stakingVault",
          "type": "address"
        },
        {
          "internalType": "address",
          "name": "_nuvaVault",
          "type": "address"
        },
        {
          "internalType": "address",
          "name": "_amlSigner",
          "type": "address"
        },
        {
          "internalType": "address",
          "name": "_initialOwner",
          "type": "address"
        }
      ],
      "name": "initialize",
      "outputs": [],
      "stateMutability": "nonpayable",
      "type": "function"
    },
    {
      "inputs": [],
      "name": "nuvaAsset",
      "outputs": [
        {
          "internalType": "contract IERC20",
          "name": "",
          "type": "address"
        }
      ],
      "stateMutability": "view",
      "type": "function"
    },
    {
      "inputs": [],
      "name": "nuvaVault",
      "outputs": [
        {
          "internalType": "contract IERC4626",
          "name": "",
          "type": "address"
        }
      ],
      "stateMutability": "view",
      "type": "function"
    },
    {
      "inputs": [],
      "name": "owner",
      "outputs": [
        {
          "internalType": "address",
          "name": "",
          "type": "address"
        }
      ],
      "stateMutability": "view",
      "type": "function"
    },
    {
      "inputs": [],
      "name": "pendingOwner",
      "outputs": [
        {
          "internalType": "address",
          "name": "",
          "type": "address"
        }
      ],
      "stateMutability": "view",
      "type": "function"
    },
    {
      "inputs": [],
      "name": "proxiableUUID",
      "outputs": [
        {
          "internalType": "bytes32",
          "name": "",
          "type": "bytes32"
        }
      ],
      "stateMutability": "view",
      "type": "function"
    },
    {
      "inputs": [],
      "name": "redemptionProxyImplementation",
      "outputs": [
        {
          "internalType": "address",
          "name": "",
          "type": "address"
        }
      ],
      "stateMutability": "view",
      "type": "function"
    },
    {
      "inputs": [
        {
          "internalType": "address",
          "name": "",
          "type": "address"
        }
      ],
      "name": "redemptionProxyToUser",
      "outputs": [
        {
          "internalType": "address",
          "name": "",
          "type": "address"
        }
      ],
      "stateMutability": "view",
      "type": "function"
    },
    {
      "inputs": [],
      "name": "renounceOwnership",
      "outputs": [],
      "stateMutability": "nonpayable",
      "type": "function"
    },
    {
      "inputs": [
        {
          "internalType": "bytes32",
          "name": "role",
          "type": "bytes32"
        },
        {
          "internalType": "address",
          "name": "callerConfirmation",
          "type": "address"
        }
      ],
      "name": "renounceRole",
      "outputs": [],
      "stateMutability": "nonpayable",
      "type": "function"
    },
    {
      "inputs": [
        {
          "internalType": "uint256",
          "name": "_amountNuvaShares",
          "type": "uint256"
        },
        {
          "internalType": "bytes",
          "name": "_amlSignature",
          "type": "bytes"
        },
        {
          "internalType": "uint256",
          "name": "_amlDeadline",
          "type": "uint256"
        }
      ],
      "name": "requestRedeem",
      "outputs": [],
      "stateMutability": "nonpayable",
      "type": "function"
    },
    {
      "inputs": [
        {
          "internalType": "uint256",
          "name": "_amountNuvaShares",
          "type": "uint256"
        },
        {
          "internalType": "bytes",
          "name": "_amlSignature",
          "type": "bytes"
        },
        {
          "internalType": "uint256",
          "name": "_amlDeadline",
          "type": "uint256"
        },
        {
          "internalType": "uint256",
          "name": "_permitDeadline",
          "type": "uint256"
        },
        {
          "internalType": "uint8",
          "name": "_v",
          "type": "uint8"
        },
        {
          "internalType": "bytes32",
          "name": "_r",
          "type": "bytes32"
        },
        {
          "internalType": "bytes32",
          "name": "_s",
          "type": "bytes32"
        }
      ],
      "name": "requestRedeemWithPermit",
      "outputs": [],
      "stateMutability": "nonpayable",
      "type": "function"
    },
    {
      "inputs": [
        {
          "internalType": "bytes32",
          "name": "role",
          "type": "bytes32"
        },
        {
          "internalType": "address",
          "name": "account",
          "type": "address"
        }
      ],
      "name": "revokeRole",
      "outputs": [],
      "stateMutability": "nonpayable",
      "type": "function"
    },
    {
      "inputs": [
        {
          "internalType": "address",
          "name": "_newAmlSigner",
          "type": "address"
        }
      ],
      "name": "setAmlSigner",
      "outputs": [],
      "stateMutability": "nonpayable",
      "type": "function"
    },
    {
      "inputs": [
        {
          "internalType": "address",
          "name": "_newImplementation",
          "type": "address"
        }
      ],
      "name": "setRedemptionProxyImplementation",
      "outputs": [],
      "stateMutability": "nonpayable",
      "type": "function"
    },
    {
      "inputs": [],
      "name": "stakingAsset",
      "outputs": [
        {
          "internalType": "contract IERC20",
          "name": "",
          "type": "address"
        }
      ],
      "stateMutability": "view",
      "type": "function"
    },
    {
      "inputs": [],
      "name": "stakingVault",
      "outputs": [
        {
          "internalType": "contract IERC4626",
          "name": "",
          "type": "address"
        }
      ],
      "stateMutability": "view",
      "type": "function"
    },
    {
      "inputs": [
        {
          "internalType": "bytes4",
          "name": "interfaceId",
          "type": "bytes4"
        }
      ],
      "name": "supportsInterface",
      "outputs": [
        {
          "internalType": "bool",
          "name": "",
          "type": "bool"
        }
      ],
      "stateMutability": "view",
      "type": "function"
    },
    {
      "inputs": [
        {
          "internalType": "address[]",
          "name": "_proxyAddresses",
          "type": "address[]"
        },
        {
          "internalType": "uint256[]",
          "name": "_amounts",
          "type": "uint256[]"
        }
      ],
      "name": "sweepRedemptions",
      "outputs": [],
      "stateMutability": "nonpayable",
      "type": "function"
    },
    {
      "inputs": [
        {
          "internalType": "address",
          "name": "newOwner",
          "type": "address"
        }
      ],
      "name": "transferOwnership",
      "outputs": [],
      "stateMutability": "nonpayable",
      "type": "function"
    },
    {
      "inputs": [
        {
          "internalType": "address",
          "name": "newImplementation",
          "type": "address"
        },
        {
          "internalType": "bytes",
          "name": "data",
          "type": "bytes"
        }
      ],
      "name": "upgradeToAndCall",
      "outputs": [],
      "stateMutability": "payable",
      "type": "function"
    },
    {
      "inputs": [
        {
          "internalType": "bytes32",
          "name": "",
          "type": "bytes32"
        }
      ],
      "name": "usedSignatures",
      "outputs": [
        {
          "internalType": "bool",
          "name": "",
          "type": "bool"
        }
      ],
      "stateMutability": "view",
      "type": "function"
    }
  ],
  "bytecode": "0x60a080604052346100ea57306080527ff0c57e16840df040f15088dc2f81fe391c3923bec73e23a9662efc9c229c6a005460ff8160401c166100d9576002600160401b03196001600160401b03821601610073575b60405161281890816100f08239608051818181610b6d0152610c130152f35b6001600160401b0319166001600160401b039081177ff0c57e16840df040f15088dc2f81fe391c3923bec73e23a9662efc9c229c6a005581527fc7f505b2f371ae2175ee4913f4499e1f2633a7b5936321eed1cdaeb6115181d290602090a13880610054565b63f92ee8a960e01b60005260046000fd5b600080fdfe6080604052600436101561001257600080fd5b6000803560e01c80628e6a65146113bc57806301ffc9a7146113655780631459457a14610f7b578063248a9ca314610f5457806324e7964a14610f2b5780632f2ff15d14610ef95780633180bab614610ed0578063364bc15a14610ea757806336568abe14610e6257806338d52e0f14610e39578063404c540b14610de35780634f1ef28614610bc257806352d1902d14610b5a5780635907256814610b195780636147da5614610af0578063632a826314610ac75780636da50e3314610a44578063715018a6146109c35780637776768f1461099a57806379ba5097146109495780638da5cb5b1461091357806391d14854146108bd578063a217fddf146108a1578063ad3cb1cc14610827578063b1d134351461072b578063be5afe161461061c578063bf7bd6e2146103a0578063d547741f14610365578063dace1a8d1461033c578063e30c397814610306578063f2fde38b1461027e578063f30a8db4146101ea578063f61ebc36146101c35763f978fd611461019257600080fd5b346101c05760203660031901126101c05760ff60406020926004358152600984522054166040519015158152f35b80fd5b50346101c057806003193601126101c057546040516001600160a01b039091168152602090f35b50346101c05760e03660031901126101c05760043561020761145a565b60443590606435926084359460a4359067ffffffffffffffff82116101c0576020610264888888888861025f6102403660048c01611470565b60c4359161024c6118f7565b61025a838a8a8a8a8a611e0d565b611985565b611e7c565b60016000805160206127ac83398151915255604051908152f35b50346101c05760203660031901126101c05761029861143f565b6102a06115c0565b6000805160206127ec83398151915280546001600160a01b0319166001600160a01b0392831690811790915560008051602061272c833981519152549091167f38d16b8cac22d99fc7c124b9cd0de2d3fa1faef420bfe791d8c362d765e227008380a380f35b50346101c057806003193601126101c0576000805160206127ec833981519152546040516001600160a01b039091168152602090f35b50346101c057806003193601126101c0576004546040516001600160a01b039091168152602090f35b50346101c05760403660031901126101c05761039c60043561038561145a565b9061039761039282611579565b61180d565b611857565b5080f35b50346101c05760403660031901126101c05760043567ffffffffffffffff8111610618576103d2903690600401611529565b9060243567ffffffffffffffff8111610614576103f3903690600401611529565b60008051602061274c833981519152855260008051602061278c83398151915260209081526040808720336000908152925290205460ff16156105ef576007546001600160a01b0316156105e0578084036105d1578491855b8581106104d357505050604051928060408501604086525260608401929085905b8082106104a557867fb9406f44634c6228db9e8d145e4f5159e884b069bd28d9763e76817e2110ed968780888860208301520390a180f35b90919384359060018060a01b0382168092036104cf5760208160019382935201950192019061046d565b8780fd5b6104de81878761159a565b356001600160a01b03811694908590036104cf576104fd82858561159a565b858952600860205260408920549035906001600160a01b0316156105c6576040519063aa60e73360e01b825260048201526020816024818c8a5af19081156105bb578991610588575b5081018091116105745793875260086020526040872080546001600160a01b03191690556001905b0161044c565b634e487b7160e01b88526011600452602488fd5b905060203d81116105b4575b61059e818361149e565b602082600092810103126101c057505138610546565b503d610594565b6040513d8b823e3d90fd5b50935060019061056e565b63512509d360e11b8552600485fd5b63c291c21760e01b8552600485fd5b63e2517d3f60e01b85523360045260008051602061274c833981519152602452604485fd5b8380fd5b5080fd5b50346101c0576101603660031901126101c05760043561063a61145a565b60443590606435926084359460a43567ffffffffffffffff811161061857610666903690600401611470565b60c43590610104359260ff84168403610727579061069592916106876118f7565b61025a838c8c8c8c8c611e0d565b6001546001600160a01b031690813b156107235760405163d505accf60e01b81523360048201523060248201526044810185905260e48035606483015260ff9290921660848201526101243560a48201526101443560c48201529183918391829084905af161070e575b60206102648888888888611e7c565b61071982809261149e565b6101c057806106ff565b8280fd5b8480fd5b50346101c05760e03660031901126101c0576004358160243567ffffffffffffffff811161061857610761903690600401611470565b906044356084359260ff84168403610727576107899261077f6118f7565b61025a8388611933565b6004546001600160a01b031690813b156107235760405163d505accf60e01b815233600482015230602482015260448101859052606480359082015260ff91909116608482015260a480359082015260c48035908201529190829060e490829084905af1610811575b506107fc90611ade565b60016000805160206127ac8339815191525580f35b91610820816107fc939461149e565b91906107f2565b50346101c057806003193601126101c0576040805191610847828461149e565b60058352640352e302e360dc1b6020840152815192839160208352815191826020850152815b83811061088a575050828201840152601f01601f19168101030190f35b60208282018101518883018801528795500161086d565b50346101c057806003193601126101c057602090604051908152f35b50346101c05760403660031901126101c05760ff60406020926108de61145a565b600435825260008051602061278c83398151915285528282206001600160a01b03909116825284522054604051911615158152f35b50346101c057806003193601126101c05760008051602061272c833981519152546040516001600160a01b039091168152602090f35b50346101c057806003193601126101c0576000805160206127ec83398151915254336001600160a01b03909116036109875761098433611d9f565b80f35b63118cdaa760e01b815233600452602490fd5b50346101c057806003193601126101c0576003546040516001600160a01b039091168152602090f35b50346101c057806003193601126101c0576109dc6115c0565b6000805160206127ec83398151915280546001600160a01b031990811690915560008051602061272c8339815191528054918216905581906001600160a01b03167f8be0079c531659141344cd1fd0a4f28419497f9722a3daafe3b4186f6b6457e08280a380f35b50346101c05760203660031901126101c057610a5e61143f565b610a666115c0565b6001600160a01b03168015610ab857600754816001600160a01b0382167fd1eea419b2c4a2e74ab6fe1d5e7ea7027d4f646f83efbdd0cb293813187fb6468580a36001600160a01b0319161760075580f35b63c291c21760e01b8252600482fd5b50346101c057806003193601126101c0576005546040516001600160a01b039091168152602090f35b50346101c057806003193601126101c0576006546040516001600160a01b039091168152602090f35b50346101c05760203660031901126101c0576020906001600160a01b03610b3e61143f565b16815260088252604060018060a01b0391205416604051908152f35b50346101c057806003193601126101c0577f00000000000000000000000000000000000000000000000000000000000000006001600160a01b03163003610bb357602060405160008051602061276c8339815191528152f35b63703e46dd60e11b8152600490fd5b5060403660031901126101c057610bd761143f565b9060243567ffffffffffffffff8111610618573660238201121561061857610c099036906024816004013591016114f2565b6001600160a01b037f000000000000000000000000000000000000000000000000000000000000000016308114908115610dc0575b50610db157610c4b6115c0565b6040516352d1902d60e01b8152926001600160a01b0381169190602085600481865afa80958596610d7d575b50610c9057634c9c8ce360e01b84526004839052602484fd5b90918460008051602061276c8339815191528103610d6b5750813b15610d595760008051602061276c83398151915280546001600160a01b031916821790557fbc7cd75a20ee27fd9adebab32041f755214dbc6bffa90cc0225b39da2e5c2d3b8480a28151839015610d3f578083602061039c95519101845af43d15610d37573d91610d1b836114d6565b92610d29604051948561149e565b83523d85602085013e6126ca565b6060916126ca565b50505034610d4a5780f35b63b398979f60e01b8152600490fd5b634c9c8ce360e01b8452600452602483fd5b632a87526960e21b8552600452602484fd5b9095506020813d602011610da9575b81610d996020938361149e565b8101031261072757519438610c77565b3d9150610d8c565b63703e46dd60e11b8252600482fd5b60008051602061276c833981519152546001600160a01b03161415905038610c3e565b50346101c05760603660031901126101c05760243560043567ffffffffffffffff821161072357610e34610e1e6107fc933690600401611470565b60443591610e2a6118f7565b61025a8386611933565b611ade565b50346101c057806003193601126101c0576001546040516001600160a01b039091168152602090f35b50346101c05760403660031901126101c057610e7c61145a565b336001600160a01b03821603610e985761039c90600435611857565b63334bd91960e11b8252600482fd5b50346101c057806003193601126101c057602060405160008051602061274c8339815191528152f35b50346101c057806003193601126101c0576007546040516001600160a01b039091168152602090f35b50346101c05760403660031901126101c05761039c600435610f1961145a565b90610f2661039282611579565b611764565b50346101c057806003193601126101c0576002546040516001600160a01b039091168152602090f35b50346101c05760203660031901126101c0576020610f73600435611579565b604051908152f35b50346101c05760a03660031901126101c057610f9561143f565b610f9d61145a565b6044356001600160a01b03811690819003610614576064356001600160a01b0381169290839003610727576084356001600160a01b0381169490858103611361576000805160206127cc833981519152549560ff8760401c16159667ffffffffffffffff811680159081611359575b600114908161134f575b159081611346575b506113375767ffffffffffffffff1981166001176000805160206127cc833981519152558761130a575b506110516123f5565b156112f657806110636110a492611d9f565b61106b6123f5565b6110736123f5565b61107b6123f5565b6110836123f5565b60016000805160206127ac8339815191525561109e816115f6565b506116a8565b506001600160a01b0316801580156112e5575b80156112dd575b6112ce5783156112bf5785546001600160a01b031916811786556040516338d52e0f60e01b815290602090829060049082905afa9182156112b4576004926020928891611297575b50600180546001600160a01b039283166001600160a01b03199182161790915560028054939092169216821790556040516338d52e0f60e01b815292839182905afa91821561128c57600492602092879161126f575b50600380546001600160a01b03929092166001600160a01b0319928316179055835416811783556040516338d52e0f60e01b815292839182905afa908115611264578491611235575b5060018060a01b03166001600160601b0360a01b60055416176005556001600160601b0360a01b60065416176006556111db5780f35b68ff0000000000000000196000805160206127cc83398151915254166000805160206127cc833981519152557fc7f505b2f371ae2175ee4913f4499e1f2633a7b5936321eed1cdaeb6115181d2602060405160018152a180f35b611257915060203d60201161125d575b61124f818361149e565b81019061155a565b386111a5565b503d611245565b6040513d86823e3d90fd5b6112869150833d851161125d5761124f818361149e565b3861115c565b6040513d87823e3d90fd5b6112ae9150833d851161125d5761124f818361149e565b38611106565b6040513d88823e3d90fd5b63d1cc738560e01b8652600486fd5b630681d31960e51b8652600486fd5b5082156110be565b506001600160a01b038216156110b7565b631e4fbdf760e01b87526004879052602487fd5b68ffffffffffffffffff191668010000000000000001176000805160206127cc8339815191525538611048565b63f92ee8a960e01b8952600489fd5b9050153861101e565b303b159150611016565b89915061100c565b8680fd5b50346101c05760203660031901126101c05760043563ffffffff60e01b811680910361061857602090637965db0b60e01b81149081156113ab575b506040519015158152f35b6301ffc9a760e01b149050826113a0565b50346101c05760203660031901126101c0576113d661143f565b6113de6115c0565b6001600160a01b0316801561143057600654816001600160a01b0382167f7f7b46c0c664af2835dffe8b8e5c1ddbfcef63f608af5bbf2836a2b29a88fcb08580a36001600160a01b0319161760065580f35b63d1cc738560e01b8252600482fd5b600435906001600160a01b038216820361145557565b600080fd5b602435906001600160a01b038216820361145557565b9181601f840112156114555782359167ffffffffffffffff8311611455576020838186019501011161145557565b90601f8019910116810190811067ffffffffffffffff8211176114c057604052565b634e487b7160e01b600052604160045260246000fd5b67ffffffffffffffff81116114c057601f01601f191660200190565b9291926114fe826114d6565b9161150c604051938461149e565b829481845281830111611455578281602093846000960137010152565b9181601f840112156114555782359167ffffffffffffffff8311611455576020808501948460051b01011161145557565b9081602091031261145557516001600160a01b03811681036114555790565b60005260008051602061278c83398151915260205260016040600020015490565b91908110156115aa5760051b0190565b634e487b7160e01b600052603260045260246000fd5b60008051602061272c833981519152546001600160a01b031633036115e157565b63118cdaa760e01b6000523360045260246000fd5b6001600160a01b03811660009081527fb7db2dd08fcb62d0c9e08c51941cae53c267786a0b75803fb7960902fc8ef97d602052604090205460ff166116a2576001600160a01b031660008181527fb7db2dd08fcb62d0c9e08c51941cae53c267786a0b75803fb7960902fc8ef97d60205260408120805460ff191660011790553391907f2f8788117e7eff1d82e926ec794901d17c78024a50270940304540a733656f0d8180a4600190565b50600090565b6001600160a01b03811660009081527fe4a823086f56383dde6966cefd1253771599ebb2bfb3e60c37e64b5a68896bea602052604090205460ff166116a2576001600160a01b031660008181527fe4a823086f56383dde6966cefd1253771599ebb2bfb3e60c37e64b5a68896bea60205260408120805460ff1916600117905533919060008051602061274c833981519152907f2f8788117e7eff1d82e926ec794901d17c78024a50270940304540a733656f0d9080a4600190565b600081815260008051602061278c833981519152602090815260408083206001600160a01b038616845290915290205460ff1661180657600081815260008051602061278c833981519152602090815260408083206001600160a01b0395909516808452949091528120805460ff19166001179055339291907f2f8788117e7eff1d82e926ec794901d17c78024a50270940304540a733656f0d9080a4600190565b5050600090565b600081815260008051602061278c8339815191526020908152604080832033845290915290205460ff161561183f5750565b63e2517d3f60e01b6000523360045260245260446000fd5b600081815260008051602061278c833981519152602090815260408083206001600160a01b038616845290915290205460ff161561180657600081815260008051602061278c833981519152602090815260408083206001600160a01b0395909516808452949091528120805460ff19169055339291907ff6391f5c32d9c69d2a47ea670b442974b53935d1edc7fd64eb21e047a839171b9080a4600190565b60026000805160206127ac83398151915254146119225760026000805160206127ac83398151915255565b633ee5aeb560e01b60005260046000fd5b906040519060208201927f8c3fd90a5179bfe9a8bd7bd5e1e0704d65a303c0eb3ffaa19fca45db0728ca668452336040840152606083015260808201526080815261197f60a08261149e565b51902090565b9190924211611acd5781600052600960205260ff60406000205416611abc57611a75611a7e91611a6f60409560426014602089516119c38b8261149e565b82815201732232b234b1b0ba32b22b30bab63a2937baba32b960611b815220600160208a516119f28c8261149e565b82815201603160f81b81522089519060208201927f8b73c3c69bb8fe3d512ecc4cf759cc79239f7b179b0ffacaa9a75d522b39400f84528b83015260608201524660808201523060a082015260a08152611a4d60c08261149e565b51902088519061190160f01b82526002820152876022820152209236916114f2565b90612522565b9092919261255e565b6006546001600160a01b03908116911603611aab576000526009602052600020600160ff19825416179055565b638bb79cad60e01b60005260046000fd5b63e544c62f60e01b60005260046000fd5b63288a076f60e21b60005260046000fd5b60045460246020600092604051928380926370a0823160e01b825230600483015260018060a01b03165afa908115611d94578291611d62575b506007546001600160a01b03811615611d5357608881901c62ffffff16763d602d80600a3d3981f3363d3d373d3d3d363d7300000017835260781b6effffffffffffffffffffffffffffff19166e5af43d82803e903d91602b57fd5bf3176020526037600983f06001600160a01b03811693908415611d445783546002546004546001600160a01b03928316929081169116873b156113615760405192637c643b2f60e11b84526004840152602483015260448201523360648201528481608481838a5af1801561128c57611d2c575b5081611c1491611c0382303360018060a01b0360045416612423565b6004546001600160a01b031661246e565b833b15610723576040519062d16aad60e01b82526004820152828160248183885af18015611d0c57908391611d17575b50506024602060018060a01b0360045416604051928380926370a0823160e01b82523060048301525afa908115611d0c578391611cda575b5011611cc657818152600860205260408120336001600160601b0360a01b8254161790557e45309ccbff29fb81c8c5fc824405446ca8ac332fd6ae375251ba54005c1fef339180a3565b63eac1efd960e01b81526001600452602490fd5b90506020813d602011611d04575b81611cf56020938361149e565b81010312611455575138611c7c565b3d9150611ce8565b6040513d85823e3d90fd5b81611d219161149e565b610618578138611c44565b84611d3c611c149396859361149e565b949150611be7565b63b06ebf3d60e01b8452600484fd5b63c291c21760e01b8352600483fd5b90506020813d602011611d8c575b81611d7d6020938361149e565b81010312610618575138611b17565b3d9150611d70565b6040513d84823e3d90fd5b6000805160206127ec83398151915280546001600160a01b031990811690915560008051602061272c83398151915280549182166001600160a01b0393841690811790915591167f8be0079c531659141344cd1fd0a4f28419497f9722a3daafe3b4186f6b6457e0600080a3565b94929093916040519460208601967f825e4a0c6c1347448cb0506a6696bb6a0812431f15c82ace3f8cd1ed0da3829e8852336040880152606087015260018060a01b0316608086015260a085015260c084015260e0830152610100820152610100815261197f6101208261149e565b6001546040516370a0823160e01b8152306004820152959695929493926001600160a01b0390911690602081602481855afa8015612204576000906123c2575b6003546040516370a0823160e01b81523060048201529250602090839060249082906001600160a01b03165afa9182156122045760009261238e575b506005546040516370a0823160e01b815230600482015290602090829060249082906001600160a01b03165afa938415612204578591600095612355575b5090611f459130903390612423565b600154600054611f639186916001600160a01b03908116911661246e565b60008054604051636e553f6560e01b815260048101879052306024820152969160209188916044918391906001600160a01b03165af195861561220457600096612321575b5080861061221057506001546040516370a0823160e01b815230600482015290602090829060249082906001600160a01b03165afa908115612204576000916122ef575b50116122d9576003546002546120109186916001600160a01b03908116911661246e565b600254604051636e553f6560e01b8152600481018690523060248201529590602090879060449082906000906001600160a01b03165af1958615612204576000966122a5575b5080861061221057506003546040516370a0823160e01b815230600482015290602090829060249082906001600160a01b03165afa90811561220457600091612273575b501161225d57600554600454600096602092612103926120c89189916001600160a01b03908116911661246e565b60048054604051636e553f6560e01b81529182018990526001600160a01b039283166024830152909889939190921691839182906044820190565b03925af194851561220457600095612229575b50849680861061221057506005546040516370a0823160e01b815230600482015290602090829060249082906001600160a01b03165afa908115612204576000916121d2575b50116121bc576040518381528460208201527fe3b53cd1a44fbf11535e145d80b8ef1ed6d57a73bf5daa7e939b6b01657d654960403392a4337f25ce8023f13f06ca0d767e94c9b8af89bb3acb2ccb35720e79a7fa12cacdc0ae600080a4565b63eac1efd960e01b600052600360045260246000fd5b90506020813d6020116121fc575b816121ed6020938361149e565b8101031261145557513861215c565b3d91506121e0565b6040513d6000823e3d90fd5b85906371c4efed60e01b60005260045260245260446000fd5b90946020823d602011612255575b816122446020938361149e565b810103126101c05750519338612116565b3d9150612237565b63eac1efd960e01b600052600260045260246000fd5b90506020813d60201161229d575b8161228e6020938361149e565b8101031261145557513861209a565b3d9150612281565b90956020823d6020116122d1575b816122c06020938361149e565b810103126101c05750519438612056565b3d91506122b3565b63eac1efd960e01b600052600160045260246000fd5b90506020813d602011612319575b8161230a6020938361149e565b81010312611455575138611fec565b3d91506122fd565b90956020823d60201161234d575b8161233c6020938361149e565b810103126101c05750519438611fa8565b3d915061232f565b915093506020813d602011612386575b816123726020938361149e565b810103126114555751928490611f45611f36565b3d9150612365565b9091506020813d6020116123ba575b816123aa6020938361149e565b8101031261145557519038611ef8565b3d915061239d565b506020813d6020116123ed575b816123dc6020938361149e565b810103126114555760249051611ebc565b3d91506123cf565b60ff6000805160206127cc8339815191525460401c161561241257565b631afcd79f60e31b60005260046000fd5b6040516323b872dd60e01b60208201526001600160a01b03928316602482015292909116604483015260648083019390935291815261246c9161246760848361149e565b6125e6565b565b60206000604051938285019063095ea7b360e01b825260018060a01b0316958660248701526044860152604485526124a760648661149e565b84519082855af16000513d826124fd575b5050156124c457505050565b61246761246c936040519063095ea7b360e01b6020830152602482015260006044820152604481526124f760648261149e565b826125e6565b90915061251a57506001600160a01b0381163b15155b38806124b8565b600114612513565b81519190604183036125535761254c92506020820151906060604084015193015160001a90612641565b9192909190565b505060009160029190565b91909160048110156125d0578061257457509050565b60006001820361258f5763f645eedf60e01b60005260046000fd5b50600281036125ad578263fce698f760e01b60005260045260246000fd5b90916003600092146125bd575050565b6335e2f38360e21b825260045260249150fd5b634e487b7160e01b600052602160045260246000fd5b906000602091828151910182855af115612204576000513d61263857506001600160a01b0381163b155b6126175750565b635274afe760e01b60009081526001600160a01b0391909116600452602490fd5b60011415612610565b91907f7fffffffffffffffffffffffffffffff5d576e7357a4501ddfe92f46681b20a084116126be579160209360809260ff60009560405194855216868401526040830152606082015282805260015afa15612204576000516001600160a01b038116156126b25790600090600090565b50600090600190600090565b50505060009160039190565b906126f057508051156126df57602081519101fd5b63d6bda27560e01b60005260046000fd5b81511580612722575b612701575090565b639996b31560e01b60009081526001600160a01b0391909116600452602490fd5b50803b156126f956fe9016d09d72d40fdae2fd8ceac6b6234c7706214fd39c1cd1e609a0528c199300fc8737ab85eb45125971625a9ebdb75cc78e01d5c1fa80c4c6e5203f47bc4fab360894a13ba1a3210667c828492db98dca3e2076cc3735a920a3ca505d382bbc02dd7bc7dec4dceedda775e58dd541e08a116c6c53815c0bd028192f7b6268009b779b17422d0df92223018b32b4d1fa46e071723d6817e2486d003becc55f00f0c57e16840df040f15088dc2f81fe391c3923bec73e23a9662efc9c229c6a00237e158222e3e6968b72b9db0d8043aacf074ad9f650f0d1606b4d82ee432c00a164736f6c634300081c000a",
  "linkReferences": {},
  "deployedLinkReferences": {}
}