{
  "_format": "hh-sol-artifact-1",
  "contractName": "DedicatedVaultRouter",
  "sourceName": "contracts/prime/DedicatedVaultRouter.sol",
  "abi": [
    {
      "inputs": [],
      "stateMutability": "nonpayable",
      "type": "constructor"
    },
    {
      "inputs": [
        {
          "internalType": "address",
          "name": "target",
          "type": "address"
        }
      ],
      "name": "AddressEmptyCode",
      "type": "error"
    },
    {
      "inputs": [],
      "name": "AmlSignatureAlreadyUsed",
      "type": "error"
    },
    {
      "inputs": [],
      "name": "AmlSignatureExpired",
      "type": "error"
    },
    {
      "inputs": [],
      "name": "ECDSAInvalidSignature",
      "type": "error"
    },
    {
      "inputs": [
        {
          "internalType": "uint256",
          "name": "length",
          "type": "uint256"
        }
      ],
      "name": "ECDSAInvalidSignatureLength",
      "type": "error"
    },
    {
      "inputs": [
        {
          "internalType": "bytes32",
          "name": "s",
          "type": "bytes32"
        }
      ],
      "name": "ECDSAInvalidSignatureS",
      "type": "error"
    },
    {
      "inputs": [
        {
          "internalType": "address",
          "name": "implementation",
          "type": "address"
        }
      ],
      "name": "ERC1967InvalidImplementation",
      "type": "error"
    },
    {
      "inputs": [],
      "name": "ERC1967NonPayable",
      "type": "error"
    },
    {
      "inputs": [],
      "name": "FailedCall",
      "type": "error"
    },
    {
      "inputs": [],
      "name": "FailedDeployment",
      "type": "error"
    },
    {
      "inputs": [
        {
          "internalType": "uint256",
          "name": "amount",
          "type": "uint256"
        }
      ],
      "name": "FundsStuck",
      "type": "error"
    },
    {
      "inputs": [
        {
          "internalType": "uint256",
          "name": "balance",
          "type": "uint256"
        },
        {
          "internalType": "uint256",
          "name": "needed",
          "type": "uint256"
        }
      ],
      "name": "InsufficientBalance",
      "type": "error"
    },
    {
      "inputs": [],
      "name": "InvalidAmlSignature",
      "type": "error"
    },
    {
      "inputs": [],
      "name": "InvalidAmlSigner",
      "type": "error"
    },
    {
      "inputs": [],
      "name": "InvalidInitialization",
      "type": "error"
    },
    {
      "inputs": [],
      "name": "InvalidRedemptionProxyImplementation",
      "type": "error"
    },
    {
      "inputs": [],
      "name": "InvalidVault",
      "type": "error"
    },
    {
      "inputs": [],
      "name": "NotInitializing",
      "type": "error"
    },
    {
      "inputs": [
        {
          "internalType": "address",
          "name": "owner",
          "type": "address"
        }
      ],
      "name": "OwnableInvalidOwner",
      "type": "error"
    },
    {
      "inputs": [
        {
          "internalType": "address",
          "name": "account",
          "type": "address"
        }
      ],
      "name": "OwnableUnauthorizedAccount",
      "type": "error"
    },
    {
      "inputs": [],
      "name": "RedemptionAlreadyPending",
      "type": "error"
    },
    {
      "inputs": [],
      "name": "ReentrancyGuardReentrantCall",
      "type": "error"
    },
    {
      "inputs": [
        {
          "internalType": "address",
          "name": "token",
          "type": "address"
        }
      ],
      "name": "SafeERC20FailedOperation",
      "type": "error"
    },
    {
      "inputs": [
        {
          "internalType": "uint256",
          "name": "minShares",
          "type": "uint256"
        },
        {
          "internalType": "uint256",
          "name": "actualShares",
          "type": "uint256"
        }
      ],
      "name": "SlippageExceeded",
      "type": "error"
    },
    {
      "inputs": [],
      "name": "UUPSUnauthorizedCallContext",
      "type": "error"
    },
    {
      "inputs": [
        {
          "internalType": "bytes32",
          "name": "slot",
          "type": "bytes32"
        }
      ],
      "name": "UUPSUnsupportedProxiableUUID",
      "type": "error"
    },
    {
      "anonymous": false,
      "inputs": [
        {
          "indexed": true,
          "internalType": "address",
          "name": "oldSigner",
          "type": "address"
        },
        {
          "indexed": true,
          "internalType": "address",
          "name": "newSigner",
          "type": "address"
        }
      ],
      "name": "AmlSignerUpdated",
      "type": "event"
    },
    {
      "anonymous": false,
      "inputs": [
        {
          "indexed": true,
          "internalType": "address",
          "name": "user",
          "type": "address"
        },
        {
          "indexed": false,
          "internalType": "uint256",
          "name": "assets",
          "type": "uint256"
        },
        {
          "indexed": false,
          "internalType": "uint256",
          "name": "shares",
          "type": "uint256"
        },
        {
          "indexed": false,
          "internalType": "uint256",
          "name": "stakingShares",
          "type": "uint256"
        },
        {
          "indexed": false,
          "internalType": "uint256",
          "name": "nuvaShares",
          "type": "uint256"
        }
      ],
      "name": "Deposited",
      "type": "event"
    },
    {
      "anonymous": false,
      "inputs": [
        {
          "indexed": false,
          "internalType": "uint64",
          "name": "version",
          "type": "uint64"
        }
      ],
      "name": "Initialized",
      "type": "event"
    },
    {
      "anonymous": false,
      "inputs": [
        {
          "indexed": true,
          "internalType": "address",
          "name": "user",
          "type": "address"
        },
        {
          "indexed": false,
          "internalType": "uint256",
          "name": "stakingShares",
          "type": "uint256"
        },
        {
          "indexed": false,
          "internalType": "uint256",
          "name": "nuvaShares",
          "type": "uint256"
        }
      ],
      "name": "NuvaDeposited",
      "type": "event"
    },
    {
      "anonymous": false,
      "inputs": [
        {
          "indexed": true,
          "internalType": "address",
          "name": "previousOwner",
          "type": "address"
        },
        {
          "indexed": true,
          "internalType": "address",
          "name": "newOwner",
          "type": "address"
        }
      ],
      "name": "OwnershipTransferStarted",
      "type": "event"
    },
    {
      "anonymous": false,
      "inputs": [
        {
          "indexed": true,
          "internalType": "address",
          "name": "previousOwner",
          "type": "address"
        },
        {
          "indexed": true,
          "internalType": "address",
          "name": "newOwner",
          "type": "address"
        }
      ],
      "name": "OwnershipTransferred",
      "type": "event"
    },
    {
      "anonymous": false,
      "inputs": [
        {
          "indexed": true,
          "internalType": "address",
          "name": "oldImplementation",
          "type": "address"
        },
        {
          "indexed": true,
          "internalType": "address",
          "name": "newImplementation",
          "type": "address"
        }
      ],
      "name": "RedemptionProxyImplementationUpdated",
      "type": "event"
    },
    {
      "anonymous": false,
      "inputs": [
        {
          "indexed": true,
          "internalType": "address",
          "name": "user",
          "type": "address"
        },
        {
          "indexed": true,
          "internalType": "address",
          "name": "redemptionProxy",
          "type": "address"
        }
      ],
      "name": "RedemptionRequested",
      "type": "event"
    },
    {
      "anonymous": false,
      "inputs": [
        {
          "indexed": false,
          "internalType": "address[]",
          "name": "users",
          "type": "address[]"
        },
        {
          "indexed": false,
          "internalType": "uint256",
          "name": "totalSweptAmount",
          "type": "uint256"
        }
      ],
      "name": "RedemptionsSwept",
      "type": "event"
    },
    {
      "anonymous": false,
      "inputs": [
        {
          "indexed": true,
          "internalType": "address",
          "name": "implementation",
          "type": "address"
        }
      ],
      "name": "Upgraded",
      "type": "event"
    },
    {
      "inputs": [],
      "name": "UPGRADE_INTERFACE_VERSION",
      "outputs": [
        {
          "internalType": "string",
          "name": "",
          "type": "string"
        }
      ],
      "stateMutability": "view",
      "type": "function"
    },
    {
      "inputs": [],
      "name": "acceptOwnership",
      "outputs": [],
      "stateMutability": "nonpayable",
      "type": "function"
    },
    {
      "inputs": [],
      "name": "amlSigner",
      "outputs": [
        {
          "internalType": "address",
          "name": "",
          "type": "address"
        }
      ],
      "stateMutability": "view",
      "type": "function"
    },
    {
      "inputs": [],
      "name": "asset",
      "outputs": [
        {
          "internalType": "contract IERC20",
          "name": "",
          "type": "address"
        }
      ],
      "stateMutability": "view",
      "type": "function"
    },
    {
      "inputs": [],
      "name": "assetVault",
      "outputs": [
        {
          "internalType": "contract IERC4626",
          "name": "",
          "type": "address"
        }
      ],
      "stateMutability": "view",
      "type": "function"
    },
    {
      "inputs": [
        {
          "internalType": "uint256",
          "name": "_amount",
          "type": "uint256"
        },
        {
          "internalType": "address",
          "name": "_receiver",
          "type": "address"
        },
        {
          "internalType": "uint256",
          "name": "_minVaultSharesOut",
          "type": "uint256"
        },
        {
          "internalType": "uint256",
          "name": "_minStakingVaultSharesOut",
          "type": "uint256"
        },
        {
          "internalType": "uint256",
          "name": "_minNuvaVaultSharesOut",
          "type": "uint256"
        },
        {
          "internalType": "bytes",
          "name": "_amlSignature",
          "type": "bytes"
        },
        {
          "internalType": "uint256",
          "name": "_amlDeadline",
          "type": "uint256"
        }
      ],
      "name": "deposit",
      "outputs": [
        {
          "internalType": "uint256",
          "name": "",
          "type": "uint256"
        }
      ],
      "stateMutability": "nonpayable",
      "type": "function"
    },
    {
      "inputs": [
        {
          "internalType": "uint256",
          "name": "_amount",
          "type": "uint256"
        },
        {
          "internalType": "address",
          "name": "_receiver",
          "type": "address"
        },
        {
          "internalType": "uint256",
          "name": "_minVaultSharesOut",
          "type": "uint256"
        },
        {
          "internalType": "uint256",
          "name": "_minStakingVaultSharesOut",
          "type": "uint256"
        },
        {
          "internalType": "uint256",
          "name": "_minNuvaVaultSharesOut",
          "type": "uint256"
        },
        {
          "internalType": "bytes",
          "name": "_amlSignature",
          "type": "bytes"
        },
        {
          "internalType": "uint256",
          "name": "_amlDeadline",
          "type": "uint256"
        },
        {
          "internalType": "uint256",
          "name": "_permitDeadline",
          "type": "uint256"
        },
        {
          "internalType": "uint8",
          "name": "_v",
          "type": "uint8"
        },
        {
          "internalType": "bytes32",
          "name": "_r",
          "type": "bytes32"
        },
        {
          "internalType": "bytes32",
          "name": "_s",
          "type": "bytes32"
        }
      ],
      "name": "depositWithPermit",
      "outputs": [
        {
          "internalType": "uint256",
          "name": "",
          "type": "uint256"
        }
      ],
      "stateMutability": "nonpayable",
      "type": "function"
    },
    {
      "inputs": [
        {
          "internalType": "address",
          "name": "_assetVault",
          "type": "address"
        },
        {
          "internalType": "address",
          "name": "_stakingVault",
          "type": "address"
        },
        {
          "internalType": "address",
          "name": "_nuvaVault",
          "type": "address"
        },
        {
          "internalType": "address",
          "name": "_amlSigner",
          "type": "address"
        },
        {
          "internalType": "address",
          "name": "_initialOwner",
          "type": "address"
        }
      ],
      "name": "initialize",
      "outputs": [],
      "stateMutability": "nonpayable",
      "type": "function"
    },
    {
      "inputs": [],
      "name": "nuvaAsset",
      "outputs": [
        {
          "internalType": "contract IERC20",
          "name": "",
          "type": "address"
        }
      ],
      "stateMutability": "view",
      "type": "function"
    },
    {
      "inputs": [],
      "name": "nuvaVault",
      "outputs": [
        {
          "internalType": "contract IERC4626",
          "name": "",
          "type": "address"
        }
      ],
      "stateMutability": "view",
      "type": "function"
    },
    {
      "inputs": [],
      "name": "owner",
      "outputs": [
        {
          "internalType": "address",
          "name": "",
          "type": "address"
        }
      ],
      "stateMutability": "view",
      "type": "function"
    },
    {
      "inputs": [],
      "name": "pendingOwner",
      "outputs": [
        {
          "internalType": "address",
          "name": "",
          "type": "address"
        }
      ],
      "stateMutability": "view",
      "type": "function"
    },
    {
      "inputs": [],
      "name": "proxiableUUID",
      "outputs": [
        {
          "internalType": "bytes32",
          "name": "",
          "type": "bytes32"
        }
      ],
      "stateMutability": "view",
      "type": "function"
    },
    {
      "inputs": [],
      "name": "redemptionProxyImplementation",
      "outputs": [
        {
          "internalType": "address",
          "name": "",
          "type": "address"
        }
      ],
      "stateMutability": "view",
      "type": "function"
    },
    {
      "inputs": [
        {
          "internalType": "address",
          "name": "",
          "type": "address"
        }
      ],
      "name": "redemptionProxyToUser",
      "outputs": [
        {
          "internalType": "address",
          "name": "",
          "type": "address"
        }
      ],
      "stateMutability": "view",
      "type": "function"
    },
    {
      "inputs": [],
      "name": "renounceOwnership",
      "outputs": [],
      "stateMutability": "nonpayable",
      "type": "function"
    },
    {
      "inputs": [
        {
          "internalType": "uint256",
          "name": "_amountNuvaShares",
          "type": "uint256"
        }
      ],
      "name": "requestRedeem",
      "outputs": [],
      "stateMutability": "nonpayable",
      "type": "function"
    },
    {
      "inputs": [
        {
          "internalType": "address",
          "name": "_newAmlSigner",
          "type": "address"
        }
      ],
      "name": "setAmlSigner",
      "outputs": [],
      "stateMutability": "nonpayable",
      "type": "function"
    },
    {
      "inputs": [
        {
          "internalType": "address",
          "name": "_newImplementation",
          "type": "address"
        }
      ],
      "name": "setRedemptionProxyImplementation",
      "outputs": [],
      "stateMutability": "nonpayable",
      "type": "function"
    },
    {
      "inputs": [],
      "name": "stakingAsset",
      "outputs": [
        {
          "internalType": "contract IERC20",
          "name": "",
          "type": "address"
        }
      ],
      "stateMutability": "view",
      "type": "function"
    },
    {
      "inputs": [],
      "name": "stakingVault",
      "outputs": [
        {
          "internalType": "contract IERC4626",
          "name": "",
          "type": "address"
        }
      ],
      "stateMutability": "view",
      "type": "function"
    },
    {
      "inputs": [
        {
          "internalType": "address[]",
          "name": "_proxyAddresses",
          "type": "address[]"
        }
      ],
      "name": "sweepRedemptions",
      "outputs": [],
      "stateMutability": "nonpayable",
      "type": "function"
    },
    {
      "inputs": [
        {
          "internalType": "address",
          "name": "newOwner",
          "type": "address"
        }
      ],
      "name": "transferOwnership",
      "outputs": [],
      "stateMutability": "nonpayable",
      "type": "function"
    },
    {
      "inputs": [
        {
          "internalType": "address",
          "name": "newImplementation",
          "type": "address"
        },
        {
          "internalType": "bytes",
          "name": "data",
          "type": "bytes"
        }
      ],
      "name": "upgradeToAndCall",
      "outputs": [],
      "stateMutability": "payable",
      "type": "function"
    },
    {
      "inputs": [
        {
          "internalType": "bytes32",
          "name": "",
          "type": "bytes32"
        }
      ],
      "name": "usedSignatures",
      "outputs": [
        {
          "internalType": "bool",
          "name": "",
          "type": "bool"
        }
      ],
      "stateMutability": "view",
      "type": "function"
    }
  ],
  "bytecode": "0x60a080604052346100ea57306080527ff0c57e16840df040f15088dc2f81fe391c3923bec73e23a9662efc9c229c6a005460ff8160401c166100d9576002600160401b03196001600160401b03821601610073575b60405161205490816100f082396080518181816109f30152610a990152f35b6001600160401b0319166001600160401b039081177ff0c57e16840df040f15088dc2f81fe391c3923bec73e23a9662efc9c229c6a005581527fc7f505b2f371ae2175ee4913f4499e1f2633a7b5936321eed1cdaeb6115181d290602090a13880610054565b63f92ee8a960e01b60005260046000fd5b600080fdfe6080604052600436101561001257600080fd5b6000803560e01c80628e6a651461129a5780631459457a14610ee257806324e7964a14610eb95780633180bab614610e9057806338d52e0f14610e675780634b26469514610c6d5780634f1ef28614610a4857806352d1902d146109e0578063590725681461099f5780636147da5614610976578063632a82631461094d5780636da50e33146108ca578063715018a6146108495780637776768f1461082057806379ba5097146107cf5780638da5cb5b14610799578063aa2f892d14610489578063ad3cb1cc1461040f578063be5afe1614610302578063dace1a8d146102d9578063e30c3978146102a3578063f2fde38b1461021b578063f30a8db414610187578063f61ebc36146101605763f978fd611461012f57600080fd5b3461015d57602036600319011261015d5760ff60406020926004358152600984522054166040519015158152f35b80fd5b503461015d578060031936011261015d57546040516001600160a01b039091168152602090f35b503461015d5760e036600319011261015d576004356101a4611333565b60443590606435926084359460a4359067ffffffffffffffff821161015d57602061020188888888886101fc6101dd3660048c016113d4565b60c435916101e96114c5565b6101f7838a8a8a8a8a611600565b611675565b6117ce565b6001600080516020611fe883398151915255604051908152f35b503461015d57602036600319011261015d5761023561131d565b61023d611421565b60008051602061202883398151915280546001600160a01b0319166001600160a01b03928316908117909155600080516020611fa8833981519152549091167f38d16b8cac22d99fc7c124b9cd0de2d3fa1faef420bfe791d8c362d765e227008380a380f35b503461015d578060031936011261015d57600080516020612028833981519152546040516001600160a01b039091168152602090f35b503461015d578060031936011261015d576004546040516001600160a01b039091168152602090f35b503461015d5761016036600319011261015d57600435610320611333565b60443590606435926084359460a43567ffffffffffffffff811161040b5761034c9036906004016113d4565b60c43590610104359260ff8416809403610407579061037c929161036e6114c5565b6101f7838c8c8c8c8c611600565b6001546001600160a01b031690813b1561040357829160e48392604051948593849263d505accf60e01b84523360048501523060248501528960448501528435606485015260848401526101243560a48401526101443560c48401525af16103ee575b602061020188888888886117ce565b6103f9828092611349565b61015d57806103df565b8280fd5b8480fd5b5080fd5b503461015d578060031936011261015d57604080519161042f8284611349565b60058352640352e302e360dc1b6020840152815192839160208352815191826020850152815b838110610472575050828201840152601f01601f19168101030190f35b602082820181015188830188015287955001610455565b503461015d57602036600319011261015d576004356104a66114c5565b6024602060018060a01b0360045416604051928380926370a0823160e01b82523060048301525afa90811561078e57839161075c575b506007546001600160a01b0381161561074d57608881901c62ffffff16763d602d80600a3d3981f3363d3d373d3d3d363d7300000017845260781b6effffffffffffffffffffffffffffff19166e5af43d82803e903d91602b57fd5bf3176020526037600984f06001600160a01b0381169290831561073e5784546002546004546001600160a01b03928316929081169116863b1561073a5760405192637c643b2f60e11b8452600484015260248301526044820152336064820152858160848183895af1801561072f57610713575b50906105db8186936105ca82303360018060a01b0360045416611501565b6004546001600160a01b031661154c565b833b1561040b576040519062d16aad60e01b82526004820152818160248183885af18015610708576106f3575b50506024602060018060a01b0360045416604051928380926370a0823160e01b82523060048301525afa9081156106e85784916106b1575b501161069d57808252600860205260408220336001600160601b0360a01b825416179055337e45309ccbff29fb81c8c5fc824405446ca8ac332fd6ae375251ba54005c1fef8380a36001600080516020611fe88339815191525580f35b63eac1efd960e01b82526001600452602482fd5b90506020813d6020116106e0575b816106cc60209383611349565b810103126106db575138610640565b600080fd5b3d91506106bf565b6040513d86823e3d90fd5b816106fd91611349565b610403578238610608565b6040513d84823e3d90fd5b8561072584976105db93959495611349565b95509190916105ac565b6040513d88823e3d90fd5b8780fd5b63b06ebf3d60e01b8552600485fd5b63c291c21760e01b8452600484fd5b90506020813d602011610786575b8161077760209383611349565b810103126104035751386104dc565b3d915061076a565b6040513d85823e3d90fd5b503461015d578060031936011261015d57600080516020611fa8833981519152546040516001600160a01b039091168152602090f35b503461015d578060031936011261015d5760008051602061202883398151915254336001600160a01b039091160361080d5761080a33611457565b80f35b63118cdaa760e01b815233600452602490fd5b503461015d578060031936011261015d576003546040516001600160a01b039091168152602090f35b503461015d578060031936011261015d57610862611421565b60008051602061202883398151915280546001600160a01b0319908116909155600080516020611fa88339815191528054918216905581906001600160a01b03167f8be0079c531659141344cd1fd0a4f28419497f9722a3daafe3b4186f6b6457e08280a380f35b503461015d57602036600319011261015d576108e461131d565b6108ec611421565b6001600160a01b0316801561093e57600754816001600160a01b0382167fd1eea419b2c4a2e74ab6fe1d5e7ea7027d4f646f83efbdd0cb293813187fb6468580a36001600160a01b0319161760075580f35b63c291c21760e01b8252600482fd5b503461015d578060031936011261015d576005546040516001600160a01b039091168152602090f35b503461015d578060031936011261015d576006546040516001600160a01b039091168152602090f35b503461015d57602036600319011261015d576020906001600160a01b036109c461131d565b16815260088252604060018060a01b0391205416604051908152f35b503461015d578060031936011261015d577f00000000000000000000000000000000000000000000000000000000000000006001600160a01b03163003610a39576020604051600080516020611fc88339815191528152f35b63703e46dd60e11b8152600490fd5b50604036600319011261015d57610a5d61131d565b9060243567ffffffffffffffff811161040b573660238201121561040b57610a8f90369060248160040135910161139d565b6001600160a01b037f000000000000000000000000000000000000000000000000000000000000000016308114908115610c4a575b50610c3b57610ad1611421565b6040516352d1902d60e01b8152926001600160a01b0381169190602085600481865afa80958596610c07575b50610b1657634c9c8ce360e01b84526004839052602484fd5b909184600080516020611fc88339815191528103610bf55750813b15610be357600080516020611fc883398151915280546001600160a01b031916821790557fbc7cd75a20ee27fd9adebab32041f755214dbc6bffa90cc0225b39da2e5c2d3b8480a28151839015610bc95780836020610bbd95519101845af43d15610bc1573d91610ba183611381565b92610baf6040519485611349565b83523d85602085013e611ebd565b5080f35b606091611ebd565b50505034610bd45780f35b63b398979f60e01b8152600490fd5b634c9c8ce360e01b8452600452602483fd5b632a87526960e21b8552600452602484fd5b9095506020813d602011610c33575b81610c2360209383611349565b8101031261040757519438610afd565b3d9150610c16565b63703e46dd60e11b8252600482fd5b600080516020611fc8833981519152546001600160a01b03161415905038610ac4565b503461015d57602036600319011261015d5760043567ffffffffffffffff811161040b573660238201121561040b5780600401359067ffffffffffffffff8211610403573660248360051b8301011161040357610cc8611421565b6007546001600160a01b031615610e58578290835b83811015610dda576024600582901b830101356001600160a01b0381169390849003610dd657838652600860205260408620546001600160a01b031615610dcc5760405163aa60e73360e01b8152600481018790526020816024818a895af1908115610dc1578791610d8c575b508101809111610d785792855260086020526040852080546001600160a01b03191690556001905b01610cdd565b634e487b7160e01b86526011600452602486fd5b90506020813d8211610db9575b81610da660209383611349565b81010312610db5575138610d4a565b8680fd5b3d9150610d99565b6040513d89823e3d90fd5b9250600190610d72565b8580fd5b5090604051928060408501604086525260246060850193019085905b808210610e2e57867fb9406f44634c6228db9e8d145e4f5159e884b069bd28d9763e76817e2110ed968780888860208301520390a180f35b90919384359060018060a01b03821680920361073a57602081600193829352019501920190610df6565b63c291c21760e01b8352600483fd5b503461015d578060031936011261015d576001546040516001600160a01b039091168152602090f35b503461015d578060031936011261015d576007546040516001600160a01b039091168152602090f35b503461015d578060031936011261015d576002546040516001600160a01b039091168152602090f35b503461015d5760a036600319011261015d57610efc61131d565b610f04611333565b6044356001600160a01b03811690819003611296576064356001600160a01b0381169290839003610407576084356001600160a01b0381169490858103610db557600080516020612008833981519152549560ff8760401c16159667ffffffffffffffff81168015908161128e575b6001149081611284575b15908161127b575b5061126c5767ffffffffffffffff198116600117600080516020612008833981519152558761123f575b50610fb8611d70565b610fc0611d70565b1561122b57610fce90611457565b610fd6611d70565b610fde611d70565b6001600080516020611fe8833981519152556001600160a01b03168015801561121a575b8015611212575b6112035783156111f45785546001600160a01b031916811786556040516338d52e0f60e01b815290602090829060049082905afa91821561072f5760049260209288916111d7575b50600180546001600160a01b039283166001600160a01b03199182161790915560028054939092169216821790556040516338d52e0f60e01b815292839182905afa9182156111cc5760049260209287916111af575b50600380546001600160a01b03929092166001600160a01b0319928316179055835416811783556040516338d52e0f60e01b815292839182905afa9081156106e8578491611180575b5060018060a01b03166001600160601b0360a01b60055416176005556001600160601b0360a01b60065416176006556111265780f35b68ff0000000000000000196000805160206120088339815191525416600080516020612008833981519152557fc7f505b2f371ae2175ee4913f4499e1f2633a7b5936321eed1cdaeb6115181d2602060405160018152a180f35b6111a2915060203d6020116111a8575b61119a8183611349565b810190611402565b386110f0565b503d611190565b6111c69150833d85116111a85761119a8183611349565b386110a7565b6040513d87823e3d90fd5b6111ee9150833d85116111a85761119a8183611349565b38611051565b63d1cc738560e01b8652600486fd5b630681d31960e51b8652600486fd5b508215611009565b506001600160a01b03821615611002565b631e4fbdf760e01b87526004879052602487fd5b68ffffffffffffffffff191668010000000000000001176000805160206120088339815191525538610faf565b63f92ee8a960e01b8952600489fd5b90501538610f85565b303b159150610f7d565b899150610f73565b8380fd5b503461015d57602036600319011261015d576112b461131d565b6112bc611421565b6001600160a01b0316801561130e57600654816001600160a01b0382167f7f7b46c0c664af2835dffe8b8e5c1ddbfcef63f608af5bbf2836a2b29a88fcb08580a36001600160a01b0319161760065580f35b63d1cc738560e01b8252600482fd5b600435906001600160a01b03821682036106db57565b602435906001600160a01b03821682036106db57565b90601f8019910116810190811067ffffffffffffffff82111761136b57604052565b634e487b7160e01b600052604160045260246000fd5b67ffffffffffffffff811161136b57601f01601f191660200190565b9291926113a982611381565b916113b76040519384611349565b8294818452818301116106db578281602093846000960137010152565b9181601f840112156106db5782359167ffffffffffffffff83116106db57602083818601950101116106db57565b908160209103126106db57516001600160a01b03811681036106db5790565b600080516020611fa8833981519152546001600160a01b0316330361144257565b63118cdaa760e01b6000523360045260246000fd5b60008051602061202883398151915280546001600160a01b0319908116909155600080516020611fa883398151915280549182166001600160a01b0393841690811790915591167f8be0079c531659141344cd1fd0a4f28419497f9722a3daafe3b4186f6b6457e0600080a3565b6002600080516020611fe883398151915254146114f0576002600080516020611fe883398151915255565b633ee5aeb560e01b60005260046000fd5b6040516323b872dd60e01b60208201526001600160a01b03928316602482015292909116604483015260648083019390935291815261154a91611545608483611349565b611d9e565b565b60206000604051938285019063095ea7b360e01b825260018060a01b031695866024870152604486015260448552611585606486611349565b84519082855af16000513d826115db575b5050156115a257505050565b61154561154a936040519063095ea7b360e01b6020830152602482015260006044820152604481526115d5606482611349565b82611d9e565b9091506115f857506001600160a01b0381163b15155b3880611596565b6001146115f1565b94929093916040519460208601967f825e4a0c6c1347448cb0506a6696bb6a0812431f15c82ace3f8cd1ed0da3829e8852336040880152606087015260018060a01b0316608086015260a085015260c084015260e0830152610100820152610100815261166f61012082611349565b51902090565b91909242116117bd5781600052600960205260ff604060002054166117ac5761176561176e9161175f60409560426014602089516116b38b82611349565b82815201732232b234b1b0ba32b22b30bab63a2937baba32b960611b815220600160208a516116e28c82611349565b82815201603160f81b81522089519060208201927f8b73c3c69bb8fe3d512ecc4cf759cc79239f7b179b0ffacaa9a75d522b39400f84528b83015260608201524660808201523060a082015260a0815261173d60c082611349565b51902088519061190160f01b825260028201528760228201522092369161139d565b90611df9565b90929192611e35565b6006546001600160a01b0390811691160361179b576000526009602052600020600160ff19825416179055565b638bb79cad60e01b60005260046000fd5b63e544c62f60e01b60005260046000fd5b63288a076f60e21b60005260046000fd5b909194939460018060a01b03600154166040516370a0823160e01b8152306004820152602081602481855afa8015611b6657600090611d3d575b6003546040516370a0823160e01b81523060048201529250602090839060249082906001600160a01b03165afa918215611b6657600092611d09575b506005546040516370a0823160e01b815230600482015290602090829060249082906001600160a01b03165afa938415611b66578691600095611cd0575b50906118919130903390611501565b6001546000546118af9187916001600160a01b03908116911661154c565b60008054604051636e553f6560e01b815260048101889052306024820152959160209187916044918391906001600160a01b03165af1948515611b6657600095611c9c575b50808510611b7257506001546040516370a0823160e01b815230600482015290602090829060249082906001600160a01b03165afa908115611b6657600091611c6a575b5011611c545760035460025461195c9185916001600160a01b03908116911661154c565b600254604051636e553f6560e01b8152600481018590523060248201529690602090889060449082906000906001600160a01b03165af1968715611b6657600097611c20575b50808710611c0757506003546040516370a0823160e01b815230600482015290602090829060249082906001600160a01b03165afa908115611b6657600091611bd5575b5011611bbf57600554600454600095602092611a4f92611a14918a916001600160a01b03908116911661154c565b60048054604051636e553f6560e01b81529182018a90526001600160a01b039283166024830152909788939190921691839182906044820190565b03925af1938415611b6657600094611b8b575b508396808510611b7257506005546040516370a0823160e01b815230600482015290602090829060249082906001600160a01b03165afa908115611b6657600091611b34575b5011611b1e5760405191825260208201528260408201528160608201527fe3b53cd1a44fbf11535e145d80b8ef1ed6d57a73bf5daa7e939b6b01657d654960803392a260405191825260208201527f25ce8023f13f06ca0d767e94c9b8af89bb3acb2ccb35720e79a7fa12cacdc0ae60403392a2565b63eac1efd960e01b600052600360045260246000fd5b90506020813d602011611b5e575b81611b4f60209383611349565b810103126106db575138611aa8565b3d9150611b42565b6040513d6000823e3d90fd5b84906371c4efed60e01b60005260045260245260446000fd5b90936020823d602011611bb7575b81611ba660209383611349565b8101031261015d5750519238611a62565b3d9150611b99565b63eac1efd960e01b600052600260045260246000fd5b90506020813d602011611bff575b81611bf060209383611349565b810103126106db5751386119e6565b3d9150611be3565b86906371c4efed60e01b60005260045260245260446000fd5b90966020823d602011611c4c575b81611c3b60209383611349565b8101031261015d57505195386119a2565b3d9150611c2e565b63eac1efd960e01b600052600160045260246000fd5b90506020813d602011611c94575b81611c8560209383611349565b810103126106db575138611938565b3d9150611c78565b90946020823d602011611cc8575b81611cb760209383611349565b8101031261015d57505193386118f4565b3d9150611caa565b915093506020813d602011611d01575b81611ced60209383611349565b810103126106db5751928590611891611882565b3d9150611ce0565b9091506020813d602011611d35575b81611d2560209383611349565b810103126106db57519038611844565b3d9150611d18565b506020813d602011611d68575b81611d5760209383611349565b810103126106db5760249051611808565b3d9150611d4a565b60ff6000805160206120088339815191525460401c1615611d8d57565b631afcd79f60e31b60005260046000fd5b906000602091828151910182855af115611b66576000513d611df057506001600160a01b0381163b155b611dcf5750565b635274afe760e01b60009081526001600160a01b0391909116600452602490fd5b60011415611dc8565b8151919060418303611e2a57611e2392506020820151906060604084015193015160001a90611f1e565b9192909190565b505060009160029190565b9190916004811015611ea75780611e4b57509050565b600060018203611e665763f645eedf60e01b60005260046000fd5b5060028103611e84578263fce698f760e01b60005260045260246000fd5b9091600360009214611e94575050565b6335e2f38360e21b825260045260249150fd5b634e487b7160e01b600052602160045260246000fd5b90611ee35750805115611ed257602081519101fd5b63d6bda27560e01b60005260046000fd5b81511580611f15575b611ef4575090565b639996b31560e01b60009081526001600160a01b0391909116600452602490fd5b50803b15611eec565b91907f7fffffffffffffffffffffffffffffff5d576e7357a4501ddfe92f46681b20a08411611f9b579160209360809260ff60009560405194855216868401526040830152606082015282805260015afa15611b66576000516001600160a01b03811615611f8f5790600090600090565b50600090600190600090565b5050506000916003919056fe9016d09d72d40fdae2fd8ceac6b6234c7706214fd39c1cd1e609a0528c199300360894a13ba1a3210667c828492db98dca3e2076cc3735a920a3ca505d382bbc9b779b17422d0df92223018b32b4d1fa46e071723d6817e2486d003becc55f00f0c57e16840df040f15088dc2f81fe391c3923bec73e23a9662efc9c229c6a00237e158222e3e6968b72b9db0d8043aacf074ad9f650f0d1606b4d82ee432c00a164736f6c634300081c000a",
  "linkReferences": {},
  "deployedLinkReferences": {}
}