{
  "_format": "hh-sol-artifact-1",
  "contractName": "DedicatedVaultRouter",
  "sourceName": "contracts/prime/DedicatedVaultRouter.sol",
  "abi": [
    {
      "inputs": [],
      "stateMutability": "nonpayable",
      "type": "constructor"
    },
    {
      "inputs": [
        {
          "internalType": "address",
          "name": "target",
          "type": "address"
        }
      ],
      "name": "AddressEmptyCode",
      "type": "error"
    },
    {
      "inputs": [],
      "name": "AmlSignatureAlreadyUsed",
      "type": "error"
    },
    {
      "inputs": [],
      "name": "AmlSignatureExpired",
      "type": "error"
    },
    {
      "inputs": [],
      "name": "ECDSAInvalidSignature",
      "type": "error"
    },
    {
      "inputs": [
        {
          "internalType": "uint256",
          "name": "length",
          "type": "uint256"
        }
      ],
      "name": "ECDSAInvalidSignatureLength",
      "type": "error"
    },
    {
      "inputs": [
        {
          "internalType": "bytes32",
          "name": "s",
          "type": "bytes32"
        }
      ],
      "name": "ECDSAInvalidSignatureS",
      "type": "error"
    },
    {
      "inputs": [
        {
          "internalType": "address",
          "name": "implementation",
          "type": "address"
        }
      ],
      "name": "ERC1967InvalidImplementation",
      "type": "error"
    },
    {
      "inputs": [],
      "name": "ERC1967NonPayable",
      "type": "error"
    },
    {
      "inputs": [],
      "name": "FailedCall",
      "type": "error"
    },
    {
      "inputs": [
        {
          "internalType": "uint256",
          "name": "amount",
          "type": "uint256"
        }
      ],
      "name": "FundsStuck",
      "type": "error"
    },
    {
      "inputs": [],
      "name": "InvalidAmlSignature",
      "type": "error"
    },
    {
      "inputs": [],
      "name": "InvalidAmlSigner",
      "type": "error"
    },
    {
      "inputs": [],
      "name": "InvalidInitialization",
      "type": "error"
    },
    {
      "inputs": [],
      "name": "InvalidVault",
      "type": "error"
    },
    {
      "inputs": [],
      "name": "NotInitializing",
      "type": "error"
    },
    {
      "inputs": [
        {
          "internalType": "address",
          "name": "owner",
          "type": "address"
        }
      ],
      "name": "OwnableInvalidOwner",
      "type": "error"
    },
    {
      "inputs": [
        {
          "internalType": "address",
          "name": "account",
          "type": "address"
        }
      ],
      "name": "OwnableUnauthorizedAccount",
      "type": "error"
    },
    {
      "inputs": [],
      "name": "ReentrancyGuardReentrantCall",
      "type": "error"
    },
    {
      "inputs": [
        {
          "internalType": "address",
          "name": "token",
          "type": "address"
        }
      ],
      "name": "SafeERC20FailedOperation",
      "type": "error"
    },
    {
      "inputs": [
        {
          "internalType": "uint256",
          "name": "minShares",
          "type": "uint256"
        },
        {
          "internalType": "uint256",
          "name": "actualShares",
          "type": "uint256"
        }
      ],
      "name": "SlippageExceeded",
      "type": "error"
    },
    {
      "inputs": [],
      "name": "UUPSUnauthorizedCallContext",
      "type": "error"
    },
    {
      "inputs": [
        {
          "internalType": "bytes32",
          "name": "slot",
          "type": "bytes32"
        }
      ],
      "name": "UUPSUnsupportedProxiableUUID",
      "type": "error"
    },
    {
      "anonymous": false,
      "inputs": [
        {
          "indexed": true,
          "internalType": "address",
          "name": "oldSigner",
          "type": "address"
        },
        {
          "indexed": true,
          "internalType": "address",
          "name": "newSigner",
          "type": "address"
        }
      ],
      "name": "AmlSignerUpdated",
      "type": "event"
    },
    {
      "anonymous": false,
      "inputs": [
        {
          "indexed": true,
          "internalType": "address",
          "name": "user",
          "type": "address"
        },
        {
          "indexed": false,
          "internalType": "uint256",
          "name": "assets",
          "type": "uint256"
        },
        {
          "indexed": false,
          "internalType": "uint256",
          "name": "shares",
          "type": "uint256"
        },
        {
          "indexed": false,
          "internalType": "uint256",
          "name": "stakingShares",
          "type": "uint256"
        }
      ],
      "name": "Deposited",
      "type": "event"
    },
    {
      "anonymous": false,
      "inputs": [
        {
          "indexed": false,
          "internalType": "uint64",
          "name": "version",
          "type": "uint64"
        }
      ],
      "name": "Initialized",
      "type": "event"
    },
    {
      "anonymous": false,
      "inputs": [
        {
          "indexed": true,
          "internalType": "address",
          "name": "previousOwner",
          "type": "address"
        },
        {
          "indexed": true,
          "internalType": "address",
          "name": "newOwner",
          "type": "address"
        }
      ],
      "name": "OwnershipTransferStarted",
      "type": "event"
    },
    {
      "anonymous": false,
      "inputs": [
        {
          "indexed": true,
          "internalType": "address",
          "name": "previousOwner",
          "type": "address"
        },
        {
          "indexed": true,
          "internalType": "address",
          "name": "newOwner",
          "type": "address"
        }
      ],
      "name": "OwnershipTransferred",
      "type": "event"
    },
    {
      "anonymous": false,
      "inputs": [
        {
          "indexed": true,
          "internalType": "address",
          "name": "implementation",
          "type": "address"
        }
      ],
      "name": "Upgraded",
      "type": "event"
    },
    {
      "inputs": [],
      "name": "UPGRADE_INTERFACE_VERSION",
      "outputs": [
        {
          "internalType": "string",
          "name": "",
          "type": "string"
        }
      ],
      "stateMutability": "view",
      "type": "function"
    },
    {
      "inputs": [],
      "name": "acceptOwnership",
      "outputs": [],
      "stateMutability": "nonpayable",
      "type": "function"
    },
    {
      "inputs": [],
      "name": "amlSigner",
      "outputs": [
        {
          "internalType": "address",
          "name": "",
          "type": "address"
        }
      ],
      "stateMutability": "view",
      "type": "function"
    },
    {
      "inputs": [],
      "name": "asset",
      "outputs": [
        {
          "internalType": "contract IERC20",
          "name": "",
          "type": "address"
        }
      ],
      "stateMutability": "view",
      "type": "function"
    },
    {
      "inputs": [],
      "name": "assetVault",
      "outputs": [
        {
          "internalType": "contract IERC4626",
          "name": "",
          "type": "address"
        }
      ],
      "stateMutability": "view",
      "type": "function"
    },
    {
      "inputs": [
        {
          "internalType": "uint256",
          "name": "_amount",
          "type": "uint256"
        },
        {
          "internalType": "address",
          "name": "_receiver",
          "type": "address"
        },
        {
          "internalType": "uint256",
          "name": "_minVaultSharesOut",
          "type": "uint256"
        },
        {
          "internalType": "uint256",
          "name": "_minStakingVaultSharesOut",
          "type": "uint256"
        },
        {
          "internalType": "bytes",
          "name": "_amlSignature",
          "type": "bytes"
        },
        {
          "internalType": "uint256",
          "name": "_amlDeadline",
          "type": "uint256"
        }
      ],
      "name": "deposit",
      "outputs": [
        {
          "internalType": "uint256",
          "name": "",
          "type": "uint256"
        }
      ],
      "stateMutability": "nonpayable",
      "type": "function"
    },
    {
      "inputs": [
        {
          "internalType": "uint256",
          "name": "_amount",
          "type": "uint256"
        },
        {
          "internalType": "address",
          "name": "_receiver",
          "type": "address"
        },
        {
          "internalType": "uint256",
          "name": "_minVaultSharesOut",
          "type": "uint256"
        },
        {
          "internalType": "uint256",
          "name": "_minStakingVaultSharesOut",
          "type": "uint256"
        },
        {
          "internalType": "bytes",
          "name": "_amlSignature",
          "type": "bytes"
        },
        {
          "internalType": "uint256",
          "name": "_amlDeadline",
          "type": "uint256"
        },
        {
          "internalType": "uint256",
          "name": "_permitDeadline",
          "type": "uint256"
        },
        {
          "internalType": "uint8",
          "name": "_v",
          "type": "uint8"
        },
        {
          "internalType": "bytes32",
          "name": "_r",
          "type": "bytes32"
        },
        {
          "internalType": "bytes32",
          "name": "_s",
          "type": "bytes32"
        }
      ],
      "name": "depositWithPermit",
      "outputs": [
        {
          "internalType": "uint256",
          "name": "",
          "type": "uint256"
        }
      ],
      "stateMutability": "nonpayable",
      "type": "function"
    },
    {
      "inputs": [
        {
          "internalType": "address",
          "name": "_assetVault",
          "type": "address"
        },
        {
          "internalType": "address",
          "name": "_stakingVault",
          "type": "address"
        },
        {
          "internalType": "address",
          "name": "_amlSigner",
          "type": "address"
        },
        {
          "internalType": "address",
          "name": "_initialOwner",
          "type": "address"
        }
      ],
      "name": "initialize",
      "outputs": [],
      "stateMutability": "nonpayable",
      "type": "function"
    },
    {
      "inputs": [],
      "name": "owner",
      "outputs": [
        {
          "internalType": "address",
          "name": "",
          "type": "address"
        }
      ],
      "stateMutability": "view",
      "type": "function"
    },
    {
      "inputs": [],
      "name": "pendingOwner",
      "outputs": [
        {
          "internalType": "address",
          "name": "",
          "type": "address"
        }
      ],
      "stateMutability": "view",
      "type": "function"
    },
    {
      "inputs": [],
      "name": "proxiableUUID",
      "outputs": [
        {
          "internalType": "bytes32",
          "name": "",
          "type": "bytes32"
        }
      ],
      "stateMutability": "view",
      "type": "function"
    },
    {
      "inputs": [],
      "name": "renounceOwnership",
      "outputs": [],
      "stateMutability": "nonpayable",
      "type": "function"
    },
    {
      "inputs": [
        {
          "internalType": "address",
          "name": "_newAmlSigner",
          "type": "address"
        }
      ],
      "name": "setAmlSigner",
      "outputs": [],
      "stateMutability": "nonpayable",
      "type": "function"
    },
    {
      "inputs": [],
      "name": "stakingAsset",
      "outputs": [
        {
          "internalType": "contract IERC20",
          "name": "",
          "type": "address"
        }
      ],
      "stateMutability": "view",
      "type": "function"
    },
    {
      "inputs": [],
      "name": "stakingVault",
      "outputs": [
        {
          "internalType": "contract IERC4626",
          "name": "",
          "type": "address"
        }
      ],
      "stateMutability": "view",
      "type": "function"
    },
    {
      "inputs": [
        {
          "internalType": "address",
          "name": "newOwner",
          "type": "address"
        }
      ],
      "name": "transferOwnership",
      "outputs": [],
      "stateMutability": "nonpayable",
      "type": "function"
    },
    {
      "inputs": [
        {
          "internalType": "address",
          "name": "newImplementation",
          "type": "address"
        },
        {
          "internalType": "bytes",
          "name": "data",
          "type": "bytes"
        }
      ],
      "name": "upgradeToAndCall",
      "outputs": [],
      "stateMutability": "payable",
      "type": "function"
    },
    {
      "inputs": [
        {
          "internalType": "bytes32",
          "name": "",
          "type": "bytes32"
        }
      ],
      "name": "usedSignatures",
      "outputs": [
        {
          "internalType": "bool",
          "name": "",
          "type": "bool"
        }
      ],
      "stateMutability": "view",
      "type": "function"
    }
  ],
  "bytecode": "0x60a080604052346100ea57306080527ff0c57e16840df040f15088dc2f81fe391c3923bec73e23a9662efc9c229c6a005460ff8160401c166100d9576002600160401b03196001600160401b03821601610073575b60405161171b90816100f082396080518181816108ad01526109530152f35b6001600160401b0319166001600160401b039081177ff0c57e16840df040f15088dc2f81fe391c3923bec73e23a9662efc9c229c6a005581527fc7f505b2f371ae2175ee4913f4499e1f2633a7b5936321eed1cdaeb6115181d290602090a13880610054565b63f92ee8a960e01b60005260046000fd5b600080fdfe6080604052600436101561001257600080fd5b6000803560e01c80628e6a6514610b8157806324e7964a14610b5857806338d52e0f14610b2f5780634f1ef2861461090257806352d1902d1461089a5780636147da5614610871578063715018a6146107f05780637776768f146107c757806379ba5097146107765780638da5cb5b14610740578063ad3cb1cc146106c6578063c55a574b14610657578063d1e43ae514610539578063e30c397814610503578063f2fde38b1461047b578063f61ebc3614610454578063f8c8765e146101135763f978fd61146100e257600080fd5b346101105760203660031901126101105760ff60406020926004358152600584522054166040519015158152f35b80fd5b50346101105760803660031901126101105761012d610c04565b610135610c1f565b6044356001600160a01b0381169190829003610450576064356001600160a01b038116939084810361044c576000805160206116cf833981519152549460ff8660401c16159567ffffffffffffffff811680159081610444575b600114908161043a575b159081610431575b506104225767ffffffffffffffff1981166001176000805160206116cf83398151915255866103f5575b506101d4611437565b6101dc611437565b156103e1576101ea90610d43565b6101f2611437565b6101fa611437565b60016000805160206116af833981519152556001600160a01b0316801580156103d0575b6103c15782156103b25784546001600160a01b031916811785556040516338d52e0f60e01b815290602090829060049082905afa9182156103a757600492602092879161038a575b50600180546001600160a01b039283166001600160a01b03199182161790915560028054939092169216821790556040516338d52e0f60e01b815292839182905afa90811561037f578491610350575b5060018060a01b03166bffffffffffffffffffffffff60a01b60035416176003556bffffffffffffffffffffffff60a01b60045416176004556102f65780f35b68ff0000000000000000196000805160206116cf83398151915254166000805160206116cf833981519152557fc7f505b2f371ae2175ee4913f4499e1f2633a7b5936321eed1cdaeb6115181d2602060405160018152a180f35b610372915060203d602011610378575b61036a8183610c35565b810190610cee565b386102b6565b503d610360565b6040513d86823e3d90fd5b6103a19150833d85116103785761036a8183610c35565b38610266565b6040513d87823e3d90fd5b63d1cc738560e01b8552600485fd5b630681d31960e51b8552600485fd5b506001600160a01b0382161561021e565b631e4fbdf760e01b86526004869052602486fd5b68ffffffffffffffffff191668010000000000000001176000805160206116cf83398151915255386101cb565b63f92ee8a960e01b8852600488fd5b905015386101a1565b303b159150610199565b88915061018f565b8580fd5b8380fd5b5034610110578060031936011261011057546040516001600160a01b039091168152602090f35b503461011057602036600319011261011057610495610c04565b61049d610d0d565b6000805160206116ef83398151915280546001600160a01b0319166001600160a01b0392831690811790915560008051602061166f833981519152549091167f38d16b8cac22d99fc7c124b9cd0de2d3fa1faef420bfe791d8c362d765e227008380a380f35b50346101105780600319360112610110576000805160206116ef833981519152546040516001600160a01b039091168152602090f35b50346101105761014036600319011261011057600435610557610c1f565b604435906064359260843567ffffffffffffffff811161044c5761057f903690600401610cc0565b9060a43560e4359260ff8416809403610653576105b09261059e610db1565b6105ab838a8a8a8a610ded565b610e5b565b6001546001600160a01b031690813b1561064f57958080610625979695949360e460209a604051948593849263d505accf60e01b845233600485015230602485015289604485015260c435606485015260848401526101043560a48401526101243560c48401525af161063f575b5050610fb4565b60016000805160206116af83398151915255604051908152f35b8161064991610c35565b3861061e565b8680fd5b8880fd5b50346101105760c036600319011261011057600435610674610c1f565b60443591606435936084359067ffffffffffffffff8211610110576020610625878787876106c16106a83660048b01610cc0565b60a435916106b4610db1565b6105ab8389898989610ded565b610fb4565b503461011057806003193601126101105760408051916106e68284610c35565b60058352640352e302e360dc1b6020840152815192839160208352815191826020850152815b838110610729575050828201840152601f01601f19168101030190f35b60208282018101518883018801528795500161070c565b503461011057806003193601126101105760008051602061166f833981519152546040516001600160a01b039091168152602090f35b50346101105780600319360112610110576000805160206116ef83398151915254336001600160a01b03909116036107b4576107b133610d43565b80f35b63118cdaa760e01b815233600452602490fd5b50346101105780600319360112610110576003546040516001600160a01b039091168152602090f35b5034610110578060031936011261011057610809610d0d565b6000805160206116ef83398151915280546001600160a01b031990811690915560008051602061166f8339815191528054918216905581906001600160a01b03167f8be0079c531659141344cd1fd0a4f28419497f9722a3daafe3b4186f6b6457e08280a380f35b50346101105780600319360112610110576004546040516001600160a01b039091168152602090f35b50346101105780600319360112610110577f00000000000000000000000000000000000000000000000000000000000000006001600160a01b031630036108f357602060405160008051602061168f8339815191528152f35b63703e46dd60e11b8152600490fd5b50604036600319011261011057610917610c04565b9060243567ffffffffffffffff8111610b2b5736602382011215610b2b57610949903690602481600401359101610c89565b6001600160a01b037f000000000000000000000000000000000000000000000000000000000000000016308114908115610b08575b50610af95761098b610d0d565b6040516352d1902d60e01b8152926001600160a01b0381169190602085600481865afa80958596610ac1575b506109d057634c9c8ce360e01b84526004839052602484fd5b90918460008051602061168f8339815191528103610aaf5750813b15610a9d5760008051602061168f83398151915280546001600160a01b031916821790557fbc7cd75a20ee27fd9adebab32041f755214dbc6bffa90cc0225b39da2e5c2d3b8480a28151839015610a835780836020610a7795519101845af43d15610a7b573d91610a5b83610c6d565b92610a696040519485610c35565b83523d85602085013e611584565b5080f35b606091611584565b50505034610a8e5780f35b63b398979f60e01b8152600490fd5b634c9c8ce360e01b8452600452602483fd5b632a87526960e21b8552600452602484fd5b9095506020813d602011610af1575b81610add60209383610c35565b81010312610aed575194386109b7565b8480fd5b3d9150610ad0565b63703e46dd60e11b8252600482fd5b60008051602061168f833981519152546001600160a01b0316141590503861097e565b5080fd5b50346101105780600319360112610110576001546040516001600160a01b039091168152602090f35b50346101105780600319360112610110576002546040516001600160a01b039091168152602090f35b503461011057602036600319011261011057610b9b610c04565b610ba3610d0d565b6001600160a01b03168015610bf557600454816001600160a01b0382167f7f7b46c0c664af2835dffe8b8e5c1ddbfcef63f608af5bbf2836a2b29a88fcb08580a36001600160a01b0319161760045580f35b63d1cc738560e01b8252600482fd5b600435906001600160a01b0382168203610c1a57565b600080fd5b602435906001600160a01b0382168203610c1a57565b90601f8019910116810190811067ffffffffffffffff821117610c5757604052565b634e487b7160e01b600052604160045260246000fd5b67ffffffffffffffff8111610c5757601f01601f191660200190565b929192610c9582610c6d565b91610ca36040519384610c35565b829481845281830111610c1a578281602093846000960137010152565b9181601f84011215610c1a5782359167ffffffffffffffff8311610c1a5760208381860195010111610c1a57565b90816020910312610c1a57516001600160a01b0381168103610c1a5790565b60008051602061166f833981519152546001600160a01b03163303610d2e57565b63118cdaa760e01b6000523360045260246000fd5b6000805160206116ef83398151915280546001600160a01b031990811690915560008051602061166f83398151915280549182166001600160a01b0393841690811790915591167f8be0079c531659141344cd1fd0a4f28419497f9722a3daafe3b4186f6b6457e0600080a3565b60026000805160206116af8339815191525414610ddc5760026000805160206116af83398151915255565b633ee5aeb560e01b60005260046000fd5b93919290926040519360208501957f6d85460f4c9c0630b443b43d75f64b294635e39a5af454c398ee526fa75d4d4f8752336040870152606086015260018060a01b0316608085015260a084015260c083015260e082015260e08152610e5561010082610c35565b51902090565b9190924211610fa35781600052600560205260ff60406000205416610f9257610f4b610f5491610f456040956042601460208951610e998b82610c35565b82815201732232b234b1b0ba32b22b30bab63a2937baba32b960611b815220600160208a51610ec88c82610c35565b82815201603160f81b81522089519060208201927f8b73c3c69bb8fe3d512ecc4cf759cc79239f7b179b0ffacaa9a75d522b39400f84528b83015260608201524660808201523060a082015260a08152610f2360c082610c35565b51902088519061190160f01b8252600282015287602282015220923691610c89565b90611465565b909291926114a1565b6004546001600160a01b03908116911603610f81576000526005602052600020600160ff19825416179055565b638bb79cad60e01b60005260046000fd5b63e544c62f60e01b60005260046000fd5b63288a076f60e21b60005260046000fd5b6001546040516370a0823160e01b8152306004820152949594919391906001600160a01b0316602082602481845afa9081156112575760009161134c575b6003546040516370a0823160e01b81523060048201529350602090849060249082906001600160a01b03165afa92831561125757600093611316575b506040516323b872dd60e01b60208201523360248201523060448201526064808201889052815261106991611064608483610c35565b611529565b6001546000546110879187916001600160a01b039081169116611381565b60008054604051636e553f6560e01b815260048101889052306024820152949160209186916044918391906001600160a01b03165af1938415611257576000946112e2575b5080841061126357506001546040516370a0823160e01b815230600482015290602090829060249082906001600160a01b03165afa908115611257576000916112b0575b501161120f576003546002546000946020926111789261113e9187916001600160a01b039081169116611381565b600254604051636e553f6560e01b8152600481018790526001600160a01b0392831660248201529687939190921691839182906044820190565b03925af19283156112575760009361127c575b50829580841061126357506003546040516370a0823160e01b815230600482015290602090829060249082906001600160a01b03165afa90811561125757600091611225575b501161120f57604051928352602083015260408201527f91ede45f04a37a7c170f5c1207df3b6bc748dc1e04ad5e917a241d0f52feada360603392a2565b63eac1efd960e01b600052600060045260246000fd5b90506020813d60201161124f575b8161124060209383610c35565b81010312610c1a5751386111d1565b3d9150611233565b6040513d6000823e3d90fd5b83906371c4efed60e01b60005260045260245260446000fd5b90926020823d6020116112a8575b8161129760209383610c35565b81010312610110575051913861118b565b3d915061128a565b90506020813d6020116112da575b816112cb60209383610c35565b81010312610c1a575138611110565b3d91506112be565b90936020823d60201161130e575b816112fd60209383610c35565b8101031261011057505192386110cc565b3d91506112f0565b9092506020813d602011611344575b8161133260209383610c35565b81010312610c1a57519161106961102e565b3d9150611325565b90506020823d602011611379575b8161136760209383610c35565b81010312610c1a576024915190610ff2565b3d915061135a565b60206000604051938285019063095ea7b360e01b825260018060a01b0316958660248701526044860152604485526113ba606486610c35565b84519082855af16000513d82611412575b5050156113d757505050565b611064611410936040519063095ea7b360e01b60208301526024820152600060448201526044815261140a606482610c35565b82611529565b565b90915061142f57506001600160a01b0381163b15155b38806113cb565b600114611428565b60ff6000805160206116cf8339815191525460401c161561145457565b631afcd79f60e31b60005260046000fd5b81519190604183036114965761148f92506020820151906060604084015193015160001a906115e5565b9192909190565b505060009160029190565b919091600481101561151357806114b757509050565b6000600182036114d25763f645eedf60e01b60005260046000fd5b50600281036114f0578263fce698f760e01b60005260045260246000fd5b9091600360009214611500575050565b6335e2f38360e21b825260045260249150fd5b634e487b7160e01b600052602160045260246000fd5b906000602091828151910182855af115611257576000513d61157b57506001600160a01b0381163b155b61155a5750565b635274afe760e01b60009081526001600160a01b0391909116600452602490fd5b60011415611553565b906115aa575080511561159957602081519101fd5b63d6bda27560e01b60005260046000fd5b815115806115dc575b6115bb575090565b639996b31560e01b60009081526001600160a01b0391909116600452602490fd5b50803b156115b3565b91907f7fffffffffffffffffffffffffffffff5d576e7357a4501ddfe92f46681b20a08411611662579160209360809260ff60009560405194855216868401526040830152606082015282805260015afa15611257576000516001600160a01b038116156116565790600090600090565b50600090600190600090565b5050506000916003919056fe9016d09d72d40fdae2fd8ceac6b6234c7706214fd39c1cd1e609a0528c199300360894a13ba1a3210667c828492db98dca3e2076cc3735a920a3ca505d382bbc9b779b17422d0df92223018b32b4d1fa46e071723d6817e2486d003becc55f00f0c57e16840df040f15088dc2f81fe391c3923bec73e23a9662efc9c229c6a00237e158222e3e6968b72b9db0d8043aacf074ad9f650f0d1606b4d82ee432c00a164736f6c634300081c000a",
  "linkReferences": {},
  "deployedLinkReferences": {}
}