{
  "_format": "hh-sol-artifact-1",
  "contractName": "DedicatedVaultRouter",
  "sourceName": "contracts/prime/DedicatedVaultRouter.sol",
  "abi": [
    {
      "inputs": [],
      "stateMutability": "nonpayable",
      "type": "constructor"
    },
    {
      "inputs": [
        {
          "internalType": "address",
          "name": "target",
          "type": "address"
        }
      ],
      "name": "AddressEmptyCode",
      "type": "error"
    },
    {
      "inputs": [],
      "name": "AmlSignatureAlreadyUsed",
      "type": "error"
    },
    {
      "inputs": [],
      "name": "AmlSignatureExpired",
      "type": "error"
    },
    {
      "inputs": [],
      "name": "ECDSAInvalidSignature",
      "type": "error"
    },
    {
      "inputs": [
        {
          "internalType": "uint256",
          "name": "length",
          "type": "uint256"
        }
      ],
      "name": "ECDSAInvalidSignatureLength",
      "type": "error"
    },
    {
      "inputs": [
        {
          "internalType": "bytes32",
          "name": "s",
          "type": "bytes32"
        }
      ],
      "name": "ECDSAInvalidSignatureS",
      "type": "error"
    },
    {
      "inputs": [
        {
          "internalType": "address",
          "name": "implementation",
          "type": "address"
        }
      ],
      "name": "ERC1967InvalidImplementation",
      "type": "error"
    },
    {
      "inputs": [],
      "name": "ERC1967NonPayable",
      "type": "error"
    },
    {
      "inputs": [],
      "name": "FailedCall",
      "type": "error"
    },
    {
      "inputs": [
        {
          "internalType": "uint256",
          "name": "amount",
          "type": "uint256"
        }
      ],
      "name": "FundsStuck",
      "type": "error"
    },
    {
      "inputs": [],
      "name": "InvalidAmlSignature",
      "type": "error"
    },
    {
      "inputs": [],
      "name": "InvalidAmlSigner",
      "type": "error"
    },
    {
      "inputs": [],
      "name": "InvalidInitialization",
      "type": "error"
    },
    {
      "inputs": [],
      "name": "InvalidVault",
      "type": "error"
    },
    {
      "inputs": [],
      "name": "NotInitializing",
      "type": "error"
    },
    {
      "inputs": [
        {
          "internalType": "address",
          "name": "owner",
          "type": "address"
        }
      ],
      "name": "OwnableInvalidOwner",
      "type": "error"
    },
    {
      "inputs": [
        {
          "internalType": "address",
          "name": "account",
          "type": "address"
        }
      ],
      "name": "OwnableUnauthorizedAccount",
      "type": "error"
    },
    {
      "inputs": [],
      "name": "ReentrancyGuardReentrantCall",
      "type": "error"
    },
    {
      "inputs": [
        {
          "internalType": "address",
          "name": "token",
          "type": "address"
        }
      ],
      "name": "SafeERC20FailedOperation",
      "type": "error"
    },
    {
      "inputs": [
        {
          "internalType": "uint256",
          "name": "minShares",
          "type": "uint256"
        },
        {
          "internalType": "uint256",
          "name": "actualShares",
          "type": "uint256"
        }
      ],
      "name": "SlippageExceeded",
      "type": "error"
    },
    {
      "inputs": [],
      "name": "UUPSUnauthorizedCallContext",
      "type": "error"
    },
    {
      "inputs": [
        {
          "internalType": "bytes32",
          "name": "slot",
          "type": "bytes32"
        }
      ],
      "name": "UUPSUnsupportedProxiableUUID",
      "type": "error"
    },
    {
      "anonymous": false,
      "inputs": [
        {
          "indexed": true,
          "internalType": "address",
          "name": "oldSigner",
          "type": "address"
        },
        {
          "indexed": true,
          "internalType": "address",
          "name": "newSigner",
          "type": "address"
        }
      ],
      "name": "AmlSignerUpdated",
      "type": "event"
    },
    {
      "anonymous": false,
      "inputs": [
        {
          "indexed": true,
          "internalType": "address",
          "name": "user",
          "type": "address"
        },
        {
          "indexed": false,
          "internalType": "uint256",
          "name": "assets",
          "type": "uint256"
        },
        {
          "indexed": false,
          "internalType": "uint256",
          "name": "shares",
          "type": "uint256"
        },
        {
          "indexed": false,
          "internalType": "uint256",
          "name": "stakingShares",
          "type": "uint256"
        },
        {
          "indexed": false,
          "internalType": "uint256",
          "name": "nuvaShares",
          "type": "uint256"
        }
      ],
      "name": "Deposited",
      "type": "event"
    },
    {
      "anonymous": false,
      "inputs": [
        {
          "indexed": false,
          "internalType": "uint64",
          "name": "version",
          "type": "uint64"
        }
      ],
      "name": "Initialized",
      "type": "event"
    },
    {
      "anonymous": false,
      "inputs": [
        {
          "indexed": true,
          "internalType": "address",
          "name": "user",
          "type": "address"
        },
        {
          "indexed": false,
          "internalType": "uint256",
          "name": "stakingShares",
          "type": "uint256"
        },
        {
          "indexed": false,
          "internalType": "uint256",
          "name": "nuvaShares",
          "type": "uint256"
        }
      ],
      "name": "NuvaDeposited",
      "type": "event"
    },
    {
      "anonymous": false,
      "inputs": [
        {
          "indexed": true,
          "internalType": "address",
          "name": "previousOwner",
          "type": "address"
        },
        {
          "indexed": true,
          "internalType": "address",
          "name": "newOwner",
          "type": "address"
        }
      ],
      "name": "OwnershipTransferStarted",
      "type": "event"
    },
    {
      "anonymous": false,
      "inputs": [
        {
          "indexed": true,
          "internalType": "address",
          "name": "previousOwner",
          "type": "address"
        },
        {
          "indexed": true,
          "internalType": "address",
          "name": "newOwner",
          "type": "address"
        }
      ],
      "name": "OwnershipTransferred",
      "type": "event"
    },
    {
      "anonymous": false,
      "inputs": [
        {
          "indexed": true,
          "internalType": "address",
          "name": "implementation",
          "type": "address"
        }
      ],
      "name": "Upgraded",
      "type": "event"
    },
    {
      "inputs": [],
      "name": "UPGRADE_INTERFACE_VERSION",
      "outputs": [
        {
          "internalType": "string",
          "name": "",
          "type": "string"
        }
      ],
      "stateMutability": "view",
      "type": "function"
    },
    {
      "inputs": [],
      "name": "acceptOwnership",
      "outputs": [],
      "stateMutability": "nonpayable",
      "type": "function"
    },
    {
      "inputs": [],
      "name": "amlSigner",
      "outputs": [
        {
          "internalType": "address",
          "name": "",
          "type": "address"
        }
      ],
      "stateMutability": "view",
      "type": "function"
    },
    {
      "inputs": [],
      "name": "asset",
      "outputs": [
        {
          "internalType": "contract IERC20",
          "name": "",
          "type": "address"
        }
      ],
      "stateMutability": "view",
      "type": "function"
    },
    {
      "inputs": [],
      "name": "assetVault",
      "outputs": [
        {
          "internalType": "contract IERC4626",
          "name": "",
          "type": "address"
        }
      ],
      "stateMutability": "view",
      "type": "function"
    },
    {
      "inputs": [
        {
          "internalType": "uint256",
          "name": "_amount",
          "type": "uint256"
        },
        {
          "internalType": "address",
          "name": "_receiver",
          "type": "address"
        },
        {
          "internalType": "uint256",
          "name": "_minVaultSharesOut",
          "type": "uint256"
        },
        {
          "internalType": "uint256",
          "name": "_minStakingVaultSharesOut",
          "type": "uint256"
        },
        {
          "internalType": "uint256",
          "name": "_minNuvaVaultSharesOut",
          "type": "uint256"
        },
        {
          "internalType": "bytes",
          "name": "_amlSignature",
          "type": "bytes"
        },
        {
          "internalType": "uint256",
          "name": "_amlDeadline",
          "type": "uint256"
        }
      ],
      "name": "deposit",
      "outputs": [
        {
          "internalType": "uint256",
          "name": "",
          "type": "uint256"
        }
      ],
      "stateMutability": "nonpayable",
      "type": "function"
    },
    {
      "inputs": [
        {
          "internalType": "uint256",
          "name": "_amount",
          "type": "uint256"
        },
        {
          "internalType": "address",
          "name": "_receiver",
          "type": "address"
        },
        {
          "internalType": "uint256",
          "name": "_minVaultSharesOut",
          "type": "uint256"
        },
        {
          "internalType": "uint256",
          "name": "_minStakingVaultSharesOut",
          "type": "uint256"
        },
        {
          "internalType": "uint256",
          "name": "_minNuvaVaultSharesOut",
          "type": "uint256"
        },
        {
          "internalType": "bytes",
          "name": "_amlSignature",
          "type": "bytes"
        },
        {
          "internalType": "uint256",
          "name": "_amlDeadline",
          "type": "uint256"
        },
        {
          "internalType": "uint256",
          "name": "_permitDeadline",
          "type": "uint256"
        },
        {
          "internalType": "uint8",
          "name": "_v",
          "type": "uint8"
        },
        {
          "internalType": "bytes32",
          "name": "_r",
          "type": "bytes32"
        },
        {
          "internalType": "bytes32",
          "name": "_s",
          "type": "bytes32"
        }
      ],
      "name": "depositWithPermit",
      "outputs": [
        {
          "internalType": "uint256",
          "name": "",
          "type": "uint256"
        }
      ],
      "stateMutability": "nonpayable",
      "type": "function"
    },
    {
      "inputs": [
        {
          "internalType": "address",
          "name": "_assetVault",
          "type": "address"
        },
        {
          "internalType": "address",
          "name": "_stakingVault",
          "type": "address"
        },
        {
          "internalType": "address",
          "name": "_nuvaVault",
          "type": "address"
        },
        {
          "internalType": "address",
          "name": "_amlSigner",
          "type": "address"
        },
        {
          "internalType": "address",
          "name": "_initialOwner",
          "type": "address"
        }
      ],
      "name": "initialize",
      "outputs": [],
      "stateMutability": "nonpayable",
      "type": "function"
    },
    {
      "inputs": [],
      "name": "nuvaAsset",
      "outputs": [
        {
          "internalType": "contract IERC20",
          "name": "",
          "type": "address"
        }
      ],
      "stateMutability": "view",
      "type": "function"
    },
    {
      "inputs": [],
      "name": "nuvaVault",
      "outputs": [
        {
          "internalType": "contract IERC4626",
          "name": "",
          "type": "address"
        }
      ],
      "stateMutability": "view",
      "type": "function"
    },
    {
      "inputs": [],
      "name": "owner",
      "outputs": [
        {
          "internalType": "address",
          "name": "",
          "type": "address"
        }
      ],
      "stateMutability": "view",
      "type": "function"
    },
    {
      "inputs": [],
      "name": "pendingOwner",
      "outputs": [
        {
          "internalType": "address",
          "name": "",
          "type": "address"
        }
      ],
      "stateMutability": "view",
      "type": "function"
    },
    {
      "inputs": [],
      "name": "proxiableUUID",
      "outputs": [
        {
          "internalType": "bytes32",
          "name": "",
          "type": "bytes32"
        }
      ],
      "stateMutability": "view",
      "type": "function"
    },
    {
      "inputs": [],
      "name": "renounceOwnership",
      "outputs": [],
      "stateMutability": "nonpayable",
      "type": "function"
    },
    {
      "inputs": [
        {
          "internalType": "address",
          "name": "_newAmlSigner",
          "type": "address"
        }
      ],
      "name": "setAmlSigner",
      "outputs": [],
      "stateMutability": "nonpayable",
      "type": "function"
    },
    {
      "inputs": [],
      "name": "stakingAsset",
      "outputs": [
        {
          "internalType": "contract IERC20",
          "name": "",
          "type": "address"
        }
      ],
      "stateMutability": "view",
      "type": "function"
    },
    {
      "inputs": [],
      "name": "stakingVault",
      "outputs": [
        {
          "internalType": "contract IERC4626",
          "name": "",
          "type": "address"
        }
      ],
      "stateMutability": "view",
      "type": "function"
    },
    {
      "inputs": [
        {
          "internalType": "address",
          "name": "newOwner",
          "type": "address"
        }
      ],
      "name": "transferOwnership",
      "outputs": [],
      "stateMutability": "nonpayable",
      "type": "function"
    },
    {
      "inputs": [
        {
          "internalType": "address",
          "name": "newImplementation",
          "type": "address"
        },
        {
          "internalType": "bytes",
          "name": "data",
          "type": "bytes"
        }
      ],
      "name": "upgradeToAndCall",
      "outputs": [],
      "stateMutability": "payable",
      "type": "function"
    },
    {
      "inputs": [
        {
          "internalType": "bytes32",
          "name": "",
          "type": "bytes32"
        }
      ],
      "name": "usedSignatures",
      "outputs": [
        {
          "internalType": "bool",
          "name": "",
          "type": "bool"
        }
      ],
      "stateMutability": "view",
      "type": "function"
    }
  ],
  "bytecode": "0x60a080604052346100ea57306080527ff0c57e16840df040f15088dc2f81fe391c3923bec73e23a9662efc9c229c6a005460ff8160401c166100d9576002600160401b03196001600160401b03821601610073575b604051611a3190816100f082396080518181816105e301526106890152f35b6001600160401b0319166001600160401b039081177ff0c57e16840df040f15088dc2f81fe391c3923bec73e23a9662efc9c229c6a005581527fc7f505b2f371ae2175ee4913f4499e1f2633a7b5936321eed1cdaeb6115181d290602090a13880610054565b63f92ee8a960e01b60005260046000fd5b600080fdfe6080604052600436101561001257600080fd5b6000803560e01c80628e6a6514610c8f5780631459457a146108b757806324e7964a1461088e57806338d52e0f146108655780634f1ef2861461063857806352d1902d146105d05780636147da56146105a7578063632a82631461057e578063715018a6146104fd5780637776768f146104d457806379ba5097146104835780638da5cb5b1461044d578063ad3cb1cc146103d3578063be5afe16146102cb578063dace1a8d146102a2578063e30c39781461026c578063f2fde38b146101e4578063f30a8db414610150578063f61ebc36146101295763f978fd61146100f857600080fd5b346101265760203660031901126101265760ff60406020926004358152600784522054166040519015158152f35b80fd5b5034610126578060031936011261012657546040516001600160a01b039091168152602090f35b50346101265760e03660031901126101265760043561016d610d2d565b60443590606435926084359460a4359067ffffffffffffffff82116101265760206101ca88888888886101c56101a63660048c01610dce565b60c435916101b2610ebf565b6101c0838a8a8a8a8a610efb565b610f70565b6110c9565b60016000805160206119c583398151915255604051908152f35b5034610126576020366003190112610126576101fe610d12565b610206610e1b565b600080516020611a0583398151915280546001600160a01b0319166001600160a01b03928316908117909155600080516020611985833981519152549091167f38d16b8cac22d99fc7c124b9cd0de2d3fa1faef420bfe791d8c362d765e227008380a380f35b5034610126578060031936011261012657600080516020611a05833981519152546040516001600160a01b039091168152602090f35b50346101265780600319360112610126576004546040516001600160a01b039091168152602090f35b503461012657610160366003190112610126576004356102e9610d2d565b604435606435916084359360a43567ffffffffffffffff81116103cf57610314903690600401610dce565b9060c435610104359260ff84168094036103cb5761034292610334610ebf565b6101c0838b8b8b8b8b610efb565b6001546001600160a01b031690813b156103c7579680806101ca98979695949360e460209b604051948593849263d505accf60e01b84523360048501523060248501528960448501528435606485015260848401526101243560a48401526101443560c48401525af16103b7575b50506110c9565b816103c191610d43565b386103b0565b8780fd5b8980fd5b8680fd5b503461012657806003193601126101265760408051916103f38284610d43565b60058352640352e302e360dc1b6020840152815192839160208352815191826020850152815b838110610436575050828201840152601f01601f19168101030190f35b602082820181015188830188015287955001610419565b5034610126578060031936011261012657600080516020611985833981519152546040516001600160a01b039091168152602090f35b5034610126578060031936011261012657600080516020611a0583398151915254336001600160a01b03909116036104c1576104be33610e51565b80f35b63118cdaa760e01b815233600452602490fd5b50346101265780600319360112610126576003546040516001600160a01b039091168152602090f35b5034610126578060031936011261012657610516610e1b565b600080516020611a0583398151915280546001600160a01b03199081169091556000805160206119858339815191528054918216905581906001600160a01b03167f8be0079c531659141344cd1fd0a4f28419497f9722a3daafe3b4186f6b6457e08280a380f35b50346101265780600319360112610126576005546040516001600160a01b039091168152602090f35b50346101265780600319360112610126576006546040516001600160a01b039091168152602090f35b50346101265780600319360112610126577f00000000000000000000000000000000000000000000000000000000000000006001600160a01b031630036106295760206040516000805160206119a58339815191528152f35b63703e46dd60e11b8152600490fd5b5060403660031901126101265761064d610d12565b9060243567ffffffffffffffff811161086157366023820112156108615761067f903690602481600401359101610d97565b6001600160a01b037f00000000000000000000000000000000000000000000000000000000000000001630811490811561083e575b5061082f576106c1610e1b565b6040516352d1902d60e01b8152926001600160a01b0381169190602085600481865afa809585966107f7575b5061070657634c9c8ce360e01b84526004839052602484fd5b9091846000805160206119a583398151915281036107e55750813b156107d3576000805160206119a583398151915280546001600160a01b031916821790557fbc7cd75a20ee27fd9adebab32041f755214dbc6bffa90cc0225b39da2e5c2d3b8480a281518390156107b957808360206107ad95519101845af43d156107b1573d9161079183610d7b565b9261079f6040519485610d43565b83523d85602085013e61189a565b5080f35b60609161189a565b505050346107c45780f35b63b398979f60e01b8152600490fd5b634c9c8ce360e01b8452600452602483fd5b632a87526960e21b8552600452602484fd5b9095506020813d602011610827575b8161081360209383610d43565b81010312610823575194386106ed565b8480fd5b3d9150610806565b63703e46dd60e11b8252600482fd5b6000805160206119a5833981519152546001600160a01b031614159050386106b4565b5080fd5b50346101265780600319360112610126576001546040516001600160a01b039091168152602090f35b50346101265780600319360112610126576002546040516001600160a01b039091168152602090f35b50346101265760a0366003190112610126576108d1610d12565b6108d9610d2d565b6044356001600160a01b03811690819003610c8b576064356001600160a01b0381169290839003610823576084356001600160a01b03811694908581036103cf576000805160206119e5833981519152549560ff8760401c16159667ffffffffffffffff811680159081610c83575b6001149081610c79575b159081610c70575b50610c615767ffffffffffffffff1981166001176000805160206119e58339815191525587610c34575b5061098d611697565b610995611697565b15610c20576109a390610e51565b6109ab611697565b6109b3611697565b60016000805160206119c5833981519152556001600160a01b031680158015610c0f575b8015610c07575b610bf8578315610be95785546001600160a01b031916811786556040516338d52e0f60e01b815290602090829060049082905afa918215610bde576004926020928891610bc1575b50600180546001600160a01b039283166001600160a01b03199182161790915560028054939092169216821790556040516338d52e0f60e01b815292839182905afa918215610bb6576004926020928791610b99575b50600380546001600160a01b03929092166001600160a01b0319928316179055835416811783556040516338d52e0f60e01b815292839182905afa908115610b8e578491610b5f575b5060018060a01b03166bffffffffffffffffffffffff60a01b60055416176005556bffffffffffffffffffffffff60a01b6006541617600655610b055780f35b68ff0000000000000000196000805160206119e583398151915254166000805160206119e5833981519152557fc7f505b2f371ae2175ee4913f4499e1f2633a7b5936321eed1cdaeb6115181d2602060405160018152a180f35b610b81915060203d602011610b87575b610b798183610d43565b810190610dfc565b38610ac5565b503d610b6f565b6040513d86823e3d90fd5b610bb09150833d8511610b8757610b798183610d43565b38610a7c565b6040513d87823e3d90fd5b610bd89150833d8511610b8757610b798183610d43565b38610a26565b6040513d88823e3d90fd5b63d1cc738560e01b8652600486fd5b630681d31960e51b8652600486fd5b5082156109de565b506001600160a01b038216156109d7565b631e4fbdf760e01b87526004879052602487fd5b68ffffffffffffffffff191668010000000000000001176000805160206119e58339815191525538610984565b63f92ee8a960e01b8952600489fd5b9050153861095a565b303b159150610952565b899150610948565b8380fd5b503461012657602036600319011261012657610ca9610d12565b610cb1610e1b565b6001600160a01b03168015610d0357600654816001600160a01b0382167f7f7b46c0c664af2835dffe8b8e5c1ddbfcef63f608af5bbf2836a2b29a88fcb08580a36001600160a01b0319161760065580f35b63d1cc738560e01b8252600482fd5b600435906001600160a01b0382168203610d2857565b600080fd5b602435906001600160a01b0382168203610d2857565b90601f8019910116810190811067ffffffffffffffff821117610d6557604052565b634e487b7160e01b600052604160045260246000fd5b67ffffffffffffffff8111610d6557601f01601f191660200190565b929192610da382610d7b565b91610db16040519384610d43565b829481845281830111610d28578281602093846000960137010152565b9181601f84011215610d285782359167ffffffffffffffff8311610d285760208381860195010111610d2857565b90816020910312610d2857516001600160a01b0381168103610d285790565b600080516020611985833981519152546001600160a01b03163303610e3c57565b63118cdaa760e01b6000523360045260246000fd5b600080516020611a0583398151915280546001600160a01b031990811690915560008051602061198583398151915280549182166001600160a01b0393841690811790915591167f8be0079c531659141344cd1fd0a4f28419497f9722a3daafe3b4186f6b6457e0600080a3565b60026000805160206119c58339815191525414610eea5760026000805160206119c583398151915255565b633ee5aeb560e01b60005260046000fd5b94929093916040519460208601967f825e4a0c6c1347448cb0506a6696bb6a0812431f15c82ace3f8cd1ed0da3829e8852336040880152606087015260018060a01b0316608086015260a085015260c084015260e08301526101008201526101008152610f6a61012082610d43565b51902090565b91909242116110b85781600052600760205260ff604060002054166110a7576110606110699161105a6040956042601460208951610fae8b82610d43565b82815201732232b234b1b0ba32b22b30bab63a2937baba32b960611b815220600160208a51610fdd8c82610d43565b82815201603160f81b81522089519060208201927f8b73c3c69bb8fe3d512ecc4cf759cc79239f7b179b0ffacaa9a75d522b39400f84528b83015260608201524660808201523060a082015260a0815261103860c082610d43565b51902088519061190160f01b8252600282015287602282015220923691610d97565b9061177b565b909291926117b7565b6006546001600160a01b03908116911603611096576000526007602052600020600160ff19825416179055565b638bb79cad60e01b60005260046000fd5b63e544c62f60e01b60005260046000fd5b63288a076f60e21b60005260046000fd5b6001546040516370a0823160e01b815230600482015295969592939192906001600160a01b0316602082602481845afa801561148f57600090611664575b6003546040516370a0823160e01b81523060048201529350602090849060249082906001600160a01b03165afa91821561148f5760009261162f575b6005546040516370a0823160e01b81523060048201529450602090859060249082906001600160a01b03165afa93841561148f576000946115f9575b506040516323b872dd60e01b6020820152336024820152306044820152606480820188905281526111ba916111b5608483610d43565b61183f565b6001546000546111d89187916001600160a01b0390811691166116c5565b60008054604051636e553f6560e01b815260048101889052306024820152959160209187916044918391906001600160a01b03165af194851561148f576000956115c5575b5080851061149b57506001546040516370a0823160e01b815230600482015290602090829060249082906001600160a01b03165afa90811561148f57600091611593575b501161157d576003546002546112859185916001600160a01b0390811691166116c5565b600254604051636e553f6560e01b8152600481018590523060248201529690602090889060449082906000906001600160a01b03165af196871561148f57600097611549575b5080871061153057506003546040516370a0823160e01b815230600482015290602090829060249082906001600160a01b03165afa90811561148f576000916114fe575b50116114e8576005546004546000956020926113789261133d918a916001600160a01b0390811691166116c5565b60048054604051636e553f6560e01b81529182018a90526001600160a01b039283166024830152909788939190921691839182906044820190565b03925af193841561148f576000946114b4575b50839680851061149b57506005546040516370a0823160e01b815230600482015290602090829060249082906001600160a01b03165afa90811561148f5760009161145d575b50116114475760405191825260208201528260408201528160608201527fe3b53cd1a44fbf11535e145d80b8ef1ed6d57a73bf5daa7e939b6b01657d654960803392a260405191825260208201527f25ce8023f13f06ca0d767e94c9b8af89bb3acb2ccb35720e79a7fa12cacdc0ae60403392a2565b63eac1efd960e01b600052600360045260246000fd5b90506020813d602011611487575b8161147860209383610d43565b81010312610d285751386113d1565b3d915061146b565b6040513d6000823e3d90fd5b84906371c4efed60e01b60005260045260245260446000fd5b90936020823d6020116114e0575b816114cf60209383610d43565b81010312610126575051923861138b565b3d91506114c2565b63eac1efd960e01b600052600260045260246000fd5b90506020813d602011611528575b8161151960209383610d43565b81010312610d2857513861130f565b3d915061150c565b86906371c4efed60e01b60005260045260245260446000fd5b90966020823d602011611575575b8161156460209383610d43565b8101031261012657505195386112cb565b3d9150611557565b63eac1efd960e01b600052600160045260246000fd5b90506020813d6020116115bd575b816115ae60209383610d43565b81010312610d28575138611261565b3d91506115a1565b90946020823d6020116115f1575b816115e060209383610d43565b81010312610126575051933861121d565b3d91506115d3565b9093506020813d602011611627575b8161161560209383610d43565b81010312610d285751926111ba61117f565b3d9150611608565b91506020833d60201161165c575b8161164a60209383610d43565b81010312610d28576024925191611143565b3d915061163d565b506020823d60201161168f575b8161167e60209383610d43565b81010312610d285760249151611107565b3d9150611671565b60ff6000805160206119e58339815191525460401c16156116b457565b631afcd79f60e31b60005260046000fd5b60206000604051938285019063095ea7b360e01b825260018060a01b0316958660248701526044860152604485526116fe606486610d43565b84519082855af16000513d82611756575b50501561171b57505050565b6111b5611754936040519063095ea7b360e01b60208301526024820152600060448201526044815261174e606482610d43565b8261183f565b565b90915061177357506001600160a01b0381163b15155b388061170f565b60011461176c565b81519190604183036117ac576117a592506020820151906060604084015193015160001a906118fb565b9192909190565b505060009160029190565b919091600481101561182957806117cd57509050565b6000600182036117e85763f645eedf60e01b60005260046000fd5b5060028103611806578263fce698f760e01b60005260045260246000fd5b9091600360009214611816575050565b6335e2f38360e21b825260045260249150fd5b634e487b7160e01b600052602160045260246000fd5b906000602091828151910182855af11561148f576000513d61189157506001600160a01b0381163b155b6118705750565b635274afe760e01b60009081526001600160a01b0391909116600452602490fd5b60011415611869565b906118c057508051156118af57602081519101fd5b63d6bda27560e01b60005260046000fd5b815115806118f2575b6118d1575090565b639996b31560e01b60009081526001600160a01b0391909116600452602490fd5b50803b156118c9565b91907f7fffffffffffffffffffffffffffffff5d576e7357a4501ddfe92f46681b20a08411611978579160209360809260ff60009560405194855216868401526040830152606082015282805260015afa1561148f576000516001600160a01b0381161561196c5790600090600090565b50600090600190600090565b5050506000916003919056fe9016d09d72d40fdae2fd8ceac6b6234c7706214fd39c1cd1e609a0528c199300360894a13ba1a3210667c828492db98dca3e2076cc3735a920a3ca505d382bbc9b779b17422d0df92223018b32b4d1fa46e071723d6817e2486d003becc55f00f0c57e16840df040f15088dc2f81fe391c3923bec73e23a9662efc9c229c6a00237e158222e3e6968b72b9db0d8043aacf074ad9f650f0d1606b4d82ee432c00a164736f6c634300081c000a",
  "linkReferences": {},
  "deployedLinkReferences": {}
}