{
  "_format": "hh-sol-artifact-1",
  "contractName": "DedicatedVaultRouter",
  "sourceName": "contracts/prime/DedicatedVaultRouter.sol",
  "abi": [
    {
      "inputs": [],
      "stateMutability": "nonpayable",
      "type": "constructor"
    },
    {
      "inputs": [],
      "name": "AccessControlBadConfirmation",
      "type": "error"
    },
    {
      "inputs": [
        {
          "internalType": "address",
          "name": "account",
          "type": "address"
        },
        {
          "internalType": "bytes32",
          "name": "neededRole",
          "type": "bytes32"
        }
      ],
      "name": "AccessControlUnauthorizedAccount",
      "type": "error"
    },
    {
      "inputs": [
        {
          "internalType": "address",
          "name": "target",
          "type": "address"
        }
      ],
      "name": "AddressEmptyCode",
      "type": "error"
    },
    {
      "inputs": [],
      "name": "AmlSignatureAlreadyUsed",
      "type": "error"
    },
    {
      "inputs": [],
      "name": "AmlSignatureExpired",
      "type": "error"
    },
    {
      "inputs": [],
      "name": "ArrayLengthMismatch",
      "type": "error"
    },
    {
      "inputs": [],
      "name": "ECDSAInvalidSignature",
      "type": "error"
    },
    {
      "inputs": [
        {
          "internalType": "uint256",
          "name": "length",
          "type": "uint256"
        }
      ],
      "name": "ECDSAInvalidSignatureLength",
      "type": "error"
    },
    {
      "inputs": [
        {
          "internalType": "bytes32",
          "name": "s",
          "type": "bytes32"
        }
      ],
      "name": "ECDSAInvalidSignatureS",
      "type": "error"
    },
    {
      "inputs": [
        {
          "internalType": "address",
          "name": "implementation",
          "type": "address"
        }
      ],
      "name": "ERC1967InvalidImplementation",
      "type": "error"
    },
    {
      "inputs": [],
      "name": "ERC1967NonPayable",
      "type": "error"
    },
    {
      "inputs": [],
      "name": "FailedCall",
      "type": "error"
    },
    {
      "inputs": [],
      "name": "FailedDeployment",
      "type": "error"
    },
    {
      "inputs": [
        {
          "internalType": "uint256",
          "name": "amount",
          "type": "uint256"
        }
      ],
      "name": "FundsStuck",
      "type": "error"
    },
    {
      "inputs": [
        {
          "internalType": "uint256",
          "name": "balance",
          "type": "uint256"
        },
        {
          "internalType": "uint256",
          "name": "needed",
          "type": "uint256"
        }
      ],
      "name": "InsufficientBalance",
      "type": "error"
    },
    {
      "inputs": [],
      "name": "InvalidAmlSignature",
      "type": "error"
    },
    {
      "inputs": [],
      "name": "InvalidAmlSigner",
      "type": "error"
    },
    {
      "inputs": [],
      "name": "InvalidInitialization",
      "type": "error"
    },
    {
      "inputs": [],
      "name": "InvalidRedemptionProxyImplementation",
      "type": "error"
    },
    {
      "inputs": [],
      "name": "InvalidVault",
      "type": "error"
    },
    {
      "inputs": [],
      "name": "NotInitializing",
      "type": "error"
    },
    {
      "inputs": [
        {
          "internalType": "address",
          "name": "owner",
          "type": "address"
        }
      ],
      "name": "OwnableInvalidOwner",
      "type": "error"
    },
    {
      "inputs": [
        {
          "internalType": "address",
          "name": "account",
          "type": "address"
        }
      ],
      "name": "OwnableUnauthorizedAccount",
      "type": "error"
    },
    {
      "inputs": [],
      "name": "RedemptionAlreadyPending",
      "type": "error"
    },
    {
      "inputs": [],
      "name": "ReentrancyGuardReentrantCall",
      "type": "error"
    },
    {
      "inputs": [
        {
          "internalType": "address",
          "name": "token",
          "type": "address"
        }
      ],
      "name": "SafeERC20FailedOperation",
      "type": "error"
    },
    {
      "inputs": [
        {
          "internalType": "uint256",
          "name": "minShares",
          "type": "uint256"
        },
        {
          "internalType": "uint256",
          "name": "actualShares",
          "type": "uint256"
        }
      ],
      "name": "SlippageExceeded",
      "type": "error"
    },
    {
      "inputs": [],
      "name": "UUPSUnauthorizedCallContext",
      "type": "error"
    },
    {
      "inputs": [
        {
          "internalType": "bytes32",
          "name": "slot",
          "type": "bytes32"
        }
      ],
      "name": "UUPSUnsupportedProxiableUUID",
      "type": "error"
    },
    {
      "anonymous": false,
      "inputs": [
        {
          "indexed": true,
          "internalType": "address",
          "name": "oldSigner",
          "type": "address"
        },
        {
          "indexed": true,
          "internalType": "address",
          "name": "newSigner",
          "type": "address"
        }
      ],
      "name": "AmlSignerUpdated",
      "type": "event"
    },
    {
      "anonymous": false,
      "inputs": [
        {
          "indexed": true,
          "internalType": "address",
          "name": "user",
          "type": "address"
        },
        {
          "indexed": true,
          "internalType": "uint256",
          "name": "assets",
          "type": "uint256"
        },
        {
          "indexed": true,
          "internalType": "uint256",
          "name": "shares",
          "type": "uint256"
        },
        {
          "indexed": false,
          "internalType": "uint256",
          "name": "stakingShares",
          "type": "uint256"
        },
        {
          "indexed": false,
          "internalType": "uint256",
          "name": "nuvaShares",
          "type": "uint256"
        }
      ],
      "name": "Deposited",
      "type": "event"
    },
    {
      "anonymous": false,
      "inputs": [
        {
          "indexed": false,
          "internalType": "uint64",
          "name": "version",
          "type": "uint64"
        }
      ],
      "name": "Initialized",
      "type": "event"
    },
    {
      "anonymous": false,
      "inputs": [
        {
          "indexed": true,
          "internalType": "address",
          "name": "user",
          "type": "address"
        },
        {
          "indexed": true,
          "internalType": "uint256",
          "name": "stakingShares",
          "type": "uint256"
        },
        {
          "indexed": true,
          "internalType": "uint256",
          "name": "nuvaShares",
          "type": "uint256"
        }
      ],
      "name": "NuvaDeposited",
      "type": "event"
    },
    {
      "anonymous": false,
      "inputs": [
        {
          "indexed": true,
          "internalType": "address",
          "name": "previousOwner",
          "type": "address"
        },
        {
          "indexed": true,
          "internalType": "address",
          "name": "newOwner",
          "type": "address"
        }
      ],
      "name": "OwnershipTransferStarted",
      "type": "event"
    },
    {
      "anonymous": false,
      "inputs": [
        {
          "indexed": true,
          "internalType": "address",
          "name": "previousOwner",
          "type": "address"
        },
        {
          "indexed": true,
          "internalType": "address",
          "name": "newOwner",
          "type": "address"
        }
      ],
      "name": "OwnershipTransferred",
      "type": "event"
    },
    {
      "anonymous": false,
      "inputs": [
        {
          "indexed": true,
          "internalType": "address",
          "name": "oldImplementation",
          "type": "address"
        },
        {
          "indexed": true,
          "internalType": "address",
          "name": "newImplementation",
          "type": "address"
        }
      ],
      "name": "RedemptionProxyImplementationUpdated",
      "type": "event"
    },
    {
      "anonymous": false,
      "inputs": [
        {
          "indexed": true,
          "internalType": "address",
          "name": "user",
          "type": "address"
        },
        {
          "indexed": true,
          "internalType": "address",
          "name": "redemptionProxy",
          "type": "address"
        }
      ],
      "name": "RedemptionRequested",
      "type": "event"
    },
    {
      "anonymous": false,
      "inputs": [
        {
          "indexed": false,
          "internalType": "address[]",
          "name": "users",
          "type": "address[]"
        },
        {
          "indexed": false,
          "internalType": "uint256",
          "name": "totalSweptAmount",
          "type": "uint256"
        }
      ],
      "name": "RedemptionsSwept",
      "type": "event"
    },
    {
      "anonymous": false,
      "inputs": [
        {
          "indexed": true,
          "internalType": "bytes32",
          "name": "role",
          "type": "bytes32"
        },
        {
          "indexed": true,
          "internalType": "bytes32",
          "name": "previousAdminRole",
          "type": "bytes32"
        },
        {
          "indexed": true,
          "internalType": "bytes32",
          "name": "newAdminRole",
          "type": "bytes32"
        }
      ],
      "name": "RoleAdminChanged",
      "type": "event"
    },
    {
      "anonymous": false,
      "inputs": [
        {
          "indexed": true,
          "internalType": "bytes32",
          "name": "role",
          "type": "bytes32"
        },
        {
          "indexed": true,
          "internalType": "address",
          "name": "account",
          "type": "address"
        },
        {
          "indexed": true,
          "internalType": "address",
          "name": "sender",
          "type": "address"
        }
      ],
      "name": "RoleGranted",
      "type": "event"
    },
    {
      "anonymous": false,
      "inputs": [
        {
          "indexed": true,
          "internalType": "bytes32",
          "name": "role",
          "type": "bytes32"
        },
        {
          "indexed": true,
          "internalType": "address",
          "name": "account",
          "type": "address"
        },
        {
          "indexed": true,
          "internalType": "address",
          "name": "sender",
          "type": "address"
        }
      ],
      "name": "RoleRevoked",
      "type": "event"
    },
    {
      "anonymous": false,
      "inputs": [
        {
          "indexed": true,
          "internalType": "address",
          "name": "implementation",
          "type": "address"
        }
      ],
      "name": "Upgraded",
      "type": "event"
    },
    {
      "inputs": [],
      "name": "DEFAULT_ADMIN_ROLE",
      "outputs": [
        {
          "internalType": "bytes32",
          "name": "",
          "type": "bytes32"
        }
      ],
      "stateMutability": "view",
      "type": "function"
    },
    {
      "inputs": [],
      "name": "KEEPER_ROLE",
      "outputs": [
        {
          "internalType": "bytes32",
          "name": "",
          "type": "bytes32"
        }
      ],
      "stateMutability": "view",
      "type": "function"
    },
    {
      "inputs": [],
      "name": "UPGRADE_INTERFACE_VERSION",
      "outputs": [
        {
          "internalType": "string",
          "name": "",
          "type": "string"
        }
      ],
      "stateMutability": "view",
      "type": "function"
    },
    {
      "inputs": [],
      "name": "acceptOwnership",
      "outputs": [],
      "stateMutability": "nonpayable",
      "type": "function"
    },
    {
      "inputs": [],
      "name": "amlSigner",
      "outputs": [
        {
          "internalType": "address",
          "name": "",
          "type": "address"
        }
      ],
      "stateMutability": "view",
      "type": "function"
    },
    {
      "inputs": [],
      "name": "asset",
      "outputs": [
        {
          "internalType": "contract IERC20",
          "name": "",
          "type": "address"
        }
      ],
      "stateMutability": "view",
      "type": "function"
    },
    {
      "inputs": [],
      "name": "assetVault",
      "outputs": [
        {
          "internalType": "contract IERC4626",
          "name": "",
          "type": "address"
        }
      ],
      "stateMutability": "view",
      "type": "function"
    },
    {
      "inputs": [
        {
          "internalType": "uint256",
          "name": "_amount",
          "type": "uint256"
        },
        {
          "internalType": "address",
          "name": "_receiver",
          "type": "address"
        },
        {
          "internalType": "uint256",
          "name": "_minVaultSharesOut",
          "type": "uint256"
        },
        {
          "internalType": "uint256",
          "name": "_minStakingVaultSharesOut",
          "type": "uint256"
        },
        {
          "internalType": "uint256",
          "name": "_minNuvaVaultSharesOut",
          "type": "uint256"
        },
        {
          "internalType": "bytes",
          "name": "_amlSignature",
          "type": "bytes"
        },
        {
          "internalType": "uint256",
          "name": "_amlDeadline",
          "type": "uint256"
        }
      ],
      "name": "deposit",
      "outputs": [
        {
          "internalType": "uint256",
          "name": "nuvaShares",
          "type": "uint256"
        }
      ],
      "stateMutability": "nonpayable",
      "type": "function"
    },
    {
      "inputs": [
        {
          "internalType": "uint256",
          "name": "_amount",
          "type": "uint256"
        },
        {
          "internalType": "address",
          "name": "_receiver",
          "type": "address"
        },
        {
          "internalType": "uint256",
          "name": "_minVaultSharesOut",
          "type": "uint256"
        },
        {
          "internalType": "uint256",
          "name": "_minStakingVaultSharesOut",
          "type": "uint256"
        },
        {
          "internalType": "uint256",
          "name": "_minNuvaVaultSharesOut",
          "type": "uint256"
        },
        {
          "internalType": "bytes",
          "name": "_amlSignature",
          "type": "bytes"
        },
        {
          "internalType": "uint256",
          "name": "_amlDeadline",
          "type": "uint256"
        },
        {
          "internalType": "uint256",
          "name": "_permitDeadline",
          "type": "uint256"
        },
        {
          "internalType": "uint8",
          "name": "_v",
          "type": "uint8"
        },
        {
          "internalType": "bytes32",
          "name": "_r",
          "type": "bytes32"
        },
        {
          "internalType": "bytes32",
          "name": "_s",
          "type": "bytes32"
        }
      ],
      "name": "depositWithPermit",
      "outputs": [
        {
          "internalType": "uint256",
          "name": "nuvaShares",
          "type": "uint256"
        }
      ],
      "stateMutability": "nonpayable",
      "type": "function"
    },
    {
      "inputs": [
        {
          "internalType": "bytes32",
          "name": "role",
          "type": "bytes32"
        }
      ],
      "name": "getRoleAdmin",
      "outputs": [
        {
          "internalType": "bytes32",
          "name": "",
          "type": "bytes32"
        }
      ],
      "stateMutability": "view",
      "type": "function"
    },
    {
      "inputs": [
        {
          "internalType": "bytes32",
          "name": "role",
          "type": "bytes32"
        },
        {
          "internalType": "address",
          "name": "account",
          "type": "address"
        }
      ],
      "name": "grantRole",
      "outputs": [],
      "stateMutability": "nonpayable",
      "type": "function"
    },
    {
      "inputs": [
        {
          "internalType": "bytes32",
          "name": "role",
          "type": "bytes32"
        },
        {
          "internalType": "address",
          "name": "account",
          "type": "address"
        }
      ],
      "name": "hasRole",
      "outputs": [
        {
          "internalType": "bool",
          "name": "",
          "type": "bool"
        }
      ],
      "stateMutability": "view",
      "type": "function"
    },
    {
      "inputs": [
        {
          "internalType": "address",
          "name": "_assetVault",
          "type": "address"
        },
        {
          "internalType": "address",
          "name": "_stakingVault",
          "type": "address"
        },
        {
          "internalType": "address",
          "name": "_nuvaVault",
          "type": "address"
        },
        {
          "internalType": "address",
          "name": "_amlSigner",
          "type": "address"
        },
        {
          "internalType": "address",
          "name": "_initialOwner",
          "type": "address"
        }
      ],
      "name": "initialize",
      "outputs": [],
      "stateMutability": "nonpayable",
      "type": "function"
    },
    {
      "inputs": [],
      "name": "nuvaAsset",
      "outputs": [
        {
          "internalType": "contract IERC20",
          "name": "",
          "type": "address"
        }
      ],
      "stateMutability": "view",
      "type": "function"
    },
    {
      "inputs": [],
      "name": "nuvaVault",
      "outputs": [
        {
          "internalType": "contract IERC4626",
          "name": "",
          "type": "address"
        }
      ],
      "stateMutability": "view",
      "type": "function"
    },
    {
      "inputs": [],
      "name": "owner",
      "outputs": [
        {
          "internalType": "address",
          "name": "",
          "type": "address"
        }
      ],
      "stateMutability": "view",
      "type": "function"
    },
    {
      "inputs": [],
      "name": "pendingOwner",
      "outputs": [
        {
          "internalType": "address",
          "name": "",
          "type": "address"
        }
      ],
      "stateMutability": "view",
      "type": "function"
    },
    {
      "inputs": [],
      "name": "proxiableUUID",
      "outputs": [
        {
          "internalType": "bytes32",
          "name": "",
          "type": "bytes32"
        }
      ],
      "stateMutability": "view",
      "type": "function"
    },
    {
      "inputs": [],
      "name": "redemptionProxyImplementation",
      "outputs": [
        {
          "internalType": "address",
          "name": "",
          "type": "address"
        }
      ],
      "stateMutability": "view",
      "type": "function"
    },
    {
      "inputs": [
        {
          "internalType": "address",
          "name": "",
          "type": "address"
        }
      ],
      "name": "redemptionProxyToUser",
      "outputs": [
        {
          "internalType": "address",
          "name": "",
          "type": "address"
        }
      ],
      "stateMutability": "view",
      "type": "function"
    },
    {
      "inputs": [],
      "name": "renounceOwnership",
      "outputs": [],
      "stateMutability": "nonpayable",
      "type": "function"
    },
    {
      "inputs": [
        {
          "internalType": "bytes32",
          "name": "role",
          "type": "bytes32"
        },
        {
          "internalType": "address",
          "name": "callerConfirmation",
          "type": "address"
        }
      ],
      "name": "renounceRole",
      "outputs": [],
      "stateMutability": "nonpayable",
      "type": "function"
    },
    {
      "inputs": [
        {
          "internalType": "uint256",
          "name": "_amountNuvaShares",
          "type": "uint256"
        }
      ],
      "name": "requestRedeem",
      "outputs": [],
      "stateMutability": "nonpayable",
      "type": "function"
    },
    {
      "inputs": [
        {
          "internalType": "bytes32",
          "name": "role",
          "type": "bytes32"
        },
        {
          "internalType": "address",
          "name": "account",
          "type": "address"
        }
      ],
      "name": "revokeRole",
      "outputs": [],
      "stateMutability": "nonpayable",
      "type": "function"
    },
    {
      "inputs": [
        {
          "internalType": "address",
          "name": "_newAmlSigner",
          "type": "address"
        }
      ],
      "name": "setAmlSigner",
      "outputs": [],
      "stateMutability": "nonpayable",
      "type": "function"
    },
    {
      "inputs": [
        {
          "internalType": "address",
          "name": "_newImplementation",
          "type": "address"
        }
      ],
      "name": "setRedemptionProxyImplementation",
      "outputs": [],
      "stateMutability": "nonpayable",
      "type": "function"
    },
    {
      "inputs": [],
      "name": "stakingAsset",
      "outputs": [
        {
          "internalType": "contract IERC20",
          "name": "",
          "type": "address"
        }
      ],
      "stateMutability": "view",
      "type": "function"
    },
    {
      "inputs": [],
      "name": "stakingVault",
      "outputs": [
        {
          "internalType": "contract IERC4626",
          "name": "",
          "type": "address"
        }
      ],
      "stateMutability": "view",
      "type": "function"
    },
    {
      "inputs": [
        {
          "internalType": "bytes4",
          "name": "interfaceId",
          "type": "bytes4"
        }
      ],
      "name": "supportsInterface",
      "outputs": [
        {
          "internalType": "bool",
          "name": "",
          "type": "bool"
        }
      ],
      "stateMutability": "view",
      "type": "function"
    },
    {
      "inputs": [
        {
          "internalType": "address[]",
          "name": "_proxyAddresses",
          "type": "address[]"
        },
        {
          "internalType": "uint256[]",
          "name": "_amounts",
          "type": "uint256[]"
        }
      ],
      "name": "sweepRedemptions",
      "outputs": [],
      "stateMutability": "nonpayable",
      "type": "function"
    },
    {
      "inputs": [
        {
          "internalType": "address",
          "name": "newOwner",
          "type": "address"
        }
      ],
      "name": "transferOwnership",
      "outputs": [],
      "stateMutability": "nonpayable",
      "type": "function"
    },
    {
      "inputs": [
        {
          "internalType": "address",
          "name": "newImplementation",
          "type": "address"
        },
        {
          "internalType": "bytes",
          "name": "data",
          "type": "bytes"
        }
      ],
      "name": "upgradeToAndCall",
      "outputs": [],
      "stateMutability": "payable",
      "type": "function"
    },
    {
      "inputs": [
        {
          "internalType": "bytes32",
          "name": "",
          "type": "bytes32"
        }
      ],
      "name": "usedSignatures",
      "outputs": [
        {
          "internalType": "bool",
          "name": "",
          "type": "bool"
        }
      ],
      "stateMutability": "view",
      "type": "function"
    }
  ],
  "bytecode": "0x60a080604052346100ea57306080527ff0c57e16840df040f15088dc2f81fe391c3923bec73e23a9662efc9c229c6a005460ff8160401c166100d9576002600160401b03196001600160401b03821601610073575b60405161269990816100f08239608051818181610d6c0152610e120152f35b6001600160401b0319166001600160401b039081177ff0c57e16840df040f15088dc2f81fe391c3923bec73e23a9662efc9c229c6a005581527fc7f505b2f371ae2175ee4913f4499e1f2633a7b5936321eed1cdaeb6115181d290602090a13880610054565b63f92ee8a960e01b60005260046000fd5b600080fdfe6080604052600436101561001257600080fd5b6000803560e01c80628e6a651461154f57806301ffc9a7146114f85780631459457a14611124578063248a9ca3146110fd57806324e7964a146110d45780632f2ff15d146110a25780633180bab614611079578063364bc15a1461105057806336568abe1461100b57806338d52e0f14610fe25780634f1ef28614610dc157806352d1902d14610d595780635907256814610d185780636147da5614610cef578063632a826314610cc65780636da50e3314610c43578063715018a614610bc25780637776768f14610b9957806379ba509714610b485780638da5cb5b14610b1257806391d1485414610abc578063a217fddf14610aa0578063aa2f892d14610794578063ad3cb1cc1461071a578063be5afe1614610611578063bf7bd6e214610395578063d547741f1461035a578063dace1a8d14610331578063e30c3978146102fb578063f2fde38b14610273578063f30a8db4146101df578063f61ebc36146101b85763f978fd611461018757600080fd5b346101b55760203660031901126101b55760ff60406020926004358152600984522054166040519015158152f35b80fd5b50346101b557806003193601126101b557546040516001600160a01b039091168152602090f35b50346101b55760e03660031901126101b5576004356101fc6115e8565b60443590606435926084359460a4359067ffffffffffffffff82116101b557602061025988888888886102546102353660048c01611689565b60c43591610241611af3565b61024f838a8a8a8a8a611c2e565b611ca3565b611dfc565b600160008051602061262d83398151915255604051908152f35b50346101b55760203660031901126101b55761028d6115d2565b61029561174e565b60008051602061266d83398151915280546001600160a01b0319166001600160a01b039283169081179091556000805160206125ad833981519152549091167f38d16b8cac22d99fc7c124b9cd0de2d3fa1faef420bfe791d8c362d765e227008380a380f35b50346101b557806003193601126101b55760008051602061266d833981519152546040516001600160a01b039091168152602090f35b50346101b557806003193601126101b5576004546040516001600160a01b039091168152602090f35b50346101b55760403660031901126101b55761039160043561037a6115e8565b9061038c61038782611707565b61199b565b6119e5565b5080f35b50346101b55760403660031901126101b55760043567ffffffffffffffff811161060d576103c79036906004016116b7565b9060243567ffffffffffffffff8111610609576103e89036906004016116b7565b6000805160206125cd833981519152855260008051602061260d83398151915260209081526040808720336000908152925290205460ff16156105e4576007546001600160a01b0316156105d5578084036105c6578491855b8581106104c857505050604051928060408501604086525260608401929085905b80821061049a57867fb9406f44634c6228db9e8d145e4f5159e884b069bd28d9763e76817e2110ed968780888860208301520390a180f35b90919384359060018060a01b0382168092036104c457602081600193829352019501920190610462565b8780fd5b6104d3818787611728565b356001600160a01b03811694908590036104c4576104f2828585611728565b858952600860205260408920549035906001600160a01b0316156105bb576040519063aa60e73360e01b825260048201526020816024818c8a5af19081156105b057899161057d575b5081018091116105695793875260086020526040872080546001600160a01b03191690556001905b01610441565b634e487b7160e01b88526011600452602488fd5b905060203d81116105a9575b61059381836115fe565b602082600092810103126101b55750513861053b565b503d610589565b6040513d8b823e3d90fd5b509350600190610563565b63512509d360e11b8552600485fd5b63c291c21760e01b8552600485fd5b63e2517d3f60e01b8552336004526000805160206125cd833981519152602452604485fd5b8380fd5b5080fd5b50346101b5576101603660031901126101b55760043561062f6115e8565b60443590606435926084359460a43567ffffffffffffffff811161060d5761065b903690600401611689565b60c43590610104359260ff8416809403610716579061068b929161067d611af3565b61024f838c8c8c8c8c611c2e565b6001546001600160a01b031690813b1561071257829160e48392604051948593849263d505accf60e01b84523360048501523060248501528960448501528435606485015260848401526101243560a48401526101443560c48401525af16106fd575b60206102598888888888611dfc565b6107088280926115fe565b6101b557806106ee565b8280fd5b8480fd5b50346101b557806003193601126101b557604080519161073a82846115fe565b60058352640352e302e360dc1b6020840152815192839160208352815191826020850152815b83811061077d575050828201840152601f01601f19168101030190f35b602082820181015188830188015287955001610760565b50346101b55760203660031901126101b5576004356107b1611af3565b6024602060018060a01b0360045416604051928380926370a0823160e01b82523060048301525afa908115610a95578391610a63575b506007546001600160a01b03811615610a5457608881901c62ffffff16763d602d80600a3d3981f3363d3d373d3d3d363d7300000017845260781b6effffffffffffffffffffffffffffff19166e5af43d82803e903d91602b57fd5bf3176020526037600984f06001600160a01b03811692908315610a455784546002546004546001600160a01b03928316929081169116863b156104c45760405192637c643b2f60e11b8452600484015260248301526044820152336064820152858160848183895af18015610a3a57610a1e575b50906108e68186936108d582303360018060a01b0360045416611b2f565b6004546001600160a01b0316611b7a565b833b1561060d576040519062d16aad60e01b82526004820152818160248183885af18015610a13576109fe575b50506024602060018060a01b0360045416604051928380926370a0823160e01b82523060048301525afa9081156109f35784916109bc575b50116109a857808252600860205260408220336001600160601b0360a01b825416179055337e45309ccbff29fb81c8c5fc824405446ca8ac332fd6ae375251ba54005c1fef8380a3600160008051602061262d8339815191525580f35b63eac1efd960e01b82526001600452602482fd5b90506020813d6020116109eb575b816109d7602093836115fe565b810103126109e657513861094b565b600080fd5b3d91506109ca565b6040513d86823e3d90fd5b81610a08916115fe565b610712578238610913565b6040513d84823e3d90fd5b85610a3084976108e6939594956115fe565b95509190916108b7565b6040513d88823e3d90fd5b63b06ebf3d60e01b8552600485fd5b63c291c21760e01b8452600484fd5b90506020813d602011610a8d575b81610a7e602093836115fe565b810103126107125751386107e7565b3d9150610a71565b6040513d85823e3d90fd5b50346101b557806003193601126101b557602090604051908152f35b50346101b55760403660031901126101b55760ff6040602092610add6115e8565b600435825260008051602061260d83398151915285528282206001600160a01b03909116825284522054604051911615158152f35b50346101b557806003193601126101b5576000805160206125ad833981519152546040516001600160a01b039091168152602090f35b50346101b557806003193601126101b55760008051602061266d83398151915254336001600160a01b0390911603610b8657610b8333611a85565b80f35b63118cdaa760e01b815233600452602490fd5b50346101b557806003193601126101b5576003546040516001600160a01b039091168152602090f35b50346101b557806003193601126101b557610bdb61174e565b60008051602061266d83398151915280546001600160a01b03199081169091556000805160206125ad8339815191528054918216905581906001600160a01b03167f8be0079c531659141344cd1fd0a4f28419497f9722a3daafe3b4186f6b6457e08280a380f35b50346101b55760203660031901126101b557610c5d6115d2565b610c6561174e565b6001600160a01b03168015610cb757600754816001600160a01b0382167fd1eea419b2c4a2e74ab6fe1d5e7ea7027d4f646f83efbdd0cb293813187fb6468580a36001600160a01b0319161760075580f35b63c291c21760e01b8252600482fd5b50346101b557806003193601126101b5576005546040516001600160a01b039091168152602090f35b50346101b557806003193601126101b5576006546040516001600160a01b039091168152602090f35b50346101b55760203660031901126101b5576020906001600160a01b03610d3d6115d2565b16815260088252604060018060a01b0391205416604051908152f35b50346101b557806003193601126101b5577f00000000000000000000000000000000000000000000000000000000000000006001600160a01b03163003610db25760206040516000805160206125ed8339815191528152f35b63703e46dd60e11b8152600490fd5b5060403660031901126101b557610dd66115d2565b9060243567ffffffffffffffff811161060d573660238201121561060d57610e08903690602481600401359101611652565b6001600160a01b037f000000000000000000000000000000000000000000000000000000000000000016308114908115610fbf575b50610fb057610e4a61174e565b6040516352d1902d60e01b8152926001600160a01b0381169190602085600481865afa80958596610f7c575b50610e8f57634c9c8ce360e01b84526004839052602484fd5b9091846000805160206125ed8339815191528103610f6a5750813b15610f58576000805160206125ed83398151915280546001600160a01b031916821790557fbc7cd75a20ee27fd9adebab32041f755214dbc6bffa90cc0225b39da2e5c2d3b8480a28151839015610f3e578083602061039195519101845af43d15610f36573d91610f1a83611636565b92610f2860405194856115fe565b83523d85602085013e6124c2565b6060916124c2565b50505034610f495780f35b63b398979f60e01b8152600490fd5b634c9c8ce360e01b8452600452602483fd5b632a87526960e21b8552600452602484fd5b9095506020813d602011610fa8575b81610f98602093836115fe565b8101031261071657519438610e76565b3d9150610f8b565b63703e46dd60e11b8252600482fd5b6000805160206125ed833981519152546001600160a01b03161415905038610e3d565b50346101b557806003193601126101b5576001546040516001600160a01b039091168152602090f35b50346101b55760403660031901126101b5576110256115e8565b336001600160a01b0382160361104157610391906004356119e5565b63334bd91960e11b8252600482fd5b50346101b557806003193601126101b55760206040516000805160206125cd8339815191528152f35b50346101b557806003193601126101b5576007546040516001600160a01b039091168152602090f35b50346101b55760403660031901126101b5576103916004356110c26115e8565b906110cf61038782611707565b6118f2565b50346101b557806003193601126101b5576002546040516001600160a01b039091168152602090f35b50346101b55760203660031901126101b557602061111c600435611707565b604051908152f35b50346101b55760a03660031901126101b55761113e6115d2565b6111466115e8565b6044356001600160a01b03811690819003610609576064356001600160a01b0381169290839003610716576084356001600160a01b03811694908581036114f45760008051602061264d833981519152549560ff8760401c16159667ffffffffffffffff8116801590816114ec575b60011490816114e2575b1590816114d9575b506114ca5767ffffffffffffffff19811660011760008051602061264d833981519152558761149d575b506111fa612375565b15611489578061120c61124d92611a85565b611214612375565b61121c612375565b611224612375565b61122c612375565b600160008051602061262d8339815191525561124781611784565b50611836565b506001600160a01b031680158015611478575b8015611470575b6114615783156114525785546001600160a01b031916811786556040516338d52e0f60e01b815290602090829060049082905afa918215610a3a576004926020928891611435575b50600180546001600160a01b039283166001600160a01b03199182161790915560028054939092169216821790556040516338d52e0f60e01b815292839182905afa91821561142a57600492602092879161140d575b50600380546001600160a01b03929092166001600160a01b0319928316179055835416811783556040516338d52e0f60e01b815292839182905afa9081156109f35784916113de575b5060018060a01b03166001600160601b0360a01b60055416176005556001600160601b0360a01b60065416176006556113845780f35b68ff00000000000000001960008051602061264d833981519152541660008051602061264d833981519152557fc7f505b2f371ae2175ee4913f4499e1f2633a7b5936321eed1cdaeb6115181d2602060405160018152a180f35b611400915060203d602011611406575b6113f881836115fe565b8101906116e8565b3861134e565b503d6113ee565b6114249150833d8511611406576113f881836115fe565b38611305565b6040513d87823e3d90fd5b61144c9150833d8511611406576113f881836115fe565b386112af565b63d1cc738560e01b8652600486fd5b630681d31960e51b8652600486fd5b508215611267565b506001600160a01b03821615611260565b631e4fbdf760e01b87526004879052602487fd5b68ffffffffffffffffff1916680100000000000000011760008051602061264d83398151915255386111f1565b63f92ee8a960e01b8952600489fd5b905015386111c7565b303b1591506111bf565b8991506111b5565b8680fd5b50346101b55760203660031901126101b55760043563ffffffff60e01b811680910361060d57602090637965db0b60e01b811490811561153e575b506040519015158152f35b6301ffc9a760e01b14905082611533565b50346101b55760203660031901126101b5576115696115d2565b61157161174e565b6001600160a01b031680156115c357600654816001600160a01b0382167f7f7b46c0c664af2835dffe8b8e5c1ddbfcef63f608af5bbf2836a2b29a88fcb08580a36001600160a01b0319161760065580f35b63d1cc738560e01b8252600482fd5b600435906001600160a01b03821682036109e657565b602435906001600160a01b03821682036109e657565b90601f8019910116810190811067ffffffffffffffff82111761162057604052565b634e487b7160e01b600052604160045260246000fd5b67ffffffffffffffff811161162057601f01601f191660200190565b92919261165e82611636565b9161166c60405193846115fe565b8294818452818301116109e6578281602093846000960137010152565b9181601f840112156109e65782359167ffffffffffffffff83116109e657602083818601950101116109e657565b9181601f840112156109e65782359167ffffffffffffffff83116109e6576020808501948460051b0101116109e657565b908160209103126109e657516001600160a01b03811681036109e65790565b60005260008051602061260d83398151915260205260016040600020015490565b91908110156117385760051b0190565b634e487b7160e01b600052603260045260246000fd5b6000805160206125ad833981519152546001600160a01b0316330361176f57565b63118cdaa760e01b6000523360045260246000fd5b6001600160a01b03811660009081527fb7db2dd08fcb62d0c9e08c51941cae53c267786a0b75803fb7960902fc8ef97d602052604090205460ff16611830576001600160a01b031660008181527fb7db2dd08fcb62d0c9e08c51941cae53c267786a0b75803fb7960902fc8ef97d60205260408120805460ff191660011790553391907f2f8788117e7eff1d82e926ec794901d17c78024a50270940304540a733656f0d8180a4600190565b50600090565b6001600160a01b03811660009081527fe4a823086f56383dde6966cefd1253771599ebb2bfb3e60c37e64b5a68896bea602052604090205460ff16611830576001600160a01b031660008181527fe4a823086f56383dde6966cefd1253771599ebb2bfb3e60c37e64b5a68896bea60205260408120805460ff191660011790553391906000805160206125cd833981519152907f2f8788117e7eff1d82e926ec794901d17c78024a50270940304540a733656f0d9080a4600190565b600081815260008051602061260d833981519152602090815260408083206001600160a01b038616845290915290205460ff1661199457600081815260008051602061260d833981519152602090815260408083206001600160a01b0395909516808452949091528120805460ff19166001179055339291907f2f8788117e7eff1d82e926ec794901d17c78024a50270940304540a733656f0d9080a4600190565b5050600090565b600081815260008051602061260d8339815191526020908152604080832033845290915290205460ff16156119cd5750565b63e2517d3f60e01b6000523360045260245260446000fd5b600081815260008051602061260d833981519152602090815260408083206001600160a01b038616845290915290205460ff161561199457600081815260008051602061260d833981519152602090815260408083206001600160a01b0395909516808452949091528120805460ff19169055339291907ff6391f5c32d9c69d2a47ea670b442974b53935d1edc7fd64eb21e047a839171b9080a4600190565b60008051602061266d83398151915280546001600160a01b03199081169091556000805160206125ad83398151915280549182166001600160a01b0393841690811790915591167f8be0079c531659141344cd1fd0a4f28419497f9722a3daafe3b4186f6b6457e0600080a3565b600260008051602061262d8339815191525414611b1e57600260008051602061262d83398151915255565b633ee5aeb560e01b60005260046000fd5b6040516323b872dd60e01b60208201526001600160a01b039283166024820152929091166044830152606480830193909352918152611b7891611b736084836115fe565b6123a3565b565b60206000604051938285019063095ea7b360e01b825260018060a01b031695866024870152604486015260448552611bb36064866115fe565b84519082855af16000513d82611c09575b505015611bd057505050565b611b73611b78936040519063095ea7b360e01b602083015260248201526000604482015260448152611c036064826115fe565b826123a3565b909150611c2657506001600160a01b0381163b15155b3880611bc4565b600114611c1f565b94929093916040519460208601967f825e4a0c6c1347448cb0506a6696bb6a0812431f15c82ace3f8cd1ed0da3829e8852336040880152606087015260018060a01b0316608086015260a085015260c084015260e08301526101008201526101008152611c9d610120826115fe565b51902090565b9190924211611deb5781600052600960205260ff60406000205416611dda57611d93611d9c91611d8d6040956042601460208951611ce18b826115fe565b82815201732232b234b1b0ba32b22b30bab63a2937baba32b960611b815220600160208a51611d108c826115fe565b82815201603160f81b81522089519060208201927f8b73c3c69bb8fe3d512ecc4cf759cc79239f7b179b0ffacaa9a75d522b39400f84528b83015260608201524660808201523060a082015260a08152611d6b60c0826115fe565b51902088519061190160f01b8252600282015287602282015220923691611652565b906123fe565b9092919261243a565b6006546001600160a01b03908116911603611dc9576000526009602052600020600160ff19825416179055565b638bb79cad60e01b60005260046000fd5b63e544c62f60e01b60005260046000fd5b63288a076f60e21b60005260046000fd5b6001546040516370a0823160e01b8152306004820152959695929493926001600160a01b0390911690602081602481855afa801561218457600090612342575b6003546040516370a0823160e01b81523060048201529250602090839060249082906001600160a01b03165afa9182156121845760009261230e575b506005546040516370a0823160e01b815230600482015290602090829060249082906001600160a01b03165afa9384156121845785916000956122d5575b5090611ec59130903390611b2f565b600154600054611ee39186916001600160a01b039081169116611b7a565b60008054604051636e553f6560e01b815260048101879052306024820152969160209188916044918391906001600160a01b03165af1958615612184576000966122a1575b5080861061219057506001546040516370a0823160e01b815230600482015290602090829060249082906001600160a01b03165afa9081156121845760009161226f575b501161225957600354600254611f909186916001600160a01b039081169116611b7a565b600254604051636e553f6560e01b8152600481018690523060248201529590602090879060449082906000906001600160a01b03165af195861561218457600096612225575b5080861061219057506003546040516370a0823160e01b815230600482015290602090829060249082906001600160a01b03165afa908115612184576000916121f3575b50116121dd57600554600454600096602092612083926120489189916001600160a01b039081169116611b7a565b60048054604051636e553f6560e01b81529182018990526001600160a01b039283166024830152909889939190921691839182906044820190565b03925af1948515612184576000956121a9575b50849680861061219057506005546040516370a0823160e01b815230600482015290602090829060249082906001600160a01b03165afa90811561218457600091612152575b501161213c576040518381528460208201527fe3b53cd1a44fbf11535e145d80b8ef1ed6d57a73bf5daa7e939b6b01657d654960403392a4337f25ce8023f13f06ca0d767e94c9b8af89bb3acb2ccb35720e79a7fa12cacdc0ae600080a4565b63eac1efd960e01b600052600360045260246000fd5b90506020813d60201161217c575b8161216d602093836115fe565b810103126109e65751386120dc565b3d9150612160565b6040513d6000823e3d90fd5b85906371c4efed60e01b60005260045260245260446000fd5b90946020823d6020116121d5575b816121c4602093836115fe565b810103126101b55750519338612096565b3d91506121b7565b63eac1efd960e01b600052600260045260246000fd5b90506020813d60201161221d575b8161220e602093836115fe565b810103126109e657513861201a565b3d9150612201565b90956020823d602011612251575b81612240602093836115fe565b810103126101b55750519438611fd6565b3d9150612233565b63eac1efd960e01b600052600160045260246000fd5b90506020813d602011612299575b8161228a602093836115fe565b810103126109e6575138611f6c565b3d915061227d565b90956020823d6020116122cd575b816122bc602093836115fe565b810103126101b55750519438611f28565b3d91506122af565b915093506020813d602011612306575b816122f2602093836115fe565b810103126109e65751928490611ec5611eb6565b3d91506122e5565b9091506020813d60201161233a575b8161232a602093836115fe565b810103126109e657519038611e78565b3d915061231d565b506020813d60201161236d575b8161235c602093836115fe565b810103126109e65760249051611e3c565b3d915061234f565b60ff60008051602061264d8339815191525460401c161561239257565b631afcd79f60e31b60005260046000fd5b906000602091828151910182855af115612184576000513d6123f557506001600160a01b0381163b155b6123d45750565b635274afe760e01b60009081526001600160a01b0391909116600452602490fd5b600114156123cd565b815191906041830361242f5761242892506020820151906060604084015193015160001a90612523565b9192909190565b505060009160029190565b91909160048110156124ac578061245057509050565b60006001820361246b5763f645eedf60e01b60005260046000fd5b5060028103612489578263fce698f760e01b60005260045260246000fd5b9091600360009214612499575050565b6335e2f38360e21b825260045260249150fd5b634e487b7160e01b600052602160045260246000fd5b906124e857508051156124d757602081519101fd5b63d6bda27560e01b60005260046000fd5b8151158061251a575b6124f9575090565b639996b31560e01b60009081526001600160a01b0391909116600452602490fd5b50803b156124f1565b91907f7fffffffffffffffffffffffffffffff5d576e7357a4501ddfe92f46681b20a084116125a0579160209360809260ff60009560405194855216868401526040830152606082015282805260015afa15612184576000516001600160a01b038116156125945790600090600090565b50600090600190600090565b5050506000916003919056fe9016d09d72d40fdae2fd8ceac6b6234c7706214fd39c1cd1e609a0528c199300fc8737ab85eb45125971625a9ebdb75cc78e01d5c1fa80c4c6e5203f47bc4fab360894a13ba1a3210667c828492db98dca3e2076cc3735a920a3ca505d382bbc02dd7bc7dec4dceedda775e58dd541e08a116c6c53815c0bd028192f7b6268009b779b17422d0df92223018b32b4d1fa46e071723d6817e2486d003becc55f00f0c57e16840df040f15088dc2f81fe391c3923bec73e23a9662efc9c229c6a00237e158222e3e6968b72b9db0d8043aacf074ad9f650f0d1606b4d82ee432c00a164736f6c634300081c000a",
  "linkReferences": {},
  "deployedLinkReferences": {}
}