{
  "_format": "hh-sol-artifact-1",
  "contractName": "Depositor",
  "sourceName": "contracts/Depositor.sol",
  "abi": [
    {
      "inputs": [],
      "name": "AccessControlBadConfirmation",
      "type": "error"
    },
    {
      "inputs": [
        {
          "internalType": "address",
          "name": "account",
          "type": "address"
        },
        {
          "internalType": "bytes32",
          "name": "neededRole",
          "type": "bytes32"
        }
      ],
      "name": "AccessControlUnauthorizedAccount",
      "type": "error"
    },
    {
      "inputs": [],
      "name": "AmlSignatureAlreadyUsed",
      "type": "error"
    },
    {
      "inputs": [],
      "name": "AmlSignatureExpired",
      "type": "error"
    },
    {
      "inputs": [],
      "name": "ECDSAInvalidSignature",
      "type": "error"
    },
    {
      "inputs": [
        {
          "internalType": "uint256",
          "name": "length",
          "type": "uint256"
        }
      ],
      "name": "ECDSAInvalidSignatureLength",
      "type": "error"
    },
    {
      "inputs": [
        {
          "internalType": "bytes32",
          "name": "s",
          "type": "bytes32"
        }
      ],
      "name": "ECDSAInvalidSignatureS",
      "type": "error"
    },
    {
      "inputs": [
        {
          "internalType": "string",
          "name": "",
          "type": "string"
        }
      ],
      "name": "InvalidAddress",
      "type": "error"
    },
    {
      "inputs": [],
      "name": "InvalidAmlSignature",
      "type": "error"
    },
    {
      "inputs": [],
      "name": "InvalidAmlSigner",
      "type": "error"
    },
    {
      "inputs": [],
      "name": "InvalidAmount",
      "type": "error"
    },
    {
      "inputs": [],
      "name": "InvalidInitialization",
      "type": "error"
    },
    {
      "inputs": [],
      "name": "NotInitializing",
      "type": "error"
    },
    {
      "inputs": [
        {
          "internalType": "address",
          "name": "token",
          "type": "address"
        }
      ],
      "name": "SafeERC20FailedOperation",
      "type": "error"
    },
    {
      "anonymous": false,
      "inputs": [
        {
          "indexed": true,
          "internalType": "address",
          "name": "user",
          "type": "address"
        },
        {
          "indexed": false,
          "internalType": "uint256",
          "name": "amount",
          "type": "uint256"
        },
        {
          "indexed": false,
          "internalType": "address",
          "name": "depositToken",
          "type": "address"
        },
        {
          "indexed": false,
          "internalType": "address",
          "name": "shareToken",
          "type": "address"
        },
        {
          "indexed": false,
          "internalType": "address",
          "name": "destinationAddress",
          "type": "address"
        }
      ],
      "name": "Deposit",
      "type": "event"
    },
    {
      "anonymous": false,
      "inputs": [
        {
          "indexed": false,
          "internalType": "address",
          "name": "depositTokenAddress",
          "type": "address"
        },
        {
          "indexed": false,
          "internalType": "address",
          "name": "shareTokenAddress",
          "type": "address"
        },
        {
          "indexed": false,
          "internalType": "address",
          "name": "amlSignerAddress",
          "type": "address"
        },
        {
          "indexed": false,
          "internalType": "address",
          "name": "destinationManagerAddress",
          "type": "address"
        }
      ],
      "name": "DepositInitialized",
      "type": "event"
    },
    {
      "anonymous": false,
      "inputs": [
        {
          "indexed": false,
          "internalType": "address",
          "name": "destination",
          "type": "address"
        }
      ],
      "name": "DestinationAddressAdded",
      "type": "event"
    },
    {
      "anonymous": false,
      "inputs": [
        {
          "indexed": false,
          "internalType": "address",
          "name": "destination",
          "type": "address"
        }
      ],
      "name": "DestinationAddressRemoved",
      "type": "event"
    },
    {
      "anonymous": false,
      "inputs": [
        {
          "indexed": false,
          "internalType": "address",
          "name": "destination",
          "type": "address"
        }
      ],
      "name": "DestinationAddressSkipped",
      "type": "event"
    },
    {
      "anonymous": false,
      "inputs": [
        {
          "indexed": false,
          "internalType": "uint64",
          "name": "version",
          "type": "uint64"
        }
      ],
      "name": "Initialized",
      "type": "event"
    },
    {
      "anonymous": false,
      "inputs": [
        {
          "indexed": true,
          "internalType": "bytes32",
          "name": "role",
          "type": "bytes32"
        },
        {
          "indexed": true,
          "internalType": "bytes32",
          "name": "previousAdminRole",
          "type": "bytes32"
        },
        {
          "indexed": true,
          "internalType": "bytes32",
          "name": "newAdminRole",
          "type": "bytes32"
        }
      ],
      "name": "RoleAdminChanged",
      "type": "event"
    },
    {
      "anonymous": false,
      "inputs": [
        {
          "indexed": true,
          "internalType": "bytes32",
          "name": "role",
          "type": "bytes32"
        },
        {
          "indexed": true,
          "internalType": "address",
          "name": "account",
          "type": "address"
        },
        {
          "indexed": true,
          "internalType": "address",
          "name": "sender",
          "type": "address"
        }
      ],
      "name": "RoleGranted",
      "type": "event"
    },
    {
      "anonymous": false,
      "inputs": [
        {
          "indexed": true,
          "internalType": "bytes32",
          "name": "role",
          "type": "bytes32"
        },
        {
          "indexed": true,
          "internalType": "address",
          "name": "account",
          "type": "address"
        },
        {
          "indexed": true,
          "internalType": "address",
          "name": "sender",
          "type": "address"
        }
      ],
      "name": "RoleRevoked",
      "type": "event"
    },
    {
      "inputs": [],
      "name": "DEFAULT_ADMIN_ROLE",
      "outputs": [
        {
          "internalType": "bytes32",
          "name": "",
          "type": "bytes32"
        }
      ],
      "stateMutability": "view",
      "type": "function"
    },
    {
      "inputs": [],
      "name": "DESTINATION_MANAGER_ADMIN_ROLE",
      "outputs": [
        {
          "internalType": "bytes32",
          "name": "",
          "type": "bytes32"
        }
      ],
      "stateMutability": "view",
      "type": "function"
    },
    {
      "inputs": [],
      "name": "DESTINATION_MANAGER_ROLE",
      "outputs": [
        {
          "internalType": "bytes32",
          "name": "",
          "type": "bytes32"
        }
      ],
      "stateMutability": "view",
      "type": "function"
    },
    {
      "inputs": [
        {
          "internalType": "address",
          "name": "_destination",
          "type": "address"
        }
      ],
      "name": "addDestinationAddress",
      "outputs": [],
      "stateMutability": "nonpayable",
      "type": "function"
    },
    {
      "inputs": [],
      "name": "amlSigner",
      "outputs": [
        {
          "internalType": "address",
          "name": "",
          "type": "address"
        }
      ],
      "stateMutability": "view",
      "type": "function"
    },
    {
      "inputs": [],
      "name": "crossChainVault",
      "outputs": [
        {
          "internalType": "contract CrossChainVault",
          "name": "",
          "type": "address"
        }
      ],
      "stateMutability": "view",
      "type": "function"
    },
    {
      "inputs": [
        {
          "internalType": "uint256",
          "name": "_amount",
          "type": "uint256"
        },
        {
          "internalType": "address",
          "name": "_destinationAddress",
          "type": "address"
        },
        {
          "internalType": "bytes",
          "name": "_amlSignature",
          "type": "bytes"
        },
        {
          "internalType": "uint256",
          "name": "_amlDeadline",
          "type": "uint256"
        }
      ],
      "name": "deposit",
      "outputs": [],
      "stateMutability": "nonpayable",
      "type": "function"
    },
    {
      "inputs": [
        {
          "internalType": "uint256",
          "name": "_amount",
          "type": "uint256"
        },
        {
          "internalType": "address",
          "name": "_destinationAddress",
          "type": "address"
        },
        {
          "internalType": "bytes",
          "name": "_amlSignature",
          "type": "bytes"
        },
        {
          "internalType": "uint256",
          "name": "_amlDeadline",
          "type": "uint256"
        },
        {
          "internalType": "uint256",
          "name": "_permitDeadline",
          "type": "uint256"
        },
        {
          "internalType": "uint8",
          "name": "_v",
          "type": "uint8"
        },
        {
          "internalType": "bytes32",
          "name": "_r",
          "type": "bytes32"
        },
        {
          "internalType": "bytes32",
          "name": "_s",
          "type": "bytes32"
        },
        {
          "internalType": "uint16",
          "name": "targetChain",
          "type": "uint16"
        },
        {
          "internalType": "uint32",
          "name": "batchId",
          "type": "uint32"
        }
      ],
      "name": "depositCrossChain",
      "outputs": [],
      "stateMutability": "nonpayable",
      "type": "function"
    },
    {
      "inputs": [],
      "name": "depositToken",
      "outputs": [
        {
          "internalType": "contract CustomToken",
          "name": "",
          "type": "address"
        }
      ],
      "stateMutability": "view",
      "type": "function"
    },
    {
      "inputs": [
        {
          "internalType": "uint256",
          "name": "_amount",
          "type": "uint256"
        },
        {
          "internalType": "address",
          "name": "_destinationAddress",
          "type": "address"
        },
        {
          "internalType": "bytes",
          "name": "_amlSignature",
          "type": "bytes"
        },
        {
          "internalType": "uint256",
          "name": "_amlDeadline",
          "type": "uint256"
        },
        {
          "internalType": "uint256",
          "name": "_permitDeadline",
          "type": "uint256"
        },
        {
          "internalType": "uint8",
          "name": "_v",
          "type": "uint8"
        },
        {
          "internalType": "bytes32",
          "name": "_r",
          "type": "bytes32"
        },
        {
          "internalType": "bytes32",
          "name": "_s",
          "type": "bytes32"
        }
      ],
      "name": "depositWithPermit",
      "outputs": [],
      "stateMutability": "nonpayable",
      "type": "function"
    },
    {
      "inputs": [
        {
          "internalType": "uint256",
          "name": "",
          "type": "uint256"
        }
      ],
      "name": "destinationAddresses",
      "outputs": [
        {
          "internalType": "address",
          "name": "",
          "type": "address"
        }
      ],
      "stateMutability": "view",
      "type": "function"
    },
    {
      "inputs": [],
      "name": "getDestinationAddresses",
      "outputs": [
        {
          "internalType": "address[]",
          "name": "",
          "type": "address[]"
        }
      ],
      "stateMutability": "view",
      "type": "function"
    },
    {
      "inputs": [
        {
          "internalType": "bytes32",
          "name": "role",
          "type": "bytes32"
        }
      ],
      "name": "getRoleAdmin",
      "outputs": [
        {
          "internalType": "bytes32",
          "name": "",
          "type": "bytes32"
        }
      ],
      "stateMutability": "view",
      "type": "function"
    },
    {
      "inputs": [
        {
          "internalType": "bytes32",
          "name": "role",
          "type": "bytes32"
        },
        {
          "internalType": "address",
          "name": "account",
          "type": "address"
        }
      ],
      "name": "grantRole",
      "outputs": [],
      "stateMutability": "nonpayable",
      "type": "function"
    },
    {
      "inputs": [
        {
          "internalType": "bytes32",
          "name": "role",
          "type": "bytes32"
        },
        {
          "internalType": "address",
          "name": "account",
          "type": "address"
        }
      ],
      "name": "hasRole",
      "outputs": [
        {
          "internalType": "bool",
          "name": "",
          "type": "bool"
        }
      ],
      "stateMutability": "view",
      "type": "function"
    },
    {
      "inputs": [
        {
          "internalType": "address",
          "name": "_depositTokenAddress",
          "type": "address"
        },
        {
          "internalType": "address",
          "name": "_shareTokenAddress",
          "type": "address"
        },
        {
          "internalType": "address",
          "name": "_amlSignerAddress",
          "type": "address"
        },
        {
          "internalType": "address",
          "name": "_destinationManagerAddress",
          "type": "address"
        }
      ],
      "name": "initialize",
      "outputs": [],
      "stateMutability": "nonpayable",
      "type": "function"
    },
    {
      "inputs": [
        {
          "internalType": "address",
          "name": "_destination",
          "type": "address"
        }
      ],
      "name": "isDestination",
      "outputs": [
        {
          "internalType": "bool",
          "name": "",
          "type": "bool"
        }
      ],
      "stateMutability": "view",
      "type": "function"
    },
    {
      "inputs": [
        {
          "internalType": "address",
          "name": "_destination",
          "type": "address"
        }
      ],
      "name": "removeDestinationAddress",
      "outputs": [],
      "stateMutability": "nonpayable",
      "type": "function"
    },
    {
      "inputs": [
        {
          "internalType": "bytes32",
          "name": "role",
          "type": "bytes32"
        },
        {
          "internalType": "address",
          "name": "callerConfirmation",
          "type": "address"
        }
      ],
      "name": "renounceRole",
      "outputs": [],
      "stateMutability": "nonpayable",
      "type": "function"
    },
    {
      "inputs": [
        {
          "internalType": "bytes32",
          "name": "role",
          "type": "bytes32"
        },
        {
          "internalType": "address",
          "name": "account",
          "type": "address"
        }
      ],
      "name": "revokeRole",
      "outputs": [],
      "stateMutability": "nonpayable",
      "type": "function"
    },
    {
      "inputs": [],
      "name": "shareToken",
      "outputs": [
        {
          "internalType": "address",
          "name": "",
          "type": "address"
        }
      ],
      "stateMutability": "view",
      "type": "function"
    },
    {
      "inputs": [
        {
          "internalType": "bytes4",
          "name": "interfaceId",
          "type": "bytes4"
        }
      ],
      "name": "supportsInterface",
      "outputs": [
        {
          "internalType": "bool",
          "name": "",
          "type": "bool"
        }
      ],
      "stateMutability": "view",
      "type": "function"
    },
    {
      "inputs": [
        {
          "internalType": "bytes32",
          "name": "",
          "type": "bytes32"
        }
      ],
      "name": "usedSignatures",
      "outputs": [
        {
          "internalType": "bool",
          "name": "",
          "type": "bool"
        }
      ],
      "stateMutability": "view",
      "type": "function"
    }
  ],
  "bytecode": "0x608080604052346015576117de908161001b8239f35b600080fdfe608080604052600436101561001357600080fd5b600090813560e01c90816301ffc9a714610c21575080630b2ff35214610a625780630ce32eb31461099a578063248a9ca31461097357806325f2ba49146109385780632c7e2d5e1461090f5780632f2ff15d146108dd57806333f993cd146107db57806336568abe146107965780633d13272b1461076d5780636147da56146107445780636193d018146107005780636c9fa59e146106d75780638c393558146106ad57806391d1485414610654578063a217fddf14610638578063aaaae3421461060a578063c89039c5146105e3578063d547741f146105a8578063df88933c1461054b578063e3f248a41461051e578063f8c8765e1461014f5763f978fd611461011e57600080fd5b3461014c57602036600319011261014c5760ff60406020926004358152600584522054166040519015158152f35b80fd5b503461014c57608036600319011261014c57610169610c91565b610171610c76565b6044356001600160a01b038116919082900361051a57606435906001600160a01b03821680830361051657600080516020611792833981519152549460ff8660401c16159567ffffffffffffffff81168015908161050e575b6001149081610504575b1590816104fb575b506104ec5767ffffffffffffffff19811660011760008051602061179283398151915255866104bf575b5060ff6000805160206117928339815191525460401c16156104b0576001600160a01b031691821561047a576001600160a01b03169384156104465780156104135781156103d7577fc2ce53524e57a85c393f9d87b3fcdde7998ffd0a57cce245454d2d8e440960a99461035f608095856001600160601b0360a01b8b5416178a55826001600160601b0360a01b6002541617600255836001600160601b0360a01b60035416176003556000805160206117b28339815191528a526000805160206117728339815191526020527f0a160a5caf036f8340e8ee83de9fc0ad381d65eb292d6dfa44b33f603e10eae08a8160016040818185200154936000805160206117b283398151915281526000805160206117728339815191526020522001556000805160206117b28339815191527fbd79b86ffe0ab8e8776151514217cd7cacd52c909f66475c3af44e129f0b00ff8d80a46112c3565b50604051938452602084015260408301526060820152a161037d5780f35b68ff0000000000000000196000805160206117928339815191525416600080516020611792833981519152557fc7f505b2f371ae2175ee4913f4499e1f2633a7b5936321eed1cdaeb6115181d2602060405160018152a180f35b604051630b0f5aa160e11b81526020600482015260136024820152723232b9ba34b730ba34b7b71036b0b730b3b2b960691b6044820152606490fd5b604051630b0f5aa160e11b815260206004820152600a60248201526930b6b61039b4b3b732b960b11b6044820152606490fd5b604051630b0f5aa160e11b815260206004820152600b60248201526a39b430b932903a37b5b2b760a91b6044820152606490fd5b604051630b0f5aa160e11b815260206004820152600d60248201526c3232b837b9b4ba103a37b5b2b760991b6044820152606490fd5b631afcd79f60e31b8752600487fd5b68ffffffffffffffffff191668010000000000000001176000805160206117928339815191525538610206565b63f92ee8a960e01b8852600488fd5b905015386101dc565b303b1591506101d4565b8891506101ca565b8580fd5b8380fd5b503461014c57602036600319011261014c5761054861053b610c91565b610543611219565b610f13565b80f35b503461014c57608036600319011261014c57600435610568610c76565b6044359167ffffffffffffffff831161051a576105a361058f610548943690600401610ca7565b6064359161059e83878761101a565b611079565b611440565b503461014c57604036600319011261014c576105df6004356105c8610c76565b906105da6105d582610d4e565b611279565b611584565b5080f35b503461014c578060031936011261014c57546040516001600160a01b039091168152602090f35b503461014c57602036600319011261014c57602061062e610629610c91565b610ec8565b6040519015158152f35b503461014c578060031936011261014c57602090604051908152f35b503461014c57604036600319011261014c576040610670610c76565b916004358152600080516020611772833981519152602052209060018060a01b0316600052602052602060ff604060002054166040519015158152f35b503461014c57602036600319011261014c576105486106ca610c91565b6106d2611219565b610d6f565b503461014c578060031936011261014c576002546040516001600160a01b039091168152602090f35b503461014c57602036600319011261014c576004359060045482101561014c57602061072b83610ce5565b905460405160039290921b1c6001600160a01b03168152f35b503461014c578060031936011261014c576003546040516001600160a01b039091168152602090f35b503461014c578060031936011261014c576001546040516001600160a01b039091168152602090f35b503461014c57604036600319011261014c576107b0610c76565b336001600160a01b038216036107cc576105df90600435611584565b63334bd91960e11b8252600482fd5b503461014c5761010036600319011261014c576004356107f9610c76565b8260443567ffffffffffffffff81116108d95761081d610838913690600401610ca7565b6064929192359061082c610cd5565b9361059e83888a61101a565b81546001600160a01b0316803b156108ca5760405163d505accf60e01b81523360048201523060248201526044810186905260848035606483015260ff939093169281019290925260c4803560a484015260e48035918401919091528391839190829084905af180156108ce576108b5575b505061054891611440565b816108bf91610d16565b6108ca5782386108aa565b8280fd5b6040513d84823e3d90fd5b5080fd5b503461014c57604036600319011261014c576105df6004356108fd610c76565b9061090a6105d582610d4e565b611397565b503461014c578060031936011261014c5760206040516000805160206117b28339815191528152f35b503461014c578060031936011261014c5760206040517f0a160a5caf036f8340e8ee83de9fc0ad381d65eb292d6dfa44b33f603e10eae08152f35b503461014c57602036600319011261014c576020610992600435610d4e565b604051908152f35b503461014c578060031936011261014c5760405180602060045491828152018091600485527f8a35acfbc15ff81a39ae7d344fd709f28e8600b4aa8c65c6b64bfe7fe36bd19b90855b818110610a4357505050826109f9910383610d16565b604051928392602084019060208552518091526040840192915b818110610a21575050500390f35b82516001600160a01b0316845285945060209384019390920191600101610a13565b82546001600160a01b03168452602090930192600192830192016109e3565b503461014c5761014036600319011261014c57600435610a80610c76565b9060443567ffffffffffffffff811161051a57610aa1903690600401610ca7565b90928460643594610ab0610cd5565b90610104359661ffff881680980361051a57610124359563ffffffff8716809703610c1d57610ae49261059e83888b61101a565b81546001600160a01b031690813b156108ca5760405163d505accf60e01b81523360048201523060248201526044810187905260848035606483015260ff929092169181019190915260c4803560a483015260e4803591830191909152909291839190829084905af18015610c1257610bf6575b50600154855460405163ce2971cf60e01b81526001600160a01b039182166004820152602481019590955260448501959095526064840192909252831660848301529091602091839160a49183918791165af180156108ce57610bb9575080f35b6020813d602011610bee575b81610bd260209383610d16565b810103126108d9575167ffffffffffffffff81160361014c5780f35b3d9150610bc5565b9185610c0860a4939760209695610d16565b9591509192610b58565b6040513d88823e3d90fd5b8480fd5b9050346108d95760203660031901126108d95760043563ffffffff60e01b81168091036108ca5760209250637965db0b60e01b8114908115610c65575b5015158152f35b6301ffc9a760e01b14905038610c5e565b602435906001600160a01b0382168203610c8c57565b600080fd5b600435906001600160a01b0382168203610c8c57565b9181601f84011215610c8c5782359167ffffffffffffffff8311610c8c5760208381860195010111610c8c57565b60a4359060ff82168203610c8c57565b600454811015610d0057600460005260206000200190600090565b634e487b7160e01b600052603260045260246000fd5b90601f8019910116810190811067ffffffffffffffff821117610d3857604052565b634e487b7160e01b600052604160045260246000fd5b60005260008051602061177283398151915260205260016040600020015490565b6000905b6004549182811015610e8e57610d8881610ce5565b90546001600160a01b03848116959260031b9190911c168414610db057506001019150610d73565b600019810192508211610e7857610de4610dcc610e0893610ce5565b905460039190911b1c6001600160a01b031691610ce5565b81546001600160a01b0393841660039290921b91821b9390911b1916919091179055565b6004548015610e62577febe8af0714f0dd4a7b23bc7163ea1aadcce97af7a8ec25343abdbccdb2ea8a669160209160001901610e4381610ce5565b81549060018060a01b039060031b1b19169055600455604051908152a1565b634e487b7160e01b600052603160045260246000fd5b634e487b7160e01b600052601160045260246000fd5b506040516001600160a01b0390911681527f52d051a942d5c9a74e875d9faaa59f6de2ecefa16c6844af092cc73f749baad49150602090a1565b6004549060005b828110610ede57505050600090565b610ee781610ce5565b905460039190911b1c6001600160a01b0390811690831614610f0b57600101610ecf565b505050600190565b6001600160a01b038116908115610fde576004549160005b838110610f84575068010000000000000000831015610d3857610f7b602092610de48560017fcef021749a809ea9d2e4eb3f28a169c12227e99b0bca877f3950fb8c2ccfaa629701600455610ce5565b604051908152a1565b81610f8e82610ce5565b905460039190911b1c6001600160a01b031614610fad57600101610f2b565b507f52d051a942d5c9a74e875d9faaa59f6de2ecefa16c6844af092cc73f749baad4925060209150604051908152a1565b604051630b0f5aa160e11b815260206004820152601360248201527264657374696e6174696f6e206164647265737360681b6044820152606490fd5b916040519160208301937fa79feebba5eca838f5afb25f042ef9dbee2e9824463ec262b652584c92f243638552336040850152606084015260018060a01b0316608083015260a082015260a0815261107360c082610d16565b51902090565b9242116112085782600052600560205260ff604060002054166111f757604260405160208101907f8b73c3c69bb8fe3d512ecc4cf759cc79239f7b179b0ffacaa9a75d522b39400f82527fd50fd8c1b5fa5213a5974932fcc33d2992a99225bc9319caf7cf652d0d2b9acf60408201527fc89efdaa54c0f20c7adf612882df0950f5a951637e0307cdcb4c672f298b8bc660608201524660808201523060a082015260a0815261112a60c082610d16565b5190206040519061190160f01b825260028201528460228201522067ffffffffffffffff8311610d38576040519061116c601f8501601f191660200183610d16565b8382523684840111610c8c57600060208561119b96611192968387013784010152611624565b90929192611660565b6001600160a01b031680156111e6576003546001600160a01b0316036111d55760005260056020526040600020600160ff19825416179055565b63d1cc738560e01b60005260046000fd5b638bb79cad60e01b60005260046000fd5b63e544c62f60e01b60005260046000fd5b63288a076f60e21b60005260046000fd5b3360009081527fe0f49631d31e008cd72b9d6c5c7f7b2aea3c32d690788903106296f865135b11602052604090205460ff161561125257565b63e2517d3f60e01b600052336004526000805160206117b283398151915260245260446000fd5b60008181526000805160206117728339815191526020908152604080832033845290915290205460ff16156112ab5750565b63e2517d3f60e01b6000523360045260245260446000fd5b6001600160a01b03811660009081527f29b8ff238ebd8c7d6f606a8413b26e49d7fdde8308763ac1856181e9dfcb517f602052604090205460ff16611391576001600160a01b031660008181527f29b8ff238ebd8c7d6f606a8413b26e49d7fdde8308763ac1856181e9dfcb517f60205260408120805460ff191660011790553391907f0a160a5caf036f8340e8ee83de9fc0ad381d65eb292d6dfa44b33f603e10eae0907f2f8788117e7eff1d82e926ec794901d17c78024a50270940304540a733656f0d9080a4600190565b50600090565b6000818152600080516020611772833981519152602090815260408083206001600160a01b038616845290915290205460ff16611439576000818152600080516020611772833981519152602090815260408083206001600160a01b0395909516808452949091528120805460ff19166001179055339291907f2f8788117e7eff1d82e926ec794901d17c78024a50270940304540a733656f0d9080a4600190565b5050600090565b908115611573576001600160a01b03811690811561153f5761146190610ec8565b1561153f5760018060a01b036000541660206000604051828101906323b872dd60e01b8252336024820152856044820152866064820152606481526114a7608482610d16565b519082855af115611533576000513d61152a5750803b155b6115165750600054600254604080519485526001600160a01b039283166020860152911690830152606082015233907fadc9c3953f85fcc1d3ded4ae5226e7508f849a2e6682438a2401ccd7cbc7ceb390608090a2565b635274afe760e01b60005260045260246000fd5b600114156114bf565b6040513d6000823e3d90fd5b604051630b0f5aa160e11b815260206004820152600b60248201526a3232b9ba34b730ba34b7b760a91b6044820152606490fd5b63162908e360e11b60005260046000fd5b6000818152600080516020611772833981519152602090815260408083206001600160a01b038616845290915290205460ff1615611439576000818152600080516020611772833981519152602090815260408083206001600160a01b0395909516808452949091528120805460ff19169055339291907ff6391f5c32d9c69d2a47ea670b442974b53935d1edc7fd64eb21e047a839171b9080a4600190565b81519190604183036116555761164e92506020820151906060604084015193015160001a906116e8565b9192909190565b505060009160029190565b91909160048110156116d2578061167657509050565b6000600182036116915763f645eedf60e01b60005260046000fd5b50600281036116af578263fce698f760e01b60005260045260246000fd5b90916003600092146116bf575050565b6335e2f38360e21b825260045260249150fd5b634e487b7160e01b600052602160045260246000fd5b91907f7fffffffffffffffffffffffffffffff5d576e7357a4501ddfe92f46681b20a08411611765579160209360809260ff60009560405194855216868401526040830152606082015282805260015afa15611533576000516001600160a01b038116156117595790600090600090565b50600090600190600090565b5050506000916003919056fe02dd7bc7dec4dceedda775e58dd541e08a116c6c53815c0bd028192f7b626800f0c57e16840df040f15088dc2f81fe391c3923bec73e23a9662efc9c229c6a00224ddcd460adf9de7c6e6271e8a93026e66a0cec23d4223bbe4cdea09e0b7d34a164736f6c634300081c000a",
  "linkReferences": {},
  "deployedLinkReferences": {}
}