{
  "_format": "hh-sol-artifact-1",
  "contractName": "Depositor",
  "sourceName": "contracts/Depositor.sol",
  "abi": [
    {
      "inputs": [],
      "name": "AmlSignatureAlreadyUsed",
      "type": "error"
    },
    {
      "inputs": [],
      "name": "AmlSignatureExpired",
      "type": "error"
    },
    {
      "inputs": [],
      "name": "ECDSAInvalidSignature",
      "type": "error"
    },
    {
      "inputs": [
        {
          "internalType": "uint256",
          "name": "length",
          "type": "uint256"
        }
      ],
      "name": "ECDSAInvalidSignatureLength",
      "type": "error"
    },
    {
      "inputs": [
        {
          "internalType": "bytes32",
          "name": "s",
          "type": "bytes32"
        }
      ],
      "name": "ECDSAInvalidSignatureS",
      "type": "error"
    },
    {
      "inputs": [
        {
          "internalType": "string",
          "name": "",
          "type": "string"
        }
      ],
      "name": "InvalidAddress",
      "type": "error"
    },
    {
      "inputs": [],
      "name": "InvalidAmlSignature",
      "type": "error"
    },
    {
      "inputs": [],
      "name": "InvalidAmlSigner",
      "type": "error"
    },
    {
      "inputs": [],
      "name": "InvalidAmount",
      "type": "error"
    },
    {
      "inputs": [],
      "name": "InvalidInitialization",
      "type": "error"
    },
    {
      "inputs": [],
      "name": "NotInitializing",
      "type": "error"
    },
    {
      "inputs": [
        {
          "internalType": "address",
          "name": "token",
          "type": "address"
        }
      ],
      "name": "SafeERC20FailedOperation",
      "type": "error"
    },
    {
      "anonymous": false,
      "inputs": [
        {
          "indexed": true,
          "internalType": "address",
          "name": "user",
          "type": "address"
        },
        {
          "indexed": false,
          "internalType": "uint256",
          "name": "amount",
          "type": "uint256"
        },
        {
          "indexed": false,
          "internalType": "address",
          "name": "depositToken",
          "type": "address"
        },
        {
          "indexed": false,
          "internalType": "address",
          "name": "shareToken",
          "type": "address"
        },
        {
          "indexed": false,
          "internalType": "address",
          "name": "destinationAddress",
          "type": "address"
        }
      ],
      "name": "Deposit",
      "type": "event"
    },
    {
      "anonymous": false,
      "inputs": [
        {
          "indexed": false,
          "internalType": "uint64",
          "name": "version",
          "type": "uint64"
        }
      ],
      "name": "Initialized",
      "type": "event"
    },
    {
      "inputs": [],
      "name": "amlSigner",
      "outputs": [
        {
          "internalType": "address",
          "name": "",
          "type": "address"
        }
      ],
      "stateMutability": "view",
      "type": "function"
    },
    {
      "inputs": [
        {
          "internalType": "uint256",
          "name": "_amount",
          "type": "uint256"
        },
        {
          "internalType": "address",
          "name": "_destinationAddress",
          "type": "address"
        },
        {
          "internalType": "bytes",
          "name": "_amlSignature",
          "type": "bytes"
        },
        {
          "internalType": "uint256",
          "name": "_amlDeadline",
          "type": "uint256"
        }
      ],
      "name": "deposit",
      "outputs": [],
      "stateMutability": "nonpayable",
      "type": "function"
    },
    {
      "inputs": [],
      "name": "depositToken",
      "outputs": [
        {
          "internalType": "contract CustomToken",
          "name": "",
          "type": "address"
        }
      ],
      "stateMutability": "view",
      "type": "function"
    },
    {
      "inputs": [
        {
          "internalType": "uint256",
          "name": "_amount",
          "type": "uint256"
        },
        {
          "internalType": "address",
          "name": "_destinationAddress",
          "type": "address"
        },
        {
          "internalType": "bytes",
          "name": "_amlSignature",
          "type": "bytes"
        },
        {
          "internalType": "uint256",
          "name": "_amlDeadline",
          "type": "uint256"
        },
        {
          "internalType": "uint256",
          "name": "_permitDeadline",
          "type": "uint256"
        },
        {
          "internalType": "uint8",
          "name": "_v",
          "type": "uint8"
        },
        {
          "internalType": "bytes32",
          "name": "_r",
          "type": "bytes32"
        },
        {
          "internalType": "bytes32",
          "name": "_s",
          "type": "bytes32"
        }
      ],
      "name": "depositWithPermit",
      "outputs": [],
      "stateMutability": "nonpayable",
      "type": "function"
    },
    {
      "inputs": [
        {
          "internalType": "address",
          "name": "_depositTokenAddress",
          "type": "address"
        },
        {
          "internalType": "address",
          "name": "_shareTokenAddress",
          "type": "address"
        },
        {
          "internalType": "address",
          "name": "_amlSignerAddress",
          "type": "address"
        }
      ],
      "name": "initialize",
      "outputs": [],
      "stateMutability": "nonpayable",
      "type": "function"
    },
    {
      "inputs": [],
      "name": "shareToken",
      "outputs": [
        {
          "internalType": "address",
          "name": "",
          "type": "address"
        }
      ],
      "stateMutability": "view",
      "type": "function"
    },
    {
      "inputs": [
        {
          "internalType": "bytes32",
          "name": "",
          "type": "bytes32"
        }
      ],
      "name": "usedSignatures",
      "outputs": [
        {
          "internalType": "bool",
          "name": "",
          "type": "bool"
        }
      ],
      "stateMutability": "view",
      "type": "function"
    }
  ],
  "bytecode": "0x6080806040523460155761099c908161001b8239f35b600080fdfe6080604052600436101561001257600080fd5b6000803560e01c806333f993cd146103d65780636147da56146103ad5780636c9fa59e14610384578063c0c53b8b14610127578063c89039c514610100578063df88933c1461009b5763f978fd611461006a57600080fd5b346100985760203660031901126100985760ff60406020926004358152600384522054166040519015158152f35b80fd5b5034610098576080366003190112610098576004356100b86104d2565b6044359167ffffffffffffffff83116100fc576100f46100df6100f99436906004016104ed565b606435916100ef838787336107a7565b610553565b610673565b80f35b8380fd5b5034610098578060031936011261009857546040516001600160a01b039091168152602090f35b5034610098576060366003190112610098576004356001600160a01b03811690819003610380576101566104d2565b906044356001600160a01b03811691908290036100fc57600080516020610970833981519152549260ff8460401c16159367ffffffffffffffff811680159081610378575b600114908161036e575b159081610365575b506103565767ffffffffffffffff1981166001176000805160206109708339815191525584610329575b5081156102f3576001600160a01b03169081156102bf57821561028c576001600160601b0360a01b8554161784556001600160601b0360a01b60015416176001556001600160601b0360a01b60025416176002556102325780f35b68ff0000000000000000196000805160206109708339815191525416600080516020610970833981519152557fc7f505b2f371ae2175ee4913f4499e1f2633a7b5936321eed1cdaeb6115181d2602060405160018152a180f35b604051630b0f5aa160e11b815260206004820152600a60248201526930b6b61039b4b3b732b960b11b6044820152606490fd5b604051630b0f5aa160e11b815260206004820152600b60248201526a39b430b932903a37b5b2b760a91b6044820152606490fd5b604051630b0f5aa160e11b815260206004820152600d60248201526c3232b837b9b4ba103a37b5b2b760991b6044820152606490fd5b68ffffffffffffffffff1916680100000000000000011760008051602061097083398151915255386101d7565b63f92ee8a960e01b8652600486fd5b905015386101ad565b303b1591506101a5565b86915061019b565b5080fd5b50346100985780600319360112610098576001546040516001600160a01b039091168152602090f35b50346100985780600319360112610098576002546040516001600160a01b039091168152602090f35b50346100985761010036600319011261009857600435906103f56104d2565b60443567ffffffffffffffff81116104ce576104159036906004016104ed565b6064359060a4359260ff84168094036104ca579082916100ef61043a94878a336107a7565b82546001600160a01b031690813b156100fc57839160e48392604051948593849263d505accf60e01b84523360048501523060248501528a60448501526084356064850152608484015260c43560a4840152833560c48401525af180156104bf576104ab575b506100f99192610673565b916104b9816100f99461051b565b916104a0565b6040513d85823e3d90fd5b8580fd5b8280fd5b602435906001600160a01b03821682036104e857565b600080fd5b9181601f840112156104e85782359167ffffffffffffffff83116104e857602083818601950101116104e857565b90601f8019910116810190811067ffffffffffffffff82111761053d57604052565b634e487b7160e01b600052604160045260246000fd5b92919060018060a01b03600254169242116106625783600052600360205260ff60406000205416610651577f19457468657265756d205369676e6564204d6573736167653a0a33320000000060005283601c52603c60002067ffffffffffffffff831161053d57604051906105d2601f8501601f19166020018361051b565b83825236848401116104e8576000602085610601966105f8968387013784010152610822565b9092919261085e565b6001600160a01b03168015610640570361062f5760005260036020526040600020600160ff19825416179055565b63d1cc738560e01b60005260046000fd5b638bb79cad60e01b60005260046000fd5b63e544c62f60e01b60005260046000fd5b63288a076f60e21b60005260046000fd5b908115610796576001600160a01b031680156107625760018060a01b036000541660206000604051828101906323b872dd60e01b8252336024820152856044820152866064820152606481526106ca60848261051b565b519082855af115610756576000513d61074d5750803b155b6107395750600054600154604080519485526001600160a01b039283166020860152911690830152606082015233907fadc9c3953f85fcc1d3ded4ae5226e7508f849a2e6682438a2401ccd7cbc7ceb390608090a2565b635274afe760e01b60005260045260246000fd5b600114156106e2565b6040513d6000823e3d90fd5b604051630b0f5aa160e11b815260206004820152600b60248201526a3232b9ba34b730ba34b7b760a91b6044820152606490fd5b63162908e360e11b60005260046000fd5b929091600054926001546040519460208601966001600160601b03199060601b1687526001600160601b03199060601b1660348601526001600160601b03199060601b166048850152605c8401526001600160601b03199060601b16607c83015260908201526090815261081c60b08261051b565b51902090565b81519190604183036108535761084c92506020820151906060604084015193015160001a906108e6565b9192909190565b505060009160029190565b91909160048110156108d0578061087457509050565b60006001820361088f5763f645eedf60e01b60005260046000fd5b50600281036108ad578263fce698f760e01b60005260045260246000fd5b90916003600092146108bd575050565b6335e2f38360e21b825260045260249150fd5b634e487b7160e01b600052602160045260246000fd5b91907f7fffffffffffffffffffffffffffffff5d576e7357a4501ddfe92f46681b20a08411610963579160209360809260ff60009560405194855216868401526040830152606082015282805260015afa15610756576000516001600160a01b038116156109575790600090600090565b50600090600190600090565b5050506000916003919056fef0c57e16840df040f15088dc2f81fe391c3923bec73e23a9662efc9c229c6a00a164736f6c634300081c000a",
  "linkReferences": {},
  "deployedLinkReferences": {}
}