{
  "_format": "hh-sol-artifact-1",
  "contractName": "Depositor",
  "sourceName": "contracts/Depositor.sol",
  "abi": [
    {
      "inputs": [],
      "name": "AccessControlBadConfirmation",
      "type": "error"
    },
    {
      "inputs": [
        {
          "internalType": "address",
          "name": "account",
          "type": "address"
        },
        {
          "internalType": "bytes32",
          "name": "neededRole",
          "type": "bytes32"
        }
      ],
      "name": "AccessControlUnauthorizedAccount",
      "type": "error"
    },
    {
      "inputs": [],
      "name": "AmlSignatureAlreadyUsed",
      "type": "error"
    },
    {
      "inputs": [],
      "name": "AmlSignatureExpired",
      "type": "error"
    },
    {
      "inputs": [],
      "name": "ECDSAInvalidSignature",
      "type": "error"
    },
    {
      "inputs": [
        {
          "internalType": "uint256",
          "name": "length",
          "type": "uint256"
        }
      ],
      "name": "ECDSAInvalidSignatureLength",
      "type": "error"
    },
    {
      "inputs": [
        {
          "internalType": "bytes32",
          "name": "s",
          "type": "bytes32"
        }
      ],
      "name": "ECDSAInvalidSignatureS",
      "type": "error"
    },
    {
      "inputs": [
        {
          "internalType": "string",
          "name": "",
          "type": "string"
        }
      ],
      "name": "InvalidAddress",
      "type": "error"
    },
    {
      "inputs": [],
      "name": "InvalidAmlSignature",
      "type": "error"
    },
    {
      "inputs": [],
      "name": "InvalidAmlSigner",
      "type": "error"
    },
    {
      "inputs": [],
      "name": "InvalidAmount",
      "type": "error"
    },
    {
      "inputs": [],
      "name": "InvalidInitialization",
      "type": "error"
    },
    {
      "inputs": [],
      "name": "NotInitializing",
      "type": "error"
    },
    {
      "inputs": [
        {
          "internalType": "address",
          "name": "token",
          "type": "address"
        }
      ],
      "name": "SafeERC20FailedOperation",
      "type": "error"
    },
    {
      "anonymous": false,
      "inputs": [
        {
          "indexed": true,
          "internalType": "address",
          "name": "user",
          "type": "address"
        },
        {
          "indexed": false,
          "internalType": "uint256",
          "name": "amount",
          "type": "uint256"
        },
        {
          "indexed": false,
          "internalType": "address",
          "name": "depositToken",
          "type": "address"
        },
        {
          "indexed": false,
          "internalType": "address",
          "name": "shareToken",
          "type": "address"
        },
        {
          "indexed": false,
          "internalType": "address",
          "name": "destinationAddress",
          "type": "address"
        }
      ],
      "name": "Deposit",
      "type": "event"
    },
    {
      "anonymous": false,
      "inputs": [
        {
          "indexed": false,
          "internalType": "address",
          "name": "depositTokenAddress",
          "type": "address"
        },
        {
          "indexed": false,
          "internalType": "address",
          "name": "shareTokenAddress",
          "type": "address"
        },
        {
          "indexed": false,
          "internalType": "address",
          "name": "amlSignerAddress",
          "type": "address"
        },
        {
          "indexed": false,
          "internalType": "address",
          "name": "destinationManagerAddress",
          "type": "address"
        }
      ],
      "name": "DepositInitialized",
      "type": "event"
    },
    {
      "anonymous": false,
      "inputs": [
        {
          "indexed": false,
          "internalType": "address",
          "name": "destination",
          "type": "address"
        }
      ],
      "name": "DestinationAddressAdded",
      "type": "event"
    },
    {
      "anonymous": false,
      "inputs": [
        {
          "indexed": false,
          "internalType": "address",
          "name": "destination",
          "type": "address"
        }
      ],
      "name": "DestinationAddressRemoved",
      "type": "event"
    },
    {
      "anonymous": false,
      "inputs": [
        {
          "indexed": false,
          "internalType": "address",
          "name": "destination",
          "type": "address"
        }
      ],
      "name": "DestinationAddressSkipped",
      "type": "event"
    },
    {
      "anonymous": false,
      "inputs": [
        {
          "indexed": false,
          "internalType": "uint64",
          "name": "version",
          "type": "uint64"
        }
      ],
      "name": "Initialized",
      "type": "event"
    },
    {
      "anonymous": false,
      "inputs": [
        {
          "indexed": true,
          "internalType": "bytes32",
          "name": "role",
          "type": "bytes32"
        },
        {
          "indexed": true,
          "internalType": "bytes32",
          "name": "previousAdminRole",
          "type": "bytes32"
        },
        {
          "indexed": true,
          "internalType": "bytes32",
          "name": "newAdminRole",
          "type": "bytes32"
        }
      ],
      "name": "RoleAdminChanged",
      "type": "event"
    },
    {
      "anonymous": false,
      "inputs": [
        {
          "indexed": true,
          "internalType": "bytes32",
          "name": "role",
          "type": "bytes32"
        },
        {
          "indexed": true,
          "internalType": "address",
          "name": "account",
          "type": "address"
        },
        {
          "indexed": true,
          "internalType": "address",
          "name": "sender",
          "type": "address"
        }
      ],
      "name": "RoleGranted",
      "type": "event"
    },
    {
      "anonymous": false,
      "inputs": [
        {
          "indexed": true,
          "internalType": "bytes32",
          "name": "role",
          "type": "bytes32"
        },
        {
          "indexed": true,
          "internalType": "address",
          "name": "account",
          "type": "address"
        },
        {
          "indexed": true,
          "internalType": "address",
          "name": "sender",
          "type": "address"
        }
      ],
      "name": "RoleRevoked",
      "type": "event"
    },
    {
      "inputs": [],
      "name": "DEFAULT_ADMIN_ROLE",
      "outputs": [
        {
          "internalType": "bytes32",
          "name": "",
          "type": "bytes32"
        }
      ],
      "stateMutability": "view",
      "type": "function"
    },
    {
      "inputs": [],
      "name": "DESTINATION_MANAGER_ADMIN_ROLE",
      "outputs": [
        {
          "internalType": "bytes32",
          "name": "",
          "type": "bytes32"
        }
      ],
      "stateMutability": "view",
      "type": "function"
    },
    {
      "inputs": [],
      "name": "DESTINATION_MANAGER_ROLE",
      "outputs": [
        {
          "internalType": "bytes32",
          "name": "",
          "type": "bytes32"
        }
      ],
      "stateMutability": "view",
      "type": "function"
    },
    {
      "inputs": [
        {
          "internalType": "address",
          "name": "_destination",
          "type": "address"
        }
      ],
      "name": "addDestinationAddress",
      "outputs": [],
      "stateMutability": "nonpayable",
      "type": "function"
    },
    {
      "inputs": [],
      "name": "amlSigner",
      "outputs": [
        {
          "internalType": "address",
          "name": "",
          "type": "address"
        }
      ],
      "stateMutability": "view",
      "type": "function"
    },
    {
      "inputs": [
        {
          "internalType": "uint256",
          "name": "_amount",
          "type": "uint256"
        },
        {
          "internalType": "address",
          "name": "_destinationAddress",
          "type": "address"
        },
        {
          "internalType": "bytes",
          "name": "_amlSignature",
          "type": "bytes"
        },
        {
          "internalType": "uint256",
          "name": "_amlDeadline",
          "type": "uint256"
        }
      ],
      "name": "deposit",
      "outputs": [],
      "stateMutability": "nonpayable",
      "type": "function"
    },
    {
      "inputs": [],
      "name": "depositToken",
      "outputs": [
        {
          "internalType": "contract CustomToken",
          "name": "",
          "type": "address"
        }
      ],
      "stateMutability": "view",
      "type": "function"
    },
    {
      "inputs": [
        {
          "internalType": "uint256",
          "name": "_amount",
          "type": "uint256"
        },
        {
          "internalType": "address",
          "name": "_destinationAddress",
          "type": "address"
        },
        {
          "internalType": "bytes",
          "name": "_amlSignature",
          "type": "bytes"
        },
        {
          "internalType": "uint256",
          "name": "_amlDeadline",
          "type": "uint256"
        },
        {
          "internalType": "uint256",
          "name": "_permitDeadline",
          "type": "uint256"
        },
        {
          "internalType": "uint8",
          "name": "_v",
          "type": "uint8"
        },
        {
          "internalType": "bytes32",
          "name": "_r",
          "type": "bytes32"
        },
        {
          "internalType": "bytes32",
          "name": "_s",
          "type": "bytes32"
        }
      ],
      "name": "depositWithPermit",
      "outputs": [],
      "stateMutability": "nonpayable",
      "type": "function"
    },
    {
      "inputs": [
        {
          "internalType": "uint256",
          "name": "",
          "type": "uint256"
        }
      ],
      "name": "destinationAddresses",
      "outputs": [
        {
          "internalType": "address",
          "name": "",
          "type": "address"
        }
      ],
      "stateMutability": "view",
      "type": "function"
    },
    {
      "inputs": [],
      "name": "getDestinationAddresses",
      "outputs": [
        {
          "internalType": "address[]",
          "name": "",
          "type": "address[]"
        }
      ],
      "stateMutability": "view",
      "type": "function"
    },
    {
      "inputs": [
        {
          "internalType": "bytes32",
          "name": "role",
          "type": "bytes32"
        }
      ],
      "name": "getRoleAdmin",
      "outputs": [
        {
          "internalType": "bytes32",
          "name": "",
          "type": "bytes32"
        }
      ],
      "stateMutability": "view",
      "type": "function"
    },
    {
      "inputs": [
        {
          "internalType": "bytes32",
          "name": "role",
          "type": "bytes32"
        },
        {
          "internalType": "address",
          "name": "account",
          "type": "address"
        }
      ],
      "name": "grantRole",
      "outputs": [],
      "stateMutability": "nonpayable",
      "type": "function"
    },
    {
      "inputs": [
        {
          "internalType": "bytes32",
          "name": "role",
          "type": "bytes32"
        },
        {
          "internalType": "address",
          "name": "account",
          "type": "address"
        }
      ],
      "name": "hasRole",
      "outputs": [
        {
          "internalType": "bool",
          "name": "",
          "type": "bool"
        }
      ],
      "stateMutability": "view",
      "type": "function"
    },
    {
      "inputs": [
        {
          "internalType": "address",
          "name": "_depositTokenAddress",
          "type": "address"
        },
        {
          "internalType": "address",
          "name": "_shareTokenAddress",
          "type": "address"
        },
        {
          "internalType": "address",
          "name": "_amlSignerAddress",
          "type": "address"
        },
        {
          "internalType": "address",
          "name": "_destinationManagerAddress",
          "type": "address"
        }
      ],
      "name": "initialize",
      "outputs": [],
      "stateMutability": "nonpayable",
      "type": "function"
    },
    {
      "inputs": [
        {
          "internalType": "address",
          "name": "_destination",
          "type": "address"
        }
      ],
      "name": "isDestination",
      "outputs": [
        {
          "internalType": "bool",
          "name": "",
          "type": "bool"
        }
      ],
      "stateMutability": "view",
      "type": "function"
    },
    {
      "inputs": [
        {
          "internalType": "address",
          "name": "_destination",
          "type": "address"
        }
      ],
      "name": "removeDestinationAddress",
      "outputs": [],
      "stateMutability": "nonpayable",
      "type": "function"
    },
    {
      "inputs": [
        {
          "internalType": "bytes32",
          "name": "role",
          "type": "bytes32"
        },
        {
          "internalType": "address",
          "name": "callerConfirmation",
          "type": "address"
        }
      ],
      "name": "renounceRole",
      "outputs": [],
      "stateMutability": "nonpayable",
      "type": "function"
    },
    {
      "inputs": [
        {
          "internalType": "bytes32",
          "name": "role",
          "type": "bytes32"
        },
        {
          "internalType": "address",
          "name": "account",
          "type": "address"
        }
      ],
      "name": "revokeRole",
      "outputs": [],
      "stateMutability": "nonpayable",
      "type": "function"
    },
    {
      "inputs": [],
      "name": "shareToken",
      "outputs": [
        {
          "internalType": "address",
          "name": "",
          "type": "address"
        }
      ],
      "stateMutability": "view",
      "type": "function"
    },
    {
      "inputs": [
        {
          "internalType": "bytes4",
          "name": "interfaceId",
          "type": "bytes4"
        }
      ],
      "name": "supportsInterface",
      "outputs": [
        {
          "internalType": "bool",
          "name": "",
          "type": "bool"
        }
      ],
      "stateMutability": "view",
      "type": "function"
    },
    {
      "inputs": [
        {
          "internalType": "bytes32",
          "name": "",
          "type": "bytes32"
        }
      ],
      "name": "usedSignatures",
      "outputs": [
        {
          "internalType": "bool",
          "name": "",
          "type": "bool"
        }
      ],
      "stateMutability": "view",
      "type": "function"
    }
  ],
  "bytecode": "0x608080604052346015576115c9908161001b8239f35b600080fdfe608080604052600436101561001357600080fd5b600090813560e01c90816301ffc9a714610a18575080630ce32eb314610950578063248a9ca31461092957806325f2ba49146108ee5780632c7e2d5e146108c55780632f2ff15d1461089357806333f993cd1461079c57806336568abe146107575780636147da561461072e5780636193d018146106ea5780636c9fa59e146106c15780638c3935581461069757806391d148541461063e578063a217fddf14610622578063aaaae342146105f4578063c89039c5146105cd578063d547741f14610592578063df88933c14610535578063e3f248a414610508578063f8c8765e146101395763f978fd611461010857600080fd5b346101365760203660031901126101365760ff60406020926004358152600484522054166040519015158152f35b80fd5b503461013657608036600319011261013657610153610a8c565b61015b610a71565b6044356001600160a01b038116919082900361050457606435906001600160a01b0382168083036105005760008051602061157d833981519152549460ff8660401c16159567ffffffffffffffff8116801590816104f8575b60011490816104ee575b1590816104e5575b506104d65767ffffffffffffffff19811660011760008051602061157d83398151915255866104a9575b5060ff60008051602061157d8339815191525460401c161561049a576001600160a01b0316918215610464576001600160a01b03169384156104305780156103fd5781156103c1577fc2ce53524e57a85c393f9d87b3fcdde7998ffd0a57cce245454d2d8e440960a994610349608095856001600160601b0360a01b8b5416178a55826001600160601b0360a01b6001541617600155836001600160601b0360a01b600254161760025560008051602061159d8339815191528a5260008051602061155d8339815191526020527f0a160a5caf036f8340e8ee83de9fc0ad381d65eb292d6dfa44b33f603e10eae08a81600160408181852001549360008051602061159d833981519152815260008051602061155d83398151915260205220015560008051602061159d8339815191527fbd79b86ffe0ab8e8776151514217cd7cacd52c909f66475c3af44e129f0b00ff8d80a4610eaf565b50604051938452602084015260408301526060820152a16103675780f35b68ff00000000000000001960008051602061157d833981519152541660008051602061157d833981519152557fc7f505b2f371ae2175ee4913f4499e1f2633a7b5936321eed1cdaeb6115181d2602060405160018152a180f35b604051630b0f5aa160e11b81526020600482015260136024820152723232b9ba34b730ba34b7b71036b0b730b3b2b960691b6044820152606490fd5b604051630b0f5aa160e11b815260206004820152600a60248201526930b6b61039b4b3b732b960b11b6044820152606490fd5b604051630b0f5aa160e11b815260206004820152600b60248201526a39b430b932903a37b5b2b760a91b6044820152606490fd5b604051630b0f5aa160e11b815260206004820152600d60248201526c3232b837b9b4ba103a37b5b2b760991b6044820152606490fd5b631afcd79f60e31b8752600487fd5b68ffffffffffffffffff1916680100000000000000011760008051602061157d83398151915255386101f0565b63f92ee8a960e01b8852600488fd5b905015386101c6565b303b1591506101be565b8891506101b4565b8580fd5b8380fd5b503461013657602036600319011261013657610532610525610a8c565b61052d610e05565b610cfe565b80f35b503461013657608036600319011261013657600435610552610a71565b6044359167ffffffffffffffff83116105045761058d610579610532943690600401610aa2565b6064359161058883878761102c565b61108b565b61122b565b5034610136576040366003190112610136576105c96004356105b2610a71565b906105c46105bf82610b39565b610e65565b61136f565b5080f35b5034610136578060031936011261013657546040516001600160a01b039091168152602090f35b5034610136576020366003190112610136576020610618610613610a8c565b610cb3565b6040519015158152f35b5034610136578060031936011261013657602090604051908152f35b503461013657604036600319011261013657604061065a610a71565b91600435815260008051602061155d833981519152602052209060018060a01b0316600052602052602060ff604060002054166040519015158152f35b5034610136576020366003190112610136576105326106b4610a8c565b6106bc610e05565b610b5a565b50346101365780600319360112610136576001546040516001600160a01b039091168152602090f35b5034610136576020366003190112610136576004359060035482101561013657602061071583610ad0565b905460405160039290921b1c6001600160a01b03168152f35b50346101365780600319360112610136576002546040516001600160a01b039091168152602090f35b503461013657604036600319011261013657610771610a71565b336001600160a01b0382160361078d576105c99060043561136f565b63334bd91960e11b8252600482fd5b50346101365761010036600319011261013657600435906107bb610a71565b60443567ffffffffffffffff811161088f576107db903690600401610aa2565b6064359060a4359260ff8416809403610500579082916105886107ff94878a61102c565b82546001600160a01b031690813b1561050457839160e48392604051948593849263d505accf60e01b84523360048501523060248501528a60448501526084356064850152608484015260c43560a4840152833560c48401525af1801561088457610870575b50610532919261122b565b9161087e8161053294610b01565b91610865565b6040513d85823e3d90fd5b8280fd5b5034610136576040366003190112610136576105c96004356108b3610a71565b906108c06105bf82610b39565b610f83565b5034610136578060031936011261013657602060405160008051602061159d8339815191528152f35b503461013657806003193601126101365760206040517f0a160a5caf036f8340e8ee83de9fc0ad381d65eb292d6dfa44b33f603e10eae08152f35b5034610136576020366003190112610136576020610948600435610b39565b604051908152f35b503461013657806003193601126101365760405180602060035491828152018091600385527fc2575a0e9e593c00f959f8c92f12db2869c3395a3b0502d05e2516446f71f85b90855b8181106109f957505050826109af910383610b01565b604051928392602084019060208552518091526040840192915b8181106109d7575050500390f35b82516001600160a01b03168452859450602093840193909201916001016109c9565b82546001600160a01b0316845260209093019260019283019201610999565b905034610a6d576020366003190112610a6d5760043563ffffffff60e01b811680910361088f5760209250637965db0b60e01b8114908115610a5c575b5015158152f35b6301ffc9a760e01b14905038610a55565b5080fd5b602435906001600160a01b0382168203610a8757565b600080fd5b600435906001600160a01b0382168203610a8757565b9181601f84011215610a875782359167ffffffffffffffff8311610a875760208381860195010111610a8757565b600354811015610aeb57600360005260206000200190600090565b634e487b7160e01b600052603260045260246000fd5b90601f8019910116810190811067ffffffffffffffff821117610b2357604052565b634e487b7160e01b600052604160045260246000fd5b60005260008051602061155d83398151915260205260016040600020015490565b6000905b6003549182811015610c7957610b7381610ad0565b90546001600160a01b03848116959260031b9190911c168414610b9b57506001019150610b5e565b600019810192508211610c6357610bcf610bb7610bf393610ad0565b905460039190911b1c6001600160a01b031691610ad0565b81546001600160a01b0393841660039290921b91821b9390911b1916919091179055565b6003548015610c4d577febe8af0714f0dd4a7b23bc7163ea1aadcce97af7a8ec25343abdbccdb2ea8a669160209160001901610c2e81610ad0565b81546001600160a01b03600392831b1b191690915555604051908152a1565b634e487b7160e01b600052603160045260246000fd5b634e487b7160e01b600052601160045260246000fd5b506040516001600160a01b0390911681527f52d051a942d5c9a74e875d9faaa59f6de2ecefa16c6844af092cc73f749baad49150602090a1565b6003549060005b828110610cc957505050600090565b610cd281610ad0565b905460039190911b1c6001600160a01b0390811690831614610cf657600101610cba565b505050600190565b6001600160a01b038116908115610dc9576003549160005b838110610d6f575068010000000000000000831015610b2357610d66602092610bcf8560017fcef021749a809ea9d2e4eb3f28a169c12227e99b0bca877f3950fb8c2ccfaa629701600355610ad0565b604051908152a1565b81610d7982610ad0565b905460039190911b1c6001600160a01b031614610d9857600101610d16565b507f52d051a942d5c9a74e875d9faaa59f6de2ecefa16c6844af092cc73f749baad4925060209150604051908152a1565b604051630b0f5aa160e11b815260206004820152601360248201527264657374696e6174696f6e206164647265737360681b6044820152606490fd5b3360009081527fe0f49631d31e008cd72b9d6c5c7f7b2aea3c32d690788903106296f865135b11602052604090205460ff1615610e3e57565b63e2517d3f60e01b6000523360045260008051602061159d83398151915260245260446000fd5b600081815260008051602061155d8339815191526020908152604080832033845290915290205460ff1615610e975750565b63e2517d3f60e01b6000523360045260245260446000fd5b6001600160a01b03811660009081527f29b8ff238ebd8c7d6f606a8413b26e49d7fdde8308763ac1856181e9dfcb517f602052604090205460ff16610f7d576001600160a01b031660008181527f29b8ff238ebd8c7d6f606a8413b26e49d7fdde8308763ac1856181e9dfcb517f60205260408120805460ff191660011790553391907f0a160a5caf036f8340e8ee83de9fc0ad381d65eb292d6dfa44b33f603e10eae0907f2f8788117e7eff1d82e926ec794901d17c78024a50270940304540a733656f0d9080a4600190565b50600090565b600081815260008051602061155d833981519152602090815260408083206001600160a01b038616845290915290205460ff1661102557600081815260008051602061155d833981519152602090815260408083206001600160a01b0395909516808452949091528120805460ff19166001179055339291907f2f8788117e7eff1d82e926ec794901d17c78024a50270940304540a733656f0d9080a4600190565b5050600090565b916040519160208301937fa79feebba5eca838f5afb25f042ef9dbee2e9824463ec262b652584c92f243638552336040850152606084015260018060a01b0316608083015260a082015260a0815261108560c082610b01565b51902090565b92421161121a5782600052600460205260ff6040600020541661120957604260405160208101907f8b73c3c69bb8fe3d512ecc4cf759cc79239f7b179b0ffacaa9a75d522b39400f82527fd50fd8c1b5fa5213a5974932fcc33d2992a99225bc9319caf7cf652d0d2b9acf60408201527fc89efdaa54c0f20c7adf612882df0950f5a951637e0307cdcb4c672f298b8bc660608201524660808201523060a082015260a0815261113c60c082610b01565b5190206040519061190160f01b825260028201528460228201522067ffffffffffffffff8311610b23576040519061117e601f8501601f191660200183610b01565b8382523684840111610a875760006020856111ad966111a496838701378401015261140f565b9092919261144b565b6001600160a01b031680156111f8576002546001600160a01b0316036111e75760005260046020526040600020600160ff19825416179055565b63d1cc738560e01b60005260046000fd5b638bb79cad60e01b60005260046000fd5b63e544c62f60e01b60005260046000fd5b63288a076f60e21b60005260046000fd5b90811561135e576001600160a01b03811690811561132a5761124c90610cb3565b1561132a5760018060a01b036000541660206000604051828101906323b872dd60e01b825233602482015285604482015286606482015260648152611292608482610b01565b519082855af11561131e576000513d6113155750803b155b6113015750600054600154604080519485526001600160a01b039283166020860152911690830152606082015233907fadc9c3953f85fcc1d3ded4ae5226e7508f849a2e6682438a2401ccd7cbc7ceb390608090a2565b635274afe760e01b60005260045260246000fd5b600114156112aa565b6040513d6000823e3d90fd5b604051630b0f5aa160e11b815260206004820152600b60248201526a3232b9ba34b730ba34b7b760a91b6044820152606490fd5b63162908e360e11b60005260046000fd5b600081815260008051602061155d833981519152602090815260408083206001600160a01b038616845290915290205460ff161561102557600081815260008051602061155d833981519152602090815260408083206001600160a01b0395909516808452949091528120805460ff19169055339291907ff6391f5c32d9c69d2a47ea670b442974b53935d1edc7fd64eb21e047a839171b9080a4600190565b81519190604183036114405761143992506020820151906060604084015193015160001a906114d3565b9192909190565b505060009160029190565b91909160048110156114bd578061146157509050565b60006001820361147c5763f645eedf60e01b60005260046000fd5b506002810361149a578263fce698f760e01b60005260045260246000fd5b90916003600092146114aa575050565b6335e2f38360e21b825260045260249150fd5b634e487b7160e01b600052602160045260246000fd5b91907f7fffffffffffffffffffffffffffffff5d576e7357a4501ddfe92f46681b20a08411611550579160209360809260ff60009560405194855216868401526040830152606082015282805260015afa1561131e576000516001600160a01b038116156115445790600090600090565b50600090600190600090565b5050506000916003919056fe02dd7bc7dec4dceedda775e58dd541e08a116c6c53815c0bd028192f7b626800f0c57e16840df040f15088dc2f81fe391c3923bec73e23a9662efc9c229c6a00224ddcd460adf9de7c6e6271e8a93026e66a0cec23d4223bbe4cdea09e0b7d34a164736f6c634300081c000a",
  "linkReferences": {},
  "deployedLinkReferences": {}
}