{
  "_format": "hh-sol-artifact-1",
  "contractName": "Depositor",
  "sourceName": "contracts/Depositor.sol",
  "abi": [
    {
      "inputs": [],
      "name": "AccessControlBadConfirmation",
      "type": "error"
    },
    {
      "inputs": [
        {
          "internalType": "address",
          "name": "account",
          "type": "address"
        },
        {
          "internalType": "bytes32",
          "name": "neededRole",
          "type": "bytes32"
        }
      ],
      "name": "AccessControlUnauthorizedAccount",
      "type": "error"
    },
    {
      "inputs": [],
      "name": "AmlSignatureAlreadyUsed",
      "type": "error"
    },
    {
      "inputs": [],
      "name": "AmlSignatureExpired",
      "type": "error"
    },
    {
      "inputs": [],
      "name": "ECDSAInvalidSignature",
      "type": "error"
    },
    {
      "inputs": [
        {
          "internalType": "uint256",
          "name": "length",
          "type": "uint256"
        }
      ],
      "name": "ECDSAInvalidSignatureLength",
      "type": "error"
    },
    {
      "inputs": [
        {
          "internalType": "bytes32",
          "name": "s",
          "type": "bytes32"
        }
      ],
      "name": "ECDSAInvalidSignatureS",
      "type": "error"
    },
    {
      "inputs": [
        {
          "internalType": "string",
          "name": "",
          "type": "string"
        }
      ],
      "name": "InvalidAddress",
      "type": "error"
    },
    {
      "inputs": [],
      "name": "InvalidAmlSignature",
      "type": "error"
    },
    {
      "inputs": [],
      "name": "InvalidAmlSigner",
      "type": "error"
    },
    {
      "inputs": [],
      "name": "InvalidAmount",
      "type": "error"
    },
    {
      "inputs": [],
      "name": "InvalidInitialization",
      "type": "error"
    },
    {
      "inputs": [],
      "name": "NotInitializing",
      "type": "error"
    },
    {
      "inputs": [
        {
          "internalType": "address",
          "name": "token",
          "type": "address"
        }
      ],
      "name": "SafeERC20FailedOperation",
      "type": "error"
    },
    {
      "anonymous": false,
      "inputs": [
        {
          "indexed": true,
          "internalType": "address",
          "name": "user",
          "type": "address"
        },
        {
          "indexed": false,
          "internalType": "uint256",
          "name": "amount",
          "type": "uint256"
        },
        {
          "indexed": false,
          "internalType": "address",
          "name": "depositToken",
          "type": "address"
        },
        {
          "indexed": false,
          "internalType": "address",
          "name": "shareToken",
          "type": "address"
        },
        {
          "indexed": false,
          "internalType": "address",
          "name": "destinationAddress",
          "type": "address"
        }
      ],
      "name": "Deposit",
      "type": "event"
    },
    {
      "anonymous": false,
      "inputs": [
        {
          "indexed": false,
          "internalType": "address",
          "name": "depositTokenAddress",
          "type": "address"
        },
        {
          "indexed": false,
          "internalType": "address",
          "name": "shareTokenAddress",
          "type": "address"
        },
        {
          "indexed": false,
          "internalType": "address",
          "name": "amlSignerAddress",
          "type": "address"
        },
        {
          "indexed": false,
          "internalType": "address",
          "name": "destinationManagerAddress",
          "type": "address"
        }
      ],
      "name": "DepositInitialized",
      "type": "event"
    },
    {
      "anonymous": false,
      "inputs": [
        {
          "indexed": false,
          "internalType": "address",
          "name": "destination",
          "type": "address"
        }
      ],
      "name": "DestinationAddressAdded",
      "type": "event"
    },
    {
      "anonymous": false,
      "inputs": [
        {
          "indexed": false,
          "internalType": "address",
          "name": "destination",
          "type": "address"
        }
      ],
      "name": "DestinationAddressRemoved",
      "type": "event"
    },
    {
      "anonymous": false,
      "inputs": [
        {
          "indexed": false,
          "internalType": "address",
          "name": "destination",
          "type": "address"
        }
      ],
      "name": "DestinationAddressSkipped",
      "type": "event"
    },
    {
      "anonymous": false,
      "inputs": [
        {
          "indexed": false,
          "internalType": "uint64",
          "name": "version",
          "type": "uint64"
        }
      ],
      "name": "Initialized",
      "type": "event"
    },
    {
      "anonymous": false,
      "inputs": [
        {
          "indexed": true,
          "internalType": "bytes32",
          "name": "role",
          "type": "bytes32"
        },
        {
          "indexed": true,
          "internalType": "bytes32",
          "name": "previousAdminRole",
          "type": "bytes32"
        },
        {
          "indexed": true,
          "internalType": "bytes32",
          "name": "newAdminRole",
          "type": "bytes32"
        }
      ],
      "name": "RoleAdminChanged",
      "type": "event"
    },
    {
      "anonymous": false,
      "inputs": [
        {
          "indexed": true,
          "internalType": "bytes32",
          "name": "role",
          "type": "bytes32"
        },
        {
          "indexed": true,
          "internalType": "address",
          "name": "account",
          "type": "address"
        },
        {
          "indexed": true,
          "internalType": "address",
          "name": "sender",
          "type": "address"
        }
      ],
      "name": "RoleGranted",
      "type": "event"
    },
    {
      "anonymous": false,
      "inputs": [
        {
          "indexed": true,
          "internalType": "bytes32",
          "name": "role",
          "type": "bytes32"
        },
        {
          "indexed": true,
          "internalType": "address",
          "name": "account",
          "type": "address"
        },
        {
          "indexed": true,
          "internalType": "address",
          "name": "sender",
          "type": "address"
        }
      ],
      "name": "RoleRevoked",
      "type": "event"
    },
    {
      "inputs": [],
      "name": "DEFAULT_ADMIN_ROLE",
      "outputs": [
        {
          "internalType": "bytes32",
          "name": "",
          "type": "bytes32"
        }
      ],
      "stateMutability": "view",
      "type": "function"
    },
    {
      "inputs": [],
      "name": "DESTINATION_MANAGER_ADMIN_ROLE",
      "outputs": [
        {
          "internalType": "bytes32",
          "name": "",
          "type": "bytes32"
        }
      ],
      "stateMutability": "view",
      "type": "function"
    },
    {
      "inputs": [],
      "name": "DESTINATION_MANAGER_ROLE",
      "outputs": [
        {
          "internalType": "bytes32",
          "name": "",
          "type": "bytes32"
        }
      ],
      "stateMutability": "view",
      "type": "function"
    },
    {
      "inputs": [
        {
          "internalType": "address",
          "name": "_destination",
          "type": "address"
        }
      ],
      "name": "addDestinationAddress",
      "outputs": [],
      "stateMutability": "nonpayable",
      "type": "function"
    },
    {
      "inputs": [],
      "name": "amlSigner",
      "outputs": [
        {
          "internalType": "address",
          "name": "",
          "type": "address"
        }
      ],
      "stateMutability": "view",
      "type": "function"
    },
    {
      "inputs": [
        {
          "internalType": "uint256",
          "name": "_amount",
          "type": "uint256"
        },
        {
          "internalType": "address",
          "name": "_destinationAddress",
          "type": "address"
        },
        {
          "internalType": "bytes",
          "name": "_amlSignature",
          "type": "bytes"
        },
        {
          "internalType": "uint256",
          "name": "_amlDeadline",
          "type": "uint256"
        }
      ],
      "name": "deposit",
      "outputs": [],
      "stateMutability": "nonpayable",
      "type": "function"
    },
    {
      "inputs": [],
      "name": "depositToken",
      "outputs": [
        {
          "internalType": "contract CustomToken",
          "name": "",
          "type": "address"
        }
      ],
      "stateMutability": "view",
      "type": "function"
    },
    {
      "inputs": [
        {
          "internalType": "uint256",
          "name": "_amount",
          "type": "uint256"
        },
        {
          "internalType": "address",
          "name": "_destinationAddress",
          "type": "address"
        },
        {
          "internalType": "bytes",
          "name": "_amlSignature",
          "type": "bytes"
        },
        {
          "internalType": "uint256",
          "name": "_amlDeadline",
          "type": "uint256"
        },
        {
          "internalType": "uint256",
          "name": "_permitDeadline",
          "type": "uint256"
        },
        {
          "internalType": "uint8",
          "name": "_v",
          "type": "uint8"
        },
        {
          "internalType": "bytes32",
          "name": "_r",
          "type": "bytes32"
        },
        {
          "internalType": "bytes32",
          "name": "_s",
          "type": "bytes32"
        }
      ],
      "name": "depositWithPermit",
      "outputs": [],
      "stateMutability": "nonpayable",
      "type": "function"
    },
    {
      "inputs": [
        {
          "internalType": "uint256",
          "name": "",
          "type": "uint256"
        }
      ],
      "name": "destinationAddresses",
      "outputs": [
        {
          "internalType": "address",
          "name": "",
          "type": "address"
        }
      ],
      "stateMutability": "view",
      "type": "function"
    },
    {
      "inputs": [],
      "name": "getDestinationAddresses",
      "outputs": [
        {
          "internalType": "address[]",
          "name": "",
          "type": "address[]"
        }
      ],
      "stateMutability": "view",
      "type": "function"
    },
    {
      "inputs": [
        {
          "internalType": "bytes32",
          "name": "role",
          "type": "bytes32"
        }
      ],
      "name": "getRoleAdmin",
      "outputs": [
        {
          "internalType": "bytes32",
          "name": "",
          "type": "bytes32"
        }
      ],
      "stateMutability": "view",
      "type": "function"
    },
    {
      "inputs": [
        {
          "internalType": "bytes32",
          "name": "role",
          "type": "bytes32"
        },
        {
          "internalType": "address",
          "name": "account",
          "type": "address"
        }
      ],
      "name": "grantRole",
      "outputs": [],
      "stateMutability": "nonpayable",
      "type": "function"
    },
    {
      "inputs": [
        {
          "internalType": "bytes32",
          "name": "role",
          "type": "bytes32"
        },
        {
          "internalType": "address",
          "name": "account",
          "type": "address"
        }
      ],
      "name": "hasRole",
      "outputs": [
        {
          "internalType": "bool",
          "name": "",
          "type": "bool"
        }
      ],
      "stateMutability": "view",
      "type": "function"
    },
    {
      "inputs": [
        {
          "internalType": "address",
          "name": "_depositTokenAddress",
          "type": "address"
        },
        {
          "internalType": "address",
          "name": "_shareTokenAddress",
          "type": "address"
        },
        {
          "internalType": "address",
          "name": "_amlSignerAddress",
          "type": "address"
        },
        {
          "internalType": "address",
          "name": "_destinationManagerAddress",
          "type": "address"
        }
      ],
      "name": "initialize",
      "outputs": [],
      "stateMutability": "nonpayable",
      "type": "function"
    },
    {
      "inputs": [
        {
          "internalType": "address",
          "name": "_destination",
          "type": "address"
        }
      ],
      "name": "isDestination",
      "outputs": [
        {
          "internalType": "bool",
          "name": "",
          "type": "bool"
        }
      ],
      "stateMutability": "view",
      "type": "function"
    },
    {
      "inputs": [
        {
          "internalType": "address",
          "name": "_destination",
          "type": "address"
        }
      ],
      "name": "removeDestinationAddress",
      "outputs": [],
      "stateMutability": "nonpayable",
      "type": "function"
    },
    {
      "inputs": [
        {
          "internalType": "bytes32",
          "name": "role",
          "type": "bytes32"
        },
        {
          "internalType": "address",
          "name": "callerConfirmation",
          "type": "address"
        }
      ],
      "name": "renounceRole",
      "outputs": [],
      "stateMutability": "nonpayable",
      "type": "function"
    },
    {
      "inputs": [
        {
          "internalType": "bytes32",
          "name": "role",
          "type": "bytes32"
        },
        {
          "internalType": "address",
          "name": "account",
          "type": "address"
        }
      ],
      "name": "revokeRole",
      "outputs": [],
      "stateMutability": "nonpayable",
      "type": "function"
    },
    {
      "inputs": [],
      "name": "shareToken",
      "outputs": [
        {
          "internalType": "address",
          "name": "",
          "type": "address"
        }
      ],
      "stateMutability": "view",
      "type": "function"
    },
    {
      "inputs": [
        {
          "internalType": "bytes4",
          "name": "interfaceId",
          "type": "bytes4"
        }
      ],
      "name": "supportsInterface",
      "outputs": [
        {
          "internalType": "bool",
          "name": "",
          "type": "bool"
        }
      ],
      "stateMutability": "view",
      "type": "function"
    },
    {
      "inputs": [
        {
          "internalType": "bytes32",
          "name": "",
          "type": "bytes32"
        }
      ],
      "name": "usedSignatures",
      "outputs": [
        {
          "internalType": "bool",
          "name": "",
          "type": "bool"
        }
      ],
      "stateMutability": "view",
      "type": "function"
    }
  ],
  "bytecode": "0x6080806040523460155761159f908161001b8239f35b600080fdfe608080604052600436101561001357600080fd5b600090813560e01c90816301ffc9a7146109ee575080630ce32eb314610926578063248a9ca3146108ff57806325f2ba49146108c45780632c7e2d5e1461089b5780632f2ff15d1461086957806333f993cd1461077257806336568abe1461072d5780636147da56146107045780636193d018146106c05780636c9fa59e146106975780638c3935581461066d57806391d1485414610614578063a217fddf146105f8578063aaaae342146105ca578063c89039c5146105a3578063d547741f14610568578063df88933c1461050b578063e3f248a4146104de578063f8c8765e146101395763f978fd611461010857600080fd5b346101365760203660031901126101365760ff60406020926004358152600484522054166040519015158152f35b80fd5b503461013657608036600319011261013657610153610a62565b61015b610a47565b6044356001600160a01b03811691908290036104da57606435906001600160a01b0382168083036104d657600080516020611553833981519152549460ff8660401c16159567ffffffffffffffff8116801590816104ce575b60011490816104c4575b1590816104bb575b506104ac5767ffffffffffffffff198116600117600080516020611553833981519152558661047f575b506001600160a01b0316918215610449576001600160a01b03169384156104155780156103e25781156103a6577fc2ce53524e57a85c393f9d87b3fcdde7998ffd0a57cce245454d2d8e440960a99461032e608095856001600160601b0360a01b8b5416178a55826001600160601b0360a01b6001541617600155836001600160601b0360a01b60025416176002556000805160206115738339815191528a526000805160206115338339815191526020527f0a160a5caf036f8340e8ee83de9fc0ad381d65eb292d6dfa44b33f603e10eae08a81600160408181852001549360008051602061157383398151915281526000805160206115338339815191526020522001556000805160206115738339815191527fbd79b86ffe0ab8e8776151514217cd7cacd52c909f66475c3af44e129f0b00ff8d80a4610e85565b50604051938452602084015260408301526060820152a161034c5780f35b68ff0000000000000000196000805160206115538339815191525416600080516020611553833981519152557fc7f505b2f371ae2175ee4913f4499e1f2633a7b5936321eed1cdaeb6115181d2602060405160018152a180f35b604051630b0f5aa160e11b81526020600482015260136024820152723232b9ba34b730ba34b7b71036b0b730b3b2b960691b6044820152606490fd5b604051630b0f5aa160e11b815260206004820152600a60248201526930b6b61039b4b3b732b960b11b6044820152606490fd5b604051630b0f5aa160e11b815260206004820152600b60248201526a39b430b932903a37b5b2b760a91b6044820152606490fd5b604051630b0f5aa160e11b815260206004820152600d60248201526c3232b837b9b4ba103a37b5b2b760991b6044820152606490fd5b68ffffffffffffffffff1916680100000000000000011760008051602061155383398151915255386101f0565b63f92ee8a960e01b8852600488fd5b905015386101c6565b303b1591506101be565b8891506101b4565b8580fd5b8380fd5b5034610136576020366003190112610136576105086104fb610a62565b610503610ddb565b610cd4565b80f35b503461013657608036600319011261013657600435610528610a47565b6044359167ffffffffffffffff83116104da5761056361054f610508943690600401610a78565b6064359161055e838787611002565b611061565b611201565b50346101365760403660031901126101365761059f600435610588610a47565b9061059a61059582610b0f565b610e3b565b611345565b5080f35b5034610136578060031936011261013657546040516001600160a01b039091168152602090f35b50346101365760203660031901126101365760206105ee6105e9610a62565b610c89565b6040519015158152f35b5034610136578060031936011261013657602090604051908152f35b5034610136576040366003190112610136576040610630610a47565b916004358152600080516020611533833981519152602052209060018060a01b0316600052602052602060ff604060002054166040519015158152f35b50346101365760203660031901126101365761050861068a610a62565b610692610ddb565b610b30565b50346101365780600319360112610136576001546040516001600160a01b039091168152602090f35b503461013657602036600319011261013657600435906003548210156101365760206106eb83610aa6565b905460405160039290921b1c6001600160a01b03168152f35b50346101365780600319360112610136576002546040516001600160a01b039091168152602090f35b503461013657604036600319011261013657610747610a47565b336001600160a01b038216036107635761059f90600435611345565b63334bd91960e11b8252600482fd5b5034610136576101003660031901126101365760043590610791610a47565b60443567ffffffffffffffff8111610865576107b1903690600401610a78565b6064359060a4359260ff84168094036104d65790829161055e6107d594878a611002565b82546001600160a01b031690813b156104da57839160e48392604051948593849263d505accf60e01b84523360048501523060248501528a60448501526084356064850152608484015260c43560a4840152833560c48401525af1801561085a57610846575b506105089192611201565b916108548161050894610ad7565b9161083b565b6040513d85823e3d90fd5b8280fd5b50346101365760403660031901126101365761059f600435610889610a47565b9061089661059582610b0f565b610f59565b503461013657806003193601126101365760206040516000805160206115738339815191528152f35b503461013657806003193601126101365760206040517f0a160a5caf036f8340e8ee83de9fc0ad381d65eb292d6dfa44b33f603e10eae08152f35b503461013657602036600319011261013657602061091e600435610b0f565b604051908152f35b503461013657806003193601126101365760405180602060035491828152018091600385527fc2575a0e9e593c00f959f8c92f12db2869c3395a3b0502d05e2516446f71f85b90855b8181106109cf5750505082610985910383610ad7565b604051928392602084019060208552518091526040840192915b8181106109ad575050500390f35b82516001600160a01b031684528594506020938401939092019160010161099f565b82546001600160a01b031684526020909301926001928301920161096f565b905034610a43576020366003190112610a435760043563ffffffff60e01b81168091036108655760209250637965db0b60e01b8114908115610a32575b5015158152f35b6301ffc9a760e01b14905038610a2b565b5080fd5b602435906001600160a01b0382168203610a5d57565b600080fd5b600435906001600160a01b0382168203610a5d57565b9181601f84011215610a5d5782359167ffffffffffffffff8311610a5d5760208381860195010111610a5d57565b600354811015610ac157600360005260206000200190600090565b634e487b7160e01b600052603260045260246000fd5b90601f8019910116810190811067ffffffffffffffff821117610af957604052565b634e487b7160e01b600052604160045260246000fd5b60005260008051602061153383398151915260205260016040600020015490565b6000905b6003549182811015610c4f57610b4981610aa6565b90546001600160a01b03848116959260031b9190911c168414610b7157506001019150610b34565b600019810192508211610c3957610ba5610b8d610bc993610aa6565b905460039190911b1c6001600160a01b031691610aa6565b81546001600160a01b0393841660039290921b91821b9390911b1916919091179055565b6003548015610c23577febe8af0714f0dd4a7b23bc7163ea1aadcce97af7a8ec25343abdbccdb2ea8a669160209160001901610c0481610aa6565b81546001600160a01b03600392831b1b191690915555604051908152a1565b634e487b7160e01b600052603160045260246000fd5b634e487b7160e01b600052601160045260246000fd5b506040516001600160a01b0390911681527f52d051a942d5c9a74e875d9faaa59f6de2ecefa16c6844af092cc73f749baad49150602090a1565b6003549060005b828110610c9f57505050600090565b610ca881610aa6565b905460039190911b1c6001600160a01b0390811690831614610ccc57600101610c90565b505050600190565b6001600160a01b038116908115610d9f576003549160005b838110610d45575068010000000000000000831015610af957610d3c602092610ba58560017fcef021749a809ea9d2e4eb3f28a169c12227e99b0bca877f3950fb8c2ccfaa629701600355610aa6565b604051908152a1565b81610d4f82610aa6565b905460039190911b1c6001600160a01b031614610d6e57600101610cec565b507f52d051a942d5c9a74e875d9faaa59f6de2ecefa16c6844af092cc73f749baad4925060209150604051908152a1565b604051630b0f5aa160e11b815260206004820152601360248201527264657374696e6174696f6e206164647265737360681b6044820152606490fd5b3360009081527fe0f49631d31e008cd72b9d6c5c7f7b2aea3c32d690788903106296f865135b11602052604090205460ff1615610e1457565b63e2517d3f60e01b6000523360045260008051602061157383398151915260245260446000fd5b60008181526000805160206115338339815191526020908152604080832033845290915290205460ff1615610e6d5750565b63e2517d3f60e01b6000523360045260245260446000fd5b6001600160a01b03811660009081527f29b8ff238ebd8c7d6f606a8413b26e49d7fdde8308763ac1856181e9dfcb517f602052604090205460ff16610f53576001600160a01b031660008181527f29b8ff238ebd8c7d6f606a8413b26e49d7fdde8308763ac1856181e9dfcb517f60205260408120805460ff191660011790553391907f0a160a5caf036f8340e8ee83de9fc0ad381d65eb292d6dfa44b33f603e10eae0907f2f8788117e7eff1d82e926ec794901d17c78024a50270940304540a733656f0d9080a4600190565b50600090565b6000818152600080516020611533833981519152602090815260408083206001600160a01b038616845290915290205460ff16610ffb576000818152600080516020611533833981519152602090815260408083206001600160a01b0395909516808452949091528120805460ff19166001179055339291907f2f8788117e7eff1d82e926ec794901d17c78024a50270940304540a733656f0d9080a4600190565b5050600090565b916040519160208301937fa79feebba5eca838f5afb25f042ef9dbee2e9824463ec262b652584c92f243638552336040850152606084015260018060a01b0316608083015260a082015260a0815261105b60c082610ad7565b51902090565b9242116111f05782600052600460205260ff604060002054166111df57604260405160208101907f8b73c3c69bb8fe3d512ecc4cf759cc79239f7b179b0ffacaa9a75d522b39400f82527fd50fd8c1b5fa5213a5974932fcc33d2992a99225bc9319caf7cf652d0d2b9acf60408201527fc89efdaa54c0f20c7adf612882df0950f5a951637e0307cdcb4c672f298b8bc660608201524660808201523060a082015260a0815261111260c082610ad7565b5190206040519061190160f01b825260028201528460228201522067ffffffffffffffff8311610af95760405190611154601f8501601f191660200183610ad7565b8382523684840111610a5d5760006020856111839661117a9683870137840101526113e5565b90929192611421565b6001600160a01b031680156111ce576002546001600160a01b0316036111bd5760005260046020526040600020600160ff19825416179055565b63d1cc738560e01b60005260046000fd5b638bb79cad60e01b60005260046000fd5b63e544c62f60e01b60005260046000fd5b63288a076f60e21b60005260046000fd5b908115611334576001600160a01b0381169081156113005761122290610c89565b156113005760018060a01b036000541660206000604051828101906323b872dd60e01b825233602482015285604482015286606482015260648152611268608482610ad7565b519082855af1156112f4576000513d6112eb5750803b155b6112d75750600054600154604080519485526001600160a01b039283166020860152911690830152606082015233907fadc9c3953f85fcc1d3ded4ae5226e7508f849a2e6682438a2401ccd7cbc7ceb390608090a2565b635274afe760e01b60005260045260246000fd5b60011415611280565b6040513d6000823e3d90fd5b604051630b0f5aa160e11b815260206004820152600b60248201526a3232b9ba34b730ba34b7b760a91b6044820152606490fd5b63162908e360e11b60005260046000fd5b6000818152600080516020611533833981519152602090815260408083206001600160a01b038616845290915290205460ff1615610ffb576000818152600080516020611533833981519152602090815260408083206001600160a01b0395909516808452949091528120805460ff19169055339291907ff6391f5c32d9c69d2a47ea670b442974b53935d1edc7fd64eb21e047a839171b9080a4600190565b81519190604183036114165761140f92506020820151906060604084015193015160001a906114a9565b9192909190565b505060009160029190565b9190916004811015611493578061143757509050565b6000600182036114525763f645eedf60e01b60005260046000fd5b5060028103611470578263fce698f760e01b60005260045260246000fd5b9091600360009214611480575050565b6335e2f38360e21b825260045260249150fd5b634e487b7160e01b600052602160045260246000fd5b91907f7fffffffffffffffffffffffffffffff5d576e7357a4501ddfe92f46681b20a08411611526579160209360809260ff60009560405194855216868401526040830152606082015282805260015afa156112f4576000516001600160a01b0381161561151a5790600090600090565b50600090600190600090565b5050506000916003919056fe02dd7bc7dec4dceedda775e58dd541e08a116c6c53815c0bd028192f7b626800f0c57e16840df040f15088dc2f81fe391c3923bec73e23a9662efc9c229c6a00224ddcd460adf9de7c6e6271e8a93026e66a0cec23d4223bbe4cdea09e0b7d34a164736f6c634300081c000a",
  "linkReferences": {},
  "deployedLinkReferences": {}
}