{
  "_format": "hh-sol-artifact-1",
  "contractName": "Depositor",
  "sourceName": "contracts/Depositor.sol",
  "abi": [
    {
      "inputs": [],
      "name": "AccessControlBadConfirmation",
      "type": "error"
    },
    {
      "inputs": [
        {
          "internalType": "address",
          "name": "account",
          "type": "address"
        },
        {
          "internalType": "bytes32",
          "name": "neededRole",
          "type": "bytes32"
        }
      ],
      "name": "AccessControlUnauthorizedAccount",
      "type": "error"
    },
    {
      "inputs": [],
      "name": "AmlSignatureAlreadyUsed",
      "type": "error"
    },
    {
      "inputs": [],
      "name": "AmlSignatureExpired",
      "type": "error"
    },
    {
      "inputs": [],
      "name": "ECDSAInvalidSignature",
      "type": "error"
    },
    {
      "inputs": [
        {
          "internalType": "uint256",
          "name": "length",
          "type": "uint256"
        }
      ],
      "name": "ECDSAInvalidSignatureLength",
      "type": "error"
    },
    {
      "inputs": [
        {
          "internalType": "bytes32",
          "name": "s",
          "type": "bytes32"
        }
      ],
      "name": "ECDSAInvalidSignatureS",
      "type": "error"
    },
    {
      "inputs": [
        {
          "internalType": "string",
          "name": "",
          "type": "string"
        }
      ],
      "name": "InvalidAddress",
      "type": "error"
    },
    {
      "inputs": [],
      "name": "InvalidAmlSignature",
      "type": "error"
    },
    {
      "inputs": [],
      "name": "InvalidAmlSigner",
      "type": "error"
    },
    {
      "inputs": [],
      "name": "InvalidAmount",
      "type": "error"
    },
    {
      "inputs": [],
      "name": "InvalidInitialization",
      "type": "error"
    },
    {
      "inputs": [],
      "name": "NotInitializing",
      "type": "error"
    },
    {
      "inputs": [
        {
          "internalType": "address",
          "name": "token",
          "type": "address"
        }
      ],
      "name": "SafeERC20FailedOperation",
      "type": "error"
    },
    {
      "anonymous": false,
      "inputs": [
        {
          "indexed": true,
          "internalType": "address",
          "name": "crossChainVaultAddress",
          "type": "address"
        }
      ],
      "name": "CrossChainConfigSet",
      "type": "event"
    },
    {
      "anonymous": false,
      "inputs": [
        {
          "indexed": true,
          "internalType": "address",
          "name": "user",
          "type": "address"
        },
        {
          "indexed": false,
          "internalType": "uint256",
          "name": "amount",
          "type": "uint256"
        },
        {
          "indexed": false,
          "internalType": "address",
          "name": "depositToken",
          "type": "address"
        },
        {
          "indexed": false,
          "internalType": "address",
          "name": "shareToken",
          "type": "address"
        },
        {
          "indexed": false,
          "internalType": "address",
          "name": "destinationAddress",
          "type": "address"
        }
      ],
      "name": "Deposit",
      "type": "event"
    },
    {
      "anonymous": false,
      "inputs": [
        {
          "indexed": false,
          "internalType": "address",
          "name": "depositTokenAddress",
          "type": "address"
        },
        {
          "indexed": false,
          "internalType": "address",
          "name": "shareTokenAddress",
          "type": "address"
        },
        {
          "indexed": false,
          "internalType": "address",
          "name": "amlSignerAddress",
          "type": "address"
        },
        {
          "indexed": false,
          "internalType": "address",
          "name": "destinationManagerAddress",
          "type": "address"
        }
      ],
      "name": "DepositInitialized",
      "type": "event"
    },
    {
      "anonymous": false,
      "inputs": [
        {
          "indexed": false,
          "internalType": "address",
          "name": "destination",
          "type": "address"
        }
      ],
      "name": "DestinationAddressAdded",
      "type": "event"
    },
    {
      "anonymous": false,
      "inputs": [
        {
          "indexed": false,
          "internalType": "address",
          "name": "destination",
          "type": "address"
        }
      ],
      "name": "DestinationAddressRemoved",
      "type": "event"
    },
    {
      "anonymous": false,
      "inputs": [
        {
          "indexed": false,
          "internalType": "address",
          "name": "destination",
          "type": "address"
        }
      ],
      "name": "DestinationAddressSkipped",
      "type": "event"
    },
    {
      "anonymous": false,
      "inputs": [
        {
          "indexed": false,
          "internalType": "uint64",
          "name": "version",
          "type": "uint64"
        }
      ],
      "name": "Initialized",
      "type": "event"
    },
    {
      "anonymous": false,
      "inputs": [
        {
          "indexed": true,
          "internalType": "bytes32",
          "name": "role",
          "type": "bytes32"
        },
        {
          "indexed": true,
          "internalType": "bytes32",
          "name": "previousAdminRole",
          "type": "bytes32"
        },
        {
          "indexed": true,
          "internalType": "bytes32",
          "name": "newAdminRole",
          "type": "bytes32"
        }
      ],
      "name": "RoleAdminChanged",
      "type": "event"
    },
    {
      "anonymous": false,
      "inputs": [
        {
          "indexed": true,
          "internalType": "bytes32",
          "name": "role",
          "type": "bytes32"
        },
        {
          "indexed": true,
          "internalType": "address",
          "name": "account",
          "type": "address"
        },
        {
          "indexed": true,
          "internalType": "address",
          "name": "sender",
          "type": "address"
        }
      ],
      "name": "RoleGranted",
      "type": "event"
    },
    {
      "anonymous": false,
      "inputs": [
        {
          "indexed": true,
          "internalType": "bytes32",
          "name": "role",
          "type": "bytes32"
        },
        {
          "indexed": true,
          "internalType": "address",
          "name": "account",
          "type": "address"
        },
        {
          "indexed": true,
          "internalType": "address",
          "name": "sender",
          "type": "address"
        }
      ],
      "name": "RoleRevoked",
      "type": "event"
    },
    {
      "inputs": [],
      "name": "DEFAULT_ADMIN_ROLE",
      "outputs": [
        {
          "internalType": "bytes32",
          "name": "",
          "type": "bytes32"
        }
      ],
      "stateMutability": "view",
      "type": "function"
    },
    {
      "inputs": [],
      "name": "DESTINATION_MANAGER_ADMIN_ROLE",
      "outputs": [
        {
          "internalType": "bytes32",
          "name": "",
          "type": "bytes32"
        }
      ],
      "stateMutability": "view",
      "type": "function"
    },
    {
      "inputs": [],
      "name": "DESTINATION_MANAGER_ROLE",
      "outputs": [
        {
          "internalType": "bytes32",
          "name": "",
          "type": "bytes32"
        }
      ],
      "stateMutability": "view",
      "type": "function"
    },
    {
      "inputs": [
        {
          "internalType": "address",
          "name": "_destination",
          "type": "address"
        }
      ],
      "name": "addDestinationAddress",
      "outputs": [],
      "stateMutability": "nonpayable",
      "type": "function"
    },
    {
      "inputs": [],
      "name": "amlSigner",
      "outputs": [
        {
          "internalType": "address",
          "name": "",
          "type": "address"
        }
      ],
      "stateMutability": "view",
      "type": "function"
    },
    {
      "inputs": [],
      "name": "crossChainVault",
      "outputs": [
        {
          "internalType": "contract CrossChainVault",
          "name": "",
          "type": "address"
        }
      ],
      "stateMutability": "view",
      "type": "function"
    },
    {
      "inputs": [
        {
          "internalType": "uint256",
          "name": "_amount",
          "type": "uint256"
        },
        {
          "internalType": "address",
          "name": "_destinationAddress",
          "type": "address"
        },
        {
          "internalType": "bytes",
          "name": "_amlSignature",
          "type": "bytes"
        },
        {
          "internalType": "uint256",
          "name": "_amlDeadline",
          "type": "uint256"
        }
      ],
      "name": "deposit",
      "outputs": [],
      "stateMutability": "nonpayable",
      "type": "function"
    },
    {
      "inputs": [
        {
          "internalType": "uint256",
          "name": "_amount",
          "type": "uint256"
        },
        {
          "internalType": "address",
          "name": "_destinationAddress",
          "type": "address"
        },
        {
          "internalType": "bytes",
          "name": "_amlSignature",
          "type": "bytes"
        },
        {
          "internalType": "uint256",
          "name": "_amlDeadline",
          "type": "uint256"
        },
        {
          "internalType": "uint256",
          "name": "_permitDeadline",
          "type": "uint256"
        },
        {
          "internalType": "uint8",
          "name": "_v",
          "type": "uint8"
        },
        {
          "internalType": "bytes32",
          "name": "_r",
          "type": "bytes32"
        },
        {
          "internalType": "bytes32",
          "name": "_s",
          "type": "bytes32"
        },
        {
          "internalType": "uint16",
          "name": "targetChain",
          "type": "uint16"
        },
        {
          "internalType": "uint32",
          "name": "batchId",
          "type": "uint32"
        }
      ],
      "name": "depositCrossChain",
      "outputs": [],
      "stateMutability": "nonpayable",
      "type": "function"
    },
    {
      "inputs": [],
      "name": "depositToken",
      "outputs": [
        {
          "internalType": "contract CustomToken",
          "name": "",
          "type": "address"
        }
      ],
      "stateMutability": "view",
      "type": "function"
    },
    {
      "inputs": [
        {
          "internalType": "uint256",
          "name": "_amount",
          "type": "uint256"
        },
        {
          "internalType": "address",
          "name": "_destinationAddress",
          "type": "address"
        },
        {
          "internalType": "bytes",
          "name": "_amlSignature",
          "type": "bytes"
        },
        {
          "internalType": "uint256",
          "name": "_amlDeadline",
          "type": "uint256"
        },
        {
          "internalType": "uint256",
          "name": "_permitDeadline",
          "type": "uint256"
        },
        {
          "internalType": "uint8",
          "name": "_v",
          "type": "uint8"
        },
        {
          "internalType": "bytes32",
          "name": "_r",
          "type": "bytes32"
        },
        {
          "internalType": "bytes32",
          "name": "_s",
          "type": "bytes32"
        }
      ],
      "name": "depositWithPermit",
      "outputs": [],
      "stateMutability": "nonpayable",
      "type": "function"
    },
    {
      "inputs": [
        {
          "internalType": "uint256",
          "name": "",
          "type": "uint256"
        }
      ],
      "name": "destinationAddresses",
      "outputs": [
        {
          "internalType": "address",
          "name": "",
          "type": "address"
        }
      ],
      "stateMutability": "view",
      "type": "function"
    },
    {
      "inputs": [],
      "name": "getCrossChainContractAddress",
      "outputs": [
        {
          "internalType": "address",
          "name": "",
          "type": "address"
        }
      ],
      "stateMutability": "view",
      "type": "function"
    },
    {
      "inputs": [],
      "name": "getDestinationAddresses",
      "outputs": [
        {
          "internalType": "address[]",
          "name": "",
          "type": "address[]"
        }
      ],
      "stateMutability": "view",
      "type": "function"
    },
    {
      "inputs": [
        {
          "internalType": "bytes32",
          "name": "role",
          "type": "bytes32"
        }
      ],
      "name": "getRoleAdmin",
      "outputs": [
        {
          "internalType": "bytes32",
          "name": "",
          "type": "bytes32"
        }
      ],
      "stateMutability": "view",
      "type": "function"
    },
    {
      "inputs": [
        {
          "internalType": "bytes32",
          "name": "role",
          "type": "bytes32"
        },
        {
          "internalType": "address",
          "name": "account",
          "type": "address"
        }
      ],
      "name": "grantRole",
      "outputs": [],
      "stateMutability": "nonpayable",
      "type": "function"
    },
    {
      "inputs": [
        {
          "internalType": "bytes32",
          "name": "role",
          "type": "bytes32"
        },
        {
          "internalType": "address",
          "name": "account",
          "type": "address"
        }
      ],
      "name": "hasRole",
      "outputs": [
        {
          "internalType": "bool",
          "name": "",
          "type": "bool"
        }
      ],
      "stateMutability": "view",
      "type": "function"
    },
    {
      "inputs": [
        {
          "internalType": "address",
          "name": "_depositTokenAddress",
          "type": "address"
        },
        {
          "internalType": "address",
          "name": "_shareTokenAddress",
          "type": "address"
        },
        {
          "internalType": "address",
          "name": "_amlSignerAddress",
          "type": "address"
        },
        {
          "internalType": "address",
          "name": "_destinationManagerAddress",
          "type": "address"
        }
      ],
      "name": "initialize",
      "outputs": [],
      "stateMutability": "nonpayable",
      "type": "function"
    },
    {
      "inputs": [
        {
          "internalType": "address",
          "name": "_destination",
          "type": "address"
        }
      ],
      "name": "isDestination",
      "outputs": [
        {
          "internalType": "bool",
          "name": "",
          "type": "bool"
        }
      ],
      "stateMutability": "view",
      "type": "function"
    },
    {
      "inputs": [
        {
          "internalType": "address",
          "name": "_destination",
          "type": "address"
        }
      ],
      "name": "removeDestinationAddress",
      "outputs": [],
      "stateMutability": "nonpayable",
      "type": "function"
    },
    {
      "inputs": [
        {
          "internalType": "bytes32",
          "name": "role",
          "type": "bytes32"
        },
        {
          "internalType": "address",
          "name": "callerConfirmation",
          "type": "address"
        }
      ],
      "name": "renounceRole",
      "outputs": [],
      "stateMutability": "nonpayable",
      "type": "function"
    },
    {
      "inputs": [
        {
          "internalType": "bytes32",
          "name": "role",
          "type": "bytes32"
        },
        {
          "internalType": "address",
          "name": "account",
          "type": "address"
        }
      ],
      "name": "revokeRole",
      "outputs": [],
      "stateMutability": "nonpayable",
      "type": "function"
    },
    {
      "inputs": [
        {
          "internalType": "address",
          "name": "crossChainVaultAddress",
          "type": "address"
        }
      ],
      "name": "setCrossChainConfig",
      "outputs": [],
      "stateMutability": "nonpayable",
      "type": "function"
    },
    {
      "inputs": [],
      "name": "shareToken",
      "outputs": [
        {
          "internalType": "address",
          "name": "",
          "type": "address"
        }
      ],
      "stateMutability": "view",
      "type": "function"
    },
    {
      "inputs": [
        {
          "internalType": "bytes4",
          "name": "interfaceId",
          "type": "bytes4"
        }
      ],
      "name": "supportsInterface",
      "outputs": [
        {
          "internalType": "bool",
          "name": "",
          "type": "bool"
        }
      ],
      "stateMutability": "view",
      "type": "function"
    },
    {
      "inputs": [
        {
          "internalType": "bytes32",
          "name": "",
          "type": "bytes32"
        }
      ],
      "name": "usedSignatures",
      "outputs": [
        {
          "internalType": "bool",
          "name": "",
          "type": "bool"
        }
      ],
      "stateMutability": "view",
      "type": "function"
    }
  ],
  "bytecode": "0x60808060405234601557611898908161001b8239f35b600080fdfe608080604052600436101561001357600080fd5b600090813560e01c90816301ffc9a714610cdb575080630b2ff35214610b1c5780630ce32eb314610a545780632050200914610827578063248a9ca314610a2d57806325f2ba49146109f25780632c7e2d5e146109c95780632f2ff15d1461099757806333f993cd1461089557806336568abe146108505780633d13272b146108275780636147da56146107fe5780636193d018146107ba5780636c9fa59e146107915780638c3935581461076757806391d148541461070e578063a217fddf146106f2578063aaaae342146106c4578063abcb48ea14610620578063c89039c5146105f9578063d547741f146105be578063df88933c14610561578063e3f248a414610534578063f8c8765e146101655763f978fd611461013457600080fd5b346101625760203660031901126101625760ff60406020926004358152600584522054166040519015158152f35b80fd5b50346101625760803660031901126101625761017f610d4b565b610187610d30565b6044356001600160a01b038116919082900361053057606435906001600160a01b03821680830361052c5760008051602061184c833981519152549460ff8660401c16159567ffffffffffffffff811680159081610524575b600114908161051a575b159081610511575b506105025767ffffffffffffffff19811660011760008051602061184c83398151915255866104d5575b5060ff60008051602061184c8339815191525460401c16156104c6576001600160a01b0316918215610490576001600160a01b031693841561045c5780156104295781156103ed577fc2ce53524e57a85c393f9d87b3fcdde7998ffd0a57cce245454d2d8e440960a994610375608095856001600160601b0360a01b8b5416178a55826001600160601b0360a01b6002541617600255836001600160601b0360a01b600354161760035560008051602061186c8339815191528a5260008051602061182c8339815191526020527f0a160a5caf036f8340e8ee83de9fc0ad381d65eb292d6dfa44b33f603e10eae08a81600160408181852001549360008051602061186c833981519152815260008051602061182c83398151915260205220015560008051602061186c8339815191527fbd79b86ffe0ab8e8776151514217cd7cacd52c909f66475c3af44e129f0b00ff8d80a461137d565b50604051938452602084015260408301526060820152a16103935780f35b68ff00000000000000001960008051602061184c833981519152541660008051602061184c833981519152557fc7f505b2f371ae2175ee4913f4499e1f2633a7b5936321eed1cdaeb6115181d2602060405160018152a180f35b604051630b0f5aa160e11b81526020600482015260136024820152723232b9ba34b730ba34b7b71036b0b730b3b2b960691b6044820152606490fd5b604051630b0f5aa160e11b815260206004820152600a60248201526930b6b61039b4b3b732b960b11b6044820152606490fd5b604051630b0f5aa160e11b815260206004820152600b60248201526a39b430b932903a37b5b2b760a91b6044820152606490fd5b604051630b0f5aa160e11b815260206004820152600d60248201526c3232b837b9b4ba103a37b5b2b760991b6044820152606490fd5b631afcd79f60e31b8752600487fd5b68ffffffffffffffffff1916680100000000000000011760008051602061184c833981519152553861021c565b63f92ee8a960e01b8852600488fd5b905015386101f2565b303b1591506101ea565b8891506101e0565b8580fd5b8380fd5b50346101625760203660031901126101625761055e610551610d4b565b6105596112d3565b610fcd565b80f35b50346101625760803660031901126101625760043561057e610d30565b6044359167ffffffffffffffff8311610530576105b96105a561055e943690600401610d61565b606435916105b48387876110d4565b611133565b6114fa565b5034610162576040366003190112610162576105f56004356105de610d30565b906105f06105eb82610e08565b611333565b61163e565b5080f35b5034610162578060031936011261016257546040516001600160a01b039091168152602090f35b50346101625760203660031901126101625761063a610d4b565b6106426112d3565b6001600160a01b0316801561068a57600180546001600160a01b031916821790557fcf030b670f53a5f3a1cb3c7ae908961424d9fb1e15891badc09b12cc141340448280a280f35b604051630b0f5aa160e11b815260206004820152601160248201527018dc9bdcdcc818da185a5b881d985d5b1d607a1b6044820152606490fd5b50346101625760203660031901126101625760206106e86106e3610d4b565b610f82565b6040519015158152f35b5034610162578060031936011261016257602090604051908152f35b503461016257604036600319011261016257604061072a610d30565b91600435815260008051602061182c833981519152602052209060018060a01b0316600052602052602060ff604060002054166040519015158152f35b50346101625760203660031901126101625761055e610784610d4b565b61078c6112d3565b610e29565b50346101625780600319360112610162576002546040516001600160a01b039091168152602090f35b503461016257602036600319011261016257600435906004548210156101625760206107e583610d9f565b905460405160039290921b1c6001600160a01b03168152f35b50346101625780600319360112610162576003546040516001600160a01b039091168152602090f35b50346101625780600319360112610162576001546040516001600160a01b039091168152602090f35b50346101625760403660031901126101625761086a610d30565b336001600160a01b03821603610886576105f59060043561163e565b63334bd91960e11b8252600482fd5b503461016257610100366003190112610162576004356108b3610d30565b8260443567ffffffffffffffff8111610993576108d76108f2913690600401610d61565b606492919235906108e6610d8f565b936105b483888a6110d4565b81546001600160a01b0316803b156109845760405163d505accf60e01b81523360048201523060248201526044810186905260848035606483015260ff939093169281019290925260c4803560a484015260e48035918401919091528391839190829084905af180156109885761096f575b505061055e916114fa565b8161097991610dd0565b610984578238610964565b8280fd5b6040513d84823e3d90fd5b5080fd5b5034610162576040366003190112610162576105f56004356109b7610d30565b906109c46105eb82610e08565b611451565b5034610162578060031936011261016257602060405160008051602061186c8339815191528152f35b503461016257806003193601126101625760206040517f0a160a5caf036f8340e8ee83de9fc0ad381d65eb292d6dfa44b33f603e10eae08152f35b5034610162576020366003190112610162576020610a4c600435610e08565b604051908152f35b503461016257806003193601126101625760405180602060045491828152018091600485527f8a35acfbc15ff81a39ae7d344fd709f28e8600b4aa8c65c6b64bfe7fe36bd19b90855b818110610afd5750505082610ab3910383610dd0565b604051928392602084019060208552518091526040840192915b818110610adb575050500390f35b82516001600160a01b0316845285945060209384019390920191600101610acd565b82546001600160a01b0316845260209093019260019283019201610a9d565b50346101625761014036600319011261016257600435610b3a610d30565b9060443567ffffffffffffffff811161053057610b5b903690600401610d61565b90928460643594610b6a610d8f565b90610104359661ffff881680980361053057610124359563ffffffff8716809703610cd757610b9e926105b483888b6110d4565b81546001600160a01b031690813b156109845760405163d505accf60e01b81523360048201523060248201526044810187905260848035606483015260ff929092169181019190915260c4803560a483015260e4803591830191909152909291839190829084905af18015610ccc57610cb0575b50600154855460405163ce2971cf60e01b81526001600160a01b039182166004820152602481019590955260448501959095526064840192909252831660848301529091602091839160a49183918791165af1801561098857610c73575080f35b6020813d602011610ca8575b81610c8c60209383610dd0565b81010312610993575167ffffffffffffffff8116036101625780f35b3d9150610c7f565b9185610cc260a4939760209695610dd0565b9591509192610c12565b6040513d88823e3d90fd5b8480fd5b9050346109935760203660031901126109935760043563ffffffff60e01b81168091036109845760209250637965db0b60e01b8114908115610d1f575b5015158152f35b6301ffc9a760e01b14905038610d18565b602435906001600160a01b0382168203610d4657565b600080fd5b600435906001600160a01b0382168203610d4657565b9181601f84011215610d465782359167ffffffffffffffff8311610d465760208381860195010111610d4657565b60a4359060ff82168203610d4657565b600454811015610dba57600460005260206000200190600090565b634e487b7160e01b600052603260045260246000fd5b90601f8019910116810190811067ffffffffffffffff821117610df257604052565b634e487b7160e01b600052604160045260246000fd5b60005260008051602061182c83398151915260205260016040600020015490565b6000905b6004549182811015610f4857610e4281610d9f565b90546001600160a01b03848116959260031b9190911c168414610e6a57506001019150610e2d565b600019810192508211610f3257610e9e610e86610ec293610d9f565b905460039190911b1c6001600160a01b031691610d9f565b81546001600160a01b0393841660039290921b91821b9390911b1916919091179055565b6004548015610f1c577febe8af0714f0dd4a7b23bc7163ea1aadcce97af7a8ec25343abdbccdb2ea8a669160209160001901610efd81610d9f565b81549060018060a01b039060031b1b19169055600455604051908152a1565b634e487b7160e01b600052603160045260246000fd5b634e487b7160e01b600052601160045260246000fd5b506040516001600160a01b0390911681527f52d051a942d5c9a74e875d9faaa59f6de2ecefa16c6844af092cc73f749baad49150602090a1565b6004549060005b828110610f9857505050600090565b610fa181610d9f565b905460039190911b1c6001600160a01b0390811690831614610fc557600101610f89565b505050600190565b6001600160a01b038116908115611098576004549160005b83811061103e575068010000000000000000831015610df257611035602092610e9e8560017fcef021749a809ea9d2e4eb3f28a169c12227e99b0bca877f3950fb8c2ccfaa629701600455610d9f565b604051908152a1565b8161104882610d9f565b905460039190911b1c6001600160a01b03161461106757600101610fe5565b507f52d051a942d5c9a74e875d9faaa59f6de2ecefa16c6844af092cc73f749baad4925060209150604051908152a1565b604051630b0f5aa160e11b815260206004820152601360248201527264657374696e6174696f6e206164647265737360681b6044820152606490fd5b916040519160208301937fa79feebba5eca838f5afb25f042ef9dbee2e9824463ec262b652584c92f243638552336040850152606084015260018060a01b0316608083015260a082015260a0815261112d60c082610dd0565b51902090565b9242116112c25782600052600560205260ff604060002054166112b157604260405160208101907f8b73c3c69bb8fe3d512ecc4cf759cc79239f7b179b0ffacaa9a75d522b39400f82527fd50fd8c1b5fa5213a5974932fcc33d2992a99225bc9319caf7cf652d0d2b9acf60408201527fc89efdaa54c0f20c7adf612882df0950f5a951637e0307cdcb4c672f298b8bc660608201524660808201523060a082015260a081526111e460c082610dd0565b5190206040519061190160f01b825260028201528460228201522067ffffffffffffffff8311610df25760405190611226601f8501601f191660200183610dd0565b8382523684840111610d465760006020856112559661124c9683870137840101526116de565b9092919261171a565b6001600160a01b031680156112a0576003546001600160a01b03160361128f5760005260056020526040600020600160ff19825416179055565b63d1cc738560e01b60005260046000fd5b638bb79cad60e01b60005260046000fd5b63e544c62f60e01b60005260046000fd5b63288a076f60e21b60005260046000fd5b3360009081527fe0f49631d31e008cd72b9d6c5c7f7b2aea3c32d690788903106296f865135b11602052604090205460ff161561130c57565b63e2517d3f60e01b6000523360045260008051602061186c83398151915260245260446000fd5b600081815260008051602061182c8339815191526020908152604080832033845290915290205460ff16156113655750565b63e2517d3f60e01b6000523360045260245260446000fd5b6001600160a01b03811660009081527f29b8ff238ebd8c7d6f606a8413b26e49d7fdde8308763ac1856181e9dfcb517f602052604090205460ff1661144b576001600160a01b031660008181527f29b8ff238ebd8c7d6f606a8413b26e49d7fdde8308763ac1856181e9dfcb517f60205260408120805460ff191660011790553391907f0a160a5caf036f8340e8ee83de9fc0ad381d65eb292d6dfa44b33f603e10eae0907f2f8788117e7eff1d82e926ec794901d17c78024a50270940304540a733656f0d9080a4600190565b50600090565b600081815260008051602061182c833981519152602090815260408083206001600160a01b038616845290915290205460ff166114f357600081815260008051602061182c833981519152602090815260408083206001600160a01b0395909516808452949091528120805460ff19166001179055339291907f2f8788117e7eff1d82e926ec794901d17c78024a50270940304540a733656f0d9080a4600190565b5050600090565b90811561162d576001600160a01b0381169081156115f95761151b90610f82565b156115f95760018060a01b036000541660206000604051828101906323b872dd60e01b825233602482015285604482015286606482015260648152611561608482610dd0565b519082855af1156115ed576000513d6115e45750803b155b6115d05750600054600254604080519485526001600160a01b039283166020860152911690830152606082015233907fadc9c3953f85fcc1d3ded4ae5226e7508f849a2e6682438a2401ccd7cbc7ceb390608090a2565b635274afe760e01b60005260045260246000fd5b60011415611579565b6040513d6000823e3d90fd5b604051630b0f5aa160e11b815260206004820152600b60248201526a3232b9ba34b730ba34b7b760a91b6044820152606490fd5b63162908e360e11b60005260046000fd5b600081815260008051602061182c833981519152602090815260408083206001600160a01b038616845290915290205460ff16156114f357600081815260008051602061182c833981519152602090815260408083206001600160a01b0395909516808452949091528120805460ff19169055339291907ff6391f5c32d9c69d2a47ea670b442974b53935d1edc7fd64eb21e047a839171b9080a4600190565b815191906041830361170f5761170892506020820151906060604084015193015160001a906117a2565b9192909190565b505060009160029190565b919091600481101561178c578061173057509050565b60006001820361174b5763f645eedf60e01b60005260046000fd5b5060028103611769578263fce698f760e01b60005260045260246000fd5b9091600360009214611779575050565b6335e2f38360e21b825260045260249150fd5b634e487b7160e01b600052602160045260246000fd5b91907f7fffffffffffffffffffffffffffffff5d576e7357a4501ddfe92f46681b20a0841161181f579160209360809260ff60009560405194855216868401526040830152606082015282805260015afa156115ed576000516001600160a01b038116156118135790600090600090565b50600090600190600090565b5050506000916003919056fe02dd7bc7dec4dceedda775e58dd541e08a116c6c53815c0bd028192f7b626800f0c57e16840df040f15088dc2f81fe391c3923bec73e23a9662efc9c229c6a00224ddcd460adf9de7c6e6271e8a93026e66a0cec23d4223bbe4cdea09e0b7d34a164736f6c634300081c000a",
  "linkReferences": {},
  "deployedLinkReferences": {}
}