{
  "_format": "hh-sol-artifact-1",
  "contractName": "Depositor",
  "sourceName": "contracts/Depositor.sol",
  "abi": [
    {
      "inputs": [],
      "name": "AmlSignatureAlreadyUsed",
      "type": "error"
    },
    {
      "inputs": [],
      "name": "AmlSignatureExpired",
      "type": "error"
    },
    {
      "inputs": [],
      "name": "ECDSAInvalidSignature",
      "type": "error"
    },
    {
      "inputs": [
        {
          "internalType": "uint256",
          "name": "length",
          "type": "uint256"
        }
      ],
      "name": "ECDSAInvalidSignatureLength",
      "type": "error"
    },
    {
      "inputs": [
        {
          "internalType": "bytes32",
          "name": "s",
          "type": "bytes32"
        }
      ],
      "name": "ECDSAInvalidSignatureS",
      "type": "error"
    },
    {
      "inputs": [
        {
          "internalType": "string",
          "name": "",
          "type": "string"
        }
      ],
      "name": "InvalidAddress",
      "type": "error"
    },
    {
      "inputs": [],
      "name": "InvalidAmlSignature",
      "type": "error"
    },
    {
      "inputs": [],
      "name": "InvalidAmlSigner",
      "type": "error"
    },
    {
      "inputs": [],
      "name": "InvalidAmount",
      "type": "error"
    },
    {
      "inputs": [],
      "name": "InvalidInitialization",
      "type": "error"
    },
    {
      "inputs": [],
      "name": "NotInitializing",
      "type": "error"
    },
    {
      "inputs": [
        {
          "internalType": "address",
          "name": "token",
          "type": "address"
        }
      ],
      "name": "SafeERC20FailedOperation",
      "type": "error"
    },
    {
      "anonymous": false,
      "inputs": [
        {
          "indexed": true,
          "internalType": "address",
          "name": "user",
          "type": "address"
        },
        {
          "indexed": false,
          "internalType": "uint256",
          "name": "amount",
          "type": "uint256"
        },
        {
          "indexed": true,
          "internalType": "address",
          "name": "shareToken",
          "type": "address"
        },
        {
          "indexed": true,
          "internalType": "address",
          "name": "destinationAddress",
          "type": "address"
        }
      ],
      "name": "Deposit",
      "type": "event"
    },
    {
      "anonymous": false,
      "inputs": [
        {
          "indexed": false,
          "internalType": "uint64",
          "name": "version",
          "type": "uint64"
        }
      ],
      "name": "Initialized",
      "type": "event"
    },
    {
      "inputs": [],
      "name": "amlSigner",
      "outputs": [
        {
          "internalType": "address",
          "name": "",
          "type": "address"
        }
      ],
      "stateMutability": "view",
      "type": "function"
    },
    {
      "inputs": [
        {
          "internalType": "uint256",
          "name": "_amount",
          "type": "uint256"
        },
        {
          "internalType": "address",
          "name": "_destinationAddress",
          "type": "address"
        },
        {
          "internalType": "bytes",
          "name": "_amlSignature",
          "type": "bytes"
        },
        {
          "internalType": "uint256",
          "name": "_amlDeadline",
          "type": "uint256"
        }
      ],
      "name": "deposit",
      "outputs": [],
      "stateMutability": "nonpayable",
      "type": "function"
    },
    {
      "inputs": [],
      "name": "depositToken",
      "outputs": [
        {
          "internalType": "contract CustomToken",
          "name": "",
          "type": "address"
        }
      ],
      "stateMutability": "view",
      "type": "function"
    },
    {
      "inputs": [
        {
          "internalType": "uint256",
          "name": "_amount",
          "type": "uint256"
        },
        {
          "internalType": "address",
          "name": "_destinationAddress",
          "type": "address"
        },
        {
          "internalType": "bytes",
          "name": "_amlSignature",
          "type": "bytes"
        },
        {
          "internalType": "uint256",
          "name": "_amlDeadline",
          "type": "uint256"
        },
        {
          "internalType": "uint256",
          "name": "_permitDeadline",
          "type": "uint256"
        },
        {
          "internalType": "uint8",
          "name": "_v",
          "type": "uint8"
        },
        {
          "internalType": "bytes32",
          "name": "_r",
          "type": "bytes32"
        },
        {
          "internalType": "bytes32",
          "name": "_s",
          "type": "bytes32"
        }
      ],
      "name": "depositWithPermit",
      "outputs": [],
      "stateMutability": "nonpayable",
      "type": "function"
    },
    {
      "inputs": [
        {
          "internalType": "address",
          "name": "_depositTokenAddress",
          "type": "address"
        },
        {
          "internalType": "address",
          "name": "_shareTokenAddress",
          "type": "address"
        },
        {
          "internalType": "address",
          "name": "_amlSignerAddress",
          "type": "address"
        }
      ],
      "name": "initialize",
      "outputs": [],
      "stateMutability": "nonpayable",
      "type": "function"
    },
    {
      "inputs": [],
      "name": "shareToken",
      "outputs": [
        {
          "internalType": "address",
          "name": "",
          "type": "address"
        }
      ],
      "stateMutability": "view",
      "type": "function"
    },
    {
      "inputs": [
        {
          "internalType": "bytes32",
          "name": "",
          "type": "bytes32"
        }
      ],
      "name": "usedSignatures",
      "outputs": [
        {
          "internalType": "bool",
          "name": "",
          "type": "bool"
        }
      ],
      "stateMutability": "view",
      "type": "function"
    }
  ],
  "bytecode": "0x608080604052346015576113a7908161001b8239f35b600080fdfe608080604052600436101561001357600080fd5b600090813560e01c90816333f993cd1461071e575080636147da56146106f55780636c9fa59e146106cc578063c0c53b8b146101fc578063c89039c5146101d5578063df88933c1461009f5763f978fd611461006e57600080fd5b3461009c57602036600319011261009c5760ff60406020926004358152600384522054166040519015158152f35b80fd5b503461009c57608036600319011261009c576004356100bc61091e565b6044359167ffffffffffffffff83116101d15761018d6100e36101ce943690600401610939565b606435916101056040805167417130e267df1422602082015260208152610967565b610123604080516753a68be47dc86ebc602082015260208152610967565b610141604080516727da3510757ce5f0602082015260208152610967565b61014c83878761099f565b61016a6040805167b7f5f2578fb9d3b2602082015260208152610967565b61018860408051670af22b36db964348602082015260208152610967565b610ac4565b6101ab604080516703c3e98c569f9fe8602082015260208152610967565b6101c9604080516744ef5eb85e8cdb44602082015260208152610967565b610f4d565b80f35b8380fd5b503461009c578060031936011261009c57546040516001600160a01b039091168152602090f35b503461009c57606036600319011261009c576004356001600160a01b038116908190036106c85761022b61091e565b906044356001600160a01b03811691908290036101d157610260604080516772d8a2b22876db53602082015260208152610967565b60008051602061137b833981519152549260ff8460401c16159367ffffffffffffffff8116801590816106c0575b60011490816106b6575b1590816106ad575b5061069e5767ffffffffffffffff19811660011760008051602061137b8339815191525584610671575b506102e96040805167178c9adbf3ee2975602082015260208152610967565b6103076040805167a0ba37c3810bc391602082015260208152610967565b61032560408051676c26c5bbc13e7359602082015260208152610967565b61034360408051679eb2c46d05b5c8a9602082015260208152610967565b816103ba576103666040805167d72d7c2c191f71c1602082015260208152610967565b6103846040805167df327d0d6ff1ffb9602082015260208152610967565b604051630b0f5aa160e11b815260206004820152600d60248201526c3232b837b9b4ba103a37b5b2b760991b6044820152606490fd5b6103d860408051675bd46ae877fff0bb602082015260208152610967565b6103f660408051670cae04da1a396a54602082015260208152610967565b6104146040805167beb0bec81b481406602082015260208152610967565b6001600160a01b03169081610493576104416040805167d56107fa4b0f5070602082015260208152610967565b61045f60408051673f5c44f99a9ae85f602082015260208152610967565b604051630b0f5aa160e11b815260206004820152600b60248201526a39b430b932903a37b5b2b760a91b6044820152606490fd5b6104b16040805167c531f7cc21b30924602082015260208152610967565b6104cf60408051672b110858dacbec85602082015260208152610967565b6104ed60408051674c619cf87ec95536602082015260208152610967565b8261056157610510604080516772ce677b7ef10a77602082015260208152610967565b61052e604080516768ac9e1cb42d5846602082015260208152610967565b604051630b0f5aa160e11b815260206004820152600a60248201526930b6b61039b4b3b732b960b11b6044820152606490fd5b61057f604080516767e927982e337e4c602082015260208152610967565b61059d60408051675c40ebcff2e3bb22602082015260208152610967565b6001600160601b0360a01b8554161784556105cc60408051673d138ba6c1e5df52602082015260208152610967565b6001600160601b0360a01b60015416176001556105fd6040805167b6b2542a92c860d5602082015260208152610967565b6001600160601b0360a01b60025416176002556106175780f35b68ff00000000000000001960008051602061137b833981519152541660008051602061137b833981519152557fc7f505b2f371ae2175ee4913f4499e1f2633a7b5936321eed1cdaeb6115181d2602060405160018152a180f35b68ffffffffffffffffff1916680100000000000000011760008051602061137b83398151915255386102ca565b63f92ee8a960e01b8652600486fd5b905015386102a0565b303b159150610298565b86915061028e565b5080fd5b503461009c578060031936011261009c576001546040516001600160a01b039091168152602090f35b503461009c578060031936011261009c576002546040516001600160a01b039091168152602090f35b823461009c5761010036600319011261009c576004359161073d61091e565b9060443567ffffffffffffffff81116101d15761075e903690600401610939565b6064359160a4359360ff851680950361091a5790610794604083677cb7afd0f5a16b0a6020610817989796015260208152610967565b6107b26040805167e451cdf2f13c18ee602082015260208152610967565b6107d0604080516762878359617feed2602082015260208152610967565b6107db83878a61099f565b6107f96040805167cf73dd1fee550481602082015260208152610967565b61018860408051678c0fe76a0a867fec602082015260208152610967565b61083560408051679d515abf1839e7dd602082015260208152610967565b6108536040805167f73529c1917c8129602082015260208152610967565b82546001600160a01b031690813b156101d157839160e48392604051948593849263d505accf60e01b84523360048501523060248501528a60448501526084356064850152608484015260c43560a4840152833560c48401525af1801561090f576108fb575b506101ce91926108dd604080516711fb2f4608921860602082015260208152610967565b6101c9604080516738ce00bb4da1e74e602082015260208152610967565b91610909816101ce94610967565b916108b9565b6040513d85823e3d90fd5b8680fd5b602435906001600160a01b038216820361093457565b600080fd5b9181601f840112156109345782359167ffffffffffffffff8311610934576020838186019501011161093457565b90601f8019910116810190811067ffffffffffffffff82111761098957604052565b634e487b7160e01b600052604160045260246000fd5b90916109bf604080516748c6755d85fb7e55602082015260208152610967565b6109dd604080516761fa7b77cd2b5677602082015260208152610967565b6109fb6040805167a9909b5257c3d4ce602082015260208152610967565b610a1960408051674d07472eff1530be602082015260208152610967565b610a3760408051674a772e51837650d0602082015260208152610967565b610a556040805167f064bd018cd2cc1b602082015260208152610967565b60005492600154926040519360208501953360601b87526001600160601b03199060601b1660348601526001600160601b03199060601b166048850152605c8401526001600160601b03199060601b16607c830152609082015260908152610abe60b082610967565b51902090565b929190610ae560408051671611755ff8c1b86f602082015260208152610967565b610b03604080516755f044d80717b6aa602082015260208152610967565b610b2160408051673cee5de12f95e954602082015260208152610967565b60018060a01b036002541692610b4b60408051673adca2e4faf63731602082015260208152610967565b610b6960408051674854650843412209602082015260208152610967565b610b8760408051679b724163827dce38602082015260208152610967565b421115610bdb57610bac60408051678afe27dab394fcc3602082015260208152610967565b610bca6040805167fe67bb2833432081602082015260208152610967565b63288a076f60e21b60005260046000fd5b610bf96040805167d56e5eea0912d072602082015260208152610967565b610c176040805167fff70d874b14b9b5602082015260208152610967565b610c356040805167d9969316d66d7f2a602082015260208152610967565b83600052600360205260ff60406000205416600014610c9b57610c6c6040805167ceb7965ffe2554b2602082015260208152610967565b610c8a60408051678488932944aa0fa5602082015260208152610967565b63e544c62f60e01b60005260046000fd5b610cb9604080516778e99b1c91c4f6a3602082015260208152610967565b610cd76040805167e42d2c0be822a568602082015260208152610967565b610cf56040805167b30485a65492b4b0602082015260208152610967565b7f19457468657265756d205369676e6564204d6573736167653a0a33320000000060005283601c52603c600020610d40604080516720250f7f5e02ef75602082015260208152610967565b610d5e60408051674f4c954d62da7d7a602082015260208152610967565b67ffffffffffffffff83116109895760405190610d85601f8501601f191660200183610967565b8382523684840111610934576000602085610db496610dab96838701378401015261122d565b90929192611269565b610dd2604080516756539208dcf5da39602082015260208152610967565b610df0604080516748cf6809d9c131cf602082015260208152610967565b6001600160a01b031680610e4b57610e1c6040805167f1c83218e23c50ec602082015260208152610967565b610e3a60408051675c341709d88ab6f5602082015260208152610967565b638bb79cad60e01b60005260046000fd5b610e6960408051679dd8166f0f1ab77a602082015260208152610967565b610e876040805167b53fca6bd74d5c99602082015260208152610967565b610ea5604080516776e105fa9e53f649602082015260208152610967565b14610ef757610ec86040805167b78dac0a30b0bcf0602082015260208152610967565b610ee66040805167ce33704581403923602082015260208152610967565b63d1cc738560e01b60005260046000fd5b610f156040805167a524cce331912715602082015260208152610967565b610f336040805167474b5e9f7832b186602082015260208152610967565b60005260036020526040600020600160ff19825416179055565b90610f6c604080516734d33a66acf4fb23602082015260208152610967565b610f8a6040805167df8669ba3d7fe3e4602082015260208152610967565b610fa86040805167b73cab72587cd2d9602082015260208152610967565b81610ffa57610fcb6040805167171e3c8dac765d7f602082015260208152610967565b610fe96040805167e19de073aee5d848602082015260208152610967565b63162908e360e11b60005260046000fd5b61101860408051677108c7e6e7eb8adb602082015260208152610967565b6110366040805167c64ed9de05a4b923602082015260208152610967565b6110546040805167f1d681b99b488331602082015260208152610967565b6001600160a01b031690816110d3576110816040805167874211c0ff1558cd602082015260208152610967565b61109f6040805167311e471e42740bd4602082015260208152610967565b604051630b0f5aa160e11b815260206004820152600b60248201526a3232b9ba34b730ba34b7b760a91b6044820152606490fd5b6110f160408051676f54c74448afa7ad602082015260208152610967565b61110f604080516715fee404c810dc22602082015260208152610967565b61112d60408051676d2cb505814260ff602082015260208152610967565b60018060a01b036000541660206000604051828101906323b872dd60e01b82523360248201528660448201528560648201526064815261116e608482610967565b519082855af115611221576000513d6112185750803b155b61120457506111a96040805167f2e26ba723cdb3f6602082015260208152610967565b6111c760408051674194b5c05298b258602082015260208152610967565b6001546040519182526001600160a01b03169033907f0de79493600676d8b5d16e86d3fc8b6b9b20216b58a1adbf90547238e0dbcdf590602090a4565b635274afe760e01b60005260045260246000fd5b60011415611186565b6040513d6000823e3d90fd5b815191906041830361125e5761125792506020820151906060604084015193015160001a906112f1565b9192909190565b505060009160029190565b91909160048110156112db578061127f57509050565b60006001820361129a5763f645eedf60e01b60005260046000fd5b50600281036112b8578263fce698f760e01b60005260045260246000fd5b90916003600092146112c8575050565b6335e2f38360e21b825260045260249150fd5b634e487b7160e01b600052602160045260246000fd5b91907f7fffffffffffffffffffffffffffffff5d576e7357a4501ddfe92f46681b20a0841161136e579160209360809260ff60009560405194855216868401526040830152606082015282805260015afa15611221576000516001600160a01b038116156113625790600090600090565b50600090600190600090565b5050506000916003919056fef0c57e16840df040f15088dc2f81fe391c3923bec73e23a9662efc9c229c6a00a164736f6c634300081c000a",
  "linkReferences": {},
  "deployedLinkReferences": {}
}