{
  "_format": "hh-sol-artifact-1",
  "contractName": "CrossChainVaultMessages",
  "sourceName": "contracts/CrossChainVaultMessages.sol",
  "abi": [
    {
      "inputs": [],
      "name": "InvalidPayloadId",
      "type": "error"
    },
    {
      "inputs": [],
      "name": "InvalidPayloadLength",
      "type": "error"
    },
    {
      "inputs": [
        {
          "internalType": "bytes",
          "name": "encodedMessage",
          "type": "bytes"
        }
      ],
      "name": "decodePayload",
      "outputs": [
        {
          "components": [
            {
              "internalType": "uint8",
              "name": "payloadID",
              "type": "uint8"
            },
            {
              "internalType": "bytes32",
              "name": "targetRecipient",
              "type": "bytes32"
            }
          ],
          "internalType": "struct CrossChainVaultStructs.CrossChainVaultMessage",
          "name": "parsedMessage",
          "type": "tuple"
        }
      ],
      "stateMutability": "pure",
      "type": "function"
    },
    {
      "inputs": [
        {
          "components": [
            {
              "internalType": "uint8",
              "name": "payloadID",
              "type": "uint8"
            },
            {
              "internalType": "bytes32",
              "name": "targetRecipient",
              "type": "bytes32"
            }
          ],
          "internalType": "struct CrossChainVaultStructs.CrossChainVaultMessage",
          "name": "parsedMessage",
          "type": "tuple"
        }
      ],
      "name": "encodePayload",
      "outputs": [
        {
          "internalType": "bytes",
          "name": "encodedMessage",
          "type": "bytes"
        }
      ],
      "stateMutability": "pure",
      "type": "function"
    }
  ],
  "bytecode": "0x608080604052346015576102bd908161001b8239f35b600080fdfe608080604052600436101561001357600080fd5b60003560e01c908163197c6e77146100ed575063578479ec1461003557600080fd5b346100e85760403660031901126100e857600060405161005481610272565b6004359060ff821682036100e45780826020925260243591829101526040519160ff60f81b9060f81b16602083015260218201526021815261009760418261028e565b604051809260208252825192836020840152815b8481106100cc57505091604092838284010152601f80199101168101030190f35b602082820181015160408884010152869450016100ab565b8280fd5b600080fd5b346100e85760203660031901126100e85760043567ffffffffffffffff81116100e857366023820112156100e85780600401359067ffffffffffffffff821161025c57610144601f8301601f19166020018461028e565b81835236602483830101116100e85781600092602460209301838601378301015260405161017181610272565b6000815260208101916000835280511561022157600160ff8183015116808452036102105760218151106101d35760218101518352516021036101c25760409160ff83519251168252516020820152f35b632f3a03e160e11b60005260046000fd5b60405162461bcd60e51b8152602060048201526015602482015274746f427974657333325f6f75744f66426f756e647360581b6044820152606490fd5b637d05c64360e11b60005260046000fd5b60405162461bcd60e51b8152602060048201526013602482015272746f55696e74385f6f75744f66426f756e647360681b6044820152606490fd5b634e487b7160e01b600052604160045260246000fd5b6040810190811067ffffffffffffffff82111761025c57604052565b90601f8019910116810190811067ffffffffffffffff82111761025c5760405256fea164736f6c634300081c000a",
  "linkReferences": {},
  "deployedLinkReferences": {}
}