{
  "_format": "hh-sol-artifact-1",
  "contractName": "MockERC4626",
  "sourceName": "contracts/prime/mocks/MockERC4626.sol",
  "abi": [
    {
      "inputs": [
        {
          "internalType": "address",
          "name": "asset",
          "type": "address"
        },
        {
          "internalType": "string",
          "name": "name",
          "type": "string"
        },
        {
          "internalType": "string",
          "name": "symbol",
          "type": "string"
        }
      ],
      "stateMutability": "nonpayable",
      "type": "constructor"
    },
    {
      "inputs": [
        {
          "internalType": "address",
          "name": "spender",
          "type": "address"
        },
        {
          "internalType": "uint256",
          "name": "allowance",
          "type": "uint256"
        },
        {
          "internalType": "uint256",
          "name": "needed",
          "type": "uint256"
        }
      ],
      "name": "ERC20InsufficientAllowance",
      "type": "error"
    },
    {
      "inputs": [
        {
          "internalType": "address",
          "name": "sender",
          "type": "address"
        },
        {
          "internalType": "uint256",
          "name": "balance",
          "type": "uint256"
        },
        {
          "internalType": "uint256",
          "name": "needed",
          "type": "uint256"
        }
      ],
      "name": "ERC20InsufficientBalance",
      "type": "error"
    },
    {
      "inputs": [
        {
          "internalType": "address",
          "name": "approver",
          "type": "address"
        }
      ],
      "name": "ERC20InvalidApprover",
      "type": "error"
    },
    {
      "inputs": [
        {
          "internalType": "address",
          "name": "receiver",
          "type": "address"
        }
      ],
      "name": "ERC20InvalidReceiver",
      "type": "error"
    },
    {
      "inputs": [
        {
          "internalType": "address",
          "name": "sender",
          "type": "address"
        }
      ],
      "name": "ERC20InvalidSender",
      "type": "error"
    },
    {
      "inputs": [
        {
          "internalType": "address",
          "name": "spender",
          "type": "address"
        }
      ],
      "name": "ERC20InvalidSpender",
      "type": "error"
    },
    {
      "inputs": [
        {
          "internalType": "address",
          "name": "receiver",
          "type": "address"
        },
        {
          "internalType": "uint256",
          "name": "assets",
          "type": "uint256"
        },
        {
          "internalType": "uint256",
          "name": "max",
          "type": "uint256"
        }
      ],
      "name": "ERC4626ExceededMaxDeposit",
      "type": "error"
    },
    {
      "inputs": [
        {
          "internalType": "address",
          "name": "receiver",
          "type": "address"
        },
        {
          "internalType": "uint256",
          "name": "shares",
          "type": "uint256"
        },
        {
          "internalType": "uint256",
          "name": "max",
          "type": "uint256"
        }
      ],
      "name": "ERC4626ExceededMaxMint",
      "type": "error"
    },
    {
      "inputs": [
        {
          "internalType": "address",
          "name": "owner",
          "type": "address"
        },
        {
          "internalType": "uint256",
          "name": "shares",
          "type": "uint256"
        },
        {
          "internalType": "uint256",
          "name": "max",
          "type": "uint256"
        }
      ],
      "name": "ERC4626ExceededMaxRedeem",
      "type": "error"
    },
    {
      "inputs": [
        {
          "internalType": "address",
          "name": "owner",
          "type": "address"
        },
        {
          "internalType": "uint256",
          "name": "assets",
          "type": "uint256"
        },
        {
          "internalType": "uint256",
          "name": "max",
          "type": "uint256"
        }
      ],
      "name": "ERC4626ExceededMaxWithdraw",
      "type": "error"
    },
    {
      "inputs": [
        {
          "internalType": "address",
          "name": "token",
          "type": "address"
        }
      ],
      "name": "SafeERC20FailedOperation",
      "type": "error"
    },
    {
      "anonymous": false,
      "inputs": [
        {
          "indexed": true,
          "internalType": "address",
          "name": "owner",
          "type": "address"
        },
        {
          "indexed": true,
          "internalType": "address",
          "name": "spender",
          "type": "address"
        },
        {
          "indexed": false,
          "internalType": "uint256",
          "name": "value",
          "type": "uint256"
        }
      ],
      "name": "Approval",
      "type": "event"
    },
    {
      "anonymous": false,
      "inputs": [
        {
          "indexed": true,
          "internalType": "address",
          "name": "sender",
          "type": "address"
        },
        {
          "indexed": true,
          "internalType": "address",
          "name": "owner",
          "type": "address"
        },
        {
          "indexed": false,
          "internalType": "uint256",
          "name": "assets",
          "type": "uint256"
        },
        {
          "indexed": false,
          "internalType": "uint256",
          "name": "shares",
          "type": "uint256"
        }
      ],
      "name": "Deposit",
      "type": "event"
    },
    {
      "anonymous": false,
      "inputs": [
        {
          "indexed": true,
          "internalType": "address",
          "name": "from",
          "type": "address"
        },
        {
          "indexed": true,
          "internalType": "address",
          "name": "to",
          "type": "address"
        },
        {
          "indexed": false,
          "internalType": "uint256",
          "name": "value",
          "type": "uint256"
        }
      ],
      "name": "Transfer",
      "type": "event"
    },
    {
      "anonymous": false,
      "inputs": [
        {
          "indexed": true,
          "internalType": "address",
          "name": "sender",
          "type": "address"
        },
        {
          "indexed": true,
          "internalType": "address",
          "name": "receiver",
          "type": "address"
        },
        {
          "indexed": true,
          "internalType": "address",
          "name": "owner",
          "type": "address"
        },
        {
          "indexed": false,
          "internalType": "uint256",
          "name": "assets",
          "type": "uint256"
        },
        {
          "indexed": false,
          "internalType": "uint256",
          "name": "shares",
          "type": "uint256"
        }
      ],
      "name": "Withdraw",
      "type": "event"
    },
    {
      "inputs": [
        {
          "internalType": "address",
          "name": "owner",
          "type": "address"
        },
        {
          "internalType": "address",
          "name": "spender",
          "type": "address"
        }
      ],
      "name": "allowance",
      "outputs": [
        {
          "internalType": "uint256",
          "name": "",
          "type": "uint256"
        }
      ],
      "stateMutability": "view",
      "type": "function"
    },
    {
      "inputs": [
        {
          "internalType": "address",
          "name": "spender",
          "type": "address"
        },
        {
          "internalType": "uint256",
          "name": "value",
          "type": "uint256"
        }
      ],
      "name": "approve",
      "outputs": [
        {
          "internalType": "bool",
          "name": "",
          "type": "bool"
        }
      ],
      "stateMutability": "nonpayable",
      "type": "function"
    },
    {
      "inputs": [],
      "name": "asset",
      "outputs": [
        {
          "internalType": "address",
          "name": "",
          "type": "address"
        }
      ],
      "stateMutability": "view",
      "type": "function"
    },
    {
      "inputs": [
        {
          "internalType": "address",
          "name": "account",
          "type": "address"
        }
      ],
      "name": "balanceOf",
      "outputs": [
        {
          "internalType": "uint256",
          "name": "",
          "type": "uint256"
        }
      ],
      "stateMutability": "view",
      "type": "function"
    },
    {
      "inputs": [
        {
          "internalType": "uint256",
          "name": "shares",
          "type": "uint256"
        }
      ],
      "name": "convertToAssets",
      "outputs": [
        {
          "internalType": "uint256",
          "name": "",
          "type": "uint256"
        }
      ],
      "stateMutability": "view",
      "type": "function"
    },
    {
      "inputs": [
        {
          "internalType": "uint256",
          "name": "assets",
          "type": "uint256"
        }
      ],
      "name": "convertToShares",
      "outputs": [
        {
          "internalType": "uint256",
          "name": "",
          "type": "uint256"
        }
      ],
      "stateMutability": "view",
      "type": "function"
    },
    {
      "inputs": [],
      "name": "decimals",
      "outputs": [
        {
          "internalType": "uint8",
          "name": "",
          "type": "uint8"
        }
      ],
      "stateMutability": "view",
      "type": "function"
    },
    {
      "inputs": [
        {
          "internalType": "uint256",
          "name": "assets",
          "type": "uint256"
        },
        {
          "internalType": "address",
          "name": "receiver",
          "type": "address"
        }
      ],
      "name": "deposit",
      "outputs": [
        {
          "internalType": "uint256",
          "name": "",
          "type": "uint256"
        }
      ],
      "stateMutability": "nonpayable",
      "type": "function"
    },
    {
      "inputs": [
        {
          "internalType": "address",
          "name": "",
          "type": "address"
        }
      ],
      "name": "maxDeposit",
      "outputs": [
        {
          "internalType": "uint256",
          "name": "",
          "type": "uint256"
        }
      ],
      "stateMutability": "view",
      "type": "function"
    },
    {
      "inputs": [
        {
          "internalType": "address",
          "name": "",
          "type": "address"
        }
      ],
      "name": "maxMint",
      "outputs": [
        {
          "internalType": "uint256",
          "name": "",
          "type": "uint256"
        }
      ],
      "stateMutability": "view",
      "type": "function"
    },
    {
      "inputs": [
        {
          "internalType": "address",
          "name": "owner",
          "type": "address"
        }
      ],
      "name": "maxRedeem",
      "outputs": [
        {
          "internalType": "uint256",
          "name": "",
          "type": "uint256"
        }
      ],
      "stateMutability": "view",
      "type": "function"
    },
    {
      "inputs": [
        {
          "internalType": "address",
          "name": "owner",
          "type": "address"
        }
      ],
      "name": "maxWithdraw",
      "outputs": [
        {
          "internalType": "uint256",
          "name": "",
          "type": "uint256"
        }
      ],
      "stateMutability": "view",
      "type": "function"
    },
    {
      "inputs": [
        {
          "internalType": "uint256",
          "name": "shares",
          "type": "uint256"
        },
        {
          "internalType": "address",
          "name": "receiver",
          "type": "address"
        }
      ],
      "name": "mint",
      "outputs": [
        {
          "internalType": "uint256",
          "name": "",
          "type": "uint256"
        }
      ],
      "stateMutability": "nonpayable",
      "type": "function"
    },
    {
      "inputs": [],
      "name": "name",
      "outputs": [
        {
          "internalType": "string",
          "name": "",
          "type": "string"
        }
      ],
      "stateMutability": "view",
      "type": "function"
    },
    {
      "inputs": [
        {
          "internalType": "uint256",
          "name": "assets",
          "type": "uint256"
        }
      ],
      "name": "previewDeposit",
      "outputs": [
        {
          "internalType": "uint256",
          "name": "",
          "type": "uint256"
        }
      ],
      "stateMutability": "view",
      "type": "function"
    },
    {
      "inputs": [
        {
          "internalType": "uint256",
          "name": "shares",
          "type": "uint256"
        }
      ],
      "name": "previewMint",
      "outputs": [
        {
          "internalType": "uint256",
          "name": "",
          "type": "uint256"
        }
      ],
      "stateMutability": "view",
      "type": "function"
    },
    {
      "inputs": [
        {
          "internalType": "uint256",
          "name": "shares",
          "type": "uint256"
        }
      ],
      "name": "previewRedeem",
      "outputs": [
        {
          "internalType": "uint256",
          "name": "",
          "type": "uint256"
        }
      ],
      "stateMutability": "view",
      "type": "function"
    },
    {
      "inputs": [
        {
          "internalType": "uint256",
          "name": "assets",
          "type": "uint256"
        }
      ],
      "name": "previewWithdraw",
      "outputs": [
        {
          "internalType": "uint256",
          "name": "",
          "type": "uint256"
        }
      ],
      "stateMutability": "view",
      "type": "function"
    },
    {
      "inputs": [
        {
          "internalType": "uint256",
          "name": "shares",
          "type": "uint256"
        },
        {
          "internalType": "address",
          "name": "receiver",
          "type": "address"
        },
        {
          "internalType": "address",
          "name": "owner",
          "type": "address"
        }
      ],
      "name": "redeem",
      "outputs": [
        {
          "internalType": "uint256",
          "name": "",
          "type": "uint256"
        }
      ],
      "stateMutability": "nonpayable",
      "type": "function"
    },
    {
      "inputs": [
        {
          "internalType": "uint256",
          "name": "shares",
          "type": "uint256"
        },
        {
          "internalType": "address",
          "name": "receiver",
          "type": "address"
        },
        {
          "internalType": "address",
          "name": "owner",
          "type": "address"
        }
      ],
      "name": "requestRedeem",
      "outputs": [
        {
          "internalType": "uint256",
          "name": "assets",
          "type": "uint256"
        },
        {
          "internalType": "uint256",
          "name": "requestId",
          "type": "uint256"
        }
      ],
      "stateMutability": "nonpayable",
      "type": "function"
    },
    {
      "inputs": [],
      "name": "symbol",
      "outputs": [
        {
          "internalType": "string",
          "name": "",
          "type": "string"
        }
      ],
      "stateMutability": "view",
      "type": "function"
    },
    {
      "inputs": [],
      "name": "totalAssets",
      "outputs": [
        {
          "internalType": "uint256",
          "name": "",
          "type": "uint256"
        }
      ],
      "stateMutability": "view",
      "type": "function"
    },
    {
      "inputs": [],
      "name": "totalSupply",
      "outputs": [
        {
          "internalType": "uint256",
          "name": "",
          "type": "uint256"
        }
      ],
      "stateMutability": "view",
      "type": "function"
    },
    {
      "inputs": [
        {
          "internalType": "address",
          "name": "to",
          "type": "address"
        },
        {
          "internalType": "uint256",
          "name": "value",
          "type": "uint256"
        }
      ],
      "name": "transfer",
      "outputs": [
        {
          "internalType": "bool",
          "name": "",
          "type": "bool"
        }
      ],
      "stateMutability": "nonpayable",
      "type": "function"
    },
    {
      "inputs": [
        {
          "internalType": "address",
          "name": "from",
          "type": "address"
        },
        {
          "internalType": "address",
          "name": "to",
          "type": "address"
        },
        {
          "internalType": "uint256",
          "name": "value",
          "type": "uint256"
        }
      ],
      "name": "transferFrom",
      "outputs": [
        {
          "internalType": "bool",
          "name": "",
          "type": "bool"
        }
      ],
      "stateMutability": "nonpayable",
      "type": "function"
    },
    {
      "inputs": [
        {
          "internalType": "uint256",
          "name": "assets",
          "type": "uint256"
        },
        {
          "internalType": "address",
          "name": "receiver",
          "type": "address"
        },
        {
          "internalType": "address",
          "name": "owner",
          "type": "address"
        }
      ],
      "name": "withdraw",
      "outputs": [
        {
          "internalType": "uint256",
          "name": "",
          "type": "uint256"
        }
      ],
      "stateMutability": "nonpayable",
      "type": "function"
    }
  ],
  "bytecode": "0x60c0806040523461038757611198803803809161001c828561038c565b83398101906060818303126103875780516001600160a01b03811691908290036103875760208101516001600160401b038111610387578361005f9183016103ca565b60408201519093906001600160401b0381116103875761007f92016103ca565b82519091906001600160401b03811161029057600354600181811c9116801561037d575b602082101461027057601f8111610318575b506020601f82116001146102b157819293946000926102a6575b50508160011b916000199060031b1c1916176003555b81516001600160401b03811161029057600454600181811c91168015610286575b602082101461027057601f811161020b575b50602092601f82116001146101a6579281929360009261019b575b50508160011b916000199060031b1c1916176004555b6101528161042a565b9015610193575b60a0526080526001600555604051610cc690816104d282396080518181816104cb015281816107320152610a78015260a0518161050f0152f35b506012610159565b015190503880610133565b601f198216936004600052806000209160005b8681106101f357508360019596106101da575b505050811b01600455610149565b015160001960f88460031b161c191690553880806101cc565b919260206001819286850151815501940192016101b9565b60046000527f8a35acfbc15ff81a39ae7d344fd709f28e8600b4aa8c65c6b64bfe7fe36bd19b601f830160051c81019160208410610266575b601f0160051c01905b81811061025a5750610118565b6000815560010161024d565b9091508190610244565b634e487b7160e01b600052602260045260246000fd5b90607f1690610106565b634e487b7160e01b600052604160045260246000fd5b0151905038806100cf565b601f198216906003600052806000209160005b818110610300575095836001959697106102e7575b505050811b016003556100e5565b015160001960f88460031b161c191690553880806102d9565b9192602060018192868b0151815501940192016102c4565b60036000527fc2575a0e9e593c00f959f8c92f12db2869c3395a3b0502d05e2516446f71f85b601f830160051c81019160208410610373575b601f0160051c01905b81811061036757506100b5565b6000815560010161035a565b9091508190610351565b90607f16906100a3565b600080fd5b601f909101601f19168101906001600160401b0382119082101761029057604052565b6001600160401b03811161029057601f01601f191660200190565b81601f82011215610387578051906103e1826103af565b926103ef604051948561038c565b828452602083830101116103875760005b82811061041557505060206000918301015290565b80602080928401015182828701015201610400565b60008091604051602081019063313ce56760e01b82526004815261044f60248261038c565b51916001600160a01b03165afa3d156104c9573d9061046d826103af565b9161047b604051938461038c565b82523d6000602084013e5b806104bd575b61049a575b50600090600090565b602081805181010312610387576020015160ff8111610491579060ff6001921690565b5060208151101561048c565b60609061048656fe608080604052600436101561001357600080fd5b60003560e01c90816301e1d114146107095750806306fdde031461064a57806307a2d13a1461013d578063095ea7b3146105985780630a28a477146102a857806318160ddd1461057a57806323b872dd14610542578063313ce567146104fa57806338d52e0f146104b5578063402d267d146101d95780634cdad5061461013d5780636e553f65146103fe57806370a08231146101985780637d41c86e1461042757806394bf804d146103fe57806395d89b41146102f6578063a9059cbb146102c5578063b3d7f6b9146102a8578063b460af9414610243578063ba087652146101de578063c63d75b6146101d9578063c6e6f5921461013d578063ce96cb7714610198578063d905777e14610198578063dd62ed3e146101425763ef8b30f71461013d57600080fd5b6102a8565b346101935760403660031901126101935761015b6107fd565b610163610813565b6001600160a01b039182166000908152600160209081526040808320949093168252928352819020549051908152f35b600080fd5b346101935760203660031901126101935760206101d16101b66107fd565b6001600160a01b031660009081526020819052604090205490565b604051908152f35b610829565b34610193576101ec3661084f565b6001600160a01b03811660009081526020819052604090205491929180831161021f575081806101d19260209533610bb5565b9250632e52afbb60e21b60005260018060a01b031660045260245260445260646000fd5b34610193576102513661084f565b6001600160a01b038116600090815260208190526040902054919291808311610284575081806101d19260209533610bb5565b9250633fa733bb60e21b60005260018060a01b031660045260245260445260646000fd5b346101935760203660031901126101935760206040516004358152f35b34610193576040366003190112610193576102eb6102e16107fd565b602435903361096c565b602060405160018152f35b346101935760003660031901126101935760405160006004548060011c906001811680156103f4575b6020831081146103e0578285529081156103bc575060011461035c575b6103588361034c81850382610889565b604051918291826107b4565b0390f35b91905060046000527f8a35acfbc15ff81a39ae7d344fd709f28e8600b4aa8c65c6b64bfe7fe36bd19b916000905b8082106103a25750909150810160200161034c61033c565b91926001816020925483858801015201910190929161038a565b60ff191660208086019190915291151560051b8401909101915061034c905061033c565b634e487b7160e01b84526022600452602484fd5b91607f169161031f565b346101935760403660031901126101935760206004356101d18180610421610813565b33610a31565b34610193576104426104383661084f565b8290939193610b34565b600554600019811461049f5760409260018201600555816000526006602052828460002055816000526007602052836000209060018060a01b03166bffffffffffffffffffffffff60a01b82541617905582519182526020820152f35b634e487b7160e01b600052601160045260246000fd5b34610193576000366003190112610193576040517f00000000000000000000000000000000000000000000000000000000000000006001600160a01b03168152602090f35b346101935760003660031901126101935760ff7f00000000000000000000000000000000000000000000000000000000000000001660ff811161049f57602090604051908152f35b34610193576060366003190112610193576102eb61055e6107fd565b610566610813565b604435916105758333836108c1565b61096c565b34610193576000366003190112610193576020600254604051908152f35b34610193576040366003190112610193576105b16107fd565b602435903315610634576001600160a01b031690811561061e57336000526001602052604060002082600052602052806040600020556040519081527f8c5be1e5ebec7d5bd14f71427d1e84f3dd0314c0f7b2291e5b200ac8c7c3b92560203392a3602060405160018152f35b634a1406b160e11b600052600060045260246000fd5b63e602df0560e01b600052600060045260246000fd5b346101935760003660031901126101935760405160006003548060011c906001811680156106ff575b6020831081146103e0578285529081156103bc575060011461069f576103588361034c81850382610889565b91905060036000527fc2575a0e9e593c00f959f8c92f12db2869c3395a3b0502d05e2516446f71f85b916000905b8082106106e55750909150810160200161034c61033c565b9192600181602092548385880101520191019092916106cd565b91607f1691610673565b34610193576000366003190112610193576370a0823160e01b81523060048201526020816024817f00000000000000000000000000000000000000000000000000000000000000006001600160a01b03165afa80156107a857600090610775575b602090604051908152f35b506020813d6020116107a0575b8161078f60209383610889565b81010312610193576020905161076a565b3d9150610782565b6040513d6000823e3d90fd5b91909160208152825180602083015260005b8181106107e7575060409293506000838284010152601f8019910116010190565b80602080928701015160408286010152016107c6565b600435906001600160a01b038216820361019357565b602435906001600160a01b038216820361019357565b34610193576020366003190112610193576108426107fd565b5060206040516000198152f35b606090600319011261019357600435906024356001600160a01b038116810361019357906044356001600160a01b03811681036101935790565b90601f8019910116810190811067ffffffffffffffff8211176108ab57604052565b634e487b7160e01b600052604160045260246000fd5b6001600160a01b0390811660008181526001602090815260408083209486168352939052919091205492919060001984106108fd575b50505050565b828410610947578015610634576001600160a01b0382161561061e57600052600160205260406000209060018060a01b0316600052602052604060002091039055388080806108f7565b508290637dc7a0d960e11b60005260018060a01b031660045260245260445260646000fd5b6001600160a01b0316908115610a1b576001600160a01b0316918215610a055760008281528060205260408120548281106109eb5791604082827fddf252ad1be2c89b69c2b068fc378daa952ba7f163c4a11628f55a4df523b3ef958760209652828652038282205586815280845220818154019055604051908152a3565b916064928463391434e360e21b8452600452602452604452fd5b63ec442f0560e01b600052600060045260246000fd5b634b637e8f60e11b600052600060045260246000fd5b6040516323b872dd60e01b60208201526001600160a01b03909116602482018190523060448301526064808301859052825292939190610aa590610a76608482610889565b7f00000000000000000000000000000000000000000000000000000000000000006001600160a01b0316610c5e565b6001600160a01b0316928315610a05576002549082820180921161049f577fdcbc1c05240f31ff3ad067ef1ee35ce4997762752e3a095284754544f4c709d792604092600255856000818152806020528481208381540190557fddf252ad1be2c89b69c2b068fc378daa952ba7f163c4a11628f55a4df523b3ef60208651858152a382519182526020820152a3565b6001600160a01b03168015610a1b57600091818352826020526040832054818110610b9c57817fddf252ad1be2c89b69c2b068fc378daa952ba7f163c4a11628f55a4df523b3ef926020928587528684520360408620558060025403600255604051908152a3565b6064939263391434e360e21b8452600452602452604452fd5b6001600160a01b03808416959294908216937ffbde797d201c681b91056529119e0b02407c7bb96a4a2c75c01fc9667232c8db936040939091610c0591839190828b8a03610c4d575b5050610b34565b825163a9059cbb60e01b60208201526001600160a01b03909616602487018190526044808801849052875295610c4090610a76606482610889565b82519182526020820152a4565b610c5791836108c1565b3882610bfe565b906000602091828151910182855af1156107a8576000513d610cb057506001600160a01b0381163b155b610c8f5750565b635274afe760e01b60009081526001600160a01b0391909116600452602490fd5b60011415610c8856fea164736f6c634300081c000a",
  "linkReferences": {},
  "deployedLinkReferences": {}
}