{
  "_format": "hh-sol-artifact-1",
  "contractName": "MockERC4626",
  "sourceName": "contracts/prime/mocks/MockERC4626.sol",
  "abi": [
    {
      "inputs": [
        {
          "internalType": "address",
          "name": "asset",
          "type": "address"
        },
        {
          "internalType": "string",
          "name": "name",
          "type": "string"
        },
        {
          "internalType": "string",
          "name": "symbol",
          "type": "string"
        }
      ],
      "stateMutability": "nonpayable",
      "type": "constructor"
    },
    {
      "inputs": [
        {
          "internalType": "address",
          "name": "spender",
          "type": "address"
        },
        {
          "internalType": "uint256",
          "name": "allowance",
          "type": "uint256"
        },
        {
          "internalType": "uint256",
          "name": "needed",
          "type": "uint256"
        }
      ],
      "name": "ERC20InsufficientAllowance",
      "type": "error"
    },
    {
      "inputs": [
        {
          "internalType": "address",
          "name": "sender",
          "type": "address"
        },
        {
          "internalType": "uint256",
          "name": "balance",
          "type": "uint256"
        },
        {
          "internalType": "uint256",
          "name": "needed",
          "type": "uint256"
        }
      ],
      "name": "ERC20InsufficientBalance",
      "type": "error"
    },
    {
      "inputs": [
        {
          "internalType": "address",
          "name": "approver",
          "type": "address"
        }
      ],
      "name": "ERC20InvalidApprover",
      "type": "error"
    },
    {
      "inputs": [
        {
          "internalType": "address",
          "name": "receiver",
          "type": "address"
        }
      ],
      "name": "ERC20InvalidReceiver",
      "type": "error"
    },
    {
      "inputs": [
        {
          "internalType": "address",
          "name": "sender",
          "type": "address"
        }
      ],
      "name": "ERC20InvalidSender",
      "type": "error"
    },
    {
      "inputs": [
        {
          "internalType": "address",
          "name": "spender",
          "type": "address"
        }
      ],
      "name": "ERC20InvalidSpender",
      "type": "error"
    },
    {
      "inputs": [
        {
          "internalType": "address",
          "name": "receiver",
          "type": "address"
        },
        {
          "internalType": "uint256",
          "name": "assets",
          "type": "uint256"
        },
        {
          "internalType": "uint256",
          "name": "max",
          "type": "uint256"
        }
      ],
      "name": "ERC4626ExceededMaxDeposit",
      "type": "error"
    },
    {
      "inputs": [
        {
          "internalType": "address",
          "name": "receiver",
          "type": "address"
        },
        {
          "internalType": "uint256",
          "name": "shares",
          "type": "uint256"
        },
        {
          "internalType": "uint256",
          "name": "max",
          "type": "uint256"
        }
      ],
      "name": "ERC4626ExceededMaxMint",
      "type": "error"
    },
    {
      "inputs": [
        {
          "internalType": "address",
          "name": "owner",
          "type": "address"
        },
        {
          "internalType": "uint256",
          "name": "shares",
          "type": "uint256"
        },
        {
          "internalType": "uint256",
          "name": "max",
          "type": "uint256"
        }
      ],
      "name": "ERC4626ExceededMaxRedeem",
      "type": "error"
    },
    {
      "inputs": [
        {
          "internalType": "address",
          "name": "owner",
          "type": "address"
        },
        {
          "internalType": "uint256",
          "name": "assets",
          "type": "uint256"
        },
        {
          "internalType": "uint256",
          "name": "max",
          "type": "uint256"
        }
      ],
      "name": "ERC4626ExceededMaxWithdraw",
      "type": "error"
    },
    {
      "inputs": [
        {
          "internalType": "address",
          "name": "token",
          "type": "address"
        }
      ],
      "name": "SafeERC20FailedOperation",
      "type": "error"
    },
    {
      "anonymous": false,
      "inputs": [
        {
          "indexed": true,
          "internalType": "address",
          "name": "owner",
          "type": "address"
        },
        {
          "indexed": true,
          "internalType": "address",
          "name": "spender",
          "type": "address"
        },
        {
          "indexed": false,
          "internalType": "uint256",
          "name": "value",
          "type": "uint256"
        }
      ],
      "name": "Approval",
      "type": "event"
    },
    {
      "anonymous": false,
      "inputs": [
        {
          "indexed": true,
          "internalType": "address",
          "name": "sender",
          "type": "address"
        },
        {
          "indexed": true,
          "internalType": "address",
          "name": "owner",
          "type": "address"
        },
        {
          "indexed": false,
          "internalType": "uint256",
          "name": "assets",
          "type": "uint256"
        },
        {
          "indexed": false,
          "internalType": "uint256",
          "name": "shares",
          "type": "uint256"
        }
      ],
      "name": "Deposit",
      "type": "event"
    },
    {
      "anonymous": false,
      "inputs": [
        {
          "indexed": true,
          "internalType": "address",
          "name": "from",
          "type": "address"
        },
        {
          "indexed": true,
          "internalType": "address",
          "name": "to",
          "type": "address"
        },
        {
          "indexed": false,
          "internalType": "uint256",
          "name": "value",
          "type": "uint256"
        }
      ],
      "name": "Transfer",
      "type": "event"
    },
    {
      "anonymous": false,
      "inputs": [
        {
          "indexed": true,
          "internalType": "address",
          "name": "sender",
          "type": "address"
        },
        {
          "indexed": true,
          "internalType": "address",
          "name": "receiver",
          "type": "address"
        },
        {
          "indexed": true,
          "internalType": "address",
          "name": "owner",
          "type": "address"
        },
        {
          "indexed": false,
          "internalType": "uint256",
          "name": "assets",
          "type": "uint256"
        },
        {
          "indexed": false,
          "internalType": "uint256",
          "name": "shares",
          "type": "uint256"
        }
      ],
      "name": "Withdraw",
      "type": "event"
    },
    {
      "inputs": [
        {
          "internalType": "address",
          "name": "owner",
          "type": "address"
        },
        {
          "internalType": "address",
          "name": "spender",
          "type": "address"
        }
      ],
      "name": "allowance",
      "outputs": [
        {
          "internalType": "uint256",
          "name": "",
          "type": "uint256"
        }
      ],
      "stateMutability": "view",
      "type": "function"
    },
    {
      "inputs": [
        {
          "internalType": "address",
          "name": "spender",
          "type": "address"
        },
        {
          "internalType": "uint256",
          "name": "value",
          "type": "uint256"
        }
      ],
      "name": "approve",
      "outputs": [
        {
          "internalType": "bool",
          "name": "",
          "type": "bool"
        }
      ],
      "stateMutability": "nonpayable",
      "type": "function"
    },
    {
      "inputs": [],
      "name": "asset",
      "outputs": [
        {
          "internalType": "address",
          "name": "",
          "type": "address"
        }
      ],
      "stateMutability": "view",
      "type": "function"
    },
    {
      "inputs": [
        {
          "internalType": "address",
          "name": "account",
          "type": "address"
        }
      ],
      "name": "balanceOf",
      "outputs": [
        {
          "internalType": "uint256",
          "name": "",
          "type": "uint256"
        }
      ],
      "stateMutability": "view",
      "type": "function"
    },
    {
      "inputs": [
        {
          "internalType": "uint256",
          "name": "shares",
          "type": "uint256"
        }
      ],
      "name": "convertToAssets",
      "outputs": [
        {
          "internalType": "uint256",
          "name": "",
          "type": "uint256"
        }
      ],
      "stateMutability": "view",
      "type": "function"
    },
    {
      "inputs": [
        {
          "internalType": "uint256",
          "name": "assets",
          "type": "uint256"
        }
      ],
      "name": "convertToShares",
      "outputs": [
        {
          "internalType": "uint256",
          "name": "",
          "type": "uint256"
        }
      ],
      "stateMutability": "view",
      "type": "function"
    },
    {
      "inputs": [],
      "name": "decimals",
      "outputs": [
        {
          "internalType": "uint8",
          "name": "",
          "type": "uint8"
        }
      ],
      "stateMutability": "view",
      "type": "function"
    },
    {
      "inputs": [
        {
          "internalType": "uint256",
          "name": "assets",
          "type": "uint256"
        },
        {
          "internalType": "address",
          "name": "receiver",
          "type": "address"
        }
      ],
      "name": "deposit",
      "outputs": [
        {
          "internalType": "uint256",
          "name": "",
          "type": "uint256"
        }
      ],
      "stateMutability": "nonpayable",
      "type": "function"
    },
    {
      "inputs": [
        {
          "internalType": "address",
          "name": "",
          "type": "address"
        }
      ],
      "name": "maxDeposit",
      "outputs": [
        {
          "internalType": "uint256",
          "name": "",
          "type": "uint256"
        }
      ],
      "stateMutability": "view",
      "type": "function"
    },
    {
      "inputs": [
        {
          "internalType": "address",
          "name": "",
          "type": "address"
        }
      ],
      "name": "maxMint",
      "outputs": [
        {
          "internalType": "uint256",
          "name": "",
          "type": "uint256"
        }
      ],
      "stateMutability": "view",
      "type": "function"
    },
    {
      "inputs": [
        {
          "internalType": "address",
          "name": "owner",
          "type": "address"
        }
      ],
      "name": "maxRedeem",
      "outputs": [
        {
          "internalType": "uint256",
          "name": "",
          "type": "uint256"
        }
      ],
      "stateMutability": "view",
      "type": "function"
    },
    {
      "inputs": [
        {
          "internalType": "address",
          "name": "owner",
          "type": "address"
        }
      ],
      "name": "maxWithdraw",
      "outputs": [
        {
          "internalType": "uint256",
          "name": "",
          "type": "uint256"
        }
      ],
      "stateMutability": "view",
      "type": "function"
    },
    {
      "inputs": [
        {
          "internalType": "uint256",
          "name": "shares",
          "type": "uint256"
        },
        {
          "internalType": "address",
          "name": "receiver",
          "type": "address"
        }
      ],
      "name": "mint",
      "outputs": [
        {
          "internalType": "uint256",
          "name": "",
          "type": "uint256"
        }
      ],
      "stateMutability": "nonpayable",
      "type": "function"
    },
    {
      "inputs": [],
      "name": "name",
      "outputs": [
        {
          "internalType": "string",
          "name": "",
          "type": "string"
        }
      ],
      "stateMutability": "view",
      "type": "function"
    },
    {
      "inputs": [
        {
          "internalType": "uint256",
          "name": "assets",
          "type": "uint256"
        }
      ],
      "name": "previewDeposit",
      "outputs": [
        {
          "internalType": "uint256",
          "name": "",
          "type": "uint256"
        }
      ],
      "stateMutability": "view",
      "type": "function"
    },
    {
      "inputs": [
        {
          "internalType": "uint256",
          "name": "shares",
          "type": "uint256"
        }
      ],
      "name": "previewMint",
      "outputs": [
        {
          "internalType": "uint256",
          "name": "",
          "type": "uint256"
        }
      ],
      "stateMutability": "view",
      "type": "function"
    },
    {
      "inputs": [
        {
          "internalType": "uint256",
          "name": "shares",
          "type": "uint256"
        }
      ],
      "name": "previewRedeem",
      "outputs": [
        {
          "internalType": "uint256",
          "name": "",
          "type": "uint256"
        }
      ],
      "stateMutability": "view",
      "type": "function"
    },
    {
      "inputs": [
        {
          "internalType": "uint256",
          "name": "assets",
          "type": "uint256"
        }
      ],
      "name": "previewWithdraw",
      "outputs": [
        {
          "internalType": "uint256",
          "name": "",
          "type": "uint256"
        }
      ],
      "stateMutability": "view",
      "type": "function"
    },
    {
      "inputs": [
        {
          "internalType": "uint256",
          "name": "shares",
          "type": "uint256"
        },
        {
          "internalType": "address",
          "name": "receiver",
          "type": "address"
        },
        {
          "internalType": "address",
          "name": "owner",
          "type": "address"
        }
      ],
      "name": "redeem",
      "outputs": [
        {
          "internalType": "uint256",
          "name": "",
          "type": "uint256"
        }
      ],
      "stateMutability": "nonpayable",
      "type": "function"
    },
    {
      "inputs": [],
      "name": "symbol",
      "outputs": [
        {
          "internalType": "string",
          "name": "",
          "type": "string"
        }
      ],
      "stateMutability": "view",
      "type": "function"
    },
    {
      "inputs": [],
      "name": "totalAssets",
      "outputs": [
        {
          "internalType": "uint256",
          "name": "",
          "type": "uint256"
        }
      ],
      "stateMutability": "view",
      "type": "function"
    },
    {
      "inputs": [],
      "name": "totalSupply",
      "outputs": [
        {
          "internalType": "uint256",
          "name": "",
          "type": "uint256"
        }
      ],
      "stateMutability": "view",
      "type": "function"
    },
    {
      "inputs": [
        {
          "internalType": "address",
          "name": "to",
          "type": "address"
        },
        {
          "internalType": "uint256",
          "name": "value",
          "type": "uint256"
        }
      ],
      "name": "transfer",
      "outputs": [
        {
          "internalType": "bool",
          "name": "",
          "type": "bool"
        }
      ],
      "stateMutability": "nonpayable",
      "type": "function"
    },
    {
      "inputs": [
        {
          "internalType": "address",
          "name": "from",
          "type": "address"
        },
        {
          "internalType": "address",
          "name": "to",
          "type": "address"
        },
        {
          "internalType": "uint256",
          "name": "value",
          "type": "uint256"
        }
      ],
      "name": "transferFrom",
      "outputs": [
        {
          "internalType": "bool",
          "name": "",
          "type": "bool"
        }
      ],
      "stateMutability": "nonpayable",
      "type": "function"
    },
    {
      "inputs": [
        {
          "internalType": "uint256",
          "name": "assets",
          "type": "uint256"
        },
        {
          "internalType": "address",
          "name": "receiver",
          "type": "address"
        },
        {
          "internalType": "address",
          "name": "owner",
          "type": "address"
        }
      ],
      "name": "withdraw",
      "outputs": [
        {
          "internalType": "uint256",
          "name": "",
          "type": "uint256"
        }
      ],
      "stateMutability": "nonpayable",
      "type": "function"
    }
  ],
  "bytecode": "0x60c08060405234610382576110fc803803809161001c8285610387565b83398101906060818303126103825780516001600160a01b03811691908290036103825760208101516001600160401b038111610382578361005f9183016103c5565b60408201519093906001600160401b0381116103825761007f92016103c5565b82519091906001600160401b03811161028b57600354600181811c91168015610378575b602082101461026b57601f8111610313575b506020601f82116001146102ac57819293946000926102a1575b50508160011b916000199060031b1c1916176003555b81516001600160401b03811161028b57600454600181811c91168015610281575b602082101461026b57601f8111610206575b50602092601f82116001146101a15792819293600092610196575b50508160011b916000199060031b1c1916176004555b61015281610425565b901561018e575b60a052608052604051610c2f90816104cd8239608051818181610432015281816106af01526109f5015260a051816104760152f35b506012610159565b015190503880610133565b601f198216936004600052806000209160005b8681106101ee57508360019596106101d5575b505050811b01600455610149565b015160001960f88460031b161c191690553880806101c7565b919260206001819286850151815501940192016101b4565b60046000527f8a35acfbc15ff81a39ae7d344fd709f28e8600b4aa8c65c6b64bfe7fe36bd19b601f830160051c81019160208410610261575b601f0160051c01905b8181106102555750610118565b60008155600101610248565b909150819061023f565b634e487b7160e01b600052602260045260246000fd5b90607f1690610106565b634e487b7160e01b600052604160045260246000fd5b0151905038806100cf565b601f198216906003600052806000209160005b8181106102fb575095836001959697106102e2575b505050811b016003556100e5565b015160001960f88460031b161c191690553880806102d4565b9192602060018192868b0151815501940192016102bf565b60036000527fc2575a0e9e593c00f959f8c92f12db2869c3395a3b0502d05e2516446f71f85b601f830160051c8101916020841061036e575b601f0160051c01905b81811061036257506100b5565b60008155600101610355565b909150819061034c565b90607f16906100a3565b600080fd5b601f909101601f19168101906001600160401b0382119082101761028b57604052565b6001600160401b03811161028b57601f01601f191660200190565b81601f82011215610382578051906103dc826103aa565b926103ea6040519485610387565b828452602083830101116103825760005b82811061041057505060206000918301015290565b806020809284010151828287010152016103fb565b60008091604051602081019063313ce56760e01b82526004815261044a602482610387565b51916001600160a01b03165afa3d156104c4573d90610468826103aa565b916104766040519384610387565b82523d6000602084013e5b806104b8575b610495575b50600090600090565b602081805181010312610382576020015160ff811161048c579060ff6001921690565b50602081511015610487565b60609061048156fe608080604052600436101561001357600080fd5b60003560e01c90816301e1d114146106865750806306fdde03146105c757806307a2d13a14610132578063095ea7b3146105155780630a28a4771461029d57806318160ddd146104f757806323b872dd146104bf578063313ce5671461046157806338d52e0f1461041c578063402d267d146101ce5780634cdad506146101325780636e553f65146103f357806370a082311461018d57806394bf804d146103f357806395d89b41146102eb578063a9059cbb146102ba578063b3d7f6b91461029d578063b460af9414610238578063ba087652146101d3578063c63d75b6146101ce578063c6e6f59214610132578063ce96cb771461018d578063d905777e1461018d578063dd62ed3e146101375763ef8b30f71461013257600080fd5b61029d565b346101885760403660031901126101885761015061077a565b610158610790565b6001600160a01b039182166000908152600160209081526040808320949093168252928352819020549051908152f35b600080fd5b346101885760203660031901126101885760206101c66101ab61077a565b6001600160a01b031660009081526020819052604090205490565b604051908152f35b6107a6565b34610188576101e1366107cc565b6001600160a01b038116600090815260208190526040902054919291808311610214575081806101c69260209533610ab1565b9250632e52afbb60e21b60005260018060a01b031660045260245260445260646000fd5b3461018857610246366107cc565b6001600160a01b038116600090815260208190526040902054919291808311610279575081806101c69260209533610ab1565b9250633fa733bb60e21b60005260018060a01b031660045260245260445260646000fd5b346101885760203660031901126101885760206040516004358152f35b34610188576040366003190112610188576102e06102d661077a565b60243590336108e9565b602060405160018152f35b346101885760003660031901126101885760405160006004548060011c906001811680156103e9575b6020831081146103d5578285529081156103b15750600114610351575b61034d8361034181850382610806565b60405191829182610731565b0390f35b91905060046000527f8a35acfbc15ff81a39ae7d344fd709f28e8600b4aa8c65c6b64bfe7fe36bd19b916000905b80821061039757509091508101602001610341610331565b91926001816020925483858801015201910190929161037f565b60ff191660208086019190915291151560051b840190910191506103419050610331565b634e487b7160e01b84526022600452602484fd5b91607f1691610314565b346101885760403660031901126101885760206004356101c68180610416610790565b336109ae565b34610188576000366003190112610188576040517f00000000000000000000000000000000000000000000000000000000000000006001600160a01b03168152602090f35b346101885760003660031901126101885760ff7f00000000000000000000000000000000000000000000000000000000000000001660ff81116104a957602090604051908152f35b634e487b7160e01b600052601160045260246000fd5b34610188576060366003190112610188576102e06104db61077a565b6104e3610790565b604435916104f283338361083e565b6108e9565b34610188576000366003190112610188576020600254604051908152f35b346101885760403660031901126101885761052e61077a565b6024359033156105b1576001600160a01b031690811561059b57336000526001602052604060002082600052602052806040600020556040519081527f8c5be1e5ebec7d5bd14f71427d1e84f3dd0314c0f7b2291e5b200ac8c7c3b92560203392a3602060405160018152f35b634a1406b160e11b600052600060045260246000fd5b63e602df0560e01b600052600060045260246000fd5b346101885760003660031901126101885760405160006003548060011c9060018116801561067c575b6020831081146103d5578285529081156103b1575060011461061c5761034d8361034181850382610806565b91905060036000527fc2575a0e9e593c00f959f8c92f12db2869c3395a3b0502d05e2516446f71f85b916000905b80821061066257509091508101602001610341610331565b91926001816020925483858801015201910190929161064a565b91607f16916105f0565b34610188576000366003190112610188576370a0823160e01b81523060048201526020816024817f00000000000000000000000000000000000000000000000000000000000000006001600160a01b03165afa8015610725576000906106f2575b602090604051908152f35b506020813d60201161071d575b8161070c60209383610806565b8101031261018857602090516106e7565b3d91506106ff565b6040513d6000823e3d90fd5b91909160208152825180602083015260005b818110610764575060409293506000838284010152601f8019910116010190565b8060208092870101516040828601015201610743565b600435906001600160a01b038216820361018857565b602435906001600160a01b038216820361018857565b34610188576020366003190112610188576107bf61077a565b5060206040516000198152f35b606090600319011261018857600435906024356001600160a01b038116810361018857906044356001600160a01b03811681036101885790565b90601f8019910116810190811067ffffffffffffffff82111761082857604052565b634e487b7160e01b600052604160045260246000fd5b6001600160a01b03908116600081815260016020908152604080832094861683529390529190912054929190600019841061087a575b50505050565b8284106108c45780156105b1576001600160a01b0382161561059b57600052600160205260406000209060018060a01b031660005260205260406000209103905538808080610874565b508290637dc7a0d960e11b60005260018060a01b031660045260245260445260646000fd5b6001600160a01b0316908115610998576001600160a01b03169182156109825760008281528060205260408120548281106109685791604082827fddf252ad1be2c89b69c2b068fc378daa952ba7f163c4a11628f55a4df523b3ef958760209652828652038282205586815280845220818154019055604051908152a3565b916064928463391434e360e21b8452600452602452604452fd5b63ec442f0560e01b600052600060045260246000fd5b634b637e8f60e11b600052600060045260246000fd5b6040516323b872dd60e01b60208201526001600160a01b03909116602482018190523060448301526064808301859052825292939190610a22906109f3608482610806565b7f00000000000000000000000000000000000000000000000000000000000000006001600160a01b0316610bc7565b6001600160a01b031692831561098257600254908282018092116104a9577fdcbc1c05240f31ff3ad067ef1ee35ce4997762752e3a095284754544f4c709d792604092600255856000818152806020528481208381540190557fddf252ad1be2c89b69c2b068fc378daa952ba7f163c4a11628f55a4df523b3ef60208651858152a382519182526020820152a3565b6001600160a01b03808416959294908216939092918290878603610bb6575b5050508415610998576000858152806020526040812054828110610b9c57918181604094897ffbde797d201c681b91056529119e0b02407c7bb96a4a2c75c01fc9667232c8db9795528260205203848220558160025403600255877fddf252ad1be2c89b69c2b068fc378daa952ba7f163c4a11628f55a4df523b3ef60208651858152a3825163a9059cbb60e01b60208201526001600160a01b03909616602487018190526044808801849052875295610b8f906109f3606482610806565b82519182526020820152a4565b916064928763391434e360e21b8452600452602452604452fd5b610bbf9261083e565b388181610ad0565b906000602091828151910182855af115610725576000513d610c1957506001600160a01b0381163b155b610bf85750565b635274afe760e01b60009081526001600160a01b0391909116600452602490fd5b60011415610bf156fea164736f6c634300081c000a",
  "linkReferences": {},
  "deployedLinkReferences": {}
}