{
  "_format": "hh-sol-artifact-1",
  "contractName": "DedicatedVaultRouterV2",
  "sourceName": "contracts/prime/mocks/DedicatedVaultRouterV2.sol",
  "abi": [
    {
      "inputs": [
        {
          "internalType": "address",
          "name": "target",
          "type": "address"
        }
      ],
      "name": "AddressEmptyCode",
      "type": "error"
    },
    {
      "inputs": [],
      "name": "AmlSignatureAlreadyUsed",
      "type": "error"
    },
    {
      "inputs": [],
      "name": "AmlSignatureExpired",
      "type": "error"
    },
    {
      "inputs": [],
      "name": "ECDSAInvalidSignature",
      "type": "error"
    },
    {
      "inputs": [
        {
          "internalType": "uint256",
          "name": "length",
          "type": "uint256"
        }
      ],
      "name": "ECDSAInvalidSignatureLength",
      "type": "error"
    },
    {
      "inputs": [
        {
          "internalType": "bytes32",
          "name": "s",
          "type": "bytes32"
        }
      ],
      "name": "ECDSAInvalidSignatureS",
      "type": "error"
    },
    {
      "inputs": [
        {
          "internalType": "address",
          "name": "implementation",
          "type": "address"
        }
      ],
      "name": "ERC1967InvalidImplementation",
      "type": "error"
    },
    {
      "inputs": [],
      "name": "ERC1967NonPayable",
      "type": "error"
    },
    {
      "inputs": [],
      "name": "FailedCall",
      "type": "error"
    },
    {
      "inputs": [
        {
          "internalType": "uint256",
          "name": "amount",
          "type": "uint256"
        }
      ],
      "name": "FundsStuck",
      "type": "error"
    },
    {
      "inputs": [],
      "name": "InvalidAmlSignature",
      "type": "error"
    },
    {
      "inputs": [],
      "name": "InvalidAmlSigner",
      "type": "error"
    },
    {
      "inputs": [],
      "name": "InvalidInitialization",
      "type": "error"
    },
    {
      "inputs": [],
      "name": "InvalidVault",
      "type": "error"
    },
    {
      "inputs": [],
      "name": "NotInitializing",
      "type": "error"
    },
    {
      "inputs": [
        {
          "internalType": "address",
          "name": "owner",
          "type": "address"
        }
      ],
      "name": "OwnableInvalidOwner",
      "type": "error"
    },
    {
      "inputs": [
        {
          "internalType": "address",
          "name": "account",
          "type": "address"
        }
      ],
      "name": "OwnableUnauthorizedAccount",
      "type": "error"
    },
    {
      "inputs": [],
      "name": "ReentrancyGuardReentrantCall",
      "type": "error"
    },
    {
      "inputs": [
        {
          "internalType": "address",
          "name": "token",
          "type": "address"
        }
      ],
      "name": "SafeERC20FailedOperation",
      "type": "error"
    },
    {
      "inputs": [
        {
          "internalType": "uint256",
          "name": "minShares",
          "type": "uint256"
        },
        {
          "internalType": "uint256",
          "name": "actualShares",
          "type": "uint256"
        }
      ],
      "name": "SlippageExceeded",
      "type": "error"
    },
    {
      "inputs": [],
      "name": "UUPSUnauthorizedCallContext",
      "type": "error"
    },
    {
      "inputs": [
        {
          "internalType": "bytes32",
          "name": "slot",
          "type": "bytes32"
        }
      ],
      "name": "UUPSUnsupportedProxiableUUID",
      "type": "error"
    },
    {
      "anonymous": false,
      "inputs": [
        {
          "indexed": true,
          "internalType": "address",
          "name": "oldSigner",
          "type": "address"
        },
        {
          "indexed": true,
          "internalType": "address",
          "name": "newSigner",
          "type": "address"
        }
      ],
      "name": "AmlSignerUpdated",
      "type": "event"
    },
    {
      "anonymous": false,
      "inputs": [
        {
          "indexed": true,
          "internalType": "address",
          "name": "user",
          "type": "address"
        },
        {
          "indexed": false,
          "internalType": "uint256",
          "name": "assets",
          "type": "uint256"
        },
        {
          "indexed": false,
          "internalType": "uint256",
          "name": "shares",
          "type": "uint256"
        },
        {
          "indexed": false,
          "internalType": "uint256",
          "name": "stakingShares",
          "type": "uint256"
        },
        {
          "indexed": false,
          "internalType": "uint256",
          "name": "nuvaShares",
          "type": "uint256"
        }
      ],
      "name": "Deposited",
      "type": "event"
    },
    {
      "anonymous": false,
      "inputs": [
        {
          "indexed": false,
          "internalType": "uint64",
          "name": "version",
          "type": "uint64"
        }
      ],
      "name": "Initialized",
      "type": "event"
    },
    {
      "anonymous": false,
      "inputs": [
        {
          "indexed": true,
          "internalType": "address",
          "name": "user",
          "type": "address"
        },
        {
          "indexed": false,
          "internalType": "uint256",
          "name": "stakingShares",
          "type": "uint256"
        },
        {
          "indexed": false,
          "internalType": "uint256",
          "name": "nuvaShares",
          "type": "uint256"
        }
      ],
      "name": "NuvaDeposited",
      "type": "event"
    },
    {
      "anonymous": false,
      "inputs": [
        {
          "indexed": true,
          "internalType": "address",
          "name": "previousOwner",
          "type": "address"
        },
        {
          "indexed": true,
          "internalType": "address",
          "name": "newOwner",
          "type": "address"
        }
      ],
      "name": "OwnershipTransferStarted",
      "type": "event"
    },
    {
      "anonymous": false,
      "inputs": [
        {
          "indexed": true,
          "internalType": "address",
          "name": "previousOwner",
          "type": "address"
        },
        {
          "indexed": true,
          "internalType": "address",
          "name": "newOwner",
          "type": "address"
        }
      ],
      "name": "OwnershipTransferred",
      "type": "event"
    },
    {
      "anonymous": false,
      "inputs": [
        {
          "indexed": true,
          "internalType": "address",
          "name": "implementation",
          "type": "address"
        }
      ],
      "name": "Upgraded",
      "type": "event"
    },
    {
      "inputs": [],
      "name": "UPGRADE_INTERFACE_VERSION",
      "outputs": [
        {
          "internalType": "string",
          "name": "",
          "type": "string"
        }
      ],
      "stateMutability": "view",
      "type": "function"
    },
    {
      "inputs": [],
      "name": "acceptOwnership",
      "outputs": [],
      "stateMutability": "nonpayable",
      "type": "function"
    },
    {
      "inputs": [],
      "name": "amlSigner",
      "outputs": [
        {
          "internalType": "address",
          "name": "",
          "type": "address"
        }
      ],
      "stateMutability": "view",
      "type": "function"
    },
    {
      "inputs": [],
      "name": "asset",
      "outputs": [
        {
          "internalType": "contract IERC20",
          "name": "",
          "type": "address"
        }
      ],
      "stateMutability": "view",
      "type": "function"
    },
    {
      "inputs": [],
      "name": "assetVault",
      "outputs": [
        {
          "internalType": "contract IERC4626",
          "name": "",
          "type": "address"
        }
      ],
      "stateMutability": "view",
      "type": "function"
    },
    {
      "inputs": [
        {
          "internalType": "uint256",
          "name": "_amount",
          "type": "uint256"
        },
        {
          "internalType": "address",
          "name": "_receiver",
          "type": "address"
        },
        {
          "internalType": "uint256",
          "name": "_minVaultSharesOut",
          "type": "uint256"
        },
        {
          "internalType": "uint256",
          "name": "_minStakingVaultSharesOut",
          "type": "uint256"
        },
        {
          "internalType": "uint256",
          "name": "_minNuvaVaultSharesOut",
          "type": "uint256"
        },
        {
          "internalType": "bytes",
          "name": "_amlSignature",
          "type": "bytes"
        },
        {
          "internalType": "uint256",
          "name": "_amlDeadline",
          "type": "uint256"
        }
      ],
      "name": "deposit",
      "outputs": [
        {
          "internalType": "uint256",
          "name": "",
          "type": "uint256"
        }
      ],
      "stateMutability": "nonpayable",
      "type": "function"
    },
    {
      "inputs": [
        {
          "internalType": "uint256",
          "name": "_amount",
          "type": "uint256"
        },
        {
          "internalType": "address",
          "name": "_receiver",
          "type": "address"
        },
        {
          "internalType": "uint256",
          "name": "_minVaultSharesOut",
          "type": "uint256"
        },
        {
          "internalType": "uint256",
          "name": "_minStakingVaultSharesOut",
          "type": "uint256"
        },
        {
          "internalType": "uint256",
          "name": "_minNuvaVaultSharesOut",
          "type": "uint256"
        },
        {
          "internalType": "bytes",
          "name": "_amlSignature",
          "type": "bytes"
        },
        {
          "internalType": "uint256",
          "name": "_amlDeadline",
          "type": "uint256"
        },
        {
          "internalType": "uint256",
          "name": "_permitDeadline",
          "type": "uint256"
        },
        {
          "internalType": "uint8",
          "name": "_v",
          "type": "uint8"
        },
        {
          "internalType": "bytes32",
          "name": "_r",
          "type": "bytes32"
        },
        {
          "internalType": "bytes32",
          "name": "_s",
          "type": "bytes32"
        }
      ],
      "name": "depositWithPermit",
      "outputs": [
        {
          "internalType": "uint256",
          "name": "",
          "type": "uint256"
        }
      ],
      "stateMutability": "nonpayable",
      "type": "function"
    },
    {
      "inputs": [
        {
          "internalType": "address",
          "name": "_assetVault",
          "type": "address"
        },
        {
          "internalType": "address",
          "name": "_stakingVault",
          "type": "address"
        },
        {
          "internalType": "address",
          "name": "_nuvaVault",
          "type": "address"
        },
        {
          "internalType": "address",
          "name": "_amlSigner",
          "type": "address"
        },
        {
          "internalType": "address",
          "name": "_initialOwner",
          "type": "address"
        }
      ],
      "name": "initialize",
      "outputs": [],
      "stateMutability": "nonpayable",
      "type": "function"
    },
    {
      "inputs": [],
      "name": "isPaused",
      "outputs": [
        {
          "internalType": "bool",
          "name": "",
          "type": "bool"
        }
      ],
      "stateMutability": "view",
      "type": "function"
    },
    {
      "inputs": [],
      "name": "nuvaAsset",
      "outputs": [
        {
          "internalType": "contract IERC20",
          "name": "",
          "type": "address"
        }
      ],
      "stateMutability": "view",
      "type": "function"
    },
    {
      "inputs": [],
      "name": "nuvaVault",
      "outputs": [
        {
          "internalType": "contract IERC4626",
          "name": "",
          "type": "address"
        }
      ],
      "stateMutability": "view",
      "type": "function"
    },
    {
      "inputs": [],
      "name": "owner",
      "outputs": [
        {
          "internalType": "address",
          "name": "",
          "type": "address"
        }
      ],
      "stateMutability": "view",
      "type": "function"
    },
    {
      "inputs": [],
      "name": "pendingOwner",
      "outputs": [
        {
          "internalType": "address",
          "name": "",
          "type": "address"
        }
      ],
      "stateMutability": "view",
      "type": "function"
    },
    {
      "inputs": [],
      "name": "proxiableUUID",
      "outputs": [
        {
          "internalType": "bytes32",
          "name": "",
          "type": "bytes32"
        }
      ],
      "stateMutability": "view",
      "type": "function"
    },
    {
      "inputs": [],
      "name": "renounceOwnership",
      "outputs": [],
      "stateMutability": "nonpayable",
      "type": "function"
    },
    {
      "inputs": [
        {
          "internalType": "address",
          "name": "_newAmlSigner",
          "type": "address"
        }
      ],
      "name": "setAmlSigner",
      "outputs": [],
      "stateMutability": "nonpayable",
      "type": "function"
    },
    {
      "inputs": [],
      "name": "stakingAsset",
      "outputs": [
        {
          "internalType": "contract IERC20",
          "name": "",
          "type": "address"
        }
      ],
      "stateMutability": "view",
      "type": "function"
    },
    {
      "inputs": [],
      "name": "stakingVault",
      "outputs": [
        {
          "internalType": "contract IERC4626",
          "name": "",
          "type": "address"
        }
      ],
      "stateMutability": "view",
      "type": "function"
    },
    {
      "inputs": [],
      "name": "togglePause",
      "outputs": [],
      "stateMutability": "nonpayable",
      "type": "function"
    },
    {
      "inputs": [
        {
          "internalType": "address",
          "name": "newOwner",
          "type": "address"
        }
      ],
      "name": "transferOwnership",
      "outputs": [],
      "stateMutability": "nonpayable",
      "type": "function"
    },
    {
      "inputs": [
        {
          "internalType": "address",
          "name": "newImplementation",
          "type": "address"
        },
        {
          "internalType": "bytes",
          "name": "data",
          "type": "bytes"
        }
      ],
      "name": "upgradeToAndCall",
      "outputs": [],
      "stateMutability": "payable",
      "type": "function"
    },
    {
      "inputs": [
        {
          "internalType": "bytes32",
          "name": "",
          "type": "bytes32"
        }
      ],
      "name": "usedSignatures",
      "outputs": [
        {
          "internalType": "bool",
          "name": "",
          "type": "bool"
        }
      ],
      "stateMutability": "view",
      "type": "function"
    }
  ],
  "bytecode": "0x60a080604052346100ea57306080527ff0c57e16840df040f15088dc2f81fe391c3923bec73e23a9662efc9c229c6a005460ff8160401c166100d9576002600160401b03196001600160401b03821601610073575b604051611a9990816100f0823960805181818161064b01526106f10152f35b6001600160401b0319166001600160401b039081177ff0c57e16840df040f15088dc2f81fe391c3923bec73e23a9662efc9c229c6a005581527fc7f505b2f371ae2175ee4913f4499e1f2633a7b5936321eed1cdaeb6115181d290602090a13880610054565b63f92ee8a960e01b60005260046000fd5b600080fdfe6080604052600436101561001257600080fd5b6000803560e01c80628e6a6514610cf75780631459457a1461091f57806324e7964a146108f657806338d52e0f146108cd5780634f1ef286146106a057806352d1902d146106385780636147da561461060f578063632a8263146105e6578063715018a6146105655780637776768f1461053c57806379ba5097146104eb5780638da5cb5b146104b5578063ad3cb1cc1461043b578063b187bd2614610418578063be5afe1614610310578063c4ae3168146102e1578063dace1a8d146102b8578063e30c397814610282578063f2fde38b146101fa578063f30a8db414610166578063f61ebc361461013f5763f978fd611461010e57600080fd5b3461013c57602036600319011261013c5760ff60406020926004358152600784522054166040519015158152f35b80fd5b503461013c578060031936011261013c57546040516001600160a01b039091168152602090f35b503461013c5760e036600319011261013c57600435610183610d95565b60443590606435926084359460a4359067ffffffffffffffff821161013c5760206101e088888888886101db6101bc3660048c01610e36565b60c435916101c8610f27565b6101d6838a8a8a8a8a610f63565b610fd8565b611131565b6001600080516020611a2d83398151915255604051908152f35b503461013c57602036600319011261013c57610214610d7a565b61021c610e83565b600080516020611a6d83398151915280546001600160a01b0319166001600160a01b039283169081179091556000805160206119ed833981519152549091167f38d16b8cac22d99fc7c124b9cd0de2d3fa1faef420bfe791d8c362d765e227008380a380f35b503461013c578060031936011261013c57600080516020611a6d833981519152546040516001600160a01b039091168152602090f35b503461013c578060031936011261013c576004546040516001600160a01b039091168152602090f35b503461013c578060031936011261013c576102fa610e83565b60335460ff80821615169060ff19161760335580f35b503461013c5761016036600319011261013c5760043561032e610d95565b604435606435916084359360a43567ffffffffffffffff811161041457610359903690600401610e36565b9060c435610104359260ff84168094036104105761038792610379610f27565b6101d6838b8b8b8b8b610f63565b6001546001600160a01b031690813b1561040c579680806101e098979695949360e460209b604051948593849263d505accf60e01b84523360048501523060248501528960448501528435606485015260848401526101243560a48401526101443560c48401525af16103fc575b5050611131565b8161040691610dab565b386103f5565b8780fd5b8980fd5b8680fd5b503461013c578060031936011261013c57602060ff603354166040519015158152f35b503461013c578060031936011261013c57604080519161045b8284610dab565b60058352640352e302e360dc1b6020840152815192839160208352815191826020850152815b83811061049e575050828201840152601f01601f19168101030190f35b602082820181015188830188015287955001610481565b503461013c578060031936011261013c576000805160206119ed833981519152546040516001600160a01b039091168152602090f35b503461013c578060031936011261013c57600080516020611a6d83398151915254336001600160a01b03909116036105295761052633610eb9565b80f35b63118cdaa760e01b815233600452602490fd5b503461013c578060031936011261013c576003546040516001600160a01b039091168152602090f35b503461013c578060031936011261013c5761057e610e83565b600080516020611a6d83398151915280546001600160a01b03199081169091556000805160206119ed8339815191528054918216905581906001600160a01b03167f8be0079c531659141344cd1fd0a4f28419497f9722a3daafe3b4186f6b6457e08280a380f35b503461013c578060031936011261013c576005546040516001600160a01b039091168152602090f35b503461013c578060031936011261013c576006546040516001600160a01b039091168152602090f35b503461013c578060031936011261013c577f00000000000000000000000000000000000000000000000000000000000000006001600160a01b03163003610691576020604051600080516020611a0d8339815191528152f35b63703e46dd60e11b8152600490fd5b50604036600319011261013c576106b5610d7a565b9060243567ffffffffffffffff81116108c957366023820112156108c9576106e7903690602481600401359101610dff565b6001600160a01b037f0000000000000000000000000000000000000000000000000000000000000000163081149081156108a6575b5061089757610729610e83565b6040516352d1902d60e01b8152926001600160a01b0381169190602085600481865afa8095859661085f575b5061076e57634c9c8ce360e01b84526004839052602484fd5b909184600080516020611a0d833981519152810361084d5750813b1561083b57600080516020611a0d83398151915280546001600160a01b031916821790557fbc7cd75a20ee27fd9adebab32041f755214dbc6bffa90cc0225b39da2e5c2d3b8480a28151839015610821578083602061081595519101845af43d15610819573d916107f983610de3565b926108076040519485610dab565b83523d85602085013e611902565b5080f35b606091611902565b5050503461082c5780f35b63b398979f60e01b8152600490fd5b634c9c8ce360e01b8452600452602483fd5b632a87526960e21b8552600452602484fd5b9095506020813d60201161088f575b8161087b60209383610dab565b8101031261088b57519438610755565b8480fd5b3d915061086e565b63703e46dd60e11b8252600482fd5b600080516020611a0d833981519152546001600160a01b0316141590503861071c565b5080fd5b503461013c578060031936011261013c576001546040516001600160a01b039091168152602090f35b503461013c578060031936011261013c576002546040516001600160a01b039091168152602090f35b503461013c5760a036600319011261013c57610939610d7a565b610941610d95565b6044356001600160a01b03811690819003610cf3576064356001600160a01b038116929083900361088b576084356001600160a01b038116949085810361041457600080516020611a4d833981519152549560ff8760401c16159667ffffffffffffffff811680159081610ceb575b6001149081610ce1575b159081610cd8575b50610cc95767ffffffffffffffff198116600117600080516020611a4d8339815191525587610c9c575b506109f56116ff565b6109fd6116ff565b15610c8857610a0b90610eb9565b610a136116ff565b610a1b6116ff565b6001600080516020611a2d833981519152556001600160a01b031680158015610c77575b8015610c6f575b610c60578315610c515785546001600160a01b031916811786556040516338d52e0f60e01b815290602090829060049082905afa918215610c46576004926020928891610c29575b50600180546001600160a01b039283166001600160a01b03199182161790915560028054939092169216821790556040516338d52e0f60e01b815292839182905afa918215610c1e576004926020928791610c01575b50600380546001600160a01b03929092166001600160a01b0319928316179055835416811783556040516338d52e0f60e01b815292839182905afa908115610bf6578491610bc7575b5060018060a01b03166bffffffffffffffffffffffff60a01b60055416176005556bffffffffffffffffffffffff60a01b6006541617600655610b6d5780f35b68ff000000000000000019600080516020611a4d8339815191525416600080516020611a4d833981519152557fc7f505b2f371ae2175ee4913f4499e1f2633a7b5936321eed1cdaeb6115181d2602060405160018152a180f35b610be9915060203d602011610bef575b610be18183610dab565b810190610e64565b38610b2d565b503d610bd7565b6040513d86823e3d90fd5b610c189150833d8511610bef57610be18183610dab565b38610ae4565b6040513d87823e3d90fd5b610c409150833d8511610bef57610be18183610dab565b38610a8e565b6040513d88823e3d90fd5b63d1cc738560e01b8652600486fd5b630681d31960e51b8652600486fd5b508215610a46565b506001600160a01b03821615610a3f565b631e4fbdf760e01b87526004879052602487fd5b68ffffffffffffffffff19166801000000000000000117600080516020611a4d83398151915255386109ec565b63f92ee8a960e01b8952600489fd5b905015386109c2565b303b1591506109ba565b8991506109b0565b8380fd5b503461013c57602036600319011261013c57610d11610d7a565b610d19610e83565b6001600160a01b03168015610d6b57600654816001600160a01b0382167f7f7b46c0c664af2835dffe8b8e5c1ddbfcef63f608af5bbf2836a2b29a88fcb08580a36001600160a01b0319161760065580f35b63d1cc738560e01b8252600482fd5b600435906001600160a01b0382168203610d9057565b600080fd5b602435906001600160a01b0382168203610d9057565b90601f8019910116810190811067ffffffffffffffff821117610dcd57604052565b634e487b7160e01b600052604160045260246000fd5b67ffffffffffffffff8111610dcd57601f01601f191660200190565b929192610e0b82610de3565b91610e196040519384610dab565b829481845281830111610d90578281602093846000960137010152565b9181601f84011215610d905782359167ffffffffffffffff8311610d905760208381860195010111610d9057565b90816020910312610d9057516001600160a01b0381168103610d905790565b6000805160206119ed833981519152546001600160a01b03163303610ea457565b63118cdaa760e01b6000523360045260246000fd5b600080516020611a6d83398151915280546001600160a01b03199081169091556000805160206119ed83398151915280549182166001600160a01b0393841690811790915591167f8be0079c531659141344cd1fd0a4f28419497f9722a3daafe3b4186f6b6457e0600080a3565b6002600080516020611a2d8339815191525414610f52576002600080516020611a2d83398151915255565b633ee5aeb560e01b60005260046000fd5b94929093916040519460208601967f825e4a0c6c1347448cb0506a6696bb6a0812431f15c82ace3f8cd1ed0da3829e8852336040880152606087015260018060a01b0316608086015260a085015260c084015260e08301526101008201526101008152610fd261012082610dab565b51902090565b91909242116111205781600052600760205260ff6040600020541661110f576110c86110d1916110c260409560426014602089516110168b82610dab565b82815201732232b234b1b0ba32b22b30bab63a2937baba32b960611b815220600160208a516110458c82610dab565b82815201603160f81b81522089519060208201927f8b73c3c69bb8fe3d512ecc4cf759cc79239f7b179b0ffacaa9a75d522b39400f84528b83015260608201524660808201523060a082015260a081526110a060c082610dab565b51902088519061190160f01b8252600282015287602282015220923691610dff565b906117e3565b9092919261181f565b6006546001600160a01b039081169116036110fe576000526007602052600020600160ff19825416179055565b638bb79cad60e01b60005260046000fd5b63e544c62f60e01b60005260046000fd5b63288a076f60e21b60005260046000fd5b6001546040516370a0823160e01b815230600482015295969592939192906001600160a01b0316602082602481845afa80156114f7576000906116cc575b6003546040516370a0823160e01b81523060048201529350602090849060249082906001600160a01b03165afa9182156114f757600092611697575b6005546040516370a0823160e01b81523060048201529450602090859060249082906001600160a01b03165afa9384156114f757600094611661575b506040516323b872dd60e01b6020820152336024820152306044820152606480820188905281526112229161121d608483610dab565b6118a7565b6001546000546112409187916001600160a01b03908116911661172d565b60008054604051636e553f6560e01b815260048101889052306024820152959160209187916044918391906001600160a01b03165af19485156114f75760009561162d575b5080851061150357506001546040516370a0823160e01b815230600482015290602090829060249082906001600160a01b03165afa9081156114f7576000916115fb575b50116115e5576003546002546112ed9185916001600160a01b03908116911661172d565b600254604051636e553f6560e01b8152600481018590523060248201529690602090889060449082906000906001600160a01b03165af19687156114f7576000976115b1575b5080871061159857506003546040516370a0823160e01b815230600482015290602090829060249082906001600160a01b03165afa9081156114f757600091611566575b5011611550576005546004546000956020926113e0926113a5918a916001600160a01b03908116911661172d565b60048054604051636e553f6560e01b81529182018a90526001600160a01b039283166024830152909788939190921691839182906044820190565b03925af19384156114f75760009461151c575b50839680851061150357506005546040516370a0823160e01b815230600482015290602090829060249082906001600160a01b03165afa9081156114f7576000916114c5575b50116114af5760405191825260208201528260408201528160608201527fe3b53cd1a44fbf11535e145d80b8ef1ed6d57a73bf5daa7e939b6b01657d654960803392a260405191825260208201527f25ce8023f13f06ca0d767e94c9b8af89bb3acb2ccb35720e79a7fa12cacdc0ae60403392a2565b63eac1efd960e01b600052600360045260246000fd5b90506020813d6020116114ef575b816114e060209383610dab565b81010312610d90575138611439565b3d91506114d3565b6040513d6000823e3d90fd5b84906371c4efed60e01b60005260045260245260446000fd5b90936020823d602011611548575b8161153760209383610dab565b8101031261013c57505192386113f3565b3d915061152a565b63eac1efd960e01b600052600260045260246000fd5b90506020813d602011611590575b8161158160209383610dab565b81010312610d90575138611377565b3d9150611574565b86906371c4efed60e01b60005260045260245260446000fd5b90966020823d6020116115dd575b816115cc60209383610dab565b8101031261013c5750519538611333565b3d91506115bf565b63eac1efd960e01b600052600160045260246000fd5b90506020813d602011611625575b8161161660209383610dab565b81010312610d905751386112c9565b3d9150611609565b90946020823d602011611659575b8161164860209383610dab565b8101031261013c5750519338611285565b3d915061163b565b9093506020813d60201161168f575b8161167d60209383610dab565b81010312610d905751926112226111e7565b3d9150611670565b91506020833d6020116116c4575b816116b260209383610dab565b81010312610d905760249251916111ab565b3d91506116a5565b506020823d6020116116f7575b816116e660209383610dab565b81010312610d90576024915161116f565b3d91506116d9565b60ff600080516020611a4d8339815191525460401c161561171c57565b631afcd79f60e31b60005260046000fd5b60206000604051938285019063095ea7b360e01b825260018060a01b031695866024870152604486015260448552611766606486610dab565b84519082855af16000513d826117be575b50501561178357505050565b61121d6117bc936040519063095ea7b360e01b6020830152602482015260006044820152604481526117b6606482610dab565b826118a7565b565b9091506117db57506001600160a01b0381163b15155b3880611777565b6001146117d4565b81519190604183036118145761180d92506020820151906060604084015193015160001a90611963565b9192909190565b505060009160029190565b9190916004811015611891578061183557509050565b6000600182036118505763f645eedf60e01b60005260046000fd5b506002810361186e578263fce698f760e01b60005260045260246000fd5b909160036000921461187e575050565b6335e2f38360e21b825260045260249150fd5b634e487b7160e01b600052602160045260246000fd5b906000602091828151910182855af1156114f7576000513d6118f957506001600160a01b0381163b155b6118d85750565b635274afe760e01b60009081526001600160a01b0391909116600452602490fd5b600114156118d1565b90611928575080511561191757602081519101fd5b63d6bda27560e01b60005260046000fd5b8151158061195a575b611939575090565b639996b31560e01b60009081526001600160a01b0391909116600452602490fd5b50803b15611931565b91907f7fffffffffffffffffffffffffffffff5d576e7357a4501ddfe92f46681b20a084116119e0579160209360809260ff60009560405194855216868401526040830152606082015282805260015afa156114f7576000516001600160a01b038116156119d45790600090600090565b50600090600190600090565b5050506000916003919056fe9016d09d72d40fdae2fd8ceac6b6234c7706214fd39c1cd1e609a0528c199300360894a13ba1a3210667c828492db98dca3e2076cc3735a920a3ca505d382bbc9b779b17422d0df92223018b32b4d1fa46e071723d6817e2486d003becc55f00f0c57e16840df040f15088dc2f81fe391c3923bec73e23a9662efc9c229c6a00237e158222e3e6968b72b9db0d8043aacf074ad9f650f0d1606b4d82ee432c00a164736f6c634300081c000a",
  "linkReferences": {},
  "deployedLinkReferences": {}
}