{
  "_format": "hh-sol-artifact-1",
  "contractName": "DedicatedVaultRouterV2",
  "sourceName": "contracts/prime/mocks/DedicatedVaultRouterV2.sol",
  "abi": [
    {
      "inputs": [
        {
          "internalType": "address",
          "name": "target",
          "type": "address"
        }
      ],
      "name": "AddressEmptyCode",
      "type": "error"
    },
    {
      "inputs": [],
      "name": "AmlSignatureAlreadyUsed",
      "type": "error"
    },
    {
      "inputs": [],
      "name": "AmlSignatureExpired",
      "type": "error"
    },
    {
      "inputs": [],
      "name": "ECDSAInvalidSignature",
      "type": "error"
    },
    {
      "inputs": [
        {
          "internalType": "uint256",
          "name": "length",
          "type": "uint256"
        }
      ],
      "name": "ECDSAInvalidSignatureLength",
      "type": "error"
    },
    {
      "inputs": [
        {
          "internalType": "bytes32",
          "name": "s",
          "type": "bytes32"
        }
      ],
      "name": "ECDSAInvalidSignatureS",
      "type": "error"
    },
    {
      "inputs": [
        {
          "internalType": "address",
          "name": "implementation",
          "type": "address"
        }
      ],
      "name": "ERC1967InvalidImplementation",
      "type": "error"
    },
    {
      "inputs": [],
      "name": "ERC1967NonPayable",
      "type": "error"
    },
    {
      "inputs": [],
      "name": "FailedCall",
      "type": "error"
    },
    {
      "inputs": [],
      "name": "FailedDeployment",
      "type": "error"
    },
    {
      "inputs": [
        {
          "internalType": "uint256",
          "name": "amount",
          "type": "uint256"
        }
      ],
      "name": "FundsStuck",
      "type": "error"
    },
    {
      "inputs": [
        {
          "internalType": "uint256",
          "name": "balance",
          "type": "uint256"
        },
        {
          "internalType": "uint256",
          "name": "needed",
          "type": "uint256"
        }
      ],
      "name": "InsufficientBalance",
      "type": "error"
    },
    {
      "inputs": [],
      "name": "InvalidAmlSignature",
      "type": "error"
    },
    {
      "inputs": [],
      "name": "InvalidAmlSigner",
      "type": "error"
    },
    {
      "inputs": [],
      "name": "InvalidInitialization",
      "type": "error"
    },
    {
      "inputs": [],
      "name": "InvalidRedemptionProxyImplementation",
      "type": "error"
    },
    {
      "inputs": [],
      "name": "InvalidVault",
      "type": "error"
    },
    {
      "inputs": [],
      "name": "NotInitializing",
      "type": "error"
    },
    {
      "inputs": [
        {
          "internalType": "address",
          "name": "owner",
          "type": "address"
        }
      ],
      "name": "OwnableInvalidOwner",
      "type": "error"
    },
    {
      "inputs": [
        {
          "internalType": "address",
          "name": "account",
          "type": "address"
        }
      ],
      "name": "OwnableUnauthorizedAccount",
      "type": "error"
    },
    {
      "inputs": [],
      "name": "RedemptionAlreadyPending",
      "type": "error"
    },
    {
      "inputs": [],
      "name": "ReentrancyGuardReentrantCall",
      "type": "error"
    },
    {
      "inputs": [
        {
          "internalType": "address",
          "name": "token",
          "type": "address"
        }
      ],
      "name": "SafeERC20FailedOperation",
      "type": "error"
    },
    {
      "inputs": [
        {
          "internalType": "uint256",
          "name": "minShares",
          "type": "uint256"
        },
        {
          "internalType": "uint256",
          "name": "actualShares",
          "type": "uint256"
        }
      ],
      "name": "SlippageExceeded",
      "type": "error"
    },
    {
      "inputs": [],
      "name": "UUPSUnauthorizedCallContext",
      "type": "error"
    },
    {
      "inputs": [
        {
          "internalType": "bytes32",
          "name": "slot",
          "type": "bytes32"
        }
      ],
      "name": "UUPSUnsupportedProxiableUUID",
      "type": "error"
    },
    {
      "anonymous": false,
      "inputs": [
        {
          "indexed": true,
          "internalType": "address",
          "name": "oldSigner",
          "type": "address"
        },
        {
          "indexed": true,
          "internalType": "address",
          "name": "newSigner",
          "type": "address"
        }
      ],
      "name": "AmlSignerUpdated",
      "type": "event"
    },
    {
      "anonymous": false,
      "inputs": [
        {
          "indexed": true,
          "internalType": "address",
          "name": "user",
          "type": "address"
        },
        {
          "indexed": false,
          "internalType": "uint256",
          "name": "assets",
          "type": "uint256"
        },
        {
          "indexed": false,
          "internalType": "uint256",
          "name": "shares",
          "type": "uint256"
        },
        {
          "indexed": false,
          "internalType": "uint256",
          "name": "stakingShares",
          "type": "uint256"
        },
        {
          "indexed": false,
          "internalType": "uint256",
          "name": "nuvaShares",
          "type": "uint256"
        }
      ],
      "name": "Deposited",
      "type": "event"
    },
    {
      "anonymous": false,
      "inputs": [
        {
          "indexed": false,
          "internalType": "uint64",
          "name": "version",
          "type": "uint64"
        }
      ],
      "name": "Initialized",
      "type": "event"
    },
    {
      "anonymous": false,
      "inputs": [
        {
          "indexed": true,
          "internalType": "address",
          "name": "user",
          "type": "address"
        },
        {
          "indexed": false,
          "internalType": "uint256",
          "name": "stakingShares",
          "type": "uint256"
        },
        {
          "indexed": false,
          "internalType": "uint256",
          "name": "nuvaShares",
          "type": "uint256"
        }
      ],
      "name": "NuvaDeposited",
      "type": "event"
    },
    {
      "anonymous": false,
      "inputs": [
        {
          "indexed": true,
          "internalType": "address",
          "name": "previousOwner",
          "type": "address"
        },
        {
          "indexed": true,
          "internalType": "address",
          "name": "newOwner",
          "type": "address"
        }
      ],
      "name": "OwnershipTransferStarted",
      "type": "event"
    },
    {
      "anonymous": false,
      "inputs": [
        {
          "indexed": true,
          "internalType": "address",
          "name": "previousOwner",
          "type": "address"
        },
        {
          "indexed": true,
          "internalType": "address",
          "name": "newOwner",
          "type": "address"
        }
      ],
      "name": "OwnershipTransferred",
      "type": "event"
    },
    {
      "anonymous": false,
      "inputs": [
        {
          "indexed": true,
          "internalType": "address",
          "name": "oldImplementation",
          "type": "address"
        },
        {
          "indexed": true,
          "internalType": "address",
          "name": "newImplementation",
          "type": "address"
        }
      ],
      "name": "RedemptionProxyImplementationUpdated",
      "type": "event"
    },
    {
      "anonymous": false,
      "inputs": [
        {
          "indexed": true,
          "internalType": "address",
          "name": "user",
          "type": "address"
        },
        {
          "indexed": true,
          "internalType": "address",
          "name": "redemptionProxy",
          "type": "address"
        }
      ],
      "name": "RedemptionRequested",
      "type": "event"
    },
    {
      "anonymous": false,
      "inputs": [
        {
          "indexed": false,
          "internalType": "address[]",
          "name": "users",
          "type": "address[]"
        },
        {
          "indexed": false,
          "internalType": "uint256",
          "name": "totalSweptAmount",
          "type": "uint256"
        }
      ],
      "name": "RedemptionsSwept",
      "type": "event"
    },
    {
      "anonymous": false,
      "inputs": [
        {
          "indexed": true,
          "internalType": "address",
          "name": "implementation",
          "type": "address"
        }
      ],
      "name": "Upgraded",
      "type": "event"
    },
    {
      "inputs": [],
      "name": "UPGRADE_INTERFACE_VERSION",
      "outputs": [
        {
          "internalType": "string",
          "name": "",
          "type": "string"
        }
      ],
      "stateMutability": "view",
      "type": "function"
    },
    {
      "inputs": [],
      "name": "acceptOwnership",
      "outputs": [],
      "stateMutability": "nonpayable",
      "type": "function"
    },
    {
      "inputs": [],
      "name": "amlSigner",
      "outputs": [
        {
          "internalType": "address",
          "name": "",
          "type": "address"
        }
      ],
      "stateMutability": "view",
      "type": "function"
    },
    {
      "inputs": [],
      "name": "asset",
      "outputs": [
        {
          "internalType": "contract IERC20",
          "name": "",
          "type": "address"
        }
      ],
      "stateMutability": "view",
      "type": "function"
    },
    {
      "inputs": [],
      "name": "assetVault",
      "outputs": [
        {
          "internalType": "contract IERC4626",
          "name": "",
          "type": "address"
        }
      ],
      "stateMutability": "view",
      "type": "function"
    },
    {
      "inputs": [
        {
          "internalType": "uint256",
          "name": "_amount",
          "type": "uint256"
        },
        {
          "internalType": "address",
          "name": "_receiver",
          "type": "address"
        },
        {
          "internalType": "uint256",
          "name": "_minVaultSharesOut",
          "type": "uint256"
        },
        {
          "internalType": "uint256",
          "name": "_minStakingVaultSharesOut",
          "type": "uint256"
        },
        {
          "internalType": "uint256",
          "name": "_minNuvaVaultSharesOut",
          "type": "uint256"
        },
        {
          "internalType": "bytes",
          "name": "_amlSignature",
          "type": "bytes"
        },
        {
          "internalType": "uint256",
          "name": "_amlDeadline",
          "type": "uint256"
        }
      ],
      "name": "deposit",
      "outputs": [
        {
          "internalType": "uint256",
          "name": "",
          "type": "uint256"
        }
      ],
      "stateMutability": "nonpayable",
      "type": "function"
    },
    {
      "inputs": [
        {
          "internalType": "uint256",
          "name": "_amount",
          "type": "uint256"
        },
        {
          "internalType": "address",
          "name": "_receiver",
          "type": "address"
        },
        {
          "internalType": "uint256",
          "name": "_minVaultSharesOut",
          "type": "uint256"
        },
        {
          "internalType": "uint256",
          "name": "_minStakingVaultSharesOut",
          "type": "uint256"
        },
        {
          "internalType": "uint256",
          "name": "_minNuvaVaultSharesOut",
          "type": "uint256"
        },
        {
          "internalType": "bytes",
          "name": "_amlSignature",
          "type": "bytes"
        },
        {
          "internalType": "uint256",
          "name": "_amlDeadline",
          "type": "uint256"
        },
        {
          "internalType": "uint256",
          "name": "_permitDeadline",
          "type": "uint256"
        },
        {
          "internalType": "uint8",
          "name": "_v",
          "type": "uint8"
        },
        {
          "internalType": "bytes32",
          "name": "_r",
          "type": "bytes32"
        },
        {
          "internalType": "bytes32",
          "name": "_s",
          "type": "bytes32"
        }
      ],
      "name": "depositWithPermit",
      "outputs": [
        {
          "internalType": "uint256",
          "name": "",
          "type": "uint256"
        }
      ],
      "stateMutability": "nonpayable",
      "type": "function"
    },
    {
      "inputs": [
        {
          "internalType": "address",
          "name": "_assetVault",
          "type": "address"
        },
        {
          "internalType": "address",
          "name": "_stakingVault",
          "type": "address"
        },
        {
          "internalType": "address",
          "name": "_nuvaVault",
          "type": "address"
        },
        {
          "internalType": "address",
          "name": "_amlSigner",
          "type": "address"
        },
        {
          "internalType": "address",
          "name": "_initialOwner",
          "type": "address"
        }
      ],
      "name": "initialize",
      "outputs": [],
      "stateMutability": "nonpayable",
      "type": "function"
    },
    {
      "inputs": [],
      "name": "isPaused",
      "outputs": [
        {
          "internalType": "bool",
          "name": "",
          "type": "bool"
        }
      ],
      "stateMutability": "view",
      "type": "function"
    },
    {
      "inputs": [],
      "name": "nuvaAsset",
      "outputs": [
        {
          "internalType": "contract IERC20",
          "name": "",
          "type": "address"
        }
      ],
      "stateMutability": "view",
      "type": "function"
    },
    {
      "inputs": [],
      "name": "nuvaVault",
      "outputs": [
        {
          "internalType": "contract IERC4626",
          "name": "",
          "type": "address"
        }
      ],
      "stateMutability": "view",
      "type": "function"
    },
    {
      "inputs": [],
      "name": "owner",
      "outputs": [
        {
          "internalType": "address",
          "name": "",
          "type": "address"
        }
      ],
      "stateMutability": "view",
      "type": "function"
    },
    {
      "inputs": [],
      "name": "pendingOwner",
      "outputs": [
        {
          "internalType": "address",
          "name": "",
          "type": "address"
        }
      ],
      "stateMutability": "view",
      "type": "function"
    },
    {
      "inputs": [],
      "name": "proxiableUUID",
      "outputs": [
        {
          "internalType": "bytes32",
          "name": "",
          "type": "bytes32"
        }
      ],
      "stateMutability": "view",
      "type": "function"
    },
    {
      "inputs": [],
      "name": "redemptionProxyImplementation",
      "outputs": [
        {
          "internalType": "address",
          "name": "",
          "type": "address"
        }
      ],
      "stateMutability": "view",
      "type": "function"
    },
    {
      "inputs": [
        {
          "internalType": "address",
          "name": "",
          "type": "address"
        }
      ],
      "name": "redemptionProxyToUser",
      "outputs": [
        {
          "internalType": "address",
          "name": "",
          "type": "address"
        }
      ],
      "stateMutability": "view",
      "type": "function"
    },
    {
      "inputs": [],
      "name": "renounceOwnership",
      "outputs": [],
      "stateMutability": "nonpayable",
      "type": "function"
    },
    {
      "inputs": [
        {
          "internalType": "uint256",
          "name": "_amountNuvaShares",
          "type": "uint256"
        }
      ],
      "name": "requestRedeem",
      "outputs": [],
      "stateMutability": "nonpayable",
      "type": "function"
    },
    {
      "inputs": [
        {
          "internalType": "address",
          "name": "_newAmlSigner",
          "type": "address"
        }
      ],
      "name": "setAmlSigner",
      "outputs": [],
      "stateMutability": "nonpayable",
      "type": "function"
    },
    {
      "inputs": [
        {
          "internalType": "address",
          "name": "_newImplementation",
          "type": "address"
        }
      ],
      "name": "setRedemptionProxyImplementation",
      "outputs": [],
      "stateMutability": "nonpayable",
      "type": "function"
    },
    {
      "inputs": [],
      "name": "stakingAsset",
      "outputs": [
        {
          "internalType": "contract IERC20",
          "name": "",
          "type": "address"
        }
      ],
      "stateMutability": "view",
      "type": "function"
    },
    {
      "inputs": [],
      "name": "stakingVault",
      "outputs": [
        {
          "internalType": "contract IERC4626",
          "name": "",
          "type": "address"
        }
      ],
      "stateMutability": "view",
      "type": "function"
    },
    {
      "inputs": [
        {
          "internalType": "address[]",
          "name": "_proxyAddresses",
          "type": "address[]"
        }
      ],
      "name": "sweepRedemptions",
      "outputs": [],
      "stateMutability": "nonpayable",
      "type": "function"
    },
    {
      "inputs": [],
      "name": "togglePause",
      "outputs": [],
      "stateMutability": "nonpayable",
      "type": "function"
    },
    {
      "inputs": [
        {
          "internalType": "address",
          "name": "newOwner",
          "type": "address"
        }
      ],
      "name": "transferOwnership",
      "outputs": [],
      "stateMutability": "nonpayable",
      "type": "function"
    },
    {
      "inputs": [
        {
          "internalType": "address",
          "name": "newImplementation",
          "type": "address"
        },
        {
          "internalType": "bytes",
          "name": "data",
          "type": "bytes"
        }
      ],
      "name": "upgradeToAndCall",
      "outputs": [],
      "stateMutability": "payable",
      "type": "function"
    },
    {
      "inputs": [
        {
          "internalType": "bytes32",
          "name": "",
          "type": "bytes32"
        }
      ],
      "name": "usedSignatures",
      "outputs": [
        {
          "internalType": "bool",
          "name": "",
          "type": "bool"
        }
      ],
      "stateMutability": "view",
      "type": "function"
    }
  ],
  "bytecode": "0x60a080604052346100ea57306080527ff0c57e16840df040f15088dc2f81fe391c3923bec73e23a9662efc9c229c6a005460ff8160401c166100d9576002600160401b03196001600160401b03821601610073575b6040516120bc90816100f08239608051818181610a5b0152610b010152f35b6001600160401b0319166001600160401b039081177ff0c57e16840df040f15088dc2f81fe391c3923bec73e23a9662efc9c229c6a005581527fc7f505b2f371ae2175ee4913f4499e1f2633a7b5936321eed1cdaeb6115181d290602090a13880610054565b63f92ee8a960e01b60005260046000fd5b600080fdfe6080604052600436101561001257600080fd5b6000803560e01c80628e6a65146113025780631459457a14610f4a57806324e7964a14610f215780633180bab614610ef857806338d52e0f14610ecf5780634b26469514610cd55780634f1ef28614610ab057806352d1902d14610a485780635907256814610a075780636147da56146109de578063632a8263146109b55780636da50e3314610932578063715018a6146108b15780637776768f1461088857806379ba5097146108375780638da5cb5b14610801578063aa2f892d146104f1578063ad3cb1cc14610477578063b187bd2614610454578063be5afe1614610347578063c4ae316814610318578063dace1a8d146102ef578063e30c3978146102b9578063f2fde38b14610231578063f30a8db41461019d578063f61ebc36146101765763f978fd611461014557600080fd5b346101735760203660031901126101735760ff60406020926004358152600984522054166040519015158152f35b80fd5b5034610173578060031936011261017357546040516001600160a01b039091168152602090f35b50346101735760e0366003190112610173576004356101ba61139b565b60443590606435926084359460a4359067ffffffffffffffff821161017357602061021788888888886102126101f33660048c0161143c565b60c435916101ff61152d565b61020d838a8a8a8a8a611668565b6116dd565b611836565b600160008051602061205083398151915255604051908152f35b50346101735760203660031901126101735761024b611385565b610253611489565b60008051602061209083398151915280546001600160a01b0319166001600160a01b03928316908117909155600080516020612010833981519152549091167f38d16b8cac22d99fc7c124b9cd0de2d3fa1faef420bfe791d8c362d765e227008380a380f35b5034610173578060031936011261017357600080516020612090833981519152546040516001600160a01b039091168152602090f35b50346101735780600319360112610173576004546040516001600160a01b039091168152602090f35b5034610173578060031936011261017357610331611489565b60335460ff80821615169060ff19161760335580f35b5034610173576101603660031901126101735760043561036561139b565b60443590606435926084359460a43567ffffffffffffffff81116104505761039190369060040161143c565b60c43590610104359260ff841680940361044c57906103c192916103b361152d565b61020d838c8c8c8c8c611668565b6001546001600160a01b031690813b1561044857829160e48392604051948593849263d505accf60e01b84523360048501523060248501528960448501528435606485015260848401526101243560a48401526101443560c48401525af1610433575b60206102178888888888611836565b61043e8280926113b1565b6101735780610424565b8280fd5b8480fd5b5080fd5b5034610173578060031936011261017357602060ff603354166040519015158152f35b5034610173578060031936011261017357604080519161049782846113b1565b60058352640352e302e360dc1b6020840152815192839160208352815191826020850152815b8381106104da575050828201840152601f01601f19168101030190f35b6020828201810151888301880152879550016104bd565b50346101735760203660031901126101735760043561050e61152d565b6024602060018060a01b0360045416604051928380926370a0823160e01b82523060048301525afa9081156107f65783916107c4575b506007546001600160a01b038116156107b557608881901c62ffffff16763d602d80600a3d3981f3363d3d373d3d3d363d7300000017845260781b6effffffffffffffffffffffffffffff19166e5af43d82803e903d91602b57fd5bf3176020526037600984f06001600160a01b038116929083156107a65784546002546004546001600160a01b03928316929081169116863b156107a25760405192637c643b2f60e11b8452600484015260248301526044820152336064820152858160848183895af180156107975761077b575b509061064381869361063282303360018060a01b0360045416611569565b6004546001600160a01b03166115b4565b833b15610450576040519062d16aad60e01b82526004820152818160248183885af180156107705761075b575b50506024602060018060a01b0360045416604051928380926370a0823160e01b82523060048301525afa908115610750578491610719575b501161070557808252600860205260408220336001600160601b0360a01b825416179055337e45309ccbff29fb81c8c5fc824405446ca8ac332fd6ae375251ba54005c1fef8380a360016000805160206120508339815191525580f35b63eac1efd960e01b82526001600452602482fd5b90506020813d602011610748575b81610734602093836113b1565b810103126107435751386106a8565b600080fd5b3d9150610727565b6040513d86823e3d90fd5b81610765916113b1565b610448578238610670565b6040513d84823e3d90fd5b8561078d8497610643939594956113b1565b9550919091610614565b6040513d88823e3d90fd5b8780fd5b63b06ebf3d60e01b8552600485fd5b63c291c21760e01b8452600484fd5b90506020813d6020116107ee575b816107df602093836113b1565b81010312610448575138610544565b3d91506107d2565b6040513d85823e3d90fd5b5034610173578060031936011261017357600080516020612010833981519152546040516001600160a01b039091168152602090f35b503461017357806003193601126101735760008051602061209083398151915254336001600160a01b039091160361087557610872336114bf565b80f35b63118cdaa760e01b815233600452602490fd5b50346101735780600319360112610173576003546040516001600160a01b039091168152602090f35b50346101735780600319360112610173576108ca611489565b60008051602061209083398151915280546001600160a01b03199081169091556000805160206120108339815191528054918216905581906001600160a01b03167f8be0079c531659141344cd1fd0a4f28419497f9722a3daafe3b4186f6b6457e08280a380f35b50346101735760203660031901126101735761094c611385565b610954611489565b6001600160a01b031680156109a657600754816001600160a01b0382167fd1eea419b2c4a2e74ab6fe1d5e7ea7027d4f646f83efbdd0cb293813187fb6468580a36001600160a01b0319161760075580f35b63c291c21760e01b8252600482fd5b50346101735780600319360112610173576005546040516001600160a01b039091168152602090f35b50346101735780600319360112610173576006546040516001600160a01b039091168152602090f35b5034610173576020366003190112610173576020906001600160a01b03610a2c611385565b16815260088252604060018060a01b0391205416604051908152f35b50346101735780600319360112610173577f00000000000000000000000000000000000000000000000000000000000000006001600160a01b03163003610aa15760206040516000805160206120308339815191528152f35b63703e46dd60e11b8152600490fd5b50604036600319011261017357610ac5611385565b9060243567ffffffffffffffff8111610450573660238201121561045057610af7903690602481600401359101611405565b6001600160a01b037f000000000000000000000000000000000000000000000000000000000000000016308114908115610cb2575b50610ca357610b39611489565b6040516352d1902d60e01b8152926001600160a01b0381169190602085600481865afa80958596610c6f575b50610b7e57634c9c8ce360e01b84526004839052602484fd5b9091846000805160206120308339815191528103610c5d5750813b15610c4b5760008051602061203083398151915280546001600160a01b031916821790557fbc7cd75a20ee27fd9adebab32041f755214dbc6bffa90cc0225b39da2e5c2d3b8480a28151839015610c315780836020610c2595519101845af43d15610c29573d91610c09836113e9565b92610c1760405194856113b1565b83523d85602085013e611f25565b5080f35b606091611f25565b50505034610c3c5780f35b63b398979f60e01b8152600490fd5b634c9c8ce360e01b8452600452602483fd5b632a87526960e21b8552600452602484fd5b9095506020813d602011610c9b575b81610c8b602093836113b1565b8101031261044c57519438610b65565b3d9150610c7e565b63703e46dd60e11b8252600482fd5b600080516020612030833981519152546001600160a01b03161415905038610b2c565b50346101735760203660031901126101735760043567ffffffffffffffff811161045057366023820112156104505780600401359067ffffffffffffffff8211610448573660248360051b8301011161044857610d30611489565b6007546001600160a01b031615610ec0578290835b83811015610e42576024600582901b830101356001600160a01b0381169390849003610e3e57838652600860205260408620546001600160a01b031615610e345760405163aa60e73360e01b8152600481018790526020816024818a895af1908115610e29578791610df4575b508101809111610de05792855260086020526040852080546001600160a01b03191690556001905b01610d45565b634e487b7160e01b86526011600452602486fd5b90506020813d8211610e21575b81610e0e602093836113b1565b81010312610e1d575138610db2565b8680fd5b3d9150610e01565b6040513d89823e3d90fd5b9250600190610dda565b8580fd5b5090604051928060408501604086525260246060850193019085905b808210610e9657867fb9406f44634c6228db9e8d145e4f5159e884b069bd28d9763e76817e2110ed968780888860208301520390a180f35b90919384359060018060a01b0382168092036107a257602081600193829352019501920190610e5e565b63c291c21760e01b8352600483fd5b50346101735780600319360112610173576001546040516001600160a01b039091168152602090f35b50346101735780600319360112610173576007546040516001600160a01b039091168152602090f35b50346101735780600319360112610173576002546040516001600160a01b039091168152602090f35b50346101735760a036600319011261017357610f64611385565b610f6c61139b565b6044356001600160a01b038116908190036112fe576064356001600160a01b038116929083900361044c576084356001600160a01b0381169490858103610e1d57600080516020612070833981519152549560ff8760401c16159667ffffffffffffffff8116801590816112f6575b60011490816112ec575b1590816112e3575b506112d45767ffffffffffffffff19811660011760008051602061207083398151915255876112a7575b50611020611dd8565b611028611dd8565b1561129357611036906114bf565b61103e611dd8565b611046611dd8565b6001600080516020612050833981519152556001600160a01b031680158015611282575b801561127a575b61126b57831561125c5785546001600160a01b031916811786556040516338d52e0f60e01b815290602090829060049082905afa91821561079757600492602092889161123f575b50600180546001600160a01b039283166001600160a01b03199182161790915560028054939092169216821790556040516338d52e0f60e01b815292839182905afa918215611234576004926020928791611217575b50600380546001600160a01b03929092166001600160a01b0319928316179055835416811783556040516338d52e0f60e01b815292839182905afa9081156107505784916111e8575b5060018060a01b03166001600160601b0360a01b60055416176005556001600160601b0360a01b600654161760065561118e5780f35b68ff0000000000000000196000805160206120708339815191525416600080516020612070833981519152557fc7f505b2f371ae2175ee4913f4499e1f2633a7b5936321eed1cdaeb6115181d2602060405160018152a180f35b61120a915060203d602011611210575b61120281836113b1565b81019061146a565b38611158565b503d6111f8565b61122e9150833d85116112105761120281836113b1565b3861110f565b6040513d87823e3d90fd5b6112569150833d85116112105761120281836113b1565b386110b9565b63d1cc738560e01b8652600486fd5b630681d31960e51b8652600486fd5b508215611071565b506001600160a01b0382161561106a565b631e4fbdf760e01b87526004879052602487fd5b68ffffffffffffffffff191668010000000000000001176000805160206120708339815191525538611017565b63f92ee8a960e01b8952600489fd5b90501538610fed565b303b159150610fe5565b899150610fdb565b8380fd5b50346101735760203660031901126101735761131c611385565b611324611489565b6001600160a01b0316801561137657600654816001600160a01b0382167f7f7b46c0c664af2835dffe8b8e5c1ddbfcef63f608af5bbf2836a2b29a88fcb08580a36001600160a01b0319161760065580f35b63d1cc738560e01b8252600482fd5b600435906001600160a01b038216820361074357565b602435906001600160a01b038216820361074357565b90601f8019910116810190811067ffffffffffffffff8211176113d357604052565b634e487b7160e01b600052604160045260246000fd5b67ffffffffffffffff81116113d357601f01601f191660200190565b929192611411826113e9565b9161141f60405193846113b1565b829481845281830111610743578281602093846000960137010152565b9181601f840112156107435782359167ffffffffffffffff8311610743576020838186019501011161074357565b9081602091031261074357516001600160a01b03811681036107435790565b600080516020612010833981519152546001600160a01b031633036114aa57565b63118cdaa760e01b6000523360045260246000fd5b60008051602061209083398151915280546001600160a01b031990811690915560008051602061201083398151915280549182166001600160a01b0393841690811790915591167f8be0079c531659141344cd1fd0a4f28419497f9722a3daafe3b4186f6b6457e0600080a3565b6002600080516020612050833981519152541461155857600260008051602061205083398151915255565b633ee5aeb560e01b60005260046000fd5b6040516323b872dd60e01b60208201526001600160a01b0392831660248201529290911660448301526064808301939093529181526115b2916115ad6084836113b1565b611e06565b565b60206000604051938285019063095ea7b360e01b825260018060a01b0316958660248701526044860152604485526115ed6064866113b1565b84519082855af16000513d82611643575b50501561160a57505050565b6115ad6115b2936040519063095ea7b360e01b60208301526024820152600060448201526044815261163d6064826113b1565b82611e06565b90915061166057506001600160a01b0381163b15155b38806115fe565b600114611659565b94929093916040519460208601967f825e4a0c6c1347448cb0506a6696bb6a0812431f15c82ace3f8cd1ed0da3829e8852336040880152606087015260018060a01b0316608086015260a085015260c084015260e083015261010082015261010081526116d7610120826113b1565b51902090565b91909242116118255781600052600960205260ff60406000205416611814576117cd6117d6916117c7604095604260146020895161171b8b826113b1565b82815201732232b234b1b0ba32b22b30bab63a2937baba32b960611b815220600160208a5161174a8c826113b1565b82815201603160f81b81522089519060208201927f8b73c3c69bb8fe3d512ecc4cf759cc79239f7b179b0ffacaa9a75d522b39400f84528b83015260608201524660808201523060a082015260a081526117a560c0826113b1565b51902088519061190160f01b8252600282015287602282015220923691611405565b90611e61565b90929192611e9d565b6006546001600160a01b03908116911603611803576000526009602052600020600160ff19825416179055565b638bb79cad60e01b60005260046000fd5b63e544c62f60e01b60005260046000fd5b63288a076f60e21b60005260046000fd5b909194939460018060a01b03600154166040516370a0823160e01b8152306004820152602081602481855afa8015611bce57600090611da5575b6003546040516370a0823160e01b81523060048201529250602090839060249082906001600160a01b03165afa918215611bce57600092611d71575b506005546040516370a0823160e01b815230600482015290602090829060249082906001600160a01b03165afa938415611bce578691600095611d38575b50906118f99130903390611569565b6001546000546119179187916001600160a01b0390811691166115b4565b60008054604051636e553f6560e01b815260048101889052306024820152959160209187916044918391906001600160a01b03165af1948515611bce57600095611d04575b50808510611bda57506001546040516370a0823160e01b815230600482015290602090829060249082906001600160a01b03165afa908115611bce57600091611cd2575b5011611cbc576003546002546119c49185916001600160a01b0390811691166115b4565b600254604051636e553f6560e01b8152600481018590523060248201529690602090889060449082906000906001600160a01b03165af1968715611bce57600097611c88575b50808710611c6f57506003546040516370a0823160e01b815230600482015290602090829060249082906001600160a01b03165afa908115611bce57600091611c3d575b5011611c2757600554600454600095602092611ab792611a7c918a916001600160a01b0390811691166115b4565b60048054604051636e553f6560e01b81529182018a90526001600160a01b039283166024830152909788939190921691839182906044820190565b03925af1938415611bce57600094611bf3575b508396808510611bda57506005546040516370a0823160e01b815230600482015290602090829060249082906001600160a01b03165afa908115611bce57600091611b9c575b5011611b865760405191825260208201528260408201528160608201527fe3b53cd1a44fbf11535e145d80b8ef1ed6d57a73bf5daa7e939b6b01657d654960803392a260405191825260208201527f25ce8023f13f06ca0d767e94c9b8af89bb3acb2ccb35720e79a7fa12cacdc0ae60403392a2565b63eac1efd960e01b600052600360045260246000fd5b90506020813d602011611bc6575b81611bb7602093836113b1565b81010312610743575138611b10565b3d9150611baa565b6040513d6000823e3d90fd5b84906371c4efed60e01b60005260045260245260446000fd5b90936020823d602011611c1f575b81611c0e602093836113b1565b810103126101735750519238611aca565b3d9150611c01565b63eac1efd960e01b600052600260045260246000fd5b90506020813d602011611c67575b81611c58602093836113b1565b81010312610743575138611a4e565b3d9150611c4b565b86906371c4efed60e01b60005260045260245260446000fd5b90966020823d602011611cb4575b81611ca3602093836113b1565b810103126101735750519538611a0a565b3d9150611c96565b63eac1efd960e01b600052600160045260246000fd5b90506020813d602011611cfc575b81611ced602093836113b1565b810103126107435751386119a0565b3d9150611ce0565b90946020823d602011611d30575b81611d1f602093836113b1565b81010312610173575051933861195c565b3d9150611d12565b915093506020813d602011611d69575b81611d55602093836113b1565b8101031261074357519285906118f96118ea565b3d9150611d48565b9091506020813d602011611d9d575b81611d8d602093836113b1565b81010312610743575190386118ac565b3d9150611d80565b506020813d602011611dd0575b81611dbf602093836113b1565b810103126107435760249051611870565b3d9150611db2565b60ff6000805160206120708339815191525460401c1615611df557565b631afcd79f60e31b60005260046000fd5b906000602091828151910182855af115611bce576000513d611e5857506001600160a01b0381163b155b611e375750565b635274afe760e01b60009081526001600160a01b0391909116600452602490fd5b60011415611e30565b8151919060418303611e9257611e8b92506020820151906060604084015193015160001a90611f86565b9192909190565b505060009160029190565b9190916004811015611f0f5780611eb357509050565b600060018203611ece5763f645eedf60e01b60005260046000fd5b5060028103611eec578263fce698f760e01b60005260045260246000fd5b9091600360009214611efc575050565b6335e2f38360e21b825260045260249150fd5b634e487b7160e01b600052602160045260246000fd5b90611f4b5750805115611f3a57602081519101fd5b63d6bda27560e01b60005260046000fd5b81511580611f7d575b611f5c575090565b639996b31560e01b60009081526001600160a01b0391909116600452602490fd5b50803b15611f54565b91907f7fffffffffffffffffffffffffffffff5d576e7357a4501ddfe92f46681b20a08411612003579160209360809260ff60009560405194855216868401526040830152606082015282805260015afa15611bce576000516001600160a01b03811615611ff75790600090600090565b50600090600190600090565b5050506000916003919056fe9016d09d72d40fdae2fd8ceac6b6234c7706214fd39c1cd1e609a0528c199300360894a13ba1a3210667c828492db98dca3e2076cc3735a920a3ca505d382bbc9b779b17422d0df92223018b32b4d1fa46e071723d6817e2486d003becc55f00f0c57e16840df040f15088dc2f81fe391c3923bec73e23a9662efc9c229c6a00237e158222e3e6968b72b9db0d8043aacf074ad9f650f0d1606b4d82ee432c00a164736f6c634300081c000a",
  "linkReferences": {},
  "deployedLinkReferences": {}
}