{
  "_format": "hh-sol-artifact-1",
  "contractName": "DedicatedVaultRouterV2",
  "sourceName": "contracts/prime/mocks/DedicatedVaultRouterV2.sol",
  "abi": [
    {
      "inputs": [],
      "name": "AccessControlBadConfirmation",
      "type": "error"
    },
    {
      "inputs": [
        {
          "internalType": "address",
          "name": "account",
          "type": "address"
        },
        {
          "internalType": "bytes32",
          "name": "neededRole",
          "type": "bytes32"
        }
      ],
      "name": "AccessControlUnauthorizedAccount",
      "type": "error"
    },
    {
      "inputs": [
        {
          "internalType": "address",
          "name": "target",
          "type": "address"
        }
      ],
      "name": "AddressEmptyCode",
      "type": "error"
    },
    {
      "inputs": [],
      "name": "AmlSignatureAlreadyUsed",
      "type": "error"
    },
    {
      "inputs": [],
      "name": "AmlSignatureExpired",
      "type": "error"
    },
    {
      "inputs": [],
      "name": "ArrayLengthMismatch",
      "type": "error"
    },
    {
      "inputs": [],
      "name": "ECDSAInvalidSignature",
      "type": "error"
    },
    {
      "inputs": [
        {
          "internalType": "uint256",
          "name": "length",
          "type": "uint256"
        }
      ],
      "name": "ECDSAInvalidSignatureLength",
      "type": "error"
    },
    {
      "inputs": [
        {
          "internalType": "bytes32",
          "name": "s",
          "type": "bytes32"
        }
      ],
      "name": "ECDSAInvalidSignatureS",
      "type": "error"
    },
    {
      "inputs": [
        {
          "internalType": "address",
          "name": "implementation",
          "type": "address"
        }
      ],
      "name": "ERC1967InvalidImplementation",
      "type": "error"
    },
    {
      "inputs": [],
      "name": "ERC1967NonPayable",
      "type": "error"
    },
    {
      "inputs": [],
      "name": "FailedCall",
      "type": "error"
    },
    {
      "inputs": [],
      "name": "FailedDeployment",
      "type": "error"
    },
    {
      "inputs": [
        {
          "internalType": "uint256",
          "name": "amount",
          "type": "uint256"
        }
      ],
      "name": "FundsStuck",
      "type": "error"
    },
    {
      "inputs": [
        {
          "internalType": "uint256",
          "name": "balance",
          "type": "uint256"
        },
        {
          "internalType": "uint256",
          "name": "needed",
          "type": "uint256"
        }
      ],
      "name": "InsufficientBalance",
      "type": "error"
    },
    {
      "inputs": [],
      "name": "InvalidAmlSignature",
      "type": "error"
    },
    {
      "inputs": [],
      "name": "InvalidAmlSigner",
      "type": "error"
    },
    {
      "inputs": [],
      "name": "InvalidInitialization",
      "type": "error"
    },
    {
      "inputs": [],
      "name": "InvalidRedemptionProxyImplementation",
      "type": "error"
    },
    {
      "inputs": [],
      "name": "InvalidVault",
      "type": "error"
    },
    {
      "inputs": [],
      "name": "NotInitializing",
      "type": "error"
    },
    {
      "inputs": [
        {
          "internalType": "address",
          "name": "owner",
          "type": "address"
        }
      ],
      "name": "OwnableInvalidOwner",
      "type": "error"
    },
    {
      "inputs": [
        {
          "internalType": "address",
          "name": "account",
          "type": "address"
        }
      ],
      "name": "OwnableUnauthorizedAccount",
      "type": "error"
    },
    {
      "inputs": [],
      "name": "RedemptionAlreadyPending",
      "type": "error"
    },
    {
      "inputs": [],
      "name": "ReentrancyGuardReentrantCall",
      "type": "error"
    },
    {
      "inputs": [
        {
          "internalType": "address",
          "name": "token",
          "type": "address"
        }
      ],
      "name": "SafeERC20FailedOperation",
      "type": "error"
    },
    {
      "inputs": [
        {
          "internalType": "uint256",
          "name": "minShares",
          "type": "uint256"
        },
        {
          "internalType": "uint256",
          "name": "actualShares",
          "type": "uint256"
        }
      ],
      "name": "SlippageExceeded",
      "type": "error"
    },
    {
      "inputs": [],
      "name": "UUPSUnauthorizedCallContext",
      "type": "error"
    },
    {
      "inputs": [
        {
          "internalType": "bytes32",
          "name": "slot",
          "type": "bytes32"
        }
      ],
      "name": "UUPSUnsupportedProxiableUUID",
      "type": "error"
    },
    {
      "anonymous": false,
      "inputs": [
        {
          "indexed": true,
          "internalType": "address",
          "name": "oldSigner",
          "type": "address"
        },
        {
          "indexed": true,
          "internalType": "address",
          "name": "newSigner",
          "type": "address"
        }
      ],
      "name": "AmlSignerUpdated",
      "type": "event"
    },
    {
      "anonymous": false,
      "inputs": [
        {
          "indexed": true,
          "internalType": "address",
          "name": "user",
          "type": "address"
        },
        {
          "indexed": true,
          "internalType": "uint256",
          "name": "assets",
          "type": "uint256"
        },
        {
          "indexed": true,
          "internalType": "uint256",
          "name": "shares",
          "type": "uint256"
        },
        {
          "indexed": false,
          "internalType": "uint256",
          "name": "stakingShares",
          "type": "uint256"
        },
        {
          "indexed": false,
          "internalType": "uint256",
          "name": "nuvaShares",
          "type": "uint256"
        }
      ],
      "name": "Deposited",
      "type": "event"
    },
    {
      "anonymous": false,
      "inputs": [
        {
          "indexed": false,
          "internalType": "uint64",
          "name": "version",
          "type": "uint64"
        }
      ],
      "name": "Initialized",
      "type": "event"
    },
    {
      "anonymous": false,
      "inputs": [
        {
          "indexed": true,
          "internalType": "address",
          "name": "user",
          "type": "address"
        },
        {
          "indexed": true,
          "internalType": "uint256",
          "name": "stakingShares",
          "type": "uint256"
        },
        {
          "indexed": true,
          "internalType": "uint256",
          "name": "nuvaShares",
          "type": "uint256"
        }
      ],
      "name": "NuvaDeposited",
      "type": "event"
    },
    {
      "anonymous": false,
      "inputs": [
        {
          "indexed": true,
          "internalType": "address",
          "name": "previousOwner",
          "type": "address"
        },
        {
          "indexed": true,
          "internalType": "address",
          "name": "newOwner",
          "type": "address"
        }
      ],
      "name": "OwnershipTransferStarted",
      "type": "event"
    },
    {
      "anonymous": false,
      "inputs": [
        {
          "indexed": true,
          "internalType": "address",
          "name": "previousOwner",
          "type": "address"
        },
        {
          "indexed": true,
          "internalType": "address",
          "name": "newOwner",
          "type": "address"
        }
      ],
      "name": "OwnershipTransferred",
      "type": "event"
    },
    {
      "anonymous": false,
      "inputs": [
        {
          "indexed": true,
          "internalType": "address",
          "name": "oldImplementation",
          "type": "address"
        },
        {
          "indexed": true,
          "internalType": "address",
          "name": "newImplementation",
          "type": "address"
        }
      ],
      "name": "RedemptionProxyImplementationUpdated",
      "type": "event"
    },
    {
      "anonymous": false,
      "inputs": [
        {
          "indexed": true,
          "internalType": "address",
          "name": "user",
          "type": "address"
        },
        {
          "indexed": true,
          "internalType": "address",
          "name": "redemptionProxy",
          "type": "address"
        }
      ],
      "name": "RedemptionRequested",
      "type": "event"
    },
    {
      "anonymous": false,
      "inputs": [
        {
          "indexed": false,
          "internalType": "address[]",
          "name": "users",
          "type": "address[]"
        },
        {
          "indexed": false,
          "internalType": "uint256",
          "name": "totalSweptAmount",
          "type": "uint256"
        }
      ],
      "name": "RedemptionsSwept",
      "type": "event"
    },
    {
      "anonymous": false,
      "inputs": [
        {
          "indexed": true,
          "internalType": "bytes32",
          "name": "role",
          "type": "bytes32"
        },
        {
          "indexed": true,
          "internalType": "bytes32",
          "name": "previousAdminRole",
          "type": "bytes32"
        },
        {
          "indexed": true,
          "internalType": "bytes32",
          "name": "newAdminRole",
          "type": "bytes32"
        }
      ],
      "name": "RoleAdminChanged",
      "type": "event"
    },
    {
      "anonymous": false,
      "inputs": [
        {
          "indexed": true,
          "internalType": "bytes32",
          "name": "role",
          "type": "bytes32"
        },
        {
          "indexed": true,
          "internalType": "address",
          "name": "account",
          "type": "address"
        },
        {
          "indexed": true,
          "internalType": "address",
          "name": "sender",
          "type": "address"
        }
      ],
      "name": "RoleGranted",
      "type": "event"
    },
    {
      "anonymous": false,
      "inputs": [
        {
          "indexed": true,
          "internalType": "bytes32",
          "name": "role",
          "type": "bytes32"
        },
        {
          "indexed": true,
          "internalType": "address",
          "name": "account",
          "type": "address"
        },
        {
          "indexed": true,
          "internalType": "address",
          "name": "sender",
          "type": "address"
        }
      ],
      "name": "RoleRevoked",
      "type": "event"
    },
    {
      "anonymous": false,
      "inputs": [
        {
          "indexed": true,
          "internalType": "address",
          "name": "implementation",
          "type": "address"
        }
      ],
      "name": "Upgraded",
      "type": "event"
    },
    {
      "inputs": [],
      "name": "DEFAULT_ADMIN_ROLE",
      "outputs": [
        {
          "internalType": "bytes32",
          "name": "",
          "type": "bytes32"
        }
      ],
      "stateMutability": "view",
      "type": "function"
    },
    {
      "inputs": [],
      "name": "KEEPER_ROLE",
      "outputs": [
        {
          "internalType": "bytes32",
          "name": "",
          "type": "bytes32"
        }
      ],
      "stateMutability": "view",
      "type": "function"
    },
    {
      "inputs": [],
      "name": "UPGRADE_INTERFACE_VERSION",
      "outputs": [
        {
          "internalType": "string",
          "name": "",
          "type": "string"
        }
      ],
      "stateMutability": "view",
      "type": "function"
    },
    {
      "inputs": [],
      "name": "acceptOwnership",
      "outputs": [],
      "stateMutability": "nonpayable",
      "type": "function"
    },
    {
      "inputs": [],
      "name": "amlSigner",
      "outputs": [
        {
          "internalType": "address",
          "name": "",
          "type": "address"
        }
      ],
      "stateMutability": "view",
      "type": "function"
    },
    {
      "inputs": [],
      "name": "asset",
      "outputs": [
        {
          "internalType": "contract IERC20",
          "name": "",
          "type": "address"
        }
      ],
      "stateMutability": "view",
      "type": "function"
    },
    {
      "inputs": [],
      "name": "assetVault",
      "outputs": [
        {
          "internalType": "contract IERC4626",
          "name": "",
          "type": "address"
        }
      ],
      "stateMutability": "view",
      "type": "function"
    },
    {
      "inputs": [
        {
          "internalType": "uint256",
          "name": "_amount",
          "type": "uint256"
        },
        {
          "internalType": "address",
          "name": "_receiver",
          "type": "address"
        },
        {
          "internalType": "uint256",
          "name": "_minVaultSharesOut",
          "type": "uint256"
        },
        {
          "internalType": "uint256",
          "name": "_minStakingVaultSharesOut",
          "type": "uint256"
        },
        {
          "internalType": "uint256",
          "name": "_minNuvaVaultSharesOut",
          "type": "uint256"
        },
        {
          "internalType": "bytes",
          "name": "_amlSignature",
          "type": "bytes"
        },
        {
          "internalType": "uint256",
          "name": "_amlDeadline",
          "type": "uint256"
        }
      ],
      "name": "deposit",
      "outputs": [
        {
          "internalType": "uint256",
          "name": "nuvaShares",
          "type": "uint256"
        }
      ],
      "stateMutability": "nonpayable",
      "type": "function"
    },
    {
      "inputs": [
        {
          "internalType": "uint256",
          "name": "_amount",
          "type": "uint256"
        },
        {
          "internalType": "address",
          "name": "_receiver",
          "type": "address"
        },
        {
          "internalType": "uint256",
          "name": "_minVaultSharesOut",
          "type": "uint256"
        },
        {
          "internalType": "uint256",
          "name": "_minStakingVaultSharesOut",
          "type": "uint256"
        },
        {
          "internalType": "uint256",
          "name": "_minNuvaVaultSharesOut",
          "type": "uint256"
        },
        {
          "internalType": "bytes",
          "name": "_amlSignature",
          "type": "bytes"
        },
        {
          "internalType": "uint256",
          "name": "_amlDeadline",
          "type": "uint256"
        },
        {
          "internalType": "uint256",
          "name": "_permitDeadline",
          "type": "uint256"
        },
        {
          "internalType": "uint8",
          "name": "_v",
          "type": "uint8"
        },
        {
          "internalType": "bytes32",
          "name": "_r",
          "type": "bytes32"
        },
        {
          "internalType": "bytes32",
          "name": "_s",
          "type": "bytes32"
        }
      ],
      "name": "depositWithPermit",
      "outputs": [
        {
          "internalType": "uint256",
          "name": "nuvaShares",
          "type": "uint256"
        }
      ],
      "stateMutability": "nonpayable",
      "type": "function"
    },
    {
      "inputs": [
        {
          "internalType": "bytes32",
          "name": "role",
          "type": "bytes32"
        }
      ],
      "name": "getRoleAdmin",
      "outputs": [
        {
          "internalType": "bytes32",
          "name": "",
          "type": "bytes32"
        }
      ],
      "stateMutability": "view",
      "type": "function"
    },
    {
      "inputs": [
        {
          "internalType": "bytes32",
          "name": "role",
          "type": "bytes32"
        },
        {
          "internalType": "address",
          "name": "account",
          "type": "address"
        }
      ],
      "name": "grantRole",
      "outputs": [],
      "stateMutability": "nonpayable",
      "type": "function"
    },
    {
      "inputs": [
        {
          "internalType": "bytes32",
          "name": "role",
          "type": "bytes32"
        },
        {
          "internalType": "address",
          "name": "account",
          "type": "address"
        }
      ],
      "name": "hasRole",
      "outputs": [
        {
          "internalType": "bool",
          "name": "",
          "type": "bool"
        }
      ],
      "stateMutability": "view",
      "type": "function"
    },
    {
      "inputs": [
        {
          "internalType": "address",
          "name": "_assetVault",
          "type": "address"
        },
        {
          "internalType": "address",
          "name": "_stakingVault",
          "type": "address"
        },
        {
          "internalType": "address",
          "name": "_nuvaVault",
          "type": "address"
        },
        {
          "internalType": "address",
          "name": "_amlSigner",
          "type": "address"
        },
        {
          "internalType": "address",
          "name": "_initialOwner",
          "type": "address"
        }
      ],
      "name": "initialize",
      "outputs": [],
      "stateMutability": "nonpayable",
      "type": "function"
    },
    {
      "inputs": [],
      "name": "isPaused",
      "outputs": [
        {
          "internalType": "bool",
          "name": "",
          "type": "bool"
        }
      ],
      "stateMutability": "view",
      "type": "function"
    },
    {
      "inputs": [],
      "name": "nuvaAsset",
      "outputs": [
        {
          "internalType": "contract IERC20",
          "name": "",
          "type": "address"
        }
      ],
      "stateMutability": "view",
      "type": "function"
    },
    {
      "inputs": [],
      "name": "nuvaVault",
      "outputs": [
        {
          "internalType": "contract IERC4626",
          "name": "",
          "type": "address"
        }
      ],
      "stateMutability": "view",
      "type": "function"
    },
    {
      "inputs": [],
      "name": "owner",
      "outputs": [
        {
          "internalType": "address",
          "name": "",
          "type": "address"
        }
      ],
      "stateMutability": "view",
      "type": "function"
    },
    {
      "inputs": [],
      "name": "pendingOwner",
      "outputs": [
        {
          "internalType": "address",
          "name": "",
          "type": "address"
        }
      ],
      "stateMutability": "view",
      "type": "function"
    },
    {
      "inputs": [],
      "name": "proxiableUUID",
      "outputs": [
        {
          "internalType": "bytes32",
          "name": "",
          "type": "bytes32"
        }
      ],
      "stateMutability": "view",
      "type": "function"
    },
    {
      "inputs": [],
      "name": "redemptionProxyImplementation",
      "outputs": [
        {
          "internalType": "address",
          "name": "",
          "type": "address"
        }
      ],
      "stateMutability": "view",
      "type": "function"
    },
    {
      "inputs": [
        {
          "internalType": "address",
          "name": "",
          "type": "address"
        }
      ],
      "name": "redemptionProxyToUser",
      "outputs": [
        {
          "internalType": "address",
          "name": "",
          "type": "address"
        }
      ],
      "stateMutability": "view",
      "type": "function"
    },
    {
      "inputs": [],
      "name": "renounceOwnership",
      "outputs": [],
      "stateMutability": "nonpayable",
      "type": "function"
    },
    {
      "inputs": [
        {
          "internalType": "bytes32",
          "name": "role",
          "type": "bytes32"
        },
        {
          "internalType": "address",
          "name": "callerConfirmation",
          "type": "address"
        }
      ],
      "name": "renounceRole",
      "outputs": [],
      "stateMutability": "nonpayable",
      "type": "function"
    },
    {
      "inputs": [
        {
          "internalType": "uint256",
          "name": "_amountNuvaShares",
          "type": "uint256"
        },
        {
          "internalType": "bytes",
          "name": "_amlSignature",
          "type": "bytes"
        },
        {
          "internalType": "uint256",
          "name": "_amlDeadline",
          "type": "uint256"
        }
      ],
      "name": "requestRedeem",
      "outputs": [],
      "stateMutability": "nonpayable",
      "type": "function"
    },
    {
      "inputs": [
        {
          "internalType": "uint256",
          "name": "_amountNuvaShares",
          "type": "uint256"
        },
        {
          "internalType": "bytes",
          "name": "_amlSignature",
          "type": "bytes"
        },
        {
          "internalType": "uint256",
          "name": "_amlDeadline",
          "type": "uint256"
        },
        {
          "internalType": "uint256",
          "name": "_permitDeadline",
          "type": "uint256"
        },
        {
          "internalType": "uint8",
          "name": "_v",
          "type": "uint8"
        },
        {
          "internalType": "bytes32",
          "name": "_r",
          "type": "bytes32"
        },
        {
          "internalType": "bytes32",
          "name": "_s",
          "type": "bytes32"
        }
      ],
      "name": "requestRedeemWithPermit",
      "outputs": [],
      "stateMutability": "nonpayable",
      "type": "function"
    },
    {
      "inputs": [
        {
          "internalType": "bytes32",
          "name": "role",
          "type": "bytes32"
        },
        {
          "internalType": "address",
          "name": "account",
          "type": "address"
        }
      ],
      "name": "revokeRole",
      "outputs": [],
      "stateMutability": "nonpayable",
      "type": "function"
    },
    {
      "inputs": [
        {
          "internalType": "address",
          "name": "_newAmlSigner",
          "type": "address"
        }
      ],
      "name": "setAmlSigner",
      "outputs": [],
      "stateMutability": "nonpayable",
      "type": "function"
    },
    {
      "inputs": [
        {
          "internalType": "address",
          "name": "_newImplementation",
          "type": "address"
        }
      ],
      "name": "setRedemptionProxyImplementation",
      "outputs": [],
      "stateMutability": "nonpayable",
      "type": "function"
    },
    {
      "inputs": [],
      "name": "stakingAsset",
      "outputs": [
        {
          "internalType": "contract IERC20",
          "name": "",
          "type": "address"
        }
      ],
      "stateMutability": "view",
      "type": "function"
    },
    {
      "inputs": [],
      "name": "stakingVault",
      "outputs": [
        {
          "internalType": "contract IERC4626",
          "name": "",
          "type": "address"
        }
      ],
      "stateMutability": "view",
      "type": "function"
    },
    {
      "inputs": [
        {
          "internalType": "bytes4",
          "name": "interfaceId",
          "type": "bytes4"
        }
      ],
      "name": "supportsInterface",
      "outputs": [
        {
          "internalType": "bool",
          "name": "",
          "type": "bool"
        }
      ],
      "stateMutability": "view",
      "type": "function"
    },
    {
      "inputs": [
        {
          "internalType": "address[]",
          "name": "_proxyAddresses",
          "type": "address[]"
        },
        {
          "internalType": "uint256[]",
          "name": "_amounts",
          "type": "uint256[]"
        }
      ],
      "name": "sweepRedemptions",
      "outputs": [],
      "stateMutability": "nonpayable",
      "type": "function"
    },
    {
      "inputs": [],
      "name": "togglePause",
      "outputs": [],
      "stateMutability": "nonpayable",
      "type": "function"
    },
    {
      "inputs": [
        {
          "internalType": "address",
          "name": "newOwner",
          "type": "address"
        }
      ],
      "name": "transferOwnership",
      "outputs": [],
      "stateMutability": "nonpayable",
      "type": "function"
    },
    {
      "inputs": [
        {
          "internalType": "address",
          "name": "newImplementation",
          "type": "address"
        },
        {
          "internalType": "bytes",
          "name": "data",
          "type": "bytes"
        }
      ],
      "name": "upgradeToAndCall",
      "outputs": [],
      "stateMutability": "payable",
      "type": "function"
    },
    {
      "inputs": [
        {
          "internalType": "bytes32",
          "name": "",
          "type": "bytes32"
        }
      ],
      "name": "usedSignatures",
      "outputs": [
        {
          "internalType": "bool",
          "name": "",
          "type": "bool"
        }
      ],
      "stateMutability": "view",
      "type": "function"
    }
  ],
  "bytecode": "0x60a080604052346100ea57306080527ff0c57e16840df040f15088dc2f81fe391c3923bec73e23a9662efc9c229c6a005460ff8160401c166100d9576002600160401b03196001600160401b03821601610073575b60405161288090816100f08239608051818181610bd50152610c7b0152f35b6001600160401b0319166001600160401b039081177ff0c57e16840df040f15088dc2f81fe391c3923bec73e23a9662efc9c229c6a005581527fc7f505b2f371ae2175ee4913f4499e1f2633a7b5936321eed1cdaeb6115181d290602090a13880610054565b63f92ee8a960e01b60005260046000fd5b600080fdfe6080604052600436101561001257600080fd5b6000803560e01c80628e6a651461142457806301ffc9a7146113cd5780631459457a14610fe3578063248a9ca314610fbc57806324e7964a14610f935780632f2ff15d14610f615780633180bab614610f38578063364bc15a14610f0f57806336568abe14610eca57806338d52e0f14610ea1578063404c540b14610e4b5780634f1ef28614610c2a57806352d1902d14610bc25780635907256814610b815780636147da5614610b58578063632a826314610b2f5780636da50e3314610aac578063715018a614610a2b5780637776768f14610a0257806379ba5097146109b15780638da5cb5b1461097b57806391d1485414610925578063a217fddf14610909578063ad3cb1cc1461088f578063b187bd261461086c578063b1d1343514610770578063be5afe1614610661578063bf7bd6e2146103e5578063c4ae3168146103b6578063d547741f1461037b578063dace1a8d14610352578063e30c39781461031c578063f2fde38b14610294578063f30a8db414610200578063f61ebc36146101d95763f978fd61146101a857600080fd5b346101d65760203660031901126101d65760ff60406020926004358152600984522054166040519015158152f35b80fd5b50346101d657806003193601126101d657546040516001600160a01b039091168152602090f35b50346101d65760e03660031901126101d65760043561021d6114c2565b60443590606435926084359460a4359067ffffffffffffffff82116101d657602061027a88888888886102756102563660048c016114d8565b60c4359161026261195f565b610270838a8a8a8a8a611e75565b6119ed565b611ee4565b600160008051602061281483398151915255604051908152f35b50346101d65760203660031901126101d6576102ae6114a7565b6102b6611628565b60008051602061285483398151915280546001600160a01b0319166001600160a01b03928316908117909155600080516020612794833981519152549091167f38d16b8cac22d99fc7c124b9cd0de2d3fa1faef420bfe791d8c362d765e227008380a380f35b50346101d657806003193601126101d657600080516020612854833981519152546040516001600160a01b039091168152602090f35b50346101d657806003193601126101d6576004546040516001600160a01b039091168152602090f35b50346101d65760403660031901126101d6576103b260043561039b6114c2565b906103ad6103a8826115e1565b611875565b6118bf565b5080f35b50346101d657806003193601126101d6576103cf611628565b60325460ff80821615169060ff19161760325580f35b50346101d65760403660031901126101d65760043567ffffffffffffffff811161065d57610417903690600401611591565b9060243567ffffffffffffffff811161065957610438903690600401611591565b6000805160206127b483398151915285526000805160206127f483398151915260209081526040808720336000908152925290205460ff1615610634576007546001600160a01b03161561062557808403610616578491855b85811061051857505050604051928060408501604086525260608401929085905b8082106104ea57867fb9406f44634c6228db9e8d145e4f5159e884b069bd28d9763e76817e2110ed968780888860208301520390a180f35b90919384359060018060a01b038216809203610514576020816001938293520195019201906104b2565b8780fd5b610523818787611602565b356001600160a01b038116949085900361051457610542828585611602565b858952600860205260408920549035906001600160a01b03161561060b576040519063aa60e73360e01b825260048201526020816024818c8a5af19081156106005789916105cd575b5081018091116105b95793875260086020526040872080546001600160a01b03191690556001905b01610491565b634e487b7160e01b88526011600452602488fd5b905060203d81116105f9575b6105e38183611506565b602082600092810103126101d65750513861058b565b503d6105d9565b6040513d8b823e3d90fd5b5093506001906105b3565b63512509d360e11b8552600485fd5b63c291c21760e01b8552600485fd5b63e2517d3f60e01b8552336004526000805160206127b4833981519152602452604485fd5b8380fd5b5080fd5b50346101d6576101603660031901126101d65760043561067f6114c2565b60443590606435926084359460a43567ffffffffffffffff811161065d576106ab9036906004016114d8565b60c43590610104359260ff8416840361076c57906106da92916106cc61195f565b610270838c8c8c8c8c611e75565b6001546001600160a01b031690813b156107685760405163d505accf60e01b81523360048201523060248201526044810185905260e48035606483015260ff9290921660848201526101243560a48201526101443560c48201529183918391829084905af1610753575b602061027a8888888888611ee4565b61075e828092611506565b6101d65780610744565b8280fd5b8480fd5b50346101d65760e03660031901126101d6576004358160243567ffffffffffffffff811161065d576107a69036906004016114d8565b906044356084359260ff8416840361076c576107ce926107c461195f565b610270838861199b565b6004546001600160a01b031690813b156107685760405163d505accf60e01b815233600482015230602482015260448101859052606480359082015260ff91909116608482015260a480359082015260c48035908201529190829060e490829084905af1610856575b5061084190611b46565b60016000805160206128148339815191525580f35b91610865816108419394611506565b9190610837565b50346101d657806003193601126101d657602060ff603254166040519015158152f35b50346101d657806003193601126101d65760408051916108af8284611506565b60058352640352e302e360dc1b6020840152815192839160208352815191826020850152815b8381106108f2575050828201840152601f01601f19168101030190f35b6020828201810151888301880152879550016108d5565b50346101d657806003193601126101d657602090604051908152f35b50346101d65760403660031901126101d65760ff60406020926109466114c2565b60043582526000805160206127f483398151915285528282206001600160a01b03909116825284522054604051911615158152f35b50346101d657806003193601126101d657600080516020612794833981519152546040516001600160a01b039091168152602090f35b50346101d657806003193601126101d65760008051602061285483398151915254336001600160a01b03909116036109ef576109ec33611e07565b80f35b63118cdaa760e01b815233600452602490fd5b50346101d657806003193601126101d6576003546040516001600160a01b039091168152602090f35b50346101d657806003193601126101d657610a44611628565b60008051602061285483398151915280546001600160a01b03199081169091556000805160206127948339815191528054918216905581906001600160a01b03167f8be0079c531659141344cd1fd0a4f28419497f9722a3daafe3b4186f6b6457e08280a380f35b50346101d65760203660031901126101d657610ac66114a7565b610ace611628565b6001600160a01b03168015610b2057600754816001600160a01b0382167fd1eea419b2c4a2e74ab6fe1d5e7ea7027d4f646f83efbdd0cb293813187fb6468580a36001600160a01b0319161760075580f35b63c291c21760e01b8252600482fd5b50346101d657806003193601126101d6576005546040516001600160a01b039091168152602090f35b50346101d657806003193601126101d6576006546040516001600160a01b039091168152602090f35b50346101d65760203660031901126101d6576020906001600160a01b03610ba66114a7565b16815260088252604060018060a01b0391205416604051908152f35b50346101d657806003193601126101d6577f00000000000000000000000000000000000000000000000000000000000000006001600160a01b03163003610c1b5760206040516000805160206127d48339815191528152f35b63703e46dd60e11b8152600490fd5b5060403660031901126101d657610c3f6114a7565b9060243567ffffffffffffffff811161065d573660238201121561065d57610c7190369060248160040135910161155a565b6001600160a01b037f000000000000000000000000000000000000000000000000000000000000000016308114908115610e28575b50610e1957610cb3611628565b6040516352d1902d60e01b8152926001600160a01b0381169190602085600481865afa80958596610de5575b50610cf857634c9c8ce360e01b84526004839052602484fd5b9091846000805160206127d48339815191528103610dd35750813b15610dc1576000805160206127d483398151915280546001600160a01b031916821790557fbc7cd75a20ee27fd9adebab32041f755214dbc6bffa90cc0225b39da2e5c2d3b8480a28151839015610da757808360206103b295519101845af43d15610d9f573d91610d838361153e565b92610d916040519485611506565b83523d85602085013e612732565b606091612732565b50505034610db25780f35b63b398979f60e01b8152600490fd5b634c9c8ce360e01b8452600452602483fd5b632a87526960e21b8552600452602484fd5b9095506020813d602011610e11575b81610e0160209383611506565b8101031261076c57519438610cdf565b3d9150610df4565b63703e46dd60e11b8252600482fd5b6000805160206127d4833981519152546001600160a01b03161415905038610ca6565b50346101d65760603660031901126101d65760243560043567ffffffffffffffff821161076857610e9c610e866108419336906004016114d8565b60443591610e9261195f565b610270838661199b565b611b46565b50346101d657806003193601126101d6576001546040516001600160a01b039091168152602090f35b50346101d65760403660031901126101d657610ee46114c2565b336001600160a01b03821603610f00576103b2906004356118bf565b63334bd91960e11b8252600482fd5b50346101d657806003193601126101d65760206040516000805160206127b48339815191528152f35b50346101d657806003193601126101d6576007546040516001600160a01b039091168152602090f35b50346101d65760403660031901126101d6576103b2600435610f816114c2565b90610f8e6103a8826115e1565b6117cc565b50346101d657806003193601126101d6576002546040516001600160a01b039091168152602090f35b50346101d65760203660031901126101d6576020610fdb6004356115e1565b604051908152f35b50346101d65760a03660031901126101d657610ffd6114a7565b6110056114c2565b6044356001600160a01b03811690819003610659576064356001600160a01b038116929083900361076c576084356001600160a01b03811694908581036113c957600080516020612834833981519152549560ff8760401c16159667ffffffffffffffff8116801590816113c1575b60011490816113b7575b1590816113ae575b5061139f5767ffffffffffffffff1981166001176000805160206128348339815191525587611372575b506110b961245d565b1561135e57806110cb61110c92611e07565b6110d361245d565b6110db61245d565b6110e361245d565b6110eb61245d565b6001600080516020612814833981519152556111068161165e565b50611710565b506001600160a01b03168015801561134d575b8015611345575b6113365783156113275785546001600160a01b031916811786556040516338d52e0f60e01b815290602090829060049082905afa91821561131c5760049260209288916112ff575b50600180546001600160a01b039283166001600160a01b03199182161790915560028054939092169216821790556040516338d52e0f60e01b815292839182905afa9182156112f45760049260209287916112d7575b50600380546001600160a01b03929092166001600160a01b0319928316179055835416811783556040516338d52e0f60e01b815292839182905afa9081156112cc57849161129d575b5060018060a01b03166001600160601b0360a01b60055416176005556001600160601b0360a01b60065416176006556112435780f35b68ff0000000000000000196000805160206128348339815191525416600080516020612834833981519152557fc7f505b2f371ae2175ee4913f4499e1f2633a7b5936321eed1cdaeb6115181d2602060405160018152a180f35b6112bf915060203d6020116112c5575b6112b78183611506565b8101906115c2565b3861120d565b503d6112ad565b6040513d86823e3d90fd5b6112ee9150833d85116112c5576112b78183611506565b386111c4565b6040513d87823e3d90fd5b6113169150833d85116112c5576112b78183611506565b3861116e565b6040513d88823e3d90fd5b63d1cc738560e01b8652600486fd5b630681d31960e51b8652600486fd5b508215611126565b506001600160a01b0382161561111f565b631e4fbdf760e01b87526004879052602487fd5b68ffffffffffffffffff1916680100000000000000011760008051602061283483398151915255386110b0565b63f92ee8a960e01b8952600489fd5b90501538611086565b303b15915061107e565b899150611074565b8680fd5b50346101d65760203660031901126101d65760043563ffffffff60e01b811680910361065d57602090637965db0b60e01b8114908115611413575b506040519015158152f35b6301ffc9a760e01b14905082611408565b50346101d65760203660031901126101d65761143e6114a7565b611446611628565b6001600160a01b0316801561149857600654816001600160a01b0382167f7f7b46c0c664af2835dffe8b8e5c1ddbfcef63f608af5bbf2836a2b29a88fcb08580a36001600160a01b0319161760065580f35b63d1cc738560e01b8252600482fd5b600435906001600160a01b03821682036114bd57565b600080fd5b602435906001600160a01b03821682036114bd57565b9181601f840112156114bd5782359167ffffffffffffffff83116114bd57602083818601950101116114bd57565b90601f8019910116810190811067ffffffffffffffff82111761152857604052565b634e487b7160e01b600052604160045260246000fd5b67ffffffffffffffff811161152857601f01601f191660200190565b9291926115668261153e565b916115746040519384611506565b8294818452818301116114bd578281602093846000960137010152565b9181601f840112156114bd5782359167ffffffffffffffff83116114bd576020808501948460051b0101116114bd57565b908160209103126114bd57516001600160a01b03811681036114bd5790565b6000526000805160206127f483398151915260205260016040600020015490565b91908110156116125760051b0190565b634e487b7160e01b600052603260045260246000fd5b600080516020612794833981519152546001600160a01b0316330361164957565b63118cdaa760e01b6000523360045260246000fd5b6001600160a01b03811660009081527fb7db2dd08fcb62d0c9e08c51941cae53c267786a0b75803fb7960902fc8ef97d602052604090205460ff1661170a576001600160a01b031660008181527fb7db2dd08fcb62d0c9e08c51941cae53c267786a0b75803fb7960902fc8ef97d60205260408120805460ff191660011790553391907f2f8788117e7eff1d82e926ec794901d17c78024a50270940304540a733656f0d8180a4600190565b50600090565b6001600160a01b03811660009081527fe4a823086f56383dde6966cefd1253771599ebb2bfb3e60c37e64b5a68896bea602052604090205460ff1661170a576001600160a01b031660008181527fe4a823086f56383dde6966cefd1253771599ebb2bfb3e60c37e64b5a68896bea60205260408120805460ff191660011790553391906000805160206127b4833981519152907f2f8788117e7eff1d82e926ec794901d17c78024a50270940304540a733656f0d9080a4600190565b60008181526000805160206127f4833981519152602090815260408083206001600160a01b038616845290915290205460ff1661186e5760008181526000805160206127f4833981519152602090815260408083206001600160a01b0395909516808452949091528120805460ff19166001179055339291907f2f8788117e7eff1d82e926ec794901d17c78024a50270940304540a733656f0d9080a4600190565b5050600090565b60008181526000805160206127f48339815191526020908152604080832033845290915290205460ff16156118a75750565b63e2517d3f60e01b6000523360045260245260446000fd5b60008181526000805160206127f4833981519152602090815260408083206001600160a01b038616845290915290205460ff161561186e5760008181526000805160206127f4833981519152602090815260408083206001600160a01b0395909516808452949091528120805460ff19169055339291907ff6391f5c32d9c69d2a47ea670b442974b53935d1edc7fd64eb21e047a839171b9080a4600190565b6002600080516020612814833981519152541461198a57600260008051602061281483398151915255565b633ee5aeb560e01b60005260046000fd5b906040519060208201927f8c3fd90a5179bfe9a8bd7bd5e1e0704d65a303c0eb3ffaa19fca45db0728ca66845233604084015260608301526080820152608081526119e760a082611506565b51902090565b9190924211611b355781600052600960205260ff60406000205416611b2457611add611ae691611ad76040956042601460208951611a2b8b82611506565b82815201732232b234b1b0ba32b22b30bab63a2937baba32b960611b815220600160208a51611a5a8c82611506565b82815201603160f81b81522089519060208201927f8b73c3c69bb8fe3d512ecc4cf759cc79239f7b179b0ffacaa9a75d522b39400f84528b83015260608201524660808201523060a082015260a08152611ab560c082611506565b51902088519061190160f01b825260028201528760228201522092369161155a565b9061258a565b909291926125c6565b6006546001600160a01b03908116911603611b13576000526009602052600020600160ff19825416179055565b638bb79cad60e01b60005260046000fd5b63e544c62f60e01b60005260046000fd5b63288a076f60e21b60005260046000fd5b60045460246020600092604051928380926370a0823160e01b825230600483015260018060a01b03165afa908115611dfc578291611dca575b506007546001600160a01b03811615611dbb57608881901c62ffffff16763d602d80600a3d3981f3363d3d373d3d3d363d7300000017835260781b6effffffffffffffffffffffffffffff19166e5af43d82803e903d91602b57fd5bf3176020526037600983f06001600160a01b03811693908415611dac5783546002546004546001600160a01b03928316929081169116873b156113c95760405192637c643b2f60e11b84526004840152602483015260448201523360648201528481608481838a5af180156112f457611d94575b5081611c7c91611c6b82303360018060a01b036004541661248b565b6004546001600160a01b03166124d6565b833b15610768576040519062d16aad60e01b82526004820152828160248183885af18015611d7457908391611d7f575b50506024602060018060a01b0360045416604051928380926370a0823160e01b82523060048301525afa908115611d74578391611d42575b5011611d2e57818152600860205260408120336001600160601b0360a01b8254161790557e45309ccbff29fb81c8c5fc824405446ca8ac332fd6ae375251ba54005c1fef339180a3565b63eac1efd960e01b81526001600452602490fd5b90506020813d602011611d6c575b81611d5d60209383611506565b810103126114bd575138611ce4565b3d9150611d50565b6040513d85823e3d90fd5b81611d8991611506565b61065d578138611cac565b84611da4611c7c93968593611506565b949150611c4f565b63b06ebf3d60e01b8452600484fd5b63c291c21760e01b8352600483fd5b90506020813d602011611df4575b81611de560209383611506565b8101031261065d575138611b7f565b3d9150611dd8565b6040513d84823e3d90fd5b60008051602061285483398151915280546001600160a01b031990811690915560008051602061279483398151915280549182166001600160a01b0393841690811790915591167f8be0079c531659141344cd1fd0a4f28419497f9722a3daafe3b4186f6b6457e0600080a3565b94929093916040519460208601967f825e4a0c6c1347448cb0506a6696bb6a0812431f15c82ace3f8cd1ed0da3829e8852336040880152606087015260018060a01b0316608086015260a085015260c084015260e083015261010082015261010081526119e761012082611506565b6001546040516370a0823160e01b8152306004820152959695929493926001600160a01b0390911690602081602481855afa801561226c5760009061242a575b6003546040516370a0823160e01b81523060048201529250602090839060249082906001600160a01b03165afa91821561226c576000926123f6575b506005546040516370a0823160e01b815230600482015290602090829060249082906001600160a01b03165afa93841561226c5785916000956123bd575b5090611fad913090339061248b565b600154600054611fcb9186916001600160a01b0390811691166124d6565b60008054604051636e553f6560e01b815260048101879052306024820152969160209188916044918391906001600160a01b03165af195861561226c57600096612389575b5080861061227857506001546040516370a0823160e01b815230600482015290602090829060249082906001600160a01b03165afa90811561226c57600091612357575b5011612341576003546002546120789186916001600160a01b0390811691166124d6565b600254604051636e553f6560e01b8152600481018690523060248201529590602090879060449082906000906001600160a01b03165af195861561226c5760009661230d575b5080861061227857506003546040516370a0823160e01b815230600482015290602090829060249082906001600160a01b03165afa90811561226c576000916122db575b50116122c55760055460045460009660209261216b926121309189916001600160a01b0390811691166124d6565b60048054604051636e553f6560e01b81529182018990526001600160a01b039283166024830152909889939190921691839182906044820190565b03925af194851561226c57600095612291575b50849680861061227857506005546040516370a0823160e01b815230600482015290602090829060249082906001600160a01b03165afa90811561226c5760009161223a575b5011612224576040518381528460208201527fe3b53cd1a44fbf11535e145d80b8ef1ed6d57a73bf5daa7e939b6b01657d654960403392a4337f25ce8023f13f06ca0d767e94c9b8af89bb3acb2ccb35720e79a7fa12cacdc0ae600080a4565b63eac1efd960e01b600052600360045260246000fd5b90506020813d602011612264575b8161225560209383611506565b810103126114bd5751386121c4565b3d9150612248565b6040513d6000823e3d90fd5b85906371c4efed60e01b60005260045260245260446000fd5b90946020823d6020116122bd575b816122ac60209383611506565b810103126101d6575051933861217e565b3d915061229f565b63eac1efd960e01b600052600260045260246000fd5b90506020813d602011612305575b816122f660209383611506565b810103126114bd575138612102565b3d91506122e9565b90956020823d602011612339575b8161232860209383611506565b810103126101d657505194386120be565b3d915061231b565b63eac1efd960e01b600052600160045260246000fd5b90506020813d602011612381575b8161237260209383611506565b810103126114bd575138612054565b3d9150612365565b90956020823d6020116123b5575b816123a460209383611506565b810103126101d65750519438612010565b3d9150612397565b915093506020813d6020116123ee575b816123da60209383611506565b810103126114bd5751928490611fad611f9e565b3d91506123cd565b9091506020813d602011612422575b8161241260209383611506565b810103126114bd57519038611f60565b3d9150612405565b506020813d602011612455575b8161244460209383611506565b810103126114bd5760249051611f24565b3d9150612437565b60ff6000805160206128348339815191525460401c161561247a57565b631afcd79f60e31b60005260046000fd5b6040516323b872dd60e01b60208201526001600160a01b0392831660248201529290911660448301526064808301939093529181526124d4916124cf608483611506565b61264e565b565b60206000604051938285019063095ea7b360e01b825260018060a01b03169586602487015260448601526044855261250f606486611506565b84519082855af16000513d82612565575b50501561252c57505050565b6124cf6124d4936040519063095ea7b360e01b60208301526024820152600060448201526044815261255f606482611506565b8261264e565b90915061258257506001600160a01b0381163b15155b3880612520565b60011461257b565b81519190604183036125bb576125b492506020820151906060604084015193015160001a906126a9565b9192909190565b505060009160029190565b919091600481101561263857806125dc57509050565b6000600182036125f75763f645eedf60e01b60005260046000fd5b5060028103612615578263fce698f760e01b60005260045260246000fd5b9091600360009214612625575050565b6335e2f38360e21b825260045260249150fd5b634e487b7160e01b600052602160045260246000fd5b906000602091828151910182855af11561226c576000513d6126a057506001600160a01b0381163b155b61267f5750565b635274afe760e01b60009081526001600160a01b0391909116600452602490fd5b60011415612678565b91907f7fffffffffffffffffffffffffffffff5d576e7357a4501ddfe92f46681b20a08411612726579160209360809260ff60009560405194855216868401526040830152606082015282805260015afa1561226c576000516001600160a01b0381161561271a5790600090600090565b50600090600190600090565b50505060009160039190565b90612758575080511561274757602081519101fd5b63d6bda27560e01b60005260046000fd5b8151158061278a575b612769575090565b639996b31560e01b60009081526001600160a01b0391909116600452602490fd5b50803b1561276156fe9016d09d72d40fdae2fd8ceac6b6234c7706214fd39c1cd1e609a0528c199300fc8737ab85eb45125971625a9ebdb75cc78e01d5c1fa80c4c6e5203f47bc4fab360894a13ba1a3210667c828492db98dca3e2076cc3735a920a3ca505d382bbc02dd7bc7dec4dceedda775e58dd541e08a116c6c53815c0bd028192f7b6268009b779b17422d0df92223018b32b4d1fa46e071723d6817e2486d003becc55f00f0c57e16840df040f15088dc2f81fe391c3923bec73e23a9662efc9c229c6a00237e158222e3e6968b72b9db0d8043aacf074ad9f650f0d1606b4d82ee432c00a164736f6c634300081c000a",
  "linkReferences": {},
  "deployedLinkReferences": {}
}