{
  "_format": "hh-sol-artifact-1",
  "contractName": "DedicatedVaultRouterV2",
  "sourceName": "contracts/prime/mocks/DedicatedVaultRouterV2.sol",
  "abi": [
    {
      "inputs": [],
      "name": "AccessControlBadConfirmation",
      "type": "error"
    },
    {
      "inputs": [
        {
          "internalType": "address",
          "name": "account",
          "type": "address"
        },
        {
          "internalType": "bytes32",
          "name": "neededRole",
          "type": "bytes32"
        }
      ],
      "name": "AccessControlUnauthorizedAccount",
      "type": "error"
    },
    {
      "inputs": [
        {
          "internalType": "address",
          "name": "target",
          "type": "address"
        }
      ],
      "name": "AddressEmptyCode",
      "type": "error"
    },
    {
      "inputs": [],
      "name": "AmlSignatureAlreadyUsed",
      "type": "error"
    },
    {
      "inputs": [],
      "name": "AmlSignatureExpired",
      "type": "error"
    },
    {
      "inputs": [],
      "name": "ArrayLengthMismatch",
      "type": "error"
    },
    {
      "inputs": [],
      "name": "ECDSAInvalidSignature",
      "type": "error"
    },
    {
      "inputs": [
        {
          "internalType": "uint256",
          "name": "length",
          "type": "uint256"
        }
      ],
      "name": "ECDSAInvalidSignatureLength",
      "type": "error"
    },
    {
      "inputs": [
        {
          "internalType": "bytes32",
          "name": "s",
          "type": "bytes32"
        }
      ],
      "name": "ECDSAInvalidSignatureS",
      "type": "error"
    },
    {
      "inputs": [
        {
          "internalType": "address",
          "name": "implementation",
          "type": "address"
        }
      ],
      "name": "ERC1967InvalidImplementation",
      "type": "error"
    },
    {
      "inputs": [],
      "name": "ERC1967NonPayable",
      "type": "error"
    },
    {
      "inputs": [],
      "name": "FailedCall",
      "type": "error"
    },
    {
      "inputs": [],
      "name": "FailedDeployment",
      "type": "error"
    },
    {
      "inputs": [
        {
          "internalType": "uint256",
          "name": "amount",
          "type": "uint256"
        }
      ],
      "name": "FundsStuck",
      "type": "error"
    },
    {
      "inputs": [
        {
          "internalType": "uint256",
          "name": "balance",
          "type": "uint256"
        },
        {
          "internalType": "uint256",
          "name": "needed",
          "type": "uint256"
        }
      ],
      "name": "InsufficientBalance",
      "type": "error"
    },
    {
      "inputs": [],
      "name": "InvalidAmlSignature",
      "type": "error"
    },
    {
      "inputs": [],
      "name": "InvalidAmlSigner",
      "type": "error"
    },
    {
      "inputs": [],
      "name": "InvalidInitialization",
      "type": "error"
    },
    {
      "inputs": [],
      "name": "InvalidRedemptionProxyImplementation",
      "type": "error"
    },
    {
      "inputs": [],
      "name": "InvalidVault",
      "type": "error"
    },
    {
      "inputs": [],
      "name": "NotInitializing",
      "type": "error"
    },
    {
      "inputs": [
        {
          "internalType": "address",
          "name": "owner",
          "type": "address"
        }
      ],
      "name": "OwnableInvalidOwner",
      "type": "error"
    },
    {
      "inputs": [
        {
          "internalType": "address",
          "name": "account",
          "type": "address"
        }
      ],
      "name": "OwnableUnauthorizedAccount",
      "type": "error"
    },
    {
      "inputs": [],
      "name": "RedemptionAlreadyPending",
      "type": "error"
    },
    {
      "inputs": [],
      "name": "ReentrancyGuardReentrantCall",
      "type": "error"
    },
    {
      "inputs": [
        {
          "internalType": "address",
          "name": "token",
          "type": "address"
        }
      ],
      "name": "SafeERC20FailedOperation",
      "type": "error"
    },
    {
      "inputs": [
        {
          "internalType": "uint256",
          "name": "minShares",
          "type": "uint256"
        },
        {
          "internalType": "uint256",
          "name": "actualShares",
          "type": "uint256"
        }
      ],
      "name": "SlippageExceeded",
      "type": "error"
    },
    {
      "inputs": [],
      "name": "UUPSUnauthorizedCallContext",
      "type": "error"
    },
    {
      "inputs": [
        {
          "internalType": "bytes32",
          "name": "slot",
          "type": "bytes32"
        }
      ],
      "name": "UUPSUnsupportedProxiableUUID",
      "type": "error"
    },
    {
      "anonymous": false,
      "inputs": [
        {
          "indexed": true,
          "internalType": "address",
          "name": "oldSigner",
          "type": "address"
        },
        {
          "indexed": true,
          "internalType": "address",
          "name": "newSigner",
          "type": "address"
        }
      ],
      "name": "AmlSignerUpdated",
      "type": "event"
    },
    {
      "anonymous": false,
      "inputs": [
        {
          "indexed": true,
          "internalType": "address",
          "name": "user",
          "type": "address"
        },
        {
          "indexed": true,
          "internalType": "uint256",
          "name": "assets",
          "type": "uint256"
        },
        {
          "indexed": true,
          "internalType": "uint256",
          "name": "shares",
          "type": "uint256"
        },
        {
          "indexed": false,
          "internalType": "uint256",
          "name": "stakingShares",
          "type": "uint256"
        },
        {
          "indexed": false,
          "internalType": "uint256",
          "name": "nuvaShares",
          "type": "uint256"
        }
      ],
      "name": "Deposited",
      "type": "event"
    },
    {
      "anonymous": false,
      "inputs": [
        {
          "indexed": false,
          "internalType": "uint64",
          "name": "version",
          "type": "uint64"
        }
      ],
      "name": "Initialized",
      "type": "event"
    },
    {
      "anonymous": false,
      "inputs": [
        {
          "indexed": true,
          "internalType": "address",
          "name": "user",
          "type": "address"
        },
        {
          "indexed": true,
          "internalType": "uint256",
          "name": "stakingShares",
          "type": "uint256"
        },
        {
          "indexed": true,
          "internalType": "uint256",
          "name": "nuvaShares",
          "type": "uint256"
        }
      ],
      "name": "NuvaDeposited",
      "type": "event"
    },
    {
      "anonymous": false,
      "inputs": [
        {
          "indexed": true,
          "internalType": "address",
          "name": "previousOwner",
          "type": "address"
        },
        {
          "indexed": true,
          "internalType": "address",
          "name": "newOwner",
          "type": "address"
        }
      ],
      "name": "OwnershipTransferStarted",
      "type": "event"
    },
    {
      "anonymous": false,
      "inputs": [
        {
          "indexed": true,
          "internalType": "address",
          "name": "previousOwner",
          "type": "address"
        },
        {
          "indexed": true,
          "internalType": "address",
          "name": "newOwner",
          "type": "address"
        }
      ],
      "name": "OwnershipTransferred",
      "type": "event"
    },
    {
      "anonymous": false,
      "inputs": [
        {
          "indexed": true,
          "internalType": "address",
          "name": "oldImplementation",
          "type": "address"
        },
        {
          "indexed": true,
          "internalType": "address",
          "name": "newImplementation",
          "type": "address"
        }
      ],
      "name": "RedemptionProxyImplementationUpdated",
      "type": "event"
    },
    {
      "anonymous": false,
      "inputs": [
        {
          "indexed": true,
          "internalType": "address",
          "name": "user",
          "type": "address"
        },
        {
          "indexed": true,
          "internalType": "address",
          "name": "redemptionProxy",
          "type": "address"
        }
      ],
      "name": "RedemptionRequested",
      "type": "event"
    },
    {
      "anonymous": false,
      "inputs": [
        {
          "indexed": false,
          "internalType": "address[]",
          "name": "users",
          "type": "address[]"
        },
        {
          "indexed": false,
          "internalType": "uint256",
          "name": "totalSweptAmount",
          "type": "uint256"
        }
      ],
      "name": "RedemptionsSwept",
      "type": "event"
    },
    {
      "anonymous": false,
      "inputs": [
        {
          "indexed": true,
          "internalType": "bytes32",
          "name": "role",
          "type": "bytes32"
        },
        {
          "indexed": true,
          "internalType": "bytes32",
          "name": "previousAdminRole",
          "type": "bytes32"
        },
        {
          "indexed": true,
          "internalType": "bytes32",
          "name": "newAdminRole",
          "type": "bytes32"
        }
      ],
      "name": "RoleAdminChanged",
      "type": "event"
    },
    {
      "anonymous": false,
      "inputs": [
        {
          "indexed": true,
          "internalType": "bytes32",
          "name": "role",
          "type": "bytes32"
        },
        {
          "indexed": true,
          "internalType": "address",
          "name": "account",
          "type": "address"
        },
        {
          "indexed": true,
          "internalType": "address",
          "name": "sender",
          "type": "address"
        }
      ],
      "name": "RoleGranted",
      "type": "event"
    },
    {
      "anonymous": false,
      "inputs": [
        {
          "indexed": true,
          "internalType": "bytes32",
          "name": "role",
          "type": "bytes32"
        },
        {
          "indexed": true,
          "internalType": "address",
          "name": "account",
          "type": "address"
        },
        {
          "indexed": true,
          "internalType": "address",
          "name": "sender",
          "type": "address"
        }
      ],
      "name": "RoleRevoked",
      "type": "event"
    },
    {
      "anonymous": false,
      "inputs": [
        {
          "indexed": true,
          "internalType": "address",
          "name": "implementation",
          "type": "address"
        }
      ],
      "name": "Upgraded",
      "type": "event"
    },
    {
      "inputs": [],
      "name": "DEFAULT_ADMIN_ROLE",
      "outputs": [
        {
          "internalType": "bytes32",
          "name": "",
          "type": "bytes32"
        }
      ],
      "stateMutability": "view",
      "type": "function"
    },
    {
      "inputs": [],
      "name": "KEEPER_ROLE",
      "outputs": [
        {
          "internalType": "bytes32",
          "name": "",
          "type": "bytes32"
        }
      ],
      "stateMutability": "view",
      "type": "function"
    },
    {
      "inputs": [],
      "name": "UPGRADE_INTERFACE_VERSION",
      "outputs": [
        {
          "internalType": "string",
          "name": "",
          "type": "string"
        }
      ],
      "stateMutability": "view",
      "type": "function"
    },
    {
      "inputs": [],
      "name": "acceptOwnership",
      "outputs": [],
      "stateMutability": "nonpayable",
      "type": "function"
    },
    {
      "inputs": [],
      "name": "amlSigner",
      "outputs": [
        {
          "internalType": "address",
          "name": "",
          "type": "address"
        }
      ],
      "stateMutability": "view",
      "type": "function"
    },
    {
      "inputs": [],
      "name": "asset",
      "outputs": [
        {
          "internalType": "contract IERC20",
          "name": "",
          "type": "address"
        }
      ],
      "stateMutability": "view",
      "type": "function"
    },
    {
      "inputs": [],
      "name": "assetVault",
      "outputs": [
        {
          "internalType": "contract IERC4626",
          "name": "",
          "type": "address"
        }
      ],
      "stateMutability": "view",
      "type": "function"
    },
    {
      "inputs": [
        {
          "internalType": "uint256",
          "name": "_amount",
          "type": "uint256"
        },
        {
          "internalType": "address",
          "name": "_receiver",
          "type": "address"
        },
        {
          "internalType": "uint256",
          "name": "_minVaultSharesOut",
          "type": "uint256"
        },
        {
          "internalType": "uint256",
          "name": "_minStakingVaultSharesOut",
          "type": "uint256"
        },
        {
          "internalType": "uint256",
          "name": "_minNuvaVaultSharesOut",
          "type": "uint256"
        },
        {
          "internalType": "bytes",
          "name": "_amlSignature",
          "type": "bytes"
        },
        {
          "internalType": "uint256",
          "name": "_amlDeadline",
          "type": "uint256"
        }
      ],
      "name": "deposit",
      "outputs": [
        {
          "internalType": "uint256",
          "name": "nuvaShares",
          "type": "uint256"
        }
      ],
      "stateMutability": "nonpayable",
      "type": "function"
    },
    {
      "inputs": [
        {
          "internalType": "uint256",
          "name": "_amount",
          "type": "uint256"
        },
        {
          "internalType": "address",
          "name": "_receiver",
          "type": "address"
        },
        {
          "internalType": "uint256",
          "name": "_minVaultSharesOut",
          "type": "uint256"
        },
        {
          "internalType": "uint256",
          "name": "_minStakingVaultSharesOut",
          "type": "uint256"
        },
        {
          "internalType": "uint256",
          "name": "_minNuvaVaultSharesOut",
          "type": "uint256"
        },
        {
          "internalType": "bytes",
          "name": "_amlSignature",
          "type": "bytes"
        },
        {
          "internalType": "uint256",
          "name": "_amlDeadline",
          "type": "uint256"
        },
        {
          "internalType": "uint256",
          "name": "_permitDeadline",
          "type": "uint256"
        },
        {
          "internalType": "uint8",
          "name": "_v",
          "type": "uint8"
        },
        {
          "internalType": "bytes32",
          "name": "_r",
          "type": "bytes32"
        },
        {
          "internalType": "bytes32",
          "name": "_s",
          "type": "bytes32"
        }
      ],
      "name": "depositWithPermit",
      "outputs": [
        {
          "internalType": "uint256",
          "name": "nuvaShares",
          "type": "uint256"
        }
      ],
      "stateMutability": "nonpayable",
      "type": "function"
    },
    {
      "inputs": [
        {
          "internalType": "bytes32",
          "name": "role",
          "type": "bytes32"
        }
      ],
      "name": "getRoleAdmin",
      "outputs": [
        {
          "internalType": "bytes32",
          "name": "",
          "type": "bytes32"
        }
      ],
      "stateMutability": "view",
      "type": "function"
    },
    {
      "inputs": [
        {
          "internalType": "bytes32",
          "name": "role",
          "type": "bytes32"
        },
        {
          "internalType": "address",
          "name": "account",
          "type": "address"
        }
      ],
      "name": "grantRole",
      "outputs": [],
      "stateMutability": "nonpayable",
      "type": "function"
    },
    {
      "inputs": [
        {
          "internalType": "bytes32",
          "name": "role",
          "type": "bytes32"
        },
        {
          "internalType": "address",
          "name": "account",
          "type": "address"
        }
      ],
      "name": "hasRole",
      "outputs": [
        {
          "internalType": "bool",
          "name": "",
          "type": "bool"
        }
      ],
      "stateMutability": "view",
      "type": "function"
    },
    {
      "inputs": [
        {
          "internalType": "address",
          "name": "_assetVault",
          "type": "address"
        },
        {
          "internalType": "address",
          "name": "_stakingVault",
          "type": "address"
        },
        {
          "internalType": "address",
          "name": "_nuvaVault",
          "type": "address"
        },
        {
          "internalType": "address",
          "name": "_amlSigner",
          "type": "address"
        },
        {
          "internalType": "address",
          "name": "_initialOwner",
          "type": "address"
        }
      ],
      "name": "initialize",
      "outputs": [],
      "stateMutability": "nonpayable",
      "type": "function"
    },
    {
      "inputs": [],
      "name": "isPaused",
      "outputs": [
        {
          "internalType": "bool",
          "name": "",
          "type": "bool"
        }
      ],
      "stateMutability": "view",
      "type": "function"
    },
    {
      "inputs": [],
      "name": "nuvaAsset",
      "outputs": [
        {
          "internalType": "contract IERC20",
          "name": "",
          "type": "address"
        }
      ],
      "stateMutability": "view",
      "type": "function"
    },
    {
      "inputs": [],
      "name": "nuvaVault",
      "outputs": [
        {
          "internalType": "contract IERC4626",
          "name": "",
          "type": "address"
        }
      ],
      "stateMutability": "view",
      "type": "function"
    },
    {
      "inputs": [],
      "name": "owner",
      "outputs": [
        {
          "internalType": "address",
          "name": "",
          "type": "address"
        }
      ],
      "stateMutability": "view",
      "type": "function"
    },
    {
      "inputs": [],
      "name": "pendingOwner",
      "outputs": [
        {
          "internalType": "address",
          "name": "",
          "type": "address"
        }
      ],
      "stateMutability": "view",
      "type": "function"
    },
    {
      "inputs": [],
      "name": "proxiableUUID",
      "outputs": [
        {
          "internalType": "bytes32",
          "name": "",
          "type": "bytes32"
        }
      ],
      "stateMutability": "view",
      "type": "function"
    },
    {
      "inputs": [],
      "name": "redemptionProxyImplementation",
      "outputs": [
        {
          "internalType": "address",
          "name": "",
          "type": "address"
        }
      ],
      "stateMutability": "view",
      "type": "function"
    },
    {
      "inputs": [
        {
          "internalType": "address",
          "name": "",
          "type": "address"
        }
      ],
      "name": "redemptionProxyToUser",
      "outputs": [
        {
          "internalType": "address",
          "name": "",
          "type": "address"
        }
      ],
      "stateMutability": "view",
      "type": "function"
    },
    {
      "inputs": [],
      "name": "renounceOwnership",
      "outputs": [],
      "stateMutability": "nonpayable",
      "type": "function"
    },
    {
      "inputs": [
        {
          "internalType": "bytes32",
          "name": "role",
          "type": "bytes32"
        },
        {
          "internalType": "address",
          "name": "callerConfirmation",
          "type": "address"
        }
      ],
      "name": "renounceRole",
      "outputs": [],
      "stateMutability": "nonpayable",
      "type": "function"
    },
    {
      "inputs": [
        {
          "internalType": "uint256",
          "name": "_amountNuvaShares",
          "type": "uint256"
        }
      ],
      "name": "requestRedeem",
      "outputs": [],
      "stateMutability": "nonpayable",
      "type": "function"
    },
    {
      "inputs": [
        {
          "internalType": "bytes32",
          "name": "role",
          "type": "bytes32"
        },
        {
          "internalType": "address",
          "name": "account",
          "type": "address"
        }
      ],
      "name": "revokeRole",
      "outputs": [],
      "stateMutability": "nonpayable",
      "type": "function"
    },
    {
      "inputs": [
        {
          "internalType": "address",
          "name": "_newAmlSigner",
          "type": "address"
        }
      ],
      "name": "setAmlSigner",
      "outputs": [],
      "stateMutability": "nonpayable",
      "type": "function"
    },
    {
      "inputs": [
        {
          "internalType": "address",
          "name": "_newImplementation",
          "type": "address"
        }
      ],
      "name": "setRedemptionProxyImplementation",
      "outputs": [],
      "stateMutability": "nonpayable",
      "type": "function"
    },
    {
      "inputs": [],
      "name": "stakingAsset",
      "outputs": [
        {
          "internalType": "contract IERC20",
          "name": "",
          "type": "address"
        }
      ],
      "stateMutability": "view",
      "type": "function"
    },
    {
      "inputs": [],
      "name": "stakingVault",
      "outputs": [
        {
          "internalType": "contract IERC4626",
          "name": "",
          "type": "address"
        }
      ],
      "stateMutability": "view",
      "type": "function"
    },
    {
      "inputs": [
        {
          "internalType": "bytes4",
          "name": "interfaceId",
          "type": "bytes4"
        }
      ],
      "name": "supportsInterface",
      "outputs": [
        {
          "internalType": "bool",
          "name": "",
          "type": "bool"
        }
      ],
      "stateMutability": "view",
      "type": "function"
    },
    {
      "inputs": [
        {
          "internalType": "address[]",
          "name": "_proxyAddresses",
          "type": "address[]"
        },
        {
          "internalType": "uint256[]",
          "name": "_amounts",
          "type": "uint256[]"
        }
      ],
      "name": "sweepRedemptions",
      "outputs": [],
      "stateMutability": "nonpayable",
      "type": "function"
    },
    {
      "inputs": [],
      "name": "togglePause",
      "outputs": [],
      "stateMutability": "nonpayable",
      "type": "function"
    },
    {
      "inputs": [
        {
          "internalType": "address",
          "name": "newOwner",
          "type": "address"
        }
      ],
      "name": "transferOwnership",
      "outputs": [],
      "stateMutability": "nonpayable",
      "type": "function"
    },
    {
      "inputs": [
        {
          "internalType": "address",
          "name": "newImplementation",
          "type": "address"
        },
        {
          "internalType": "bytes",
          "name": "data",
          "type": "bytes"
        }
      ],
      "name": "upgradeToAndCall",
      "outputs": [],
      "stateMutability": "payable",
      "type": "function"
    },
    {
      "inputs": [
        {
          "internalType": "bytes32",
          "name": "",
          "type": "bytes32"
        }
      ],
      "name": "usedSignatures",
      "outputs": [
        {
          "internalType": "bool",
          "name": "",
          "type": "bool"
        }
      ],
      "stateMutability": "view",
      "type": "function"
    }
  ],
  "bytecode": "0x60a080604052346100ea57306080527ff0c57e16840df040f15088dc2f81fe391c3923bec73e23a9662efc9c229c6a005460ff8160401c166100d9576002600160401b03196001600160401b03821601610073575b60405161270190816100f08239608051818181610dd40152610e7a0152f35b6001600160401b0319166001600160401b039081177ff0c57e16840df040f15088dc2f81fe391c3923bec73e23a9662efc9c229c6a005581527fc7f505b2f371ae2175ee4913f4499e1f2633a7b5936321eed1cdaeb6115181d290602090a13880610054565b63f92ee8a960e01b60005260046000fd5b600080fdfe6080604052600436101561001257600080fd5b6000803560e01c80628e6a65146115b757806301ffc9a7146115605780631459457a1461118c578063248a9ca31461116557806324e7964a1461113c5780632f2ff15d1461110a5780633180bab6146110e1578063364bc15a146110b857806336568abe1461107357806338d52e0f1461104a5780634f1ef28614610e2957806352d1902d14610dc15780635907256814610d805780636147da5614610d57578063632a826314610d2e5780636da50e3314610cab578063715018a614610c2a5780637776768f14610c0157806379ba509714610bb05780638da5cb5b14610b7a57806391d1485414610b24578063a217fddf14610b08578063aa2f892d146107fc578063ad3cb1cc14610782578063b187bd261461075f578063be5afe1614610656578063bf7bd6e2146103da578063c4ae3168146103ab578063d547741f14610370578063dace1a8d14610347578063e30c397814610311578063f2fde38b14610289578063f30a8db4146101f5578063f61ebc36146101ce5763f978fd611461019d57600080fd5b346101cb5760203660031901126101cb5760ff60406020926004358152600984522054166040519015158152f35b80fd5b50346101cb57806003193601126101cb57546040516001600160a01b039091168152602090f35b50346101cb5760e03660031901126101cb57600435610212611650565b60443590606435926084359460a4359067ffffffffffffffff82116101cb57602061026f888888888861026a61024b3660048c016116f1565b60c43591610257611b5b565b610265838a8a8a8a8a611c96565b611d0b565b611e64565b600160008051602061269583398151915255604051908152f35b50346101cb5760203660031901126101cb576102a361163a565b6102ab6117b6565b6000805160206126d583398151915280546001600160a01b0319166001600160a01b03928316908117909155600080516020612615833981519152549091167f38d16b8cac22d99fc7c124b9cd0de2d3fa1faef420bfe791d8c362d765e227008380a380f35b50346101cb57806003193601126101cb576000805160206126d5833981519152546040516001600160a01b039091168152602090f35b50346101cb57806003193601126101cb576004546040516001600160a01b039091168152602090f35b50346101cb5760403660031901126101cb576103a7600435610390611650565b906103a261039d8261176f565b611a03565b611a4d565b5080f35b50346101cb57806003193601126101cb576103c46117b6565b60325460ff80821615169060ff19161760325580f35b50346101cb5760403660031901126101cb5760043567ffffffffffffffff81116106525761040c90369060040161171f565b9060243567ffffffffffffffff811161064e5761042d90369060040161171f565b600080516020612635833981519152855260008051602061267583398151915260209081526040808720336000908152925290205460ff1615610629576007546001600160a01b03161561061a5780840361060b578491855b85811061050d57505050604051928060408501604086525260608401929085905b8082106104df57867fb9406f44634c6228db9e8d145e4f5159e884b069bd28d9763e76817e2110ed968780888860208301520390a180f35b90919384359060018060a01b038216809203610509576020816001938293520195019201906104a7565b8780fd5b610518818787611790565b356001600160a01b038116949085900361050957610537828585611790565b858952600860205260408920549035906001600160a01b031615610600576040519063aa60e73360e01b825260048201526020816024818c8a5af19081156105f55789916105c2575b5081018091116105ae5793875260086020526040872080546001600160a01b03191690556001905b01610486565b634e487b7160e01b88526011600452602488fd5b905060203d81116105ee575b6105d88183611666565b602082600092810103126101cb57505138610580565b503d6105ce565b6040513d8b823e3d90fd5b5093506001906105a8565b63512509d360e11b8552600485fd5b63c291c21760e01b8552600485fd5b63e2517d3f60e01b855233600452600080516020612635833981519152602452604485fd5b8380fd5b5080fd5b50346101cb576101603660031901126101cb57600435610674611650565b60443590606435926084359460a43567ffffffffffffffff8111610652576106a09036906004016116f1565b60c43590610104359260ff841680940361075b57906106d092916106c2611b5b565b610265838c8c8c8c8c611c96565b6001546001600160a01b031690813b1561075757829160e48392604051948593849263d505accf60e01b84523360048501523060248501528960448501528435606485015260848401526101243560a48401526101443560c48401525af1610742575b602061026f8888888888611e64565b61074d828092611666565b6101cb5780610733565b8280fd5b8480fd5b50346101cb57806003193601126101cb57602060ff603254166040519015158152f35b50346101cb57806003193601126101cb5760408051916107a28284611666565b60058352640352e302e360dc1b6020840152815192839160208352815191826020850152815b8381106107e5575050828201840152601f01601f19168101030190f35b6020828201810151888301880152879550016107c8565b50346101cb5760203660031901126101cb57600435610819611b5b565b6024602060018060a01b0360045416604051928380926370a0823160e01b82523060048301525afa908115610afd578391610acb575b506007546001600160a01b03811615610abc57608881901c62ffffff16763d602d80600a3d3981f3363d3d373d3d3d363d7300000017845260781b6effffffffffffffffffffffffffffff19166e5af43d82803e903d91602b57fd5bf3176020526037600984f06001600160a01b03811692908315610aad5784546002546004546001600160a01b03928316929081169116863b156105095760405192637c643b2f60e11b8452600484015260248301526044820152336064820152858160848183895af18015610aa257610a86575b509061094e81869361093d82303360018060a01b0360045416611b97565b6004546001600160a01b0316611be2565b833b15610652576040519062d16aad60e01b82526004820152818160248183885af18015610a7b57610a66575b50506024602060018060a01b0360045416604051928380926370a0823160e01b82523060048301525afa908115610a5b578491610a24575b5011610a1057808252600860205260408220336001600160601b0360a01b825416179055337e45309ccbff29fb81c8c5fc824405446ca8ac332fd6ae375251ba54005c1fef8380a360016000805160206126958339815191525580f35b63eac1efd960e01b82526001600452602482fd5b90506020813d602011610a53575b81610a3f60209383611666565b81010312610a4e5751386109b3565b600080fd5b3d9150610a32565b6040513d86823e3d90fd5b81610a7091611666565b61075757823861097b565b6040513d84823e3d90fd5b85610a98849761094e93959495611666565b955091909161091f565b6040513d88823e3d90fd5b63b06ebf3d60e01b8552600485fd5b63c291c21760e01b8452600484fd5b90506020813d602011610af5575b81610ae660209383611666565b8101031261075757513861084f565b3d9150610ad9565b6040513d85823e3d90fd5b50346101cb57806003193601126101cb57602090604051908152f35b50346101cb5760403660031901126101cb5760ff6040602092610b45611650565b600435825260008051602061267583398151915285528282206001600160a01b03909116825284522054604051911615158152f35b50346101cb57806003193601126101cb57600080516020612615833981519152546040516001600160a01b039091168152602090f35b50346101cb57806003193601126101cb576000805160206126d583398151915254336001600160a01b0390911603610bee57610beb33611aed565b80f35b63118cdaa760e01b815233600452602490fd5b50346101cb57806003193601126101cb576003546040516001600160a01b039091168152602090f35b50346101cb57806003193601126101cb57610c436117b6565b6000805160206126d583398151915280546001600160a01b03199081169091556000805160206126158339815191528054918216905581906001600160a01b03167f8be0079c531659141344cd1fd0a4f28419497f9722a3daafe3b4186f6b6457e08280a380f35b50346101cb5760203660031901126101cb57610cc561163a565b610ccd6117b6565b6001600160a01b03168015610d1f57600754816001600160a01b0382167fd1eea419b2c4a2e74ab6fe1d5e7ea7027d4f646f83efbdd0cb293813187fb6468580a36001600160a01b0319161760075580f35b63c291c21760e01b8252600482fd5b50346101cb57806003193601126101cb576005546040516001600160a01b039091168152602090f35b50346101cb57806003193601126101cb576006546040516001600160a01b039091168152602090f35b50346101cb5760203660031901126101cb576020906001600160a01b03610da561163a565b16815260088252604060018060a01b0391205416604051908152f35b50346101cb57806003193601126101cb577f00000000000000000000000000000000000000000000000000000000000000006001600160a01b03163003610e1a5760206040516000805160206126558339815191528152f35b63703e46dd60e11b8152600490fd5b5060403660031901126101cb57610e3e61163a565b9060243567ffffffffffffffff8111610652573660238201121561065257610e709036906024816004013591016116ba565b6001600160a01b037f000000000000000000000000000000000000000000000000000000000000000016308114908115611027575b5061101857610eb26117b6565b6040516352d1902d60e01b8152926001600160a01b0381169190602085600481865afa80958596610fe4575b50610ef757634c9c8ce360e01b84526004839052602484fd5b9091846000805160206126558339815191528103610fd25750813b15610fc05760008051602061265583398151915280546001600160a01b031916821790557fbc7cd75a20ee27fd9adebab32041f755214dbc6bffa90cc0225b39da2e5c2d3b8480a28151839015610fa657808360206103a795519101845af43d15610f9e573d91610f828361169e565b92610f906040519485611666565b83523d85602085013e61252a565b60609161252a565b50505034610fb15780f35b63b398979f60e01b8152600490fd5b634c9c8ce360e01b8452600452602483fd5b632a87526960e21b8552600452602484fd5b9095506020813d602011611010575b8161100060209383611666565b8101031261075b57519438610ede565b3d9150610ff3565b63703e46dd60e11b8252600482fd5b600080516020612655833981519152546001600160a01b03161415905038610ea5565b50346101cb57806003193601126101cb576001546040516001600160a01b039091168152602090f35b50346101cb5760403660031901126101cb5761108d611650565b336001600160a01b038216036110a9576103a790600435611a4d565b63334bd91960e11b8252600482fd5b50346101cb57806003193601126101cb5760206040516000805160206126358339815191528152f35b50346101cb57806003193601126101cb576007546040516001600160a01b039091168152602090f35b50346101cb5760403660031901126101cb576103a760043561112a611650565b9061113761039d8261176f565b61195a565b50346101cb57806003193601126101cb576002546040516001600160a01b039091168152602090f35b50346101cb5760203660031901126101cb57602061118460043561176f565b604051908152f35b50346101cb5760a03660031901126101cb576111a661163a565b6111ae611650565b6044356001600160a01b0381169081900361064e576064356001600160a01b038116929083900361075b576084356001600160a01b038116949085810361155c576000805160206126b5833981519152549560ff8760401c16159667ffffffffffffffff811680159081611554575b600114908161154a575b159081611541575b506115325767ffffffffffffffff1981166001176000805160206126b58339815191525587611505575b506112626123dd565b156114f157806112746112b592611aed565b61127c6123dd565b6112846123dd565b61128c6123dd565b6112946123dd565b6001600080516020612695833981519152556112af816117ec565b5061189e565b506001600160a01b0316801580156114e0575b80156114d8575b6114c95783156114ba5785546001600160a01b031916811786556040516338d52e0f60e01b815290602090829060049082905afa918215610aa257600492602092889161149d575b50600180546001600160a01b039283166001600160a01b03199182161790915560028054939092169216821790556040516338d52e0f60e01b815292839182905afa918215611492576004926020928791611475575b50600380546001600160a01b03929092166001600160a01b0319928316179055835416811783556040516338d52e0f60e01b815292839182905afa908115610a5b578491611446575b5060018060a01b03166001600160601b0360a01b60055416176005556001600160601b0360a01b60065416176006556113ec5780f35b68ff0000000000000000196000805160206126b583398151915254166000805160206126b5833981519152557fc7f505b2f371ae2175ee4913f4499e1f2633a7b5936321eed1cdaeb6115181d2602060405160018152a180f35b611468915060203d60201161146e575b6114608183611666565b810190611750565b386113b6565b503d611456565b61148c9150833d851161146e576114608183611666565b3861136d565b6040513d87823e3d90fd5b6114b49150833d851161146e576114608183611666565b38611317565b63d1cc738560e01b8652600486fd5b630681d31960e51b8652600486fd5b5082156112cf565b506001600160a01b038216156112c8565b631e4fbdf760e01b87526004879052602487fd5b68ffffffffffffffffff191668010000000000000001176000805160206126b58339815191525538611259565b63f92ee8a960e01b8952600489fd5b9050153861122f565b303b159150611227565b89915061121d565b8680fd5b50346101cb5760203660031901126101cb5760043563ffffffff60e01b811680910361065257602090637965db0b60e01b81149081156115a6575b506040519015158152f35b6301ffc9a760e01b1490508261159b565b50346101cb5760203660031901126101cb576115d161163a565b6115d96117b6565b6001600160a01b0316801561162b57600654816001600160a01b0382167f7f7b46c0c664af2835dffe8b8e5c1ddbfcef63f608af5bbf2836a2b29a88fcb08580a36001600160a01b0319161760065580f35b63d1cc738560e01b8252600482fd5b600435906001600160a01b0382168203610a4e57565b602435906001600160a01b0382168203610a4e57565b90601f8019910116810190811067ffffffffffffffff82111761168857604052565b634e487b7160e01b600052604160045260246000fd5b67ffffffffffffffff811161168857601f01601f191660200190565b9291926116c68261169e565b916116d46040519384611666565b829481845281830111610a4e578281602093846000960137010152565b9181601f84011215610a4e5782359167ffffffffffffffff8311610a4e5760208381860195010111610a4e57565b9181601f84011215610a4e5782359167ffffffffffffffff8311610a4e576020808501948460051b010111610a4e57565b90816020910312610a4e57516001600160a01b0381168103610a4e5790565b60005260008051602061267583398151915260205260016040600020015490565b91908110156117a05760051b0190565b634e487b7160e01b600052603260045260246000fd5b600080516020612615833981519152546001600160a01b031633036117d757565b63118cdaa760e01b6000523360045260246000fd5b6001600160a01b03811660009081527fb7db2dd08fcb62d0c9e08c51941cae53c267786a0b75803fb7960902fc8ef97d602052604090205460ff16611898576001600160a01b031660008181527fb7db2dd08fcb62d0c9e08c51941cae53c267786a0b75803fb7960902fc8ef97d60205260408120805460ff191660011790553391907f2f8788117e7eff1d82e926ec794901d17c78024a50270940304540a733656f0d8180a4600190565b50600090565b6001600160a01b03811660009081527fe4a823086f56383dde6966cefd1253771599ebb2bfb3e60c37e64b5a68896bea602052604090205460ff16611898576001600160a01b031660008181527fe4a823086f56383dde6966cefd1253771599ebb2bfb3e60c37e64b5a68896bea60205260408120805460ff19166001179055339190600080516020612635833981519152907f2f8788117e7eff1d82e926ec794901d17c78024a50270940304540a733656f0d9080a4600190565b6000818152600080516020612675833981519152602090815260408083206001600160a01b038616845290915290205460ff166119fc576000818152600080516020612675833981519152602090815260408083206001600160a01b0395909516808452949091528120805460ff19166001179055339291907f2f8788117e7eff1d82e926ec794901d17c78024a50270940304540a733656f0d9080a4600190565b5050600090565b60008181526000805160206126758339815191526020908152604080832033845290915290205460ff1615611a355750565b63e2517d3f60e01b6000523360045260245260446000fd5b6000818152600080516020612675833981519152602090815260408083206001600160a01b038616845290915290205460ff16156119fc576000818152600080516020612675833981519152602090815260408083206001600160a01b0395909516808452949091528120805460ff19169055339291907ff6391f5c32d9c69d2a47ea670b442974b53935d1edc7fd64eb21e047a839171b9080a4600190565b6000805160206126d583398151915280546001600160a01b031990811690915560008051602061261583398151915280549182166001600160a01b0393841690811790915591167f8be0079c531659141344cd1fd0a4f28419497f9722a3daafe3b4186f6b6457e0600080a3565b60026000805160206126958339815191525414611b8657600260008051602061269583398151915255565b633ee5aeb560e01b60005260046000fd5b6040516323b872dd60e01b60208201526001600160a01b039283166024820152929091166044830152606480830193909352918152611be091611bdb608483611666565b61240b565b565b60206000604051938285019063095ea7b360e01b825260018060a01b031695866024870152604486015260448552611c1b606486611666565b84519082855af16000513d82611c71575b505015611c3857505050565b611bdb611be0936040519063095ea7b360e01b602083015260248201526000604482015260448152611c6b606482611666565b8261240b565b909150611c8e57506001600160a01b0381163b15155b3880611c2c565b600114611c87565b94929093916040519460208601967f825e4a0c6c1347448cb0506a6696bb6a0812431f15c82ace3f8cd1ed0da3829e8852336040880152606087015260018060a01b0316608086015260a085015260c084015260e08301526101008201526101008152611d0561012082611666565b51902090565b9190924211611e535781600052600960205260ff60406000205416611e4257611dfb611e0491611df56040956042601460208951611d498b82611666565b82815201732232b234b1b0ba32b22b30bab63a2937baba32b960611b815220600160208a51611d788c82611666565b82815201603160f81b81522089519060208201927f8b73c3c69bb8fe3d512ecc4cf759cc79239f7b179b0ffacaa9a75d522b39400f84528b83015260608201524660808201523060a082015260a08152611dd360c082611666565b51902088519061190160f01b82526002820152876022820152209236916116ba565b90612466565b909291926124a2565b6006546001600160a01b03908116911603611e31576000526009602052600020600160ff19825416179055565b638bb79cad60e01b60005260046000fd5b63e544c62f60e01b60005260046000fd5b63288a076f60e21b60005260046000fd5b6001546040516370a0823160e01b8152306004820152959695929493926001600160a01b0390911690602081602481855afa80156121ec576000906123aa575b6003546040516370a0823160e01b81523060048201529250602090839060249082906001600160a01b03165afa9182156121ec57600092612376575b506005546040516370a0823160e01b815230600482015290602090829060249082906001600160a01b03165afa9384156121ec57859160009561233d575b5090611f2d9130903390611b97565b600154600054611f4b9186916001600160a01b039081169116611be2565b60008054604051636e553f6560e01b815260048101879052306024820152969160209188916044918391906001600160a01b03165af19586156121ec57600096612309575b508086106121f857506001546040516370a0823160e01b815230600482015290602090829060249082906001600160a01b03165afa9081156121ec576000916122d7575b50116122c157600354600254611ff89186916001600160a01b039081169116611be2565b600254604051636e553f6560e01b8152600481018690523060248201529590602090879060449082906000906001600160a01b03165af19586156121ec5760009661228d575b508086106121f857506003546040516370a0823160e01b815230600482015290602090829060249082906001600160a01b03165afa9081156121ec5760009161225b575b5011612245576005546004546000966020926120eb926120b09189916001600160a01b039081169116611be2565b60048054604051636e553f6560e01b81529182018990526001600160a01b039283166024830152909889939190921691839182906044820190565b03925af19485156121ec57600095612211575b5084968086106121f857506005546040516370a0823160e01b815230600482015290602090829060249082906001600160a01b03165afa9081156121ec576000916121ba575b50116121a4576040518381528460208201527fe3b53cd1a44fbf11535e145d80b8ef1ed6d57a73bf5daa7e939b6b01657d654960403392a4337f25ce8023f13f06ca0d767e94c9b8af89bb3acb2ccb35720e79a7fa12cacdc0ae600080a4565b63eac1efd960e01b600052600360045260246000fd5b90506020813d6020116121e4575b816121d560209383611666565b81010312610a4e575138612144565b3d91506121c8565b6040513d6000823e3d90fd5b85906371c4efed60e01b60005260045260245260446000fd5b90946020823d60201161223d575b8161222c60209383611666565b810103126101cb57505193386120fe565b3d915061221f565b63eac1efd960e01b600052600260045260246000fd5b90506020813d602011612285575b8161227660209383611666565b81010312610a4e575138612082565b3d9150612269565b90956020823d6020116122b9575b816122a860209383611666565b810103126101cb575051943861203e565b3d915061229b565b63eac1efd960e01b600052600160045260246000fd5b90506020813d602011612301575b816122f260209383611666565b81010312610a4e575138611fd4565b3d91506122e5565b90956020823d602011612335575b8161232460209383611666565b810103126101cb5750519438611f90565b3d9150612317565b915093506020813d60201161236e575b8161235a60209383611666565b81010312610a4e5751928490611f2d611f1e565b3d915061234d565b9091506020813d6020116123a2575b8161239260209383611666565b81010312610a4e57519038611ee0565b3d9150612385565b506020813d6020116123d5575b816123c460209383611666565b81010312610a4e5760249051611ea4565b3d91506123b7565b60ff6000805160206126b58339815191525460401c16156123fa57565b631afcd79f60e31b60005260046000fd5b906000602091828151910182855af1156121ec576000513d61245d57506001600160a01b0381163b155b61243c5750565b635274afe760e01b60009081526001600160a01b0391909116600452602490fd5b60011415612435565b81519190604183036124975761249092506020820151906060604084015193015160001a9061258b565b9192909190565b505060009160029190565b919091600481101561251457806124b857509050565b6000600182036124d35763f645eedf60e01b60005260046000fd5b50600281036124f1578263fce698f760e01b60005260045260246000fd5b9091600360009214612501575050565b6335e2f38360e21b825260045260249150fd5b634e487b7160e01b600052602160045260246000fd5b90612550575080511561253f57602081519101fd5b63d6bda27560e01b60005260046000fd5b81511580612582575b612561575090565b639996b31560e01b60009081526001600160a01b0391909116600452602490fd5b50803b15612559565b91907f7fffffffffffffffffffffffffffffff5d576e7357a4501ddfe92f46681b20a08411612608579160209360809260ff60009560405194855216868401526040830152606082015282805260015afa156121ec576000516001600160a01b038116156125fc5790600090600090565b50600090600190600090565b5050506000916003919056fe9016d09d72d40fdae2fd8ceac6b6234c7706214fd39c1cd1e609a0528c199300fc8737ab85eb45125971625a9ebdb75cc78e01d5c1fa80c4c6e5203f47bc4fab360894a13ba1a3210667c828492db98dca3e2076cc3735a920a3ca505d382bbc02dd7bc7dec4dceedda775e58dd541e08a116c6c53815c0bd028192f7b6268009b779b17422d0df92223018b32b4d1fa46e071723d6817e2486d003becc55f00f0c57e16840df040f15088dc2f81fe391c3923bec73e23a9662efc9c229c6a00237e158222e3e6968b72b9db0d8043aacf074ad9f650f0d1606b4d82ee432c00a164736f6c634300081c000a",
  "linkReferences": {},
  "deployedLinkReferences": {}
}