{
  "_format": "hh-sol-artifact-1",
  "contractName": "DedicatedVaultRouterV2",
  "sourceName": "contracts/prime/mocks/DedicatedVaultRouterV2.sol",
  "abi": [
    {
      "inputs": [
        {
          "internalType": "address",
          "name": "target",
          "type": "address"
        }
      ],
      "name": "AddressEmptyCode",
      "type": "error"
    },
    {
      "inputs": [],
      "name": "AmlSignatureAlreadyUsed",
      "type": "error"
    },
    {
      "inputs": [],
      "name": "AmlSignatureExpired",
      "type": "error"
    },
    {
      "inputs": [],
      "name": "ECDSAInvalidSignature",
      "type": "error"
    },
    {
      "inputs": [
        {
          "internalType": "uint256",
          "name": "length",
          "type": "uint256"
        }
      ],
      "name": "ECDSAInvalidSignatureLength",
      "type": "error"
    },
    {
      "inputs": [
        {
          "internalType": "bytes32",
          "name": "s",
          "type": "bytes32"
        }
      ],
      "name": "ECDSAInvalidSignatureS",
      "type": "error"
    },
    {
      "inputs": [
        {
          "internalType": "address",
          "name": "implementation",
          "type": "address"
        }
      ],
      "name": "ERC1967InvalidImplementation",
      "type": "error"
    },
    {
      "inputs": [],
      "name": "ERC1967NonPayable",
      "type": "error"
    },
    {
      "inputs": [],
      "name": "FailedCall",
      "type": "error"
    },
    {
      "inputs": [
        {
          "internalType": "uint256",
          "name": "amount",
          "type": "uint256"
        }
      ],
      "name": "FundsStuck",
      "type": "error"
    },
    {
      "inputs": [],
      "name": "InvalidAmlSignature",
      "type": "error"
    },
    {
      "inputs": [],
      "name": "InvalidAmlSigner",
      "type": "error"
    },
    {
      "inputs": [],
      "name": "InvalidInitialization",
      "type": "error"
    },
    {
      "inputs": [],
      "name": "InvalidVault",
      "type": "error"
    },
    {
      "inputs": [],
      "name": "NotInitializing",
      "type": "error"
    },
    {
      "inputs": [
        {
          "internalType": "address",
          "name": "owner",
          "type": "address"
        }
      ],
      "name": "OwnableInvalidOwner",
      "type": "error"
    },
    {
      "inputs": [
        {
          "internalType": "address",
          "name": "account",
          "type": "address"
        }
      ],
      "name": "OwnableUnauthorizedAccount",
      "type": "error"
    },
    {
      "inputs": [],
      "name": "ReentrancyGuardReentrantCall",
      "type": "error"
    },
    {
      "inputs": [
        {
          "internalType": "address",
          "name": "token",
          "type": "address"
        }
      ],
      "name": "SafeERC20FailedOperation",
      "type": "error"
    },
    {
      "inputs": [
        {
          "internalType": "uint256",
          "name": "minShares",
          "type": "uint256"
        },
        {
          "internalType": "uint256",
          "name": "actualShares",
          "type": "uint256"
        }
      ],
      "name": "SlippageExceeded",
      "type": "error"
    },
    {
      "inputs": [],
      "name": "UUPSUnauthorizedCallContext",
      "type": "error"
    },
    {
      "inputs": [
        {
          "internalType": "bytes32",
          "name": "slot",
          "type": "bytes32"
        }
      ],
      "name": "UUPSUnsupportedProxiableUUID",
      "type": "error"
    },
    {
      "anonymous": false,
      "inputs": [
        {
          "indexed": true,
          "internalType": "address",
          "name": "oldSigner",
          "type": "address"
        },
        {
          "indexed": true,
          "internalType": "address",
          "name": "newSigner",
          "type": "address"
        }
      ],
      "name": "AmlSignerUpdated",
      "type": "event"
    },
    {
      "anonymous": false,
      "inputs": [
        {
          "indexed": true,
          "internalType": "address",
          "name": "user",
          "type": "address"
        },
        {
          "indexed": false,
          "internalType": "uint256",
          "name": "assets",
          "type": "uint256"
        },
        {
          "indexed": false,
          "internalType": "uint256",
          "name": "shares",
          "type": "uint256"
        },
        {
          "indexed": false,
          "internalType": "uint256",
          "name": "stakingShares",
          "type": "uint256"
        }
      ],
      "name": "Deposited",
      "type": "event"
    },
    {
      "anonymous": false,
      "inputs": [
        {
          "indexed": false,
          "internalType": "uint64",
          "name": "version",
          "type": "uint64"
        }
      ],
      "name": "Initialized",
      "type": "event"
    },
    {
      "anonymous": false,
      "inputs": [
        {
          "indexed": true,
          "internalType": "address",
          "name": "previousOwner",
          "type": "address"
        },
        {
          "indexed": true,
          "internalType": "address",
          "name": "newOwner",
          "type": "address"
        }
      ],
      "name": "OwnershipTransferStarted",
      "type": "event"
    },
    {
      "anonymous": false,
      "inputs": [
        {
          "indexed": true,
          "internalType": "address",
          "name": "previousOwner",
          "type": "address"
        },
        {
          "indexed": true,
          "internalType": "address",
          "name": "newOwner",
          "type": "address"
        }
      ],
      "name": "OwnershipTransferred",
      "type": "event"
    },
    {
      "anonymous": false,
      "inputs": [
        {
          "indexed": true,
          "internalType": "address",
          "name": "implementation",
          "type": "address"
        }
      ],
      "name": "Upgraded",
      "type": "event"
    },
    {
      "inputs": [],
      "name": "UPGRADE_INTERFACE_VERSION",
      "outputs": [
        {
          "internalType": "string",
          "name": "",
          "type": "string"
        }
      ],
      "stateMutability": "view",
      "type": "function"
    },
    {
      "inputs": [],
      "name": "acceptOwnership",
      "outputs": [],
      "stateMutability": "nonpayable",
      "type": "function"
    },
    {
      "inputs": [],
      "name": "amlSigner",
      "outputs": [
        {
          "internalType": "address",
          "name": "",
          "type": "address"
        }
      ],
      "stateMutability": "view",
      "type": "function"
    },
    {
      "inputs": [],
      "name": "asset",
      "outputs": [
        {
          "internalType": "contract IERC20",
          "name": "",
          "type": "address"
        }
      ],
      "stateMutability": "view",
      "type": "function"
    },
    {
      "inputs": [],
      "name": "assetVault",
      "outputs": [
        {
          "internalType": "contract IERC4626",
          "name": "",
          "type": "address"
        }
      ],
      "stateMutability": "view",
      "type": "function"
    },
    {
      "inputs": [
        {
          "internalType": "uint256",
          "name": "_amount",
          "type": "uint256"
        },
        {
          "internalType": "address",
          "name": "_receiver",
          "type": "address"
        },
        {
          "internalType": "uint256",
          "name": "_minVaultSharesOut",
          "type": "uint256"
        },
        {
          "internalType": "uint256",
          "name": "_minStakingVaultSharesOut",
          "type": "uint256"
        },
        {
          "internalType": "bytes",
          "name": "_amlSignature",
          "type": "bytes"
        },
        {
          "internalType": "uint256",
          "name": "_amlDeadline",
          "type": "uint256"
        }
      ],
      "name": "deposit",
      "outputs": [
        {
          "internalType": "uint256",
          "name": "",
          "type": "uint256"
        }
      ],
      "stateMutability": "nonpayable",
      "type": "function"
    },
    {
      "inputs": [
        {
          "internalType": "uint256",
          "name": "_amount",
          "type": "uint256"
        },
        {
          "internalType": "address",
          "name": "_receiver",
          "type": "address"
        },
        {
          "internalType": "uint256",
          "name": "_minVaultSharesOut",
          "type": "uint256"
        },
        {
          "internalType": "uint256",
          "name": "_minStakingVaultSharesOut",
          "type": "uint256"
        },
        {
          "internalType": "bytes",
          "name": "_amlSignature",
          "type": "bytes"
        },
        {
          "internalType": "uint256",
          "name": "_amlDeadline",
          "type": "uint256"
        },
        {
          "internalType": "uint256",
          "name": "_permitDeadline",
          "type": "uint256"
        },
        {
          "internalType": "uint8",
          "name": "_v",
          "type": "uint8"
        },
        {
          "internalType": "bytes32",
          "name": "_r",
          "type": "bytes32"
        },
        {
          "internalType": "bytes32",
          "name": "_s",
          "type": "bytes32"
        }
      ],
      "name": "depositWithPermit",
      "outputs": [
        {
          "internalType": "uint256",
          "name": "",
          "type": "uint256"
        }
      ],
      "stateMutability": "nonpayable",
      "type": "function"
    },
    {
      "inputs": [
        {
          "internalType": "address",
          "name": "_assetVault",
          "type": "address"
        },
        {
          "internalType": "address",
          "name": "_stakingVault",
          "type": "address"
        },
        {
          "internalType": "address",
          "name": "_amlSigner",
          "type": "address"
        },
        {
          "internalType": "address",
          "name": "_initialOwner",
          "type": "address"
        }
      ],
      "name": "initialize",
      "outputs": [],
      "stateMutability": "nonpayable",
      "type": "function"
    },
    {
      "inputs": [],
      "name": "isPaused",
      "outputs": [
        {
          "internalType": "bool",
          "name": "",
          "type": "bool"
        }
      ],
      "stateMutability": "view",
      "type": "function"
    },
    {
      "inputs": [],
      "name": "owner",
      "outputs": [
        {
          "internalType": "address",
          "name": "",
          "type": "address"
        }
      ],
      "stateMutability": "view",
      "type": "function"
    },
    {
      "inputs": [],
      "name": "pendingOwner",
      "outputs": [
        {
          "internalType": "address",
          "name": "",
          "type": "address"
        }
      ],
      "stateMutability": "view",
      "type": "function"
    },
    {
      "inputs": [],
      "name": "proxiableUUID",
      "outputs": [
        {
          "internalType": "bytes32",
          "name": "",
          "type": "bytes32"
        }
      ],
      "stateMutability": "view",
      "type": "function"
    },
    {
      "inputs": [],
      "name": "renounceOwnership",
      "outputs": [],
      "stateMutability": "nonpayable",
      "type": "function"
    },
    {
      "inputs": [
        {
          "internalType": "address",
          "name": "_newAmlSigner",
          "type": "address"
        }
      ],
      "name": "setAmlSigner",
      "outputs": [],
      "stateMutability": "nonpayable",
      "type": "function"
    },
    {
      "inputs": [],
      "name": "stakingAsset",
      "outputs": [
        {
          "internalType": "contract IERC20",
          "name": "",
          "type": "address"
        }
      ],
      "stateMutability": "view",
      "type": "function"
    },
    {
      "inputs": [],
      "name": "stakingVault",
      "outputs": [
        {
          "internalType": "contract IERC4626",
          "name": "",
          "type": "address"
        }
      ],
      "stateMutability": "view",
      "type": "function"
    },
    {
      "inputs": [],
      "name": "togglePause",
      "outputs": [],
      "stateMutability": "nonpayable",
      "type": "function"
    },
    {
      "inputs": [
        {
          "internalType": "address",
          "name": "newOwner",
          "type": "address"
        }
      ],
      "name": "transferOwnership",
      "outputs": [],
      "stateMutability": "nonpayable",
      "type": "function"
    },
    {
      "inputs": [
        {
          "internalType": "address",
          "name": "newImplementation",
          "type": "address"
        },
        {
          "internalType": "bytes",
          "name": "data",
          "type": "bytes"
        }
      ],
      "name": "upgradeToAndCall",
      "outputs": [],
      "stateMutability": "payable",
      "type": "function"
    },
    {
      "inputs": [
        {
          "internalType": "bytes32",
          "name": "",
          "type": "bytes32"
        }
      ],
      "name": "usedSignatures",
      "outputs": [
        {
          "internalType": "bool",
          "name": "",
          "type": "bool"
        }
      ],
      "stateMutability": "view",
      "type": "function"
    }
  ],
  "bytecode": "0x60a080604052346100ea57306080527ff0c57e16840df040f15088dc2f81fe391c3923bec73e23a9662efc9c229c6a005460ff8160401c166100d9576002600160401b03196001600160401b03821601610073575b60405161178390816100f0823960805181818161091501526109bb0152f35b6001600160401b0319166001600160401b039081177ff0c57e16840df040f15088dc2f81fe391c3923bec73e23a9662efc9c229c6a005581527fc7f505b2f371ae2175ee4913f4499e1f2633a7b5936321eed1cdaeb6115181d290602090a13880610054565b63f92ee8a960e01b60005260046000fd5b600080fdfe6080604052600436101561001257600080fd5b6000803560e01c80628e6a6514610be957806324e7964a14610bc057806338d52e0f14610b975780634f1ef2861461096a57806352d1902d146109025780636147da56146108d9578063715018a6146108585780637776768f1461082f57806379ba5097146107de5780638da5cb5b146107a8578063ad3cb1cc1461072e578063b187bd261461070b578063c4ae3168146106dc578063c55a574b1461066d578063d1e43ae51461054f578063e30c397814610519578063f2fde38b14610491578063f61ebc361461046a578063f8c8765e146101295763f978fd61146100f857600080fd5b346101265760203660031901126101265760ff60406020926004358152600584522054166040519015158152f35b80fd5b503461012657608036600319011261012657610143610c6c565b61014b610c87565b6044356001600160a01b0381169190829003610466576064356001600160a01b038116939084810361046257600080516020611737833981519152549460ff8660401c16159567ffffffffffffffff81168015908161045a575b6001149081610450575b159081610447575b506104385767ffffffffffffffff198116600117600080516020611737833981519152558661040b575b506101ea61149f565b6101f261149f565b156103f75761020090610dab565b61020861149f565b61021061149f565b6001600080516020611717833981519152556001600160a01b0316801580156103e6575b6103d75782156103c85784546001600160a01b031916811785556040516338d52e0f60e01b815290602090829060049082905afa9182156103bd5760049260209287916103a0575b50600180546001600160a01b039283166001600160a01b03199182161790915560028054939092169216821790556040516338d52e0f60e01b815292839182905afa908115610395578491610366575b5060018060a01b03166bffffffffffffffffffffffff60a01b60035416176003556bffffffffffffffffffffffff60a01b600454161760045561030c5780f35b68ff0000000000000000196000805160206117378339815191525416600080516020611737833981519152557fc7f505b2f371ae2175ee4913f4499e1f2633a7b5936321eed1cdaeb6115181d2602060405160018152a180f35b610388915060203d60201161038e575b6103808183610c9d565b810190610d56565b386102cc565b503d610376565b6040513d86823e3d90fd5b6103b79150833d851161038e576103808183610c9d565b3861027c565b6040513d87823e3d90fd5b63d1cc738560e01b8552600485fd5b630681d31960e51b8552600485fd5b506001600160a01b03821615610234565b631e4fbdf760e01b86526004869052602486fd5b68ffffffffffffffffff1916680100000000000000011760008051602061173783398151915255386101e1565b63f92ee8a960e01b8852600488fd5b905015386101b7565b303b1591506101af565b8891506101a5565b8580fd5b8380fd5b5034610126578060031936011261012657546040516001600160a01b039091168152602090f35b5034610126576020366003190112610126576104ab610c6c565b6104b3610d75565b60008051602061175783398151915280546001600160a01b0319166001600160a01b039283169081179091556000805160206116d7833981519152549091167f38d16b8cac22d99fc7c124b9cd0de2d3fa1faef420bfe791d8c362d765e227008380a380f35b5034610126578060031936011261012657600080516020611757833981519152546040516001600160a01b039091168152602090f35b5034610126576101403660031901126101265760043561056d610c87565b604435906064359260843567ffffffffffffffff811161046257610595903690600401610d28565b9060a43560e4359260ff8416809403610669576105c6926105b4610e19565b6105c1838a8a8a8a610e55565b610ec3565b6001546001600160a01b031690813b156106655795808061063b979695949360e460209a604051948593849263d505accf60e01b845233600485015230602485015289604485015260c435606485015260848401526101043560a48401526101243560c48401525af1610655575b505061101c565b600160008051602061171783398151915255604051908152f35b8161065f91610c9d565b38610634565b8680fd5b8880fd5b50346101265760c03660031901126101265760043561068a610c87565b60443591606435936084359067ffffffffffffffff821161012657602061063b878787876106d76106be3660048b01610d28565b60a435916106ca610e19565b6105c18389898989610e55565b61101c565b50346101265780600319360112610126576106f5610d75565b60335460ff80821615169060ff19161760335580f35b5034610126578060031936011261012657602060ff603354166040519015158152f35b5034610126578060031936011261012657604080519161074e8284610c9d565b60058352640352e302e360dc1b6020840152815192839160208352815191826020850152815b838110610791575050828201840152601f01601f19168101030190f35b602082820181015188830188015287955001610774565b50346101265780600319360112610126576000805160206116d7833981519152546040516001600160a01b039091168152602090f35b503461012657806003193601126101265760008051602061175783398151915254336001600160a01b039091160361081c5761081933610dab565b80f35b63118cdaa760e01b815233600452602490fd5b50346101265780600319360112610126576003546040516001600160a01b039091168152602090f35b5034610126578060031936011261012657610871610d75565b60008051602061175783398151915280546001600160a01b03199081169091556000805160206116d78339815191528054918216905581906001600160a01b03167f8be0079c531659141344cd1fd0a4f28419497f9722a3daafe3b4186f6b6457e08280a380f35b50346101265780600319360112610126576004546040516001600160a01b039091168152602090f35b50346101265780600319360112610126577f00000000000000000000000000000000000000000000000000000000000000006001600160a01b0316300361095b5760206040516000805160206116f78339815191528152f35b63703e46dd60e11b8152600490fd5b5060403660031901126101265761097f610c6c565b9060243567ffffffffffffffff8111610b935736602382011215610b93576109b1903690602481600401359101610cf1565b6001600160a01b037f000000000000000000000000000000000000000000000000000000000000000016308114908115610b70575b50610b61576109f3610d75565b6040516352d1902d60e01b8152926001600160a01b0381169190602085600481865afa80958596610b29575b50610a3857634c9c8ce360e01b84526004839052602484fd5b9091846000805160206116f78339815191528103610b175750813b15610b05576000805160206116f783398151915280546001600160a01b031916821790557fbc7cd75a20ee27fd9adebab32041f755214dbc6bffa90cc0225b39da2e5c2d3b8480a28151839015610aeb5780836020610adf95519101845af43d15610ae3573d91610ac383610cd5565b92610ad16040519485610c9d565b83523d85602085013e6115ec565b5080f35b6060916115ec565b50505034610af65780f35b63b398979f60e01b8152600490fd5b634c9c8ce360e01b8452600452602483fd5b632a87526960e21b8552600452602484fd5b9095506020813d602011610b59575b81610b4560209383610c9d565b81010312610b5557519438610a1f565b8480fd5b3d9150610b38565b63703e46dd60e11b8252600482fd5b6000805160206116f7833981519152546001600160a01b031614159050386109e6565b5080fd5b50346101265780600319360112610126576001546040516001600160a01b039091168152602090f35b50346101265780600319360112610126576002546040516001600160a01b039091168152602090f35b503461012657602036600319011261012657610c03610c6c565b610c0b610d75565b6001600160a01b03168015610c5d57600454816001600160a01b0382167f7f7b46c0c664af2835dffe8b8e5c1ddbfcef63f608af5bbf2836a2b29a88fcb08580a36001600160a01b0319161760045580f35b63d1cc738560e01b8252600482fd5b600435906001600160a01b0382168203610c8257565b600080fd5b602435906001600160a01b0382168203610c8257565b90601f8019910116810190811067ffffffffffffffff821117610cbf57604052565b634e487b7160e01b600052604160045260246000fd5b67ffffffffffffffff8111610cbf57601f01601f191660200190565b929192610cfd82610cd5565b91610d0b6040519384610c9d565b829481845281830111610c82578281602093846000960137010152565b9181601f84011215610c825782359167ffffffffffffffff8311610c825760208381860195010111610c8257565b90816020910312610c8257516001600160a01b0381168103610c825790565b6000805160206116d7833981519152546001600160a01b03163303610d9657565b63118cdaa760e01b6000523360045260246000fd5b60008051602061175783398151915280546001600160a01b03199081169091556000805160206116d783398151915280549182166001600160a01b0393841690811790915591167f8be0079c531659141344cd1fd0a4f28419497f9722a3daafe3b4186f6b6457e0600080a3565b60026000805160206117178339815191525414610e4457600260008051602061171783398151915255565b633ee5aeb560e01b60005260046000fd5b93919290926040519360208501957f6d85460f4c9c0630b443b43d75f64b294635e39a5af454c398ee526fa75d4d4f8752336040870152606086015260018060a01b0316608085015260a084015260c083015260e082015260e08152610ebd61010082610c9d565b51902090565b919092421161100b5781600052600560205260ff60406000205416610ffa57610fb3610fbc91610fad6040956042601460208951610f018b82610c9d565b82815201732232b234b1b0ba32b22b30bab63a2937baba32b960611b815220600160208a51610f308c82610c9d565b82815201603160f81b81522089519060208201927f8b73c3c69bb8fe3d512ecc4cf759cc79239f7b179b0ffacaa9a75d522b39400f84528b83015260608201524660808201523060a082015260a08152610f8b60c082610c9d565b51902088519061190160f01b8252600282015287602282015220923691610cf1565b906114cd565b90929192611509565b6004546001600160a01b03908116911603610fe9576000526005602052600020600160ff19825416179055565b638bb79cad60e01b60005260046000fd5b63e544c62f60e01b60005260046000fd5b63288a076f60e21b60005260046000fd5b6001546040516370a0823160e01b8152306004820152949594919391906001600160a01b0316602082602481845afa9081156112bf576000916113b4575b6003546040516370a0823160e01b81523060048201529350602090849060249082906001600160a01b03165afa9283156112bf5760009361137e575b506040516323b872dd60e01b6020820152336024820152306044820152606480820188905281526110d1916110cc608483610c9d565b611591565b6001546000546110ef9187916001600160a01b0390811691166113e9565b60008054604051636e553f6560e01b815260048101889052306024820152949160209186916044918391906001600160a01b03165af19384156112bf5760009461134a575b508084106112cb57506001546040516370a0823160e01b815230600482015290602090829060249082906001600160a01b03165afa9081156112bf57600091611318575b5011611277576003546002546000946020926111e0926111a69187916001600160a01b0390811691166113e9565b600254604051636e553f6560e01b8152600481018790526001600160a01b0392831660248201529687939190921691839182906044820190565b03925af19283156112bf576000936112e4575b5082958084106112cb57506003546040516370a0823160e01b815230600482015290602090829060249082906001600160a01b03165afa9081156112bf5760009161128d575b501161127757604051928352602083015260408201527f91ede45f04a37a7c170f5c1207df3b6bc748dc1e04ad5e917a241d0f52feada360603392a2565b63eac1efd960e01b600052600060045260246000fd5b90506020813d6020116112b7575b816112a860209383610c9d565b81010312610c82575138611239565b3d915061129b565b6040513d6000823e3d90fd5b83906371c4efed60e01b60005260045260245260446000fd5b90926020823d602011611310575b816112ff60209383610c9d565b8101031261012657505191386111f3565b3d91506112f2565b90506020813d602011611342575b8161133360209383610c9d565b81010312610c82575138611178565b3d9150611326565b90936020823d602011611376575b8161136560209383610c9d565b810103126101265750519238611134565b3d9150611358565b9092506020813d6020116113ac575b8161139a60209383610c9d565b81010312610c825751916110d1611096565b3d915061138d565b90506020823d6020116113e1575b816113cf60209383610c9d565b81010312610c8257602491519061105a565b3d91506113c2565b60206000604051938285019063095ea7b360e01b825260018060a01b031695866024870152604486015260448552611422606486610c9d565b84519082855af16000513d8261147a575b50501561143f57505050565b6110cc611478936040519063095ea7b360e01b602083015260248201526000604482015260448152611472606482610c9d565b82611591565b565b90915061149757506001600160a01b0381163b15155b3880611433565b600114611490565b60ff6000805160206117378339815191525460401c16156114bc57565b631afcd79f60e31b60005260046000fd5b81519190604183036114fe576114f792506020820151906060604084015193015160001a9061164d565b9192909190565b505060009160029190565b919091600481101561157b578061151f57509050565b60006001820361153a5763f645eedf60e01b60005260046000fd5b5060028103611558578263fce698f760e01b60005260045260246000fd5b9091600360009214611568575050565b6335e2f38360e21b825260045260249150fd5b634e487b7160e01b600052602160045260246000fd5b906000602091828151910182855af1156112bf576000513d6115e357506001600160a01b0381163b155b6115c25750565b635274afe760e01b60009081526001600160a01b0391909116600452602490fd5b600114156115bb565b90611612575080511561160157602081519101fd5b63d6bda27560e01b60005260046000fd5b81511580611644575b611623575090565b639996b31560e01b60009081526001600160a01b0391909116600452602490fd5b50803b1561161b565b91907f7fffffffffffffffffffffffffffffff5d576e7357a4501ddfe92f46681b20a084116116ca579160209360809260ff60009560405194855216868401526040830152606082015282805260015afa156112bf576000516001600160a01b038116156116be5790600090600090565b50600090600190600090565b5050506000916003919056fe9016d09d72d40fdae2fd8ceac6b6234c7706214fd39c1cd1e609a0528c199300360894a13ba1a3210667c828492db98dca3e2076cc3735a920a3ca505d382bbc9b779b17422d0df92223018b32b4d1fa46e071723d6817e2486d003becc55f00f0c57e16840df040f15088dc2f81fe391c3923bec73e23a9662efc9c229c6a00237e158222e3e6968b72b9db0d8043aacf074ad9f650f0d1606b4d82ee432c00a164736f6c634300081c000a",
  "linkReferences": {},
  "deployedLinkReferences": {}
}