{
  "_format": "hh-sol-artifact-1",
  "contractName": "TokenFactory",
  "sourceName": "contracts/TokenFactory.sol",
  "abi": [
    {
      "inputs": [],
      "stateMutability": "nonpayable",
      "type": "constructor"
    },
    {
      "inputs": [
        {
          "internalType": "address",
          "name": "owner",
          "type": "address"
        }
      ],
      "name": "OwnableInvalidOwner",
      "type": "error"
    },
    {
      "inputs": [
        {
          "internalType": "address",
          "name": "account",
          "type": "address"
        }
      ],
      "name": "OwnableUnauthorizedAccount",
      "type": "error"
    },
    {
      "anonymous": false,
      "inputs": [
        {
          "indexed": true,
          "internalType": "address",
          "name": "previousOwner",
          "type": "address"
        },
        {
          "indexed": true,
          "internalType": "address",
          "name": "newOwner",
          "type": "address"
        }
      ],
      "name": "OwnershipTransferred",
      "type": "event"
    },
    {
      "anonymous": false,
      "inputs": [
        {
          "indexed": true,
          "internalType": "address",
          "name": "tokenAddress",
          "type": "address"
        },
        {
          "indexed": false,
          "internalType": "string",
          "name": "name",
          "type": "string"
        },
        {
          "indexed": false,
          "internalType": "string",
          "name": "symbol",
          "type": "string"
        },
        {
          "indexed": false,
          "internalType": "uint8",
          "name": "decimals",
          "type": "uint8"
        },
        {
          "indexed": true,
          "internalType": "address",
          "name": "owner",
          "type": "address"
        }
      ],
      "name": "TokenCreated",
      "type": "event"
    },
    {
      "inputs": [
        {
          "internalType": "uint256",
          "name": "",
          "type": "uint256"
        }
      ],
      "name": "allTokens",
      "outputs": [
        {
          "internalType": "address",
          "name": "",
          "type": "address"
        }
      ],
      "stateMutability": "view",
      "type": "function"
    },
    {
      "inputs": [
        {
          "internalType": "string",
          "name": "_name",
          "type": "string"
        },
        {
          "internalType": "string",
          "name": "_symbol",
          "type": "string"
        },
        {
          "internalType": "uint8",
          "name": "_decimals",
          "type": "uint8"
        }
      ],
      "name": "createToken",
      "outputs": [],
      "stateMutability": "nonpayable",
      "type": "function"
    },
    {
      "inputs": [],
      "name": "getAllTokens",
      "outputs": [
        {
          "internalType": "address[]",
          "name": "",
          "type": "address[]"
        }
      ],
      "stateMutability": "view",
      "type": "function"
    },
    {
      "inputs": [],
      "name": "owner",
      "outputs": [
        {
          "internalType": "address",
          "name": "",
          "type": "address"
        }
      ],
      "stateMutability": "view",
      "type": "function"
    },
    {
      "inputs": [],
      "name": "renounceOwnership",
      "outputs": [],
      "stateMutability": "nonpayable",
      "type": "function"
    },
    {
      "inputs": [
        {
          "internalType": "address",
          "name": "newOwner",
          "type": "address"
        }
      ],
      "name": "transferOwnership",
      "outputs": [],
      "stateMutability": "nonpayable",
      "type": "function"
    }
  ],
  "bytecode": "0x608080604052346075573315605f5760008054336001600160a01b0319821681178355916001600160a01b03909116907f8be0079c531659141344cd1fd0a4f28419497f9722a3daafe3b4186f6b6457e09080a361210e908161007b8239f35b631e4fbdf760e01b600052600060045260246000fd5b600080fdfe608080604052600436101561001357600080fd5b60003560e01c9081632a5c792a1461033e57508063634282af146102fc578063715018a6146102a35780638da5cb5b1461027a578063e8a0aed3146100f35763f2fde38b1461006157600080fd5b346100ee5760203660031901126100ee576004356001600160a01b038116908190036100ee5761008f61049b565b80156100d857600080546001600160a01b03198116831782556001600160a01b0316907f8be0079c531659141344cd1fd0a4f28419497f9722a3daafe3b4186f6b6457e09080a3005b631e4fbdf760e01b600052600060045260246000fd5b600080fd5b346100ee5760603660031901126100ee5760043567ffffffffffffffff81116100ee5761012490369060040161044c565b60243567ffffffffffffffff81116100ee5761014490369060040161044c565b90916044359360ff85168095036100ee5761015d61049b565b604051611c3d80820182811067ffffffffffffffff8211176102585782916104c58339608081528760606101a761019860808501898961047a565b8481036020860152898b61047a565b92336040820152015203906000f0801561026e5760018060a01b03169360015493680100000000000000008510156102585761023c61024a936102118760017f8fb1ffd0ab3f6379154037519ff749b01e1fa060a331f5394175f393c3db596b990160015561041b565b81549060031b908a821b9160018060a01b03901b19161790556040519560608752606087019161047a565b91848303602086015261047a565b9360408201528033940390a3005b634e487b7160e01b600052604160045260246000fd5b6040513d6000823e3d90fd5b346100ee5760003660031901126100ee576000546040516001600160a01b039091168152602090f35b346100ee5760003660031901126100ee576102bc61049b565b600080546001600160a01b0319811682556001600160a01b03167f8be0079c531659141344cd1fd0a4f28419497f9722a3daafe3b4186f6b6457e08280a3005b346100ee5760203660031901126100ee576004356001548110156100ee5761032560209161041b565b905460405160039290921b1c6001600160a01b03168152f35b346100ee5760003660031901126100ee5760015480825260208201809160016000527fb10e2d527612073b26eecdfd717e6a320cf44b4afac2b0732d9fcbe2b7fa0cf69060005b8181106103fc57505050829003601f01601f191682019167ffffffffffffffff83118184101761025857908291826040526020830190602084525180915260408301919060005b8181106103da575050500390f35b82516001600160a01b03168452859450602093840193909201916001016103cc565b82546001600160a01b0316845260209093019260019283019201610385565b60015481101561043657600160005260206000200190600090565b634e487b7160e01b600052603260045260246000fd5b9181601f840112156100ee5782359167ffffffffffffffff83116100ee57602083818601950101116100ee57565b908060209392818452848401376000828201840152601f01601f1916010190565b6000546001600160a01b031633036104af57565b63118cdaa760e01b6000523360045260246000fdfe61016080604052346104ad57600090611c3d803803809161002082856104b2565b83398101906080818303126104a15780516001600160401b0381116104a9578261004b91830161050e565b602082015190926001600160401b0382116104a55761006b91830161050e565b92604082015160018060a01b038116928382036104a1576060015160ff81168091036104a1576040948551906100a187836104b2565b60018252603160f81b6020830190815281519091906001600160401b0381116103b257600354600181811c91168015610497575b602082101461039457601f8111610434575b50806020601f82116001146103d15788916103c6575b508160011b916000199060031b1c1916176003555b88516001600160401b0381116103b257600454600181811c911680156103a8575b602082101461039457601f8111610331575b506020601f82116001146102c757819088999a9b61021e99926102bc575b50508160011b916000199060031b1c1916176004555b61018281610676565b6101205261018f8361081d565b6101405260208151910120918260e05251902080610100524660a05287519060208201927f8b73c3c69bb8fe3d512ecc4cf759cc79239f7b179b0ffacaa9a75d522b39400f84528983015260608201524660808201523060a082015260a081526101fa60c0826104b2565b5190206080523060c05260ff19600954161760095561021881610562565b506105de565b5081156102a857506000818152602081815283518281527fddf252ad1be2c89b69c2b068fc378daa952ba7f163c4a11628f55a4df523b3ef9190a35161127d9081610960823960805181610e64015260a05181610f21015260c05181610e2e015260e05181610eb301526101005181610ed9015261012051816104e0015261014051816105090152f35b63ec442f0560e01b81526004819052602490fd5b015190503880610163565b600488528088209a601f198316895b81811061031957509161021e999a9b9c91846001959410610300575b505050811b01600455610179565b015160001960f88460031b161c191690553880806102f2565b838301518e556001909d019c602093840193016102d6565b600488527f8a35acfbc15ff81a39ae7d344fd709f28e8600b4aa8c65c6b64bfe7fe36bd19b601f830160051c8101916020841061038a575b601f0160051c01905b81811061037f5750610145565b888155600101610372565b9091508190610369565b634e487b7160e01b88526022600452602488fd5b90607f1690610133565b634e487b7160e01b87526041600452602487fd5b9050820151386100fd565b600389528089209150601f198316895b81811061041c57509083600194939210610403575b5050811b01600355610112565b84015160001960f88460031b161c1916905538806103f6565b919260206001819286890151815501940192016103e1565b600388527fc2575a0e9e593c00f959f8c92f12db2869c3395a3b0502d05e2516446f71f85b601f830160051c8101916020841061048d575b601f0160051c01905b81811061048257506100e7565b888155600101610475565b909150819061046c565b90607f16906100d5565b8280fd5b8480fd5b8380fd5b600080fd5b601f909101601f19168101906001600160401b038211908210176104d557604052565b634e487b7160e01b600052604160045260246000fd5b60005b8381106104fe5750506000910152565b81810151838201526020016104ee565b81601f820112156104ad5780516001600160401b0381116104d55760405192610541601f8301601f1916602001856104b2565b818452602082840101116104ad5761055f91602080850191016104eb565b90565b6001600160a01b0381166000908152600080516020611c1d833981519152602052604090205460ff166105d8576001600160a01b03166000818152600080516020611c1d83398151915260205260408120805460ff19166001179055339190600080516020611bdd8339815191528180a4600190565b50600090565b6001600160a01b0381166000908152600080516020611bfd833981519152602052604090205460ff166105d8576001600160a01b03166000818152600080516020611bfd83398151915260205260408120805460ff191660011790553391907f9f2df0fed2c77648de5860a4cc508cd0818c85b8b8a1ab4ceeef8d981c8956a690600080516020611bdd8339815191529080a4600190565b908151602081106000146106f1575090601f8151116106b25760208151910151602082106106a2571790565b6000198260200360031b1b161790565b6044604051809263305a27a960e01b8252602060048301526106e381518092816024860152602086860191016104eb565b601f01601f19168101030190fd5b6001600160401b0381116104d557600554600181811c91168015610813575b60208210146107fd57601f81116107c7575b50602092601f82116001146107625792819293600092610757575b50508160011b916000199060031b1c19161760055560ff90565b01519050388061073d565b601f198216936005600052806000209160005b8681106107af5750836001959610610796575b505050811b0160055560ff90565b015160001960f88460031b161c19169055388080610788565b91926020600181928685015181550194019201610775565b6005600052601f6020600020910160051c810190601f830160051c015b8181106107f15750610722565b600081556001016107e4565b634e487b7160e01b600052602260045260246000fd5b90607f1690610710565b90815160208110600014610849575090601f8151116106b25760208151910151602082106106a2571790565b6001600160401b0381116104d557600654600181811c91168015610955575b60208210146107fd57601f811161091f575b50602092601f82116001146108ba57928192936000926108af575b50508160011b916000199060031b1c19161760065560ff90565b015190503880610895565b601f198216936006600052806000209160005b86811061090757508360019596106108ee575b505050811b0160065560ff90565b015160001960f88460031b161c191690553880806108e0565b919260206001819286850151815501940192016108cd565b6006600052601f6020600020910160051c810190601f830160051c015b818110610949575061087a565b6000815560010161093c565b90607f169061086856fe608080604052600436101561001357600080fd5b60003560e01c90816301ffc9a714610a245750806306fdde031461097c578063095ea7b31461095657806318160ddd1461093857806323b872dd14610900578063248a9ca3146108d35780632f2ff15d14610893578063313ce567146108725780633644e5151461084f57806336568abe1461080957806340c10f19146106ec57806342966c68146106a057806370a082311461066657806379cc6790146105fe5780637ecebe00146105c457806384b0196e146104c757806391d148541461047a57806395d89b4114610395578063a217fddf14610379578063a9059cbb14610348578063d505accf146101ff578063d5391393146101c4578063d547741f1461017d5763dd62ed3e1461012757600080fd5b3461017857604036600319011261017857610140610ab8565b610148610ace565b6001600160a01b039182166000908152600160209081526040808320949093168252928352819020549051908152f35b600080fd5b34610178576040366003190112610178576101c260043561019c610ace565b906101bd6101b882600052600860205260016040600020015490565b610d5f565b610f47565b005b346101785760003660031901126101785760206040517f9f2df0fed2c77648de5860a4cc508cd0818c85b8b8a1ab4ceeef8d981c8956a68152f35b346101785760e036600319011261017857610218610ab8565b610220610ace565b604435906064359260843560ff8116810361017857844211610333576102f66102ff9160018060a01b038416968760005260076020526040600020908154916001830190556040519060208201927f6e71edae12b1b97f4d1f60370fef10105fa2faae0126114a169c64845d6126c984528a604084015260018060a01b038916606084015289608084015260a083015260c082015260c081526102c460e082610ba1565b5190206102cf610e2b565b906040519161190160f01b83526002830152602282015260c43591604260a4359220611153565b909291926111e8565b6001600160a01b031684810361031a57506101c2935061104e565b84906325c0072360e11b60005260045260245260446000fd5b8463313c898160e11b60005260045260246000fd5b346101785760403660031901126101785761036e610364610ab8565b6024359033610cb0565b602060405160018152f35b3461017857600036600319011261017857602060405160008152f35b346101785760003660031901126101785760405160006004546103b781610ae4565b808452906001811690811561045657506001146103f7575b6103f3836103df81850382610ba1565b604051918291602083526020830190610a77565b0390f35b600460009081527f8a35acfbc15ff81a39ae7d344fd709f28e8600b4aa8c65c6b64bfe7fe36bd19b939250905b80821061043c575090915081016020016103df6103cf565b919260018160209254838588010152019101909291610424565b60ff191660208086019190915291151560051b840190910191506103df90506103cf565b3461017857604036600319011261017857610493610ace565b600435600052600860205260406000209060018060a01b0316600052602052602060ff604060002054166040519015158152f35b34610178576000366003190112610178576105666105047f00000000000000000000000000000000000000000000000000000000000000006110b5565b61052d7f000000000000000000000000000000000000000000000000000000000000000061111c565b6020610574604051926105408385610ba1565b600084526000368137604051958695600f60f81b875260e08588015260e0870190610a77565b908582036040870152610a77565b466060850152306080850152600060a085015283810360c085015281808451928381520193019160005b8281106105ad57505050500390f35b83518552869550938101939281019260010161059e565b34610178576020366003190112610178576001600160a01b036105e5610ab8565b1660005260076020526020604060002054604051908152f35b3461017857604036600319011261017857610617610ab8565b7ffd38818f5291bf0bb3a2a48aadc06ba8757865d1dabd804585338aab3009dcb6602060243592610649843383610bd9565b6106538482610fcd565b6040519384526001600160a01b031692a2005b34610178576020366003190112610178576001600160a01b03610687610ab8565b1660005260006020526020604060002054604051908152f35b34610178576020366003190112610178576004356106be8133610fcd565b6040519081527ffd38818f5291bf0bb3a2a48aadc06ba8757865d1dabd804585338aab3009dcb660203392a2005b3461017857604036600319011261017857610705610ab8565b3360009081527f51a495916474fe1a0c0fcfb65a8a97682b84a054118858cdd1f5dfd7fc0919eb6020526040902054602435919060ff16156107d0576001600160a01b031680156107ba57600254918083018093116107a4576020926002557fddf252ad1be2c89b69c2b068fc378daa952ba7f163c4a11628f55a4df523b3ef600093849284845283825260408420818154019055604051908152a380f35b634e487b7160e01b600052601160045260246000fd5b63ec442f0560e01b600052600060045260246000fd5b63e2517d3f60e01b600052336004527f9f2df0fed2c77648de5860a4cc508cd0818c85b8b8a1ab4ceeef8d981c8956a660245260446000fd5b3461017857604036600319011261017857610822610ace565b336001600160a01b0382160361083e576101c290600435610f47565b63334bd91960e11b60005260046000fd5b3461017857600036600319011261017857602061086a610e2b565b604051908152f35b3461017857600036600319011261017857602060ff60095416604051908152f35b34610178576040366003190112610178576101c26004356108b2610ace565b906108ce6101b882600052600860205260016040600020015490565b610d9c565b3461017857602036600319011261017857602061086a600435600052600860205260016040600020015490565b346101785760603660031901126101785761036e61091c610ab8565b610924610ace565b60443591610933833383610bd9565b610cb0565b34610178576000366003190112610178576020600254604051908152f35b346101785760403660031901126101785761036e610972610ab8565b602435903361104e565b3461017857600036600319011261017857604051600060035461099e81610ae4565b808452906001811690811561045657506001146109c5576103f3836103df81850382610ba1565b600360009081527fc2575a0e9e593c00f959f8c92f12db2869c3395a3b0502d05e2516446f71f85b939250905b808210610a0a575090915081016020016103df6103cf565b9192600181602092548385880101520191019092916109f2565b34610178576020366003190112610178576004359063ffffffff60e01b821680920361017857602091637965db0b60e01b8114908115610a66575b5015158152f35b6301ffc9a760e01b14905083610a5f565b919082519283825260005b848110610aa3575050826000602080949584010152601f8019910116010190565b80602080928401015182828601015201610a82565b600435906001600160a01b038216820361017857565b602435906001600160a01b038216820361017857565b90600182811c92168015610b14575b6020831014610afe57565b634e487b7160e01b600052602260045260246000fd5b91607f1691610af3565b60009291815491610b2e83610ae4565b8083529260018116908115610b845750600114610b4a57505050565b60009081526020812093945091925b838310610b6a575060209250010190565b600181602092949394548385870101520191019190610b59565b915050602093945060ff929192191683830152151560051b010190565b90601f8019910116810190811067ffffffffffffffff821117610bc357604052565b634e487b7160e01b600052604160045260246000fd5b6001600160a01b039081166000818152600160209081526040808320948616835293905291909120549291906000198410610c15575b50505050565b828410610c8b578015610c75576001600160a01b03821615610c5f57600052600160205260406000209060018060a01b031660005260205260406000209103905538808080610c0f565b634a1406b160e11b600052600060045260246000fd5b63e602df0560e01b600052600060045260246000fd5b508290637dc7a0d960e11b60005260018060a01b031660045260245260445260646000fd5b6001600160a01b0316908115610d49576001600160a01b03169182156107ba576000828152806020526040812054828110610d2f5791604082827fddf252ad1be2c89b69c2b068fc378daa952ba7f163c4a11628f55a4df523b3ef958760209652828652038282205586815280845220818154019055604051908152a3565b916064928463391434e360e21b8452600452602452604452fd5b634b637e8f60e11b600052600060045260246000fd5b600081815260086020908152604080832033845290915290205460ff1615610d845750565b63e2517d3f60e01b6000523360045260245260446000fd5b60008181526008602090815260408083206001600160a01b038616845290915290205460ff16610e245760008181526008602090815260408083206001600160a01b0395909516808452949091528120805460ff19166001179055339291907f2f8788117e7eff1d82e926ec794901d17c78024a50270940304540a733656f0d9080a4600190565b5050600090565b307f00000000000000000000000000000000000000000000000000000000000000006001600160a01b03161480610f1e575b15610e86577f000000000000000000000000000000000000000000000000000000000000000090565b60405160208101907f8b73c3c69bb8fe3d512ecc4cf759cc79239f7b179b0ffacaa9a75d522b39400f82527f000000000000000000000000000000000000000000000000000000000000000060408201527f000000000000000000000000000000000000000000000000000000000000000060608201524660808201523060a082015260a08152610f1860c082610ba1565b51902090565b507f00000000000000000000000000000000000000000000000000000000000000004614610e5d565b60008181526008602090815260408083206001600160a01b038616845290915290205460ff1615610e245760008181526008602090815260408083206001600160a01b0395909516808452949091528120805460ff19169055339291907ff6391f5c32d9c69d2a47ea670b442974b53935d1edc7fd64eb21e047a839171b9080a4600190565b6001600160a01b03168015610d495760009181835282602052604083205481811061103557817fddf252ad1be2c89b69c2b068fc378daa952ba7f163c4a11628f55a4df523b3ef926020928587528684520360408620558060025403600255604051908152a3565b6064939263391434e360e21b8452600452602452604452fd5b6001600160a01b0316908115610c75576001600160a01b0316918215610c5f5760207f8c5be1e5ebec7d5bd14f71427d1e84f3dd0314c0f7b2291e5b200ac8c7c3b925918360005260018252604060002085600052825280604060002055604051908152a3565b60ff81146110ff5760ff811690601f82116110ee5760408051926110d98285610ba1565b6020808552840191601f190136833783525290565b632cd44ac360e21b60005260046000fd5b5060405161111981611112816005610b1e565b0382610ba1565b90565b60ff81146111405760ff811690601f82116110ee5760408051926110d98285610ba1565b5060405161111981611112816006610b1e565b91907f7fffffffffffffffffffffffffffffff5d576e7357a4501ddfe92f46681b20a084116111dc579160209360809260ff60009560405194855216868401526040830152606082015282805260015afa156111d0576000516001600160a01b038116156111c45790600090600090565b50600090600190600090565b6040513d6000823e3d90fd5b50505060009160039190565b919091600481101561125a57806111fe57509050565b6000600182036112195763f645eedf60e01b60005260046000fd5b5060028103611237578263fce698f760e01b60005260045260246000fd5b9091600360009214611247575050565b6335e2f38360e21b825260045260249150fd5b634e487b7160e01b600052602160045260246000fdfea164736f6c634300081c000a2f8788117e7eff1d82e926ec794901d17c78024a50270940304540a733656f0d51a495916474fe1a0c0fcfb65a8a97682b84a054118858cdd1f5dfd7fc0919eb5eff886ea0ce6ca488a3d6e336d6c0f75f46d19b42c06ce5ee98e42c96d256c7a164736f6c634300081c000a",
  "linkReferences": {},
  "deployedLinkReferences": {}
}