{
  "_format": "hh-sol-artifact-1",
  "contractName": "MockAsyncRedemptionVault",
  "sourceName": "contracts/prime/mocks/MockAsyncRedemptionVault.sol",
  "abi": [
    {
      "inputs": [
        {
          "internalType": "address",
          "name": "asset",
          "type": "address"
        },
        {
          "internalType": "string",
          "name": "name",
          "type": "string"
        },
        {
          "internalType": "string",
          "name": "symbol",
          "type": "string"
        }
      ],
      "stateMutability": "nonpayable",
      "type": "constructor"
    },
    {
      "inputs": [],
      "name": "ECDSAInvalidSignature",
      "type": "error"
    },
    {
      "inputs": [
        {
          "internalType": "uint256",
          "name": "length",
          "type": "uint256"
        }
      ],
      "name": "ECDSAInvalidSignatureLength",
      "type": "error"
    },
    {
      "inputs": [
        {
          "internalType": "bytes32",
          "name": "s",
          "type": "bytes32"
        }
      ],
      "name": "ECDSAInvalidSignatureS",
      "type": "error"
    },
    {
      "inputs": [
        {
          "internalType": "address",
          "name": "spender",
          "type": "address"
        },
        {
          "internalType": "uint256",
          "name": "allowance",
          "type": "uint256"
        },
        {
          "internalType": "uint256",
          "name": "needed",
          "type": "uint256"
        }
      ],
      "name": "ERC20InsufficientAllowance",
      "type": "error"
    },
    {
      "inputs": [
        {
          "internalType": "address",
          "name": "sender",
          "type": "address"
        },
        {
          "internalType": "uint256",
          "name": "balance",
          "type": "uint256"
        },
        {
          "internalType": "uint256",
          "name": "needed",
          "type": "uint256"
        }
      ],
      "name": "ERC20InsufficientBalance",
      "type": "error"
    },
    {
      "inputs": [
        {
          "internalType": "address",
          "name": "approver",
          "type": "address"
        }
      ],
      "name": "ERC20InvalidApprover",
      "type": "error"
    },
    {
      "inputs": [
        {
          "internalType": "address",
          "name": "receiver",
          "type": "address"
        }
      ],
      "name": "ERC20InvalidReceiver",
      "type": "error"
    },
    {
      "inputs": [
        {
          "internalType": "address",
          "name": "sender",
          "type": "address"
        }
      ],
      "name": "ERC20InvalidSender",
      "type": "error"
    },
    {
      "inputs": [
        {
          "internalType": "address",
          "name": "spender",
          "type": "address"
        }
      ],
      "name": "ERC20InvalidSpender",
      "type": "error"
    },
    {
      "inputs": [
        {
          "internalType": "uint256",
          "name": "deadline",
          "type": "uint256"
        }
      ],
      "name": "ERC2612ExpiredSignature",
      "type": "error"
    },
    {
      "inputs": [
        {
          "internalType": "address",
          "name": "signer",
          "type": "address"
        },
        {
          "internalType": "address",
          "name": "owner",
          "type": "address"
        }
      ],
      "name": "ERC2612InvalidSigner",
      "type": "error"
    },
    {
      "inputs": [
        {
          "internalType": "address",
          "name": "receiver",
          "type": "address"
        },
        {
          "internalType": "uint256",
          "name": "assets",
          "type": "uint256"
        },
        {
          "internalType": "uint256",
          "name": "max",
          "type": "uint256"
        }
      ],
      "name": "ERC4626ExceededMaxDeposit",
      "type": "error"
    },
    {
      "inputs": [
        {
          "internalType": "address",
          "name": "receiver",
          "type": "address"
        },
        {
          "internalType": "uint256",
          "name": "shares",
          "type": "uint256"
        },
        {
          "internalType": "uint256",
          "name": "max",
          "type": "uint256"
        }
      ],
      "name": "ERC4626ExceededMaxMint",
      "type": "error"
    },
    {
      "inputs": [
        {
          "internalType": "address",
          "name": "owner",
          "type": "address"
        },
        {
          "internalType": "uint256",
          "name": "shares",
          "type": "uint256"
        },
        {
          "internalType": "uint256",
          "name": "max",
          "type": "uint256"
        }
      ],
      "name": "ERC4626ExceededMaxRedeem",
      "type": "error"
    },
    {
      "inputs": [
        {
          "internalType": "address",
          "name": "owner",
          "type": "address"
        },
        {
          "internalType": "uint256",
          "name": "assets",
          "type": "uint256"
        },
        {
          "internalType": "uint256",
          "name": "max",
          "type": "uint256"
        }
      ],
      "name": "ERC4626ExceededMaxWithdraw",
      "type": "error"
    },
    {
      "inputs": [
        {
          "internalType": "address",
          "name": "account",
          "type": "address"
        },
        {
          "internalType": "uint256",
          "name": "currentNonce",
          "type": "uint256"
        }
      ],
      "name": "InvalidAccountNonce",
      "type": "error"
    },
    {
      "inputs": [],
      "name": "InvalidShortString",
      "type": "error"
    },
    {
      "inputs": [
        {
          "internalType": "address",
          "name": "token",
          "type": "address"
        }
      ],
      "name": "SafeERC20FailedOperation",
      "type": "error"
    },
    {
      "inputs": [
        {
          "internalType": "string",
          "name": "str",
          "type": "string"
        }
      ],
      "name": "StringTooLong",
      "type": "error"
    },
    {
      "anonymous": false,
      "inputs": [
        {
          "indexed": true,
          "internalType": "address",
          "name": "owner",
          "type": "address"
        },
        {
          "indexed": true,
          "internalType": "address",
          "name": "spender",
          "type": "address"
        },
        {
          "indexed": false,
          "internalType": "uint256",
          "name": "value",
          "type": "uint256"
        }
      ],
      "name": "Approval",
      "type": "event"
    },
    {
      "anonymous": false,
      "inputs": [
        {
          "indexed": true,
          "internalType": "address",
          "name": "sender",
          "type": "address"
        },
        {
          "indexed": true,
          "internalType": "address",
          "name": "owner",
          "type": "address"
        },
        {
          "indexed": false,
          "internalType": "uint256",
          "name": "assets",
          "type": "uint256"
        },
        {
          "indexed": false,
          "internalType": "uint256",
          "name": "shares",
          "type": "uint256"
        }
      ],
      "name": "Deposit",
      "type": "event"
    },
    {
      "anonymous": false,
      "inputs": [],
      "name": "EIP712DomainChanged",
      "type": "event"
    },
    {
      "anonymous": false,
      "inputs": [
        {
          "indexed": true,
          "internalType": "address",
          "name": "from",
          "type": "address"
        },
        {
          "indexed": true,
          "internalType": "address",
          "name": "to",
          "type": "address"
        },
        {
          "indexed": false,
          "internalType": "uint256",
          "name": "value",
          "type": "uint256"
        }
      ],
      "name": "Transfer",
      "type": "event"
    },
    {
      "anonymous": false,
      "inputs": [
        {
          "indexed": true,
          "internalType": "address",
          "name": "sender",
          "type": "address"
        },
        {
          "indexed": true,
          "internalType": "address",
          "name": "receiver",
          "type": "address"
        },
        {
          "indexed": true,
          "internalType": "address",
          "name": "owner",
          "type": "address"
        },
        {
          "indexed": false,
          "internalType": "uint256",
          "name": "assets",
          "type": "uint256"
        },
        {
          "indexed": false,
          "internalType": "uint256",
          "name": "shares",
          "type": "uint256"
        }
      ],
      "name": "Withdraw",
      "type": "event"
    },
    {
      "inputs": [],
      "name": "DOMAIN_SEPARATOR",
      "outputs": [
        {
          "internalType": "bytes32",
          "name": "",
          "type": "bytes32"
        }
      ],
      "stateMutability": "view",
      "type": "function"
    },
    {
      "inputs": [
        {
          "internalType": "address",
          "name": "owner",
          "type": "address"
        },
        {
          "internalType": "address",
          "name": "spender",
          "type": "address"
        }
      ],
      "name": "allowance",
      "outputs": [
        {
          "internalType": "uint256",
          "name": "",
          "type": "uint256"
        }
      ],
      "stateMutability": "view",
      "type": "function"
    },
    {
      "inputs": [
        {
          "internalType": "address",
          "name": "spender",
          "type": "address"
        },
        {
          "internalType": "uint256",
          "name": "value",
          "type": "uint256"
        }
      ],
      "name": "approve",
      "outputs": [
        {
          "internalType": "bool",
          "name": "",
          "type": "bool"
        }
      ],
      "stateMutability": "nonpayable",
      "type": "function"
    },
    {
      "inputs": [],
      "name": "asset",
      "outputs": [
        {
          "internalType": "address",
          "name": "",
          "type": "address"
        }
      ],
      "stateMutability": "view",
      "type": "function"
    },
    {
      "inputs": [
        {
          "internalType": "address",
          "name": "account",
          "type": "address"
        }
      ],
      "name": "balanceOf",
      "outputs": [
        {
          "internalType": "uint256",
          "name": "",
          "type": "uint256"
        }
      ],
      "stateMutability": "view",
      "type": "function"
    },
    {
      "inputs": [
        {
          "internalType": "uint256",
          "name": "shares",
          "type": "uint256"
        }
      ],
      "name": "convertToAssets",
      "outputs": [
        {
          "internalType": "uint256",
          "name": "",
          "type": "uint256"
        }
      ],
      "stateMutability": "view",
      "type": "function"
    },
    {
      "inputs": [
        {
          "internalType": "uint256",
          "name": "assets",
          "type": "uint256"
        }
      ],
      "name": "convertToShares",
      "outputs": [
        {
          "internalType": "uint256",
          "name": "",
          "type": "uint256"
        }
      ],
      "stateMutability": "view",
      "type": "function"
    },
    {
      "inputs": [],
      "name": "decimals",
      "outputs": [
        {
          "internalType": "uint8",
          "name": "",
          "type": "uint8"
        }
      ],
      "stateMutability": "view",
      "type": "function"
    },
    {
      "inputs": [
        {
          "internalType": "uint256",
          "name": "assets",
          "type": "uint256"
        },
        {
          "internalType": "address",
          "name": "receiver",
          "type": "address"
        }
      ],
      "name": "deposit",
      "outputs": [
        {
          "internalType": "uint256",
          "name": "",
          "type": "uint256"
        }
      ],
      "stateMutability": "nonpayable",
      "type": "function"
    },
    {
      "inputs": [],
      "name": "eip712Domain",
      "outputs": [
        {
          "internalType": "bytes1",
          "name": "fields",
          "type": "bytes1"
        },
        {
          "internalType": "string",
          "name": "name",
          "type": "string"
        },
        {
          "internalType": "string",
          "name": "version",
          "type": "string"
        },
        {
          "internalType": "uint256",
          "name": "chainId",
          "type": "uint256"
        },
        {
          "internalType": "address",
          "name": "verifyingContract",
          "type": "address"
        },
        {
          "internalType": "bytes32",
          "name": "salt",
          "type": "bytes32"
        },
        {
          "internalType": "uint256[]",
          "name": "extensions",
          "type": "uint256[]"
        }
      ],
      "stateMutability": "view",
      "type": "function"
    },
    {
      "inputs": [
        {
          "internalType": "address",
          "name": "",
          "type": "address"
        }
      ],
      "name": "maxDeposit",
      "outputs": [
        {
          "internalType": "uint256",
          "name": "",
          "type": "uint256"
        }
      ],
      "stateMutability": "view",
      "type": "function"
    },
    {
      "inputs": [
        {
          "internalType": "address",
          "name": "",
          "type": "address"
        }
      ],
      "name": "maxMint",
      "outputs": [
        {
          "internalType": "uint256",
          "name": "",
          "type": "uint256"
        }
      ],
      "stateMutability": "view",
      "type": "function"
    },
    {
      "inputs": [
        {
          "internalType": "address",
          "name": "owner",
          "type": "address"
        }
      ],
      "name": "maxRedeem",
      "outputs": [
        {
          "internalType": "uint256",
          "name": "",
          "type": "uint256"
        }
      ],
      "stateMutability": "view",
      "type": "function"
    },
    {
      "inputs": [
        {
          "internalType": "address",
          "name": "owner",
          "type": "address"
        }
      ],
      "name": "maxWithdraw",
      "outputs": [
        {
          "internalType": "uint256",
          "name": "",
          "type": "uint256"
        }
      ],
      "stateMutability": "view",
      "type": "function"
    },
    {
      "inputs": [
        {
          "internalType": "uint256",
          "name": "shares",
          "type": "uint256"
        },
        {
          "internalType": "address",
          "name": "receiver",
          "type": "address"
        }
      ],
      "name": "mint",
      "outputs": [
        {
          "internalType": "uint256",
          "name": "",
          "type": "uint256"
        }
      ],
      "stateMutability": "nonpayable",
      "type": "function"
    },
    {
      "inputs": [],
      "name": "name",
      "outputs": [
        {
          "internalType": "string",
          "name": "",
          "type": "string"
        }
      ],
      "stateMutability": "view",
      "type": "function"
    },
    {
      "inputs": [
        {
          "internalType": "address",
          "name": "owner",
          "type": "address"
        }
      ],
      "name": "nonces",
      "outputs": [
        {
          "internalType": "uint256",
          "name": "",
          "type": "uint256"
        }
      ],
      "stateMutability": "view",
      "type": "function"
    },
    {
      "inputs": [
        {
          "internalType": "address",
          "name": "owner",
          "type": "address"
        },
        {
          "internalType": "address",
          "name": "spender",
          "type": "address"
        },
        {
          "internalType": "uint256",
          "name": "value",
          "type": "uint256"
        },
        {
          "internalType": "uint256",
          "name": "deadline",
          "type": "uint256"
        },
        {
          "internalType": "uint8",
          "name": "v",
          "type": "uint8"
        },
        {
          "internalType": "bytes32",
          "name": "r",
          "type": "bytes32"
        },
        {
          "internalType": "bytes32",
          "name": "s",
          "type": "bytes32"
        }
      ],
      "name": "permit",
      "outputs": [],
      "stateMutability": "nonpayable",
      "type": "function"
    },
    {
      "inputs": [
        {
          "internalType": "uint256",
          "name": "assets",
          "type": "uint256"
        }
      ],
      "name": "previewDeposit",
      "outputs": [
        {
          "internalType": "uint256",
          "name": "",
          "type": "uint256"
        }
      ],
      "stateMutability": "view",
      "type": "function"
    },
    {
      "inputs": [
        {
          "internalType": "uint256",
          "name": "shares",
          "type": "uint256"
        }
      ],
      "name": "previewMint",
      "outputs": [
        {
          "internalType": "uint256",
          "name": "",
          "type": "uint256"
        }
      ],
      "stateMutability": "view",
      "type": "function"
    },
    {
      "inputs": [
        {
          "internalType": "uint256",
          "name": "shares",
          "type": "uint256"
        }
      ],
      "name": "previewRedeem",
      "outputs": [
        {
          "internalType": "uint256",
          "name": "",
          "type": "uint256"
        }
      ],
      "stateMutability": "view",
      "type": "function"
    },
    {
      "inputs": [
        {
          "internalType": "uint256",
          "name": "assets",
          "type": "uint256"
        }
      ],
      "name": "previewWithdraw",
      "outputs": [
        {
          "internalType": "uint256",
          "name": "",
          "type": "uint256"
        }
      ],
      "stateMutability": "view",
      "type": "function"
    },
    {
      "inputs": [
        {
          "internalType": "uint256",
          "name": "shares",
          "type": "uint256"
        },
        {
          "internalType": "address",
          "name": "receiver",
          "type": "address"
        },
        {
          "internalType": "address",
          "name": "owner",
          "type": "address"
        }
      ],
      "name": "redeem",
      "outputs": [
        {
          "internalType": "uint256",
          "name": "",
          "type": "uint256"
        }
      ],
      "stateMutability": "nonpayable",
      "type": "function"
    },
    {
      "inputs": [
        {
          "internalType": "uint256",
          "name": "shares",
          "type": "uint256"
        }
      ],
      "name": "requestRedeem",
      "outputs": [],
      "stateMutability": "nonpayable",
      "type": "function"
    },
    {
      "inputs": [],
      "name": "symbol",
      "outputs": [
        {
          "internalType": "string",
          "name": "",
          "type": "string"
        }
      ],
      "stateMutability": "view",
      "type": "function"
    },
    {
      "inputs": [],
      "name": "totalAssets",
      "outputs": [
        {
          "internalType": "uint256",
          "name": "",
          "type": "uint256"
        }
      ],
      "stateMutability": "view",
      "type": "function"
    },
    {
      "inputs": [],
      "name": "totalSupply",
      "outputs": [
        {
          "internalType": "uint256",
          "name": "",
          "type": "uint256"
        }
      ],
      "stateMutability": "view",
      "type": "function"
    },
    {
      "inputs": [
        {
          "internalType": "address",
          "name": "to",
          "type": "address"
        },
        {
          "internalType": "uint256",
          "name": "value",
          "type": "uint256"
        }
      ],
      "name": "transfer",
      "outputs": [
        {
          "internalType": "bool",
          "name": "",
          "type": "bool"
        }
      ],
      "stateMutability": "nonpayable",
      "type": "function"
    },
    {
      "inputs": [
        {
          "internalType": "address",
          "name": "from",
          "type": "address"
        },
        {
          "internalType": "address",
          "name": "to",
          "type": "address"
        },
        {
          "internalType": "uint256",
          "name": "value",
          "type": "uint256"
        }
      ],
      "name": "transferFrom",
      "outputs": [
        {
          "internalType": "bool",
          "name": "",
          "type": "bool"
        }
      ],
      "stateMutability": "nonpayable",
      "type": "function"
    },
    {
      "inputs": [
        {
          "internalType": "uint256",
          "name": "assets",
          "type": "uint256"
        },
        {
          "internalType": "address",
          "name": "receiver",
          "type": "address"
        },
        {
          "internalType": "address",
          "name": "owner",
          "type": "address"
        }
      ],
      "name": "withdraw",
      "outputs": [
        {
          "internalType": "uint256",
          "name": "",
          "type": "uint256"
        }
      ],
      "stateMutability": "nonpayable",
      "type": "function"
    }
  ],
  "bytecode": "0x6101a0806040523461048057611b74803803809161001d8285610485565b83398101906060818303126104805780516001600160a01b03811691908290036104805760208101516001600160401b03811161048057836100609183016104e6565b60408201519093906001600160401b0381116104805761008092016104e6565b6040928351926100908585610485565b60018452603160f81b6020850190815282519093906001600160401b03811161038a57600354600181811c91168015610476575b602082101461036a57601f8111610411575b50806020601f82116001146103ab576000916103a0575b508160011b916000199060031b1c1916176003555b8051906001600160401b03821161038a5760045490600182811c92168015610380575b602083101461036a5781601f8493116102fa575b50602090601f831160011461029257600092610287575b50508160011b916000199060031b1c1916176004555b61016f816107fe565b901561027f575b60a0526080526101858161052b565b61016052610192836106bc565b610180526020815191012091826101205251902080610140524660e05282519060208201927f8b73c3c69bb8fe3d512ecc4cf759cc79239f7b179b0ffacaa9a75d522b39400f84528483015260608201524660808201523060a082015260a081526101fe60c082610485565b51902060c05230610100526001600855516112ce90816108a68239608051818181610748015281816109270152610e6a015260a051816107a7015260c05181610d40015260e05181610dfd01526101005181610d0a01526101205181610d8f01526101405181610db5015261016051816106140152610180518161063d0152f35b506012610176565b015190503880610150565b600460009081528281209350601f198516905b8181106102e257509084600195949392106102c9575b505050811b01600455610166565b015160001960f88460031b161c191690553880806102bb565b929360206001819287860151815501950193016102a5565b60046000529091507f8a35acfbc15ff81a39ae7d344fd709f28e8600b4aa8c65c6b64bfe7fe36bd19b601f840160051c81019160208510610360575b90601f859493920160051c01905b8181106103515750610139565b60008155849350600101610344565b9091508190610336565b634e487b7160e01b600052602260045260246000fd5b91607f1691610125565b634e487b7160e01b600052604160045260246000fd5b9050840151386100ed565b600360009081528181209250601f198416905b8181106103f9575090836001949392106103e0575b5050811b01600355610102565b86015160001960f88460031b161c1916905538806103d3565b9192602060018192868b0151815501940192016103be565b60036000527fc2575a0e9e593c00f959f8c92f12db2869c3395a3b0502d05e2516446f71f85b601f830160051c8101916020841061046c575b601f0160051c01905b81811061046057506100d6565b60008155600101610453565b909150819061044a565b90607f16906100c4565b600080fd5b601f909101601f19168101906001600160401b0382119082101761038a57604052565b6001600160401b03811161038a57601f01601f191660200190565b60005b8381106104d65750506000910152565b81810151838201526020016104c6565b81601f820112156104805780516104fc816104a8565b9261050a6040519485610485565b818452602082840101116104805761052891602080850191016104c3565b90565b908151602081106000146105a6575090601f815111610567576020815191015160208210610557571790565b6000198260200360031b1b161790565b6044604051809263305a27a960e01b82526020600483015261059881518092816024860152602086860191016104c3565b601f01601f19168101030190fd5b6001600160401b03811161038a57600554600181811c911680156106b2575b602082101461036a57601f811161067c575b50602092601f8211600114610617579281929360009261060c575b50508160011b916000199060031b1c19161760055560ff90565b0151905038806105f2565b601f198216936005600052806000209160005b868110610664575083600195961061064b575b505050811b0160055560ff90565b015160001960f88460031b161c1916905538808061063d565b9192602060018192868501518155019401920161062a565b6005600052601f6020600020910160051c810190601f830160051c015b8181106106a657506105d7565b60008155600101610699565b90607f16906105c5565b908151602081106000146106e8575090601f815111610567576020815191015160208210610557571790565b6001600160401b03811161038a57600654600181811c911680156107f4575b602082101461036a57601f81116107be575b50602092601f8211600114610759579281929360009261074e575b50508160011b916000199060031b1c19161760065560ff90565b015190503880610734565b601f198216936006600052806000209160005b8681106107a6575083600195961061078d575b505050811b0160065560ff90565b015160001960f88460031b161c1916905538808061077f565b9192602060018192868501518155019401920161076c565b6006600052601f6020600020910160051c810190601f830160051c015b8181106107e85750610719565b600081556001016107db565b90607f1690610707565b60008091604051602081019063313ce56760e01b825260048152610823602482610485565b51916001600160a01b03165afa3d1561089d573d90610841826104a8565b9161084f6040519384610485565b82523d6000602084013e5b80610891575b61086e575b50600090600090565b602081805181010312610480576020015160ff8111610865579060ff6001921690565b50602081511015610860565b60609061085a56fe608080604052600436101561001357600080fd5b60003560e01c90816301e1d114146108fe5750806306fdde031461085657806307a2d13a14610169578063095ea7b3146108305780630a28a4771461041f57806318160ddd1461081257806323b872dd146107da578063313ce567146107925780633644e5151461077757806338d52e0f14610732578063402d267d146103505780634cdad506146101695780636e553f65146105d257806370a08231146101c45780637ecebe00146106f857806384b0196e146105fb57806394bf804d146105d257806395d89b41146104ed578063a9059cbb146104bc578063aa2f892d1461043c578063b3d7f6b91461041f578063b460af94146103ba578063ba08765214610355578063c63d75b614610350578063c6e6f59214610169578063ce96cb77146101c4578063d505accf14610205578063d905777e146101c4578063dd62ed3e1461016e5763ef8b30f71461016957600080fd5b61041f565b346101bf5760403660031901126101bf576101876109ea565b61018f610a00565b6001600160a01b039182166000908152600160209081526040808320949093168252928352819020549051908152f35b600080fd5b346101bf5760203660031901126101bf5760206101fd6101e26109ea565b6001600160a01b031660009081526020819052604090205490565b604051908152f35b346101bf5760e03660031901126101bf5761021e6109ea565b610226610a00565b604435906064359260843560ff811681036101bf5784421161033b576102fc6103059160018060a01b038416968760005260076020526040600020908154916001830190556040519060208201927f6e71edae12b1b97f4d1f60370fef10105fa2faae0126114a169c64845d6126c984528a604084015260018060a01b038916606084015289608084015260a083015260c082015260c081526102ca60e082610a76565b5190206102d5610d07565b906040519161190160f01b83526002830152602282015260c43591604260a4359220611155565b909291926111de565b6001600160a01b031684810361032257506103209350611050565b005b84906325c0072360e11b60005260045260245260446000fd5b8463313c898160e11b60005260045260246000fd5b610a16565b346101bf5761036336610a3c565b6001600160a01b038116600090815260208190526040902054919291808311610396575081806101fd9260209533610fa7565b9250632e52afbb60e21b60005260018060a01b031660045260245260445260646000fd5b346101bf576103c836610a3c565b6001600160a01b0381166000908152602081905260409020549192918083116103fb575081806101fd9260209533610fa7565b9250633fa733bb60e21b60005260018060a01b031660045260245260445260646000fd5b346101bf5760203660031901126101bf5760206040516004358152f35b346101bf5760203660031901126101bf5760043561045a8133610f26565b6008549060001982146104a65760018201600855816000526009602052604060002055600052600a6020526040600020336bffffffffffffffffffffffff60a01b825416179055600080f35b634e487b7160e01b600052601160045260246000fd5b346101bf5760403660031901126101bf576104e26104d86109ea565b6024359033610c42565b602060405160018152f35b346101bf5760003660031901126101bf57604051600060045461050f81610aae565b80845290600181169081156105ae575060011461054f575b61054b8361053781850382610a76565b6040519182916020835260208301906109a9565b0390f35b600460009081527f8a35acfbc15ff81a39ae7d344fd709f28e8600b4aa8c65c6b64bfe7fe36bd19b939250905b80821061059457509091508101602001610537610527565b91926001816020925483858801015201910190929161057c565b60ff191660208086019190915291151560051b840190910191506105379050610527565b346101bf5760403660031901126101bf5760206004356101fd81806105f5610a00565b33610e23565b346101bf5760003660031901126101bf5761069a6106387f00000000000000000000000000000000000000000000000000000000000000006110b7565b6106617f000000000000000000000000000000000000000000000000000000000000000061111e565b60206106a8604051926106748385610a76565b600084526000368137604051958695600f60f81b875260e08588015260e08701906109a9565b9085820360408701526109a9565b466060850152306080850152600060a085015283810360c085015281808451928381520193019160005b8281106106e157505050500390f35b8351855286955093810193928101926001016106d2565b346101bf5760203660031901126101bf576001600160a01b036107196109ea565b1660005260076020526020604060002054604051908152f35b346101bf5760003660031901126101bf576040517f00000000000000000000000000000000000000000000000000000000000000006001600160a01b03168152602090f35b346101bf5760003660031901126101bf5760206101fd610d07565b346101bf5760003660031901126101bf5760ff7f00000000000000000000000000000000000000000000000000000000000000001660ff81116104a657602090604051908152f35b346101bf5760603660031901126101bf576104e26107f66109ea565b6107fe610a00565b6044359161080d833383610b6b565b610c42565b346101bf5760003660031901126101bf576020600254604051908152f35b346101bf5760403660031901126101bf576104e261084c6109ea565b6024359033611050565b346101bf5760003660031901126101bf57604051600060035461087881610aae565b80845290600181169081156105ae575060011461089f5761054b8361053781850382610a76565b600360009081527fc2575a0e9e593c00f959f8c92f12db2869c3395a3b0502d05e2516446f71f85b939250905b8082106108e457509091508101602001610537610527565b9192600181602092548385880101520191019092916108cc565b346101bf5760003660031901126101bf576370a0823160e01b81523060048201526020816024817f00000000000000000000000000000000000000000000000000000000000000006001600160a01b03165afa801561099d5760009061096a575b602090604051908152f35b506020813d602011610995575b8161098460209383610a76565b810103126101bf576020905161095f565b3d9150610977565b6040513d6000823e3d90fd5b919082519283825260005b8481106109d5575050826000602080949584010152601f8019910116010190565b806020809284010151828286010152016109b4565b600435906001600160a01b03821682036101bf57565b602435906001600160a01b03821682036101bf57565b346101bf5760203660031901126101bf57610a2f6109ea565b5060206040516000198152f35b60609060031901126101bf57600435906024356001600160a01b03811681036101bf57906044356001600160a01b03811681036101bf5790565b90601f8019910116810190811067ffffffffffffffff821117610a9857604052565b634e487b7160e01b600052604160045260246000fd5b90600182811c92168015610ade575b6020831014610ac857565b634e487b7160e01b600052602260045260246000fd5b91607f1691610abd565b60009291815491610af883610aae565b8083529260018116908115610b4e5750600114610b1457505050565b60009081526020812093945091925b838310610b34575060209250010190565b600181602092949394548385870101520191019190610b23565b915050602093945060ff929192191683830152151560051b010190565b6001600160a01b039081166000818152600160209081526040808320948616835293905291909120549291906000198410610ba7575b50505050565b828410610c1d578015610c07576001600160a01b03821615610bf157600052600160205260406000209060018060a01b031660005260205260406000209103905538808080610ba1565b634a1406b160e11b600052600060045260246000fd5b63e602df0560e01b600052600060045260246000fd5b508290637dc7a0d960e11b60005260018060a01b031660045260245260445260646000fd5b6001600160a01b0316908115610cf1576001600160a01b0316918215610cdb576000828152806020526040812054828110610cc15791604082827fddf252ad1be2c89b69c2b068fc378daa952ba7f163c4a11628f55a4df523b3ef958760209652828652038282205586815280845220818154019055604051908152a3565b916064928463391434e360e21b8452600452602452604452fd5b63ec442f0560e01b600052600060045260246000fd5b634b637e8f60e11b600052600060045260246000fd5b307f00000000000000000000000000000000000000000000000000000000000000006001600160a01b03161480610dfa575b15610d62577f000000000000000000000000000000000000000000000000000000000000000090565b60405160208101907f8b73c3c69bb8fe3d512ecc4cf759cc79239f7b179b0ffacaa9a75d522b39400f82527f000000000000000000000000000000000000000000000000000000000000000060408201527f000000000000000000000000000000000000000000000000000000000000000060608201524660808201523060a082015260a08152610df460c082610a76565b51902090565b507f00000000000000000000000000000000000000000000000000000000000000004614610d39565b6040516323b872dd60e01b60208201526001600160a01b03909116602482018190523060448301526064808301859052825292939190610e9790610e68608482610a76565b7f00000000000000000000000000000000000000000000000000000000000000006001600160a01b0316611266565b6001600160a01b0316928315610cdb57600254908282018092116104a6577fdcbc1c05240f31ff3ad067ef1ee35ce4997762752e3a095284754544f4c709d792604092600255856000818152806020528481208381540190557fddf252ad1be2c89b69c2b068fc378daa952ba7f163c4a11628f55a4df523b3ef60208651858152a382519182526020820152a3565b6001600160a01b03168015610cf157600091818352826020526040832054818110610f8e57817fddf252ad1be2c89b69c2b068fc378daa952ba7f163c4a11628f55a4df523b3ef926020928587528684520360408620558060025403600255604051908152a3565b6064939263391434e360e21b8452600452602452604452fd5b6001600160a01b03808416959294908216937ffbde797d201c681b91056529119e0b02407c7bb96a4a2c75c01fc9667232c8db936040939091610ff791839190828b8a0361103f575b5050610f26565b825163a9059cbb60e01b60208201526001600160a01b0390961660248701819052604480880184905287529561103290610e68606482610a76565b82519182526020820152a4565b6110499183610b6b565b3882610ff0565b6001600160a01b0316908115610c07576001600160a01b0316918215610bf15760207f8c5be1e5ebec7d5bd14f71427d1e84f3dd0314c0f7b2291e5b200ac8c7c3b925918360005260018252604060002085600052825280604060002055604051908152a3565b60ff81146111015760ff811690601f82116110f05760408051926110db8285610a76565b6020808552840191601f190136833783525290565b632cd44ac360e21b60005260046000fd5b5060405161111b81611114816005610ae8565b0382610a76565b90565b60ff81146111425760ff811690601f82116110f05760408051926110db8285610a76565b5060405161111b81611114816006610ae8565b91907f7fffffffffffffffffffffffffffffff5d576e7357a4501ddfe92f46681b20a084116111d2579160209360809260ff60009560405194855216868401526040830152606082015282805260015afa1561099d576000516001600160a01b038116156111c65790600090600090565b50600090600190600090565b50505060009160039190565b919091600481101561125057806111f457509050565b60006001820361120f5763f645eedf60e01b60005260046000fd5b506002810361122d578263fce698f760e01b60005260045260246000fd5b909160036000921461123d575050565b6335e2f38360e21b825260045260249150fd5b634e487b7160e01b600052602160045260246000fd5b906000602091828151910182855af11561099d576000513d6112b857506001600160a01b0381163b155b6112975750565b635274afe760e01b60009081526001600160a01b0391909116600452602490fd5b6001141561129056fea164736f6c634300081c000a",
  "linkReferences": {},
  "deployedLinkReferences": {}
}