{
  "_format": "hh-sol-artifact-1",
  "contractName": "MockAsyncRedemptionVault",
  "sourceName": "contracts/prime/mocks/MockAsyncRedemptionVault.sol",
  "abi": [
    {
      "inputs": [
        {
          "internalType": "address",
          "name": "asset",
          "type": "address"
        },
        {
          "internalType": "string",
          "name": "name",
          "type": "string"
        },
        {
          "internalType": "string",
          "name": "symbol",
          "type": "string"
        }
      ],
      "stateMutability": "nonpayable",
      "type": "constructor"
    },
    {
      "inputs": [],
      "name": "ECDSAInvalidSignature",
      "type": "error"
    },
    {
      "inputs": [
        {
          "internalType": "uint256",
          "name": "length",
          "type": "uint256"
        }
      ],
      "name": "ECDSAInvalidSignatureLength",
      "type": "error"
    },
    {
      "inputs": [
        {
          "internalType": "bytes32",
          "name": "s",
          "type": "bytes32"
        }
      ],
      "name": "ECDSAInvalidSignatureS",
      "type": "error"
    },
    {
      "inputs": [
        {
          "internalType": "address",
          "name": "spender",
          "type": "address"
        },
        {
          "internalType": "uint256",
          "name": "allowance",
          "type": "uint256"
        },
        {
          "internalType": "uint256",
          "name": "needed",
          "type": "uint256"
        }
      ],
      "name": "ERC20InsufficientAllowance",
      "type": "error"
    },
    {
      "inputs": [
        {
          "internalType": "address",
          "name": "sender",
          "type": "address"
        },
        {
          "internalType": "uint256",
          "name": "balance",
          "type": "uint256"
        },
        {
          "internalType": "uint256",
          "name": "needed",
          "type": "uint256"
        }
      ],
      "name": "ERC20InsufficientBalance",
      "type": "error"
    },
    {
      "inputs": [
        {
          "internalType": "address",
          "name": "approver",
          "type": "address"
        }
      ],
      "name": "ERC20InvalidApprover",
      "type": "error"
    },
    {
      "inputs": [
        {
          "internalType": "address",
          "name": "receiver",
          "type": "address"
        }
      ],
      "name": "ERC20InvalidReceiver",
      "type": "error"
    },
    {
      "inputs": [
        {
          "internalType": "address",
          "name": "sender",
          "type": "address"
        }
      ],
      "name": "ERC20InvalidSender",
      "type": "error"
    },
    {
      "inputs": [
        {
          "internalType": "address",
          "name": "spender",
          "type": "address"
        }
      ],
      "name": "ERC20InvalidSpender",
      "type": "error"
    },
    {
      "inputs": [
        {
          "internalType": "uint256",
          "name": "deadline",
          "type": "uint256"
        }
      ],
      "name": "ERC2612ExpiredSignature",
      "type": "error"
    },
    {
      "inputs": [
        {
          "internalType": "address",
          "name": "signer",
          "type": "address"
        },
        {
          "internalType": "address",
          "name": "owner",
          "type": "address"
        }
      ],
      "name": "ERC2612InvalidSigner",
      "type": "error"
    },
    {
      "inputs": [
        {
          "internalType": "address",
          "name": "receiver",
          "type": "address"
        },
        {
          "internalType": "uint256",
          "name": "assets",
          "type": "uint256"
        },
        {
          "internalType": "uint256",
          "name": "max",
          "type": "uint256"
        }
      ],
      "name": "ERC4626ExceededMaxDeposit",
      "type": "error"
    },
    {
      "inputs": [
        {
          "internalType": "address",
          "name": "receiver",
          "type": "address"
        },
        {
          "internalType": "uint256",
          "name": "shares",
          "type": "uint256"
        },
        {
          "internalType": "uint256",
          "name": "max",
          "type": "uint256"
        }
      ],
      "name": "ERC4626ExceededMaxMint",
      "type": "error"
    },
    {
      "inputs": [
        {
          "internalType": "address",
          "name": "owner",
          "type": "address"
        },
        {
          "internalType": "uint256",
          "name": "shares",
          "type": "uint256"
        },
        {
          "internalType": "uint256",
          "name": "max",
          "type": "uint256"
        }
      ],
      "name": "ERC4626ExceededMaxRedeem",
      "type": "error"
    },
    {
      "inputs": [
        {
          "internalType": "address",
          "name": "owner",
          "type": "address"
        },
        {
          "internalType": "uint256",
          "name": "assets",
          "type": "uint256"
        },
        {
          "internalType": "uint256",
          "name": "max",
          "type": "uint256"
        }
      ],
      "name": "ERC4626ExceededMaxWithdraw",
      "type": "error"
    },
    {
      "inputs": [
        {
          "internalType": "address",
          "name": "account",
          "type": "address"
        },
        {
          "internalType": "uint256",
          "name": "currentNonce",
          "type": "uint256"
        }
      ],
      "name": "InvalidAccountNonce",
      "type": "error"
    },
    {
      "inputs": [],
      "name": "InvalidShortString",
      "type": "error"
    },
    {
      "inputs": [
        {
          "internalType": "address",
          "name": "token",
          "type": "address"
        }
      ],
      "name": "SafeERC20FailedOperation",
      "type": "error"
    },
    {
      "inputs": [
        {
          "internalType": "string",
          "name": "str",
          "type": "string"
        }
      ],
      "name": "StringTooLong",
      "type": "error"
    },
    {
      "anonymous": false,
      "inputs": [
        {
          "indexed": true,
          "internalType": "address",
          "name": "owner",
          "type": "address"
        },
        {
          "indexed": true,
          "internalType": "address",
          "name": "spender",
          "type": "address"
        },
        {
          "indexed": false,
          "internalType": "uint256",
          "name": "value",
          "type": "uint256"
        }
      ],
      "name": "Approval",
      "type": "event"
    },
    {
      "anonymous": false,
      "inputs": [
        {
          "indexed": true,
          "internalType": "address",
          "name": "sender",
          "type": "address"
        },
        {
          "indexed": true,
          "internalType": "address",
          "name": "owner",
          "type": "address"
        },
        {
          "indexed": false,
          "internalType": "uint256",
          "name": "assets",
          "type": "uint256"
        },
        {
          "indexed": false,
          "internalType": "uint256",
          "name": "shares",
          "type": "uint256"
        }
      ],
      "name": "Deposit",
      "type": "event"
    },
    {
      "anonymous": false,
      "inputs": [],
      "name": "EIP712DomainChanged",
      "type": "event"
    },
    {
      "anonymous": false,
      "inputs": [
        {
          "indexed": true,
          "internalType": "address",
          "name": "from",
          "type": "address"
        },
        {
          "indexed": true,
          "internalType": "address",
          "name": "to",
          "type": "address"
        },
        {
          "indexed": false,
          "internalType": "uint256",
          "name": "value",
          "type": "uint256"
        }
      ],
      "name": "Transfer",
      "type": "event"
    },
    {
      "anonymous": false,
      "inputs": [
        {
          "indexed": true,
          "internalType": "address",
          "name": "sender",
          "type": "address"
        },
        {
          "indexed": true,
          "internalType": "address",
          "name": "receiver",
          "type": "address"
        },
        {
          "indexed": true,
          "internalType": "address",
          "name": "owner",
          "type": "address"
        },
        {
          "indexed": false,
          "internalType": "uint256",
          "name": "assets",
          "type": "uint256"
        },
        {
          "indexed": false,
          "internalType": "uint256",
          "name": "shares",
          "type": "uint256"
        }
      ],
      "name": "Withdraw",
      "type": "event"
    },
    {
      "inputs": [],
      "name": "DOMAIN_SEPARATOR",
      "outputs": [
        {
          "internalType": "bytes32",
          "name": "",
          "type": "bytes32"
        }
      ],
      "stateMutability": "view",
      "type": "function"
    },
    {
      "inputs": [
        {
          "internalType": "address",
          "name": "owner",
          "type": "address"
        },
        {
          "internalType": "address",
          "name": "spender",
          "type": "address"
        }
      ],
      "name": "allowance",
      "outputs": [
        {
          "internalType": "uint256",
          "name": "",
          "type": "uint256"
        }
      ],
      "stateMutability": "view",
      "type": "function"
    },
    {
      "inputs": [
        {
          "internalType": "address",
          "name": "spender",
          "type": "address"
        },
        {
          "internalType": "uint256",
          "name": "value",
          "type": "uint256"
        }
      ],
      "name": "approve",
      "outputs": [
        {
          "internalType": "bool",
          "name": "",
          "type": "bool"
        }
      ],
      "stateMutability": "nonpayable",
      "type": "function"
    },
    {
      "inputs": [],
      "name": "asset",
      "outputs": [
        {
          "internalType": "address",
          "name": "",
          "type": "address"
        }
      ],
      "stateMutability": "view",
      "type": "function"
    },
    {
      "inputs": [
        {
          "internalType": "address",
          "name": "account",
          "type": "address"
        }
      ],
      "name": "balanceOf",
      "outputs": [
        {
          "internalType": "uint256",
          "name": "",
          "type": "uint256"
        }
      ],
      "stateMutability": "view",
      "type": "function"
    },
    {
      "inputs": [
        {
          "internalType": "uint256",
          "name": "shares",
          "type": "uint256"
        }
      ],
      "name": "convertToAssets",
      "outputs": [
        {
          "internalType": "uint256",
          "name": "",
          "type": "uint256"
        }
      ],
      "stateMutability": "view",
      "type": "function"
    },
    {
      "inputs": [
        {
          "internalType": "uint256",
          "name": "assets",
          "type": "uint256"
        }
      ],
      "name": "convertToShares",
      "outputs": [
        {
          "internalType": "uint256",
          "name": "",
          "type": "uint256"
        }
      ],
      "stateMutability": "view",
      "type": "function"
    },
    {
      "inputs": [],
      "name": "decimals",
      "outputs": [
        {
          "internalType": "uint8",
          "name": "",
          "type": "uint8"
        }
      ],
      "stateMutability": "view",
      "type": "function"
    },
    {
      "inputs": [
        {
          "internalType": "uint256",
          "name": "assets",
          "type": "uint256"
        },
        {
          "internalType": "address",
          "name": "receiver",
          "type": "address"
        }
      ],
      "name": "deposit",
      "outputs": [
        {
          "internalType": "uint256",
          "name": "",
          "type": "uint256"
        }
      ],
      "stateMutability": "nonpayable",
      "type": "function"
    },
    {
      "inputs": [],
      "name": "eip712Domain",
      "outputs": [
        {
          "internalType": "bytes1",
          "name": "fields",
          "type": "bytes1"
        },
        {
          "internalType": "string",
          "name": "name",
          "type": "string"
        },
        {
          "internalType": "string",
          "name": "version",
          "type": "string"
        },
        {
          "internalType": "uint256",
          "name": "chainId",
          "type": "uint256"
        },
        {
          "internalType": "address",
          "name": "verifyingContract",
          "type": "address"
        },
        {
          "internalType": "bytes32",
          "name": "salt",
          "type": "bytes32"
        },
        {
          "internalType": "uint256[]",
          "name": "extensions",
          "type": "uint256[]"
        }
      ],
      "stateMutability": "view",
      "type": "function"
    },
    {
      "inputs": [
        {
          "internalType": "address",
          "name": "",
          "type": "address"
        }
      ],
      "name": "maxDeposit",
      "outputs": [
        {
          "internalType": "uint256",
          "name": "",
          "type": "uint256"
        }
      ],
      "stateMutability": "view",
      "type": "function"
    },
    {
      "inputs": [
        {
          "internalType": "address",
          "name": "",
          "type": "address"
        }
      ],
      "name": "maxMint",
      "outputs": [
        {
          "internalType": "uint256",
          "name": "",
          "type": "uint256"
        }
      ],
      "stateMutability": "view",
      "type": "function"
    },
    {
      "inputs": [
        {
          "internalType": "address",
          "name": "owner",
          "type": "address"
        }
      ],
      "name": "maxRedeem",
      "outputs": [
        {
          "internalType": "uint256",
          "name": "",
          "type": "uint256"
        }
      ],
      "stateMutability": "view",
      "type": "function"
    },
    {
      "inputs": [
        {
          "internalType": "address",
          "name": "owner",
          "type": "address"
        }
      ],
      "name": "maxWithdraw",
      "outputs": [
        {
          "internalType": "uint256",
          "name": "",
          "type": "uint256"
        }
      ],
      "stateMutability": "view",
      "type": "function"
    },
    {
      "inputs": [
        {
          "internalType": "uint256",
          "name": "shares",
          "type": "uint256"
        },
        {
          "internalType": "address",
          "name": "receiver",
          "type": "address"
        }
      ],
      "name": "mint",
      "outputs": [
        {
          "internalType": "uint256",
          "name": "",
          "type": "uint256"
        }
      ],
      "stateMutability": "nonpayable",
      "type": "function"
    },
    {
      "inputs": [],
      "name": "name",
      "outputs": [
        {
          "internalType": "string",
          "name": "",
          "type": "string"
        }
      ],
      "stateMutability": "view",
      "type": "function"
    },
    {
      "inputs": [
        {
          "internalType": "address",
          "name": "owner",
          "type": "address"
        }
      ],
      "name": "nonces",
      "outputs": [
        {
          "internalType": "uint256",
          "name": "",
          "type": "uint256"
        }
      ],
      "stateMutability": "view",
      "type": "function"
    },
    {
      "inputs": [
        {
          "internalType": "address",
          "name": "owner",
          "type": "address"
        },
        {
          "internalType": "address",
          "name": "spender",
          "type": "address"
        },
        {
          "internalType": "uint256",
          "name": "value",
          "type": "uint256"
        },
        {
          "internalType": "uint256",
          "name": "deadline",
          "type": "uint256"
        },
        {
          "internalType": "uint8",
          "name": "v",
          "type": "uint8"
        },
        {
          "internalType": "bytes32",
          "name": "r",
          "type": "bytes32"
        },
        {
          "internalType": "bytes32",
          "name": "s",
          "type": "bytes32"
        }
      ],
      "name": "permit",
      "outputs": [],
      "stateMutability": "nonpayable",
      "type": "function"
    },
    {
      "inputs": [
        {
          "internalType": "uint256",
          "name": "assets",
          "type": "uint256"
        }
      ],
      "name": "previewDeposit",
      "outputs": [
        {
          "internalType": "uint256",
          "name": "",
          "type": "uint256"
        }
      ],
      "stateMutability": "view",
      "type": "function"
    },
    {
      "inputs": [
        {
          "internalType": "uint256",
          "name": "shares",
          "type": "uint256"
        }
      ],
      "name": "previewMint",
      "outputs": [
        {
          "internalType": "uint256",
          "name": "",
          "type": "uint256"
        }
      ],
      "stateMutability": "view",
      "type": "function"
    },
    {
      "inputs": [
        {
          "internalType": "uint256",
          "name": "shares",
          "type": "uint256"
        }
      ],
      "name": "previewRedeem",
      "outputs": [
        {
          "internalType": "uint256",
          "name": "",
          "type": "uint256"
        }
      ],
      "stateMutability": "view",
      "type": "function"
    },
    {
      "inputs": [
        {
          "internalType": "uint256",
          "name": "assets",
          "type": "uint256"
        }
      ],
      "name": "previewWithdraw",
      "outputs": [
        {
          "internalType": "uint256",
          "name": "",
          "type": "uint256"
        }
      ],
      "stateMutability": "view",
      "type": "function"
    },
    {
      "inputs": [
        {
          "internalType": "uint256",
          "name": "shares",
          "type": "uint256"
        },
        {
          "internalType": "address",
          "name": "receiver",
          "type": "address"
        },
        {
          "internalType": "address",
          "name": "owner",
          "type": "address"
        }
      ],
      "name": "redeem",
      "outputs": [
        {
          "internalType": "uint256",
          "name": "",
          "type": "uint256"
        }
      ],
      "stateMutability": "nonpayable",
      "type": "function"
    },
    {
      "inputs": [
        {
          "internalType": "uint256",
          "name": "shares",
          "type": "uint256"
        }
      ],
      "name": "requestRedeem",
      "outputs": [],
      "stateMutability": "nonpayable",
      "type": "function"
    },
    {
      "inputs": [],
      "name": "symbol",
      "outputs": [
        {
          "internalType": "string",
          "name": "",
          "type": "string"
        }
      ],
      "stateMutability": "view",
      "type": "function"
    },
    {
      "inputs": [],
      "name": "totalAssets",
      "outputs": [
        {
          "internalType": "uint256",
          "name": "",
          "type": "uint256"
        }
      ],
      "stateMutability": "view",
      "type": "function"
    },
    {
      "inputs": [],
      "name": "totalSupply",
      "outputs": [
        {
          "internalType": "uint256",
          "name": "",
          "type": "uint256"
        }
      ],
      "stateMutability": "view",
      "type": "function"
    },
    {
      "inputs": [
        {
          "internalType": "address",
          "name": "to",
          "type": "address"
        },
        {
          "internalType": "uint256",
          "name": "value",
          "type": "uint256"
        }
      ],
      "name": "transfer",
      "outputs": [
        {
          "internalType": "bool",
          "name": "",
          "type": "bool"
        }
      ],
      "stateMutability": "nonpayable",
      "type": "function"
    },
    {
      "inputs": [
        {
          "internalType": "address",
          "name": "from",
          "type": "address"
        },
        {
          "internalType": "address",
          "name": "to",
          "type": "address"
        },
        {
          "internalType": "uint256",
          "name": "value",
          "type": "uint256"
        }
      ],
      "name": "transferFrom",
      "outputs": [
        {
          "internalType": "bool",
          "name": "",
          "type": "bool"
        }
      ],
      "stateMutability": "nonpayable",
      "type": "function"
    },
    {
      "inputs": [
        {
          "internalType": "uint256",
          "name": "assets",
          "type": "uint256"
        },
        {
          "internalType": "address",
          "name": "receiver",
          "type": "address"
        },
        {
          "internalType": "address",
          "name": "owner",
          "type": "address"
        }
      ],
      "name": "withdraw",
      "outputs": [
        {
          "internalType": "uint256",
          "name": "",
          "type": "uint256"
        }
      ],
      "stateMutability": "nonpayable",
      "type": "function"
    }
  ],
  "bytecode": "0x6101a0806040523461047b57611b22803803809161001d8285610480565b833981019060608183031261047b5780516001600160a01b038116919082900361047b5760208101516001600160401b03811161047b57836100609183016104e1565b60408201519093906001600160401b03811161047b5761008092016104e1565b6040928351926100908585610480565b60018452603160f81b6020850190815282519093906001600160401b03811161038557600354600181811c91168015610471575b602082101461036557601f811161040c575b50806020601f82116001146103a65760009161039b575b508160011b916000199060031b1c1916176003555b8051906001600160401b0382116103855760045490600182811c9216801561037b575b60208310146103655781601f8493116102f5575b50602090601f831160011461028d57600092610282575b50508160011b916000199060031b1c1916176004555b61016f816107f9565b901561027a575b60a05260805261018581610526565b61016052610192836106b7565b610180526020815191012091826101205251902080610140524660e05282519060208201927f8b73c3c69bb8fe3d512ecc4cf759cc79239f7b179b0ffacaa9a75d522b39400f84528483015260608201524660808201523060a082015260a081526101fe60c082610480565b51902060c05230610100525161128190816108a182396080518181816106e5015281816108da0152610e1d015260a05181610744015260c05181610cf3015260e05181610db001526101005181610cbd01526101205181610d4201526101405181610d68015261016051816105b1015261018051816105da0152f35b506012610176565b015190503880610150565b600460009081528281209350601f198516905b8181106102dd57509084600195949392106102c4575b505050811b01600455610166565b015160001960f88460031b161c191690553880806102b6565b929360206001819287860151815501950193016102a0565b60046000529091507f8a35acfbc15ff81a39ae7d344fd709f28e8600b4aa8c65c6b64bfe7fe36bd19b601f840160051c8101916020851061035b575b90601f859493920160051c01905b81811061034c5750610139565b6000815584935060010161033f565b9091508190610331565b634e487b7160e01b600052602260045260246000fd5b91607f1691610125565b634e487b7160e01b600052604160045260246000fd5b9050840151386100ed565b600360009081528181209250601f198416905b8181106103f4575090836001949392106103db575b5050811b01600355610102565b86015160001960f88460031b161c1916905538806103ce565b9192602060018192868b0151815501940192016103b9565b60036000527fc2575a0e9e593c00f959f8c92f12db2869c3395a3b0502d05e2516446f71f85b601f830160051c81019160208410610467575b601f0160051c01905b81811061045b57506100d6565b6000815560010161044e565b9091508190610445565b90607f16906100c4565b600080fd5b601f909101601f19168101906001600160401b0382119082101761038557604052565b6001600160401b03811161038557601f01601f191660200190565b60005b8381106104d15750506000910152565b81810151838201526020016104c1565b81601f8201121561047b5780516104f7816104a3565b926105056040519485610480565b8184526020828401011161047b5761052391602080850191016104be565b90565b908151602081106000146105a1575090601f815111610562576020815191015160208210610552571790565b6000198260200360031b1b161790565b6044604051809263305a27a960e01b82526020600483015261059381518092816024860152602086860191016104be565b601f01601f19168101030190fd5b6001600160401b03811161038557600554600181811c911680156106ad575b602082101461036557601f8111610677575b50602092601f82116001146106125792819293600092610607575b50508160011b916000199060031b1c19161760055560ff90565b0151905038806105ed565b601f198216936005600052806000209160005b86811061065f5750836001959610610646575b505050811b0160055560ff90565b015160001960f88460031b161c19169055388080610638565b91926020600181928685015181550194019201610625565b6005600052601f6020600020910160051c810190601f830160051c015b8181106106a157506105d2565b60008155600101610694565b90607f16906105c0565b908151602081106000146106e3575090601f815111610562576020815191015160208210610552571790565b6001600160401b03811161038557600654600181811c911680156107ef575b602082101461036557601f81116107b9575b50602092601f82116001146107545792819293600092610749575b50508160011b916000199060031b1c19161760065560ff90565b01519050388061072f565b601f198216936006600052806000209160005b8681106107a15750836001959610610788575b505050811b0160065560ff90565b015160001960f88460031b161c1916905538808061077a565b91926020600181928685015181550194019201610767565b6006600052601f6020600020910160051c810190601f830160051c015b8181106107e35750610714565b600081556001016107d6565b90607f1690610702565b60008091604051602081019063313ce56760e01b82526004815261081e602482610480565b51916001600160a01b03165afa3d15610898573d9061083c826104a3565b9161084a6040519384610480565b82523d6000602084013e5b8061088c575b610869575b50600090600090565b60208180518101031261047b576020015160ff8111610860579060ff6001921690565b5060208151101561085b565b60609061085556fe608080604052600436101561001357600080fd5b60003560e01c90816301e1d114146108b15750806306fdde031461080957806307a2d13a14610169578063095ea7b3146107e35780630a28a4771461041f57806318160ddd146107c557806323b872dd1461078d578063313ce5671461072f5780633644e5151461071457806338d52e0f146106cf578063402d267d146103505780634cdad506146101695780636e553f651461056f57806370a08231146101c45780637ecebe001461069557806384b0196e1461059857806394bf804d1461056f57806395d89b411461048a578063a9059cbb14610459578063aa2f892d1461043c578063b3d7f6b91461041f578063b460af94146103ba578063ba08765214610355578063c63d75b614610350578063c6e6f59214610169578063ce96cb77146101c4578063d505accf14610205578063d905777e146101c4578063dd62ed3e1461016e5763ef8b30f71461016957600080fd5b61041f565b346101bf5760403660031901126101bf5761018761099d565b61018f6109b3565b6001600160a01b039182166000908152600160209081526040808320949093168252928352819020549051908152f35b600080fd5b346101bf5760203660031901126101bf5760206101fd6101e261099d565b6001600160a01b031660009081526020819052604090205490565b604051908152f35b346101bf5760e03660031901126101bf5761021e61099d565b6102266109b3565b604435906064359260843560ff811681036101bf5784421161033b576102fc6103059160018060a01b038416968760005260076020526040600020908154916001830190556040519060208201927f6e71edae12b1b97f4d1f60370fef10105fa2faae0126114a169c64845d6126c984528a604084015260018060a01b038916606084015289608084015260a083015260c082015260c081526102ca60e082610a29565b5190206102d5610cba565b906040519161190160f01b83526002830152602282015260c43591604260a4359220611108565b90929192611191565b6001600160a01b031684810361032257506103209350611003565b005b84906325c0072360e11b60005260045260245260446000fd5b8463313c898160e11b60005260045260246000fd5b6109c9565b346101bf57610363366109ef565b6001600160a01b038116600090815260208190526040902054919291808311610396575081806101fd9260209533610f5a565b9250632e52afbb60e21b60005260018060a01b031660045260245260445260646000fd5b346101bf576103c8366109ef565b6001600160a01b0381166000908152602081905260409020549192918083116103fb575081806101fd9260209533610f5a565b9250633fa733bb60e21b60005260018060a01b031660045260245260445260646000fd5b346101bf5760203660031901126101bf5760206040516004358152f35b346101bf5760203660031901126101bf5761032060043533610ed9565b346101bf5760403660031901126101bf5761047f61047561099d565b6024359033610bf5565b602060405160018152f35b346101bf5760003660031901126101bf5760405160006004546104ac81610a61565b808452906001811690811561054b57506001146104ec575b6104e8836104d481850382610a29565b60405191829160208352602083019061095c565b0390f35b600460009081527f8a35acfbc15ff81a39ae7d344fd709f28e8600b4aa8c65c6b64bfe7fe36bd19b939250905b808210610531575090915081016020016104d46104c4565b919260018160209254838588010152019101909291610519565b60ff191660208086019190915291151560051b840190910191506104d490506104c4565b346101bf5760403660031901126101bf5760206004356101fd81806105926109b3565b33610dd6565b346101bf5760003660031901126101bf576106376105d57f000000000000000000000000000000000000000000000000000000000000000061106a565b6105fe7f00000000000000000000000000000000000000000000000000000000000000006110d1565b6020610645604051926106118385610a29565b600084526000368137604051958695600f60f81b875260e08588015260e087019061095c565b90858203604087015261095c565b466060850152306080850152600060a085015283810360c085015281808451928381520193019160005b82811061067e57505050500390f35b83518552869550938101939281019260010161066f565b346101bf5760203660031901126101bf576001600160a01b036106b661099d565b1660005260076020526020604060002054604051908152f35b346101bf5760003660031901126101bf576040517f00000000000000000000000000000000000000000000000000000000000000006001600160a01b03168152602090f35b346101bf5760003660031901126101bf5760206101fd610cba565b346101bf5760003660031901126101bf5760ff7f00000000000000000000000000000000000000000000000000000000000000001660ff811161077757602090604051908152f35b634e487b7160e01b600052601160045260246000fd5b346101bf5760603660031901126101bf5761047f6107a961099d565b6107b16109b3565b604435916107c0833383610b1e565b610bf5565b346101bf5760003660031901126101bf576020600254604051908152f35b346101bf5760403660031901126101bf5761047f6107ff61099d565b6024359033611003565b346101bf5760003660031901126101bf57604051600060035461082b81610a61565b808452906001811690811561054b5750600114610852576104e8836104d481850382610a29565b600360009081527fc2575a0e9e593c00f959f8c92f12db2869c3395a3b0502d05e2516446f71f85b939250905b808210610897575090915081016020016104d46104c4565b91926001816020925483858801015201910190929161087f565b346101bf5760003660031901126101bf576370a0823160e01b81523060048201526020816024817f00000000000000000000000000000000000000000000000000000000000000006001600160a01b03165afa80156109505760009061091d575b602090604051908152f35b506020813d602011610948575b8161093760209383610a29565b810103126101bf5760209051610912565b3d915061092a565b6040513d6000823e3d90fd5b919082519283825260005b848110610988575050826000602080949584010152601f8019910116010190565b80602080928401015182828601015201610967565b600435906001600160a01b03821682036101bf57565b602435906001600160a01b03821682036101bf57565b346101bf5760203660031901126101bf576109e261099d565b5060206040516000198152f35b60609060031901126101bf57600435906024356001600160a01b03811681036101bf57906044356001600160a01b03811681036101bf5790565b90601f8019910116810190811067ffffffffffffffff821117610a4b57604052565b634e487b7160e01b600052604160045260246000fd5b90600182811c92168015610a91575b6020831014610a7b57565b634e487b7160e01b600052602260045260246000fd5b91607f1691610a70565b60009291815491610aab83610a61565b8083529260018116908115610b015750600114610ac757505050565b60009081526020812093945091925b838310610ae7575060209250010190565b600181602092949394548385870101520191019190610ad6565b915050602093945060ff929192191683830152151560051b010190565b6001600160a01b039081166000818152600160209081526040808320948616835293905291909120549291906000198410610b5a575b50505050565b828410610bd0578015610bba576001600160a01b03821615610ba457600052600160205260406000209060018060a01b031660005260205260406000209103905538808080610b54565b634a1406b160e11b600052600060045260246000fd5b63e602df0560e01b600052600060045260246000fd5b508290637dc7a0d960e11b60005260018060a01b031660045260245260445260646000fd5b6001600160a01b0316908115610ca4576001600160a01b0316918215610c8e576000828152806020526040812054828110610c745791604082827fddf252ad1be2c89b69c2b068fc378daa952ba7f163c4a11628f55a4df523b3ef958760209652828652038282205586815280845220818154019055604051908152a3565b916064928463391434e360e21b8452600452602452604452fd5b63ec442f0560e01b600052600060045260246000fd5b634b637e8f60e11b600052600060045260246000fd5b307f00000000000000000000000000000000000000000000000000000000000000006001600160a01b03161480610dad575b15610d15577f000000000000000000000000000000000000000000000000000000000000000090565b60405160208101907f8b73c3c69bb8fe3d512ecc4cf759cc79239f7b179b0ffacaa9a75d522b39400f82527f000000000000000000000000000000000000000000000000000000000000000060408201527f000000000000000000000000000000000000000000000000000000000000000060608201524660808201523060a082015260a08152610da760c082610a29565b51902090565b507f00000000000000000000000000000000000000000000000000000000000000004614610cec565b6040516323b872dd60e01b60208201526001600160a01b03909116602482018190523060448301526064808301859052825292939190610e4a90610e1b608482610a29565b7f00000000000000000000000000000000000000000000000000000000000000006001600160a01b0316611219565b6001600160a01b0316928315610c8e5760025490828201809211610777577fdcbc1c05240f31ff3ad067ef1ee35ce4997762752e3a095284754544f4c709d792604092600255856000818152806020528481208381540190557fddf252ad1be2c89b69c2b068fc378daa952ba7f163c4a11628f55a4df523b3ef60208651858152a382519182526020820152a3565b6001600160a01b03168015610ca457600091818352826020526040832054818110610f4157817fddf252ad1be2c89b69c2b068fc378daa952ba7f163c4a11628f55a4df523b3ef926020928587528684520360408620558060025403600255604051908152a3565b6064939263391434e360e21b8452600452602452604452fd5b6001600160a01b03808416959294908216937ffbde797d201c681b91056529119e0b02407c7bb96a4a2c75c01fc9667232c8db936040939091610faa91839190828b8a03610ff2575b5050610ed9565b825163a9059cbb60e01b60208201526001600160a01b03909616602487018190526044808801849052875295610fe590610e1b606482610a29565b82519182526020820152a4565b610ffc9183610b1e565b3882610fa3565b6001600160a01b0316908115610bba576001600160a01b0316918215610ba45760207f8c5be1e5ebec7d5bd14f71427d1e84f3dd0314c0f7b2291e5b200ac8c7c3b925918360005260018252604060002085600052825280604060002055604051908152a3565b60ff81146110b45760ff811690601f82116110a357604080519261108e8285610a29565b6020808552840191601f190136833783525290565b632cd44ac360e21b60005260046000fd5b506040516110ce816110c7816005610a9b565b0382610a29565b90565b60ff81146110f55760ff811690601f82116110a357604080519261108e8285610a29565b506040516110ce816110c7816006610a9b565b91907f7fffffffffffffffffffffffffffffff5d576e7357a4501ddfe92f46681b20a08411611185579160209360809260ff60009560405194855216868401526040830152606082015282805260015afa15610950576000516001600160a01b038116156111795790600090600090565b50600090600190600090565b50505060009160039190565b919091600481101561120357806111a757509050565b6000600182036111c25763f645eedf60e01b60005260046000fd5b50600281036111e0578263fce698f760e01b60005260045260246000fd5b90916003600092146111f0575050565b6335e2f38360e21b825260045260249150fd5b634e487b7160e01b600052602160045260246000fd5b906000602091828151910182855af115610950576000513d61126b57506001600160a01b0381163b155b61124a5750565b635274afe760e01b60009081526001600160a01b0391909116600452602490fd5b6001141561124356fea164736f6c634300081c000a",
  "linkReferences": {},
  "deployedLinkReferences": {}
}