{
  "_format": "hh-sol-artifact-1",
  "contractName": "MockWormhole",
  "sourceName": "contracts/modules/wormhole/MockWormhole.sol",
  "abi": [
    {
      "inputs": [
        {
          "internalType": "uint16",
          "name": "initChainId",
          "type": "uint16"
        },
        {
          "internalType": "uint256",
          "name": "initEvmChainId",
          "type": "uint256"
        }
      ],
      "stateMutability": "nonpayable",
      "type": "constructor"
    },
    {
      "anonymous": false,
      "inputs": [
        {
          "indexed": true,
          "internalType": "address",
          "name": "oldContract",
          "type": "address"
        },
        {
          "indexed": true,
          "internalType": "address",
          "name": "newContract",
          "type": "address"
        }
      ],
      "name": "ContractUpgraded",
      "type": "event"
    },
    {
      "anonymous": false,
      "inputs": [
        {
          "indexed": true,
          "internalType": "uint32",
          "name": "index",
          "type": "uint32"
        }
      ],
      "name": "GuardianSetAdded",
      "type": "event"
    },
    {
      "anonymous": false,
      "inputs": [
        {
          "indexed": true,
          "internalType": "address",
          "name": "sender",
          "type": "address"
        },
        {
          "indexed": false,
          "internalType": "uint64",
          "name": "sequence",
          "type": "uint64"
        },
        {
          "indexed": false,
          "internalType": "uint32",
          "name": "nonce",
          "type": "uint32"
        },
        {
          "indexed": false,
          "internalType": "bytes",
          "name": "payload",
          "type": "bytes"
        },
        {
          "indexed": false,
          "internalType": "uint8",
          "name": "consistencyLevel",
          "type": "uint8"
        }
      ],
      "name": "LogMessagePublished",
      "type": "event"
    },
    {
      "inputs": [],
      "name": "chainId",
      "outputs": [
        {
          "internalType": "uint16",
          "name": "",
          "type": "uint16"
        }
      ],
      "stateMutability": "view",
      "type": "function"
    },
    {
      "inputs": [],
      "name": "evmChainId",
      "outputs": [
        {
          "internalType": "uint256",
          "name": "",
          "type": "uint256"
        }
      ],
      "stateMutability": "view",
      "type": "function"
    },
    {
      "inputs": [],
      "name": "getCurrentGuardianSetIndex",
      "outputs": [
        {
          "internalType": "uint32",
          "name": "",
          "type": "uint32"
        }
      ],
      "stateMutability": "pure",
      "type": "function"
    },
    {
      "inputs": [
        {
          "internalType": "uint32",
          "name": "",
          "type": "uint32"
        }
      ],
      "name": "getGuardianSet",
      "outputs": [
        {
          "components": [
            {
              "internalType": "address[]",
              "name": "keys",
              "type": "address[]"
            },
            {
              "internalType": "uint32",
              "name": "expirationTime",
              "type": "uint32"
            }
          ],
          "internalType": "struct IWormhole.GuardianSet",
          "name": "",
          "type": "tuple"
        }
      ],
      "stateMutability": "pure",
      "type": "function"
    },
    {
      "inputs": [],
      "name": "getGuardianSetExpiry",
      "outputs": [
        {
          "internalType": "uint32",
          "name": "",
          "type": "uint32"
        }
      ],
      "stateMutability": "pure",
      "type": "function"
    },
    {
      "inputs": [
        {
          "internalType": "bytes32",
          "name": "",
          "type": "bytes32"
        }
      ],
      "name": "governanceActionIsConsumed",
      "outputs": [
        {
          "internalType": "bool",
          "name": "",
          "type": "bool"
        }
      ],
      "stateMutability": "pure",
      "type": "function"
    },
    {
      "inputs": [],
      "name": "governanceChainId",
      "outputs": [
        {
          "internalType": "uint16",
          "name": "",
          "type": "uint16"
        }
      ],
      "stateMutability": "pure",
      "type": "function"
    },
    {
      "inputs": [],
      "name": "governanceContract",
      "outputs": [
        {
          "internalType": "bytes32",
          "name": "",
          "type": "bytes32"
        }
      ],
      "stateMutability": "pure",
      "type": "function"
    },
    {
      "inputs": [],
      "name": "initialize",
      "outputs": [],
      "stateMutability": "nonpayable",
      "type": "function"
    },
    {
      "inputs": [
        {
          "internalType": "bytes32",
          "name": "",
          "type": "bytes32"
        }
      ],
      "name": "invalidVMs",
      "outputs": [
        {
          "internalType": "bool",
          "name": "",
          "type": "bool"
        }
      ],
      "stateMutability": "view",
      "type": "function"
    },
    {
      "inputs": [
        {
          "internalType": "bytes",
          "name": "encodedVm",
          "type": "bytes"
        }
      ],
      "name": "invalidateVM",
      "outputs": [],
      "stateMutability": "nonpayable",
      "type": "function"
    },
    {
      "inputs": [],
      "name": "isFork",
      "outputs": [
        {
          "internalType": "bool",
          "name": "",
          "type": "bool"
        }
      ],
      "stateMutability": "pure",
      "type": "function"
    },
    {
      "inputs": [
        {
          "internalType": "address",
          "name": "",
          "type": "address"
        }
      ],
      "name": "isInitialized",
      "outputs": [
        {
          "internalType": "bool",
          "name": "",
          "type": "bool"
        }
      ],
      "stateMutability": "pure",
      "type": "function"
    },
    {
      "inputs": [],
      "name": "messageFee",
      "outputs": [
        {
          "internalType": "uint256",
          "name": "",
          "type": "uint256"
        }
      ],
      "stateMutability": "view",
      "type": "function"
    },
    {
      "inputs": [
        {
          "internalType": "address",
          "name": "emitter",
          "type": "address"
        }
      ],
      "name": "nextSequence",
      "outputs": [
        {
          "internalType": "uint64",
          "name": "",
          "type": "uint64"
        }
      ],
      "stateMutability": "view",
      "type": "function"
    },
    {
      "inputs": [
        {
          "internalType": "bytes",
          "name": "encodedVm",
          "type": "bytes"
        }
      ],
      "name": "parseAndVerifyVM",
      "outputs": [
        {
          "components": [
            {
              "internalType": "uint8",
              "name": "version",
              "type": "uint8"
            },
            {
              "internalType": "uint32",
              "name": "timestamp",
              "type": "uint32"
            },
            {
              "internalType": "uint32",
              "name": "nonce",
              "type": "uint32"
            },
            {
              "internalType": "uint16",
              "name": "emitterChainId",
              "type": "uint16"
            },
            {
              "internalType": "bytes32",
              "name": "emitterAddress",
              "type": "bytes32"
            },
            {
              "internalType": "uint64",
              "name": "sequence",
              "type": "uint64"
            },
            {
              "internalType": "uint8",
              "name": "consistencyLevel",
              "type": "uint8"
            },
            {
              "internalType": "bytes",
              "name": "payload",
              "type": "bytes"
            },
            {
              "internalType": "uint32",
              "name": "guardianSetIndex",
              "type": "uint32"
            },
            {
              "components": [
                {
                  "internalType": "bytes32",
                  "name": "r",
                  "type": "bytes32"
                },
                {
                  "internalType": "bytes32",
                  "name": "s",
                  "type": "bytes32"
                },
                {
                  "internalType": "uint8",
                  "name": "v",
                  "type": "uint8"
                },
                {
                  "internalType": "uint8",
                  "name": "guardianIndex",
                  "type": "uint8"
                }
              ],
              "internalType": "struct IWormhole.Signature[]",
              "name": "signatures",
              "type": "tuple[]"
            },
            {
              "internalType": "bytes32",
              "name": "hash",
              "type": "bytes32"
            }
          ],
          "internalType": "struct IWormhole.VM",
          "name": "vm",
          "type": "tuple"
        },
        {
          "internalType": "bool",
          "name": "valid",
          "type": "bool"
        },
        {
          "internalType": "string",
          "name": "reason",
          "type": "string"
        }
      ],
      "stateMutability": "view",
      "type": "function"
    },
    {
      "inputs": [
        {
          "internalType": "bytes",
          "name": "",
          "type": "bytes"
        }
      ],
      "name": "parseContractUpgrade",
      "outputs": [
        {
          "components": [
            {
              "internalType": "bytes32",
              "name": "module",
              "type": "bytes32"
            },
            {
              "internalType": "uint8",
              "name": "action",
              "type": "uint8"
            },
            {
              "internalType": "uint16",
              "name": "chain",
              "type": "uint16"
            },
            {
              "internalType": "address",
              "name": "newContract",
              "type": "address"
            }
          ],
          "internalType": "struct IWormhole.ContractUpgrade",
          "name": "",
          "type": "tuple"
        }
      ],
      "stateMutability": "pure",
      "type": "function"
    },
    {
      "inputs": [
        {
          "internalType": "bytes",
          "name": "",
          "type": "bytes"
        }
      ],
      "name": "parseGuardianSetUpgrade",
      "outputs": [
        {
          "components": [
            {
              "internalType": "bytes32",
              "name": "module",
              "type": "bytes32"
            },
            {
              "internalType": "uint8",
              "name": "action",
              "type": "uint8"
            },
            {
              "internalType": "uint16",
              "name": "chain",
              "type": "uint16"
            },
            {
              "components": [
                {
                  "internalType": "address[]",
                  "name": "keys",
                  "type": "address[]"
                },
                {
                  "internalType": "uint32",
                  "name": "expirationTime",
                  "type": "uint32"
                }
              ],
              "internalType": "struct IWormhole.GuardianSet",
              "name": "newGuardianSet",
              "type": "tuple"
            },
            {
              "internalType": "uint32",
              "name": "newGuardianSetIndex",
              "type": "uint32"
            }
          ],
          "internalType": "struct IWormhole.GuardianSetUpgrade",
          "name": "",
          "type": "tuple"
        }
      ],
      "stateMutability": "pure",
      "type": "function"
    },
    {
      "inputs": [
        {
          "internalType": "bytes",
          "name": "",
          "type": "bytes"
        }
      ],
      "name": "parseRecoverChainId",
      "outputs": [
        {
          "components": [
            {
              "internalType": "bytes32",
              "name": "module",
              "type": "bytes32"
            },
            {
              "internalType": "uint8",
              "name": "action",
              "type": "uint8"
            },
            {
              "internalType": "uint256",
              "name": "evmChainId",
              "type": "uint256"
            },
            {
              "internalType": "uint16",
              "name": "newChainId",
              "type": "uint16"
            }
          ],
          "internalType": "struct IWormhole.RecoverChainId",
          "name": "",
          "type": "tuple"
        }
      ],
      "stateMutability": "pure",
      "type": "function"
    },
    {
      "inputs": [
        {
          "internalType": "bytes",
          "name": "",
          "type": "bytes"
        }
      ],
      "name": "parseSetMessageFee",
      "outputs": [
        {
          "components": [
            {
              "internalType": "bytes32",
              "name": "module",
              "type": "bytes32"
            },
            {
              "internalType": "uint8",
              "name": "action",
              "type": "uint8"
            },
            {
              "internalType": "uint16",
              "name": "chain",
              "type": "uint16"
            },
            {
              "internalType": "uint256",
              "name": "messageFee",
              "type": "uint256"
            }
          ],
          "internalType": "struct IWormhole.SetMessageFee",
          "name": "",
          "type": "tuple"
        }
      ],
      "stateMutability": "pure",
      "type": "function"
    },
    {
      "inputs": [
        {
          "internalType": "bytes",
          "name": "",
          "type": "bytes"
        }
      ],
      "name": "parseTransferFees",
      "outputs": [
        {
          "components": [
            {
              "internalType": "bytes32",
              "name": "module",
              "type": "bytes32"
            },
            {
              "internalType": "uint8",
              "name": "action",
              "type": "uint8"
            },
            {
              "internalType": "uint16",
              "name": "chain",
              "type": "uint16"
            },
            {
              "internalType": "uint256",
              "name": "amount",
              "type": "uint256"
            },
            {
              "internalType": "bytes32",
              "name": "recipient",
              "type": "bytes32"
            }
          ],
          "internalType": "struct IWormhole.TransferFees",
          "name": "",
          "type": "tuple"
        }
      ],
      "stateMutability": "pure",
      "type": "function"
    },
    {
      "inputs": [
        {
          "internalType": "bytes",
          "name": "encodedVm",
          "type": "bytes"
        }
      ],
      "name": "parseVM",
      "outputs": [
        {
          "components": [
            {
              "internalType": "uint8",
              "name": "version",
              "type": "uint8"
            },
            {
              "internalType": "uint32",
              "name": "timestamp",
              "type": "uint32"
            },
            {
              "internalType": "uint32",
              "name": "nonce",
              "type": "uint32"
            },
            {
              "internalType": "uint16",
              "name": "emitterChainId",
              "type": "uint16"
            },
            {
              "internalType": "bytes32",
              "name": "emitterAddress",
              "type": "bytes32"
            },
            {
              "internalType": "uint64",
              "name": "sequence",
              "type": "uint64"
            },
            {
              "internalType": "uint8",
              "name": "consistencyLevel",
              "type": "uint8"
            },
            {
              "internalType": "bytes",
              "name": "payload",
              "type": "bytes"
            },
            {
              "internalType": "uint32",
              "name": "guardianSetIndex",
              "type": "uint32"
            },
            {
              "components": [
                {
                  "internalType": "bytes32",
                  "name": "r",
                  "type": "bytes32"
                },
                {
                  "internalType": "bytes32",
                  "name": "s",
                  "type": "bytes32"
                },
                {
                  "internalType": "uint8",
                  "name": "v",
                  "type": "uint8"
                },
                {
                  "internalType": "uint8",
                  "name": "guardianIndex",
                  "type": "uint8"
                }
              ],
              "internalType": "struct IWormhole.Signature[]",
              "name": "signatures",
              "type": "tuple[]"
            },
            {
              "internalType": "bytes32",
              "name": "hash",
              "type": "bytes32"
            }
          ],
          "internalType": "struct IWormhole.VM",
          "name": "vm",
          "type": "tuple"
        }
      ],
      "stateMutability": "pure",
      "type": "function"
    },
    {
      "inputs": [
        {
          "internalType": "uint32",
          "name": "nonce",
          "type": "uint32"
        },
        {
          "internalType": "bytes",
          "name": "payload",
          "type": "bytes"
        },
        {
          "internalType": "uint8",
          "name": "consistencyLevel",
          "type": "uint8"
        }
      ],
      "name": "publishMessage",
      "outputs": [
        {
          "internalType": "uint64",
          "name": "sequence",
          "type": "uint64"
        }
      ],
      "stateMutability": "payable",
      "type": "function"
    },
    {
      "inputs": [
        {
          "internalType": "uint256",
          "name": "",
          "type": "uint256"
        }
      ],
      "name": "quorum",
      "outputs": [
        {
          "internalType": "uint256",
          "name": "",
          "type": "uint256"
        }
      ],
      "stateMutability": "pure",
      "type": "function"
    },
    {
      "inputs": [
        {
          "internalType": "address",
          "name": "",
          "type": "address"
        }
      ],
      "name": "sequences",
      "outputs": [
        {
          "internalType": "uint64",
          "name": "",
          "type": "uint64"
        }
      ],
      "stateMutability": "view",
      "type": "function"
    },
    {
      "inputs": [
        {
          "internalType": "uint256",
          "name": "newFee",
          "type": "uint256"
        }
      ],
      "name": "setMessageFee",
      "outputs": [],
      "stateMutability": "nonpayable",
      "type": "function"
    },
    {
      "inputs": [
        {
          "internalType": "bytes",
          "name": "",
          "type": "bytes"
        }
      ],
      "name": "submitContractUpgrade",
      "outputs": [],
      "stateMutability": "pure",
      "type": "function"
    },
    {
      "inputs": [
        {
          "internalType": "bytes",
          "name": "",
          "type": "bytes"
        }
      ],
      "name": "submitNewGuardianSet",
      "outputs": [],
      "stateMutability": "pure",
      "type": "function"
    },
    {
      "inputs": [
        {
          "internalType": "bytes",
          "name": "",
          "type": "bytes"
        }
      ],
      "name": "submitRecoverChainId",
      "outputs": [],
      "stateMutability": "pure",
      "type": "function"
    },
    {
      "inputs": [
        {
          "internalType": "bytes",
          "name": "",
          "type": "bytes"
        }
      ],
      "name": "submitSetMessageFee",
      "outputs": [],
      "stateMutability": "pure",
      "type": "function"
    },
    {
      "inputs": [
        {
          "internalType": "bytes",
          "name": "",
          "type": "bytes"
        }
      ],
      "name": "submitTransferFees",
      "outputs": [],
      "stateMutability": "pure",
      "type": "function"
    },
    {
      "inputs": [
        {
          "internalType": "bytes32",
          "name": "",
          "type": "bytes32"
        },
        {
          "components": [
            {
              "internalType": "bytes32",
              "name": "r",
              "type": "bytes32"
            },
            {
              "internalType": "bytes32",
              "name": "s",
              "type": "bytes32"
            },
            {
              "internalType": "uint8",
              "name": "v",
              "type": "uint8"
            },
            {
              "internalType": "uint8",
              "name": "guardianIndex",
              "type": "uint8"
            }
          ],
          "internalType": "struct IWormhole.Signature[]",
          "name": "",
          "type": "tuple[]"
        },
        {
          "components": [
            {
              "internalType": "address[]",
              "name": "keys",
              "type": "address[]"
            },
            {
              "internalType": "uint32",
              "name": "expirationTime",
              "type": "uint32"
            }
          ],
          "internalType": "struct IWormhole.GuardianSet",
          "name": "",
          "type": "tuple"
        }
      ],
      "name": "verifySignatures",
      "outputs": [
        {
          "internalType": "bool",
          "name": "",
          "type": "bool"
        },
        {
          "internalType": "string",
          "name": "",
          "type": "string"
        }
      ],
      "stateMutability": "pure",
      "type": "function"
    },
    {
      "inputs": [
        {
          "components": [
            {
              "internalType": "uint8",
              "name": "version",
              "type": "uint8"
            },
            {
              "internalType": "uint32",
              "name": "timestamp",
              "type": "uint32"
            },
            {
              "internalType": "uint32",
              "name": "nonce",
              "type": "uint32"
            },
            {
              "internalType": "uint16",
              "name": "emitterChainId",
              "type": "uint16"
            },
            {
              "internalType": "bytes32",
              "name": "emitterAddress",
              "type": "bytes32"
            },
            {
              "internalType": "uint64",
              "name": "sequence",
              "type": "uint64"
            },
            {
              "internalType": "uint8",
              "name": "consistencyLevel",
              "type": "uint8"
            },
            {
              "internalType": "bytes",
              "name": "payload",
              "type": "bytes"
            },
            {
              "internalType": "uint32",
              "name": "guardianSetIndex",
              "type": "uint32"
            },
            {
              "components": [
                {
                  "internalType": "bytes32",
                  "name": "r",
                  "type": "bytes32"
                },
                {
                  "internalType": "bytes32",
                  "name": "s",
                  "type": "bytes32"
                },
                {
                  "internalType": "uint8",
                  "name": "v",
                  "type": "uint8"
                },
                {
                  "internalType": "uint8",
                  "name": "guardianIndex",
                  "type": "uint8"
                }
              ],
              "internalType": "struct IWormhole.Signature[]",
              "name": "signatures",
              "type": "tuple[]"
            },
            {
              "internalType": "bytes32",
              "name": "hash",
              "type": "bytes32"
            }
          ],
          "internalType": "struct IWormhole.VM",
          "name": "",
          "type": "tuple"
        }
      ],
      "name": "verifyVM",
      "outputs": [
        {
          "internalType": "bool",
          "name": "",
          "type": "bool"
        },
        {
          "internalType": "string",
          "name": "",
          "type": "string"
        }
      ],
      "stateMutability": "pure",
      "type": "function"
    }
  ],
  "bytecode": "0x60c034607357601f6118f038819003918201601f19168301916001600160401b03831184841017607857808492604094855283398101031260735780519061ffff82168203607357602001519060805260a052604051611861908161008f823960805181610709015260a051816109f20152f35b600080fd5b634e487b7160e01b600052604160045260246000fdfe6080604052600436101561001257600080fd5b60003560e01c80630319e59c14610e2757806304ca84cf14610d66578063178149e714610cd65780631a90a21914610cb85780631cfe7951146102cf5780631e5a280214610c7f57806323aa2a9d14610c665780632c3c02a414610c4a5780634a12a76314610c195780634cf842b514610bd65780634fc608a314610bd65780634fdc60fa14610b3d578063515f324714610aa65780635cb8cae214610a1557806364d42b17146109da5780636606b4e01461094a5780638129fc1c14610937578063875be02a146107bb57806393df337e1461072d5780639a8a0592146106ee578063a0cce1b31461059f578063a9e1189314610577578063b172b2221461055b578063b19a437e14610423578063c0fd8bde146103a8578063cb4cfea814610310578063d60b347f146102eb578063e039f224146102cf578063eb8d3f12146102cf578063f42bc64114610240578063f8ce560a14610224578063f951975a146101a85763fbe3c2cd1461018757600080fd5b346101a35760003660031901126101a357602060405160018152f35b600080fd5b346101a35760203660031901126101a3576101c1611055565b506101ca611276565b5060405162461bcd60e51b815260206004820152602b60248201527f756e737570706f7274656420676574477561726469616e53657420696e20776f60448201526a726d686f6c65206d6f636b60a81b6064820152608490fd5b346101a35760203660031901126101a357602060405160018152f35b346101a35760203660031901126101a3576004356001600160401b0381116101a357610270903690600401610fc4565b5060405162461bcd60e51b815260206004820152603060248201527f756e737570706f72746564207375626d69745365744d6573736167654665652060448201526f696e20776f726d686f6c65206d6f636b60801b6064820152608490fd5b346101a35760003660031901126101a357602060405160008152f35b346101a35760203660031901126101a357610304611031565b50602060405160018152f35b346101a35760203660031901126101a3576004356001600160401b0381116101a357610340903690600401610fc4565b50610349611290565b5060405162461bcd60e51b815260206004820152603060248201527f756e737570706f727465642070617273655265636f766572436861696e49642060448201526f696e20776f726d686f6c65206d6f636b60801b6064820152608490fd5b346101a35761040c6103cb6103bc36610fe2565b906103c56112b5565b5061135c565b610140810151600052600160205261041f60ff60406000205416156040516103f4602082610f5d565b60008152604051948594606086526060860190611174565b9160208501528382036040850152611133565b0390f35b60603660031901126101a357610437611055565b6024356001600160401b0381116101a357610456903690600401610fc4565b9060443560ff81168091036101a35760025434036105285733600052600060205260406000208054926001600160401b038416936001600160401b038514610512576020957f6eb224fb001ed210e379b335e35efe88672a8ce935d981a6896b27ffdf52a3b2936104fe926001600160401b036001890116906001600160401b03191617905563ffffffff604051938785521687840152608060408401526080830190611133565b9260608201528033930390a2604051908152f35b634e487b7160e01b600052601160045260246000fd5b60405162461bcd60e51b815260206004820152600b60248201526a696e76616c69642066656560a81b6044820152606490fd5b346101a35760003660031901126101a357602060405160048152f35b346101a35761041f61058b6103bc36610fe2565b604051918291602083526020830190611174565b346101a35760603660031901126101a3576024356001600160401b0381116101a3576105cf903690600401611090565b506044356001600160401b0381116101a357604060031982360301126101a357604051906105fc82610f27565b80600401356001600160401b0381116101a3578101366023820112156101a357600481013561062a81611079565b916106386040519384610f5d565b818352602060048185019360051b83010101903682116101a357602401915b8183106106ce5785602061067060248888855201611068565b91015260405162461bcd60e51b815260206004820152602d60248201527f756e737570706f72746564207665726966795369676e61747572657320696e2060448201526c776f726d686f6c65206d6f636b60981b6064820152608490fd5b82356001600160a01b03811681036101a357815260209283019201610657565b346101a35760003660031901126101a357602060405161ffff7f0000000000000000000000000000000000000000000000000000000000000000168152f35b346101a35760203660031901126101a3576004356001600160401b0381116101a35761075d903690600401610fc4565b5060405162461bcd60e51b815260206004820152602f60248201527f756e737570706f72746564207375626d69745472616e7366657246656573206960448201526e6e20776f726d686f6c65206d6f636b60881b6064820152608490fd5b346101a35760203660031901126101a3576004356001600160401b0381116101a35761016060031982360301126101a357604051906107f982610f0b565b61080581600401611047565b825261081360248201611068565b602083015261082460448201611068565b6040830152606481013561ffff811681036101a35760608301526084810135608083015260a48101356001600160401b03811681036101a35760a083015261086e60c48201611047565b60c083015260e48101356001600160401b0381116101a3576108969060043691840101610fc4565b60e08301526108a86101048201611068565b6101008301526101248101356001600160401b0381116101a357610140916108d96101449260043691840101611090565b610120850152013591015260405162461bcd60e51b815260206004820152602560248201527f756e737570706f7274656420766572696679564d20696e20776f726d686f6c65604482015264206d6f636b60d81b6064820152608490fd5b346101a35760003660031901126101a357005b346101a35760203660031901126101a3576004356001600160401b0381116101a35761097a903690600401610fc4565b5060405162461bcd60e51b815260206004820152603160248201527f756e737570706f72746564207375626d69744e6577477561726469616e53657460448201527020696e20776f726d686f6c65206d6f636b60781b6064820152608490fd5b346101a35760003660031901126101a35760206040517f00000000000000000000000000000000000000000000000000000000000000008152f35b346101a35760203660031901126101a3576004356001600160401b0381116101a357610a45903690600401610fc4565b5060405162461bcd60e51b815260206004820152603260248201527f756e737570706f72746564207375626d6974436f6e74726163745570677261646044820152716520696e20776f726d686f6c65206d6f636b60701b6064820152608490fd5b346101a35760203660031901126101a3576004356001600160401b0381116101a357610ad6903690600401610fc4565b50610adf611290565b5060405162461bcd60e51b815260206004820152602f60248201527f756e737570706f727465642070617273655365744d657373616765466565206960448201526e6e20776f726d686f6c65206d6f636b60881b6064820152608490fd5b346101a35760203660031901126101a3576004356001600160401b0381116101a357610b6d903690600401610fc4565b50610b76611290565b5060405162461bcd60e51b815260206004820152603160248201527f756e737570706f72746564207061727365436f6e74726163745570677261646560448201527020696e20776f726d686f6c65206d6f636b60781b6064820152608490fd5b346101a35760203660031901126101a3576001600160a01b03610bf7611031565b16600052600060205260206001600160401b0360406000205416604051908152f35b346101a35760203660031901126101a3576004356000526001602052602060ff604060002054166040519015158152f35b346101a35760203660031901126101a357602060405160008152f35b346101a35760203660031901126101a357600435600255005b346101a357610140610c99610c9336610fe2565b9061135c565b015160005260016020526040600020600160ff19825416179055600080f35b346101a35760003660031901126101a3576020600254604051908152f35b346101a35760203660031901126101a3576004356001600160401b0381116101a357610d06903690600401610fc4565b5060405162461bcd60e51b815260206004820152603160248201527f756e737570706f72746564207375626d69745265636f766572436861696e496460448201527020696e20776f726d686f6c65206d6f636b60781b6064820152608490fd5b346101a35760203660031901126101a3576004356001600160401b0381116101a357610d96903690600401610fc4565b5060006080604051610da781610eda565b828152826020820152826040820152610dbe611276565b6060820152015260405162461bcd60e51b815260206004820152603460248201527f756e737570706f72746564207061727365477561726469616e5365745570677260448201527361646520696e20776f726d686f6c65206d6f636b60601b6064820152608490fd5b346101a35760203660031901126101a3576004356001600160401b0381116101a357610e57903690600401610fc4565b5060006080604051610e6881610eda565b8281528260208201528260408201528260608201520152608460405162461bcd60e51b815260206004820152602e60248201527f756e737570706f727465642070617273655472616e736665724665657320696e60448201526d20776f726d686f6c65206d6f636b60901b6064820152fd5b60a081019081106001600160401b03821117610ef557604052565b634e487b7160e01b600052604160045260246000fd5b61016081019081106001600160401b03821117610ef557604052565b604081019081106001600160401b03821117610ef557604052565b608081019081106001600160401b03821117610ef557604052565b90601f801991011681019081106001600160401b03821117610ef557604052565b9291926001600160401b038211610ef55760405191610fa7601f8201601f191660200184610f5d565b8294818452818301116101a3578281602093846000960137010152565b9080601f830112156101a357816020610fdf93359101610f7e565b90565b9060206003198301126101a3576004356001600160401b0381116101a357826023820112156101a3578060040135926001600160401b0384116101a357602484830101116101a3576024019190565b600435906001600160a01b03821682036101a357565b359060ff821682036101a357565b6004359063ffffffff821682036101a357565b359063ffffffff821682036101a357565b6001600160401b038111610ef55760051b60200190565b81601f820112156101a3578035906110a782611079565b926110b56040519485610f5d565b82845260208085019360071b830101918183116101a357602001925b8284106110df575050505090565b6080848303126101a35760206080916040516110fa81610f42565b86358152828701358382015261111260408801611047565b604082015261112360608801611047565b60608201528152019301926110d1565b919082519283825260005b84811061115f575050826000602080949584010152601f8019910116010190565b8060208092840101518282860101520161113e565b9060ff825116815263ffffffff602083015116602082015263ffffffff604083015116604082015261ffff6060830151166060820152608082015160808201526001600160401b0360a08301511660a082015260ff60c08301511660c08201526111ef60e083015161016060e0840152610160830190611133565b9163ffffffff61010082015116610100830152610120810151928281036101208401526020808551928381520194019060005b818110611239575050506101408091015191015290565b9091946020608060019260ff60608a5180518452858101518685015282604082015116604085015201511660608201520196019101919091611222565b6040519061128382610f27565b6000602083606081520152565b6040519061129d82610f42565b60006060838281528260208201528260408201520152565b604051906112c282610f0b565b6000610140838281528260208201528260408201528260608201528260808201528260a08201528260c0820152606060e08201528261010082015260606101208201520152565b1561131057565b60405162461bcd60e51b815260206004820152600c60248201526b1d9b481d1bdbc81cdb585b1b60a21b6044820152606490fd5b909392938483116101a35784116101a3578101920390565b9190916113676112b5565b926113756039821015611309565b611380368284610f7e565b805115611724576001015160ff16845261139b368284610f7e565b600581511061175f57600563ffffffff9101511661010085015260056113c2368385610f7e565b908151111561172457600660ff9101511660069060428102818104604214821517156105125760390180603911610512576113ff90841015611309565b61140881611079565b906114166040519283610f5d565b808252601f1961142582611079565b0160005b81811061170d57505060005b81811061164d57505061012086015261145a61145383838187611344565b3691610f7e565b9263ffffffff6114748361146f368786610f7e565b6117b7565b16602087015260048201918281116105125763ffffffff61149a8461146f368887610f7e565b16604088015260088101809311610512576114b6368584610f7e565b600a82018094116105125783815110611611578101600a015161ffff1660608801526000906114ef846114ea368887610f7e565b6117fc565b6080890152602a81018094116115fd5761150a368685610f7e565b90603281018095116115e957848251106115ad576001600160401b036032826033940101511660a08a015260ff61154b86611546368a89610f7e565b61179b565b1660c08a015201809311611599575091611453918161156994611344565b60e084015260208151910120604051602081019182526020815261158e604082610f5d565b519020610140830152565b634e487b7160e01b81526011600452602490fd5b60405162461bcd60e51b8152602060048201526014602482015273746f55696e7436345f6f75744f66426f756e647360601b6044820152606490fd5b634e487b7160e01b83526011600452602483fd5b634e487b7160e01b82526011600452602482fd5b60405162461bcd60e51b8152602060048201526014602482015273746f55696e7431365f6f75744f66426f756e647360601b6044820152606490fd5b61165c8461154636888a610f7e565b90600185019182861161051257611678836114ea368a8c610f7e565b906021870180941161051257611693846114ea368b8d610f7e565b93604188018091116105125760426116b082611546368d8f610f7e565b98018091116105125760ff601b919816019060ff82116105125760ff8092600196604051956116de87610f42565b865260208601521660408401521660608201526116fb82866117d2565b5261170681856117d2565b5001611435565b602090611718611290565b82828701015201611429565b60405162461bcd60e51b8152602060048201526013602482015272746f55696e74385f6f75744f66426f756e647360681b6044820152606490fd5b60405162461bcd60e51b8152602060048201526014602482015273746f55696e7433325f6f75744f66426f756e647360601b6044820152606490fd5b9080825111156117245760018101811161051257016001015190565b90600481018082116105125782511061175f57016004015190565b80518210156117e65760209160051b010190565b634e487b7160e01b600052603260045260246000fd5b90602081018082116105125782511061181757016020015190565b60405162461bcd60e51b8152602060048201526015602482015274746f427974657333325f6f75744f66426f756e647360581b6044820152606490fdfea164736f6c634300081c000a",
  "linkReferences": {},
  "deployedLinkReferences": {}
}