{
  "_format": "hh-sol-artifact-1",
  "contractName": "CrossChainVaultGetters",
  "sourceName": "contracts/CrossChainVaultGetters.sol",
  "abi": [
    {
      "inputs": [],
      "name": "_state",
      "outputs": [
        {
          "internalType": "address",
          "name": "owner",
          "type": "address"
        },
        {
          "internalType": "address",
          "name": "wormhole",
          "type": "address"
        },
        {
          "internalType": "address",
          "name": "tokenBridge",
          "type": "address"
        },
        {
          "internalType": "uint16",
          "name": "chainId",
          "type": "uint16"
        },
        {
          "internalType": "uint8",
          "name": "wormholeFinality",
          "type": "uint8"
        },
        {
          "internalType": "uint32",
          "name": "feePrecision",
          "type": "uint32"
        },
        {
          "internalType": "uint32",
          "name": "relayerFeePercentage",
          "type": "uint32"
        }
      ],
      "stateMutability": "view",
      "type": "function"
    },
    {
      "inputs": [],
      "name": "chainId",
      "outputs": [
        {
          "internalType": "uint16",
          "name": "",
          "type": "uint16"
        }
      ],
      "stateMutability": "view",
      "type": "function"
    },
    {
      "inputs": [],
      "name": "circleIntegration",
      "outputs": [
        {
          "internalType": "contract ICircleIntegration",
          "name": "",
          "type": "address"
        }
      ],
      "stateMutability": "view",
      "type": "function"
    },
    {
      "inputs": [],
      "name": "feePrecision",
      "outputs": [
        {
          "internalType": "uint32",
          "name": "",
          "type": "uint32"
        }
      ],
      "stateMutability": "view",
      "type": "function"
    },
    {
      "inputs": [
        {
          "internalType": "uint16",
          "name": "emitterChainId",
          "type": "uint16"
        }
      ],
      "name": "getRegisteredEmitter",
      "outputs": [
        {
          "internalType": "bytes32",
          "name": "",
          "type": "bytes32"
        }
      ],
      "stateMutability": "view",
      "type": "function"
    },
    {
      "inputs": [],
      "name": "owner",
      "outputs": [
        {
          "internalType": "address",
          "name": "",
          "type": "address"
        }
      ],
      "stateMutability": "view",
      "type": "function"
    },
    {
      "inputs": [],
      "name": "relayerFeePercentage",
      "outputs": [
        {
          "internalType": "uint32",
          "name": "",
          "type": "uint32"
        }
      ],
      "stateMutability": "view",
      "type": "function"
    },
    {
      "inputs": [],
      "name": "tokenBridge",
      "outputs": [
        {
          "internalType": "contract ITokenBridge",
          "name": "",
          "type": "address"
        }
      ],
      "stateMutability": "view",
      "type": "function"
    },
    {
      "inputs": [],
      "name": "wormhole",
      "outputs": [
        {
          "internalType": "contract IWormhole",
          "name": "",
          "type": "address"
        }
      ],
      "stateMutability": "view",
      "type": "function"
    },
    {
      "inputs": [],
      "name": "wormholeFinality",
      "outputs": [
        {
          "internalType": "uint8",
          "name": "",
          "type": "uint8"
        }
      ],
      "stateMutability": "view",
      "type": "function"
    }
  ],
  "bytecode": "0x60808060405234601557610260908161001b8239f35b600080fdfe608080604052600436101561001357600080fd5b60003560e01c9081630520557b146102325750806324816abb146101fa57806335ff1e28146101d357806384acd1bb146101aa57806385e66df4146101835780638da5cb5b1461015a5780639a8a059214610135578063a1cb31b7146100bb578063c6328a461461008d5763dd6522aa1461008d57600080fd5b346100b65760003660031901126100b6576002546040516001600160a01b039091168152602090f35b600080fd5b346100b65760003660031901126100b65760e060018060a01b036000541663ffffffff60018060a01b036001541660025490604051938452602084015260018060a01b038116604084015261ffff8160a01c16606084015260ff8160b01c166080840152818160b81c1660a084015260d81c1660c0820152f35b346100b65760003660031901126100b657602061ffff60025460a01c16604051908152f35b346100b65760003660031901126100b6576000546040516001600160a01b039091168152602090f35b346100b65760003660031901126100b657602063ffffffff60025460d81c16604051908152f35b346100b65760003660031901126100b6576001546040516001600160a01b039091168152602090f35b346100b65760003660031901126100b657602063ffffffff60025460b81c16604051908152f35b346100b65760203660031901126100b65760043561ffff81168091036100b65760005260036020526020604060002054604051908152f35b346100b65760003660031901126100b65760209060ff60025460b01c168152f3fea164736f6c634300081c000a",
  "linkReferences": {},
  "deployedLinkReferences": {}
}