{
  "_format": "hh-sol-artifact-1",
  "contractName": "CrossChainManager",
  "sourceName": "contracts/CrossChainManager.sol",
  "abi": [
    {
      "inputs": [],
      "stateMutability": "nonpayable",
      "type": "constructor"
    },
    {
      "inputs": [],
      "name": "AccessControlBadConfirmation",
      "type": "error"
    },
    {
      "inputs": [
        {
          "internalType": "address",
          "name": "account",
          "type": "address"
        },
        {
          "internalType": "bytes32",
          "name": "neededRole",
          "type": "bytes32"
        }
      ],
      "name": "AccessControlUnauthorizedAccount",
      "type": "error"
    },
    {
      "inputs": [
        {
          "internalType": "address",
          "name": "target",
          "type": "address"
        }
      ],
      "name": "AddressEmptyCode",
      "type": "error"
    },
    {
      "inputs": [],
      "name": "AmlSignatureAlreadyUsed",
      "type": "error"
    },
    {
      "inputs": [],
      "name": "AmlSignatureExpired",
      "type": "error"
    },
    {
      "inputs": [],
      "name": "AmountMustBeGreaterThanZero",
      "type": "error"
    },
    {
      "inputs": [],
      "name": "ECDSAInvalidSignature",
      "type": "error"
    },
    {
      "inputs": [
        {
          "internalType": "uint256",
          "name": "length",
          "type": "uint256"
        }
      ],
      "name": "ECDSAInvalidSignatureLength",
      "type": "error"
    },
    {
      "inputs": [
        {
          "internalType": "bytes32",
          "name": "s",
          "type": "bytes32"
        }
      ],
      "name": "ECDSAInvalidSignatureS",
      "type": "error"
    },
    {
      "inputs": [
        {
          "internalType": "address",
          "name": "implementation",
          "type": "address"
        }
      ],
      "name": "ERC1967InvalidImplementation",
      "type": "error"
    },
    {
      "inputs": [],
      "name": "ERC1967NonPayable",
      "type": "error"
    },
    {
      "inputs": [],
      "name": "FailedCall",
      "type": "error"
    },
    {
      "inputs": [],
      "name": "InsufficientBalance",
      "type": "error"
    },
    {
      "inputs": [
        {
          "internalType": "string",
          "name": "",
          "type": "string"
        }
      ],
      "name": "InvalidAddress",
      "type": "error"
    },
    {
      "inputs": [],
      "name": "InvalidAmlSignature",
      "type": "error"
    },
    {
      "inputs": [],
      "name": "InvalidAmlSigner",
      "type": "error"
    },
    {
      "inputs": [],
      "name": "InvalidAmount",
      "type": "error"
    },
    {
      "inputs": [],
      "name": "InvalidFunctionName",
      "type": "error"
    },
    {
      "inputs": [],
      "name": "InvalidInitialization",
      "type": "error"
    },
    {
      "inputs": [],
      "name": "InvalidMintTransactionHash",
      "type": "error"
    },
    {
      "inputs": [],
      "name": "NotInitializing",
      "type": "error"
    },
    {
      "inputs": [
        {
          "internalType": "address",
          "name": "owner",
          "type": "address"
        }
      ],
      "name": "OwnableInvalidOwner",
      "type": "error"
    },
    {
      "inputs": [
        {
          "internalType": "address",
          "name": "account",
          "type": "address"
        }
      ],
      "name": "OwnableUnauthorizedAccount",
      "type": "error"
    },
    {
      "inputs": [],
      "name": "ReentrancyGuardReentrantCall",
      "type": "error"
    },
    {
      "inputs": [
        {
          "internalType": "address",
          "name": "token",
          "type": "address"
        }
      ],
      "name": "SafeERC20FailedOperation",
      "type": "error"
    },
    {
      "inputs": [],
      "name": "UUPSUnauthorizedCallContext",
      "type": "error"
    },
    {
      "inputs": [
        {
          "internalType": "bytes32",
          "name": "slot",
          "type": "bytes32"
        }
      ],
      "name": "UUPSUnsupportedProxiableUUID",
      "type": "error"
    },
    {
      "anonymous": false,
      "inputs": [
        {
          "indexed": true,
          "internalType": "address",
          "name": "from",
          "type": "address"
        },
        {
          "indexed": true,
          "internalType": "address",
          "name": "to",
          "type": "address"
        }
      ],
      "name": "AmlSignerUpdated",
      "type": "event"
    },
    {
      "anonymous": false,
      "inputs": [
        {
          "indexed": true,
          "internalType": "address",
          "name": "from",
          "type": "address"
        },
        {
          "indexed": true,
          "internalType": "address",
          "name": "to",
          "type": "address"
        }
      ],
      "name": "CrossChainConfigUpdated",
      "type": "event"
    },
    {
      "anonymous": false,
      "inputs": [
        {
          "indexed": true,
          "internalType": "address",
          "name": "tokenAddress",
          "type": "address"
        },
        {
          "indexed": false,
          "internalType": "address",
          "name": "shareTokenAddress",
          "type": "address"
        },
        {
          "indexed": false,
          "internalType": "address",
          "name": "amlSignerAddress",
          "type": "address"
        },
        {
          "indexed": false,
          "internalType": "address",
          "name": "crossChainVaultAddress",
          "type": "address"
        },
        {
          "indexed": false,
          "internalType": "address",
          "name": "burnAdminAddress",
          "type": "address"
        }
      ],
      "name": "CrossChainManagerInitialized",
      "type": "event"
    },
    {
      "anonymous": false,
      "inputs": [
        {
          "indexed": true,
          "internalType": "address",
          "name": "user",
          "type": "address"
        },
        {
          "indexed": false,
          "internalType": "uint256",
          "name": "amount",
          "type": "uint256"
        },
        {
          "indexed": false,
          "internalType": "address",
          "name": "depositToken",
          "type": "address"
        },
        {
          "indexed": false,
          "internalType": "address",
          "name": "shareToken",
          "type": "address"
        },
        {
          "indexed": false,
          "internalType": "address",
          "name": "destinationAddress",
          "type": "address"
        },
        {
          "indexed": false,
          "internalType": "uint16",
          "name": "targetChain",
          "type": "uint16"
        }
      ],
      "name": "Deposited",
      "type": "event"
    },
    {
      "anonymous": false,
      "inputs": [
        {
          "indexed": true,
          "internalType": "address",
          "name": "destination",
          "type": "address"
        }
      ],
      "name": "DestinationAddressAdded",
      "type": "event"
    },
    {
      "anonymous": false,
      "inputs": [
        {
          "indexed": true,
          "internalType": "address",
          "name": "destination",
          "type": "address"
        }
      ],
      "name": "DestinationAddressRemoved",
      "type": "event"
    },
    {
      "anonymous": false,
      "inputs": [
        {
          "indexed": true,
          "internalType": "address",
          "name": "destination",
          "type": "address"
        }
      ],
      "name": "DestinationAddressSkipped",
      "type": "event"
    },
    {
      "anonymous": false,
      "inputs": [
        {
          "indexed": false,
          "internalType": "uint64",
          "name": "version",
          "type": "uint64"
        }
      ],
      "name": "Initialized",
      "type": "event"
    },
    {
      "anonymous": false,
      "inputs": [
        {
          "indexed": true,
          "internalType": "address",
          "name": "previousOwner",
          "type": "address"
        },
        {
          "indexed": true,
          "internalType": "address",
          "name": "newOwner",
          "type": "address"
        }
      ],
      "name": "OwnershipTransferStarted",
      "type": "event"
    },
    {
      "anonymous": false,
      "inputs": [
        {
          "indexed": true,
          "internalType": "address",
          "name": "previousOwner",
          "type": "address"
        },
        {
          "indexed": true,
          "internalType": "address",
          "name": "newOwner",
          "type": "address"
        }
      ],
      "name": "OwnershipTransferred",
      "type": "event"
    },
    {
      "anonymous": false,
      "inputs": [
        {
          "indexed": true,
          "internalType": "bytes32",
          "name": "role",
          "type": "bytes32"
        },
        {
          "indexed": true,
          "internalType": "bytes32",
          "name": "previousAdminRole",
          "type": "bytes32"
        },
        {
          "indexed": true,
          "internalType": "bytes32",
          "name": "newAdminRole",
          "type": "bytes32"
        }
      ],
      "name": "RoleAdminChanged",
      "type": "event"
    },
    {
      "anonymous": false,
      "inputs": [
        {
          "indexed": true,
          "internalType": "bytes32",
          "name": "role",
          "type": "bytes32"
        },
        {
          "indexed": true,
          "internalType": "address",
          "name": "account",
          "type": "address"
        },
        {
          "indexed": true,
          "internalType": "address",
          "name": "sender",
          "type": "address"
        }
      ],
      "name": "RoleGranted",
      "type": "event"
    },
    {
      "anonymous": false,
      "inputs": [
        {
          "indexed": true,
          "internalType": "bytes32",
          "name": "role",
          "type": "bytes32"
        },
        {
          "indexed": true,
          "internalType": "address",
          "name": "account",
          "type": "address"
        },
        {
          "indexed": true,
          "internalType": "address",
          "name": "sender",
          "type": "address"
        }
      ],
      "name": "RoleRevoked",
      "type": "event"
    },
    {
      "anonymous": false,
      "inputs": [
        {
          "indexed": false,
          "internalType": "uint256",
          "name": "amount",
          "type": "uint256"
        },
        {
          "indexed": false,
          "internalType": "address",
          "name": "shareToken",
          "type": "address"
        },
        {
          "indexed": false,
          "internalType": "address",
          "name": "burner",
          "type": "address"
        },
        {
          "indexed": true,
          "internalType": "string",
          "name": "mintTransactionHash",
          "type": "string"
        }
      ],
      "name": "TokensBurned",
      "type": "event"
    },
    {
      "anonymous": false,
      "inputs": [
        {
          "indexed": true,
          "internalType": "address",
          "name": "implementation",
          "type": "address"
        }
      ],
      "name": "Upgraded",
      "type": "event"
    },
    {
      "anonymous": false,
      "inputs": [
        {
          "indexed": true,
          "internalType": "address",
          "name": "user",
          "type": "address"
        },
        {
          "indexed": false,
          "internalType": "uint256",
          "name": "amount",
          "type": "uint256"
        },
        {
          "indexed": false,
          "internalType": "address",
          "name": "shareToken",
          "type": "address"
        },
        {
          "indexed": false,
          "internalType": "address",
          "name": "paymentToken",
          "type": "address"
        }
      ],
      "name": "Withdrawn",
      "type": "event"
    },
    {
      "inputs": [],
      "name": "DEFAULT_ADMIN_ROLE",
      "outputs": [
        {
          "internalType": "bytes32",
          "name": "",
          "type": "bytes32"
        }
      ],
      "stateMutability": "view",
      "type": "function"
    },
    {
      "inputs": [],
      "name": "UPGRADE_INTERFACE_VERSION",
      "outputs": [
        {
          "internalType": "string",
          "name": "",
          "type": "string"
        }
      ],
      "stateMutability": "view",
      "type": "function"
    },
    {
      "inputs": [],
      "name": "acceptOwnership",
      "outputs": [],
      "stateMutability": "nonpayable",
      "type": "function"
    },
    {
      "inputs": [
        {
          "internalType": "address",
          "name": "_destination",
          "type": "address"
        }
      ],
      "name": "addDestinationAddress",
      "outputs": [],
      "stateMutability": "nonpayable",
      "type": "function"
    },
    {
      "inputs": [],
      "name": "amlSigner",
      "outputs": [
        {
          "internalType": "address",
          "name": "",
          "type": "address"
        }
      ],
      "stateMutability": "view",
      "type": "function"
    },
    {
      "inputs": [
        {
          "internalType": "uint256",
          "name": "amount",
          "type": "uint256"
        },
        {
          "internalType": "string",
          "name": "mintTransactionHash",
          "type": "string"
        }
      ],
      "name": "burn",
      "outputs": [],
      "stateMutability": "nonpayable",
      "type": "function"
    },
    {
      "inputs": [],
      "name": "crossChainVault",
      "outputs": [
        {
          "internalType": "contract CrossChainVault",
          "name": "",
          "type": "address"
        }
      ],
      "stateMutability": "view",
      "type": "function"
    },
    {
      "inputs": [
        {
          "internalType": "uint256",
          "name": "_amount",
          "type": "uint256"
        },
        {
          "internalType": "address",
          "name": "_destinationAddress",
          "type": "address"
        },
        {
          "internalType": "bytes",
          "name": "_amlSignature",
          "type": "bytes"
        },
        {
          "internalType": "uint256",
          "name": "_amlDeadline",
          "type": "uint256"
        },
        {
          "internalType": "uint16",
          "name": "targetChain",
          "type": "uint16"
        },
        {
          "internalType": "uint32",
          "name": "targetDomain",
          "type": "uint32"
        },
        {
          "components": [
            {
              "internalType": "address",
              "name": "refundAddress",
              "type": "address"
            },
            {
              "internalType": "bytes",
              "name": "signedQuote",
              "type": "bytes"
            },
            {
              "internalType": "bytes",
              "name": "instructions",
              "type": "bytes"
            }
          ],
          "internalType": "struct ExecutorArgs",
          "name": "executorArgs",
          "type": "tuple"
        },
        {
          "components": [
            {
              "internalType": "uint256",
              "name": "transferTokenFee",
              "type": "uint256"
            },
            {
              "internalType": "uint256",
              "name": "nativeTokenFee",
              "type": "uint256"
            },
            {
              "internalType": "address",
              "name": "payee",
              "type": "address"
            }
          ],
          "internalType": "struct FeeArgs",
          "name": "feeArgs",
          "type": "tuple"
        }
      ],
      "name": "deposit",
      "outputs": [],
      "stateMutability": "payable",
      "type": "function"
    },
    {
      "inputs": [
        {
          "internalType": "uint256",
          "name": "_amount",
          "type": "uint256"
        },
        {
          "internalType": "address",
          "name": "_destinationAddress",
          "type": "address"
        },
        {
          "internalType": "bytes",
          "name": "_amlSignature",
          "type": "bytes"
        },
        {
          "internalType": "uint256",
          "name": "_amlDeadline",
          "type": "uint256"
        },
        {
          "internalType": "uint256",
          "name": "_permitDeadline",
          "type": "uint256"
        },
        {
          "internalType": "uint8",
          "name": "_v",
          "type": "uint8"
        },
        {
          "internalType": "bytes32",
          "name": "_r",
          "type": "bytes32"
        },
        {
          "internalType": "bytes32",
          "name": "_s",
          "type": "bytes32"
        },
        {
          "internalType": "uint16",
          "name": "targetChain",
          "type": "uint16"
        },
        {
          "internalType": "uint32",
          "name": "targetDomain",
          "type": "uint32"
        },
        {
          "components": [
            {
              "internalType": "address",
              "name": "refundAddress",
              "type": "address"
            },
            {
              "internalType": "bytes",
              "name": "signedQuote",
              "type": "bytes"
            },
            {
              "internalType": "bytes",
              "name": "instructions",
              "type": "bytes"
            }
          ],
          "internalType": "struct ExecutorArgs",
          "name": "executorArgs",
          "type": "tuple"
        },
        {
          "components": [
            {
              "internalType": "uint256",
              "name": "transferTokenFee",
              "type": "uint256"
            },
            {
              "internalType": "uint256",
              "name": "nativeTokenFee",
              "type": "uint256"
            },
            {
              "internalType": "address",
              "name": "payee",
              "type": "address"
            }
          ],
          "internalType": "struct FeeArgs",
          "name": "feeArgs",
          "type": "tuple"
        }
      ],
      "name": "depositWithPermit",
      "outputs": [],
      "stateMutability": "payable",
      "type": "function"
    },
    {
      "inputs": [
        {
          "internalType": "uint256",
          "name": "",
          "type": "uint256"
        }
      ],
      "name": "destinationAddresses",
      "outputs": [
        {
          "internalType": "address",
          "name": "",
          "type": "address"
        }
      ],
      "stateMutability": "view",
      "type": "function"
    },
    {
      "inputs": [],
      "name": "getDestinationAddresses",
      "outputs": [
        {
          "internalType": "address[]",
          "name": "",
          "type": "address[]"
        }
      ],
      "stateMutability": "view",
      "type": "function"
    },
    {
      "inputs": [
        {
          "internalType": "bytes32",
          "name": "role",
          "type": "bytes32"
        }
      ],
      "name": "getRoleAdmin",
      "outputs": [
        {
          "internalType": "bytes32",
          "name": "",
          "type": "bytes32"
        }
      ],
      "stateMutability": "view",
      "type": "function"
    },
    {
      "inputs": [
        {
          "internalType": "bytes32",
          "name": "role",
          "type": "bytes32"
        },
        {
          "internalType": "address",
          "name": "account",
          "type": "address"
        }
      ],
      "name": "grantRole",
      "outputs": [],
      "stateMutability": "nonpayable",
      "type": "function"
    },
    {
      "inputs": [
        {
          "internalType": "bytes32",
          "name": "role",
          "type": "bytes32"
        },
        {
          "internalType": "address",
          "name": "account",
          "type": "address"
        }
      ],
      "name": "hasRole",
      "outputs": [
        {
          "internalType": "bool",
          "name": "",
          "type": "bool"
        }
      ],
      "stateMutability": "view",
      "type": "function"
    },
    {
      "inputs": [
        {
          "internalType": "address",
          "name": "_tokenAddress",
          "type": "address"
        },
        {
          "internalType": "address",
          "name": "_shareTokenAddress",
          "type": "address"
        },
        {
          "internalType": "address",
          "name": "_amlSignerAddress",
          "type": "address"
        },
        {
          "internalType": "address",
          "name": "crossChainVaultAddress",
          "type": "address"
        },
        {
          "internalType": "address",
          "name": "burnAdminAddress",
          "type": "address"
        }
      ],
      "name": "initialize",
      "outputs": [],
      "stateMutability": "nonpayable",
      "type": "function"
    },
    {
      "inputs": [
        {
          "internalType": "address",
          "name": "",
          "type": "address"
        }
      ],
      "name": "isDestination",
      "outputs": [
        {
          "internalType": "bool",
          "name": "",
          "type": "bool"
        }
      ],
      "stateMutability": "view",
      "type": "function"
    },
    {
      "inputs": [],
      "name": "owner",
      "outputs": [
        {
          "internalType": "address",
          "name": "",
          "type": "address"
        }
      ],
      "stateMutability": "view",
      "type": "function"
    },
    {
      "inputs": [],
      "name": "pendingOwner",
      "outputs": [
        {
          "internalType": "address",
          "name": "",
          "type": "address"
        }
      ],
      "stateMutability": "view",
      "type": "function"
    },
    {
      "inputs": [],
      "name": "proxiableUUID",
      "outputs": [
        {
          "internalType": "bytes32",
          "name": "",
          "type": "bytes32"
        }
      ],
      "stateMutability": "view",
      "type": "function"
    },
    {
      "inputs": [
        {
          "internalType": "address",
          "name": "_destination",
          "type": "address"
        }
      ],
      "name": "removeDestinationAddress",
      "outputs": [],
      "stateMutability": "nonpayable",
      "type": "function"
    },
    {
      "inputs": [],
      "name": "renounceOwnership",
      "outputs": [],
      "stateMutability": "nonpayable",
      "type": "function"
    },
    {
      "inputs": [
        {
          "internalType": "bytes32",
          "name": "role",
          "type": "bytes32"
        },
        {
          "internalType": "address",
          "name": "callerConfirmation",
          "type": "address"
        }
      ],
      "name": "renounceRole",
      "outputs": [],
      "stateMutability": "nonpayable",
      "type": "function"
    },
    {
      "inputs": [
        {
          "internalType": "bytes32",
          "name": "role",
          "type": "bytes32"
        },
        {
          "internalType": "address",
          "name": "account",
          "type": "address"
        }
      ],
      "name": "revokeRole",
      "outputs": [],
      "stateMutability": "nonpayable",
      "type": "function"
    },
    {
      "inputs": [],
      "name": "shareToken",
      "outputs": [
        {
          "internalType": "contract ICustomToken",
          "name": "",
          "type": "address"
        }
      ],
      "stateMutability": "view",
      "type": "function"
    },
    {
      "inputs": [
        {
          "internalType": "bytes4",
          "name": "interfaceId",
          "type": "bytes4"
        }
      ],
      "name": "supportsInterface",
      "outputs": [
        {
          "internalType": "bool",
          "name": "",
          "type": "bool"
        }
      ],
      "stateMutability": "view",
      "type": "function"
    },
    {
      "inputs": [],
      "name": "token",
      "outputs": [
        {
          "internalType": "contract CustomToken",
          "name": "",
          "type": "address"
        }
      ],
      "stateMutability": "view",
      "type": "function"
    },
    {
      "inputs": [
        {
          "internalType": "address",
          "name": "newOwner",
          "type": "address"
        }
      ],
      "name": "transferOwnership",
      "outputs": [],
      "stateMutability": "nonpayable",
      "type": "function"
    },
    {
      "inputs": [
        {
          "internalType": "address",
          "name": "amlSignerAddress",
          "type": "address"
        }
      ],
      "name": "updateAmlSigner",
      "outputs": [],
      "stateMutability": "nonpayable",
      "type": "function"
    },
    {
      "inputs": [
        {
          "internalType": "address",
          "name": "crossChainVaultAddress",
          "type": "address"
        }
      ],
      "name": "updateCrossChainConfig",
      "outputs": [],
      "stateMutability": "nonpayable",
      "type": "function"
    },
    {
      "inputs": [
        {
          "internalType": "address",
          "name": "newImplementation",
          "type": "address"
        },
        {
          "internalType": "bytes",
          "name": "data",
          "type": "bytes"
        }
      ],
      "name": "upgradeToAndCall",
      "outputs": [],
      "stateMutability": "payable",
      "type": "function"
    },
    {
      "inputs": [
        {
          "internalType": "bytes32",
          "name": "",
          "type": "bytes32"
        }
      ],
      "name": "usedSignatures",
      "outputs": [
        {
          "internalType": "bool",
          "name": "",
          "type": "bool"
        }
      ],
      "stateMutability": "view",
      "type": "function"
    },
    {
      "inputs": [
        {
          "internalType": "uint256",
          "name": "_amount",
          "type": "uint256"
        },
        {
          "internalType": "address",
          "name": "_destinationAddress",
          "type": "address"
        },
        {
          "internalType": "bytes",
          "name": "_amlSignature",
          "type": "bytes"
        },
        {
          "internalType": "uint256",
          "name": "_amlDeadline",
          "type": "uint256"
        }
      ],
      "name": "withdraw",
      "outputs": [],
      "stateMutability": "nonpayable",
      "type": "function"
    },
    {
      "inputs": [
        {
          "internalType": "uint256",
          "name": "_amount",
          "type": "uint256"
        },
        {
          "internalType": "address",
          "name": "_destinationAddress",
          "type": "address"
        },
        {
          "internalType": "bytes",
          "name": "_amlSignature",
          "type": "bytes"
        },
        {
          "internalType": "uint256",
          "name": "_amlDeadline",
          "type": "uint256"
        },
        {
          "internalType": "uint256",
          "name": "_permitDeadline",
          "type": "uint256"
        },
        {
          "internalType": "uint8",
          "name": "_v",
          "type": "uint8"
        },
        {
          "internalType": "bytes32",
          "name": "_r",
          "type": "bytes32"
        },
        {
          "internalType": "bytes32",
          "name": "_s",
          "type": "bytes32"
        }
      ],
      "name": "withdrawWithPermit",
      "outputs": [],
      "stateMutability": "nonpayable",
      "type": "function"
    }
  ],
  "bytecode": "0x60a080604052346100ea57306080527ff0c57e16840df040f15088dc2f81fe391c3923bec73e23a9662efc9c229c6a005460ff8160401c166100d9576002600160401b03196001600160401b03821601610073575b60405161292e90816100f0823960805181818161113a01526111df0152f35b6001600160401b0319166001600160401b039081177ff0c57e16840df040f15088dc2f81fe391c3923bec73e23a9662efc9c229c6a005581527fc7f505b2f371ae2175ee4913f4499e1f2633a7b5936321eed1cdaeb6115181d290602090a13880610054565b63f92ee8a960e01b60005260046000fd5b600080fdfe608080604052600436101561001357600080fd5b600090813560e01c90816301ffc9a714611a3c57508063048a245d146119c15780630ce32eb3146118f95780631459457a1461151e5780631a04b8f714611476578063248a9ca31461144f5780632f2ff15d1461141d57806336568abe146113d85780633d13272b146113af5780634f1ef2861461118f57806352d1902d146111275780636147da56146110fe5780636193d018146110ba578063638e5fc91461100b5780636adda2b614610ca75780636c9fa59e14610c7e578063715018a614610bfd5780637641e6f3146109f657806379ba5097146109a85780638c3935581461097e5780638da5cb5b1461094857806391d14854146108ef578063986b85341461050e578063a217fddf146104f2578063aaaae342146104b3578063ace63ef914610384578063ad3cb1cc1461030a578063d547741f146102cf578063e30c397814610299578063e3f248a41461026c578063f2fde38b146101e4578063f978fd61146101b55763fc0c546a1461018c57600080fd5b346101b257806003193601126101b257546040516001600160a01b039091168152602090f35b80fd5b50346101b25760203660031901126101b25760ff60406020926004358152600684522054166040519015158152f35b50346101b25760203660031901126101b2576101fe611aac565b6102066123d8565b6000805160206128e283398151915280546001600160a01b0319166001600160a01b03928316908117909155600080516020612842833981519152549091167f38d16b8cac22d99fc7c124b9cd0de2d3fa1faef420bfe791d8c362d765e227008380a380f35b50346101b25760203660031901126101b257610296610289611aac565b6102916123d8565b611e0d565b80f35b50346101b257806003193601126101b2576000805160206128e2833981519152546040516001600160a01b039091168152602090f35b50346101b25760403660031901126101b2576103066004356102ef611a91565b906103016102fc82611c1b565b61240e565b612458565b5080f35b50346101b257806003193601126101b257604080519161032a8284611b03565b60058352640352e302e360dc1b6020840152815192839160208352815191826020850152815b83811061036d575050828201840152601f01601f19168101030190f35b602082820181015188830188015287955001610350565b50346101b2576101003660031901126101b257600435816103a3611a91565b6044356001600160401b0381116104af576103c56103f9913690600401611ad6565b606435916103ec836103d5611bbd565b966103de611f1c565b896103e7611bcd565b611f58565b6103f4611bf3565b612088565b6002546001600160a01b0316803b156104af5760405163d505accf60e01b81523360048201523060248201526044810185905260848035606483015260ff939093169281019290925260c4803560a484015260e48035918401919091528391839190829084905af180156104a45761048b575b50610476826121dc565b60016000805160206128a28339815191525580f35b8161049591611b03565b6104a057813861046c565b5080fd5b6040513d84823e3d90fd5b8280fd5b50346101b25760203660031901126101b25760209060ff906040906001600160a01b036104de611aac565b168152600584522054166040519015158152f35b50346101b257806003193601126101b257602090604051908152f35b506101403660031901126101b257600435610527611a91565b6044356001600160401b0381116107e157610546903690600401611ad6565b606435916084359361ffff85168095036108eb5760a4359163ffffffff83168093036108e75760c435946001600160401b0386116108e3578560040194606060031988360301126108df5760603660e31901126108df576105bf926105a9611f1c565b6105b783868c6103e7611c3c565b6103f4611c61565b85156108d0576001600160a01b031692831561089457838752600560205260ff6040882054161561084e578654879390610607908890309033906001600160a01b03166125b8565b60018060a01b0384541660018060a01b0360015416906040519060208781840163095ea7b360e01b81528560248601528c60448601526044855261064c606486611b03565b84519082855af187513d82610832575b5050156107ed575b505060015485546001600160a01b03908116959116939150833b156107e957604051636491d4cd60e11b81526004810195909552602485018990526044850188905260648501526084840186905261012060a485015261071b91610707906001600160a01b036106d382611ac2565b1661012487015260446106ff6106ec60248601846124f8565b60606101448b01526101848a0191612529565b9301906124f8565b858303610123190161016487015290612529565b60e4803560c4850152610104359084015290610124356001600160a01b03811691908290036107e557838086948194610104830152039134905af180156104a4576107cc575b50508354600254604080519586526001600160a01b0392831660208701529116908401526060830152608082015233907fec00d85a7419eaf32ce126aca75379da78c9f8c7521a12d2b05292035cd2f9489060a090a260016000805160206128a28339815191525580f35b816107d691611b03565b6107e1578338610761565b8380fd5b8480fd5b8580fd5b61082561082a936040519063095ea7b360e01b602083015260248201528860448201526044815261081f606482611b03565b826126f0565b6126f0565b388080610664565b9091506108465750803b15155b388061065c565b60011461083f565b604051630b0f5aa160e11b815260206004820152601960248201527f64657374696e6174696f6e20646f65736e2774206578697374000000000000006044820152606490fd5b604051630b0f5aa160e11b815260206004820152601360248201527264657374696e6174696f6e206973207a65726f60681b6044820152606490fd5b63162908e360e11b8752600487fd5b8980fd5b8880fd5b8780fd5b8680fd5b50346101b25760403660031901126101b257604061090b611a91565b916004358152600080516020612882833981519152602052209060018060a01b0316600052602052602060ff604060002054166040519015158152f35b50346101b257806003193601126101b257600080516020612842833981519152546040516001600160a01b039091168152602090f35b50346101b25760203660031901126101b25761029661099b611aac565b6109a36123d8565b611c88565b50346101b257806003193601126101b2576000805160206128e283398151915254336001600160a01b03909116036109e3576102963361254a565b63118cdaa760e01b815233600452602490fd5b50346101b25760403660031901126101b2576004356024356001600160401b0381116104af57610a2a903690600401611ad6565b909160008051602061290283398151915284526000805160206128828339815191526020526040842060018060a01b03331660005260205260ff6040600020541615610bd8578015610bc9578115610bba576002546040516370a0823160e01b81523060048201526001600160a01b0390911690602081602481855afa908115610baf578691610b7d575b508211610b6e578085913b156104a057818091602460405180948193630852cd8d60e31b83528860048401525af180156104a457610b59575b50506002546040516001600160a01b03909116937f5b9d46fcafb9d23a7bfeecc55768d5e506ca28c3a3eea2f1a51704fa25bc02fa938291819083378101868152039020604080519283526001600160a01b039490941660208301523393820193909352606090a280f35b81610b6391611b03565b6107e1578338610aee565b631e9acf1760e31b8552600485fd5b90506020813d602011610ba7575b81610b9860209383611b03565b810103126107e9575138610ab5565b3d9150610b8b565b6040513d88823e3d90fd5b63643d3cf760e01b8452600484fd5b635e85ae7360e01b8452600484fd5b63e2517d3f60e01b845233600452600080516020612902833981519152602452604484fd5b50346101b257806003193601126101b257610c166123d8565b6000805160206128e283398151915280546001600160a01b03199081169091556000805160206128428339815191528054918216905581906001600160a01b03167f8be0079c531659141344cd1fd0a4f28419497f9722a3daafe3b4186f6b6457e08280a380f35b50346101b257806003193601126101b2576002546040516001600160a01b039091168152602090f35b506101c03660031901126101b257600435610cc0611a91565b6044356001600160401b0381116107e157610cdf903690600401611ad6565b60643591610ceb611bbd565b93610104359461ffff86168096036108e757610124359263ffffffff84168094036108e35761014435956001600160401b0387116108df578660040195606060031989360301126110075760603661016319011261100757610d5d92610d4f611f1c565b6105b783878d6103e7611c3c565b87546001600160a01b0316908890823b156104a05760405163d505accf60e01b8152336004820152306024820152604481018a905260848035606483015260ff929092169181019190915260c4803560a483015260e48035918301919091529092839190829084905af18015610ffc57610fe8575b5085156108d0576001600160a01b031692831561089457838752600560205260ff6040882054161561084e578692610e1587303360018060a01b038854166125b8565b60018060a01b0384541660018060a01b0360015416906040519060208781840163095ea7b360e01b81528560248601528c604486015260448552610e5a606486611b03565b84519082855af187513d82610fcc575b505015610f92575b505060015485546001600160a01b03908116959116939150833b156107e957604051636491d4cd60e11b81526004810195909552602485018990526044850188905260648501526084840186905261012060a4850152610ee191610707906001600160a01b036106d382611ac2565b6101643560c48401526101843560e4840152906101a4356001600160a01b03811691908290036107e557838086948194610104830152039134905af180156104a4576107cc5750508354600254604080519586526001600160a01b0392831660208701529116908401526060830152608082015233907fec00d85a7419eaf32ce126aca75379da78c9f8c7521a12d2b05292035cd2f9489060a090a260016000805160206128a28339815191525580f35b610825610fc4936040519063095ea7b360e01b602083015260248201528860448201526044815261081f606482611b03565b388080610e72565b909150610fe05750803b15155b3880610e6a565b600114610fd9565b87610ff591989298611b03565b9538610dd2565b6040513d8a823e3d90fd5b8a80fd5b50346101b25760203660031901126101b257611025611aac565b61102d6123d8565b6001600160a01b0316801561108057600180546001600160a01b0319811683179091556001600160a01b03167f4d5e356daffe6b8e8438edef03597d8456db20f09af07d3d4fed737777302aa98380a380f35b604051630b0f5aa160e11b815260206004820152601160248201527018dc9bdcdcc818da185a5b881d985d5b1d607a1b6044820152606490fd5b50346101b25760203660031901126101b257600435906004548210156101b25760206110e583611b8c565b905460405160039290921b1c6001600160a01b03168152f35b50346101b257806003193601126101b2576003546040516001600160a01b039091168152602090f35b50346101b257806003193601126101b2577f00000000000000000000000000000000000000000000000000000000000000006001600160a01b031630036111805760206040516000805160206128628339815191528152f35b63703e46dd60e11b8152600490fd5b5060403660031901126101b2576111a4611aac565b906024356001600160401b0381116104a057366023820112156104a0576111d5903690602481600401359101611b55565b6001600160a01b037f00000000000000000000000000000000000000000000000000000000000000001630811490811561138c575b5061137d576112176123d8565b6040516352d1902d60e01b8152926001600160a01b0381169190602085600481865afa80958596611349575b5061125c57634c9c8ce360e01b84526004839052602484fd5b90918460008051602061286283398151915281036113375750813b156113255760008051602061286283398151915280546001600160a01b031916821790557fbc7cd75a20ee27fd9adebab32041f755214dbc6bffa90cc0225b39da2e5c2d3b8480a2815183901561130b578083602061030695519101845af43d15611303573d916112e783611b3a565b926112f56040519485611b03565b83523d85602085013e6127e0565b6060916127e0565b505050346113165780f35b63b398979f60e01b8152600490fd5b634c9c8ce360e01b8452600452602483fd5b632a87526960e21b8552600452602484fd5b9095506020813d602011611375575b8161136560209383611b03565b810103126107e557519438611243565b3d9150611358565b63703e46dd60e11b8252600482fd5b600080516020612862833981519152546001600160a01b0316141590503861120a565b50346101b257806003193601126101b2576001546040516001600160a01b039091168152602090f35b50346101b25760403660031901126101b2576113f2611a91565b336001600160a01b0382160361140e5761030690600435612458565b63334bd91960e11b8252600482fd5b50346101b25760403660031901126101b25761030660043561143d611a91565b9061144a6102fc82611c1b565b61232f565b50346101b25760203660031901126101b257602061146e600435611c1b565b604051908152f35b50346101b25760203660031901126101b257611490611aac565b6114986123d8565b6001600160a01b031680156114eb57600380546001600160a01b0319811683179091556001600160a01b03167f7f7b46c0c664af2835dffe8b8e5c1ddbfcef63f608af5bbf2836a2b29a88fcb08380a380f35b604051630b0f5aa160e11b815260206004820152600a60248201526930b6b61039b4b3b732b960b11b6044820152606490fd5b50346101b25760a03660031901126101b257611538611aac565b611540611a91565b6044356001600160a01b038116908190036107e1576064356001600160a01b038116908190036107e557608435906001600160a01b0382168083036108eb576000805160206128c2833981519152549560ff8760401c1615966001600160401b038116801590816118f1575b60011490816118e7575b1590816118de575b506118cf5767ffffffffffffffff1981166001176000805160206128c283398151915255876118a2575b506115f16125fe565b6115f96125fe565b6116016125fe565b331561188e576116103361254a565b6116186125fe565b6116206125fe565b6116286125fe565b60016000805160206128a2833981519152556001600160a01b0316948515611860576001600160a01b031691821561182c5784156114eb5780156110805781156117fd577fdaa74d7662c0e57b5ae49bf571c205e36bbd19341d93871664c956ed18d8489694611785608095886001600160601b0360a01b8c5416178b55856001600160601b0360a01b6002541617600255826001600160601b0360a01b6003541617600355836001600160601b0360a01b60015416176001556000805160206129028339815191528b526000805160206128828339815191526020527f0a30bae60ea06f344bebb63f4eb39612b0328589ecd1132302e75991373fee2d8b6000805160206129028339815191527fbd79b86ffe0ab8e8776151514217cd7cacd52c909f66475c3af44e129f0b00ff60016040842001549282815260008051602061288283398151915260205284600160408320015580a461225b565b50604051938452602084015260408301526060820152a26117a35780f35b68ff0000000000000000196000805160206128c283398151915254166000805160206128c2833981519152557fc7f505b2f371ae2175ee4913f4499e1f2633a7b5936321eed1cdaeb6115181d2602060405160018152a180f35b604051630b0f5aa160e11b8152602060048201526006602482015265313ab93732b960d11b6044820152606490fd5b604051630b0f5aa160e11b815260206004820152600b60248201526a39b430b932903a37b5b2b760a91b6044820152606490fd5b604051630b0f5aa160e11b81526020600482015260056024820152643a37b5b2b760d91b6044820152606490fd5b631e4fbdf760e01b88526004889052602488fd5b68ffffffffffffffffff191668010000000000000001176000805160206128c283398151915255386115e8565b63f92ee8a960e01b8952600489fd5b905015386115be565b303b1591506115b6565b8991506115ac565b50346101b257806003193601126101b25760405180602060045491828152018091600485527f8a35acfbc15ff81a39ae7d344fd709f28e8600b4aa8c65c6b64bfe7fe36bd19b90855b8181106119a25750505082611958910383611b03565b604051928392602084019060208552518091526040840192915b818110611980575050500390f35b82516001600160a01b0316845285945060209384019390920191600101611972565b82546001600160a01b0316845260209093019260019283019201611942565b50346101b25760803660031901126101b2576004356119de611a91565b6044356001600160401b0381116107e1576119fd903690600401611ad6565b9060643592611a0a611f1c565b8415611a2d579183916103ec8695611a2895610476986103e7611bcd565b6121dc565b635e85ae7360e01b8652600486fd5b9050346104a05760203660031901126104a05760043563ffffffff60e01b81168091036104af5760209250637965db0b60e01b8114908115611a80575b5015158152f35b6301ffc9a760e01b14905038611a79565b602435906001600160a01b0382168203611aa757565b600080fd5b600435906001600160a01b0382168203611aa757565b35906001600160a01b0382168203611aa757565b9181601f84011215611aa7578235916001600160401b038311611aa75760208381860195010111611aa757565b90601f801991011681019081106001600160401b03821117611b2457604052565b634e487b7160e01b600052604160045260246000fd5b6001600160401b038111611b2457601f01601f191660200190565b929192611b6182611b3a565b91611b6f6040519384611b03565b829481845281830111611aa7578281602093846000960137010152565b600454811015611ba757600460005260206000200190600090565b634e487b7160e01b600052603260045260246000fd5b60a4359060ff82168203611aa757565b60405190611bdc604083611b03565b6008825267576974686472617760c01b6020830152565b60405190611c02604083611b03565b600a82526915da5d1a191c985dd85b60b21b6020830152565b60005260008051602061288283398151915260205260016040600020015490565b60405190611c4b604083611b03565b600782526611195c1bdcda5d60ca1b6020830152565b60405190611c70604083611b03565b60098252682232b837b9b4ba37b960b91b6020830152565b6001600160a01b031660008181526005602052604090205460ff1615611de6578060005260076020526040600020546000198101818111611dd0576004546000198101908111611dd057808203611d6c575b5050506004548015611d565760001901611cf381611b8c565b81549060018060a01b039060031b1b1916905560045580600052600760205260006040812055806000526005602052604060002060ff1981541690557febe8af0714f0dd4a7b23bc7163ea1aadcce97af7a8ec25343abdbccdb2ea8a66600080a2565b634e487b7160e01b600052603160045260246000fd5b611d9691611d7c611dba92611b8c565b905460039190911b1c6001600160a01b0316928391611b8c565b81546001600160a01b0393841660039290921b91821b9390911b1916919091179055565b6000526007602052604060002055388080611cda565b634e487b7160e01b600052601160045260246000fd5b7f52d051a942d5c9a74e875d9faaa59f6de2ecefa16c6844af092cc73f749baad4600080a2565b6001600160a01b038116908115611ed65781600052600560205260ff60406000205416611eae578160005260056020526040600020600160ff198254161790556004549068010000000000000000821015611b2457611d96826001611e759401600455611b8c565b6004548160005260076020526040600020557fcef021749a809ea9d2e4eb3f28a169c12227e99b0bca877f3950fb8c2ccfaa62600080a2565b507f52d051a942d5c9a74e875d9faaa59f6de2ecefa16c6844af092cc73f749baad4600080a2565b604051630b0f5aa160e11b815260206004820152601860248201527f7a65726f2064657374696e6174696f6e206164647265737300000000000000006044820152606490fd5b60026000805160206128a28339815191525414611f475760026000805160206128a283398151915255565b633ee5aeb560e01b60005260046000fd5b929092602081519101207fe09149d2123147c5f43d258257fef0b7b969db78269369ebcf5ebb9eef8592f28114600014611ff257506040519160208301937fa79feebba5eca838f5afb25f042ef9dbee2e9824463ec262b652584c92f243638552336040850152606084015260018060a01b0316608083015260a0820152611fec60c082800301601f198101835282611b03565b51902090565b7f8d7f87ab38a7f75a63dc465e10aadacecfca64c44ca774040b039bfb004e336714612029576318b6b25f60e21b60005260046000fd5b6040519160208301937fa9c090963b849011e9176737d7fc342936631fb97bbf2f507ad751e58480ff518552336040850152606084015260018060a01b0316608083015260a0820152611fec60c082800301601f198101835282611b03565b92909342116121cb5783600052600660205260ff604060002054166121ba5761214f61215592604285602061215e975191012060405160208101917f8b73c3c69bb8fe3d512ecc4cf759cc79239f7b179b0ffacaa9a75d522b39400f835260408201527fc89efdaa54c0f20c7adf612882df0950f5a951637e0307cdcb4c672f298b8bc660608201524660808201523060a082015260a0815261212c60c082611b03565b5190206040519061190160f01b8252600282015287602282015220923691611b55565b9061262c565b90929192612668565b6001600160a01b031680156121a9576003546001600160a01b0316036121985760005260066020526040600020600160ff19825416179055565b63d1cc738560e01b60005260046000fd5b638bb79cad60e01b60005260046000fd5b63e544c62f60e01b60005260046000fd5b63288a076f60e21b60005260046000fd5b801561224a576002546121fd908290309033906001600160a01b03166125b8565b600254600054604080519384526001600160a01b03928316602085015291169082015233907f1e9eeaf1a9185f8b4c0c3394a8209f8c4bd7a41d93c23704144795f5b3d8bb8890606090a2565b63162908e360e11b60005260046000fd5b6001600160a01b03811660009081527f99d7401b6c7fae7e32559c2f2939eb2955c262626d0b69e0397921638ab2ab8a602052604090205460ff16612329576001600160a01b031660008181527f99d7401b6c7fae7e32559c2f2939eb2955c262626d0b69e0397921638ab2ab8a60205260408120805460ff191660011790553391907f0a30bae60ea06f344bebb63f4eb39612b0328589ecd1132302e75991373fee2d907f2f8788117e7eff1d82e926ec794901d17c78024a50270940304540a733656f0d9080a4600190565b50600090565b6000818152600080516020612882833981519152602090815260408083206001600160a01b038616845290915290205460ff166123d1576000818152600080516020612882833981519152602090815260408083206001600160a01b0395909516808452949091528120805460ff19166001179055339291907f2f8788117e7eff1d82e926ec794901d17c78024a50270940304540a733656f0d9080a4600190565b5050600090565b600080516020612842833981519152546001600160a01b031633036123f957565b63118cdaa760e01b6000523360045260246000fd5b60008181526000805160206128828339815191526020908152604080832033845290915290205460ff16156124405750565b63e2517d3f60e01b6000523360045260245260446000fd5b6000818152600080516020612882833981519152602090815260408083206001600160a01b038616845290915290205460ff16156123d1576000818152600080516020612882833981519152602090815260408083206001600160a01b0395909516808452949091528120805460ff19169055339291907ff6391f5c32d9c69d2a47ea670b442974b53935d1edc7fd64eb21e047a839171b9080a4600190565b9035601e1982360301811215611aa75701602081359101916001600160401b038211611aa7578136038313611aa757565b908060209392818452848401376000828201840152601f01601f1916010190565b6000805160206128e283398151915280546001600160a01b031990811690915560008051602061284283398151915280549182166001600160a01b0393841690811790915591167f8be0079c531659141344cd1fd0a4f28419497f9722a3daafe3b4186f6b6457e0600080a3565b6040516323b872dd60e01b60208201526001600160a01b0392831660248201529290911660448301526064808301939093529181526125fc91610825608483611b03565b565b60ff6000805160206128c28339815191525460401c161561261b57565b631afcd79f60e31b60005260046000fd5b815191906041830361265d5761265692506020820151906060604084015193015160001a90612757565b9192909190565b505060009160029190565b91909160048110156126da578061267e57509050565b6000600182036126995763f645eedf60e01b60005260046000fd5b50600281036126b7578263fce698f760e01b60005260045260246000fd5b90916003600092146126c7575050565b6335e2f38360e21b825260045260249150fd5b634e487b7160e01b600052602160045260246000fd5b906000602091828151910182855af11561274b576000513d61274257506001600160a01b0381163b155b6127215750565b635274afe760e01b60009081526001600160a01b0391909116600452602490fd5b6001141561271a565b6040513d6000823e3d90fd5b91907f7fffffffffffffffffffffffffffffff5d576e7357a4501ddfe92f46681b20a084116127d4579160209360809260ff60009560405194855216868401526040830152606082015282805260015afa1561274b576000516001600160a01b038116156127c85790600090600090565b50600090600190600090565b50505060009160039190565b9061280657508051156127f557602081519101fd5b63d6bda27560e01b60005260046000fd5b81511580612838575b612817575090565b639996b31560e01b60009081526001600160a01b0391909116600452602490fd5b50803b1561280f56fe9016d09d72d40fdae2fd8ceac6b6234c7706214fd39c1cd1e609a0528c199300360894a13ba1a3210667c828492db98dca3e2076cc3735a920a3ca505d382bbc02dd7bc7dec4dceedda775e58dd541e08a116c6c53815c0bd028192f7b6268009b779b17422d0df92223018b32b4d1fa46e071723d6817e2486d003becc55f00f0c57e16840df040f15088dc2f81fe391c3923bec73e23a9662efc9c229c6a00237e158222e3e6968b72b9db0d8043aacf074ad9f650f0d1606b4d82ee432c00e97b137254058bd94f28d2f3eb79e2d34074ffb488d042e3bc958e0a57d2fa22a164736f6c634300081c000a",
  "linkReferences": {},
  "deployedLinkReferences": {}
}