{
  "_format": "hh-sol-artifact-1",
  "contractName": "CrossChainManager",
  "sourceName": "contracts/CrossChainManager.sol",
  "abi": [
    {
      "inputs": [],
      "stateMutability": "nonpayable",
      "type": "constructor"
    },
    {
      "inputs": [],
      "name": "AccessControlBadConfirmation",
      "type": "error"
    },
    {
      "inputs": [
        {
          "internalType": "address",
          "name": "account",
          "type": "address"
        },
        {
          "internalType": "bytes32",
          "name": "neededRole",
          "type": "bytes32"
        }
      ],
      "name": "AccessControlUnauthorizedAccount",
      "type": "error"
    },
    {
      "inputs": [
        {
          "internalType": "address",
          "name": "target",
          "type": "address"
        }
      ],
      "name": "AddressEmptyCode",
      "type": "error"
    },
    {
      "inputs": [],
      "name": "AmlSignatureAlreadyUsed",
      "type": "error"
    },
    {
      "inputs": [],
      "name": "AmlSignatureExpired",
      "type": "error"
    },
    {
      "inputs": [],
      "name": "AmountMustBeGreaterThanZero",
      "type": "error"
    },
    {
      "inputs": [],
      "name": "ECDSAInvalidSignature",
      "type": "error"
    },
    {
      "inputs": [
        {
          "internalType": "uint256",
          "name": "length",
          "type": "uint256"
        }
      ],
      "name": "ECDSAInvalidSignatureLength",
      "type": "error"
    },
    {
      "inputs": [
        {
          "internalType": "bytes32",
          "name": "s",
          "type": "bytes32"
        }
      ],
      "name": "ECDSAInvalidSignatureS",
      "type": "error"
    },
    {
      "inputs": [
        {
          "internalType": "address",
          "name": "implementation",
          "type": "address"
        }
      ],
      "name": "ERC1967InvalidImplementation",
      "type": "error"
    },
    {
      "inputs": [],
      "name": "ERC1967NonPayable",
      "type": "error"
    },
    {
      "inputs": [],
      "name": "FailedCall",
      "type": "error"
    },
    {
      "inputs": [],
      "name": "InsufficientBalance",
      "type": "error"
    },
    {
      "inputs": [
        {
          "internalType": "string",
          "name": "",
          "type": "string"
        }
      ],
      "name": "InvalidAddress",
      "type": "error"
    },
    {
      "inputs": [],
      "name": "InvalidAmlSignature",
      "type": "error"
    },
    {
      "inputs": [],
      "name": "InvalidAmlSigner",
      "type": "error"
    },
    {
      "inputs": [],
      "name": "InvalidAmount",
      "type": "error"
    },
    {
      "inputs": [],
      "name": "InvalidFunctionName",
      "type": "error"
    },
    {
      "inputs": [],
      "name": "InvalidInitialization",
      "type": "error"
    },
    {
      "inputs": [],
      "name": "InvalidMintTransactionHash",
      "type": "error"
    },
    {
      "inputs": [],
      "name": "NotInitializing",
      "type": "error"
    },
    {
      "inputs": [
        {
          "internalType": "address",
          "name": "owner",
          "type": "address"
        }
      ],
      "name": "OwnableInvalidOwner",
      "type": "error"
    },
    {
      "inputs": [
        {
          "internalType": "address",
          "name": "account",
          "type": "address"
        }
      ],
      "name": "OwnableUnauthorizedAccount",
      "type": "error"
    },
    {
      "inputs": [],
      "name": "ReentrancyGuardReentrantCall",
      "type": "error"
    },
    {
      "inputs": [
        {
          "internalType": "address",
          "name": "token",
          "type": "address"
        }
      ],
      "name": "SafeERC20FailedOperation",
      "type": "error"
    },
    {
      "inputs": [],
      "name": "UUPSUnauthorizedCallContext",
      "type": "error"
    },
    {
      "inputs": [
        {
          "internalType": "bytes32",
          "name": "slot",
          "type": "bytes32"
        }
      ],
      "name": "UUPSUnsupportedProxiableUUID",
      "type": "error"
    },
    {
      "anonymous": false,
      "inputs": [
        {
          "indexed": true,
          "internalType": "address",
          "name": "from",
          "type": "address"
        },
        {
          "indexed": true,
          "internalType": "address",
          "name": "to",
          "type": "address"
        }
      ],
      "name": "AmlSignerUpdated",
      "type": "event"
    },
    {
      "anonymous": false,
      "inputs": [
        {
          "indexed": true,
          "internalType": "address",
          "name": "from",
          "type": "address"
        },
        {
          "indexed": true,
          "internalType": "address",
          "name": "to",
          "type": "address"
        }
      ],
      "name": "CrossChainConfigUpdated",
      "type": "event"
    },
    {
      "anonymous": false,
      "inputs": [
        {
          "indexed": true,
          "internalType": "address",
          "name": "tokenAddress",
          "type": "address"
        },
        {
          "indexed": false,
          "internalType": "address",
          "name": "shareTokenAddress",
          "type": "address"
        },
        {
          "indexed": false,
          "internalType": "address",
          "name": "amlSignerAddress",
          "type": "address"
        },
        {
          "indexed": false,
          "internalType": "address",
          "name": "destinationManagerAddress",
          "type": "address"
        },
        {
          "indexed": false,
          "internalType": "address",
          "name": "crossChainVaultAddress",
          "type": "address"
        },
        {
          "indexed": false,
          "internalType": "address",
          "name": "burnAdminAddress",
          "type": "address"
        }
      ],
      "name": "CrossChainManagerInitialized",
      "type": "event"
    },
    {
      "anonymous": false,
      "inputs": [
        {
          "indexed": true,
          "internalType": "address",
          "name": "user",
          "type": "address"
        },
        {
          "indexed": false,
          "internalType": "uint256",
          "name": "amount",
          "type": "uint256"
        },
        {
          "indexed": false,
          "internalType": "address",
          "name": "depositToken",
          "type": "address"
        },
        {
          "indexed": false,
          "internalType": "address",
          "name": "shareToken",
          "type": "address"
        },
        {
          "indexed": false,
          "internalType": "address",
          "name": "destinationAddress",
          "type": "address"
        },
        {
          "indexed": false,
          "internalType": "uint16",
          "name": "targetChain",
          "type": "uint16"
        }
      ],
      "name": "Deposited",
      "type": "event"
    },
    {
      "anonymous": false,
      "inputs": [
        {
          "indexed": true,
          "internalType": "address",
          "name": "destination",
          "type": "address"
        }
      ],
      "name": "DestinationAddressAdded",
      "type": "event"
    },
    {
      "anonymous": false,
      "inputs": [
        {
          "indexed": true,
          "internalType": "address",
          "name": "destination",
          "type": "address"
        }
      ],
      "name": "DestinationAddressRemoved",
      "type": "event"
    },
    {
      "anonymous": false,
      "inputs": [
        {
          "indexed": true,
          "internalType": "address",
          "name": "destination",
          "type": "address"
        }
      ],
      "name": "DestinationAddressSkipped",
      "type": "event"
    },
    {
      "anonymous": false,
      "inputs": [
        {
          "indexed": false,
          "internalType": "uint64",
          "name": "version",
          "type": "uint64"
        }
      ],
      "name": "Initialized",
      "type": "event"
    },
    {
      "anonymous": false,
      "inputs": [
        {
          "indexed": true,
          "internalType": "address",
          "name": "previousOwner",
          "type": "address"
        },
        {
          "indexed": true,
          "internalType": "address",
          "name": "newOwner",
          "type": "address"
        }
      ],
      "name": "OwnershipTransferStarted",
      "type": "event"
    },
    {
      "anonymous": false,
      "inputs": [
        {
          "indexed": true,
          "internalType": "address",
          "name": "previousOwner",
          "type": "address"
        },
        {
          "indexed": true,
          "internalType": "address",
          "name": "newOwner",
          "type": "address"
        }
      ],
      "name": "OwnershipTransferred",
      "type": "event"
    },
    {
      "anonymous": false,
      "inputs": [
        {
          "indexed": true,
          "internalType": "bytes32",
          "name": "role",
          "type": "bytes32"
        },
        {
          "indexed": true,
          "internalType": "bytes32",
          "name": "previousAdminRole",
          "type": "bytes32"
        },
        {
          "indexed": true,
          "internalType": "bytes32",
          "name": "newAdminRole",
          "type": "bytes32"
        }
      ],
      "name": "RoleAdminChanged",
      "type": "event"
    },
    {
      "anonymous": false,
      "inputs": [
        {
          "indexed": true,
          "internalType": "bytes32",
          "name": "role",
          "type": "bytes32"
        },
        {
          "indexed": true,
          "internalType": "address",
          "name": "account",
          "type": "address"
        },
        {
          "indexed": true,
          "internalType": "address",
          "name": "sender",
          "type": "address"
        }
      ],
      "name": "RoleGranted",
      "type": "event"
    },
    {
      "anonymous": false,
      "inputs": [
        {
          "indexed": true,
          "internalType": "bytes32",
          "name": "role",
          "type": "bytes32"
        },
        {
          "indexed": true,
          "internalType": "address",
          "name": "account",
          "type": "address"
        },
        {
          "indexed": true,
          "internalType": "address",
          "name": "sender",
          "type": "address"
        }
      ],
      "name": "RoleRevoked",
      "type": "event"
    },
    {
      "anonymous": false,
      "inputs": [
        {
          "indexed": false,
          "internalType": "uint256",
          "name": "amount",
          "type": "uint256"
        },
        {
          "indexed": false,
          "internalType": "address",
          "name": "shareToken",
          "type": "address"
        },
        {
          "indexed": false,
          "internalType": "address",
          "name": "burner",
          "type": "address"
        },
        {
          "indexed": true,
          "internalType": "string",
          "name": "mintTransactionHash",
          "type": "string"
        }
      ],
      "name": "TokensBurned",
      "type": "event"
    },
    {
      "anonymous": false,
      "inputs": [
        {
          "indexed": true,
          "internalType": "address",
          "name": "implementation",
          "type": "address"
        }
      ],
      "name": "Upgraded",
      "type": "event"
    },
    {
      "anonymous": false,
      "inputs": [
        {
          "indexed": true,
          "internalType": "address",
          "name": "user",
          "type": "address"
        },
        {
          "indexed": false,
          "internalType": "uint256",
          "name": "amount",
          "type": "uint256"
        },
        {
          "indexed": false,
          "internalType": "address",
          "name": "shareToken",
          "type": "address"
        },
        {
          "indexed": false,
          "internalType": "address",
          "name": "paymentToken",
          "type": "address"
        },
        {
          "indexed": false,
          "internalType": "address",
          "name": "destinationAddress",
          "type": "address"
        },
        {
          "indexed": false,
          "internalType": "uint16",
          "name": "targetChain",
          "type": "uint16"
        }
      ],
      "name": "Withdrawn",
      "type": "event"
    },
    {
      "inputs": [],
      "name": "DEFAULT_ADMIN_ROLE",
      "outputs": [
        {
          "internalType": "bytes32",
          "name": "",
          "type": "bytes32"
        }
      ],
      "stateMutability": "view",
      "type": "function"
    },
    {
      "inputs": [],
      "name": "UPGRADE_INTERFACE_VERSION",
      "outputs": [
        {
          "internalType": "string",
          "name": "",
          "type": "string"
        }
      ],
      "stateMutability": "view",
      "type": "function"
    },
    {
      "inputs": [],
      "name": "acceptOwnership",
      "outputs": [],
      "stateMutability": "nonpayable",
      "type": "function"
    },
    {
      "inputs": [
        {
          "internalType": "address",
          "name": "_destination",
          "type": "address"
        }
      ],
      "name": "addDestinationAddress",
      "outputs": [],
      "stateMutability": "nonpayable",
      "type": "function"
    },
    {
      "inputs": [],
      "name": "amlSigner",
      "outputs": [
        {
          "internalType": "address",
          "name": "",
          "type": "address"
        }
      ],
      "stateMutability": "view",
      "type": "function"
    },
    {
      "inputs": [
        {
          "internalType": "uint256",
          "name": "amount",
          "type": "uint256"
        },
        {
          "internalType": "string",
          "name": "mintTransactionHash",
          "type": "string"
        }
      ],
      "name": "burn",
      "outputs": [],
      "stateMutability": "nonpayable",
      "type": "function"
    },
    {
      "inputs": [],
      "name": "crossChainVault",
      "outputs": [
        {
          "internalType": "contract CrossChainVault",
          "name": "",
          "type": "address"
        }
      ],
      "stateMutability": "view",
      "type": "function"
    },
    {
      "inputs": [
        {
          "internalType": "uint256",
          "name": "_amount",
          "type": "uint256"
        },
        {
          "internalType": "address",
          "name": "_destinationAddress",
          "type": "address"
        },
        {
          "internalType": "bytes",
          "name": "_amlSignature",
          "type": "bytes"
        },
        {
          "internalType": "uint256",
          "name": "_amlDeadline",
          "type": "uint256"
        },
        {
          "internalType": "uint16",
          "name": "targetChain",
          "type": "uint16"
        },
        {
          "internalType": "uint32",
          "name": "targetDomain",
          "type": "uint32"
        },
        {
          "components": [
            {
              "internalType": "address",
              "name": "refundAddress",
              "type": "address"
            },
            {
              "internalType": "bytes",
              "name": "signedQuote",
              "type": "bytes"
            },
            {
              "internalType": "bytes",
              "name": "instructions",
              "type": "bytes"
            }
          ],
          "internalType": "struct ExecutorArgs",
          "name": "executorArgs",
          "type": "tuple"
        },
        {
          "components": [
            {
              "internalType": "uint256",
              "name": "transferTokenFee",
              "type": "uint256"
            },
            {
              "internalType": "uint256",
              "name": "nativeTokenFee",
              "type": "uint256"
            },
            {
              "internalType": "address",
              "name": "payee",
              "type": "address"
            }
          ],
          "internalType": "struct FeeArgs",
          "name": "feeArgs",
          "type": "tuple"
        }
      ],
      "name": "deposit",
      "outputs": [],
      "stateMutability": "payable",
      "type": "function"
    },
    {
      "inputs": [
        {
          "internalType": "uint256",
          "name": "_amount",
          "type": "uint256"
        },
        {
          "internalType": "address",
          "name": "_destinationAddress",
          "type": "address"
        },
        {
          "internalType": "bytes",
          "name": "_amlSignature",
          "type": "bytes"
        },
        {
          "internalType": "uint256",
          "name": "_amlDeadline",
          "type": "uint256"
        },
        {
          "internalType": "uint256",
          "name": "_permitDeadline",
          "type": "uint256"
        },
        {
          "internalType": "uint8",
          "name": "_v",
          "type": "uint8"
        },
        {
          "internalType": "bytes32",
          "name": "_r",
          "type": "bytes32"
        },
        {
          "internalType": "bytes32",
          "name": "_s",
          "type": "bytes32"
        },
        {
          "internalType": "uint16",
          "name": "targetChain",
          "type": "uint16"
        },
        {
          "internalType": "uint32",
          "name": "targetDomain",
          "type": "uint32"
        },
        {
          "components": [
            {
              "internalType": "address",
              "name": "refundAddress",
              "type": "address"
            },
            {
              "internalType": "bytes",
              "name": "signedQuote",
              "type": "bytes"
            },
            {
              "internalType": "bytes",
              "name": "instructions",
              "type": "bytes"
            }
          ],
          "internalType": "struct ExecutorArgs",
          "name": "executorArgs",
          "type": "tuple"
        },
        {
          "components": [
            {
              "internalType": "uint256",
              "name": "transferTokenFee",
              "type": "uint256"
            },
            {
              "internalType": "uint256",
              "name": "nativeTokenFee",
              "type": "uint256"
            },
            {
              "internalType": "address",
              "name": "payee",
              "type": "address"
            }
          ],
          "internalType": "struct FeeArgs",
          "name": "feeArgs",
          "type": "tuple"
        }
      ],
      "name": "depositWithPermit",
      "outputs": [],
      "stateMutability": "payable",
      "type": "function"
    },
    {
      "inputs": [
        {
          "internalType": "uint256",
          "name": "",
          "type": "uint256"
        }
      ],
      "name": "destinationAddresses",
      "outputs": [
        {
          "internalType": "address",
          "name": "",
          "type": "address"
        }
      ],
      "stateMutability": "view",
      "type": "function"
    },
    {
      "inputs": [],
      "name": "getDestinationAddresses",
      "outputs": [
        {
          "internalType": "address[]",
          "name": "",
          "type": "address[]"
        }
      ],
      "stateMutability": "view",
      "type": "function"
    },
    {
      "inputs": [
        {
          "internalType": "bytes32",
          "name": "role",
          "type": "bytes32"
        }
      ],
      "name": "getRoleAdmin",
      "outputs": [
        {
          "internalType": "bytes32",
          "name": "",
          "type": "bytes32"
        }
      ],
      "stateMutability": "view",
      "type": "function"
    },
    {
      "inputs": [
        {
          "internalType": "bytes32",
          "name": "role",
          "type": "bytes32"
        },
        {
          "internalType": "address",
          "name": "account",
          "type": "address"
        }
      ],
      "name": "grantRole",
      "outputs": [],
      "stateMutability": "nonpayable",
      "type": "function"
    },
    {
      "inputs": [
        {
          "internalType": "bytes32",
          "name": "role",
          "type": "bytes32"
        },
        {
          "internalType": "address",
          "name": "account",
          "type": "address"
        }
      ],
      "name": "hasRole",
      "outputs": [
        {
          "internalType": "bool",
          "name": "",
          "type": "bool"
        }
      ],
      "stateMutability": "view",
      "type": "function"
    },
    {
      "inputs": [
        {
          "internalType": "address",
          "name": "_tokenAddress",
          "type": "address"
        },
        {
          "internalType": "address",
          "name": "_shareTokenAddress",
          "type": "address"
        },
        {
          "internalType": "address",
          "name": "_amlSignerAddress",
          "type": "address"
        },
        {
          "internalType": "address",
          "name": "_destinationManagerAddress",
          "type": "address"
        },
        {
          "internalType": "address",
          "name": "crossChainVaultAddress",
          "type": "address"
        },
        {
          "internalType": "address",
          "name": "burnAdminAddress",
          "type": "address"
        }
      ],
      "name": "initialize",
      "outputs": [],
      "stateMutability": "nonpayable",
      "type": "function"
    },
    {
      "inputs": [
        {
          "internalType": "address",
          "name": "",
          "type": "address"
        }
      ],
      "name": "isDestination",
      "outputs": [
        {
          "internalType": "bool",
          "name": "",
          "type": "bool"
        }
      ],
      "stateMutability": "view",
      "type": "function"
    },
    {
      "inputs": [],
      "name": "owner",
      "outputs": [
        {
          "internalType": "address",
          "name": "",
          "type": "address"
        }
      ],
      "stateMutability": "view",
      "type": "function"
    },
    {
      "inputs": [],
      "name": "pendingOwner",
      "outputs": [
        {
          "internalType": "address",
          "name": "",
          "type": "address"
        }
      ],
      "stateMutability": "view",
      "type": "function"
    },
    {
      "inputs": [],
      "name": "proxiableUUID",
      "outputs": [
        {
          "internalType": "bytes32",
          "name": "",
          "type": "bytes32"
        }
      ],
      "stateMutability": "view",
      "type": "function"
    },
    {
      "inputs": [
        {
          "internalType": "address",
          "name": "_destination",
          "type": "address"
        }
      ],
      "name": "removeDestinationAddress",
      "outputs": [],
      "stateMutability": "nonpayable",
      "type": "function"
    },
    {
      "inputs": [],
      "name": "renounceOwnership",
      "outputs": [],
      "stateMutability": "nonpayable",
      "type": "function"
    },
    {
      "inputs": [
        {
          "internalType": "bytes32",
          "name": "role",
          "type": "bytes32"
        },
        {
          "internalType": "address",
          "name": "callerConfirmation",
          "type": "address"
        }
      ],
      "name": "renounceRole",
      "outputs": [],
      "stateMutability": "nonpayable",
      "type": "function"
    },
    {
      "inputs": [
        {
          "internalType": "bytes32",
          "name": "role",
          "type": "bytes32"
        },
        {
          "internalType": "address",
          "name": "account",
          "type": "address"
        }
      ],
      "name": "revokeRole",
      "outputs": [],
      "stateMutability": "nonpayable",
      "type": "function"
    },
    {
      "inputs": [],
      "name": "shareToken",
      "outputs": [
        {
          "internalType": "contract ICustomToken",
          "name": "",
          "type": "address"
        }
      ],
      "stateMutability": "view",
      "type": "function"
    },
    {
      "inputs": [
        {
          "internalType": "bytes4",
          "name": "interfaceId",
          "type": "bytes4"
        }
      ],
      "name": "supportsInterface",
      "outputs": [
        {
          "internalType": "bool",
          "name": "",
          "type": "bool"
        }
      ],
      "stateMutability": "view",
      "type": "function"
    },
    {
      "inputs": [],
      "name": "token",
      "outputs": [
        {
          "internalType": "contract CustomToken",
          "name": "",
          "type": "address"
        }
      ],
      "stateMutability": "view",
      "type": "function"
    },
    {
      "inputs": [
        {
          "internalType": "address",
          "name": "newOwner",
          "type": "address"
        }
      ],
      "name": "transferOwnership",
      "outputs": [],
      "stateMutability": "nonpayable",
      "type": "function"
    },
    {
      "inputs": [
        {
          "internalType": "address",
          "name": "amlSignerAddress",
          "type": "address"
        }
      ],
      "name": "updateAmlSigner",
      "outputs": [],
      "stateMutability": "nonpayable",
      "type": "function"
    },
    {
      "inputs": [
        {
          "internalType": "address",
          "name": "crossChainVaultAddress",
          "type": "address"
        }
      ],
      "name": "updateCrossChainConfig",
      "outputs": [],
      "stateMutability": "nonpayable",
      "type": "function"
    },
    {
      "inputs": [
        {
          "internalType": "address",
          "name": "newImplementation",
          "type": "address"
        },
        {
          "internalType": "bytes",
          "name": "data",
          "type": "bytes"
        }
      ],
      "name": "upgradeToAndCall",
      "outputs": [],
      "stateMutability": "payable",
      "type": "function"
    },
    {
      "inputs": [
        {
          "internalType": "bytes32",
          "name": "",
          "type": "bytes32"
        }
      ],
      "name": "usedSignatures",
      "outputs": [
        {
          "internalType": "bool",
          "name": "",
          "type": "bool"
        }
      ],
      "stateMutability": "view",
      "type": "function"
    },
    {
      "inputs": [
        {
          "internalType": "uint256",
          "name": "_amount",
          "type": "uint256"
        },
        {
          "internalType": "address",
          "name": "_destinationAddress",
          "type": "address"
        },
        {
          "internalType": "bytes",
          "name": "_amlSignature",
          "type": "bytes"
        },
        {
          "internalType": "uint256",
          "name": "_amlDeadline",
          "type": "uint256"
        },
        {
          "internalType": "uint16",
          "name": "targetChain",
          "type": "uint16"
        },
        {
          "internalType": "uint32",
          "name": "targetDomain",
          "type": "uint32"
        },
        {
          "components": [
            {
              "internalType": "address",
              "name": "refundAddress",
              "type": "address"
            },
            {
              "internalType": "bytes",
              "name": "signedQuote",
              "type": "bytes"
            },
            {
              "internalType": "bytes",
              "name": "instructions",
              "type": "bytes"
            }
          ],
          "internalType": "struct ExecutorArgs",
          "name": "executorArgs",
          "type": "tuple"
        },
        {
          "components": [
            {
              "internalType": "uint256",
              "name": "transferTokenFee",
              "type": "uint256"
            },
            {
              "internalType": "uint256",
              "name": "nativeTokenFee",
              "type": "uint256"
            },
            {
              "internalType": "address",
              "name": "payee",
              "type": "address"
            }
          ],
          "internalType": "struct FeeArgs",
          "name": "feeArgs",
          "type": "tuple"
        }
      ],
      "name": "withdraw",
      "outputs": [],
      "stateMutability": "payable",
      "type": "function"
    },
    {
      "inputs": [
        {
          "internalType": "uint256",
          "name": "_amount",
          "type": "uint256"
        },
        {
          "internalType": "address",
          "name": "_destinationAddress",
          "type": "address"
        },
        {
          "internalType": "bytes",
          "name": "_amlSignature",
          "type": "bytes"
        },
        {
          "internalType": "uint256",
          "name": "_amlDeadline",
          "type": "uint256"
        },
        {
          "internalType": "uint256",
          "name": "_permitDeadline",
          "type": "uint256"
        },
        {
          "internalType": "uint8",
          "name": "_v",
          "type": "uint8"
        },
        {
          "internalType": "bytes32",
          "name": "_r",
          "type": "bytes32"
        },
        {
          "internalType": "bytes32",
          "name": "_s",
          "type": "bytes32"
        },
        {
          "internalType": "uint16",
          "name": "targetChain",
          "type": "uint16"
        },
        {
          "internalType": "uint32",
          "name": "targetDomain",
          "type": "uint32"
        },
        {
          "components": [
            {
              "internalType": "address",
              "name": "refundAddress",
              "type": "address"
            },
            {
              "internalType": "bytes",
              "name": "signedQuote",
              "type": "bytes"
            },
            {
              "internalType": "bytes",
              "name": "instructions",
              "type": "bytes"
            }
          ],
          "internalType": "struct ExecutorArgs",
          "name": "executorArgs",
          "type": "tuple"
        },
        {
          "components": [
            {
              "internalType": "uint256",
              "name": "transferTokenFee",
              "type": "uint256"
            },
            {
              "internalType": "uint256",
              "name": "nativeTokenFee",
              "type": "uint256"
            },
            {
              "internalType": "address",
              "name": "payee",
              "type": "address"
            }
          ],
          "internalType": "struct FeeArgs",
          "name": "feeArgs",
          "type": "tuple"
        }
      ],
      "name": "withdrawWithPermit",
      "outputs": [],
      "stateMutability": "payable",
      "type": "function"
    }
  ],
  "bytecode": "0x60a080604052346100ea57306080527ff0c57e16840df040f15088dc2f81fe391c3923bec73e23a9662efc9c229c6a005460ff8160401c166100d9576002600160401b03196001600160401b03821601610073575b60405161283490816100f08239608051818181610f340152610fda0152f35b6001600160401b0319166001600160401b039081177ff0c57e16840df040f15088dc2f81fe391c3923bec73e23a9662efc9c229c6a005581527fc7f505b2f371ae2175ee4913f4499e1f2633a7b5936321eed1cdaeb6115181d290602090a13880610054565b63f92ee8a960e01b60005260046000fd5b600080fdfe608080604052600436101561001357600080fd5b600090813560e01c90816301ffc9a7146113fb575080630ce32eb3146113335780631a04b8f7146112be578063248a9ca3146112975780632f2ff15d1461126557806336568abe146112205780633d13272b146111f757806342a586fa146111aa5780634f1ef28614610f8957806352d1902d14610f215780636147da5614610ef85780636193d01814610eb4578063638e5fc914610e3f5780636adda2b614610d715780636c9fa59e14610d48578063715018a614610cc75780637641e6f314610ace57806379ba509714610a805780638c39355814610a565780638da5cb5b14610a205780638ee65da61461094757806391d14854146108ee578063986b853414610892578063a217fddf14610876578063aaaae34214610837578063ad3cb1cc146107bd578063cc2a9a5b1461030a578063d547741f146102cf578063e30c397814610299578063e3f248a41461026c578063f2fde38b146101e4578063f978fd61146101b55763fc0c546a1461018c57600080fd5b346101b257806003193601126101b257546040516001600160a01b039091168152602090f35b80fd5b50346101b25760203660031901126101b25760ff60406020926004358152600684522054166040519015158152f35b50346101b25760203660031901126101b2576101fe611450565b6102066119ef565b6000805160206127e883398151915280546001600160a01b0319166001600160a01b03928316908117909155600080516020612748833981519152549091167f38d16b8cac22d99fc7c124b9cd0de2d3fa1faef420bfe791d8c362d765e227008380a380f35b50346101b25760203660031901126101b257610296610289611450565b6102916119ef565b6118fc565b80f35b50346101b257806003193601126101b2576000805160206127e8833981519152546040516001600160a01b039091168152602090f35b50346101b25760403660031901126101b2576103066004356102ef61146b565b906103016102fc826116e0565b611a25565b611bec565b5080f35b50346101b25760c03660031901126101b257610324611450565b61032c61146b565b6044356001600160a01b038116908190036107b9576064356001600160a01b038116908190036107b5576084356001600160a01b03811691908290036107b15760a435916001600160a01b038316908184036107ad576000805160206127c8833981519152549660ff8860401c16159767ffffffffffffffff8116801590816107a5575b600114908161079b575b159081610792575b506107835767ffffffffffffffff1981166001176000805160206127c88339815191525588610756575b506103f5612504565b6103fd612504565b610405612504565b33156107425761041433612397565b61041c612504565b610424612504565b61042c612504565b60016000805160206127a8833981519152556001600160a01b0316958615610714576001600160a01b03169283156106e05785156106ad578015610671578115610637578215610608577f140f04db8f9f6d9bb315e777c49cbb7d9ca219fa539bc4c522f79671844533ed9561058b60a096896001600160601b03891b8d5416178c55866001600160601b03891b6002541617600255826001600160601b03891b6003541617600355846001600160601b03891b60015416176001556000805160206128088339815191528c526000805160206127888339815191526020527f0a30bae60ea06f344bebb63f4eb39612b0328589ecd1132302e75991373fee2d8c6000805160206128088339815191527fbd79b86ffe0ab8e8776151514217cd7cacd52c909f66475c3af44e129f0b00ff60016040842001549282815260008051602061278883398151915260205284600160408320015580a4611a6f565b506040519485526020850152604084015260608301526080820152a26105ae5780f35b68ff0000000000000000196000805160206127c883398151915254166000805160206127c8833981519152557fc7f505b2f371ae2175ee4913f4499e1f2633a7b5936321eed1cdaeb6115181d2602060405160018152a180f35b604051630b0f5aa160e11b8152602060048201526006602482015265313ab93732b960d11b6044820152606490fd5b604051630b0f5aa160e11b815260206004820152601160248201527018dc9bdcdcc818da185a5b881d985d5b1d607a1b6044820152606490fd5b604051630b0f5aa160e11b81526020600482015260136024820152723232b9ba34b730ba34b7b71036b0b730b3b2b960691b6044820152606490fd5b604051630b0f5aa160e11b815260206004820152600a60248201526930b6b61039b4b3b732b960b11b6044820152606490fd5b604051630b0f5aa160e11b815260206004820152600b60248201526a39b430b932903a37b5b2b760a91b6044820152606490fd5b604051630b0f5aa160e11b81526020600482015260056024820152643a37b5b2b760d91b6044820152606490fd5b631e4fbdf760e01b89526004899052602489fd5b68ffffffffffffffffff191668010000000000000001176000805160206127c883398151915255386103ec565b63f92ee8a960e01b8a5260048afd5b905015386103c2565b303b1591506103ba565b8a91506103b0565b8780fd5b8580fd5b8480fd5b8380fd5b50346101b257806003193601126101b25760408051916107dd8284611564565b60058352640352e302e360dc1b6020840152815192839160208352815191826020850152815b838110610820575050828201840152601f01601f19168101030190f35b602082820181015188830188015287955001610803565b50346101b25760203660031901126101b25760209060ff906040906001600160a01b03610862611450565b168152600584522054166040519015158152f35b50346101b257806003193601126101b257602090604051908152f35b506108d96108d46108a2366114c3565b9892956108b498949297959198611c8c565b6108c78387876108c261174f565b611cc8565b6108cf611774565b611df8565b61224c565b60016000805160206127a88339815191525580f35b50346101b25760403660031901126101b257604061090a61146b565b916004358152600080516020612788833981519152602052209060018060a01b0316600052602052602060ff604060002054166040519015158152f35b508061097a61098261095836611620565b9d8c9f99929c988c81959d9c939f9699979a610972611c8c565b6108c2611701565b6108cf611727565b84546001600160a01b031690813b156107b15760405163d505accf60e01b8152336004820152306024820152604481018d9052606481019190915260ff92909216608483015260a482019390935260c4810191909152908290829060e490829084905af18015610a15576109fc575b50506108d995612068565b81610a0691611564565b610a115786386109f1565b8680fd5b6040513d84823e3d90fd5b50346101b257806003193601126101b257600080516020612748833981519152546040516001600160a01b039091168152602090f35b50346101b25760203660031901126101b257610296610a73611450565b610a7b6119ef565b61179b565b50346101b257806003193601126101b2576000805160206127e883398151915254336001600160a01b0390911603610abb5761029633612397565b63118cdaa760e01b815233600452602490fd5b50346101b25760403660031901126101b25760043560243567ffffffffffffffff8111610cc357610b03903690600401611495565b600080516020612808833981519152845260008051602061278883398151915260209081526040808620336000908152925290205491929160ff1615610c9e578115610c8f578015610c80576002546040516370a0823160e01b81523060048201526001600160a01b0390911690602081602481855afa908115610c75578691610c43575b508311610c34578085913b15610c3057818091602460405180948193630852cd8d60e31b83528960048401525af18015610a1557610c1b575b50507f5b9d46fcafb9d23a7bfeecc55768d5e506ca28c3a3eea2f1a51704fa25bc02fa9160609160018060a01b0360025416948160405192839283378101878152039020936040519182526020820152336040820152a280f35b81610c2591611564565b6107b9578338610bc1565b5080fd5b631e9acf1760e31b8552600485fd5b90506020813d602011610c6d575b81610c5e60209383611564565b810103126107b1575138610b88565b3d9150610c51565b6040513d88823e3d90fd5b63643d3cf760e01b8452600484fd5b635e85ae7360e01b8452600484fd5b63e2517d3f60e01b845233600452600080516020612808833981519152602452604484fd5b8280fd5b50346101b257806003193601126101b257610ce06119ef565b6000805160206127e883398151915280546001600160a01b03199081169091556000805160206127488339815191528054918216905581906001600160a01b03167f8be0079c531659141344cd1fd0a4f28419497f9722a3daafe3b4186f6b6457e08280a380f35b50346101b257806003193601126101b2576002546040516001600160a01b039091168152602090f35b610da3826108c7610d8136611620565b9c8c9f94969795988c81959c939e610d9b9e9c959e611c8c565b6108c261174f565b89546001600160a01b031691823b15610e3b5760405163d505accf60e01b8152336004820152306024820152604481018d9052606481019290925260ff93909316608482015260a481019390935260c48301919091528790829060e490829084905af18015610e3057610e1c575b506108d9959661224c565b95610e2a816108d998611564565b95610e11565b6040513d89823e3d90fd5b8a80fd5b50346101b25760203660031901126101b257610e59611450565b610e616119ef565b6001600160a01b0316801561063757600180546001600160a01b0319811683179091556001600160a01b03167f4d5e356daffe6b8e8438edef03597d8456db20f09af07d3d4fed737777302aa98380a380f35b50346101b25760203660031901126101b257600435906004548210156101b2576020610edf836115ef565b905460405160039290921b1c6001600160a01b03168152f35b50346101b257806003193601126101b2576003546040516001600160a01b039091168152602090f35b50346101b257806003193601126101b2577f00000000000000000000000000000000000000000000000000000000000000006001600160a01b03163003610f7a5760206040516000805160206127688339815191528152f35b63703e46dd60e11b8152600490fd5b5060403660031901126101b257610f9e611450565b9060243567ffffffffffffffff8111610c305736602382011215610c3057610fd09036906024816004013591016115b8565b6001600160a01b037f000000000000000000000000000000000000000000000000000000000000000016308114908115611187575b50611178576110126119ef565b6040516352d1902d60e01b8152926001600160a01b0381169190602085600481865afa80958596611144575b5061105757634c9c8ce360e01b84526004839052602484fd5b90918460008051602061276883398151915281036111325750813b156111205760008051602061276883398151915280546001600160a01b031916821790557fbc7cd75a20ee27fd9adebab32041f755214dbc6bffa90cc0225b39da2e5c2d3b8480a28151839015611106578083602061030695519101845af43d156110fe573d916110e28361159c565b926110f06040519485611564565b83523d85602085013e6126e6565b6060916126e6565b505050346111115780f35b63b398979f60e01b8152600490fd5b634c9c8ce360e01b8452600452602483fd5b632a87526960e21b8552600452602484fd5b9095506020813d602011611170575b8161116060209383611564565b810103126107b55751943861103e565b3d9150611153565b63703e46dd60e11b8252600482fd5b600080516020612768833981519152546001600160a01b03161415905038611005565b506111b4366114c3565b9692939897919490956111c5611c8c565b82156111e857986111e3916108d9999a61097a8387876108c2611701565b612068565b635e85ae7360e01b8952600489fd5b50346101b257806003193601126101b2576001546040516001600160a01b039091168152602090f35b50346101b25760403660031901126101b25761123a61146b565b336001600160a01b038216036112565761030690600435611bec565b63334bd91960e11b8252600482fd5b50346101b25760403660031901126101b25761030660043561128561146b565b906112926102fc826116e0565b611b43565b50346101b25760203660031901126101b25760206112b66004356116e0565b604051908152f35b50346101b25760203660031901126101b2576112d8611450565b6112e06119ef565b6001600160a01b031680156106ad57600380546001600160a01b0319811683179091556001600160a01b03167f7f7b46c0c664af2835dffe8b8e5c1ddbfcef63f608af5bbf2836a2b29a88fcb08380a380f35b50346101b257806003193601126101b25760405180602060045491828152018091600485527f8a35acfbc15ff81a39ae7d344fd709f28e8600b4aa8c65c6b64bfe7fe36bd19b90855b8181106113dc5750505082611392910383611564565b604051928392602084019060208552518091526040840192915b8181106113ba575050500390f35b82516001600160a01b03168452859450602093840193909201916001016113ac565b82546001600160a01b031684526020909301926001928301920161137c565b905034610c30576020366003190112610c305760043563ffffffff60e01b8116809103610cc35760209250637965db0b60e01b811490811561143f575b5015158152f35b6301ffc9a760e01b14905038611438565b600435906001600160a01b038216820361146657565b600080fd5b602435906001600160a01b038216820361146657565b35906001600160a01b038216820361146657565b9181601f840112156114665782359167ffffffffffffffff8311611466576020838186019501011161146657565b61014060031982011261146657600435916024356001600160a01b0381168103611466579160443567ffffffffffffffff8111611466578161150791600401611495565b929092916064359160843561ffff81168103611466579160a43563ffffffff81168103611466579160c43567ffffffffffffffff81116114665760608184036003190112611466576060906004019260e31901126114665760e490565b90601f8019910116810190811067ffffffffffffffff82111761158657604052565b634e487b7160e01b600052604160045260246000fd5b67ffffffffffffffff811161158657601f01601f191660200190565b9291926115c48261159c565b916115d26040519384611564565b829481845281830111611466578281602093846000960137010152565b60045481101561160a57600460005260206000200190600090565b634e487b7160e01b600052603260045260246000fd5b6101c060031982011261146657600435916024356001600160a01b0381168103611466579160443567ffffffffffffffff8111611466578161166491600401611495565b92909291606435916084359160a43560ff81168103611466579160c4359160e435916101043561ffff8116810361146657916101243563ffffffff8116810361146657916101443567ffffffffffffffff8111611466576060818403600319011261146657606090600401926101631901126114665761016490565b60005260008051602061278883398151915260205260016040600020015490565b60405190611710604083611564565b6008825267576974686472617760c01b6020830152565b60405190611736604083611564565b600a82526915da5d1a191c985dd85b60b21b6020830152565b6040519061175e604083611564565b600782526611195c1bdcda5d60ca1b6020830152565b60405190611783604083611564565b60098252682232b837b9b4ba37b960b91b6020830152565b6000905b60045491828110156118c9576117b4816115ef565b90546001600160a01b03848116959260031b9190911c1684146117dc5750600101915061179f565b6000198101925082116118b3576118106117f8611834936115ef565b905460039190911b1c6001600160a01b0316916115ef565b81546001600160a01b0393841660039290921b91821b9390911b1916919091179055565b806000526005602052604060002060ff198154169055600454801561189d5760001901611860816115ef565b81549060018060a01b039060031b1b191690556004557febe8af0714f0dd4a7b23bc7163ea1aadcce97af7a8ec25343abdbccdb2ea8a66600080a2565b634e487b7160e01b600052603160045260246000fd5b634e487b7160e01b600052601160045260246000fd5b506001600160a01b031690507f52d051a942d5c9a74e875d9faaa59f6de2ecefa16c6844af092cc73f749baad4600080a2565b6001600160a01b0381169081156119b35781600052600560205260ff6040600020541661198b578160005260056020526040600020600160ff1982541617905560045490680100000000000000008210156115865761181082600161196494016004556115ef565b7fcef021749a809ea9d2e4eb3f28a169c12227e99b0bca877f3950fb8c2ccfaa62600080a2565b507f52d051a942d5c9a74e875d9faaa59f6de2ecefa16c6844af092cc73f749baad4600080a2565b604051630b0f5aa160e11b815260206004820152601360248201527264657374696e6174696f6e206164647265737360681b6044820152606490fd5b600080516020612748833981519152546001600160a01b03163303611a1057565b63118cdaa760e01b6000523360045260246000fd5b60008181526000805160206127888339815191526020908152604080832033845290915290205460ff1615611a575750565b63e2517d3f60e01b6000523360045260245260446000fd5b6001600160a01b03811660009081527f99d7401b6c7fae7e32559c2f2939eb2955c262626d0b69e0397921638ab2ab8a602052604090205460ff16611b3d576001600160a01b031660008181527f99d7401b6c7fae7e32559c2f2939eb2955c262626d0b69e0397921638ab2ab8a60205260408120805460ff191660011790553391907f0a30bae60ea06f344bebb63f4eb39612b0328589ecd1132302e75991373fee2d907f2f8788117e7eff1d82e926ec794901d17c78024a50270940304540a733656f0d9080a4600190565b50600090565b6000818152600080516020612788833981519152602090815260408083206001600160a01b038616845290915290205460ff16611be5576000818152600080516020612788833981519152602090815260408083206001600160a01b0395909516808452949091528120805460ff19166001179055339291907f2f8788117e7eff1d82e926ec794901d17c78024a50270940304540a733656f0d9080a4600190565b5050600090565b6000818152600080516020612788833981519152602090815260408083206001600160a01b038616845290915290205460ff1615611be5576000818152600080516020612788833981519152602090815260408083206001600160a01b0395909516808452949091528120805460ff19169055339291907ff6391f5c32d9c69d2a47ea670b442974b53935d1edc7fd64eb21e047a839171b9080a4600190565b60026000805160206127a88339815191525414611cb75760026000805160206127a883398151915255565b633ee5aeb560e01b60005260046000fd5b929092602081519101207fe09149d2123147c5f43d258257fef0b7b969db78269369ebcf5ebb9eef8592f28114600014611d6257506040519160208301937fa79feebba5eca838f5afb25f042ef9dbee2e9824463ec262b652584c92f243638552336040850152606084015260018060a01b0316608083015260a0820152611d5c60c082800301601f198101835282611564565b51902090565b7f8d7f87ab38a7f75a63dc465e10aadacecfca64c44ca774040b039bfb004e336714611d99576318b6b25f60e21b60005260046000fd5b6040519160208301937fa9c090963b849011e9176737d7fc342936631fb97bbf2f507ad751e58480ff518552336040850152606084015260018060a01b0316608083015260a0820152611d5c60c082800301601f198101835282611564565b9290934211611f3b5783600052600660205260ff60406000205416611f2a57611ebf611ec5926042856020611ece975191012060405160208101917f8b73c3c69bb8fe3d512ecc4cf759cc79239f7b179b0ffacaa9a75d522b39400f835260408201527fc89efdaa54c0f20c7adf612882df0950f5a951637e0307cdcb4c672f298b8bc660608201524660808201523060a082015260a08152611e9c60c082611564565b5190206040519061190160f01b82526002820152876022820152209236916115b8565b90612532565b9092919261256e565b6001600160a01b03168015611f19576003546001600160a01b031603611f085760005260066020526040600020600160ff19825416179055565b63d1cc738560e01b60005260046000fd5b638bb79cad60e01b60005260046000fd5b63e544c62f60e01b60005260046000fd5b63288a076f60e21b60005260046000fd5b9035601e198236030181121561146657016020813591019167ffffffffffffffff821161146657813603831361146657565b908060209392818452848401376000828201840152601f01601f1916010190565b95929361ffff61203b95610100979463ffffffff949b9a9b60018060a01b03168a5260208a0152166040880152166060860152608085015261012060a085015260018060a01b03611fef82611481565b1661012085015261202761201c6120096020840184611f4c565b6060610140890152610180880191611f7e565b916040810190611f4c565b85830361011f190161016087015290611f7e565b843560c0840152602085013560e0840152936001600160a01b039061206290604001611481565b16910152565b93959491909295600092851561223d576001600160a01b03851690811561220157818552600560205260ff604086205416156121bb576002546120b9908890309033906001600160a01b0316612405565b6120ce87303360018060a01b03895416612405565b84546001546120eb9189916001600160a01b039081169116612450565b60015485546001600160a01b0391821694911692843b15610a11579261212e8795938a9388966040519e8f9889978897636491d4cd60e11b895260048901611f9f565b039134905af1958615610a15577fc2d6d3c0892701506bd7f775f2f5f485b7d3bc699b4ee794236a3c84c6738a069495966121a5575b506002549154604080519687526001600160a01b039384166020880152908316908601529116606084015261ffff16608083015233918060a081015b0390a2565b916121b4816121a09394611564565b9190612164565b604051630b0f5aa160e11b815260206004820152601960248201527f64657374696e6174696f6e20646f65736e2774206578697374000000000000006044820152606490fd5b604051630b0f5aa160e11b815260206004820152601360248201527264657374696e6174696f6e206973207a65726f60681b6044820152606490fd5b63162908e360e11b8452600484fd5b939594959290926000968515612388576001600160a01b038516801561220157808952600560205260ff60408a205416156121bb57885489939061229e908990309033906001600160a01b0316612405565b83546001546122bb918a916001600160a01b039081169116612450565b60015484546001600160a01b0391821693911690833b156107b15787948a936122fb92604051998a9889978897636491d4cd60e11b895260048901611f9f565b039134905af18015610c7557956121a091817fec00d85a7419eaf32ce126aca75379da78c9f8c7521a12d2b05292035cd2f948969798612378575b505054600254604080519788526001600160a01b0392831660208901529082169087015292909216606085015261ffff166080840152339290819060a0820190565b61238191611564565b3881612336565b63162908e360e11b8852600488fd5b6000805160206127e883398151915280546001600160a01b031990811690915560008051602061274883398151915280549182166001600160a01b0393841690811790915591167f8be0079c531659141344cd1fd0a4f28419497f9722a3daafe3b4186f6b6457e0600080a3565b6040516323b872dd60e01b60208201526001600160a01b03928316602482015292909116604483015260648083019390935291815261244e91612449608483611564565b6125f6565b565b60206000604051938285019063095ea7b360e01b825260018060a01b031695866024870152604486015260448552612489606486611564565b84519082855af16000513d826124df575b5050156124a657505050565b61244961244e936040519063095ea7b360e01b6020830152602482015260006044820152604481526124d9606482611564565b826125f6565b9091506124fc57506001600160a01b0381163b15155b388061249a565b6001146124f5565b60ff6000805160206127c88339815191525460401c161561252157565b631afcd79f60e31b60005260046000fd5b81519190604183036125635761255c92506020820151906060604084015193015160001a9061265d565b9192909190565b505060009160029190565b91909160048110156125e0578061258457509050565b60006001820361259f5763f645eedf60e01b60005260046000fd5b50600281036125bd578263fce698f760e01b60005260045260246000fd5b90916003600092146125cd575050565b6335e2f38360e21b825260045260249150fd5b634e487b7160e01b600052602160045260246000fd5b906000602091828151910182855af115612651576000513d61264857506001600160a01b0381163b155b6126275750565b635274afe760e01b60009081526001600160a01b0391909116600452602490fd5b60011415612620565b6040513d6000823e3d90fd5b91907f7fffffffffffffffffffffffffffffff5d576e7357a4501ddfe92f46681b20a084116126da579160209360809260ff60009560405194855216868401526040830152606082015282805260015afa15612651576000516001600160a01b038116156126ce5790600090600090565b50600090600190600090565b50505060009160039190565b9061270c57508051156126fb57602081519101fd5b63d6bda27560e01b60005260046000fd5b8151158061273e575b61271d575090565b639996b31560e01b60009081526001600160a01b0391909116600452602490fd5b50803b1561271556fe9016d09d72d40fdae2fd8ceac6b6234c7706214fd39c1cd1e609a0528c199300360894a13ba1a3210667c828492db98dca3e2076cc3735a920a3ca505d382bbc02dd7bc7dec4dceedda775e58dd541e08a116c6c53815c0bd028192f7b6268009b779b17422d0df92223018b32b4d1fa46e071723d6817e2486d003becc55f00f0c57e16840df040f15088dc2f81fe391c3923bec73e23a9662efc9c229c6a00237e158222e3e6968b72b9db0d8043aacf074ad9f650f0d1606b4d82ee432c00e97b137254058bd94f28d2f3eb79e2d34074ffb488d042e3bc958e0a57d2fa22a164736f6c634300081c000a",
  "linkReferences": {},
  "deployedLinkReferences": {}
}