{
  "_format": "hh-sol-artifact-1",
  "contractName": "CrossChainManager",
  "sourceName": "contracts/CrossChainManager.sol",
  "abi": [
    {
      "inputs": [],
      "stateMutability": "nonpayable",
      "type": "constructor"
    },
    {
      "inputs": [],
      "name": "AccessControlBadConfirmation",
      "type": "error"
    },
    {
      "inputs": [
        {
          "internalType": "address",
          "name": "account",
          "type": "address"
        },
        {
          "internalType": "bytes32",
          "name": "neededRole",
          "type": "bytes32"
        }
      ],
      "name": "AccessControlUnauthorizedAccount",
      "type": "error"
    },
    {
      "inputs": [
        {
          "internalType": "address",
          "name": "target",
          "type": "address"
        }
      ],
      "name": "AddressEmptyCode",
      "type": "error"
    },
    {
      "inputs": [],
      "name": "AmlSignatureAlreadyUsed",
      "type": "error"
    },
    {
      "inputs": [],
      "name": "AmlSignatureExpired",
      "type": "error"
    },
    {
      "inputs": [],
      "name": "ECDSAInvalidSignature",
      "type": "error"
    },
    {
      "inputs": [
        {
          "internalType": "uint256",
          "name": "length",
          "type": "uint256"
        }
      ],
      "name": "ECDSAInvalidSignatureLength",
      "type": "error"
    },
    {
      "inputs": [
        {
          "internalType": "bytes32",
          "name": "s",
          "type": "bytes32"
        }
      ],
      "name": "ECDSAInvalidSignatureS",
      "type": "error"
    },
    {
      "inputs": [
        {
          "internalType": "address",
          "name": "implementation",
          "type": "address"
        }
      ],
      "name": "ERC1967InvalidImplementation",
      "type": "error"
    },
    {
      "inputs": [],
      "name": "ERC1967NonPayable",
      "type": "error"
    },
    {
      "inputs": [],
      "name": "FailedCall",
      "type": "error"
    },
    {
      "inputs": [
        {
          "internalType": "string",
          "name": "",
          "type": "string"
        }
      ],
      "name": "InvalidAddress",
      "type": "error"
    },
    {
      "inputs": [],
      "name": "InvalidAmlSignature",
      "type": "error"
    },
    {
      "inputs": [],
      "name": "InvalidAmlSigner",
      "type": "error"
    },
    {
      "inputs": [],
      "name": "InvalidAmount",
      "type": "error"
    },
    {
      "inputs": [],
      "name": "InvalidInitialization",
      "type": "error"
    },
    {
      "inputs": [],
      "name": "NotInitializing",
      "type": "error"
    },
    {
      "inputs": [
        {
          "internalType": "address",
          "name": "owner",
          "type": "address"
        }
      ],
      "name": "OwnableInvalidOwner",
      "type": "error"
    },
    {
      "inputs": [
        {
          "internalType": "address",
          "name": "account",
          "type": "address"
        }
      ],
      "name": "OwnableUnauthorizedAccount",
      "type": "error"
    },
    {
      "inputs": [],
      "name": "ReentrancyGuardReentrantCall",
      "type": "error"
    },
    {
      "inputs": [],
      "name": "UUPSUnauthorizedCallContext",
      "type": "error"
    },
    {
      "inputs": [
        {
          "internalType": "bytes32",
          "name": "slot",
          "type": "bytes32"
        }
      ],
      "name": "UUPSUnsupportedProxiableUUID",
      "type": "error"
    },
    {
      "anonymous": false,
      "inputs": [
        {
          "indexed": true,
          "internalType": "address",
          "name": "crossChainVaultAddress",
          "type": "address"
        }
      ],
      "name": "CrossChainConfigUpdated",
      "type": "event"
    },
    {
      "anonymous": false,
      "inputs": [
        {
          "indexed": true,
          "internalType": "address",
          "name": "depositTokenAddress",
          "type": "address"
        },
        {
          "indexed": false,
          "internalType": "address",
          "name": "shareTokenAddress",
          "type": "address"
        },
        {
          "indexed": false,
          "internalType": "address",
          "name": "amlSignerAddress",
          "type": "address"
        },
        {
          "indexed": false,
          "internalType": "address",
          "name": "destinationManagerAddress",
          "type": "address"
        },
        {
          "indexed": false,
          "internalType": "address",
          "name": "crossChainVaultAddress",
          "type": "address"
        }
      ],
      "name": "CrossChainManagerInitialized",
      "type": "event"
    },
    {
      "anonymous": false,
      "inputs": [
        {
          "indexed": true,
          "internalType": "address",
          "name": "user",
          "type": "address"
        },
        {
          "indexed": false,
          "internalType": "uint256",
          "name": "amount",
          "type": "uint256"
        },
        {
          "indexed": false,
          "internalType": "address",
          "name": "depositToken",
          "type": "address"
        },
        {
          "indexed": false,
          "internalType": "address",
          "name": "shareToken",
          "type": "address"
        },
        {
          "indexed": false,
          "internalType": "address",
          "name": "destinationAddress",
          "type": "address"
        },
        {
          "indexed": false,
          "internalType": "uint16",
          "name": "targetChain",
          "type": "uint16"
        }
      ],
      "name": "Deposited",
      "type": "event"
    },
    {
      "anonymous": false,
      "inputs": [
        {
          "indexed": true,
          "internalType": "address",
          "name": "destination",
          "type": "address"
        }
      ],
      "name": "DestinationAddressAdded",
      "type": "event"
    },
    {
      "anonymous": false,
      "inputs": [
        {
          "indexed": true,
          "internalType": "address",
          "name": "destination",
          "type": "address"
        }
      ],
      "name": "DestinationAddressRemoved",
      "type": "event"
    },
    {
      "anonymous": false,
      "inputs": [
        {
          "indexed": true,
          "internalType": "address",
          "name": "destination",
          "type": "address"
        }
      ],
      "name": "DestinationAddressSkipped",
      "type": "event"
    },
    {
      "anonymous": false,
      "inputs": [
        {
          "indexed": false,
          "internalType": "uint64",
          "name": "version",
          "type": "uint64"
        }
      ],
      "name": "Initialized",
      "type": "event"
    },
    {
      "anonymous": false,
      "inputs": [
        {
          "indexed": true,
          "internalType": "address",
          "name": "previousOwner",
          "type": "address"
        },
        {
          "indexed": true,
          "internalType": "address",
          "name": "newOwner",
          "type": "address"
        }
      ],
      "name": "OwnershipTransferStarted",
      "type": "event"
    },
    {
      "anonymous": false,
      "inputs": [
        {
          "indexed": true,
          "internalType": "address",
          "name": "previousOwner",
          "type": "address"
        },
        {
          "indexed": true,
          "internalType": "address",
          "name": "newOwner",
          "type": "address"
        }
      ],
      "name": "OwnershipTransferred",
      "type": "event"
    },
    {
      "anonymous": false,
      "inputs": [
        {
          "indexed": true,
          "internalType": "bytes32",
          "name": "role",
          "type": "bytes32"
        },
        {
          "indexed": true,
          "internalType": "bytes32",
          "name": "previousAdminRole",
          "type": "bytes32"
        },
        {
          "indexed": true,
          "internalType": "bytes32",
          "name": "newAdminRole",
          "type": "bytes32"
        }
      ],
      "name": "RoleAdminChanged",
      "type": "event"
    },
    {
      "anonymous": false,
      "inputs": [
        {
          "indexed": true,
          "internalType": "bytes32",
          "name": "role",
          "type": "bytes32"
        },
        {
          "indexed": true,
          "internalType": "address",
          "name": "account",
          "type": "address"
        },
        {
          "indexed": true,
          "internalType": "address",
          "name": "sender",
          "type": "address"
        }
      ],
      "name": "RoleGranted",
      "type": "event"
    },
    {
      "anonymous": false,
      "inputs": [
        {
          "indexed": true,
          "internalType": "bytes32",
          "name": "role",
          "type": "bytes32"
        },
        {
          "indexed": true,
          "internalType": "address",
          "name": "account",
          "type": "address"
        },
        {
          "indexed": true,
          "internalType": "address",
          "name": "sender",
          "type": "address"
        }
      ],
      "name": "RoleRevoked",
      "type": "event"
    },
    {
      "anonymous": false,
      "inputs": [
        {
          "indexed": true,
          "internalType": "address",
          "name": "implementation",
          "type": "address"
        }
      ],
      "name": "Upgraded",
      "type": "event"
    },
    {
      "inputs": [],
      "name": "DEFAULT_ADMIN_ROLE",
      "outputs": [
        {
          "internalType": "bytes32",
          "name": "",
          "type": "bytes32"
        }
      ],
      "stateMutability": "view",
      "type": "function"
    },
    {
      "inputs": [],
      "name": "DESTINATION_MANAGER_ADMIN_ROLE",
      "outputs": [
        {
          "internalType": "bytes32",
          "name": "",
          "type": "bytes32"
        }
      ],
      "stateMutability": "view",
      "type": "function"
    },
    {
      "inputs": [],
      "name": "DESTINATION_MANAGER_ROLE",
      "outputs": [
        {
          "internalType": "bytes32",
          "name": "",
          "type": "bytes32"
        }
      ],
      "stateMutability": "view",
      "type": "function"
    },
    {
      "inputs": [],
      "name": "UPGRADE_INTERFACE_VERSION",
      "outputs": [
        {
          "internalType": "string",
          "name": "",
          "type": "string"
        }
      ],
      "stateMutability": "view",
      "type": "function"
    },
    {
      "inputs": [],
      "name": "acceptOwnership",
      "outputs": [],
      "stateMutability": "nonpayable",
      "type": "function"
    },
    {
      "inputs": [
        {
          "internalType": "address",
          "name": "_destination",
          "type": "address"
        }
      ],
      "name": "addDestinationAddress",
      "outputs": [],
      "stateMutability": "nonpayable",
      "type": "function"
    },
    {
      "inputs": [],
      "name": "amlSigner",
      "outputs": [
        {
          "internalType": "address",
          "name": "",
          "type": "address"
        }
      ],
      "stateMutability": "view",
      "type": "function"
    },
    {
      "inputs": [],
      "name": "crossChainVault",
      "outputs": [
        {
          "internalType": "contract CrossChainVaultV1",
          "name": "",
          "type": "address"
        }
      ],
      "stateMutability": "view",
      "type": "function"
    },
    {
      "inputs": [
        {
          "internalType": "uint256",
          "name": "_amount",
          "type": "uint256"
        },
        {
          "internalType": "address",
          "name": "_destinationAddress",
          "type": "address"
        },
        {
          "internalType": "bytes",
          "name": "_amlSignature",
          "type": "bytes"
        },
        {
          "internalType": "uint256",
          "name": "_amlDeadline",
          "type": "uint256"
        },
        {
          "internalType": "uint16",
          "name": "targetChain",
          "type": "uint16"
        },
        {
          "internalType": "uint32",
          "name": "targetDomain",
          "type": "uint32"
        },
        {
          "components": [
            {
              "internalType": "address",
              "name": "refundAddress",
              "type": "address"
            },
            {
              "internalType": "bytes",
              "name": "signedQuote",
              "type": "bytes"
            },
            {
              "internalType": "bytes",
              "name": "instructions",
              "type": "bytes"
            }
          ],
          "internalType": "struct ExecutorArgs",
          "name": "executorArgs",
          "type": "tuple"
        },
        {
          "components": [
            {
              "internalType": "uint256",
              "name": "transferTokenFee",
              "type": "uint256"
            },
            {
              "internalType": "uint256",
              "name": "nativeTokenFee",
              "type": "uint256"
            },
            {
              "internalType": "address",
              "name": "payee",
              "type": "address"
            }
          ],
          "internalType": "struct FeeArgs",
          "name": "feeArgs",
          "type": "tuple"
        }
      ],
      "name": "deposit",
      "outputs": [],
      "stateMutability": "nonpayable",
      "type": "function"
    },
    {
      "inputs": [],
      "name": "depositToken",
      "outputs": [
        {
          "internalType": "contract CustomToken",
          "name": "",
          "type": "address"
        }
      ],
      "stateMutability": "view",
      "type": "function"
    },
    {
      "inputs": [
        {
          "internalType": "uint256",
          "name": "_amount",
          "type": "uint256"
        },
        {
          "internalType": "address",
          "name": "_destinationAddress",
          "type": "address"
        },
        {
          "internalType": "bytes",
          "name": "_amlSignature",
          "type": "bytes"
        },
        {
          "internalType": "uint256",
          "name": "_amlDeadline",
          "type": "uint256"
        },
        {
          "internalType": "uint256",
          "name": "_permitDeadline",
          "type": "uint256"
        },
        {
          "internalType": "uint8",
          "name": "_v",
          "type": "uint8"
        },
        {
          "internalType": "bytes32",
          "name": "_r",
          "type": "bytes32"
        },
        {
          "internalType": "bytes32",
          "name": "_s",
          "type": "bytes32"
        },
        {
          "internalType": "uint16",
          "name": "targetChain",
          "type": "uint16"
        },
        {
          "internalType": "uint32",
          "name": "targetDomain",
          "type": "uint32"
        },
        {
          "components": [
            {
              "internalType": "address",
              "name": "refundAddress",
              "type": "address"
            },
            {
              "internalType": "bytes",
              "name": "signedQuote",
              "type": "bytes"
            },
            {
              "internalType": "bytes",
              "name": "instructions",
              "type": "bytes"
            }
          ],
          "internalType": "struct ExecutorArgs",
          "name": "executorArgs",
          "type": "tuple"
        },
        {
          "components": [
            {
              "internalType": "uint256",
              "name": "transferTokenFee",
              "type": "uint256"
            },
            {
              "internalType": "uint256",
              "name": "nativeTokenFee",
              "type": "uint256"
            },
            {
              "internalType": "address",
              "name": "payee",
              "type": "address"
            }
          ],
          "internalType": "struct FeeArgs",
          "name": "feeArgs",
          "type": "tuple"
        }
      ],
      "name": "depositWithPermit",
      "outputs": [],
      "stateMutability": "payable",
      "type": "function"
    },
    {
      "inputs": [
        {
          "internalType": "uint256",
          "name": "",
          "type": "uint256"
        }
      ],
      "name": "destinationAddresses",
      "outputs": [
        {
          "internalType": "address",
          "name": "",
          "type": "address"
        }
      ],
      "stateMutability": "view",
      "type": "function"
    },
    {
      "inputs": [],
      "name": "getCrossChainContractAddress",
      "outputs": [
        {
          "internalType": "address",
          "name": "",
          "type": "address"
        }
      ],
      "stateMutability": "view",
      "type": "function"
    },
    {
      "inputs": [],
      "name": "getDestinationAddresses",
      "outputs": [
        {
          "internalType": "address[]",
          "name": "",
          "type": "address[]"
        }
      ],
      "stateMutability": "view",
      "type": "function"
    },
    {
      "inputs": [
        {
          "internalType": "bytes32",
          "name": "role",
          "type": "bytes32"
        }
      ],
      "name": "getRoleAdmin",
      "outputs": [
        {
          "internalType": "bytes32",
          "name": "",
          "type": "bytes32"
        }
      ],
      "stateMutability": "view",
      "type": "function"
    },
    {
      "inputs": [
        {
          "internalType": "bytes32",
          "name": "role",
          "type": "bytes32"
        },
        {
          "internalType": "address",
          "name": "account",
          "type": "address"
        }
      ],
      "name": "grantRole",
      "outputs": [],
      "stateMutability": "nonpayable",
      "type": "function"
    },
    {
      "inputs": [
        {
          "internalType": "bytes32",
          "name": "role",
          "type": "bytes32"
        },
        {
          "internalType": "address",
          "name": "account",
          "type": "address"
        }
      ],
      "name": "hasRole",
      "outputs": [
        {
          "internalType": "bool",
          "name": "",
          "type": "bool"
        }
      ],
      "stateMutability": "view",
      "type": "function"
    },
    {
      "inputs": [
        {
          "internalType": "address",
          "name": "_depositTokenAddress",
          "type": "address"
        },
        {
          "internalType": "address",
          "name": "_shareTokenAddress",
          "type": "address"
        },
        {
          "internalType": "address",
          "name": "_amlSignerAddress",
          "type": "address"
        },
        {
          "internalType": "address",
          "name": "_destinationManagerAddress",
          "type": "address"
        },
        {
          "internalType": "address",
          "name": "crossChainVaultAddress",
          "type": "address"
        }
      ],
      "name": "initialize",
      "outputs": [],
      "stateMutability": "nonpayable",
      "type": "function"
    },
    {
      "inputs": [
        {
          "internalType": "address",
          "name": "_destination",
          "type": "address"
        }
      ],
      "name": "isDestination",
      "outputs": [
        {
          "internalType": "bool",
          "name": "",
          "type": "bool"
        }
      ],
      "stateMutability": "view",
      "type": "function"
    },
    {
      "inputs": [],
      "name": "owner",
      "outputs": [
        {
          "internalType": "address",
          "name": "",
          "type": "address"
        }
      ],
      "stateMutability": "view",
      "type": "function"
    },
    {
      "inputs": [],
      "name": "pendingOwner",
      "outputs": [
        {
          "internalType": "address",
          "name": "",
          "type": "address"
        }
      ],
      "stateMutability": "view",
      "type": "function"
    },
    {
      "inputs": [],
      "name": "proxiableUUID",
      "outputs": [
        {
          "internalType": "bytes32",
          "name": "",
          "type": "bytes32"
        }
      ],
      "stateMutability": "view",
      "type": "function"
    },
    {
      "inputs": [
        {
          "internalType": "address",
          "name": "_destination",
          "type": "address"
        }
      ],
      "name": "removeDestinationAddress",
      "outputs": [],
      "stateMutability": "nonpayable",
      "type": "function"
    },
    {
      "inputs": [],
      "name": "renounceOwnership",
      "outputs": [],
      "stateMutability": "nonpayable",
      "type": "function"
    },
    {
      "inputs": [
        {
          "internalType": "bytes32",
          "name": "role",
          "type": "bytes32"
        },
        {
          "internalType": "address",
          "name": "callerConfirmation",
          "type": "address"
        }
      ],
      "name": "renounceRole",
      "outputs": [],
      "stateMutability": "nonpayable",
      "type": "function"
    },
    {
      "inputs": [
        {
          "internalType": "bytes32",
          "name": "role",
          "type": "bytes32"
        },
        {
          "internalType": "address",
          "name": "account",
          "type": "address"
        }
      ],
      "name": "revokeRole",
      "outputs": [],
      "stateMutability": "nonpayable",
      "type": "function"
    },
    {
      "inputs": [],
      "name": "shareToken",
      "outputs": [
        {
          "internalType": "address",
          "name": "",
          "type": "address"
        }
      ],
      "stateMutability": "view",
      "type": "function"
    },
    {
      "inputs": [
        {
          "internalType": "bytes4",
          "name": "interfaceId",
          "type": "bytes4"
        }
      ],
      "name": "supportsInterface",
      "outputs": [
        {
          "internalType": "bool",
          "name": "",
          "type": "bool"
        }
      ],
      "stateMutability": "view",
      "type": "function"
    },
    {
      "inputs": [
        {
          "internalType": "address",
          "name": "newOwner",
          "type": "address"
        }
      ],
      "name": "transferOwnership",
      "outputs": [],
      "stateMutability": "nonpayable",
      "type": "function"
    },
    {
      "inputs": [
        {
          "internalType": "address",
          "name": "crossChainVaultAddress",
          "type": "address"
        }
      ],
      "name": "updateCrossChainConfig",
      "outputs": [],
      "stateMutability": "nonpayable",
      "type": "function"
    },
    {
      "inputs": [
        {
          "internalType": "address",
          "name": "newImplementation",
          "type": "address"
        },
        {
          "internalType": "bytes",
          "name": "data",
          "type": "bytes"
        }
      ],
      "name": "upgradeToAndCall",
      "outputs": [],
      "stateMutability": "payable",
      "type": "function"
    },
    {
      "inputs": [
        {
          "internalType": "bytes32",
          "name": "",
          "type": "bytes32"
        }
      ],
      "name": "usedSignatures",
      "outputs": [
        {
          "internalType": "bool",
          "name": "",
          "type": "bool"
        }
      ],
      "stateMutability": "view",
      "type": "function"
    }
  ],
  "bytecode": "0x60a080604052346100ea57306080527ff0c57e16840df040f15088dc2f81fe391c3923bec73e23a9662efc9c229c6a005460ff8160401c166100d9576002600160401b03196001600160401b03821601610073575b6040516120c690816100f08239608051818181610bb50152610c5b0152f35b6001600160401b0319166001600160401b039081177ff0c57e16840df040f15088dc2f81fe391c3923bec73e23a9662efc9c229c6a005581527fc7f505b2f371ae2175ee4913f4499e1f2633a7b5936321eed1cdaeb6115181d290602090a13880610054565b63f92ee8a960e01b60005260046000fd5b600080fdfe608080604052600436101561001357600080fd5b600090813560e01c90816301ffc9a714611453575080630ce32eb31461138b5780631459457a14610f565780632050200914610e2b578063248a9ca314610f2f57806325f2ba4914610ef45780632c7e2d5e14610ecb5780632f2ff15d14610e9957806336568abe14610e545780633d13272b14610e2b5780634f1ef28614610c0a57806352d1902d14610ba25780636147da5614610b795780636193d01814610b35578063638e5fc914610a915780636adda2b61461081b5780636c9fa59e146107f2578063715018a61461077157806379ba5097146107235780638c393558146106f95780638da5cb5b146106c357806391d148541461066a578063986b8534146103c3578063a217fddf146103a7578063aaaae34214610379578063ad3cb1cc146102ff578063c89039c5146102d8578063d547741f1461029d578063e30c397814610267578063e3f248a41461023a578063f2fde38b146101b25763f978fd611461018157600080fd5b346101af5760203660031901126101af5760ff60406020926004358152600584522054166040519015158152f35b80fd5b50346101af5760203660031901126101af576101cc6114a8565b6101d4611d6d565b60008051602061209a83398151915280546001600160a01b0319166001600160a01b03928316908117909155600080516020611ffa833981519152549091167f38d16b8cac22d99fc7c124b9cd0de2d3fa1faef420bfe791d8c362d765e227008380a380f35b50346101af5760203660031901126101af576102646102576114a8565b61025f611a05565b61178e565b80f35b50346101af57806003193601126101af5760008051602061209a833981519152546040516001600160a01b039091168152602090f35b50346101af5760403660031901126101af576102d46004356102bd6114c3565b906102cf6102ca826115d7565b611a65565b611aaf565b5080f35b50346101af57806003193601126101af57546040516001600160a01b039091168152602090f35b50346101af57806003193601126101af57604080519161031f82846114ed565b60058352640352e302e360dc1b6020840152815192839160208352815191826020850152815b838110610362575050828201840152601f01601f19168101030190f35b602082820181015188830188015287955001610345565b50346101af5760203660031901126101af57602061039d6103986114a8565b611743565b6040519015158152f35b50346101af57806003193601126101af57602090604051908152f35b50346101af576101403660031901126101af576004356103e16114c3565b60443567ffffffffffffffff8111610600576104019036906004016115a9565b606492919235926084359361ffff85168095036106665760a4359163ffffffff83168093036106625760c4359167ffffffffffffffff831161065e5782600401946060600319853603011261065a5760603660e319011261065a576104709261046b83898c611b4f565b611bae565b851561064b576001600160a01b0384169384156106175761049090611743565b1561061757600154875488946001600160a01b0391821694919092169290833b1561061357604051636491d4cd60e11b81526004810195909552602485018990526044850188905260648501526084840186905261012060a485015261054d91610539906001600160a01b03610505826114d9565b16610124870152604461053161051e6024860184611d1a565b60606101448b01526101848a0191611d4c565b930190611d1a565b858303610123190161016487015290611d4c565b60e4803560c48501526101043590840152610124356001600160a01b038116929083900361060f57836000818094889661010483015203925af18015610604576105eb575b50508354600254604080519586526001600160a01b0392831660208701529116908401526060830152608082015233907fec00d85a7419eaf32ce126aca75379da78c9f8c7521a12d2b05292035cd2f9489060a090a280f35b816105f5916114ed565b610600578338610592565b8380fd5b6040513d84823e3d90fd5b8480fd5b8580fd5b604051630b0f5aa160e11b815260206004820152600b60248201526a3232b9ba34b730ba34b7b760a91b6044820152606490fd5b63162908e360e11b8752600487fd5b8980fd5b8880fd5b8780fd5b8680fd5b50346101af5760403660031901126101af5760406106866114c3565b91600435815260008051602061203a833981519152602052209060018060a01b0316600052602052602060ff604060002054166040519015158152f35b50346101af57806003193601126101af57600080516020611ffa833981519152546040516001600160a01b039091168152602090f35b50346101af5760203660031901126101af576102646107166114a8565b61071e611a05565b6115f8565b50346101af57806003193601126101af5760008051602061209a83398151915254336001600160a01b039091160361075e5761026433611da3565b63118cdaa760e01b815233600452602490fd5b50346101af57806003193601126101af5761078a611d6d565b60008051602061209a83398151915280546001600160a01b0319908116909155600080516020611ffa8339815191528054918216905581906001600160a01b03167f8be0079c531659141344cd1fd0a4f28419497f9722a3daafe3b4186f6b6457e08280a380f35b50346101af57806003193601126101af576002546040516001600160a01b039091168152602090f35b506101c03660031901126101af576004356108346114c3565b60443567ffffffffffffffff8111610600576108549036906004016115a9565b6064929192359260a4359360ff85168095036106665786610104359561ffff8716809703610a8d57610124359363ffffffff8516809503610a8957610144359367ffffffffffffffff85116106005784600401966060600319873603011261060f5760603661016319011261060f576108d29261046b838b8e611b4f565b81546001600160a01b0316803b15610a895760e48392604051948593849263d505accf60e01b84523360048501523060248501528d60448501526084356064850152608484015260c43560a4840152833560c48401525af18015610a7e57610a6a575b50851561064b576001600160a01b0384169384156106175761095690611743565b1561061757600154875488946001600160a01b0391821694919092169290833b1561061357604051636491d4cd60e11b81526004810195909552602485018990526044850188905260648501526084840186905261012060a48501526109cb91610539906001600160a01b03610505826114d9565b6101643560c48401526101843560e4840152906101a4356001600160a01b038116919082900361060f57838086948194610104830152039134905af18015610604576105eb5750508354600254604080519586526001600160a01b0392831660208701529116908401526060830152608082015233907fec00d85a7419eaf32ce126aca75379da78c9f8c7521a12d2b05292035cd2f9489060a090a280f35b87610a77919892986114ed565b9538610935565b6040513d8a823e3d90fd5b8280fd5b5080fd5b50346101af5760203660031901126101af57610aab6114a8565b610ab3611a05565b6001600160a01b03168015610afb57600180546001600160a01b031916821790557f832469fa47154901582d6cf83daeee106a33960814589bd742b85118b4fed0638280a280f35b604051630b0f5aa160e11b815260206004820152601160248201527018dc9bdcdcc818da185a5b881d985d5b1d607a1b6044820152606490fd5b50346101af5760203660031901126101af57600435906004548210156101af576020610b6083611578565b905460405160039290921b1c6001600160a01b03168152f35b50346101af57806003193601126101af576003546040516001600160a01b039091168152602090f35b50346101af57806003193601126101af577f00000000000000000000000000000000000000000000000000000000000000006001600160a01b03163003610bfb57602060405160008051602061201a8339815191528152f35b63703e46dd60e11b8152600490fd5b5060403660031901126101af57610c1f6114a8565b9060243567ffffffffffffffff8111610a8d5736602382011215610a8d57610c51903690602481600401359101611541565b6001600160a01b037f000000000000000000000000000000000000000000000000000000000000000016308114908115610e08575b50610df957610c93611d6d565b6040516352d1902d60e01b8152926001600160a01b0381169190602085600481865afa80958596610dc5575b50610cd857634c9c8ce360e01b84526004839052602484fd5b90918460008051602061201a8339815191528103610db35750813b15610da15760008051602061201a83398151915280546001600160a01b031916821790557fbc7cd75a20ee27fd9adebab32041f755214dbc6bffa90cc0225b39da2e5c2d3b8480a28151839015610d8757808360206102d495519101845af43d15610d7f573d91610d6383611525565b92610d7160405194856114ed565b83523d85602085013e611f03565b606091611f03565b50505034610d925780f35b63b398979f60e01b8152600490fd5b634c9c8ce360e01b8452600452602483fd5b632a87526960e21b8552600452602484fd5b9095506020813d602011610df1575b81610de1602093836114ed565b8101031261060f57519438610cbf565b3d9150610dd4565b63703e46dd60e11b8252600482fd5b60008051602061201a833981519152546001600160a01b03161415905038610c86565b50346101af57806003193601126101af576001546040516001600160a01b039091168152602090f35b50346101af5760403660031901126101af57610e6e6114c3565b336001600160a01b03821603610e8a576102d490600435611aaf565b63334bd91960e11b8252600482fd5b50346101af5760403660031901126101af576102d4600435610eb96114c3565b90610ec66102ca826115d7565b61195c565b50346101af57806003193601126101af57602060405160008051602061207a8339815191528152f35b50346101af57806003193601126101af5760206040517f0a160a5caf036f8340e8ee83de9fc0ad381d65eb292d6dfa44b33f603e10eae08152f35b50346101af5760203660031901126101af576020610f4e6004356115d7565b604051908152f35b50346101af5760a03660031901126101af57610f706114a8565b610f786114c3565b6044356001600160a01b03811690819003610600576064356001600160a01b038116808203610613576084356001600160a01b038116908190036106665760008051602061205a833981519152549560ff8760401c16159667ffffffffffffffff811680159081611383575b6001149081611379575b159081611370575b506113615767ffffffffffffffff19811660011760008051602061205a8339815191525587611334575b50611029611e11565b611031611e11565b611039611e11565b33156113205761104833611da3565b611050611e11565b611058611e11565b611060611e11565b60017f9b779b17422d0df92223018b32b4d1fa46e071723d6817e2486d003becc55f00556001600160a01b03169485156112ea576001600160a01b03169182156112b6578415611283578015611247578115610afb577fdaa74d7662c0e57b5ae49bf571c205e36bbd19341d93871664c956ed18d84896946111cf608095886001600160601b0360a01b8c5416178b55856001600160601b0360a01b6002541617600255826001600160601b0360a01b6003541617600355846001600160601b0360a01b600154161760015560008051602061207a8339815191528b5260008051602061203a8339815191526020527f0a160a5caf036f8340e8ee83de9fc0ad381d65eb292d6dfa44b33f603e10eae08b60008051602061207a8339815191527fbd79b86ffe0ab8e8776151514217cd7cacd52c909f66475c3af44e129f0b00ff60016040842001549282815260008051602061203a83398151915260205284600160408320015580a4611888565b50604051938452602084015260408301526060820152a26111ed5780f35b68ff00000000000000001960008051602061205a833981519152541660008051602061205a833981519152557fc7f505b2f371ae2175ee4913f4499e1f2633a7b5936321eed1cdaeb6115181d2602060405160018152a180f35b604051630b0f5aa160e11b81526020600482015260136024820152723232b9ba34b730ba34b7b71036b0b730b3b2b960691b6044820152606490fd5b604051630b0f5aa160e11b815260206004820152600a60248201526930b6b61039b4b3b732b960b11b6044820152606490fd5b604051630b0f5aa160e11b815260206004820152600b60248201526a39b430b932903a37b5b2b760a91b6044820152606490fd5b604051630b0f5aa160e11b815260206004820152600d60248201526c3232b837b9b4ba103a37b5b2b760991b6044820152606490fd5b631e4fbdf760e01b88526004889052602488fd5b68ffffffffffffffffff1916680100000000000000011760008051602061205a8339815191525538611020565b63f92ee8a960e01b8952600489fd5b90501538610ff6565b303b159150610fee565b899150610fe4565b50346101af57806003193601126101af5760405180602060045491828152018091600485527f8a35acfbc15ff81a39ae7d344fd709f28e8600b4aa8c65c6b64bfe7fe36bd19b90855b81811061143457505050826113ea9103836114ed565b604051928392602084019060208552518091526040840192915b818110611412575050500390f35b82516001600160a01b0316845285945060209384019390920191600101611404565b82546001600160a01b03168452602090930192600192830192016113d4565b905034610a8d576020366003190112610a8d5760043563ffffffff60e01b8116809103610a895760209250637965db0b60e01b8114908115611497575b5015158152f35b6301ffc9a760e01b14905038611490565b600435906001600160a01b03821682036114be57565b600080fd5b602435906001600160a01b03821682036114be57565b35906001600160a01b03821682036114be57565b90601f8019910116810190811067ffffffffffffffff82111761150f57604052565b634e487b7160e01b600052604160045260246000fd5b67ffffffffffffffff811161150f57601f01601f191660200190565b92919261154d82611525565b9161155b60405193846114ed565b8294818452818301116114be578281602093846000960137010152565b60045481101561159357600460005260206000200190600090565b634e487b7160e01b600052603260045260246000fd5b9181601f840112156114be5782359167ffffffffffffffff83116114be57602083818601950101116114be57565b60005260008051602061203a83398151915260205260016040600020015490565b6000905b60045491828110156117105761161181611578565b90546001600160a01b03848116959260031b9190911c168414611639575060010191506115fc565b6000198101925082116116fa5761166d61165561169193611578565b905460039190911b1c6001600160a01b031691611578565b81546001600160a01b0393841660039290921b91821b9390911b1916919091179055565b60045480156116e457600019016116a781611578565b81549060018060a01b039060031b1b191690556004557febe8af0714f0dd4a7b23bc7163ea1aadcce97af7a8ec25343abdbccdb2ea8a66600080a2565b634e487b7160e01b600052603160045260246000fd5b634e487b7160e01b600052601160045260246000fd5b506001600160a01b031690507f52d051a942d5c9a74e875d9faaa59f6de2ecefa16c6844af092cc73f749baad4600080a2565b6004549060005b82811061175957505050600090565b61176281611578565b905460039190911b1c6001600160a01b03908116908316146117865760010161174a565b505050600190565b6001600160a01b03811690811561184c576004549060005b8281106117f957506801000000000000000082101561150f5761166d8260016117d29401600455611578565b7fcef021749a809ea9d2e4eb3f28a169c12227e99b0bca877f3950fb8c2ccfaa62600080a2565b8361180382611578565b905460039190911b1c6001600160a01b031614611822576001016117a6565b5050507f52d051a942d5c9a74e875d9faaa59f6de2ecefa16c6844af092cc73f749baad4600080a2565b604051630b0f5aa160e11b815260206004820152601360248201527264657374696e6174696f6e206164647265737360681b6044820152606490fd5b6001600160a01b03811660009081527f29b8ff238ebd8c7d6f606a8413b26e49d7fdde8308763ac1856181e9dfcb517f602052604090205460ff16611956576001600160a01b031660008181527f29b8ff238ebd8c7d6f606a8413b26e49d7fdde8308763ac1856181e9dfcb517f60205260408120805460ff191660011790553391907f0a160a5caf036f8340e8ee83de9fc0ad381d65eb292d6dfa44b33f603e10eae0907f2f8788117e7eff1d82e926ec794901d17c78024a50270940304540a733656f0d9080a4600190565b50600090565b600081815260008051602061203a833981519152602090815260408083206001600160a01b038616845290915290205460ff166119fe57600081815260008051602061203a833981519152602090815260408083206001600160a01b0395909516808452949091528120805460ff19166001179055339291907f2f8788117e7eff1d82e926ec794901d17c78024a50270940304540a733656f0d9080a4600190565b5050600090565b3360009081527fe0f49631d31e008cd72b9d6c5c7f7b2aea3c32d690788903106296f865135b11602052604090205460ff1615611a3e57565b63e2517d3f60e01b6000523360045260008051602061207a83398151915260245260446000fd5b600081815260008051602061203a8339815191526020908152604080832033845290915290205460ff1615611a975750565b63e2517d3f60e01b6000523360045260245260446000fd5b600081815260008051602061203a833981519152602090815260408083206001600160a01b038616845290915290205460ff16156119fe57600081815260008051602061203a833981519152602090815260408083206001600160a01b0395909516808452949091528120805460ff19169055339291907ff6391f5c32d9c69d2a47ea670b442974b53935d1edc7fd64eb21e047a839171b9080a4600190565b916040519160208301937fa79feebba5eca838f5afb25f042ef9dbee2e9824463ec262b652584c92f243638552336040850152606084015260018060a01b0316608083015260a082015260a08152611ba860c0826114ed565b51902090565b924211611d095782600052600560205260ff60406000205416611cf857611c9c91611c8d611c9392604260405160208101907f8b73c3c69bb8fe3d512ecc4cf759cc79239f7b179b0ffacaa9a75d522b39400f82527fd50fd8c1b5fa5213a5974932fcc33d2992a99225bc9319caf7cf652d0d2b9acf60408201527fc89efdaa54c0f20c7adf612882df0950f5a951637e0307cdcb4c672f298b8bc660608201524660808201523060a082015260a08152611c6a60c0826114ed565b5190206040519061190160f01b8252600282015287602282015220923691611541565b90611e3f565b90929192611e7b565b6001600160a01b03168015611ce7576003546001600160a01b031603611cd65760005260056020526040600020600160ff19825416179055565b63d1cc738560e01b60005260046000fd5b638bb79cad60e01b60005260046000fd5b63e544c62f60e01b60005260046000fd5b63288a076f60e21b60005260046000fd5b9035601e19823603018112156114be57016020813591019167ffffffffffffffff82116114be5781360383136114be57565b908060209392818452848401376000828201840152601f01601f1916010190565b600080516020611ffa833981519152546001600160a01b03163303611d8e57565b63118cdaa760e01b6000523360045260246000fd5b60008051602061209a83398151915280546001600160a01b0319908116909155600080516020611ffa83398151915280549182166001600160a01b0393841690811790915591167f8be0079c531659141344cd1fd0a4f28419497f9722a3daafe3b4186f6b6457e0600080a3565b60ff60008051602061205a8339815191525460401c1615611e2e57565b631afcd79f60e31b60005260046000fd5b8151919060418303611e7057611e6992506020820151906060604084015193015160001a90611f64565b9192909190565b505060009160029190565b9190916004811015611eed5780611e9157509050565b600060018203611eac5763f645eedf60e01b60005260046000fd5b5060028103611eca578263fce698f760e01b60005260045260246000fd5b9091600360009214611eda575050565b6335e2f38360e21b825260045260249150fd5b634e487b7160e01b600052602160045260246000fd5b90611f295750805115611f1857602081519101fd5b63d6bda27560e01b60005260046000fd5b81511580611f5b575b611f3a575090565b639996b31560e01b60009081526001600160a01b0391909116600452602490fd5b50803b15611f32565b91907f7fffffffffffffffffffffffffffffff5d576e7357a4501ddfe92f46681b20a08411611fed579160209360809260ff60009560405194855216868401526040830152606082015282805260015afa15611fe1576000516001600160a01b03811615611fd55790600090600090565b50600090600190600090565b6040513d6000823e3d90fd5b5050506000916003919056fe9016d09d72d40fdae2fd8ceac6b6234c7706214fd39c1cd1e609a0528c199300360894a13ba1a3210667c828492db98dca3e2076cc3735a920a3ca505d382bbc02dd7bc7dec4dceedda775e58dd541e08a116c6c53815c0bd028192f7b626800f0c57e16840df040f15088dc2f81fe391c3923bec73e23a9662efc9c229c6a00224ddcd460adf9de7c6e6271e8a93026e66a0cec23d4223bbe4cdea09e0b7d34237e158222e3e6968b72b9db0d8043aacf074ad9f650f0d1606b4d82ee432c00a164736f6c634300081c000a",
  "linkReferences": {},
  "deployedLinkReferences": {}
}