{
  "_format": "hh-sol-artifact-1",
  "contractName": "CrossChainManager",
  "sourceName": "contracts/CrossChainManager.sol",
  "abi": [
    {
      "inputs": [],
      "stateMutability": "nonpayable",
      "type": "constructor"
    },
    {
      "inputs": [],
      "name": "AccessControlBadConfirmation",
      "type": "error"
    },
    {
      "inputs": [
        {
          "internalType": "address",
          "name": "account",
          "type": "address"
        },
        {
          "internalType": "bytes32",
          "name": "neededRole",
          "type": "bytes32"
        }
      ],
      "name": "AccessControlUnauthorizedAccount",
      "type": "error"
    },
    {
      "inputs": [
        {
          "internalType": "address",
          "name": "target",
          "type": "address"
        }
      ],
      "name": "AddressEmptyCode",
      "type": "error"
    },
    {
      "inputs": [],
      "name": "AmlSignatureAlreadyUsed",
      "type": "error"
    },
    {
      "inputs": [],
      "name": "AmlSignatureExpired",
      "type": "error"
    },
    {
      "inputs": [],
      "name": "AmountMustBeGreaterThanZero",
      "type": "error"
    },
    {
      "inputs": [],
      "name": "ECDSAInvalidSignature",
      "type": "error"
    },
    {
      "inputs": [
        {
          "internalType": "uint256",
          "name": "length",
          "type": "uint256"
        }
      ],
      "name": "ECDSAInvalidSignatureLength",
      "type": "error"
    },
    {
      "inputs": [
        {
          "internalType": "bytes32",
          "name": "s",
          "type": "bytes32"
        }
      ],
      "name": "ECDSAInvalidSignatureS",
      "type": "error"
    },
    {
      "inputs": [
        {
          "internalType": "address",
          "name": "implementation",
          "type": "address"
        }
      ],
      "name": "ERC1967InvalidImplementation",
      "type": "error"
    },
    {
      "inputs": [],
      "name": "ERC1967NonPayable",
      "type": "error"
    },
    {
      "inputs": [],
      "name": "FailedCall",
      "type": "error"
    },
    {
      "inputs": [],
      "name": "InsufficientBalance",
      "type": "error"
    },
    {
      "inputs": [
        {
          "internalType": "string",
          "name": "",
          "type": "string"
        }
      ],
      "name": "InvalidAddress",
      "type": "error"
    },
    {
      "inputs": [],
      "name": "InvalidAmlSignature",
      "type": "error"
    },
    {
      "inputs": [],
      "name": "InvalidAmlSigner",
      "type": "error"
    },
    {
      "inputs": [],
      "name": "InvalidAmount",
      "type": "error"
    },
    {
      "inputs": [],
      "name": "InvalidFunctionName",
      "type": "error"
    },
    {
      "inputs": [],
      "name": "InvalidInitialization",
      "type": "error"
    },
    {
      "inputs": [],
      "name": "InvalidMintTransactionHash",
      "type": "error"
    },
    {
      "inputs": [],
      "name": "NotInitializing",
      "type": "error"
    },
    {
      "inputs": [
        {
          "internalType": "address",
          "name": "owner",
          "type": "address"
        }
      ],
      "name": "OwnableInvalidOwner",
      "type": "error"
    },
    {
      "inputs": [
        {
          "internalType": "address",
          "name": "account",
          "type": "address"
        }
      ],
      "name": "OwnableUnauthorizedAccount",
      "type": "error"
    },
    {
      "inputs": [],
      "name": "ReentrancyGuardReentrantCall",
      "type": "error"
    },
    {
      "inputs": [
        {
          "internalType": "address",
          "name": "token",
          "type": "address"
        }
      ],
      "name": "SafeERC20FailedOperation",
      "type": "error"
    },
    {
      "inputs": [],
      "name": "UUPSUnauthorizedCallContext",
      "type": "error"
    },
    {
      "inputs": [
        {
          "internalType": "bytes32",
          "name": "slot",
          "type": "bytes32"
        }
      ],
      "name": "UUPSUnsupportedProxiableUUID",
      "type": "error"
    },
    {
      "anonymous": false,
      "inputs": [
        {
          "indexed": true,
          "internalType": "address",
          "name": "from",
          "type": "address"
        },
        {
          "indexed": true,
          "internalType": "address",
          "name": "to",
          "type": "address"
        }
      ],
      "name": "AmlSignerUpdated",
      "type": "event"
    },
    {
      "anonymous": false,
      "inputs": [
        {
          "indexed": true,
          "internalType": "address",
          "name": "from",
          "type": "address"
        },
        {
          "indexed": true,
          "internalType": "address",
          "name": "to",
          "type": "address"
        }
      ],
      "name": "CrossChainConfigUpdated",
      "type": "event"
    },
    {
      "anonymous": false,
      "inputs": [
        {
          "indexed": true,
          "internalType": "address",
          "name": "tokenAddress",
          "type": "address"
        },
        {
          "indexed": false,
          "internalType": "address",
          "name": "shareTokenAddress",
          "type": "address"
        },
        {
          "indexed": false,
          "internalType": "address",
          "name": "amlSignerAddress",
          "type": "address"
        },
        {
          "indexed": false,
          "internalType": "address",
          "name": "destinationManagerAddress",
          "type": "address"
        },
        {
          "indexed": false,
          "internalType": "address",
          "name": "crossChainVaultAddress",
          "type": "address"
        }
      ],
      "name": "CrossChainManagerInitialized",
      "type": "event"
    },
    {
      "anonymous": false,
      "inputs": [
        {
          "indexed": true,
          "internalType": "address",
          "name": "user",
          "type": "address"
        },
        {
          "indexed": false,
          "internalType": "uint256",
          "name": "amount",
          "type": "uint256"
        },
        {
          "indexed": false,
          "internalType": "address",
          "name": "depositToken",
          "type": "address"
        },
        {
          "indexed": false,
          "internalType": "address",
          "name": "shareToken",
          "type": "address"
        },
        {
          "indexed": false,
          "internalType": "address",
          "name": "destinationAddress",
          "type": "address"
        },
        {
          "indexed": false,
          "internalType": "uint16",
          "name": "targetChain",
          "type": "uint16"
        }
      ],
      "name": "Deposited",
      "type": "event"
    },
    {
      "anonymous": false,
      "inputs": [
        {
          "indexed": true,
          "internalType": "address",
          "name": "destination",
          "type": "address"
        }
      ],
      "name": "DestinationAddressAdded",
      "type": "event"
    },
    {
      "anonymous": false,
      "inputs": [
        {
          "indexed": true,
          "internalType": "address",
          "name": "destination",
          "type": "address"
        }
      ],
      "name": "DestinationAddressRemoved",
      "type": "event"
    },
    {
      "anonymous": false,
      "inputs": [
        {
          "indexed": true,
          "internalType": "address",
          "name": "destination",
          "type": "address"
        }
      ],
      "name": "DestinationAddressSkipped",
      "type": "event"
    },
    {
      "anonymous": false,
      "inputs": [
        {
          "indexed": false,
          "internalType": "uint64",
          "name": "version",
          "type": "uint64"
        }
      ],
      "name": "Initialized",
      "type": "event"
    },
    {
      "anonymous": false,
      "inputs": [
        {
          "indexed": true,
          "internalType": "address",
          "name": "previousOwner",
          "type": "address"
        },
        {
          "indexed": true,
          "internalType": "address",
          "name": "newOwner",
          "type": "address"
        }
      ],
      "name": "OwnershipTransferStarted",
      "type": "event"
    },
    {
      "anonymous": false,
      "inputs": [
        {
          "indexed": true,
          "internalType": "address",
          "name": "previousOwner",
          "type": "address"
        },
        {
          "indexed": true,
          "internalType": "address",
          "name": "newOwner",
          "type": "address"
        }
      ],
      "name": "OwnershipTransferred",
      "type": "event"
    },
    {
      "anonymous": false,
      "inputs": [
        {
          "indexed": true,
          "internalType": "bytes32",
          "name": "role",
          "type": "bytes32"
        },
        {
          "indexed": true,
          "internalType": "bytes32",
          "name": "previousAdminRole",
          "type": "bytes32"
        },
        {
          "indexed": true,
          "internalType": "bytes32",
          "name": "newAdminRole",
          "type": "bytes32"
        }
      ],
      "name": "RoleAdminChanged",
      "type": "event"
    },
    {
      "anonymous": false,
      "inputs": [
        {
          "indexed": true,
          "internalType": "bytes32",
          "name": "role",
          "type": "bytes32"
        },
        {
          "indexed": true,
          "internalType": "address",
          "name": "account",
          "type": "address"
        },
        {
          "indexed": true,
          "internalType": "address",
          "name": "sender",
          "type": "address"
        }
      ],
      "name": "RoleGranted",
      "type": "event"
    },
    {
      "anonymous": false,
      "inputs": [
        {
          "indexed": true,
          "internalType": "bytes32",
          "name": "role",
          "type": "bytes32"
        },
        {
          "indexed": true,
          "internalType": "address",
          "name": "account",
          "type": "address"
        },
        {
          "indexed": true,
          "internalType": "address",
          "name": "sender",
          "type": "address"
        }
      ],
      "name": "RoleRevoked",
      "type": "event"
    },
    {
      "anonymous": false,
      "inputs": [
        {
          "indexed": false,
          "internalType": "uint256",
          "name": "amount",
          "type": "uint256"
        },
        {
          "indexed": false,
          "internalType": "address",
          "name": "shareToken",
          "type": "address"
        },
        {
          "indexed": false,
          "internalType": "address",
          "name": "burner",
          "type": "address"
        },
        {
          "indexed": true,
          "internalType": "string",
          "name": "mintTransactionHash",
          "type": "string"
        }
      ],
      "name": "TokensBurned",
      "type": "event"
    },
    {
      "anonymous": false,
      "inputs": [
        {
          "indexed": true,
          "internalType": "address",
          "name": "implementation",
          "type": "address"
        }
      ],
      "name": "Upgraded",
      "type": "event"
    },
    {
      "anonymous": false,
      "inputs": [
        {
          "indexed": true,
          "internalType": "address",
          "name": "user",
          "type": "address"
        },
        {
          "indexed": false,
          "internalType": "uint256",
          "name": "amount",
          "type": "uint256"
        },
        {
          "indexed": false,
          "internalType": "address",
          "name": "shareToken",
          "type": "address"
        },
        {
          "indexed": false,
          "internalType": "address",
          "name": "paymentToken",
          "type": "address"
        },
        {
          "indexed": false,
          "internalType": "address",
          "name": "destinationAddress",
          "type": "address"
        },
        {
          "indexed": false,
          "internalType": "uint16",
          "name": "targetChain",
          "type": "uint16"
        }
      ],
      "name": "Withdrawn",
      "type": "event"
    },
    {
      "inputs": [],
      "name": "BURN_ADMIN_ROLE",
      "outputs": [
        {
          "internalType": "bytes32",
          "name": "",
          "type": "bytes32"
        }
      ],
      "stateMutability": "view",
      "type": "function"
    },
    {
      "inputs": [],
      "name": "BURN_ROLE",
      "outputs": [
        {
          "internalType": "bytes32",
          "name": "",
          "type": "bytes32"
        }
      ],
      "stateMutability": "view",
      "type": "function"
    },
    {
      "inputs": [],
      "name": "DEFAULT_ADMIN_ROLE",
      "outputs": [
        {
          "internalType": "bytes32",
          "name": "",
          "type": "bytes32"
        }
      ],
      "stateMutability": "view",
      "type": "function"
    },
    {
      "inputs": [],
      "name": "UPGRADE_INTERFACE_VERSION",
      "outputs": [
        {
          "internalType": "string",
          "name": "",
          "type": "string"
        }
      ],
      "stateMutability": "view",
      "type": "function"
    },
    {
      "inputs": [],
      "name": "acceptOwnership",
      "outputs": [],
      "stateMutability": "nonpayable",
      "type": "function"
    },
    {
      "inputs": [
        {
          "internalType": "address",
          "name": "_destination",
          "type": "address"
        }
      ],
      "name": "addDestinationAddress",
      "outputs": [],
      "stateMutability": "nonpayable",
      "type": "function"
    },
    {
      "inputs": [],
      "name": "amlSigner",
      "outputs": [
        {
          "internalType": "address",
          "name": "",
          "type": "address"
        }
      ],
      "stateMutability": "view",
      "type": "function"
    },
    {
      "inputs": [
        {
          "internalType": "uint256",
          "name": "amount",
          "type": "uint256"
        },
        {
          "internalType": "string",
          "name": "mintTransactionHash",
          "type": "string"
        }
      ],
      "name": "burn",
      "outputs": [],
      "stateMutability": "nonpayable",
      "type": "function"
    },
    {
      "inputs": [],
      "name": "crossChainVault",
      "outputs": [
        {
          "internalType": "contract CrossChainVault",
          "name": "",
          "type": "address"
        }
      ],
      "stateMutability": "view",
      "type": "function"
    },
    {
      "inputs": [
        {
          "internalType": "uint256",
          "name": "_amount",
          "type": "uint256"
        },
        {
          "internalType": "address",
          "name": "_destinationAddress",
          "type": "address"
        },
        {
          "internalType": "bytes",
          "name": "_amlSignature",
          "type": "bytes"
        },
        {
          "internalType": "uint256",
          "name": "_amlDeadline",
          "type": "uint256"
        },
        {
          "internalType": "uint16",
          "name": "targetChain",
          "type": "uint16"
        },
        {
          "internalType": "uint32",
          "name": "targetDomain",
          "type": "uint32"
        },
        {
          "components": [
            {
              "internalType": "address",
              "name": "refundAddress",
              "type": "address"
            },
            {
              "internalType": "bytes",
              "name": "signedQuote",
              "type": "bytes"
            },
            {
              "internalType": "bytes",
              "name": "instructions",
              "type": "bytes"
            }
          ],
          "internalType": "struct ExecutorArgs",
          "name": "executorArgs",
          "type": "tuple"
        },
        {
          "components": [
            {
              "internalType": "uint256",
              "name": "transferTokenFee",
              "type": "uint256"
            },
            {
              "internalType": "uint256",
              "name": "nativeTokenFee",
              "type": "uint256"
            },
            {
              "internalType": "address",
              "name": "payee",
              "type": "address"
            }
          ],
          "internalType": "struct FeeArgs",
          "name": "feeArgs",
          "type": "tuple"
        }
      ],
      "name": "deposit",
      "outputs": [],
      "stateMutability": "payable",
      "type": "function"
    },
    {
      "inputs": [
        {
          "internalType": "uint256",
          "name": "_amount",
          "type": "uint256"
        },
        {
          "internalType": "address",
          "name": "_destinationAddress",
          "type": "address"
        },
        {
          "internalType": "bytes",
          "name": "_amlSignature",
          "type": "bytes"
        },
        {
          "internalType": "uint256",
          "name": "_amlDeadline",
          "type": "uint256"
        },
        {
          "internalType": "uint256",
          "name": "_permitDeadline",
          "type": "uint256"
        },
        {
          "internalType": "uint8",
          "name": "_v",
          "type": "uint8"
        },
        {
          "internalType": "bytes32",
          "name": "_r",
          "type": "bytes32"
        },
        {
          "internalType": "bytes32",
          "name": "_s",
          "type": "bytes32"
        },
        {
          "internalType": "uint16",
          "name": "targetChain",
          "type": "uint16"
        },
        {
          "internalType": "uint32",
          "name": "targetDomain",
          "type": "uint32"
        },
        {
          "components": [
            {
              "internalType": "address",
              "name": "refundAddress",
              "type": "address"
            },
            {
              "internalType": "bytes",
              "name": "signedQuote",
              "type": "bytes"
            },
            {
              "internalType": "bytes",
              "name": "instructions",
              "type": "bytes"
            }
          ],
          "internalType": "struct ExecutorArgs",
          "name": "executorArgs",
          "type": "tuple"
        },
        {
          "components": [
            {
              "internalType": "uint256",
              "name": "transferTokenFee",
              "type": "uint256"
            },
            {
              "internalType": "uint256",
              "name": "nativeTokenFee",
              "type": "uint256"
            },
            {
              "internalType": "address",
              "name": "payee",
              "type": "address"
            }
          ],
          "internalType": "struct FeeArgs",
          "name": "feeArgs",
          "type": "tuple"
        }
      ],
      "name": "depositWithPermit",
      "outputs": [],
      "stateMutability": "payable",
      "type": "function"
    },
    {
      "inputs": [
        {
          "internalType": "uint256",
          "name": "",
          "type": "uint256"
        }
      ],
      "name": "destinationAddresses",
      "outputs": [
        {
          "internalType": "address",
          "name": "",
          "type": "address"
        }
      ],
      "stateMutability": "view",
      "type": "function"
    },
    {
      "inputs": [],
      "name": "getDestinationAddresses",
      "outputs": [
        {
          "internalType": "address[]",
          "name": "",
          "type": "address[]"
        }
      ],
      "stateMutability": "view",
      "type": "function"
    },
    {
      "inputs": [
        {
          "internalType": "bytes32",
          "name": "role",
          "type": "bytes32"
        }
      ],
      "name": "getRoleAdmin",
      "outputs": [
        {
          "internalType": "bytes32",
          "name": "",
          "type": "bytes32"
        }
      ],
      "stateMutability": "view",
      "type": "function"
    },
    {
      "inputs": [
        {
          "internalType": "bytes32",
          "name": "role",
          "type": "bytes32"
        },
        {
          "internalType": "address",
          "name": "account",
          "type": "address"
        }
      ],
      "name": "grantRole",
      "outputs": [],
      "stateMutability": "nonpayable",
      "type": "function"
    },
    {
      "inputs": [
        {
          "internalType": "bytes32",
          "name": "role",
          "type": "bytes32"
        },
        {
          "internalType": "address",
          "name": "account",
          "type": "address"
        }
      ],
      "name": "hasRole",
      "outputs": [
        {
          "internalType": "bool",
          "name": "",
          "type": "bool"
        }
      ],
      "stateMutability": "view",
      "type": "function"
    },
    {
      "inputs": [
        {
          "internalType": "address",
          "name": "_tokenAddress",
          "type": "address"
        },
        {
          "internalType": "address",
          "name": "_shareTokenAddress",
          "type": "address"
        },
        {
          "internalType": "address",
          "name": "_amlSignerAddress",
          "type": "address"
        },
        {
          "internalType": "address",
          "name": "_destinationManagerAddress",
          "type": "address"
        },
        {
          "internalType": "address",
          "name": "crossChainVaultAddress",
          "type": "address"
        },
        {
          "internalType": "address",
          "name": "burnerAddress",
          "type": "address"
        }
      ],
      "name": "initialize",
      "outputs": [],
      "stateMutability": "nonpayable",
      "type": "function"
    },
    {
      "inputs": [
        {
          "internalType": "address",
          "name": "",
          "type": "address"
        }
      ],
      "name": "isDestination",
      "outputs": [
        {
          "internalType": "bool",
          "name": "",
          "type": "bool"
        }
      ],
      "stateMutability": "view",
      "type": "function"
    },
    {
      "inputs": [],
      "name": "owner",
      "outputs": [
        {
          "internalType": "address",
          "name": "",
          "type": "address"
        }
      ],
      "stateMutability": "view",
      "type": "function"
    },
    {
      "inputs": [],
      "name": "pendingOwner",
      "outputs": [
        {
          "internalType": "address",
          "name": "",
          "type": "address"
        }
      ],
      "stateMutability": "view",
      "type": "function"
    },
    {
      "inputs": [],
      "name": "proxiableUUID",
      "outputs": [
        {
          "internalType": "bytes32",
          "name": "",
          "type": "bytes32"
        }
      ],
      "stateMutability": "view",
      "type": "function"
    },
    {
      "inputs": [
        {
          "internalType": "address",
          "name": "_destination",
          "type": "address"
        }
      ],
      "name": "removeDestinationAddress",
      "outputs": [],
      "stateMutability": "nonpayable",
      "type": "function"
    },
    {
      "inputs": [],
      "name": "renounceOwnership",
      "outputs": [],
      "stateMutability": "nonpayable",
      "type": "function"
    },
    {
      "inputs": [
        {
          "internalType": "bytes32",
          "name": "role",
          "type": "bytes32"
        },
        {
          "internalType": "address",
          "name": "callerConfirmation",
          "type": "address"
        }
      ],
      "name": "renounceRole",
      "outputs": [],
      "stateMutability": "nonpayable",
      "type": "function"
    },
    {
      "inputs": [
        {
          "internalType": "bytes32",
          "name": "role",
          "type": "bytes32"
        },
        {
          "internalType": "address",
          "name": "account",
          "type": "address"
        }
      ],
      "name": "revokeRole",
      "outputs": [],
      "stateMutability": "nonpayable",
      "type": "function"
    },
    {
      "inputs": [],
      "name": "shareToken",
      "outputs": [
        {
          "internalType": "contract ICustomToken",
          "name": "",
          "type": "address"
        }
      ],
      "stateMutability": "view",
      "type": "function"
    },
    {
      "inputs": [
        {
          "internalType": "bytes4",
          "name": "interfaceId",
          "type": "bytes4"
        }
      ],
      "name": "supportsInterface",
      "outputs": [
        {
          "internalType": "bool",
          "name": "",
          "type": "bool"
        }
      ],
      "stateMutability": "view",
      "type": "function"
    },
    {
      "inputs": [],
      "name": "token",
      "outputs": [
        {
          "internalType": "contract CustomToken",
          "name": "",
          "type": "address"
        }
      ],
      "stateMutability": "view",
      "type": "function"
    },
    {
      "inputs": [
        {
          "internalType": "address",
          "name": "newOwner",
          "type": "address"
        }
      ],
      "name": "transferOwnership",
      "outputs": [],
      "stateMutability": "nonpayable",
      "type": "function"
    },
    {
      "inputs": [
        {
          "internalType": "address",
          "name": "amlSignerAddress",
          "type": "address"
        }
      ],
      "name": "updateAmlSigner",
      "outputs": [],
      "stateMutability": "nonpayable",
      "type": "function"
    },
    {
      "inputs": [
        {
          "internalType": "address",
          "name": "crossChainVaultAddress",
          "type": "address"
        }
      ],
      "name": "updateCrossChainConfig",
      "outputs": [],
      "stateMutability": "nonpayable",
      "type": "function"
    },
    {
      "inputs": [
        {
          "internalType": "address",
          "name": "newImplementation",
          "type": "address"
        },
        {
          "internalType": "bytes",
          "name": "data",
          "type": "bytes"
        }
      ],
      "name": "upgradeToAndCall",
      "outputs": [],
      "stateMutability": "payable",
      "type": "function"
    },
    {
      "inputs": [
        {
          "internalType": "bytes32",
          "name": "",
          "type": "bytes32"
        }
      ],
      "name": "usedSignatures",
      "outputs": [
        {
          "internalType": "bool",
          "name": "",
          "type": "bool"
        }
      ],
      "stateMutability": "view",
      "type": "function"
    },
    {
      "inputs": [
        {
          "internalType": "uint256",
          "name": "_amount",
          "type": "uint256"
        },
        {
          "internalType": "address",
          "name": "_destinationAddress",
          "type": "address"
        },
        {
          "internalType": "bytes",
          "name": "_amlSignature",
          "type": "bytes"
        },
        {
          "internalType": "uint256",
          "name": "_amlDeadline",
          "type": "uint256"
        },
        {
          "internalType": "uint16",
          "name": "targetChain",
          "type": "uint16"
        },
        {
          "internalType": "uint32",
          "name": "targetDomain",
          "type": "uint32"
        },
        {
          "components": [
            {
              "internalType": "address",
              "name": "refundAddress",
              "type": "address"
            },
            {
              "internalType": "bytes",
              "name": "signedQuote",
              "type": "bytes"
            },
            {
              "internalType": "bytes",
              "name": "instructions",
              "type": "bytes"
            }
          ],
          "internalType": "struct ExecutorArgs",
          "name": "executorArgs",
          "type": "tuple"
        },
        {
          "components": [
            {
              "internalType": "uint256",
              "name": "transferTokenFee",
              "type": "uint256"
            },
            {
              "internalType": "uint256",
              "name": "nativeTokenFee",
              "type": "uint256"
            },
            {
              "internalType": "address",
              "name": "payee",
              "type": "address"
            }
          ],
          "internalType": "struct FeeArgs",
          "name": "feeArgs",
          "type": "tuple"
        }
      ],
      "name": "withdraw",
      "outputs": [],
      "stateMutability": "payable",
      "type": "function"
    },
    {
      "inputs": [
        {
          "internalType": "uint256",
          "name": "_amount",
          "type": "uint256"
        },
        {
          "internalType": "address",
          "name": "_destinationAddress",
          "type": "address"
        },
        {
          "internalType": "bytes",
          "name": "_amlSignature",
          "type": "bytes"
        },
        {
          "internalType": "uint256",
          "name": "_amlDeadline",
          "type": "uint256"
        },
        {
          "internalType": "uint256",
          "name": "_permitDeadline",
          "type": "uint256"
        },
        {
          "internalType": "uint8",
          "name": "_v",
          "type": "uint8"
        },
        {
          "internalType": "bytes32",
          "name": "_r",
          "type": "bytes32"
        },
        {
          "internalType": "bytes32",
          "name": "_s",
          "type": "bytes32"
        },
        {
          "internalType": "uint16",
          "name": "targetChain",
          "type": "uint16"
        },
        {
          "internalType": "uint32",
          "name": "targetDomain",
          "type": "uint32"
        },
        {
          "components": [
            {
              "internalType": "address",
              "name": "refundAddress",
              "type": "address"
            },
            {
              "internalType": "bytes",
              "name": "signedQuote",
              "type": "bytes"
            },
            {
              "internalType": "bytes",
              "name": "instructions",
              "type": "bytes"
            }
          ],
          "internalType": "struct ExecutorArgs",
          "name": "executorArgs",
          "type": "tuple"
        },
        {
          "components": [
            {
              "internalType": "uint256",
              "name": "transferTokenFee",
              "type": "uint256"
            },
            {
              "internalType": "uint256",
              "name": "nativeTokenFee",
              "type": "uint256"
            },
            {
              "internalType": "address",
              "name": "payee",
              "type": "address"
            }
          ],
          "internalType": "struct FeeArgs",
          "name": "feeArgs",
          "type": "tuple"
        }
      ],
      "name": "withdrawWithPermit",
      "outputs": [],
      "stateMutability": "payable",
      "type": "function"
    }
  ],
  "bytecode": "0x60a080604052346100ea57306080527ff0c57e16840df040f15088dc2f81fe391c3923bec73e23a9662efc9c229c6a005460ff8160401c166100d9576002600160401b03196001600160401b03821601610073575b6040516128aa90816100f08239608051818181610faa01526110500152f35b6001600160401b0319166001600160401b039081177ff0c57e16840df040f15088dc2f81fe391c3923bec73e23a9662efc9c229c6a005581527fc7f505b2f371ae2175ee4913f4499e1f2633a7b5936321eed1cdaeb6115181d290602090a13880610054565b63f92ee8a960e01b60005260046000fd5b600080fdfe608080604052600436101561001357600080fd5b600090813560e01c90816301ffc9a714611471575080630ce32eb3146113a95780631a04b8f714611334578063248a9ca31461130d5780632f2ff15d146112db57806336568abe146112965780633d13272b1461126d57806342a586fa146112205780634f1ef28614610fff57806352d1902d14610f975780636147da5614610f6e5780636193d01814610f2a578063638e5fc914610ebf5780636adda2b614610df15780636c9fa59e14610dc8578063715018a614610d475780637641e6f314610b4e57806379ba509714610b005780638c39355814610ad65780638da5cb5b14610aa05780638ee65da6146109c757806391d148541461096e578063986b853414610912578063a217fddf146108f6578063aaaae342146108b7578063ad3cb1cc1461083d578063b3cb199114610802578063b930908f146107d9578063cc2a9a5b14610320578063d547741f146102e5578063e30c3978146102af578063e3f248a414610282578063f2fde38b146101fa578063f978fd61146101cb5763fc0c546a146101a257600080fd5b346101c857806003193601126101c857546040516001600160a01b039091168152602090f35b80fd5b50346101c85760203660031901126101c85760ff60406020926004358152600684522054166040519015158152f35b50346101c85760203660031901126101c8576102146114c6565b61021c611a65565b60008051602061285e83398151915280546001600160a01b0319166001600160a01b039283169081179091556000805160206127be833981519152549091167f38d16b8cac22d99fc7c124b9cd0de2d3fa1faef420bfe791d8c362d765e227008380a380f35b50346101c85760203660031901126101c8576102ac61029f6114c6565b6102a7611a65565b611972565b80f35b50346101c857806003193601126101c85760008051602061285e833981519152546040516001600160a01b039091168152602090f35b50346101c85760403660031901126101c85761031c6004356103056114e1565b9061031761031282611756565b611a9b565b611c62565b5080f35b50346101c85760c03660031901126101c85761033a6114c6565b6103426114e1565b6044356001600160a01b038116908190036107d5576064356001600160a01b038116908190036107d1576084356001600160a01b03811691908290036107cd5760a435916001600160a01b038316918284036107c95760008051602061283e833981519152549660ff8860401c16159767ffffffffffffffff8116801590816107c1575b60011490816107b7575b1590816107ae575b5061079f5767ffffffffffffffff19811660011760008051602061283e8339815191525588610772575b5061040b61257a565b61041361257a565b61041b61257a565b331561075e5761042a3361240d565b61043261257a565b61043a61257a565b61044261257a565b600160008051602061281e833981519152556001600160a01b0316958615610728576001600160a01b03169283156106f45785156106c157811561068557821561064b571561061c577fdaa74d7662c0e57b5ae49bf571c205e36bbd19341d93871664c956ed18d84896946105a4608095886001600160601b0360a01b8c5416178b55856001600160601b0360a01b6002541617600255826001600160601b0360a01b6003541617600355846001600160601b0360a01b600154161760015560008051602061287e8339815191528b526000805160206127fe8339815191526020527f0a30bae60ea06f344bebb63f4eb39612b0328589ecd1132302e75991373fee2d8b60008051602061287e8339815191527fbd79b86ffe0ab8e8776151514217cd7cacd52c909f66475c3af44e129f0b00ff6001604084200154928281526000805160206127fe83398151915260205284600160408320015580a4611ae5565b50604051938452602084015260408301526060820152a26105c25780f35b68ff00000000000000001960008051602061283e833981519152541660008051602061283e833981519152557fc7f505b2f371ae2175ee4913f4499e1f2633a7b5936321eed1cdaeb6115181d2602060405160018152a180f35b604051630b0f5aa160e11b8152602060048201526006602482015265313ab93732b960d11b6044820152606490fd5b604051630b0f5aa160e11b815260206004820152601160248201527018dc9bdcdcc818da185a5b881d985d5b1d607a1b6044820152606490fd5b604051630b0f5aa160e11b81526020600482015260136024820152723232b9ba34b730ba34b7b71036b0b730b3b2b960691b6044820152606490fd5b604051630b0f5aa160e11b815260206004820152600a60248201526930b6b61039b4b3b732b960b11b6044820152606490fd5b604051630b0f5aa160e11b815260206004820152600b60248201526a39b430b932903a37b5b2b760a91b6044820152606490fd5b604051630b0f5aa160e11b815260206004820152600d60248201526c3232b837b9b4ba103a37b5b2b760991b6044820152606490fd5b631e4fbdf760e01b89526004899052602489fd5b68ffffffffffffffffff1916680100000000000000011760008051602061283e8339815191525538610402565b63f92ee8a960e01b8a5260048afd5b905015386103d8565b303b1591506103d0565b8a91506103c6565b8780fd5b8580fd5b8480fd5b8380fd5b50346101c857806003193601126101c857602060405160008051602061287e8339815191528152f35b50346101c857806003193601126101c85760206040517f0a30bae60ea06f344bebb63f4eb39612b0328589ecd1132302e75991373fee2d8152f35b50346101c857806003193601126101c857604080519161085d82846115da565b60058352640352e302e360dc1b6020840152815192839160208352815191826020850152815b8381106108a0575050828201840152601f01601f19168101030190f35b602082820181015188830188015287955001610883565b50346101c85760203660031901126101c85760209060ff906040906001600160a01b036108e26114c6565b168152600584522054166040519015158152f35b50346101c857806003193601126101c857602090604051908152f35b5061095961095461092236611539565b98929561093498949297959198611d02565b6109478387876109426117c5565b611d3e565b61094f6117ea565b611e6e565b6122c2565b600160008051602061281e8339815191525580f35b50346101c85760403660031901126101c857604061098a6114e1565b9160043581526000805160206127fe833981519152602052209060018060a01b0316600052602052602060ff604060002054166040519015158152f35b50806109fa610a026109d836611696565b9d8c9f99929c988c81959d9c939f9699979a6109f2611d02565b610942611777565b61094f61179d565b84546001600160a01b031690813b156107cd5760405163d505accf60e01b8152336004820152306024820152604481018d9052606481019190915260ff92909216608483015260a482019390935260c4810191909152908290829060e490829084905af18015610a9557610a7c575b5050610959956120de565b81610a86916115da565b610a91578638610a71565b8680fd5b6040513d84823e3d90fd5b50346101c857806003193601126101c8576000805160206127be833981519152546040516001600160a01b039091168152602090f35b50346101c85760203660031901126101c8576102ac610af36114c6565b610afb611a65565b611811565b50346101c857806003193601126101c85760008051602061285e83398151915254336001600160a01b0390911603610b3b576102ac3361240d565b63118cdaa760e01b815233600452602490fd5b50346101c85760403660031901126101c85760043560243567ffffffffffffffff8111610d4357610b8390369060040161150b565b60008051602061287e83398151915284526000805160206127fe83398151915260209081526040808620336000908152925290205491929160ff1615610d1e578115610d0f578015610d00576002546040516370a0823160e01b81523060048201526001600160a01b0390911690602081602481855afa908115610cf5578691610cc3575b508311610cb4578085913b15610cb057818091602460405180948193630852cd8d60e31b83528960048401525af18015610a9557610c9b575b50507f5b9d46fcafb9d23a7bfeecc55768d5e506ca28c3a3eea2f1a51704fa25bc02fa9160609160018060a01b0360025416948160405192839283378101878152039020936040519182526020820152336040820152a280f35b81610ca5916115da565b6107d5578338610c41565b5080fd5b631e9acf1760e31b8552600485fd5b90506020813d602011610ced575b81610cde602093836115da565b810103126107cd575138610c08565b3d9150610cd1565b6040513d88823e3d90fd5b63643d3cf760e01b8452600484fd5b635e85ae7360e01b8452600484fd5b63e2517d3f60e01b84523360045260008051602061287e833981519152602452604484fd5b8280fd5b50346101c857806003193601126101c857610d60611a65565b60008051602061285e83398151915280546001600160a01b03199081169091556000805160206127be8339815191528054918216905581906001600160a01b03167f8be0079c531659141344cd1fd0a4f28419497f9722a3daafe3b4186f6b6457e08280a380f35b50346101c857806003193601126101c8576002546040516001600160a01b039091168152602090f35b610e2382610947610e0136611696565b9c8c9f94969795988c81959c939e610e1b9e9c959e611d02565b6109426117c5565b89546001600160a01b031691823b15610ebb5760405163d505accf60e01b8152336004820152306024820152604481018d9052606481019290925260ff93909316608482015260a481019390935260c48301919091528790829060e490829084905af18015610eb057610e9c575b5061095995966122c2565b95610eaa81610959986115da565b95610e91565b6040513d89823e3d90fd5b8a80fd5b50346101c85760203660031901126101c857610ed96114c6565b610ee1611a65565b6001600160a01b0316801561064b57600180546001600160a01b03191682179055807f4d5e356daffe6b8e8438edef03597d8456db20f09af07d3d4fed737777302aa98380a380f35b50346101c85760203660031901126101c857600435906004548210156101c8576020610f5583611665565b905460405160039290921b1c6001600160a01b03168152f35b50346101c857806003193601126101c8576003546040516001600160a01b039091168152602090f35b50346101c857806003193601126101c8577f00000000000000000000000000000000000000000000000000000000000000006001600160a01b03163003610ff05760206040516000805160206127de8339815191528152f35b63703e46dd60e11b8152600490fd5b5060403660031901126101c8576110146114c6565b9060243567ffffffffffffffff8111610cb05736602382011215610cb05761104690369060248160040135910161162e565b6001600160a01b037f0000000000000000000000000000000000000000000000000000000000000000163081149081156111fd575b506111ee57611088611a65565b6040516352d1902d60e01b8152926001600160a01b0381169190602085600481865afa809585966111ba575b506110cd57634c9c8ce360e01b84526004839052602484fd5b9091846000805160206127de83398151915281036111a85750813b15611196576000805160206127de83398151915280546001600160a01b031916821790557fbc7cd75a20ee27fd9adebab32041f755214dbc6bffa90cc0225b39da2e5c2d3b8480a2815183901561117c578083602061031c95519101845af43d15611174573d9161115883611612565b9261116660405194856115da565b83523d85602085013e61275c565b60609161275c565b505050346111875780f35b63b398979f60e01b8152600490fd5b634c9c8ce360e01b8452600452602483fd5b632a87526960e21b8552600452602484fd5b9095506020813d6020116111e6575b816111d6602093836115da565b810103126107d1575194386110b4565b3d91506111c9565b63703e46dd60e11b8252600482fd5b6000805160206127de833981519152546001600160a01b0316141590503861107b565b5061122a36611539565b96929398979194909561123b611d02565b821561125e579861125991610959999a6109fa838787610942611777565b6120de565b635e85ae7360e01b8952600489fd5b50346101c857806003193601126101c8576001546040516001600160a01b039091168152602090f35b50346101c85760403660031901126101c8576112b06114e1565b336001600160a01b038216036112cc5761031c90600435611c62565b63334bd91960e11b8252600482fd5b50346101c85760403660031901126101c85761031c6004356112fb6114e1565b9061130861031282611756565b611bb9565b50346101c85760203660031901126101c857602061132c600435611756565b604051908152f35b50346101c85760203660031901126101c85761134e6114c6565b611356611a65565b6001600160a01b031680156106c157600380546001600160a01b0319811683179091556001600160a01b03167f7f7b46c0c664af2835dffe8b8e5c1ddbfcef63f608af5bbf2836a2b29a88fcb08380a380f35b50346101c857806003193601126101c85760405180602060045491828152018091600485527f8a35acfbc15ff81a39ae7d344fd709f28e8600b4aa8c65c6b64bfe7fe36bd19b90855b81811061145257505050826114089103836115da565b604051928392602084019060208552518091526040840192915b818110611430575050500390f35b82516001600160a01b0316845285945060209384019390920191600101611422565b82546001600160a01b03168452602090930192600192830192016113f2565b905034610cb0576020366003190112610cb05760043563ffffffff60e01b8116809103610d435760209250637965db0b60e01b81149081156114b5575b5015158152f35b6301ffc9a760e01b149050386114ae565b600435906001600160a01b03821682036114dc57565b600080fd5b602435906001600160a01b03821682036114dc57565b35906001600160a01b03821682036114dc57565b9181601f840112156114dc5782359167ffffffffffffffff83116114dc57602083818601950101116114dc57565b6101406003198201126114dc57600435916024356001600160a01b03811681036114dc579160443567ffffffffffffffff81116114dc578161157d9160040161150b565b929092916064359160843561ffff811681036114dc579160a43563ffffffff811681036114dc579160c43567ffffffffffffffff81116114dc57606081840360031901126114dc576060906004019260e31901126114dc5760e490565b90601f8019910116810190811067ffffffffffffffff8211176115fc57604052565b634e487b7160e01b600052604160045260246000fd5b67ffffffffffffffff81116115fc57601f01601f191660200190565b92919261163a82611612565b9161164860405193846115da565b8294818452818301116114dc578281602093846000960137010152565b60045481101561168057600460005260206000200190600090565b634e487b7160e01b600052603260045260246000fd5b6101c06003198201126114dc57600435916024356001600160a01b03811681036114dc579160443567ffffffffffffffff81116114dc57816116da9160040161150b565b92909291606435916084359160a43560ff811681036114dc579160c4359160e435916101043561ffff811681036114dc57916101243563ffffffff811681036114dc57916101443567ffffffffffffffff81116114dc57606081840360031901126114dc57606090600401926101631901126114dc5761016490565b6000526000805160206127fe83398151915260205260016040600020015490565b604051906117866040836115da565b6008825267576974686472617760c01b6020830152565b604051906117ac6040836115da565b600a82526915da5d1a191c985dd85b60b21b6020830152565b604051906117d46040836115da565b600782526611195c1bdcda5d60ca1b6020830152565b604051906117f96040836115da565b60098252682232b837b9b4ba37b960b91b6020830152565b6000905b600454918281101561193f5761182a81611665565b90546001600160a01b03848116959260031b9190911c16841461185257506001019150611815565b6000198101925082116119295761188661186e6118aa93611665565b905460039190911b1c6001600160a01b031691611665565b81546001600160a01b0393841660039290921b91821b9390911b1916919091179055565b806000526005602052604060002060ff198154169055600454801561191357600019016118d681611665565b81549060018060a01b039060031b1b191690556004557febe8af0714f0dd4a7b23bc7163ea1aadcce97af7a8ec25343abdbccdb2ea8a66600080a2565b634e487b7160e01b600052603160045260246000fd5b634e487b7160e01b600052601160045260246000fd5b506001600160a01b031690507f52d051a942d5c9a74e875d9faaa59f6de2ecefa16c6844af092cc73f749baad4600080a2565b6001600160a01b038116908115611a295781600052600560205260ff60406000205416611a01578160005260056020526040600020600160ff1982541617905560045490680100000000000000008210156115fc576118868260016119da9401600455611665565b7fcef021749a809ea9d2e4eb3f28a169c12227e99b0bca877f3950fb8c2ccfaa62600080a2565b507f52d051a942d5c9a74e875d9faaa59f6de2ecefa16c6844af092cc73f749baad4600080a2565b604051630b0f5aa160e11b815260206004820152601360248201527264657374696e6174696f6e206164647265737360681b6044820152606490fd5b6000805160206127be833981519152546001600160a01b03163303611a8657565b63118cdaa760e01b6000523360045260246000fd5b60008181526000805160206127fe8339815191526020908152604080832033845290915290205460ff1615611acd5750565b63e2517d3f60e01b6000523360045260245260446000fd5b6001600160a01b03811660009081527f99d7401b6c7fae7e32559c2f2939eb2955c262626d0b69e0397921638ab2ab8a602052604090205460ff16611bb3576001600160a01b031660008181527f99d7401b6c7fae7e32559c2f2939eb2955c262626d0b69e0397921638ab2ab8a60205260408120805460ff191660011790553391907f0a30bae60ea06f344bebb63f4eb39612b0328589ecd1132302e75991373fee2d907f2f8788117e7eff1d82e926ec794901d17c78024a50270940304540a733656f0d9080a4600190565b50600090565b60008181526000805160206127fe833981519152602090815260408083206001600160a01b038616845290915290205460ff16611c5b5760008181526000805160206127fe833981519152602090815260408083206001600160a01b0395909516808452949091528120805460ff19166001179055339291907f2f8788117e7eff1d82e926ec794901d17c78024a50270940304540a733656f0d9080a4600190565b5050600090565b60008181526000805160206127fe833981519152602090815260408083206001600160a01b038616845290915290205460ff1615611c5b5760008181526000805160206127fe833981519152602090815260408083206001600160a01b0395909516808452949091528120805460ff19169055339291907ff6391f5c32d9c69d2a47ea670b442974b53935d1edc7fd64eb21e047a839171b9080a4600190565b600260008051602061281e8339815191525414611d2d57600260008051602061281e83398151915255565b633ee5aeb560e01b60005260046000fd5b929092602081519101207fe09149d2123147c5f43d258257fef0b7b969db78269369ebcf5ebb9eef8592f28114600014611dd857506040519160208301937fa79feebba5eca838f5afb25f042ef9dbee2e9824463ec262b652584c92f243638552336040850152606084015260018060a01b0316608083015260a0820152611dd260c082800301601f1981018352826115da565b51902090565b7f8d7f87ab38a7f75a63dc465e10aadacecfca64c44ca774040b039bfb004e336714611e0f576318b6b25f60e21b60005260046000fd5b6040519160208301937fa9c090963b849011e9176737d7fc342936631fb97bbf2f507ad751e58480ff518552336040850152606084015260018060a01b0316608083015260a0820152611dd260c082800301601f1981018352826115da565b9290934211611fb15783600052600660205260ff60406000205416611fa057611f35611f3b926042856020611f44975191012060405160208101917f8b73c3c69bb8fe3d512ecc4cf759cc79239f7b179b0ffacaa9a75d522b39400f835260408201527fc89efdaa54c0f20c7adf612882df0950f5a951637e0307cdcb4c672f298b8bc660608201524660808201523060a082015260a08152611f1260c0826115da565b5190206040519061190160f01b825260028201528760228201522092369161162e565b906125a8565b909291926125e4565b6001600160a01b03168015611f8f576003546001600160a01b031603611f7e5760005260066020526040600020600160ff19825416179055565b63d1cc738560e01b60005260046000fd5b638bb79cad60e01b60005260046000fd5b63e544c62f60e01b60005260046000fd5b63288a076f60e21b60005260046000fd5b9035601e19823603018112156114dc57016020813591019167ffffffffffffffff82116114dc5781360383136114dc57565b908060209392818452848401376000828201840152601f01601f1916010190565b95929361ffff6120b195610100979463ffffffff949b9a9b60018060a01b03168a5260208a0152166040880152166060860152608085015261012060a085015260018060a01b03612065826114f7565b1661012085015261209d61209261207f6020840184611fc2565b6060610140890152610180880191611ff4565b916040810190611fc2565b85830361011f190161016087015290611ff4565b843560c0840152602085013560e0840152936001600160a01b03906120d8906040016114f7565b16910152565b9395949190929560009285156122b3576001600160a01b03851690811561227757818552600560205260ff604086205416156122315760025461212f908890309033906001600160a01b031661247b565b61214487303360018060a01b0389541661247b565b84546001546121619189916001600160a01b0390811691166124c6565b60015485546001600160a01b0391821694911692843b15610a9157926121a48795938a9388966040519e8f9889978897636491d4cd60e11b895260048901612015565b039134905af1958615610a95577fc2d6d3c0892701506bd7f775f2f5f485b7d3bc699b4ee794236a3c84c6738a0694959661221b575b506002549154604080519687526001600160a01b039384166020880152908316908601529116606084015261ffff16608083015233918060a081015b0390a2565b9161222a8161221693946115da565b91906121da565b604051630b0f5aa160e11b815260206004820152601960248201527f64657374696e6174696f6e20646f65736e2774206578697374000000000000006044820152606490fd5b604051630b0f5aa160e11b815260206004820152601360248201527264657374696e6174696f6e206973207a65726f60681b6044820152606490fd5b63162908e360e11b8452600484fd5b9395949592909260009685156123fe576001600160a01b038516801561227757808952600560205260ff60408a20541615612231578854899390612314908990309033906001600160a01b031661247b565b8354600154612331918a916001600160a01b0390811691166124c6565b60015484546001600160a01b0391821693911690833b156107cd5787948a9361237192604051998a9889978897636491d4cd60e11b895260048901612015565b039134905af18015610cf5579561221691817fec00d85a7419eaf32ce126aca75379da78c9f8c7521a12d2b05292035cd2f9489697986123ee575b505054600254604080519788526001600160a01b0392831660208901529082169087015292909216606085015261ffff166080840152339290819060a0820190565b6123f7916115da565b38816123ac565b63162908e360e11b8852600488fd5b60008051602061285e83398151915280546001600160a01b03199081169091556000805160206127be83398151915280549182166001600160a01b0393841690811790915591167f8be0079c531659141344cd1fd0a4f28419497f9722a3daafe3b4186f6b6457e0600080a3565b6040516323b872dd60e01b60208201526001600160a01b0392831660248201529290911660448301526064808301939093529181526124c4916124bf6084836115da565b61266c565b565b60206000604051938285019063095ea7b360e01b825260018060a01b0316958660248701526044860152604485526124ff6064866115da565b84519082855af16000513d82612555575b50501561251c57505050565b6124bf6124c4936040519063095ea7b360e01b60208301526024820152600060448201526044815261254f6064826115da565b8261266c565b90915061257257506001600160a01b0381163b15155b3880612510565b60011461256b565b60ff60008051602061283e8339815191525460401c161561259757565b631afcd79f60e31b60005260046000fd5b81519190604183036125d9576125d292506020820151906060604084015193015160001a906126d3565b9192909190565b505060009160029190565b919091600481101561265657806125fa57509050565b6000600182036126155763f645eedf60e01b60005260046000fd5b5060028103612633578263fce698f760e01b60005260045260246000fd5b9091600360009214612643575050565b6335e2f38360e21b825260045260249150fd5b634e487b7160e01b600052602160045260246000fd5b906000602091828151910182855af1156126c7576000513d6126be57506001600160a01b0381163b155b61269d5750565b635274afe760e01b60009081526001600160a01b0391909116600452602490fd5b60011415612696565b6040513d6000823e3d90fd5b91907f7fffffffffffffffffffffffffffffff5d576e7357a4501ddfe92f46681b20a08411612750579160209360809260ff60009560405194855216868401526040830152606082015282805260015afa156126c7576000516001600160a01b038116156127445790600090600090565b50600090600190600090565b50505060009160039190565b90612782575080511561277157602081519101fd5b63d6bda27560e01b60005260046000fd5b815115806127b4575b612793575090565b639996b31560e01b60009081526001600160a01b0391909116600452602490fd5b50803b1561278b56fe9016d09d72d40fdae2fd8ceac6b6234c7706214fd39c1cd1e609a0528c199300360894a13ba1a3210667c828492db98dca3e2076cc3735a920a3ca505d382bbc02dd7bc7dec4dceedda775e58dd541e08a116c6c53815c0bd028192f7b6268009b779b17422d0df92223018b32b4d1fa46e071723d6817e2486d003becc55f00f0c57e16840df040f15088dc2f81fe391c3923bec73e23a9662efc9c229c6a00237e158222e3e6968b72b9db0d8043aacf074ad9f650f0d1606b4d82ee432c00e97b137254058bd94f28d2f3eb79e2d34074ffb488d042e3bc958e0a57d2fa22a164736f6c634300081c000a",
  "linkReferences": {},
  "deployedLinkReferences": {}
}