{
  "_format": "hh-sol-artifact-1",
  "contractName": "CrossChainManager",
  "sourceName": "contracts/CrossChainManager.sol",
  "abi": [
    {
      "inputs": [],
      "stateMutability": "nonpayable",
      "type": "constructor"
    },
    {
      "inputs": [],
      "name": "AccessControlBadConfirmation",
      "type": "error"
    },
    {
      "inputs": [
        {
          "internalType": "address",
          "name": "account",
          "type": "address"
        },
        {
          "internalType": "bytes32",
          "name": "neededRole",
          "type": "bytes32"
        }
      ],
      "name": "AccessControlUnauthorizedAccount",
      "type": "error"
    },
    {
      "inputs": [
        {
          "internalType": "address",
          "name": "target",
          "type": "address"
        }
      ],
      "name": "AddressEmptyCode",
      "type": "error"
    },
    {
      "inputs": [],
      "name": "AmlSignatureAlreadyUsed",
      "type": "error"
    },
    {
      "inputs": [],
      "name": "AmlSignatureExpired",
      "type": "error"
    },
    {
      "inputs": [],
      "name": "AmountMustBeGreaterThanZero",
      "type": "error"
    },
    {
      "inputs": [],
      "name": "ECDSAInvalidSignature",
      "type": "error"
    },
    {
      "inputs": [
        {
          "internalType": "uint256",
          "name": "length",
          "type": "uint256"
        }
      ],
      "name": "ECDSAInvalidSignatureLength",
      "type": "error"
    },
    {
      "inputs": [
        {
          "internalType": "bytes32",
          "name": "s",
          "type": "bytes32"
        }
      ],
      "name": "ECDSAInvalidSignatureS",
      "type": "error"
    },
    {
      "inputs": [
        {
          "internalType": "address",
          "name": "implementation",
          "type": "address"
        }
      ],
      "name": "ERC1967InvalidImplementation",
      "type": "error"
    },
    {
      "inputs": [],
      "name": "ERC1967NonPayable",
      "type": "error"
    },
    {
      "inputs": [],
      "name": "FailedCall",
      "type": "error"
    },
    {
      "inputs": [],
      "name": "InsufficientBalance",
      "type": "error"
    },
    {
      "inputs": [
        {
          "internalType": "string",
          "name": "",
          "type": "string"
        }
      ],
      "name": "InvalidAddress",
      "type": "error"
    },
    {
      "inputs": [],
      "name": "InvalidAmlSignature",
      "type": "error"
    },
    {
      "inputs": [],
      "name": "InvalidAmlSigner",
      "type": "error"
    },
    {
      "inputs": [],
      "name": "InvalidAmount",
      "type": "error"
    },
    {
      "inputs": [],
      "name": "InvalidFunctionName",
      "type": "error"
    },
    {
      "inputs": [],
      "name": "InvalidInitialization",
      "type": "error"
    },
    {
      "inputs": [],
      "name": "InvalidMintTransactionHash",
      "type": "error"
    },
    {
      "inputs": [],
      "name": "NotInitializing",
      "type": "error"
    },
    {
      "inputs": [
        {
          "internalType": "address",
          "name": "owner",
          "type": "address"
        }
      ],
      "name": "OwnableInvalidOwner",
      "type": "error"
    },
    {
      "inputs": [
        {
          "internalType": "address",
          "name": "account",
          "type": "address"
        }
      ],
      "name": "OwnableUnauthorizedAccount",
      "type": "error"
    },
    {
      "inputs": [],
      "name": "ReentrancyGuardReentrantCall",
      "type": "error"
    },
    {
      "inputs": [
        {
          "internalType": "address",
          "name": "token",
          "type": "address"
        }
      ],
      "name": "SafeERC20FailedOperation",
      "type": "error"
    },
    {
      "inputs": [],
      "name": "UUPSUnauthorizedCallContext",
      "type": "error"
    },
    {
      "inputs": [
        {
          "internalType": "bytes32",
          "name": "slot",
          "type": "bytes32"
        }
      ],
      "name": "UUPSUnsupportedProxiableUUID",
      "type": "error"
    },
    {
      "anonymous": false,
      "inputs": [
        {
          "indexed": true,
          "internalType": "address",
          "name": "from",
          "type": "address"
        },
        {
          "indexed": true,
          "internalType": "address",
          "name": "to",
          "type": "address"
        }
      ],
      "name": "AmlSignerUpdated",
      "type": "event"
    },
    {
      "anonymous": false,
      "inputs": [
        {
          "indexed": true,
          "internalType": "address",
          "name": "from",
          "type": "address"
        },
        {
          "indexed": true,
          "internalType": "address",
          "name": "to",
          "type": "address"
        }
      ],
      "name": "CrossChainConfigUpdated",
      "type": "event"
    },
    {
      "anonymous": false,
      "inputs": [
        {
          "indexed": true,
          "internalType": "address",
          "name": "tokenAddress",
          "type": "address"
        },
        {
          "indexed": false,
          "internalType": "address",
          "name": "shareTokenAddress",
          "type": "address"
        },
        {
          "indexed": false,
          "internalType": "address",
          "name": "amlSignerAddress",
          "type": "address"
        },
        {
          "indexed": false,
          "internalType": "address",
          "name": "crossChainVaultAddress",
          "type": "address"
        },
        {
          "indexed": false,
          "internalType": "address",
          "name": "burnAdminAddress",
          "type": "address"
        }
      ],
      "name": "CrossChainManagerInitialized",
      "type": "event"
    },
    {
      "anonymous": false,
      "inputs": [
        {
          "indexed": true,
          "internalType": "address",
          "name": "user",
          "type": "address"
        },
        {
          "indexed": false,
          "internalType": "uint256",
          "name": "amount",
          "type": "uint256"
        },
        {
          "indexed": false,
          "internalType": "address",
          "name": "depositToken",
          "type": "address"
        },
        {
          "indexed": false,
          "internalType": "address",
          "name": "shareToken",
          "type": "address"
        },
        {
          "indexed": false,
          "internalType": "address",
          "name": "destinationAddress",
          "type": "address"
        },
        {
          "indexed": false,
          "internalType": "uint16",
          "name": "targetChain",
          "type": "uint16"
        }
      ],
      "name": "Deposited",
      "type": "event"
    },
    {
      "anonymous": false,
      "inputs": [
        {
          "indexed": true,
          "internalType": "address",
          "name": "destination",
          "type": "address"
        }
      ],
      "name": "DestinationAddressAdded",
      "type": "event"
    },
    {
      "anonymous": false,
      "inputs": [
        {
          "indexed": true,
          "internalType": "address",
          "name": "destination",
          "type": "address"
        }
      ],
      "name": "DestinationAddressRemoved",
      "type": "event"
    },
    {
      "anonymous": false,
      "inputs": [
        {
          "indexed": true,
          "internalType": "address",
          "name": "destination",
          "type": "address"
        }
      ],
      "name": "DestinationAddressSkipped",
      "type": "event"
    },
    {
      "anonymous": false,
      "inputs": [
        {
          "indexed": false,
          "internalType": "uint64",
          "name": "version",
          "type": "uint64"
        }
      ],
      "name": "Initialized",
      "type": "event"
    },
    {
      "anonymous": false,
      "inputs": [
        {
          "indexed": true,
          "internalType": "address",
          "name": "previousOwner",
          "type": "address"
        },
        {
          "indexed": true,
          "internalType": "address",
          "name": "newOwner",
          "type": "address"
        }
      ],
      "name": "OwnershipTransferStarted",
      "type": "event"
    },
    {
      "anonymous": false,
      "inputs": [
        {
          "indexed": true,
          "internalType": "address",
          "name": "previousOwner",
          "type": "address"
        },
        {
          "indexed": true,
          "internalType": "address",
          "name": "newOwner",
          "type": "address"
        }
      ],
      "name": "OwnershipTransferred",
      "type": "event"
    },
    {
      "anonymous": false,
      "inputs": [
        {
          "indexed": true,
          "internalType": "bytes32",
          "name": "role",
          "type": "bytes32"
        },
        {
          "indexed": true,
          "internalType": "bytes32",
          "name": "previousAdminRole",
          "type": "bytes32"
        },
        {
          "indexed": true,
          "internalType": "bytes32",
          "name": "newAdminRole",
          "type": "bytes32"
        }
      ],
      "name": "RoleAdminChanged",
      "type": "event"
    },
    {
      "anonymous": false,
      "inputs": [
        {
          "indexed": true,
          "internalType": "bytes32",
          "name": "role",
          "type": "bytes32"
        },
        {
          "indexed": true,
          "internalType": "address",
          "name": "account",
          "type": "address"
        },
        {
          "indexed": true,
          "internalType": "address",
          "name": "sender",
          "type": "address"
        }
      ],
      "name": "RoleGranted",
      "type": "event"
    },
    {
      "anonymous": false,
      "inputs": [
        {
          "indexed": true,
          "internalType": "bytes32",
          "name": "role",
          "type": "bytes32"
        },
        {
          "indexed": true,
          "internalType": "address",
          "name": "account",
          "type": "address"
        },
        {
          "indexed": true,
          "internalType": "address",
          "name": "sender",
          "type": "address"
        }
      ],
      "name": "RoleRevoked",
      "type": "event"
    },
    {
      "anonymous": false,
      "inputs": [
        {
          "indexed": false,
          "internalType": "uint256",
          "name": "amount",
          "type": "uint256"
        },
        {
          "indexed": false,
          "internalType": "address",
          "name": "shareToken",
          "type": "address"
        },
        {
          "indexed": false,
          "internalType": "address",
          "name": "burner",
          "type": "address"
        },
        {
          "indexed": true,
          "internalType": "string",
          "name": "mintTransactionHash",
          "type": "string"
        }
      ],
      "name": "TokensBurned",
      "type": "event"
    },
    {
      "anonymous": false,
      "inputs": [
        {
          "indexed": true,
          "internalType": "address",
          "name": "implementation",
          "type": "address"
        }
      ],
      "name": "Upgraded",
      "type": "event"
    },
    {
      "anonymous": false,
      "inputs": [
        {
          "indexed": true,
          "internalType": "address",
          "name": "user",
          "type": "address"
        },
        {
          "indexed": false,
          "internalType": "uint256",
          "name": "amount",
          "type": "uint256"
        },
        {
          "indexed": false,
          "internalType": "address",
          "name": "shareToken",
          "type": "address"
        },
        {
          "indexed": false,
          "internalType": "address",
          "name": "paymentToken",
          "type": "address"
        },
        {
          "indexed": false,
          "internalType": "address",
          "name": "destinationAddress",
          "type": "address"
        },
        {
          "indexed": false,
          "internalType": "uint16",
          "name": "targetChain",
          "type": "uint16"
        }
      ],
      "name": "Withdrawn",
      "type": "event"
    },
    {
      "inputs": [],
      "name": "DEFAULT_ADMIN_ROLE",
      "outputs": [
        {
          "internalType": "bytes32",
          "name": "",
          "type": "bytes32"
        }
      ],
      "stateMutability": "view",
      "type": "function"
    },
    {
      "inputs": [],
      "name": "UPGRADE_INTERFACE_VERSION",
      "outputs": [
        {
          "internalType": "string",
          "name": "",
          "type": "string"
        }
      ],
      "stateMutability": "view",
      "type": "function"
    },
    {
      "inputs": [],
      "name": "acceptOwnership",
      "outputs": [],
      "stateMutability": "nonpayable",
      "type": "function"
    },
    {
      "inputs": [
        {
          "internalType": "address",
          "name": "_destination",
          "type": "address"
        }
      ],
      "name": "addDestinationAddress",
      "outputs": [],
      "stateMutability": "nonpayable",
      "type": "function"
    },
    {
      "inputs": [],
      "name": "amlSigner",
      "outputs": [
        {
          "internalType": "address",
          "name": "",
          "type": "address"
        }
      ],
      "stateMutability": "view",
      "type": "function"
    },
    {
      "inputs": [
        {
          "internalType": "uint256",
          "name": "amount",
          "type": "uint256"
        },
        {
          "internalType": "string",
          "name": "mintTransactionHash",
          "type": "string"
        }
      ],
      "name": "burn",
      "outputs": [],
      "stateMutability": "nonpayable",
      "type": "function"
    },
    {
      "inputs": [],
      "name": "crossChainVault",
      "outputs": [
        {
          "internalType": "contract CrossChainVault",
          "name": "",
          "type": "address"
        }
      ],
      "stateMutability": "view",
      "type": "function"
    },
    {
      "inputs": [
        {
          "internalType": "uint256",
          "name": "_amount",
          "type": "uint256"
        },
        {
          "internalType": "address",
          "name": "_destinationAddress",
          "type": "address"
        },
        {
          "internalType": "bytes",
          "name": "_amlSignature",
          "type": "bytes"
        },
        {
          "internalType": "uint256",
          "name": "_amlDeadline",
          "type": "uint256"
        },
        {
          "internalType": "uint16",
          "name": "targetChain",
          "type": "uint16"
        },
        {
          "internalType": "uint32",
          "name": "targetDomain",
          "type": "uint32"
        },
        {
          "components": [
            {
              "internalType": "address",
              "name": "refundAddress",
              "type": "address"
            },
            {
              "internalType": "bytes",
              "name": "signedQuote",
              "type": "bytes"
            },
            {
              "internalType": "bytes",
              "name": "instructions",
              "type": "bytes"
            }
          ],
          "internalType": "struct ExecutorArgs",
          "name": "executorArgs",
          "type": "tuple"
        },
        {
          "components": [
            {
              "internalType": "uint256",
              "name": "transferTokenFee",
              "type": "uint256"
            },
            {
              "internalType": "uint256",
              "name": "nativeTokenFee",
              "type": "uint256"
            },
            {
              "internalType": "address",
              "name": "payee",
              "type": "address"
            }
          ],
          "internalType": "struct FeeArgs",
          "name": "feeArgs",
          "type": "tuple"
        }
      ],
      "name": "deposit",
      "outputs": [],
      "stateMutability": "payable",
      "type": "function"
    },
    {
      "inputs": [
        {
          "internalType": "uint256",
          "name": "_amount",
          "type": "uint256"
        },
        {
          "internalType": "address",
          "name": "_destinationAddress",
          "type": "address"
        },
        {
          "internalType": "bytes",
          "name": "_amlSignature",
          "type": "bytes"
        },
        {
          "internalType": "uint256",
          "name": "_amlDeadline",
          "type": "uint256"
        },
        {
          "internalType": "uint256",
          "name": "_permitDeadline",
          "type": "uint256"
        },
        {
          "internalType": "uint8",
          "name": "_v",
          "type": "uint8"
        },
        {
          "internalType": "bytes32",
          "name": "_r",
          "type": "bytes32"
        },
        {
          "internalType": "bytes32",
          "name": "_s",
          "type": "bytes32"
        },
        {
          "internalType": "uint16",
          "name": "targetChain",
          "type": "uint16"
        },
        {
          "internalType": "uint32",
          "name": "targetDomain",
          "type": "uint32"
        },
        {
          "components": [
            {
              "internalType": "address",
              "name": "refundAddress",
              "type": "address"
            },
            {
              "internalType": "bytes",
              "name": "signedQuote",
              "type": "bytes"
            },
            {
              "internalType": "bytes",
              "name": "instructions",
              "type": "bytes"
            }
          ],
          "internalType": "struct ExecutorArgs",
          "name": "executorArgs",
          "type": "tuple"
        },
        {
          "components": [
            {
              "internalType": "uint256",
              "name": "transferTokenFee",
              "type": "uint256"
            },
            {
              "internalType": "uint256",
              "name": "nativeTokenFee",
              "type": "uint256"
            },
            {
              "internalType": "address",
              "name": "payee",
              "type": "address"
            }
          ],
          "internalType": "struct FeeArgs",
          "name": "feeArgs",
          "type": "tuple"
        }
      ],
      "name": "depositWithPermit",
      "outputs": [],
      "stateMutability": "payable",
      "type": "function"
    },
    {
      "inputs": [
        {
          "internalType": "uint256",
          "name": "",
          "type": "uint256"
        }
      ],
      "name": "destinationAddresses",
      "outputs": [
        {
          "internalType": "address",
          "name": "",
          "type": "address"
        }
      ],
      "stateMutability": "view",
      "type": "function"
    },
    {
      "inputs": [],
      "name": "getDestinationAddresses",
      "outputs": [
        {
          "internalType": "address[]",
          "name": "",
          "type": "address[]"
        }
      ],
      "stateMutability": "view",
      "type": "function"
    },
    {
      "inputs": [
        {
          "internalType": "bytes32",
          "name": "role",
          "type": "bytes32"
        }
      ],
      "name": "getRoleAdmin",
      "outputs": [
        {
          "internalType": "bytes32",
          "name": "",
          "type": "bytes32"
        }
      ],
      "stateMutability": "view",
      "type": "function"
    },
    {
      "inputs": [
        {
          "internalType": "bytes32",
          "name": "role",
          "type": "bytes32"
        },
        {
          "internalType": "address",
          "name": "account",
          "type": "address"
        }
      ],
      "name": "grantRole",
      "outputs": [],
      "stateMutability": "nonpayable",
      "type": "function"
    },
    {
      "inputs": [
        {
          "internalType": "bytes32",
          "name": "role",
          "type": "bytes32"
        },
        {
          "internalType": "address",
          "name": "account",
          "type": "address"
        }
      ],
      "name": "hasRole",
      "outputs": [
        {
          "internalType": "bool",
          "name": "",
          "type": "bool"
        }
      ],
      "stateMutability": "view",
      "type": "function"
    },
    {
      "inputs": [
        {
          "internalType": "address",
          "name": "_tokenAddress",
          "type": "address"
        },
        {
          "internalType": "address",
          "name": "_shareTokenAddress",
          "type": "address"
        },
        {
          "internalType": "address",
          "name": "_amlSignerAddress",
          "type": "address"
        },
        {
          "internalType": "address",
          "name": "crossChainVaultAddress",
          "type": "address"
        },
        {
          "internalType": "address",
          "name": "burnAdminAddress",
          "type": "address"
        }
      ],
      "name": "initialize",
      "outputs": [],
      "stateMutability": "nonpayable",
      "type": "function"
    },
    {
      "inputs": [
        {
          "internalType": "address",
          "name": "",
          "type": "address"
        }
      ],
      "name": "isDestination",
      "outputs": [
        {
          "internalType": "bool",
          "name": "",
          "type": "bool"
        }
      ],
      "stateMutability": "view",
      "type": "function"
    },
    {
      "inputs": [],
      "name": "owner",
      "outputs": [
        {
          "internalType": "address",
          "name": "",
          "type": "address"
        }
      ],
      "stateMutability": "view",
      "type": "function"
    },
    {
      "inputs": [],
      "name": "pendingOwner",
      "outputs": [
        {
          "internalType": "address",
          "name": "",
          "type": "address"
        }
      ],
      "stateMutability": "view",
      "type": "function"
    },
    {
      "inputs": [],
      "name": "proxiableUUID",
      "outputs": [
        {
          "internalType": "bytes32",
          "name": "",
          "type": "bytes32"
        }
      ],
      "stateMutability": "view",
      "type": "function"
    },
    {
      "inputs": [
        {
          "internalType": "address",
          "name": "_destination",
          "type": "address"
        }
      ],
      "name": "removeDestinationAddress",
      "outputs": [],
      "stateMutability": "nonpayable",
      "type": "function"
    },
    {
      "inputs": [],
      "name": "renounceOwnership",
      "outputs": [],
      "stateMutability": "nonpayable",
      "type": "function"
    },
    {
      "inputs": [
        {
          "internalType": "bytes32",
          "name": "role",
          "type": "bytes32"
        },
        {
          "internalType": "address",
          "name": "callerConfirmation",
          "type": "address"
        }
      ],
      "name": "renounceRole",
      "outputs": [],
      "stateMutability": "nonpayable",
      "type": "function"
    },
    {
      "inputs": [
        {
          "internalType": "bytes32",
          "name": "role",
          "type": "bytes32"
        },
        {
          "internalType": "address",
          "name": "account",
          "type": "address"
        }
      ],
      "name": "revokeRole",
      "outputs": [],
      "stateMutability": "nonpayable",
      "type": "function"
    },
    {
      "inputs": [],
      "name": "shareToken",
      "outputs": [
        {
          "internalType": "contract ICustomToken",
          "name": "",
          "type": "address"
        }
      ],
      "stateMutability": "view",
      "type": "function"
    },
    {
      "inputs": [
        {
          "internalType": "bytes4",
          "name": "interfaceId",
          "type": "bytes4"
        }
      ],
      "name": "supportsInterface",
      "outputs": [
        {
          "internalType": "bool",
          "name": "",
          "type": "bool"
        }
      ],
      "stateMutability": "view",
      "type": "function"
    },
    {
      "inputs": [],
      "name": "token",
      "outputs": [
        {
          "internalType": "contract CustomToken",
          "name": "",
          "type": "address"
        }
      ],
      "stateMutability": "view",
      "type": "function"
    },
    {
      "inputs": [
        {
          "internalType": "address",
          "name": "newOwner",
          "type": "address"
        }
      ],
      "name": "transferOwnership",
      "outputs": [],
      "stateMutability": "nonpayable",
      "type": "function"
    },
    {
      "inputs": [
        {
          "internalType": "address",
          "name": "amlSignerAddress",
          "type": "address"
        }
      ],
      "name": "updateAmlSigner",
      "outputs": [],
      "stateMutability": "nonpayable",
      "type": "function"
    },
    {
      "inputs": [
        {
          "internalType": "address",
          "name": "crossChainVaultAddress",
          "type": "address"
        }
      ],
      "name": "updateCrossChainConfig",
      "outputs": [],
      "stateMutability": "nonpayable",
      "type": "function"
    },
    {
      "inputs": [
        {
          "internalType": "address",
          "name": "newImplementation",
          "type": "address"
        },
        {
          "internalType": "bytes",
          "name": "data",
          "type": "bytes"
        }
      ],
      "name": "upgradeToAndCall",
      "outputs": [],
      "stateMutability": "payable",
      "type": "function"
    },
    {
      "inputs": [
        {
          "internalType": "bytes32",
          "name": "",
          "type": "bytes32"
        }
      ],
      "name": "usedSignatures",
      "outputs": [
        {
          "internalType": "bool",
          "name": "",
          "type": "bool"
        }
      ],
      "stateMutability": "view",
      "type": "function"
    },
    {
      "inputs": [
        {
          "internalType": "uint256",
          "name": "_amount",
          "type": "uint256"
        },
        {
          "internalType": "address",
          "name": "_destinationAddress",
          "type": "address"
        },
        {
          "internalType": "bytes",
          "name": "_amlSignature",
          "type": "bytes"
        },
        {
          "internalType": "uint256",
          "name": "_amlDeadline",
          "type": "uint256"
        },
        {
          "internalType": "uint16",
          "name": "targetChain",
          "type": "uint16"
        },
        {
          "internalType": "uint32",
          "name": "targetDomain",
          "type": "uint32"
        },
        {
          "components": [
            {
              "internalType": "address",
              "name": "refundAddress",
              "type": "address"
            },
            {
              "internalType": "bytes",
              "name": "signedQuote",
              "type": "bytes"
            },
            {
              "internalType": "bytes",
              "name": "instructions",
              "type": "bytes"
            }
          ],
          "internalType": "struct ExecutorArgs",
          "name": "executorArgs",
          "type": "tuple"
        },
        {
          "components": [
            {
              "internalType": "uint256",
              "name": "transferTokenFee",
              "type": "uint256"
            },
            {
              "internalType": "uint256",
              "name": "nativeTokenFee",
              "type": "uint256"
            },
            {
              "internalType": "address",
              "name": "payee",
              "type": "address"
            }
          ],
          "internalType": "struct FeeArgs",
          "name": "feeArgs",
          "type": "tuple"
        }
      ],
      "name": "withdraw",
      "outputs": [],
      "stateMutability": "payable",
      "type": "function"
    },
    {
      "inputs": [
        {
          "internalType": "uint256",
          "name": "_amount",
          "type": "uint256"
        },
        {
          "internalType": "address",
          "name": "_destinationAddress",
          "type": "address"
        },
        {
          "internalType": "bytes",
          "name": "_amlSignature",
          "type": "bytes"
        },
        {
          "internalType": "uint256",
          "name": "_amlDeadline",
          "type": "uint256"
        },
        {
          "internalType": "uint256",
          "name": "_permitDeadline",
          "type": "uint256"
        },
        {
          "internalType": "uint8",
          "name": "_v",
          "type": "uint8"
        },
        {
          "internalType": "bytes32",
          "name": "_r",
          "type": "bytes32"
        },
        {
          "internalType": "bytes32",
          "name": "_s",
          "type": "bytes32"
        },
        {
          "internalType": "uint16",
          "name": "targetChain",
          "type": "uint16"
        },
        {
          "internalType": "uint32",
          "name": "targetDomain",
          "type": "uint32"
        },
        {
          "components": [
            {
              "internalType": "address",
              "name": "refundAddress",
              "type": "address"
            },
            {
              "internalType": "bytes",
              "name": "signedQuote",
              "type": "bytes"
            },
            {
              "internalType": "bytes",
              "name": "instructions",
              "type": "bytes"
            }
          ],
          "internalType": "struct ExecutorArgs",
          "name": "executorArgs",
          "type": "tuple"
        },
        {
          "components": [
            {
              "internalType": "uint256",
              "name": "transferTokenFee",
              "type": "uint256"
            },
            {
              "internalType": "uint256",
              "name": "nativeTokenFee",
              "type": "uint256"
            },
            {
              "internalType": "address",
              "name": "payee",
              "type": "address"
            }
          ],
          "internalType": "struct FeeArgs",
          "name": "feeArgs",
          "type": "tuple"
        }
      ],
      "name": "withdrawWithPermit",
      "outputs": [],
      "stateMutability": "payable",
      "type": "function"
    }
  ],
  "bytecode": "0x60a080604052346100ea57306080527ff0c57e16840df040f15088dc2f81fe391c3923bec73e23a9662efc9c229c6a005460ff8160401c166100d9576002600160401b03196001600160401b03821601610073575b6040516127d690816100f08239608051818181610ac30152610b690152f35b6001600160401b0319166001600160401b039081177ff0c57e16840df040f15088dc2f81fe391c3923bec73e23a9662efc9c229c6a005581527fc7f505b2f371ae2175ee4913f4499e1f2633a7b5936321eed1cdaeb6115181d290602090a13880610054565b63f92ee8a960e01b60005260046000fd5b600080fdfe608080604052600436101561001357600080fd5b600090813560e01c90816301ffc9a71461139d575080630ce32eb3146112d55780631459457a14610ef95780631a04b8f714610e51578063248a9ca314610e2a5780632f2ff15d14610df857806336568abe14610db35780633d13272b14610d8a57806342a586fa14610d3d5780634f1ef28614610b1857806352d1902d14610ab05780636147da5614610a875780636193d01814610a43578063638e5fc9146109945780636adda2b6146108c65780636c9fa59e1461089d578063715018a61461081c5780637641e6f31461061f57806379ba5097146105d15780638c393558146105a75780638da5cb5b146105715780638ee65da61461049457806391d148541461043b578063986b8534146103df578063a217fddf146103c3578063aaaae34214610384578063ad3cb1cc1461030a578063d547741f146102cf578063e30c397814610299578063e3f248a41461026c578063f2fde38b146101e4578063f978fd61146101b55763fc0c546a1461018c57600080fd5b346101b257806003193601126101b257546040516001600160a01b039091168152602090f35b80fd5b50346101b25760203660031901126101b25760ff60406020926004358152600684522054166040519015158152f35b50346101b25760203660031901126101b2576101fe6113f2565b610206611b0e565b60008051602061278a83398151915280546001600160a01b0319166001600160a01b039283169081179091556000805160206126ea833981519152549091167f38d16b8cac22d99fc7c124b9cd0de2d3fa1faef420bfe791d8c362d765e227008380a380f35b50346101b25760203660031901126101b2576102966102896113f2565b610291611b0e565b61189e565b80f35b50346101b257806003193601126101b25760008051602061278a833981519152546040516001600160a01b039091168152602090f35b50346101b25760403660031901126101b2576103066004356102ef61140d565b906103016102fc82611682565b611b44565b611b8e565b5080f35b50346101b257806003193601126101b257604080519161032a8284611506565b60058352640352e302e360dc1b6020840152815192839160208352815191826020850152815b83811061036d575050828201840152601f01601f19168101030190f35b602082820181015188830188015287955001610350565b50346101b25760203660031901126101b25760209060ff906040906001600160a01b036103af6113f2565b168152600584522054166040519015158152f35b50346101b257806003193601126101b257602090604051908152f35b506104266104216103ef36611465565b98929561040198949297959198611c2e565b61041483878761040f6116f1565b611c6a565b61041c611716565b611d9a565b6121ee565b600160008051602061274a8339815191525580f35b50346101b25760403660031901126101b257604061045761140d565b91600435815260008051602061272a833981519152602052209060018060a01b0316600052602052602060ff604060002054166040519015158152f35b50806104c76104cf6104a5366115c2565b9d8c9f99929c988c81959d9c939f9699979a6104bf611c2e565b61040f6116a3565b61041c6116c9565b84546001600160a01b031690813b1561056d5760405163d505accf60e01b8152336004820152306024820152604481018d9052606481019190915260ff92909216608483015260a482019390935260c4810191909152908290829060e490829084905af1801561056257610549575b50506104269561200a565b8161055391611506565b61055e57863861053e565b8680fd5b6040513d84823e3d90fd5b8580fd5b50346101b257806003193601126101b2576000805160206126ea833981519152546040516001600160a01b039091168152602090f35b50346101b25760203660031901126101b2576102966105c46113f2565b6105cc611b0e565b61173d565b50346101b257806003193601126101b25760008051602061278a83398151915254336001600160a01b039091160361060c5761029633612339565b63118cdaa760e01b815233600452602490fd5b50346101b25760403660031901126101b25760043560243567ffffffffffffffff811161081857610654903690600401611437565b6000805160206127aa833981519152845260008051602061272a83398151915260209081526040808620336000908152925290205491929160ff16156107f35781156107e45780156107d5576002546040516370a0823160e01b81523060048201526001600160a01b0390911690602081602481855afa9081156107ca578691610798575b508311610789578085913b1561078557818091602460405180948193630852cd8d60e31b83528960048401525af180156105625761076c575b50507f5b9d46fcafb9d23a7bfeecc55768d5e506ca28c3a3eea2f1a51704fa25bc02fa9160609160018060a01b0360025416948160405192839283378101878152039020936040519182526020820152336040820152a280f35b8161077691611506565b610781578338610712565b8380fd5b5080fd5b631e9acf1760e31b8552600485fd5b90506020813d6020116107c2575b816107b360209383611506565b8101031261056d5751386106d9565b3d91506107a6565b6040513d88823e3d90fd5b63643d3cf760e01b8452600484fd5b635e85ae7360e01b8452600484fd5b63e2517d3f60e01b8452336004526000805160206127aa833981519152602452604484fd5b8280fd5b50346101b257806003193601126101b257610835611b0e565b60008051602061278a83398151915280546001600160a01b03199081169091556000805160206126ea8339815191528054918216905581906001600160a01b03167f8be0079c531659141344cd1fd0a4f28419497f9722a3daafe3b4186f6b6457e08280a380f35b50346101b257806003193601126101b2576002546040516001600160a01b039091168152602090f35b6108f8826104146108d6366115c2565b9c8c9f94969795988c81959c939e6108f09e9c959e611c2e565b61040f6116f1565b89546001600160a01b031691823b156109905760405163d505accf60e01b8152336004820152306024820152604481018d9052606481019290925260ff93909316608482015260a481019390935260c48301919091528790829060e490829084905af1801561098557610971575b5061042695966121ee565b9561097f8161042698611506565b95610966565b6040513d89823e3d90fd5b8a80fd5b50346101b25760203660031901126101b2576109ae6113f2565b6109b6611b0e565b6001600160a01b03168015610a0957600180546001600160a01b0319811683179091556001600160a01b03167f4d5e356daffe6b8e8438edef03597d8456db20f09af07d3d4fed737777302aa98380a380f35b604051630b0f5aa160e11b815260206004820152601160248201527018dc9bdcdcc818da185a5b881d985d5b1d607a1b6044820152606490fd5b50346101b25760203660031901126101b257600435906004548210156101b2576020610a6e83611591565b905460405160039290921b1c6001600160a01b03168152f35b50346101b257806003193601126101b2576003546040516001600160a01b039091168152602090f35b50346101b257806003193601126101b2577f00000000000000000000000000000000000000000000000000000000000000006001600160a01b03163003610b0957602060405160008051602061270a8339815191528152f35b63703e46dd60e11b8152600490fd5b5060403660031901126101b257610b2d6113f2565b9060243567ffffffffffffffff8111610785573660238201121561078557610b5f90369060248160040135910161155a565b6001600160a01b037f000000000000000000000000000000000000000000000000000000000000000016308114908115610d1a575b50610d0b57610ba1611b0e565b6040516352d1902d60e01b8152926001600160a01b0381169190602085600481865afa80958596610cd3575b50610be657634c9c8ce360e01b84526004839052602484fd5b90918460008051602061270a8339815191528103610cc15750813b15610caf5760008051602061270a83398151915280546001600160a01b031916821790557fbc7cd75a20ee27fd9adebab32041f755214dbc6bffa90cc0225b39da2e5c2d3b8480a28151839015610c95578083602061030695519101845af43d15610c8d573d91610c718361153e565b92610c7f6040519485611506565b83523d85602085013e612688565b606091612688565b50505034610ca05780f35b63b398979f60e01b8152600490fd5b634c9c8ce360e01b8452600452602483fd5b632a87526960e21b8552600452602484fd5b9095506020813d602011610d03575b81610cef60209383611506565b81010312610cff57519438610bcd565b8480fd5b3d9150610ce2565b63703e46dd60e11b8252600482fd5b60008051602061270a833981519152546001600160a01b03161415905038610b94565b50610d4736611465565b969293989791949095610d58611c2e565b8215610d7b5798610d7691610426999a6104c783878761040f6116a3565b61200a565b635e85ae7360e01b8952600489fd5b50346101b257806003193601126101b2576001546040516001600160a01b039091168152602090f35b50346101b25760403660031901126101b257610dcd61140d565b336001600160a01b03821603610de95761030690600435611b8e565b63334bd91960e11b8252600482fd5b50346101b25760403660031901126101b257610306600435610e1861140d565b90610e256102fc82611682565b611a65565b50346101b25760203660031901126101b2576020610e49600435611682565b604051908152f35b50346101b25760203660031901126101b257610e6b6113f2565b610e73611b0e565b6001600160a01b03168015610ec657600380546001600160a01b0319811683179091556001600160a01b03167f7f7b46c0c664af2835dffe8b8e5c1ddbfcef63f608af5bbf2836a2b29a88fcb08380a380f35b604051630b0f5aa160e11b815260206004820152600a60248201526930b6b61039b4b3b732b960b11b6044820152606490fd5b50346101b25760a03660031901126101b257610f136113f2565b610f1b61140d565b6044356001600160a01b03811690819003610781576064356001600160a01b03811690819003610cff57608435906001600160a01b03821680830361055e5760008051602061276a833981519152549560ff8760401c16159667ffffffffffffffff8116801590816112cd575b60011490816112c3575b1590816112ba575b506112ab5767ffffffffffffffff19811660011760008051602061276a833981519152558761127e575b50610fcd6123a7565b610fd56123a7565b610fdd6123a7565b331561126a57610fec33612339565b610ff46123a7565b610ffc6123a7565b6110046123a7565b600160008051602061274a833981519152556001600160a01b031694851561123c576001600160a01b0316918215611208578415610ec6578015610a095781156111d9577fdaa74d7662c0e57b5ae49bf571c205e36bbd19341d93871664c956ed18d8489694611161608095886001600160601b0360a01b8c5416178b55856001600160601b0360a01b6002541617600255826001600160601b0360a01b6003541617600355836001600160601b0360a01b60015416176001556000805160206127aa8339815191528b5260008051602061272a8339815191526020527f0a30bae60ea06f344bebb63f4eb39612b0328589ecd1132302e75991373fee2d8b6000805160206127aa8339815191527fbd79b86ffe0ab8e8776151514217cd7cacd52c909f66475c3af44e129f0b00ff60016040842001549282815260008051602061272a83398151915260205284600160408320015580a4611991565b50604051938452602084015260408301526060820152a261117f5780f35b68ff00000000000000001960008051602061276a833981519152541660008051602061276a833981519152557fc7f505b2f371ae2175ee4913f4499e1f2633a7b5936321eed1cdaeb6115181d2602060405160018152a180f35b604051630b0f5aa160e11b8152602060048201526006602482015265313ab93732b960d11b6044820152606490fd5b604051630b0f5aa160e11b815260206004820152600b60248201526a39b430b932903a37b5b2b760a91b6044820152606490fd5b604051630b0f5aa160e11b81526020600482015260056024820152643a37b5b2b760d91b6044820152606490fd5b631e4fbdf760e01b88526004889052602488fd5b68ffffffffffffffffff1916680100000000000000011760008051602061276a8339815191525538610fc4565b63f92ee8a960e01b8952600489fd5b90501538610f9a565b303b159150610f92565b899150610f88565b50346101b257806003193601126101b25760405180602060045491828152018091600485527f8a35acfbc15ff81a39ae7d344fd709f28e8600b4aa8c65c6b64bfe7fe36bd19b90855b81811061137e5750505082611334910383611506565b604051928392602084019060208552518091526040840192915b81811061135c575050500390f35b82516001600160a01b031684528594506020938401939092019160010161134e565b82546001600160a01b031684526020909301926001928301920161131e565b9050346107855760203660031901126107855760043563ffffffff60e01b81168091036108185760209250637965db0b60e01b81149081156113e1575b5015158152f35b6301ffc9a760e01b149050386113da565b600435906001600160a01b038216820361140857565b600080fd5b602435906001600160a01b038216820361140857565b35906001600160a01b038216820361140857565b9181601f840112156114085782359167ffffffffffffffff8311611408576020838186019501011161140857565b61014060031982011261140857600435916024356001600160a01b0381168103611408579160443567ffffffffffffffff811161140857816114a991600401611437565b929092916064359160843561ffff81168103611408579160a43563ffffffff81168103611408579160c43567ffffffffffffffff81116114085760608184036003190112611408576060906004019260e31901126114085760e490565b90601f8019910116810190811067ffffffffffffffff82111761152857604052565b634e487b7160e01b600052604160045260246000fd5b67ffffffffffffffff811161152857601f01601f191660200190565b9291926115668261153e565b916115746040519384611506565b829481845281830111611408578281602093846000960137010152565b6004548110156115ac57600460005260206000200190600090565b634e487b7160e01b600052603260045260246000fd5b6101c060031982011261140857600435916024356001600160a01b0381168103611408579160443567ffffffffffffffff8111611408578161160691600401611437565b92909291606435916084359160a43560ff81168103611408579160c4359160e435916101043561ffff8116810361140857916101243563ffffffff8116810361140857916101443567ffffffffffffffff8111611408576060818403600319011261140857606090600401926101631901126114085761016490565b60005260008051602061272a83398151915260205260016040600020015490565b604051906116b2604083611506565b6008825267576974686472617760c01b6020830152565b604051906116d8604083611506565b600a82526915da5d1a191c985dd85b60b21b6020830152565b60405190611700604083611506565b600782526611195c1bdcda5d60ca1b6020830152565b60405190611725604083611506565b60098252682232b837b9b4ba37b960b91b6020830152565b6000905b600454918281101561186b5761175681611591565b90546001600160a01b03848116959260031b9190911c16841461177e57506001019150611741565b600019810192508211611855576117b261179a6117d693611591565b905460039190911b1c6001600160a01b031691611591565b81546001600160a01b0393841660039290921b91821b9390911b1916919091179055565b806000526005602052604060002060ff198154169055600454801561183f576000190161180281611591565b81549060018060a01b039060031b1b191690556004557febe8af0714f0dd4a7b23bc7163ea1aadcce97af7a8ec25343abdbccdb2ea8a66600080a2565b634e487b7160e01b600052603160045260246000fd5b634e487b7160e01b600052601160045260246000fd5b506001600160a01b031690507f52d051a942d5c9a74e875d9faaa59f6de2ecefa16c6844af092cc73f749baad4600080a2565b6001600160a01b0381169081156119555781600052600560205260ff6040600020541661192d578160005260056020526040600020600160ff198254161790556004549068010000000000000000821015611528576117b28260016119069401600455611591565b7fcef021749a809ea9d2e4eb3f28a169c12227e99b0bca877f3950fb8c2ccfaa62600080a2565b507f52d051a942d5c9a74e875d9faaa59f6de2ecefa16c6844af092cc73f749baad4600080a2565b604051630b0f5aa160e11b815260206004820152601360248201527264657374696e6174696f6e206164647265737360681b6044820152606490fd5b6001600160a01b03811660009081527f99d7401b6c7fae7e32559c2f2939eb2955c262626d0b69e0397921638ab2ab8a602052604090205460ff16611a5f576001600160a01b031660008181527f99d7401b6c7fae7e32559c2f2939eb2955c262626d0b69e0397921638ab2ab8a60205260408120805460ff191660011790553391907f0a30bae60ea06f344bebb63f4eb39612b0328589ecd1132302e75991373fee2d907f2f8788117e7eff1d82e926ec794901d17c78024a50270940304540a733656f0d9080a4600190565b50600090565b600081815260008051602061272a833981519152602090815260408083206001600160a01b038616845290915290205460ff16611b0757600081815260008051602061272a833981519152602090815260408083206001600160a01b0395909516808452949091528120805460ff19166001179055339291907f2f8788117e7eff1d82e926ec794901d17c78024a50270940304540a733656f0d9080a4600190565b5050600090565b6000805160206126ea833981519152546001600160a01b03163303611b2f57565b63118cdaa760e01b6000523360045260246000fd5b600081815260008051602061272a8339815191526020908152604080832033845290915290205460ff1615611b765750565b63e2517d3f60e01b6000523360045260245260446000fd5b600081815260008051602061272a833981519152602090815260408083206001600160a01b038616845290915290205460ff1615611b0757600081815260008051602061272a833981519152602090815260408083206001600160a01b0395909516808452949091528120805460ff19169055339291907ff6391f5c32d9c69d2a47ea670b442974b53935d1edc7fd64eb21e047a839171b9080a4600190565b600260008051602061274a8339815191525414611c5957600260008051602061274a83398151915255565b633ee5aeb560e01b60005260046000fd5b929092602081519101207fe09149d2123147c5f43d258257fef0b7b969db78269369ebcf5ebb9eef8592f28114600014611d0457506040519160208301937fa79feebba5eca838f5afb25f042ef9dbee2e9824463ec262b652584c92f243638552336040850152606084015260018060a01b0316608083015260a0820152611cfe60c082800301601f198101835282611506565b51902090565b7f8d7f87ab38a7f75a63dc465e10aadacecfca64c44ca774040b039bfb004e336714611d3b576318b6b25f60e21b60005260046000fd5b6040519160208301937fa9c090963b849011e9176737d7fc342936631fb97bbf2f507ad751e58480ff518552336040850152606084015260018060a01b0316608083015260a0820152611cfe60c082800301601f198101835282611506565b9290934211611edd5783600052600660205260ff60406000205416611ecc57611e61611e67926042856020611e70975191012060405160208101917f8b73c3c69bb8fe3d512ecc4cf759cc79239f7b179b0ffacaa9a75d522b39400f835260408201527fc89efdaa54c0f20c7adf612882df0950f5a951637e0307cdcb4c672f298b8bc660608201524660808201523060a082015260a08152611e3e60c082611506565b5190206040519061190160f01b825260028201528760228201522092369161155a565b906124d4565b90929192612510565b6001600160a01b03168015611ebb576003546001600160a01b031603611eaa5760005260066020526040600020600160ff19825416179055565b63d1cc738560e01b60005260046000fd5b638bb79cad60e01b60005260046000fd5b63e544c62f60e01b60005260046000fd5b63288a076f60e21b60005260046000fd5b9035601e198236030181121561140857016020813591019167ffffffffffffffff821161140857813603831361140857565b908060209392818452848401376000828201840152601f01601f1916010190565b95929361ffff611fdd95610100979463ffffffff949b9a9b60018060a01b03168a5260208a0152166040880152166060860152608085015261012060a085015260018060a01b03611f9182611423565b16610120850152611fc9611fbe611fab6020840184611eee565b6060610140890152610180880191611f20565b916040810190611eee565b85830361011f190161016087015290611f20565b843560c0840152602085013560e0840152936001600160a01b039061200490604001611423565b16910152565b9395949190929560009285156121df576001600160a01b0385169081156121a357818552600560205260ff6040862054161561215d5760025461205b908890309033906001600160a01b03166123d5565b61207087303360018060a01b038954166123d5565b845460015461208d9189916001600160a01b039081169116612420565b60015485546001600160a01b0391821694911692843b1561055e57926120d08795938a9388966040519e8f9889978897636491d4cd60e11b895260048901611f41565b039134905af1958615610562577fc2d6d3c0892701506bd7f775f2f5f485b7d3bc699b4ee794236a3c84c6738a06949596612147575b506002549154604080519687526001600160a01b039384166020880152908316908601529116606084015261ffff16608083015233918060a081015b0390a2565b91612156816121429394611506565b9190612106565b604051630b0f5aa160e11b815260206004820152601960248201527f64657374696e6174696f6e20646f65736e2774206578697374000000000000006044820152606490fd5b604051630b0f5aa160e11b815260206004820152601360248201527264657374696e6174696f6e206973207a65726f60681b6044820152606490fd5b63162908e360e11b8452600484fd5b93959495929092600096851561232a576001600160a01b03851680156121a357808952600560205260ff60408a2054161561215d578854899390612240908990309033906001600160a01b03166123d5565b835460015461225d918a916001600160a01b039081169116612420565b60015484546001600160a01b0391821693911690833b1561056d5787948a9361229d92604051998a9889978897636491d4cd60e11b895260048901611f41565b039134905af180156107ca579561214291817fec00d85a7419eaf32ce126aca75379da78c9f8c7521a12d2b05292035cd2f94896979861231a575b505054600254604080519788526001600160a01b0392831660208901529082169087015292909216606085015261ffff166080840152339290819060a0820190565b61232391611506565b38816122d8565b63162908e360e11b8852600488fd5b60008051602061278a83398151915280546001600160a01b03199081169091556000805160206126ea83398151915280549182166001600160a01b0393841690811790915591167f8be0079c531659141344cd1fd0a4f28419497f9722a3daafe3b4186f6b6457e0600080a3565b60ff60008051602061276a8339815191525460401c16156123c457565b631afcd79f60e31b60005260046000fd5b6040516323b872dd60e01b60208201526001600160a01b03928316602482015292909116604483015260648083019390935291815261241e91612419608483611506565b612598565b565b60206000604051938285019063095ea7b360e01b825260018060a01b031695866024870152604486015260448552612459606486611506565b84519082855af16000513d826124af575b50501561247657505050565b61241961241e936040519063095ea7b360e01b6020830152602482015260006044820152604481526124a9606482611506565b82612598565b9091506124cc57506001600160a01b0381163b15155b388061246a565b6001146124c5565b8151919060418303612505576124fe92506020820151906060604084015193015160001a906125ff565b9192909190565b505060009160029190565b9190916004811015612582578061252657509050565b6000600182036125415763f645eedf60e01b60005260046000fd5b506002810361255f578263fce698f760e01b60005260045260246000fd5b909160036000921461256f575050565b6335e2f38360e21b825260045260249150fd5b634e487b7160e01b600052602160045260246000fd5b906000602091828151910182855af1156125f3576000513d6125ea57506001600160a01b0381163b155b6125c95750565b635274afe760e01b60009081526001600160a01b0391909116600452602490fd5b600114156125c2565b6040513d6000823e3d90fd5b91907f7fffffffffffffffffffffffffffffff5d576e7357a4501ddfe92f46681b20a0841161267c579160209360809260ff60009560405194855216868401526040830152606082015282805260015afa156125f3576000516001600160a01b038116156126705790600090600090565b50600090600190600090565b50505060009160039190565b906126ae575080511561269d57602081519101fd5b63d6bda27560e01b60005260046000fd5b815115806126e0575b6126bf575090565b639996b31560e01b60009081526001600160a01b0391909116600452602490fd5b50803b156126b756fe9016d09d72d40fdae2fd8ceac6b6234c7706214fd39c1cd1e609a0528c199300360894a13ba1a3210667c828492db98dca3e2076cc3735a920a3ca505d382bbc02dd7bc7dec4dceedda775e58dd541e08a116c6c53815c0bd028192f7b6268009b779b17422d0df92223018b32b4d1fa46e071723d6817e2486d003becc55f00f0c57e16840df040f15088dc2f81fe391c3923bec73e23a9662efc9c229c6a00237e158222e3e6968b72b9db0d8043aacf074ad9f650f0d1606b4d82ee432c00e97b137254058bd94f28d2f3eb79e2d34074ffb488d042e3bc958e0a57d2fa22a164736f6c634300081c000a",
  "linkReferences": {},
  "deployedLinkReferences": {}
}