{
  "_format": "hh-sol-artifact-1",
  "contractName": "CrossChainManager",
  "sourceName": "contracts/CrossChainManager.sol",
  "abi": [
    {
      "inputs": [],
      "stateMutability": "nonpayable",
      "type": "constructor"
    },
    {
      "inputs": [],
      "name": "AccessControlBadConfirmation",
      "type": "error"
    },
    {
      "inputs": [
        {
          "internalType": "address",
          "name": "account",
          "type": "address"
        },
        {
          "internalType": "bytes32",
          "name": "neededRole",
          "type": "bytes32"
        }
      ],
      "name": "AccessControlUnauthorizedAccount",
      "type": "error"
    },
    {
      "inputs": [
        {
          "internalType": "address",
          "name": "target",
          "type": "address"
        }
      ],
      "name": "AddressEmptyCode",
      "type": "error"
    },
    {
      "inputs": [],
      "name": "AmlSignatureAlreadyUsed",
      "type": "error"
    },
    {
      "inputs": [],
      "name": "AmlSignatureExpired",
      "type": "error"
    },
    {
      "inputs": [],
      "name": "AmountMustBeGreaterThanZero",
      "type": "error"
    },
    {
      "inputs": [],
      "name": "ECDSAInvalidSignature",
      "type": "error"
    },
    {
      "inputs": [
        {
          "internalType": "uint256",
          "name": "length",
          "type": "uint256"
        }
      ],
      "name": "ECDSAInvalidSignatureLength",
      "type": "error"
    },
    {
      "inputs": [
        {
          "internalType": "bytes32",
          "name": "s",
          "type": "bytes32"
        }
      ],
      "name": "ECDSAInvalidSignatureS",
      "type": "error"
    },
    {
      "inputs": [
        {
          "internalType": "address",
          "name": "implementation",
          "type": "address"
        }
      ],
      "name": "ERC1967InvalidImplementation",
      "type": "error"
    },
    {
      "inputs": [],
      "name": "ERC1967NonPayable",
      "type": "error"
    },
    {
      "inputs": [],
      "name": "FailedCall",
      "type": "error"
    },
    {
      "inputs": [],
      "name": "InsufficientBalance",
      "type": "error"
    },
    {
      "inputs": [
        {
          "internalType": "string",
          "name": "",
          "type": "string"
        }
      ],
      "name": "InvalidAddress",
      "type": "error"
    },
    {
      "inputs": [],
      "name": "InvalidAmlSignature",
      "type": "error"
    },
    {
      "inputs": [],
      "name": "InvalidAmlSigner",
      "type": "error"
    },
    {
      "inputs": [],
      "name": "InvalidAmount",
      "type": "error"
    },
    {
      "inputs": [],
      "name": "InvalidFunctionName",
      "type": "error"
    },
    {
      "inputs": [],
      "name": "InvalidInitialization",
      "type": "error"
    },
    {
      "inputs": [],
      "name": "InvalidMintTransactionHash",
      "type": "error"
    },
    {
      "inputs": [],
      "name": "NotInitializing",
      "type": "error"
    },
    {
      "inputs": [
        {
          "internalType": "address",
          "name": "owner",
          "type": "address"
        }
      ],
      "name": "OwnableInvalidOwner",
      "type": "error"
    },
    {
      "inputs": [
        {
          "internalType": "address",
          "name": "account",
          "type": "address"
        }
      ],
      "name": "OwnableUnauthorizedAccount",
      "type": "error"
    },
    {
      "inputs": [],
      "name": "ReentrancyGuardReentrantCall",
      "type": "error"
    },
    {
      "inputs": [
        {
          "internalType": "address",
          "name": "token",
          "type": "address"
        }
      ],
      "name": "SafeERC20FailedOperation",
      "type": "error"
    },
    {
      "inputs": [],
      "name": "UUPSUnauthorizedCallContext",
      "type": "error"
    },
    {
      "inputs": [
        {
          "internalType": "bytes32",
          "name": "slot",
          "type": "bytes32"
        }
      ],
      "name": "UUPSUnsupportedProxiableUUID",
      "type": "error"
    },
    {
      "anonymous": false,
      "inputs": [
        {
          "indexed": true,
          "internalType": "address",
          "name": "crossChainVaultAddress",
          "type": "address"
        }
      ],
      "name": "CrossChainConfigUpdated",
      "type": "event"
    },
    {
      "anonymous": false,
      "inputs": [
        {
          "indexed": true,
          "internalType": "address",
          "name": "depositTokenAddress",
          "type": "address"
        },
        {
          "indexed": false,
          "internalType": "address",
          "name": "withdrawTokenAddress",
          "type": "address"
        },
        {
          "indexed": false,
          "internalType": "address",
          "name": "shareTokenAddress",
          "type": "address"
        },
        {
          "indexed": false,
          "internalType": "address",
          "name": "amlSignerAddress",
          "type": "address"
        },
        {
          "indexed": false,
          "internalType": "address",
          "name": "destinationManagerAddress",
          "type": "address"
        },
        {
          "indexed": false,
          "internalType": "address",
          "name": "burnAdminAddress",
          "type": "address"
        },
        {
          "indexed": false,
          "internalType": "address",
          "name": "crossChainVaultAddress",
          "type": "address"
        }
      ],
      "name": "CrossChainManagerInitialized",
      "type": "event"
    },
    {
      "anonymous": false,
      "inputs": [
        {
          "indexed": true,
          "internalType": "address",
          "name": "user",
          "type": "address"
        },
        {
          "indexed": false,
          "internalType": "uint256",
          "name": "amount",
          "type": "uint256"
        },
        {
          "indexed": false,
          "internalType": "address",
          "name": "depositToken",
          "type": "address"
        },
        {
          "indexed": false,
          "internalType": "address",
          "name": "shareToken",
          "type": "address"
        },
        {
          "indexed": false,
          "internalType": "address",
          "name": "destinationAddress",
          "type": "address"
        },
        {
          "indexed": false,
          "internalType": "uint16",
          "name": "targetChain",
          "type": "uint16"
        }
      ],
      "name": "Deposited",
      "type": "event"
    },
    {
      "anonymous": false,
      "inputs": [
        {
          "indexed": true,
          "internalType": "address",
          "name": "destination",
          "type": "address"
        }
      ],
      "name": "DestinationAddressAdded",
      "type": "event"
    },
    {
      "anonymous": false,
      "inputs": [
        {
          "indexed": true,
          "internalType": "address",
          "name": "destination",
          "type": "address"
        }
      ],
      "name": "DestinationAddressRemoved",
      "type": "event"
    },
    {
      "anonymous": false,
      "inputs": [
        {
          "indexed": true,
          "internalType": "address",
          "name": "destination",
          "type": "address"
        }
      ],
      "name": "DestinationAddressSkipped",
      "type": "event"
    },
    {
      "anonymous": false,
      "inputs": [
        {
          "indexed": false,
          "internalType": "uint64",
          "name": "version",
          "type": "uint64"
        }
      ],
      "name": "Initialized",
      "type": "event"
    },
    {
      "anonymous": false,
      "inputs": [
        {
          "indexed": true,
          "internalType": "address",
          "name": "previousOwner",
          "type": "address"
        },
        {
          "indexed": true,
          "internalType": "address",
          "name": "newOwner",
          "type": "address"
        }
      ],
      "name": "OwnershipTransferStarted",
      "type": "event"
    },
    {
      "anonymous": false,
      "inputs": [
        {
          "indexed": true,
          "internalType": "address",
          "name": "previousOwner",
          "type": "address"
        },
        {
          "indexed": true,
          "internalType": "address",
          "name": "newOwner",
          "type": "address"
        }
      ],
      "name": "OwnershipTransferred",
      "type": "event"
    },
    {
      "anonymous": false,
      "inputs": [
        {
          "indexed": true,
          "internalType": "bytes32",
          "name": "role",
          "type": "bytes32"
        },
        {
          "indexed": true,
          "internalType": "bytes32",
          "name": "previousAdminRole",
          "type": "bytes32"
        },
        {
          "indexed": true,
          "internalType": "bytes32",
          "name": "newAdminRole",
          "type": "bytes32"
        }
      ],
      "name": "RoleAdminChanged",
      "type": "event"
    },
    {
      "anonymous": false,
      "inputs": [
        {
          "indexed": true,
          "internalType": "bytes32",
          "name": "role",
          "type": "bytes32"
        },
        {
          "indexed": true,
          "internalType": "address",
          "name": "account",
          "type": "address"
        },
        {
          "indexed": true,
          "internalType": "address",
          "name": "sender",
          "type": "address"
        }
      ],
      "name": "RoleGranted",
      "type": "event"
    },
    {
      "anonymous": false,
      "inputs": [
        {
          "indexed": true,
          "internalType": "bytes32",
          "name": "role",
          "type": "bytes32"
        },
        {
          "indexed": true,
          "internalType": "address",
          "name": "account",
          "type": "address"
        },
        {
          "indexed": true,
          "internalType": "address",
          "name": "sender",
          "type": "address"
        }
      ],
      "name": "RoleRevoked",
      "type": "event"
    },
    {
      "anonymous": false,
      "inputs": [
        {
          "indexed": false,
          "internalType": "uint256",
          "name": "amount",
          "type": "uint256"
        },
        {
          "indexed": false,
          "internalType": "address",
          "name": "shareToken",
          "type": "address"
        },
        {
          "indexed": false,
          "internalType": "address",
          "name": "burner",
          "type": "address"
        },
        {
          "indexed": true,
          "internalType": "string",
          "name": "mintTransactionHash",
          "type": "string"
        }
      ],
      "name": "TokensBurned",
      "type": "event"
    },
    {
      "anonymous": false,
      "inputs": [
        {
          "indexed": true,
          "internalType": "address",
          "name": "implementation",
          "type": "address"
        }
      ],
      "name": "Upgraded",
      "type": "event"
    },
    {
      "anonymous": false,
      "inputs": [
        {
          "indexed": true,
          "internalType": "address",
          "name": "user",
          "type": "address"
        },
        {
          "indexed": false,
          "internalType": "uint256",
          "name": "amount",
          "type": "uint256"
        },
        {
          "indexed": false,
          "internalType": "address",
          "name": "withdrawToken",
          "type": "address"
        },
        {
          "indexed": false,
          "internalType": "address",
          "name": "shareToken",
          "type": "address"
        },
        {
          "indexed": false,
          "internalType": "address",
          "name": "destinationAddress",
          "type": "address"
        },
        {
          "indexed": false,
          "internalType": "uint16",
          "name": "targetChain",
          "type": "uint16"
        }
      ],
      "name": "Withdrawn",
      "type": "event"
    },
    {
      "inputs": [],
      "name": "BURN_ADMIN_ROLE",
      "outputs": [
        {
          "internalType": "bytes32",
          "name": "",
          "type": "bytes32"
        }
      ],
      "stateMutability": "view",
      "type": "function"
    },
    {
      "inputs": [],
      "name": "BURN_ROLE",
      "outputs": [
        {
          "internalType": "bytes32",
          "name": "",
          "type": "bytes32"
        }
      ],
      "stateMutability": "view",
      "type": "function"
    },
    {
      "inputs": [],
      "name": "DEFAULT_ADMIN_ROLE",
      "outputs": [
        {
          "internalType": "bytes32",
          "name": "",
          "type": "bytes32"
        }
      ],
      "stateMutability": "view",
      "type": "function"
    },
    {
      "inputs": [],
      "name": "DESTINATION_MANAGER_ADMIN_ROLE",
      "outputs": [
        {
          "internalType": "bytes32",
          "name": "",
          "type": "bytes32"
        }
      ],
      "stateMutability": "view",
      "type": "function"
    },
    {
      "inputs": [],
      "name": "DESTINATION_MANAGER_ROLE",
      "outputs": [
        {
          "internalType": "bytes32",
          "name": "",
          "type": "bytes32"
        }
      ],
      "stateMutability": "view",
      "type": "function"
    },
    {
      "inputs": [],
      "name": "UPGRADE_INTERFACE_VERSION",
      "outputs": [
        {
          "internalType": "string",
          "name": "",
          "type": "string"
        }
      ],
      "stateMutability": "view",
      "type": "function"
    },
    {
      "inputs": [],
      "name": "acceptOwnership",
      "outputs": [],
      "stateMutability": "nonpayable",
      "type": "function"
    },
    {
      "inputs": [
        {
          "internalType": "address",
          "name": "_destination",
          "type": "address"
        }
      ],
      "name": "addDestinationAddress",
      "outputs": [],
      "stateMutability": "nonpayable",
      "type": "function"
    },
    {
      "inputs": [],
      "name": "amlSigner",
      "outputs": [
        {
          "internalType": "address",
          "name": "",
          "type": "address"
        }
      ],
      "stateMutability": "view",
      "type": "function"
    },
    {
      "inputs": [
        {
          "internalType": "uint256",
          "name": "amount",
          "type": "uint256"
        },
        {
          "internalType": "string",
          "name": "mintTransactionHash",
          "type": "string"
        }
      ],
      "name": "burn",
      "outputs": [],
      "stateMutability": "nonpayable",
      "type": "function"
    },
    {
      "inputs": [],
      "name": "crossChainVault",
      "outputs": [
        {
          "internalType": "contract CrossChainVault",
          "name": "",
          "type": "address"
        }
      ],
      "stateMutability": "view",
      "type": "function"
    },
    {
      "inputs": [
        {
          "internalType": "uint256",
          "name": "_amount",
          "type": "uint256"
        },
        {
          "internalType": "address",
          "name": "_destinationAddress",
          "type": "address"
        },
        {
          "internalType": "bytes",
          "name": "_amlSignature",
          "type": "bytes"
        },
        {
          "internalType": "uint256",
          "name": "_amlDeadline",
          "type": "uint256"
        },
        {
          "internalType": "uint16",
          "name": "targetChain",
          "type": "uint16"
        },
        {
          "internalType": "uint32",
          "name": "targetDomain",
          "type": "uint32"
        },
        {
          "components": [
            {
              "internalType": "address",
              "name": "refundAddress",
              "type": "address"
            },
            {
              "internalType": "bytes",
              "name": "signedQuote",
              "type": "bytes"
            },
            {
              "internalType": "bytes",
              "name": "instructions",
              "type": "bytes"
            }
          ],
          "internalType": "struct ExecutorArgs",
          "name": "executorArgs",
          "type": "tuple"
        },
        {
          "components": [
            {
              "internalType": "uint256",
              "name": "transferTokenFee",
              "type": "uint256"
            },
            {
              "internalType": "uint256",
              "name": "nativeTokenFee",
              "type": "uint256"
            },
            {
              "internalType": "address",
              "name": "payee",
              "type": "address"
            }
          ],
          "internalType": "struct FeeArgs",
          "name": "feeArgs",
          "type": "tuple"
        }
      ],
      "name": "deposit",
      "outputs": [],
      "stateMutability": "payable",
      "type": "function"
    },
    {
      "inputs": [],
      "name": "depositToken",
      "outputs": [
        {
          "internalType": "contract CustomToken",
          "name": "",
          "type": "address"
        }
      ],
      "stateMutability": "view",
      "type": "function"
    },
    {
      "inputs": [
        {
          "internalType": "uint256",
          "name": "_amount",
          "type": "uint256"
        },
        {
          "internalType": "address",
          "name": "_destinationAddress",
          "type": "address"
        },
        {
          "internalType": "bytes",
          "name": "_amlSignature",
          "type": "bytes"
        },
        {
          "internalType": "uint256",
          "name": "_amlDeadline",
          "type": "uint256"
        },
        {
          "internalType": "uint256",
          "name": "_permitDeadline",
          "type": "uint256"
        },
        {
          "internalType": "uint8",
          "name": "_v",
          "type": "uint8"
        },
        {
          "internalType": "bytes32",
          "name": "_r",
          "type": "bytes32"
        },
        {
          "internalType": "bytes32",
          "name": "_s",
          "type": "bytes32"
        },
        {
          "internalType": "uint16",
          "name": "targetChain",
          "type": "uint16"
        },
        {
          "internalType": "uint32",
          "name": "targetDomain",
          "type": "uint32"
        },
        {
          "components": [
            {
              "internalType": "address",
              "name": "refundAddress",
              "type": "address"
            },
            {
              "internalType": "bytes",
              "name": "signedQuote",
              "type": "bytes"
            },
            {
              "internalType": "bytes",
              "name": "instructions",
              "type": "bytes"
            }
          ],
          "internalType": "struct ExecutorArgs",
          "name": "executorArgs",
          "type": "tuple"
        },
        {
          "components": [
            {
              "internalType": "uint256",
              "name": "transferTokenFee",
              "type": "uint256"
            },
            {
              "internalType": "uint256",
              "name": "nativeTokenFee",
              "type": "uint256"
            },
            {
              "internalType": "address",
              "name": "payee",
              "type": "address"
            }
          ],
          "internalType": "struct FeeArgs",
          "name": "feeArgs",
          "type": "tuple"
        }
      ],
      "name": "depositWithPermit",
      "outputs": [],
      "stateMutability": "payable",
      "type": "function"
    },
    {
      "inputs": [
        {
          "internalType": "uint256",
          "name": "",
          "type": "uint256"
        }
      ],
      "name": "destinationAddresses",
      "outputs": [
        {
          "internalType": "address",
          "name": "",
          "type": "address"
        }
      ],
      "stateMutability": "view",
      "type": "function"
    },
    {
      "inputs": [],
      "name": "getCrossChainContractAddress",
      "outputs": [
        {
          "internalType": "address",
          "name": "",
          "type": "address"
        }
      ],
      "stateMutability": "view",
      "type": "function"
    },
    {
      "inputs": [],
      "name": "getDestinationAddresses",
      "outputs": [
        {
          "internalType": "address[]",
          "name": "",
          "type": "address[]"
        }
      ],
      "stateMutability": "view",
      "type": "function"
    },
    {
      "inputs": [
        {
          "internalType": "bytes32",
          "name": "role",
          "type": "bytes32"
        }
      ],
      "name": "getRoleAdmin",
      "outputs": [
        {
          "internalType": "bytes32",
          "name": "",
          "type": "bytes32"
        }
      ],
      "stateMutability": "view",
      "type": "function"
    },
    {
      "inputs": [
        {
          "internalType": "bytes32",
          "name": "role",
          "type": "bytes32"
        },
        {
          "internalType": "address",
          "name": "account",
          "type": "address"
        }
      ],
      "name": "grantRole",
      "outputs": [],
      "stateMutability": "nonpayable",
      "type": "function"
    },
    {
      "inputs": [
        {
          "internalType": "bytes32",
          "name": "role",
          "type": "bytes32"
        },
        {
          "internalType": "address",
          "name": "account",
          "type": "address"
        }
      ],
      "name": "hasRole",
      "outputs": [
        {
          "internalType": "bool",
          "name": "",
          "type": "bool"
        }
      ],
      "stateMutability": "view",
      "type": "function"
    },
    {
      "inputs": [
        {
          "internalType": "address",
          "name": "_depositTokenAddress",
          "type": "address"
        },
        {
          "internalType": "address",
          "name": "_withdrawTokenAddress",
          "type": "address"
        },
        {
          "internalType": "address",
          "name": "_shareTokenAddress",
          "type": "address"
        },
        {
          "internalType": "address",
          "name": "_amlSignerAddress",
          "type": "address"
        },
        {
          "internalType": "address",
          "name": "_destinationManagerAddress",
          "type": "address"
        },
        {
          "internalType": "address",
          "name": "burnAdminAddress",
          "type": "address"
        },
        {
          "internalType": "address",
          "name": "crossChainVaultAddress",
          "type": "address"
        }
      ],
      "name": "initialize",
      "outputs": [],
      "stateMutability": "nonpayable",
      "type": "function"
    },
    {
      "inputs": [
        {
          "internalType": "address",
          "name": "_destination",
          "type": "address"
        }
      ],
      "name": "isDestination",
      "outputs": [
        {
          "internalType": "bool",
          "name": "",
          "type": "bool"
        }
      ],
      "stateMutability": "view",
      "type": "function"
    },
    {
      "inputs": [],
      "name": "owner",
      "outputs": [
        {
          "internalType": "address",
          "name": "",
          "type": "address"
        }
      ],
      "stateMutability": "view",
      "type": "function"
    },
    {
      "inputs": [],
      "name": "pendingOwner",
      "outputs": [
        {
          "internalType": "address",
          "name": "",
          "type": "address"
        }
      ],
      "stateMutability": "view",
      "type": "function"
    },
    {
      "inputs": [],
      "name": "proxiableUUID",
      "outputs": [
        {
          "internalType": "bytes32",
          "name": "",
          "type": "bytes32"
        }
      ],
      "stateMutability": "view",
      "type": "function"
    },
    {
      "inputs": [
        {
          "internalType": "address",
          "name": "_destination",
          "type": "address"
        }
      ],
      "name": "removeDestinationAddress",
      "outputs": [],
      "stateMutability": "nonpayable",
      "type": "function"
    },
    {
      "inputs": [],
      "name": "renounceOwnership",
      "outputs": [],
      "stateMutability": "nonpayable",
      "type": "function"
    },
    {
      "inputs": [
        {
          "internalType": "bytes32",
          "name": "role",
          "type": "bytes32"
        },
        {
          "internalType": "address",
          "name": "callerConfirmation",
          "type": "address"
        }
      ],
      "name": "renounceRole",
      "outputs": [],
      "stateMutability": "nonpayable",
      "type": "function"
    },
    {
      "inputs": [
        {
          "internalType": "bytes32",
          "name": "role",
          "type": "bytes32"
        },
        {
          "internalType": "address",
          "name": "account",
          "type": "address"
        }
      ],
      "name": "revokeRole",
      "outputs": [],
      "stateMutability": "nonpayable",
      "type": "function"
    },
    {
      "inputs": [],
      "name": "shareToken",
      "outputs": [
        {
          "internalType": "contract ICustomToken",
          "name": "",
          "type": "address"
        }
      ],
      "stateMutability": "view",
      "type": "function"
    },
    {
      "inputs": [
        {
          "internalType": "bytes4",
          "name": "interfaceId",
          "type": "bytes4"
        }
      ],
      "name": "supportsInterface",
      "outputs": [
        {
          "internalType": "bool",
          "name": "",
          "type": "bool"
        }
      ],
      "stateMutability": "view",
      "type": "function"
    },
    {
      "inputs": [
        {
          "internalType": "address",
          "name": "newOwner",
          "type": "address"
        }
      ],
      "name": "transferOwnership",
      "outputs": [],
      "stateMutability": "nonpayable",
      "type": "function"
    },
    {
      "inputs": [
        {
          "internalType": "address",
          "name": "crossChainVaultAddress",
          "type": "address"
        }
      ],
      "name": "updateCrossChainConfig",
      "outputs": [],
      "stateMutability": "nonpayable",
      "type": "function"
    },
    {
      "inputs": [
        {
          "internalType": "address",
          "name": "newImplementation",
          "type": "address"
        },
        {
          "internalType": "bytes",
          "name": "data",
          "type": "bytes"
        }
      ],
      "name": "upgradeToAndCall",
      "outputs": [],
      "stateMutability": "payable",
      "type": "function"
    },
    {
      "inputs": [
        {
          "internalType": "bytes32",
          "name": "",
          "type": "bytes32"
        }
      ],
      "name": "usedSignatures",
      "outputs": [
        {
          "internalType": "bool",
          "name": "",
          "type": "bool"
        }
      ],
      "stateMutability": "view",
      "type": "function"
    },
    {
      "inputs": [
        {
          "internalType": "uint256",
          "name": "_amount",
          "type": "uint256"
        },
        {
          "internalType": "address",
          "name": "_destinationAddress",
          "type": "address"
        },
        {
          "internalType": "bytes",
          "name": "_amlSignature",
          "type": "bytes"
        },
        {
          "internalType": "uint256",
          "name": "_amlDeadline",
          "type": "uint256"
        },
        {
          "internalType": "uint16",
          "name": "targetChain",
          "type": "uint16"
        },
        {
          "internalType": "uint32",
          "name": "targetDomain",
          "type": "uint32"
        },
        {
          "components": [
            {
              "internalType": "address",
              "name": "refundAddress",
              "type": "address"
            },
            {
              "internalType": "bytes",
              "name": "signedQuote",
              "type": "bytes"
            },
            {
              "internalType": "bytes",
              "name": "instructions",
              "type": "bytes"
            }
          ],
          "internalType": "struct ExecutorArgs",
          "name": "executorArgs",
          "type": "tuple"
        },
        {
          "components": [
            {
              "internalType": "uint256",
              "name": "transferTokenFee",
              "type": "uint256"
            },
            {
              "internalType": "uint256",
              "name": "nativeTokenFee",
              "type": "uint256"
            },
            {
              "internalType": "address",
              "name": "payee",
              "type": "address"
            }
          ],
          "internalType": "struct FeeArgs",
          "name": "feeArgs",
          "type": "tuple"
        }
      ],
      "name": "withdraw",
      "outputs": [],
      "stateMutability": "payable",
      "type": "function"
    },
    {
      "inputs": [],
      "name": "withdrawToken",
      "outputs": [
        {
          "internalType": "contract CustomToken",
          "name": "",
          "type": "address"
        }
      ],
      "stateMutability": "view",
      "type": "function"
    },
    {
      "inputs": [
        {
          "internalType": "uint256",
          "name": "_amount",
          "type": "uint256"
        },
        {
          "internalType": "address",
          "name": "_destinationAddress",
          "type": "address"
        },
        {
          "internalType": "bytes",
          "name": "_amlSignature",
          "type": "bytes"
        },
        {
          "internalType": "uint256",
          "name": "_amlDeadline",
          "type": "uint256"
        },
        {
          "internalType": "uint256",
          "name": "_permitDeadline",
          "type": "uint256"
        },
        {
          "internalType": "uint8",
          "name": "_v",
          "type": "uint8"
        },
        {
          "internalType": "bytes32",
          "name": "_r",
          "type": "bytes32"
        },
        {
          "internalType": "bytes32",
          "name": "_s",
          "type": "bytes32"
        },
        {
          "internalType": "uint16",
          "name": "targetChain",
          "type": "uint16"
        },
        {
          "internalType": "uint32",
          "name": "targetDomain",
          "type": "uint32"
        },
        {
          "components": [
            {
              "internalType": "address",
              "name": "refundAddress",
              "type": "address"
            },
            {
              "internalType": "bytes",
              "name": "signedQuote",
              "type": "bytes"
            },
            {
              "internalType": "bytes",
              "name": "instructions",
              "type": "bytes"
            }
          ],
          "internalType": "struct ExecutorArgs",
          "name": "executorArgs",
          "type": "tuple"
        },
        {
          "components": [
            {
              "internalType": "uint256",
              "name": "transferTokenFee",
              "type": "uint256"
            },
            {
              "internalType": "uint256",
              "name": "nativeTokenFee",
              "type": "uint256"
            },
            {
              "internalType": "address",
              "name": "payee",
              "type": "address"
            }
          ],
          "internalType": "struct FeeArgs",
          "name": "feeArgs",
          "type": "tuple"
        }
      ],
      "name": "withdrawWithPermit",
      "outputs": [],
      "stateMutability": "payable",
      "type": "function"
    }
  ],
  "bytecode": "0x60a080604052346100ea57306080527ff0c57e16840df040f15088dc2f81fe391c3923bec73e23a9662efc9c229c6a005460ff8160401c166100d9576002600160401b03196001600160401b03821601610073575b604051612b2490816100f08239608051818181610b6b0152610c110152f35b6001600160401b0319166001600160401b039081177ff0c57e16840df040f15088dc2f81fe391c3923bec73e23a9662efc9c229c6a005581527fc7f505b2f371ae2175ee4913f4499e1f2633a7b5936321eed1cdaeb6115181d290602090a13880610054565b63f92ee8a960e01b60005260046000fd5b600080fdfe608080604052600436101561001357600080fd5b600090813560e01c90816301ffc9a7146115c6575080630ce32eb3146114fe5780632050200914610e32578063248a9ca3146114d757806325f2ba491461149c5780632c7e2d5e146114735780632f2ff15d146114415780633587647614610ea057806336568abe14610e5b5780633d13272b14610e3257806342a586fa14610de55780634f1ef28614610bc057806352d1902d14610b585780636147da5614610b2f5780636193d01814610aeb578063638e5fc914610a475780636adda2b6146109795780636c9fa59e14610950578063715018a6146108cf5780637641e6f3146106d257806379ba5097146106845780638c3935581461065a5780638da5cb5b146106245780638ee65da61461054757806391d14854146104ee578063986b853414610492578063a217fddf14610476578063aaaae34214610448578063ad3cb1cc146103ce578063b3cb199114610393578063b930908f1461036a578063c89039c514610343578063ca628c781461031a578063d547741f146102df578063e30c3978146102a9578063e3f248a41461027c578063f2fde38b146101f45763f978fd61146101c357600080fd5b346101f15760203660031901126101f15760ff60406020926004358152600684522054166040519015158152f35b80fd5b50346101f15760203660031901126101f15761020e611636565b610216612631565b600080516020612ad883398151915280546001600160a01b0319166001600160a01b03928316908117909155600080516020612a18833981519152549091167f38d16b8cac22d99fc7c124b9cd0de2d3fa1faef420bfe791d8c362d765e227008380a380f35b50346101f15760203660031901126101f1576102a6610299611636565b6102a1611bf6565b611afc565b80f35b50346101f157806003193601126101f157600080516020612ad8833981519152546040516001600160a01b039091168152602090f35b50346101f15760403660031901126101f1576103166004356102ff61161b565b9061031161030c826118ab565b611c56565b611eeb565b5080f35b50346101f157806003193601126101f1576001546040516001600160a01b039091168152602090f35b50346101f157806003193601126101f157546040516001600160a01b039091168152602090f35b50346101f157806003193601126101f1576020604051600080516020612af88339815191528152f35b50346101f157806003193601126101f15760206040517f0a30bae60ea06f344bebb63f4eb39612b0328589ecd1132302e75991373fee2d8152f35b50346101f157806003193601126101f15760408051916103ee828461172f565b60058352640352e302e360dc1b6020840152815192839160208352815191826020850152815b838110610431575050828201840152601f01601f19168101030190f35b602082820181015188830188015287955001610414565b50346101f15760203660031901126101f157602061046c610467611636565b611ab1565b6040519015158152f35b50346101f157806003193601126101f157602090604051908152f35b506104d96104d46104a23661168e565b9892956104b498949297959198611f8b565b6104c78387876104c261191a565b611fc7565b6104cf61193f565b6120f7565b6124ed565b6001600080516020612a788339815191525580f35b50346101f15760403660031901126101f157604061050a61161b565b916004358152600080516020612a58833981519152602052209060018060a01b0316600052602052602060ff604060002054166040519015158152f35b508061057a610582610558366117eb565b9d8c9f99929c988c81959d9c939f9699979a610572611f8b565b6104c26118cc565b6104cf6118f2565b84546001600160a01b031690813b156106205760405163d505accf60e01b8152336004820152306024820152604481018d9052606481019190915260ff92909216608483015260a482019390935260c4810191909152908290829060e490829084905af18015610615576105fc575b50506104d995612367565b816106069161172f565b6106115786386105f1565b8680fd5b6040513d84823e3d90fd5b8580fd5b50346101f157806003193601126101f157600080516020612a18833981519152546040516001600160a01b039091168152602090f35b50346101f15760203660031901126101f1576102a6610677611636565b61067f611bf6565b611966565b50346101f157806003193601126101f157600080516020612ad883398151915254336001600160a01b03909116036106bf576102a633612667565b63118cdaa760e01b815233600452602490fd5b50346101f15760403660031901126101f15760043560243567ffffffffffffffff81116108cb57610707903690600401611660565b600080516020612af88339815191528452600080516020612a5883398151915260209081526040808620336000908152925290205491929160ff16156108a6578115610897578015610888576003546040516370a0823160e01b81523060048201526001600160a01b0390911690602081602481855afa90811561087d57869161084b575b50831161083c578085913b1561083857818091602460405180948193630852cd8d60e31b83528960048401525af180156106155761081f575b50507f5b9d46fcafb9d23a7bfeecc55768d5e506ca28c3a3eea2f1a51704fa25bc02fa9160609160018060a01b0360035416948160405192839283378101878152039020936040519182526020820152336040820152a280f35b816108299161172f565b6108345783386107c5565b8380fd5b5080fd5b631e9acf1760e31b8552600485fd5b90506020813d602011610875575b816108666020938361172f565b8101031261062057513861078c565b3d9150610859565b6040513d88823e3d90fd5b63643d3cf760e01b8452600484fd5b635e85ae7360e01b8452600484fd5b63e2517d3f60e01b845233600452600080516020612af8833981519152602452604484fd5b8280fd5b50346101f157806003193601126101f1576108e8612631565b600080516020612ad883398151915280546001600160a01b0319908116909155600080516020612a188339815191528054918216905581906001600160a01b03167f8be0079c531659141344cd1fd0a4f28419497f9722a3daafe3b4186f6b6457e08280a380f35b50346101f157806003193601126101f1576003546040516001600160a01b039091168152602090f35b6109ab826104c7610989366117eb565b9c8c9f94969795988c81959c939e6109a39e9c959e611f8b565b6104c261191a565b89546001600160a01b031691823b15610a435760405163d505accf60e01b8152336004820152306024820152604481018d9052606481019290925260ff93909316608482015260a481019390935260c48301919091528790829060e490829084905af18015610a3857610a24575b506104d995966124ed565b95610a32816104d99861172f565b95610a19565b6040513d89823e3d90fd5b8a80fd5b50346101f15760203660031901126101f157610a61611636565b610a69611bf6565b6001600160a01b03168015610ab157600280546001600160a01b031916821790557f832469fa47154901582d6cf83daeee106a33960814589bd742b85118b4fed0638280a280f35b604051630b0f5aa160e11b815260206004820152601160248201527018dc9bdcdcc818da185a5b881d985d5b1d607a1b6044820152606490fd5b50346101f15760203660031901126101f157600435906005548210156101f1576020610b16836117ba565b905460405160039290921b1c6001600160a01b03168152f35b50346101f157806003193601126101f1576004546040516001600160a01b039091168152602090f35b50346101f157806003193601126101f1577f00000000000000000000000000000000000000000000000000000000000000006001600160a01b03163003610bb1576020604051600080516020612a388339815191528152f35b63703e46dd60e11b8152600490fd5b5060403660031901126101f157610bd5611636565b9060243567ffffffffffffffff8111610838573660238201121561083857610c07903690602481600401359101611783565b6001600160a01b037f000000000000000000000000000000000000000000000000000000000000000016308114908115610dc2575b50610db357610c49612631565b6040516352d1902d60e01b8152926001600160a01b0381169190602085600481865afa80958596610d7b575b50610c8e57634c9c8ce360e01b84526004839052602484fd5b909184600080516020612a388339815191528103610d695750813b15610d5757600080516020612a3883398151915280546001600160a01b031916821790557fbc7cd75a20ee27fd9adebab32041f755214dbc6bffa90cc0225b39da2e5c2d3b8480a28151839015610d3d578083602061031695519101845af43d15610d35573d91610d1983611767565b92610d27604051948561172f565b83523d85602085013e6129b6565b6060916129b6565b50505034610d485780f35b63b398979f60e01b8152600490fd5b634c9c8ce360e01b8452600452602483fd5b632a87526960e21b8552600452602484fd5b9095506020813d602011610dab575b81610d976020938361172f565b81010312610da757519438610c75565b8480fd5b3d9150610d8a565b63703e46dd60e11b8252600482fd5b600080516020612a38833981519152546001600160a01b03161415905038610c3c565b50610def3661168e565b969293989791949095610e00611f8b565b8215610e235798610e1e916104d9999a61057a8387876104c26118cc565b612367565b635e85ae7360e01b8952600489fd5b50346101f157806003193601126101f1576002546040516001600160a01b039091168152602090f35b50346101f15760403660031901126101f157610e7561161b565b336001600160a01b03821603610e915761031690600435611eeb565b63334bd91960e11b8252600482fd5b50346101f15760e03660031901126101f157610eba611636565b610ec261161b565b6044356001600160a01b03811690819003610834576064356001600160a01b03811690819003610da757608435916001600160a01b038316918284036106115760a435926001600160a01b0384169081850361143d5760c4356001600160a01b038116939084900361143957600080516020612a98833981519152549860ff8a60401c16159967ffffffffffffffff811680159081611431575b6001149081611427575b15908161141e575b5061140f5767ffffffffffffffff198116600117600080516020612a98833981519152558a6113e2575b50610fa16126d5565b610fa96126d5565b610fb16126d5565b33156113ce57610fc033612667565b610fc86126d5565b610fd06126d5565b610fd86126d5565b6001600080516020612a78833981519152556001600160a01b0316978815611398576001600160a01b031694851561136157801561132d5781156112fa5782156112be57831561128b578415610ab15761120960c0976112037f1dd51694118dbf8a78d272b5d5c6a404f4354f355d66131c785a7b83a15950d09a7f0a30bae60ea06f344bebb63f4eb39612b0328589ecd1132302e75991373fee2d8f8e6001600160601b0360a01b8254161781558b6001600160601b0360a01b6001541617600155866001600160601b0360a01b6003541617600355876001600160601b0360a01b60045416176004558a6001600160601b0360a01b6002541617600255600080516020612ab88339815191528152600080516020612a588339815191526020527f0a160a5caf036f8340e8ee83de9fc0ad381d65eb292d6dfa44b33f603e10eae06001604083200154600080516020612ab88339815191528352600080516020612a58833981519152602052816001604085200155600080516020612ab88339815191527fbd79b86ffe0ab8e8776151514217cd7cacd52c909f66475c3af44e129f0b00ff8480a4600080516020612af88339815191528152600080516020612a58833981519152602052600080516020612af88339815191527fbd79b86ffe0ab8e8776151514217cd7cacd52c909f66475c3af44e129f0b00ff600160408420015492828152600080516020612a5883398151915260205284600160408320015580a4611ca0565b50611d74565b50604051958652602086015260408501526060840152608083015260a0820152a26112315780f35b68ff000000000000000019600080516020612a988339815191525416600080516020612a98833981519152557fc7f505b2f371ae2175ee4913f4499e1f2633a7b5936321eed1cdaeb6115181d2602060405160018152a180f35b604051630b0f5aa160e11b815260206004820152600a602482015269313ab9371030b236b4b760b11b6044820152606490fd5b604051630b0f5aa160e11b81526020600482015260136024820152723232b9ba34b730ba34b7b71036b0b730b3b2b960691b6044820152606490fd5b604051630b0f5aa160e11b815260206004820152600a60248201526930b6b61039b4b3b732b960b11b6044820152606490fd5b604051630b0f5aa160e11b815260206004820152600b60248201526a39b430b932903a37b5b2b760a91b6044820152606490fd5b604051630b0f5aa160e11b815260206004820152600e60248201526d3bb4ba34323930bb903a37b5b2b760911b6044820152606490fd5b604051630b0f5aa160e11b815260206004820152600d60248201526c3232b837b9b4ba103a37b5b2b760991b6044820152606490fd5b631e4fbdf760e01b8b5260048b905260248bfd5b68ffffffffffffffffff19166801000000000000000117600080516020612a988339815191525538610f98565b63f92ee8a960e01b8c5260048cfd5b90501538610f6e565b303b159150610f66565b8c9150610f5c565b8980fd5b8880fd5b50346101f15760403660031901126101f15761031660043561146161161b565b9061146e61030c826118ab565b611e42565b50346101f157806003193601126101f1576020604051600080516020612ab88339815191528152f35b50346101f157806003193601126101f15760206040517f0a160a5caf036f8340e8ee83de9fc0ad381d65eb292d6dfa44b33f603e10eae08152f35b50346101f15760203660031901126101f15760206114f66004356118ab565b604051908152f35b50346101f157806003193601126101f15760405180602060055491828152018091600585527f036b6384b5eca791c62761152d0c79bb0604c104a5fb6f4eb0703f3154bb3db090855b8181106115a7575050508261155d91038361172f565b604051928392602084019060208552518091526040840192915b818110611585575050500390f35b82516001600160a01b0316845285945060209384019390920191600101611577565b82546001600160a01b0316845260209093019260019283019201611547565b9050346108385760203660031901126108385760043563ffffffff60e01b81168091036108cb5760209250637965db0b60e01b811490811561160a575b5015158152f35b6301ffc9a760e01b14905038611603565b602435906001600160a01b038216820361163157565b600080fd5b600435906001600160a01b038216820361163157565b35906001600160a01b038216820361163157565b9181601f840112156116315782359167ffffffffffffffff8311611631576020838186019501011161163157565b61014060031982011261163157600435916024356001600160a01b0381168103611631579160443567ffffffffffffffff811161163157816116d291600401611660565b929092916064359160843561ffff81168103611631579160a43563ffffffff81168103611631579160c43567ffffffffffffffff81116116315760608184036003190112611631576060906004019260e31901126116315760e490565b90601f8019910116810190811067ffffffffffffffff82111761175157604052565b634e487b7160e01b600052604160045260246000fd5b67ffffffffffffffff811161175157601f01601f191660200190565b92919261178f82611767565b9161179d604051938461172f565b829481845281830111611631578281602093846000960137010152565b6005548110156117d557600560005260206000200190600090565b634e487b7160e01b600052603260045260246000fd5b6101c060031982011261163157600435916024356001600160a01b0381168103611631579160443567ffffffffffffffff8111611631578161182f91600401611660565b92909291606435916084359160a43560ff81168103611631579160c4359160e435916101043561ffff8116810361163157916101243563ffffffff8116810361163157916101443567ffffffffffffffff8111611631576060818403600319011261163157606090600401926101631901126116315761016490565b600052600080516020612a5883398151915260205260016040600020015490565b604051906118db60408361172f565b6008825267576974686472617760c01b6020830152565b6040519061190160408361172f565b600a82526915da5d1a191c985dd85b60b21b6020830152565b6040519061192960408361172f565b600782526611195c1bdcda5d60ca1b6020830152565b6040519061194e60408361172f565b60098252682232b837b9b4ba37b960b91b6020830152565b6000905b6005549182811015611a7e5761197f816117ba565b90546001600160a01b03848116959260031b9190911c1684146119a75750600101915061196a565b600019810192508211611a68576119db6119c36119ff936117ba565b905460039190911b1c6001600160a01b0316916117ba565b81546001600160a01b0393841660039290921b91821b9390911b1916919091179055565b6005548015611a525760001901611a15816117ba565b81549060018060a01b039060031b1b191690556005557febe8af0714f0dd4a7b23bc7163ea1aadcce97af7a8ec25343abdbccdb2ea8a66600080a2565b634e487b7160e01b600052603160045260246000fd5b634e487b7160e01b600052601160045260246000fd5b506001600160a01b031690507f52d051a942d5c9a74e875d9faaa59f6de2ecefa16c6844af092cc73f749baad4600080a2565b6005549060005b828110611ac757505050600090565b611ad0816117ba565b905460039190911b1c6001600160a01b0390811690831614611af457600101611ab8565b505050600190565b6001600160a01b038116908115611bba576005549060005b828110611b67575068010000000000000000821015611751576119db826001611b4094016005556117ba565b7fcef021749a809ea9d2e4eb3f28a169c12227e99b0bca877f3950fb8c2ccfaa62600080a2565b83611b71826117ba565b905460039190911b1c6001600160a01b031614611b9057600101611b14565b5050507f52d051a942d5c9a74e875d9faaa59f6de2ecefa16c6844af092cc73f749baad4600080a2565b604051630b0f5aa160e11b815260206004820152601360248201527264657374696e6174696f6e206164647265737360681b6044820152606490fd5b3360009081527fe0f49631d31e008cd72b9d6c5c7f7b2aea3c32d690788903106296f865135b11602052604090205460ff1615611c2f57565b63e2517d3f60e01b60005233600452600080516020612ab883398151915260245260446000fd5b6000818152600080516020612a588339815191526020908152604080832033845290915290205460ff1615611c885750565b63e2517d3f60e01b6000523360045260245260446000fd5b6001600160a01b03811660009081527f29b8ff238ebd8c7d6f606a8413b26e49d7fdde8308763ac1856181e9dfcb517f602052604090205460ff16611d6e576001600160a01b031660008181527f29b8ff238ebd8c7d6f606a8413b26e49d7fdde8308763ac1856181e9dfcb517f60205260408120805460ff191660011790553391907f0a160a5caf036f8340e8ee83de9fc0ad381d65eb292d6dfa44b33f603e10eae0907f2f8788117e7eff1d82e926ec794901d17c78024a50270940304540a733656f0d9080a4600190565b50600090565b6001600160a01b03811660009081527f99d7401b6c7fae7e32559c2f2939eb2955c262626d0b69e0397921638ab2ab8a602052604090205460ff16611d6e576001600160a01b031660008181527f99d7401b6c7fae7e32559c2f2939eb2955c262626d0b69e0397921638ab2ab8a60205260408120805460ff191660011790553391907f0a30bae60ea06f344bebb63f4eb39612b0328589ecd1132302e75991373fee2d907f2f8788117e7eff1d82e926ec794901d17c78024a50270940304540a733656f0d9080a4600190565b6000818152600080516020612a58833981519152602090815260408083206001600160a01b038616845290915290205460ff16611ee4576000818152600080516020612a58833981519152602090815260408083206001600160a01b0395909516808452949091528120805460ff19166001179055339291907f2f8788117e7eff1d82e926ec794901d17c78024a50270940304540a733656f0d9080a4600190565b5050600090565b6000818152600080516020612a58833981519152602090815260408083206001600160a01b038616845290915290205460ff1615611ee4576000818152600080516020612a58833981519152602090815260408083206001600160a01b0395909516808452949091528120805460ff19169055339291907ff6391f5c32d9c69d2a47ea670b442974b53935d1edc7fd64eb21e047a839171b9080a4600190565b6002600080516020612a788339815191525414611fb6576002600080516020612a7883398151915255565b633ee5aeb560e01b60005260046000fd5b929092602081519101207fe09149d2123147c5f43d258257fef0b7b969db78269369ebcf5ebb9eef8592f2811460001461206157506040519160208301937fa79feebba5eca838f5afb25f042ef9dbee2e9824463ec262b652584c92f243638552336040850152606084015260018060a01b0316608083015260a082015261205b60c082800301601f19810183528261172f565b51902090565b7f8d7f87ab38a7f75a63dc465e10aadacecfca64c44ca774040b039bfb004e336714612098576318b6b25f60e21b60005260046000fd5b6040519160208301937fa9c090963b849011e9176737d7fc342936631fb97bbf2f507ad751e58480ff518552336040850152606084015260018060a01b0316608083015260a082015261205b60c082800301601f19810183528261172f565b929093421161223a5783600052600660205260ff60406000205416612229576121be6121c49260428560206121cd975191012060405160208101917f8b73c3c69bb8fe3d512ecc4cf759cc79239f7b179b0ffacaa9a75d522b39400f835260408201527fc89efdaa54c0f20c7adf612882df0950f5a951637e0307cdcb4c672f298b8bc660608201524660808201523060a082015260a0815261219b60c08261172f565b5190206040519061190160f01b8252600282015287602282015220923691611783565b90612802565b9092919261283e565b6001600160a01b03168015612218576004546001600160a01b0316036122075760005260066020526040600020600160ff19825416179055565b63d1cc738560e01b60005260046000fd5b638bb79cad60e01b60005260046000fd5b63e544c62f60e01b60005260046000fd5b63288a076f60e21b60005260046000fd5b9035601e198236030181121561163157016020813591019167ffffffffffffffff821161163157813603831361163157565b908060209392818452848401376000828201840152601f01601f1916010190565b95929361ffff61233a95610100979463ffffffff949b9a9b60018060a01b03168a5260208a0152166040880152166060860152608085015261012060a085015260018060a01b036122ee8261164c565b1661012085015261232661231b612308602084018461224b565b606061014089015261018088019161227d565b91604081019061224b565b85830361011f19016101608701529061227d565b843560c0840152602085013560e0840152936001600160a01b03906123619060400161164c565b16910152565b93959490929560009185156124de576001600160a01b0385169081156124aa5761239086611ab1565b156124aa576001546123b0908890309033906001600160a01b0316612703565b6001546002546123ce9189916001600160a01b03908116911661274e565b6002546001546001600160a01b0391821694911692843b1561062057926124128695938a9389966040519e8f9889978897636491d4cd60e11b89526004890161229e565b039134905af195861561249d577fc2d6d3c0892701506bd7f775f2f5f485b7d3bc699b4ee794236a3c84c6738a0694959661248d575b5050600154600354604080519687526001600160a01b0392831660208801529082169086015291909116606084015261ffff16608083015233918060a081015b0390a2565b816124979161172f565b38612448565b50604051903d90823e3d90fd5b604051630b0f5aa160e11b815260206004820152600b60248201526a3232b9ba34b730ba34b7b760a91b6044820152606490fd5b63162908e360e11b8352600483fd5b939594959290926000968515612622576001600160a01b03851680156124aa5761251686611ab1565b156124aa578854899390612538908990309033906001600160a01b0316612703565b8354600254612555918a916001600160a01b03908116911661274e565b60025484546001600160a01b0391821693911690833b156106205787948a9361259592604051998a9889978897636491d4cd60e11b89526004890161229e565b039134905af1801561087d579561248891817fec00d85a7419eaf32ce126aca75379da78c9f8c7521a12d2b05292035cd2f948969798612612575b505054600354604080519788526001600160a01b0392831660208901529082169087015292909216606085015261ffff166080840152339290819060a0820190565b61261b9161172f565b38816125d0565b63162908e360e11b8852600488fd5b600080516020612a18833981519152546001600160a01b0316330361265257565b63118cdaa760e01b6000523360045260246000fd5b600080516020612ad883398151915280546001600160a01b0319908116909155600080516020612a1883398151915280549182166001600160a01b0393841690811790915591167f8be0079c531659141344cd1fd0a4f28419497f9722a3daafe3b4186f6b6457e0600080a3565b60ff600080516020612a988339815191525460401c16156126f257565b631afcd79f60e31b60005260046000fd5b6040516323b872dd60e01b60208201526001600160a01b03928316602482015292909116604483015260648083019390935291815261274c9161274760848361172f565b6128c6565b565b60206000604051938285019063095ea7b360e01b825260018060a01b03169586602487015260448601526044855261278760648661172f565b84519082855af16000513d826127dd575b5050156127a457505050565b61274761274c936040519063095ea7b360e01b6020830152602482015260006044820152604481526127d760648261172f565b826128c6565b9091506127fa57506001600160a01b0381163b15155b3880612798565b6001146127f3565b81519190604183036128335761282c92506020820151906060604084015193015160001a9061292d565b9192909190565b505060009160029190565b91909160048110156128b0578061285457509050565b60006001820361286f5763f645eedf60e01b60005260046000fd5b506002810361288d578263fce698f760e01b60005260045260246000fd5b909160036000921461289d575050565b6335e2f38360e21b825260045260249150fd5b634e487b7160e01b600052602160045260246000fd5b906000602091828151910182855af115612921576000513d61291857506001600160a01b0381163b155b6128f75750565b635274afe760e01b60009081526001600160a01b0391909116600452602490fd5b600114156128f0565b6040513d6000823e3d90fd5b91907f7fffffffffffffffffffffffffffffff5d576e7357a4501ddfe92f46681b20a084116129aa579160209360809260ff60009560405194855216868401526040830152606082015282805260015afa15612921576000516001600160a01b0381161561299e5790600090600090565b50600090600190600090565b50505060009160039190565b906129dc57508051156129cb57602081519101fd5b63d6bda27560e01b60005260046000fd5b81511580612a0e575b6129ed575090565b639996b31560e01b60009081526001600160a01b0391909116600452602490fd5b50803b156129e556fe9016d09d72d40fdae2fd8ceac6b6234c7706214fd39c1cd1e609a0528c199300360894a13ba1a3210667c828492db98dca3e2076cc3735a920a3ca505d382bbc02dd7bc7dec4dceedda775e58dd541e08a116c6c53815c0bd028192f7b6268009b779b17422d0df92223018b32b4d1fa46e071723d6817e2486d003becc55f00f0c57e16840df040f15088dc2f81fe391c3923bec73e23a9662efc9c229c6a00224ddcd460adf9de7c6e6271e8a93026e66a0cec23d4223bbe4cdea09e0b7d34237e158222e3e6968b72b9db0d8043aacf074ad9f650f0d1606b4d82ee432c00e97b137254058bd94f28d2f3eb79e2d34074ffb488d042e3bc958e0a57d2fa22a164736f6c634300081c000a",
  "linkReferences": {},
  "deployedLinkReferences": {}
}