{
  "_format": "hh-sol-artifact-1",
  "contractName": "CrossChainManager",
  "sourceName": "contracts/CrossChainManager.sol",
  "abi": [
    {
      "inputs": [],
      "stateMutability": "nonpayable",
      "type": "constructor"
    },
    {
      "inputs": [],
      "name": "AccessControlBadConfirmation",
      "type": "error"
    },
    {
      "inputs": [
        {
          "internalType": "address",
          "name": "account",
          "type": "address"
        },
        {
          "internalType": "bytes32",
          "name": "neededRole",
          "type": "bytes32"
        }
      ],
      "name": "AccessControlUnauthorizedAccount",
      "type": "error"
    },
    {
      "inputs": [
        {
          "internalType": "address",
          "name": "target",
          "type": "address"
        }
      ],
      "name": "AddressEmptyCode",
      "type": "error"
    },
    {
      "inputs": [],
      "name": "AmlSignatureAlreadyUsed",
      "type": "error"
    },
    {
      "inputs": [],
      "name": "AmlSignatureExpired",
      "type": "error"
    },
    {
      "inputs": [],
      "name": "ECDSAInvalidSignature",
      "type": "error"
    },
    {
      "inputs": [
        {
          "internalType": "uint256",
          "name": "length",
          "type": "uint256"
        }
      ],
      "name": "ECDSAInvalidSignatureLength",
      "type": "error"
    },
    {
      "inputs": [
        {
          "internalType": "bytes32",
          "name": "s",
          "type": "bytes32"
        }
      ],
      "name": "ECDSAInvalidSignatureS",
      "type": "error"
    },
    {
      "inputs": [
        {
          "internalType": "address",
          "name": "implementation",
          "type": "address"
        }
      ],
      "name": "ERC1967InvalidImplementation",
      "type": "error"
    },
    {
      "inputs": [],
      "name": "ERC1967NonPayable",
      "type": "error"
    },
    {
      "inputs": [],
      "name": "FailedCall",
      "type": "error"
    },
    {
      "inputs": [
        {
          "internalType": "string",
          "name": "",
          "type": "string"
        }
      ],
      "name": "InvalidAddress",
      "type": "error"
    },
    {
      "inputs": [],
      "name": "InvalidAmlSignature",
      "type": "error"
    },
    {
      "inputs": [],
      "name": "InvalidAmlSigner",
      "type": "error"
    },
    {
      "inputs": [],
      "name": "InvalidAmount",
      "type": "error"
    },
    {
      "inputs": [],
      "name": "InvalidInitialization",
      "type": "error"
    },
    {
      "inputs": [],
      "name": "NotInitializing",
      "type": "error"
    },
    {
      "inputs": [
        {
          "internalType": "address",
          "name": "owner",
          "type": "address"
        }
      ],
      "name": "OwnableInvalidOwner",
      "type": "error"
    },
    {
      "inputs": [
        {
          "internalType": "address",
          "name": "account",
          "type": "address"
        }
      ],
      "name": "OwnableUnauthorizedAccount",
      "type": "error"
    },
    {
      "inputs": [],
      "name": "ReentrancyGuardReentrantCall",
      "type": "error"
    },
    {
      "inputs": [
        {
          "internalType": "address",
          "name": "token",
          "type": "address"
        }
      ],
      "name": "SafeERC20FailedOperation",
      "type": "error"
    },
    {
      "inputs": [],
      "name": "UUPSUnauthorizedCallContext",
      "type": "error"
    },
    {
      "inputs": [
        {
          "internalType": "bytes32",
          "name": "slot",
          "type": "bytes32"
        }
      ],
      "name": "UUPSUnsupportedProxiableUUID",
      "type": "error"
    },
    {
      "anonymous": false,
      "inputs": [
        {
          "indexed": true,
          "internalType": "address",
          "name": "crossChainVaultAddress",
          "type": "address"
        }
      ],
      "name": "CrossChainConfigUpdated",
      "type": "event"
    },
    {
      "anonymous": false,
      "inputs": [
        {
          "indexed": true,
          "internalType": "address",
          "name": "depositTokenAddress",
          "type": "address"
        },
        {
          "indexed": false,
          "internalType": "address",
          "name": "shareTokenAddress",
          "type": "address"
        },
        {
          "indexed": false,
          "internalType": "address",
          "name": "amlSignerAddress",
          "type": "address"
        },
        {
          "indexed": false,
          "internalType": "address",
          "name": "destinationManagerAddress",
          "type": "address"
        },
        {
          "indexed": false,
          "internalType": "address",
          "name": "crossChainVaultAddress",
          "type": "address"
        }
      ],
      "name": "CrossChainManagerInitialized",
      "type": "event"
    },
    {
      "anonymous": false,
      "inputs": [
        {
          "indexed": true,
          "internalType": "address",
          "name": "user",
          "type": "address"
        },
        {
          "indexed": false,
          "internalType": "uint256",
          "name": "amount",
          "type": "uint256"
        },
        {
          "indexed": false,
          "internalType": "address",
          "name": "depositToken",
          "type": "address"
        },
        {
          "indexed": false,
          "internalType": "address",
          "name": "shareToken",
          "type": "address"
        },
        {
          "indexed": false,
          "internalType": "address",
          "name": "destinationAddress",
          "type": "address"
        },
        {
          "indexed": false,
          "internalType": "uint16",
          "name": "targetChain",
          "type": "uint16"
        }
      ],
      "name": "Deposited",
      "type": "event"
    },
    {
      "anonymous": false,
      "inputs": [
        {
          "indexed": true,
          "internalType": "address",
          "name": "destination",
          "type": "address"
        }
      ],
      "name": "DestinationAddressAdded",
      "type": "event"
    },
    {
      "anonymous": false,
      "inputs": [
        {
          "indexed": true,
          "internalType": "address",
          "name": "destination",
          "type": "address"
        }
      ],
      "name": "DestinationAddressRemoved",
      "type": "event"
    },
    {
      "anonymous": false,
      "inputs": [
        {
          "indexed": true,
          "internalType": "address",
          "name": "destination",
          "type": "address"
        }
      ],
      "name": "DestinationAddressSkipped",
      "type": "event"
    },
    {
      "anonymous": false,
      "inputs": [
        {
          "indexed": false,
          "internalType": "uint64",
          "name": "version",
          "type": "uint64"
        }
      ],
      "name": "Initialized",
      "type": "event"
    },
    {
      "anonymous": false,
      "inputs": [
        {
          "indexed": true,
          "internalType": "address",
          "name": "previousOwner",
          "type": "address"
        },
        {
          "indexed": true,
          "internalType": "address",
          "name": "newOwner",
          "type": "address"
        }
      ],
      "name": "OwnershipTransferStarted",
      "type": "event"
    },
    {
      "anonymous": false,
      "inputs": [
        {
          "indexed": true,
          "internalType": "address",
          "name": "previousOwner",
          "type": "address"
        },
        {
          "indexed": true,
          "internalType": "address",
          "name": "newOwner",
          "type": "address"
        }
      ],
      "name": "OwnershipTransferred",
      "type": "event"
    },
    {
      "anonymous": false,
      "inputs": [
        {
          "indexed": true,
          "internalType": "bytes32",
          "name": "role",
          "type": "bytes32"
        },
        {
          "indexed": true,
          "internalType": "bytes32",
          "name": "previousAdminRole",
          "type": "bytes32"
        },
        {
          "indexed": true,
          "internalType": "bytes32",
          "name": "newAdminRole",
          "type": "bytes32"
        }
      ],
      "name": "RoleAdminChanged",
      "type": "event"
    },
    {
      "anonymous": false,
      "inputs": [
        {
          "indexed": true,
          "internalType": "bytes32",
          "name": "role",
          "type": "bytes32"
        },
        {
          "indexed": true,
          "internalType": "address",
          "name": "account",
          "type": "address"
        },
        {
          "indexed": true,
          "internalType": "address",
          "name": "sender",
          "type": "address"
        }
      ],
      "name": "RoleGranted",
      "type": "event"
    },
    {
      "anonymous": false,
      "inputs": [
        {
          "indexed": true,
          "internalType": "bytes32",
          "name": "role",
          "type": "bytes32"
        },
        {
          "indexed": true,
          "internalType": "address",
          "name": "account",
          "type": "address"
        },
        {
          "indexed": true,
          "internalType": "address",
          "name": "sender",
          "type": "address"
        }
      ],
      "name": "RoleRevoked",
      "type": "event"
    },
    {
      "anonymous": false,
      "inputs": [
        {
          "indexed": true,
          "internalType": "address",
          "name": "implementation",
          "type": "address"
        }
      ],
      "name": "Upgraded",
      "type": "event"
    },
    {
      "inputs": [],
      "name": "DEFAULT_ADMIN_ROLE",
      "outputs": [
        {
          "internalType": "bytes32",
          "name": "",
          "type": "bytes32"
        }
      ],
      "stateMutability": "view",
      "type": "function"
    },
    {
      "inputs": [],
      "name": "DESTINATION_MANAGER_ADMIN_ROLE",
      "outputs": [
        {
          "internalType": "bytes32",
          "name": "",
          "type": "bytes32"
        }
      ],
      "stateMutability": "view",
      "type": "function"
    },
    {
      "inputs": [],
      "name": "DESTINATION_MANAGER_ROLE",
      "outputs": [
        {
          "internalType": "bytes32",
          "name": "",
          "type": "bytes32"
        }
      ],
      "stateMutability": "view",
      "type": "function"
    },
    {
      "inputs": [],
      "name": "UPGRADE_INTERFACE_VERSION",
      "outputs": [
        {
          "internalType": "string",
          "name": "",
          "type": "string"
        }
      ],
      "stateMutability": "view",
      "type": "function"
    },
    {
      "inputs": [],
      "name": "acceptOwnership",
      "outputs": [],
      "stateMutability": "nonpayable",
      "type": "function"
    },
    {
      "inputs": [
        {
          "internalType": "address",
          "name": "_destination",
          "type": "address"
        }
      ],
      "name": "addDestinationAddress",
      "outputs": [],
      "stateMutability": "nonpayable",
      "type": "function"
    },
    {
      "inputs": [],
      "name": "amlSigner",
      "outputs": [
        {
          "internalType": "address",
          "name": "",
          "type": "address"
        }
      ],
      "stateMutability": "view",
      "type": "function"
    },
    {
      "inputs": [],
      "name": "crossChainVault",
      "outputs": [
        {
          "internalType": "contract CrossChainVaultV1",
          "name": "",
          "type": "address"
        }
      ],
      "stateMutability": "view",
      "type": "function"
    },
    {
      "inputs": [
        {
          "internalType": "uint256",
          "name": "_amount",
          "type": "uint256"
        },
        {
          "internalType": "address",
          "name": "_destinationAddress",
          "type": "address"
        },
        {
          "internalType": "bytes",
          "name": "_amlSignature",
          "type": "bytes"
        },
        {
          "internalType": "uint256",
          "name": "_amlDeadline",
          "type": "uint256"
        },
        {
          "internalType": "uint16",
          "name": "targetChain",
          "type": "uint16"
        },
        {
          "internalType": "uint32",
          "name": "targetDomain",
          "type": "uint32"
        },
        {
          "components": [
            {
              "internalType": "address",
              "name": "refundAddress",
              "type": "address"
            },
            {
              "internalType": "bytes",
              "name": "signedQuote",
              "type": "bytes"
            },
            {
              "internalType": "bytes",
              "name": "instructions",
              "type": "bytes"
            }
          ],
          "internalType": "struct ExecutorArgs",
          "name": "executorArgs",
          "type": "tuple"
        },
        {
          "components": [
            {
              "internalType": "uint256",
              "name": "transferTokenFee",
              "type": "uint256"
            },
            {
              "internalType": "uint256",
              "name": "nativeTokenFee",
              "type": "uint256"
            },
            {
              "internalType": "address",
              "name": "payee",
              "type": "address"
            }
          ],
          "internalType": "struct FeeArgs",
          "name": "feeArgs",
          "type": "tuple"
        }
      ],
      "name": "deposit",
      "outputs": [],
      "stateMutability": "payable",
      "type": "function"
    },
    {
      "inputs": [],
      "name": "depositToken",
      "outputs": [
        {
          "internalType": "contract CustomToken",
          "name": "",
          "type": "address"
        }
      ],
      "stateMutability": "view",
      "type": "function"
    },
    {
      "inputs": [
        {
          "internalType": "uint256",
          "name": "_amount",
          "type": "uint256"
        },
        {
          "internalType": "address",
          "name": "_destinationAddress",
          "type": "address"
        },
        {
          "internalType": "bytes",
          "name": "_amlSignature",
          "type": "bytes"
        },
        {
          "internalType": "uint256",
          "name": "_amlDeadline",
          "type": "uint256"
        },
        {
          "internalType": "uint256",
          "name": "_permitDeadline",
          "type": "uint256"
        },
        {
          "internalType": "uint8",
          "name": "_v",
          "type": "uint8"
        },
        {
          "internalType": "bytes32",
          "name": "_r",
          "type": "bytes32"
        },
        {
          "internalType": "bytes32",
          "name": "_s",
          "type": "bytes32"
        },
        {
          "internalType": "uint16",
          "name": "targetChain",
          "type": "uint16"
        },
        {
          "internalType": "uint32",
          "name": "targetDomain",
          "type": "uint32"
        },
        {
          "components": [
            {
              "internalType": "address",
              "name": "refundAddress",
              "type": "address"
            },
            {
              "internalType": "bytes",
              "name": "signedQuote",
              "type": "bytes"
            },
            {
              "internalType": "bytes",
              "name": "instructions",
              "type": "bytes"
            }
          ],
          "internalType": "struct ExecutorArgs",
          "name": "executorArgs",
          "type": "tuple"
        },
        {
          "components": [
            {
              "internalType": "uint256",
              "name": "transferTokenFee",
              "type": "uint256"
            },
            {
              "internalType": "uint256",
              "name": "nativeTokenFee",
              "type": "uint256"
            },
            {
              "internalType": "address",
              "name": "payee",
              "type": "address"
            }
          ],
          "internalType": "struct FeeArgs",
          "name": "feeArgs",
          "type": "tuple"
        }
      ],
      "name": "depositWithPermit",
      "outputs": [],
      "stateMutability": "payable",
      "type": "function"
    },
    {
      "inputs": [
        {
          "internalType": "uint256",
          "name": "",
          "type": "uint256"
        }
      ],
      "name": "destinationAddresses",
      "outputs": [
        {
          "internalType": "address",
          "name": "",
          "type": "address"
        }
      ],
      "stateMutability": "view",
      "type": "function"
    },
    {
      "inputs": [],
      "name": "getCrossChainContractAddress",
      "outputs": [
        {
          "internalType": "address",
          "name": "",
          "type": "address"
        }
      ],
      "stateMutability": "view",
      "type": "function"
    },
    {
      "inputs": [],
      "name": "getDestinationAddresses",
      "outputs": [
        {
          "internalType": "address[]",
          "name": "",
          "type": "address[]"
        }
      ],
      "stateMutability": "view",
      "type": "function"
    },
    {
      "inputs": [
        {
          "internalType": "bytes32",
          "name": "role",
          "type": "bytes32"
        }
      ],
      "name": "getRoleAdmin",
      "outputs": [
        {
          "internalType": "bytes32",
          "name": "",
          "type": "bytes32"
        }
      ],
      "stateMutability": "view",
      "type": "function"
    },
    {
      "inputs": [
        {
          "internalType": "bytes32",
          "name": "role",
          "type": "bytes32"
        },
        {
          "internalType": "address",
          "name": "account",
          "type": "address"
        }
      ],
      "name": "grantRole",
      "outputs": [],
      "stateMutability": "nonpayable",
      "type": "function"
    },
    {
      "inputs": [
        {
          "internalType": "bytes32",
          "name": "role",
          "type": "bytes32"
        },
        {
          "internalType": "address",
          "name": "account",
          "type": "address"
        }
      ],
      "name": "hasRole",
      "outputs": [
        {
          "internalType": "bool",
          "name": "",
          "type": "bool"
        }
      ],
      "stateMutability": "view",
      "type": "function"
    },
    {
      "inputs": [
        {
          "internalType": "address",
          "name": "_depositTokenAddress",
          "type": "address"
        },
        {
          "internalType": "address",
          "name": "_shareTokenAddress",
          "type": "address"
        },
        {
          "internalType": "address",
          "name": "_amlSignerAddress",
          "type": "address"
        },
        {
          "internalType": "address",
          "name": "_destinationManagerAddress",
          "type": "address"
        },
        {
          "internalType": "address",
          "name": "crossChainVaultAddress",
          "type": "address"
        }
      ],
      "name": "initialize",
      "outputs": [],
      "stateMutability": "nonpayable",
      "type": "function"
    },
    {
      "inputs": [
        {
          "internalType": "address",
          "name": "_destination",
          "type": "address"
        }
      ],
      "name": "isDestination",
      "outputs": [
        {
          "internalType": "bool",
          "name": "",
          "type": "bool"
        }
      ],
      "stateMutability": "view",
      "type": "function"
    },
    {
      "inputs": [],
      "name": "owner",
      "outputs": [
        {
          "internalType": "address",
          "name": "",
          "type": "address"
        }
      ],
      "stateMutability": "view",
      "type": "function"
    },
    {
      "inputs": [],
      "name": "pendingOwner",
      "outputs": [
        {
          "internalType": "address",
          "name": "",
          "type": "address"
        }
      ],
      "stateMutability": "view",
      "type": "function"
    },
    {
      "inputs": [],
      "name": "proxiableUUID",
      "outputs": [
        {
          "internalType": "bytes32",
          "name": "",
          "type": "bytes32"
        }
      ],
      "stateMutability": "view",
      "type": "function"
    },
    {
      "inputs": [
        {
          "internalType": "address",
          "name": "_destination",
          "type": "address"
        }
      ],
      "name": "removeDestinationAddress",
      "outputs": [],
      "stateMutability": "nonpayable",
      "type": "function"
    },
    {
      "inputs": [],
      "name": "renounceOwnership",
      "outputs": [],
      "stateMutability": "nonpayable",
      "type": "function"
    },
    {
      "inputs": [
        {
          "internalType": "bytes32",
          "name": "role",
          "type": "bytes32"
        },
        {
          "internalType": "address",
          "name": "callerConfirmation",
          "type": "address"
        }
      ],
      "name": "renounceRole",
      "outputs": [],
      "stateMutability": "nonpayable",
      "type": "function"
    },
    {
      "inputs": [
        {
          "internalType": "bytes32",
          "name": "role",
          "type": "bytes32"
        },
        {
          "internalType": "address",
          "name": "account",
          "type": "address"
        }
      ],
      "name": "revokeRole",
      "outputs": [],
      "stateMutability": "nonpayable",
      "type": "function"
    },
    {
      "inputs": [],
      "name": "shareToken",
      "outputs": [
        {
          "internalType": "address",
          "name": "",
          "type": "address"
        }
      ],
      "stateMutability": "view",
      "type": "function"
    },
    {
      "inputs": [
        {
          "internalType": "bytes4",
          "name": "interfaceId",
          "type": "bytes4"
        }
      ],
      "name": "supportsInterface",
      "outputs": [
        {
          "internalType": "bool",
          "name": "",
          "type": "bool"
        }
      ],
      "stateMutability": "view",
      "type": "function"
    },
    {
      "inputs": [
        {
          "internalType": "address",
          "name": "newOwner",
          "type": "address"
        }
      ],
      "name": "transferOwnership",
      "outputs": [],
      "stateMutability": "nonpayable",
      "type": "function"
    },
    {
      "inputs": [
        {
          "internalType": "address",
          "name": "crossChainVaultAddress",
          "type": "address"
        }
      ],
      "name": "updateCrossChainConfig",
      "outputs": [],
      "stateMutability": "nonpayable",
      "type": "function"
    },
    {
      "inputs": [
        {
          "internalType": "address",
          "name": "newImplementation",
          "type": "address"
        },
        {
          "internalType": "bytes",
          "name": "data",
          "type": "bytes"
        }
      ],
      "name": "upgradeToAndCall",
      "outputs": [],
      "stateMutability": "payable",
      "type": "function"
    },
    {
      "inputs": [
        {
          "internalType": "bytes32",
          "name": "",
          "type": "bytes32"
        }
      ],
      "name": "usedSignatures",
      "outputs": [
        {
          "internalType": "bool",
          "name": "",
          "type": "bool"
        }
      ],
      "stateMutability": "view",
      "type": "function"
    }
  ],
  "bytecode": "0x60a080604052346100ea57306080527ff0c57e16840df040f15088dc2f81fe391c3923bec73e23a9662efc9c229c6a005460ff8160401c166100d9576002600160401b03196001600160401b03821601610073575b60405161238290816100f08239608051818181610e080152610eae0152f35b6001600160401b0319166001600160401b039081177ff0c57e16840df040f15088dc2f81fe391c3923bec73e23a9662efc9c229c6a005581527fc7f505b2f371ae2175ee4913f4499e1f2633a7b5936321eed1cdaeb6115181d290602090a13880610054565b63f92ee8a960e01b60005260046000fd5b600080fdfe608080604052600436101561001357600080fd5b600090813560e01c90816301ffc9a714611694575080630ce32eb3146115cc5780631459457a146111a9578063205020091461107e578063248a9ca31461118257806325f2ba49146111475780632c7e2d5e1461111e5780632f2ff15d146110ec57806336568abe146110a75780633d13272b1461107e5780634f1ef28614610e5d57806352d1902d14610df55780636147da5614610dcc5780636193d01814610d88578063638e5fc914610ce45780636adda2b6146109625780636c9fa59e14610939578063715018a6146108b857806379ba50971461086a5780638c393558146108405780638da5cb5b1461080a57806391d14854146107b1578063986b8534146103c3578063a217fddf146103a7578063aaaae34214610379578063ad3cb1cc146102ff578063c89039c5146102d8578063d547741f1461029d578063e30c397814610267578063e3f248a41461023a578063f2fde38b146101b25763f978fd611461018157600080fd5b346101af5760203660031901126101af5760ff60406020926004358152600584522054166040519015158152f35b80fd5b50346101af5760203660031901126101af576101cc6116e9565b6101d4611fae565b60008051602061235683398151915280546001600160a01b0319166001600160a01b03928316908117909155600080516020612296833981519152549091167f38d16b8cac22d99fc7c124b9cd0de2d3fa1faef420bfe791d8c362d765e227008380a380f35b50346101af5760203660031901126101af576102646102576116e9565b61025f611c46565b6119cf565b80f35b50346101af57806003193601126101af57600080516020612356833981519152546040516001600160a01b039091168152602090f35b50346101af5760403660031901126101af576102d46004356102bd611704565b906102cf6102ca82611818565b611ca6565b611cf0565b5080f35b50346101af57806003193601126101af57546040516001600160a01b039091168152602090f35b50346101af57806003193601126101af57604080519161031f828461172e565b60058352640352e302e360dc1b6020840152815192839160208352815191826020850152815b838110610362575050828201840152601f01601f19168101030190f35b602082820181015188830188015287955001610345565b50346101af5760203660031901126101af57602061039d6103986116e9565b611984565b6040519015158152f35b50346101af57806003193601126101af57602090604051908152f35b506101403660031901126101af576004356103dc611704565b60443567ffffffffffffffff81116106dc576103fc9036906004016117ea565b91906064356084359361ffff85168095036107ad5760a4359163ffffffff83168093036107a95760c4359167ffffffffffffffff83116107a5578260040194606060031985360301126107a15760603660e31901126107a15760026000805160206122f683398151915254146107925790610494929160026000805160206122f68339815191525561048f83898c611d90565b611def565b8515610783576001600160a01b03841693841561074f576104b490611984565b1561074f5786546040516323b872dd60e01b60208201523360248201523060448201526064808201899052815288949161050291906001600160a01b03166104fd60848361172e565b612144565b60018060a01b0384541660018060a01b0360015416906040519060208781840163095ea7b360e01b81528560248601528c60448601526044855261054760648661172e565b84519082855af187513d82610733575b5050156106f3575b505060015485546001600160a01b03908116959116939150833b156106ef57604051636491d4cd60e11b81526004810195909552602485018990526044850188905260648501526084840186905261012060a485015261061691610602906001600160a01b036105ce8261171a565b1661012487015260446105fa6105e76024860184611f5b565b60606101448b01526101848a0191611f8d565b930190611f5b565b858303610123190161016487015290611f8d565b60e4803560c4850152610104359084015290610124356001600160a01b03811691908290036106eb57838086948194610104830152039134905af180156106e0576106c7575b50508354600254604080519586526001600160a01b0392831660208701529116908401526060830152608082015233907fec00d85a7419eaf32ce126aca75379da78c9f8c7521a12d2b05292035cd2f9489060a090a260016000805160206122f68339815191525580f35b816106d19161172e565b6106dc57833861065c565b8380fd5b6040513d84823e3d90fd5b8480fd5b8580fd5b6104fd61072b936040519063095ea7b360e01b602083015260248201528860448201526044815261072560648261172e565b82612144565b38808061055f565b9091506107475750803b15155b3880610557565b600114610740565b604051630b0f5aa160e11b815260206004820152600b60248201526a3232b9ba34b730ba34b7b760a91b6044820152606490fd5b63162908e360e11b8752600487fd5b633ee5aeb560e01b8a5260048afd5b8980fd5b8880fd5b8780fd5b8680fd5b50346101af5760403660031901126101af5760406107cd611704565b9160043581526000805160206122d6833981519152602052209060018060a01b0316600052602052602060ff604060002054166040519015158152f35b50346101af57806003193601126101af57600080516020612296833981519152546040516001600160a01b039091168152602090f35b50346101af5760203660031901126101af5761026461085d6116e9565b610865611c46565b611839565b50346101af57806003193601126101af5760008051602061235683398151915254336001600160a01b03909116036108a55761026433611fe4565b63118cdaa760e01b815233600452602490fd5b50346101af57806003193601126101af576108d1611fae565b60008051602061235683398151915280546001600160a01b03199081169091556000805160206122968339815191528054918216905581906001600160a01b03167f8be0079c531659141344cd1fd0a4f28419497f9722a3daafe3b4186f6b6457e08280a380f35b50346101af57806003193601126101af576002546040516001600160a01b039091168152602090f35b506101c03660031901126101af5760043561097b611704565b60443567ffffffffffffffff81116106dc5761099b9036906004016117ea565b6064929192359260a4359360ff85168095036107ad5786610104359561ffff8716809703610ce057610124359363ffffffff8516809503610cdc57610144359367ffffffffffffffff85116106dc578460040196606060031987360301126106eb576060366101631901126106eb57610a199261048f838b8e611d90565b81546001600160a01b0316803b15610cdc5760e48392604051948593849263d505accf60e01b84523360048501523060248501528d60448501526084356064850152608484015260c43560a4840152833560c48401525af18015610cd157610cbd575b508515610783576001600160a01b03841693841561074f57610a9d90611984565b1561074f5786546040516323b872dd60e01b602082015233602482015230604482015260648082018990528152889491610ae691906001600160a01b03166104fd60848361172e565b60018060a01b0384541660018060a01b0360015416906040519060208781840163095ea7b360e01b81528560248601528c604486015260448552610b2b60648661172e565b84519082855af187513d82610ca1575b505015610c67575b505060015485546001600160a01b03908116959116939150833b156106ef57604051636491d4cd60e11b81526004810195909552602485018990526044850188905260648501526084840186905261012060a4850152610bb291610602906001600160a01b036105ce8261171a565b6101643560c48401526101843560e4840152906101a4356001600160a01b03811691908290036106eb57838086948194610104830152039134905af180156106e057610c52575b50508354600254604080519586526001600160a01b0392831660208701529116908401526060830152608082015233907fec00d85a7419eaf32ce126aca75379da78c9f8c7521a12d2b05292035cd2f9489060a090a280f35b81610c5c9161172e565b6106dc578338610bf9565b6104fd610c99936040519063095ea7b360e01b602083015260248201528860448201526044815261072560648261172e565b388080610b43565b909150610cb55750803b15155b3880610b3b565b600114610cae565b87610cca9198929861172e565b9538610a7c565b6040513d8a823e3d90fd5b8280fd5b5080fd5b50346101af5760203660031901126101af57610cfe6116e9565b610d06611c46565b6001600160a01b03168015610d4e57600180546001600160a01b031916821790557f832469fa47154901582d6cf83daeee106a33960814589bd742b85118b4fed0638280a280f35b604051630b0f5aa160e11b815260206004820152601160248201527018dc9bdcdcc818da185a5b881d985d5b1d607a1b6044820152606490fd5b50346101af5760203660031901126101af57600435906004548210156101af576020610db3836117b9565b905460405160039290921b1c6001600160a01b03168152f35b50346101af57806003193601126101af576003546040516001600160a01b039091168152602090f35b50346101af57806003193601126101af577f00000000000000000000000000000000000000000000000000000000000000006001600160a01b03163003610e4e5760206040516000805160206122b68339815191528152f35b63703e46dd60e11b8152600490fd5b5060403660031901126101af57610e726116e9565b9060243567ffffffffffffffff8111610ce05736602382011215610ce057610ea4903690602481600401359101611782565b6001600160a01b037f00000000000000000000000000000000000000000000000000000000000000001630811490811561105b575b5061104c57610ee6611fae565b6040516352d1902d60e01b8152926001600160a01b0381169190602085600481865afa80958596611018575b50610f2b57634c9c8ce360e01b84526004839052602484fd5b9091846000805160206122b683398151915281036110065750813b15610ff4576000805160206122b683398151915280546001600160a01b031916821790557fbc7cd75a20ee27fd9adebab32041f755214dbc6bffa90cc0225b39da2e5c2d3b8480a28151839015610fda57808360206102d495519101845af43d15610fd2573d91610fb683611766565b92610fc4604051948561172e565b83523d85602085013e6121ab565b6060916121ab565b50505034610fe55780f35b63b398979f60e01b8152600490fd5b634c9c8ce360e01b8452600452602483fd5b632a87526960e21b8552600452602484fd5b9095506020813d602011611044575b816110346020938361172e565b810103126106eb57519438610f12565b3d9150611027565b63703e46dd60e11b8252600482fd5b6000805160206122b6833981519152546001600160a01b03161415905038610ed9565b50346101af57806003193601126101af576001546040516001600160a01b039091168152602090f35b50346101af5760403660031901126101af576110c1611704565b336001600160a01b038216036110dd576102d490600435611cf0565b63334bd91960e11b8252600482fd5b50346101af5760403660031901126101af576102d460043561110c611704565b906111196102ca82611818565b611b9d565b50346101af57806003193601126101af5760206040516000805160206123368339815191528152f35b50346101af57806003193601126101af5760206040517f0a160a5caf036f8340e8ee83de9fc0ad381d65eb292d6dfa44b33f603e10eae08152f35b50346101af5760203660031901126101af5760206111a1600435611818565b604051908152f35b50346101af5760a03660031901126101af576111c36116e9565b6111cb611704565b6044356001600160a01b038116908190036106dc576064356001600160a01b0381168082036106ef576084356001600160a01b038116908190036107ad57600080516020612316833981519152549560ff8760401c16159667ffffffffffffffff8116801590816115c4575b60011490816115ba575b1590816115b1575b506115a25767ffffffffffffffff1981166001176000805160206123168339815191525587611575575b5061127c612052565b611284612052565b61128c612052565b33156115615761129b33611fe4565b6112a3612052565b6112ab612052565b6112b3612052565b60016000805160206122f6833981519152556001600160a01b031694851561152b576001600160a01b03169182156114f75784156114c4578015611488578115610d4e577fdaa74d7662c0e57b5ae49bf571c205e36bbd19341d93871664c956ed18d8489694611410608095886001600160601b0360a01b8c5416178b55856001600160601b0360a01b6002541617600255826001600160601b0360a01b6003541617600355846001600160601b0360a01b60015416176001556000805160206123368339815191528b526000805160206122d68339815191526020527f0a160a5caf036f8340e8ee83de9fc0ad381d65eb292d6dfa44b33f603e10eae08b6000805160206123368339815191527fbd79b86ffe0ab8e8776151514217cd7cacd52c909f66475c3af44e129f0b00ff6001604084200154928281526000805160206122d683398151915260205284600160408320015580a4611ac9565b50604051938452602084015260408301526060820152a261142e5780f35b68ff0000000000000000196000805160206123168339815191525416600080516020612316833981519152557fc7f505b2f371ae2175ee4913f4499e1f2633a7b5936321eed1cdaeb6115181d2602060405160018152a180f35b604051630b0f5aa160e11b81526020600482015260136024820152723232b9ba34b730ba34b7b71036b0b730b3b2b960691b6044820152606490fd5b604051630b0f5aa160e11b815260206004820152600a60248201526930b6b61039b4b3b732b960b11b6044820152606490fd5b604051630b0f5aa160e11b815260206004820152600b60248201526a39b430b932903a37b5b2b760a91b6044820152606490fd5b604051630b0f5aa160e11b815260206004820152600d60248201526c3232b837b9b4ba103a37b5b2b760991b6044820152606490fd5b631e4fbdf760e01b88526004889052602488fd5b68ffffffffffffffffff191668010000000000000001176000805160206123168339815191525538611273565b63f92ee8a960e01b8952600489fd5b90501538611249565b303b159150611241565b899150611237565b50346101af57806003193601126101af5760405180602060045491828152018091600485527f8a35acfbc15ff81a39ae7d344fd709f28e8600b4aa8c65c6b64bfe7fe36bd19b90855b818110611675575050508261162b91038361172e565b604051928392602084019060208552518091526040840192915b818110611653575050500390f35b82516001600160a01b0316845285945060209384019390920191600101611645565b82546001600160a01b0316845260209093019260019283019201611615565b905034610ce0576020366003190112610ce05760043563ffffffff60e01b8116809103610cdc5760209250637965db0b60e01b81149081156116d8575b5015158152f35b6301ffc9a760e01b149050386116d1565b600435906001600160a01b03821682036116ff57565b600080fd5b602435906001600160a01b03821682036116ff57565b35906001600160a01b03821682036116ff57565b90601f8019910116810190811067ffffffffffffffff82111761175057604052565b634e487b7160e01b600052604160045260246000fd5b67ffffffffffffffff811161175057601f01601f191660200190565b92919261178e82611766565b9161179c604051938461172e565b8294818452818301116116ff578281602093846000960137010152565b6004548110156117d457600460005260206000200190600090565b634e487b7160e01b600052603260045260246000fd5b9181601f840112156116ff5782359167ffffffffffffffff83116116ff57602083818601950101116116ff57565b6000526000805160206122d683398151915260205260016040600020015490565b6000905b600454918281101561195157611852816117b9565b90546001600160a01b03848116959260031b9190911c16841461187a5750600101915061183d565b60001981019250821161193b576118ae6118966118d2936117b9565b905460039190911b1c6001600160a01b0316916117b9565b81546001600160a01b0393841660039290921b91821b9390911b1916919091179055565b600454801561192557600019016118e8816117b9565b81549060018060a01b039060031b1b191690556004557febe8af0714f0dd4a7b23bc7163ea1aadcce97af7a8ec25343abdbccdb2ea8a66600080a2565b634e487b7160e01b600052603160045260246000fd5b634e487b7160e01b600052601160045260246000fd5b506001600160a01b031690507f52d051a942d5c9a74e875d9faaa59f6de2ecefa16c6844af092cc73f749baad4600080a2565b6004549060005b82811061199a57505050600090565b6119a3816117b9565b905460039190911b1c6001600160a01b03908116908316146119c75760010161198b565b505050600190565b6001600160a01b038116908115611a8d576004549060005b828110611a3a575068010000000000000000821015611750576118ae826001611a1394016004556117b9565b7fcef021749a809ea9d2e4eb3f28a169c12227e99b0bca877f3950fb8c2ccfaa62600080a2565b83611a44826117b9565b905460039190911b1c6001600160a01b031614611a63576001016119e7565b5050507f52d051a942d5c9a74e875d9faaa59f6de2ecefa16c6844af092cc73f749baad4600080a2565b604051630b0f5aa160e11b815260206004820152601360248201527264657374696e6174696f6e206164647265737360681b6044820152606490fd5b6001600160a01b03811660009081527f29b8ff238ebd8c7d6f606a8413b26e49d7fdde8308763ac1856181e9dfcb517f602052604090205460ff16611b97576001600160a01b031660008181527f29b8ff238ebd8c7d6f606a8413b26e49d7fdde8308763ac1856181e9dfcb517f60205260408120805460ff191660011790553391907f0a160a5caf036f8340e8ee83de9fc0ad381d65eb292d6dfa44b33f603e10eae0907f2f8788117e7eff1d82e926ec794901d17c78024a50270940304540a733656f0d9080a4600190565b50600090565b60008181526000805160206122d6833981519152602090815260408083206001600160a01b038616845290915290205460ff16611c3f5760008181526000805160206122d6833981519152602090815260408083206001600160a01b0395909516808452949091528120805460ff19166001179055339291907f2f8788117e7eff1d82e926ec794901d17c78024a50270940304540a733656f0d9080a4600190565b5050600090565b3360009081527fe0f49631d31e008cd72b9d6c5c7f7b2aea3c32d690788903106296f865135b11602052604090205460ff1615611c7f57565b63e2517d3f60e01b6000523360045260008051602061233683398151915260245260446000fd5b60008181526000805160206122d68339815191526020908152604080832033845290915290205460ff1615611cd85750565b63e2517d3f60e01b6000523360045260245260446000fd5b60008181526000805160206122d6833981519152602090815260408083206001600160a01b038616845290915290205460ff1615611c3f5760008181526000805160206122d6833981519152602090815260408083206001600160a01b0395909516808452949091528120805460ff19169055339291907ff6391f5c32d9c69d2a47ea670b442974b53935d1edc7fd64eb21e047a839171b9080a4600190565b916040519160208301937fa79feebba5eca838f5afb25f042ef9dbee2e9824463ec262b652584c92f243638552336040850152606084015260018060a01b0316608083015260a082015260a08152611de960c08261172e565b51902090565b924211611f4a5782600052600560205260ff60406000205416611f3957611edd91611ece611ed492604260405160208101907f8b73c3c69bb8fe3d512ecc4cf759cc79239f7b179b0ffacaa9a75d522b39400f82527fd50fd8c1b5fa5213a5974932fcc33d2992a99225bc9319caf7cf652d0d2b9acf60408201527fc89efdaa54c0f20c7adf612882df0950f5a951637e0307cdcb4c672f298b8bc660608201524660808201523060a082015260a08152611eab60c08261172e565b5190206040519061190160f01b8252600282015287602282015220923691611782565b90612080565b909291926120bc565b6001600160a01b03168015611f28576003546001600160a01b031603611f175760005260056020526040600020600160ff19825416179055565b63d1cc738560e01b60005260046000fd5b638bb79cad60e01b60005260046000fd5b63e544c62f60e01b60005260046000fd5b63288a076f60e21b60005260046000fd5b9035601e19823603018112156116ff57016020813591019167ffffffffffffffff82116116ff5781360383136116ff57565b908060209392818452848401376000828201840152601f01601f1916010190565b600080516020612296833981519152546001600160a01b03163303611fcf57565b63118cdaa760e01b6000523360045260246000fd5b60008051602061235683398151915280546001600160a01b031990811690915560008051602061229683398151915280549182166001600160a01b0393841690811790915591167f8be0079c531659141344cd1fd0a4f28419497f9722a3daafe3b4186f6b6457e0600080a3565b60ff6000805160206123168339815191525460401c161561206f57565b631afcd79f60e31b60005260046000fd5b81519190604183036120b1576120aa92506020820151906060604084015193015160001a9061220c565b9192909190565b505060009160029190565b919091600481101561212e57806120d257509050565b6000600182036120ed5763f645eedf60e01b60005260046000fd5b506002810361210b578263fce698f760e01b60005260045260246000fd5b909160036000921461211b575050565b6335e2f38360e21b825260045260249150fd5b634e487b7160e01b600052602160045260246000fd5b906000602091828151910182855af11561219f576000513d61219657506001600160a01b0381163b155b6121755750565b635274afe760e01b60009081526001600160a01b0391909116600452602490fd5b6001141561216e565b6040513d6000823e3d90fd5b906121d157508051156121c057602081519101fd5b63d6bda27560e01b60005260046000fd5b81511580612203575b6121e2575090565b639996b31560e01b60009081526001600160a01b0391909116600452602490fd5b50803b156121da565b91907f7fffffffffffffffffffffffffffffff5d576e7357a4501ddfe92f46681b20a08411612289579160209360809260ff60009560405194855216868401526040830152606082015282805260015afa1561219f576000516001600160a01b0381161561227d5790600090600090565b50600090600190600090565b5050506000916003919056fe9016d09d72d40fdae2fd8ceac6b6234c7706214fd39c1cd1e609a0528c199300360894a13ba1a3210667c828492db98dca3e2076cc3735a920a3ca505d382bbc02dd7bc7dec4dceedda775e58dd541e08a116c6c53815c0bd028192f7b6268009b779b17422d0df92223018b32b4d1fa46e071723d6817e2486d003becc55f00f0c57e16840df040f15088dc2f81fe391c3923bec73e23a9662efc9c229c6a00224ddcd460adf9de7c6e6271e8a93026e66a0cec23d4223bbe4cdea09e0b7d34237e158222e3e6968b72b9db0d8043aacf074ad9f650f0d1606b4d82ee432c00a164736f6c634300081c000a",
  "linkReferences": {},
  "deployedLinkReferences": {}
}