{
  "_format": "hh-sol-artifact-1",
  "contractName": "CrossChainManager",
  "sourceName": "contracts/CrossChainManager.sol",
  "abi": [
    {
      "inputs": [],
      "stateMutability": "nonpayable",
      "type": "constructor"
    },
    {
      "inputs": [
        {
          "internalType": "address",
          "name": "target",
          "type": "address"
        }
      ],
      "name": "AddressEmptyCode",
      "type": "error"
    },
    {
      "inputs": [],
      "name": "AmlSignatureAlreadyUsed",
      "type": "error"
    },
    {
      "inputs": [],
      "name": "AmlSignatureExpired",
      "type": "error"
    },
    {
      "inputs": [],
      "name": "AmountMustBeGreaterThanZero",
      "type": "error"
    },
    {
      "inputs": [],
      "name": "ECDSAInvalidSignature",
      "type": "error"
    },
    {
      "inputs": [
        {
          "internalType": "uint256",
          "name": "length",
          "type": "uint256"
        }
      ],
      "name": "ECDSAInvalidSignatureLength",
      "type": "error"
    },
    {
      "inputs": [
        {
          "internalType": "bytes32",
          "name": "s",
          "type": "bytes32"
        }
      ],
      "name": "ECDSAInvalidSignatureS",
      "type": "error"
    },
    {
      "inputs": [
        {
          "internalType": "address",
          "name": "implementation",
          "type": "address"
        }
      ],
      "name": "ERC1967InvalidImplementation",
      "type": "error"
    },
    {
      "inputs": [],
      "name": "ERC1967NonPayable",
      "type": "error"
    },
    {
      "inputs": [],
      "name": "FailedCall",
      "type": "error"
    },
    {
      "inputs": [],
      "name": "InsufficientBalance",
      "type": "error"
    },
    {
      "inputs": [
        {
          "internalType": "string",
          "name": "",
          "type": "string"
        }
      ],
      "name": "InvalidAddress",
      "type": "error"
    },
    {
      "inputs": [],
      "name": "InvalidAmlSignature",
      "type": "error"
    },
    {
      "inputs": [],
      "name": "InvalidAmlSigner",
      "type": "error"
    },
    {
      "inputs": [],
      "name": "InvalidAmount",
      "type": "error"
    },
    {
      "inputs": [],
      "name": "InvalidFunctionName",
      "type": "error"
    },
    {
      "inputs": [],
      "name": "InvalidInitialization",
      "type": "error"
    },
    {
      "inputs": [],
      "name": "InvalidMintTransactionHash",
      "type": "error"
    },
    {
      "inputs": [],
      "name": "NotInitializing",
      "type": "error"
    },
    {
      "inputs": [
        {
          "internalType": "address",
          "name": "owner",
          "type": "address"
        }
      ],
      "name": "OwnableInvalidOwner",
      "type": "error"
    },
    {
      "inputs": [
        {
          "internalType": "address",
          "name": "account",
          "type": "address"
        }
      ],
      "name": "OwnableUnauthorizedAccount",
      "type": "error"
    },
    {
      "inputs": [],
      "name": "ReentrancyGuardReentrantCall",
      "type": "error"
    },
    {
      "inputs": [
        {
          "internalType": "address",
          "name": "token",
          "type": "address"
        }
      ],
      "name": "SafeERC20FailedOperation",
      "type": "error"
    },
    {
      "inputs": [],
      "name": "UUPSUnauthorizedCallContext",
      "type": "error"
    },
    {
      "inputs": [
        {
          "internalType": "bytes32",
          "name": "slot",
          "type": "bytes32"
        }
      ],
      "name": "UUPSUnsupportedProxiableUUID",
      "type": "error"
    },
    {
      "anonymous": false,
      "inputs": [
        {
          "indexed": true,
          "internalType": "address",
          "name": "from",
          "type": "address"
        },
        {
          "indexed": true,
          "internalType": "address",
          "name": "to",
          "type": "address"
        }
      ],
      "name": "AmlSignerUpdated",
      "type": "event"
    },
    {
      "anonymous": false,
      "inputs": [
        {
          "indexed": true,
          "internalType": "address",
          "name": "from",
          "type": "address"
        },
        {
          "indexed": true,
          "internalType": "address",
          "name": "to",
          "type": "address"
        }
      ],
      "name": "CrossChainConfigUpdated",
      "type": "event"
    },
    {
      "anonymous": false,
      "inputs": [
        {
          "indexed": true,
          "internalType": "address",
          "name": "tokenAddress",
          "type": "address"
        },
        {
          "indexed": false,
          "internalType": "address",
          "name": "shareTokenAddress",
          "type": "address"
        },
        {
          "indexed": false,
          "internalType": "address",
          "name": "amlSignerAddress",
          "type": "address"
        },
        {
          "indexed": false,
          "internalType": "address",
          "name": "destinationManagerAddress",
          "type": "address"
        },
        {
          "indexed": false,
          "internalType": "address",
          "name": "crossChainVaultAddress",
          "type": "address"
        }
      ],
      "name": "CrossChainManagerInitialized",
      "type": "event"
    },
    {
      "anonymous": false,
      "inputs": [
        {
          "indexed": true,
          "internalType": "address",
          "name": "user",
          "type": "address"
        },
        {
          "indexed": false,
          "internalType": "uint256",
          "name": "amount",
          "type": "uint256"
        },
        {
          "indexed": false,
          "internalType": "address",
          "name": "token",
          "type": "address"
        },
        {
          "indexed": false,
          "internalType": "address",
          "name": "shareToken",
          "type": "address"
        },
        {
          "indexed": false,
          "internalType": "address",
          "name": "destinationAddress",
          "type": "address"
        },
        {
          "indexed": false,
          "internalType": "uint16",
          "name": "targetChain",
          "type": "uint16"
        }
      ],
      "name": "Deposited",
      "type": "event"
    },
    {
      "anonymous": false,
      "inputs": [
        {
          "indexed": true,
          "internalType": "address",
          "name": "destination",
          "type": "address"
        }
      ],
      "name": "DestinationAddressAdded",
      "type": "event"
    },
    {
      "anonymous": false,
      "inputs": [
        {
          "indexed": true,
          "internalType": "address",
          "name": "destination",
          "type": "address"
        }
      ],
      "name": "DestinationAddressRemoved",
      "type": "event"
    },
    {
      "anonymous": false,
      "inputs": [
        {
          "indexed": true,
          "internalType": "address",
          "name": "destination",
          "type": "address"
        }
      ],
      "name": "DestinationAddressSkipped",
      "type": "event"
    },
    {
      "anonymous": false,
      "inputs": [
        {
          "indexed": false,
          "internalType": "uint64",
          "name": "version",
          "type": "uint64"
        }
      ],
      "name": "Initialized",
      "type": "event"
    },
    {
      "anonymous": false,
      "inputs": [
        {
          "indexed": true,
          "internalType": "address",
          "name": "previousOwner",
          "type": "address"
        },
        {
          "indexed": true,
          "internalType": "address",
          "name": "newOwner",
          "type": "address"
        }
      ],
      "name": "OwnershipTransferStarted",
      "type": "event"
    },
    {
      "anonymous": false,
      "inputs": [
        {
          "indexed": true,
          "internalType": "address",
          "name": "previousOwner",
          "type": "address"
        },
        {
          "indexed": true,
          "internalType": "address",
          "name": "newOwner",
          "type": "address"
        }
      ],
      "name": "OwnershipTransferred",
      "type": "event"
    },
    {
      "anonymous": false,
      "inputs": [
        {
          "indexed": false,
          "internalType": "uint256",
          "name": "amount",
          "type": "uint256"
        },
        {
          "indexed": false,
          "internalType": "address",
          "name": "shareToken",
          "type": "address"
        },
        {
          "indexed": false,
          "internalType": "address",
          "name": "burner",
          "type": "address"
        },
        {
          "indexed": true,
          "internalType": "string",
          "name": "mintTransactionHash",
          "type": "string"
        }
      ],
      "name": "TokensBurned",
      "type": "event"
    },
    {
      "anonymous": false,
      "inputs": [
        {
          "indexed": true,
          "internalType": "address",
          "name": "implementation",
          "type": "address"
        }
      ],
      "name": "Upgraded",
      "type": "event"
    },
    {
      "anonymous": false,
      "inputs": [
        {
          "indexed": true,
          "internalType": "address",
          "name": "user",
          "type": "address"
        },
        {
          "indexed": false,
          "internalType": "uint256",
          "name": "amount",
          "type": "uint256"
        },
        {
          "indexed": false,
          "internalType": "address",
          "name": "token",
          "type": "address"
        },
        {
          "indexed": false,
          "internalType": "address",
          "name": "shareToken",
          "type": "address"
        },
        {
          "indexed": false,
          "internalType": "address",
          "name": "destinationAddress",
          "type": "address"
        },
        {
          "indexed": false,
          "internalType": "uint16",
          "name": "targetChain",
          "type": "uint16"
        }
      ],
      "name": "Withdrawn",
      "type": "event"
    },
    {
      "inputs": [],
      "name": "UPGRADE_INTERFACE_VERSION",
      "outputs": [
        {
          "internalType": "string",
          "name": "",
          "type": "string"
        }
      ],
      "stateMutability": "view",
      "type": "function"
    },
    {
      "inputs": [],
      "name": "acceptOwnership",
      "outputs": [],
      "stateMutability": "nonpayable",
      "type": "function"
    },
    {
      "inputs": [
        {
          "internalType": "address",
          "name": "_destination",
          "type": "address"
        }
      ],
      "name": "addDestinationAddress",
      "outputs": [],
      "stateMutability": "nonpayable",
      "type": "function"
    },
    {
      "inputs": [],
      "name": "amlSigner",
      "outputs": [
        {
          "internalType": "address",
          "name": "",
          "type": "address"
        }
      ],
      "stateMutability": "view",
      "type": "function"
    },
    {
      "inputs": [
        {
          "internalType": "uint256",
          "name": "amount",
          "type": "uint256"
        },
        {
          "internalType": "string",
          "name": "mintTransactionHash",
          "type": "string"
        }
      ],
      "name": "burn",
      "outputs": [],
      "stateMutability": "nonpayable",
      "type": "function"
    },
    {
      "inputs": [],
      "name": "crossChainVault",
      "outputs": [
        {
          "internalType": "contract CrossChainVault",
          "name": "",
          "type": "address"
        }
      ],
      "stateMutability": "view",
      "type": "function"
    },
    {
      "inputs": [
        {
          "internalType": "uint256",
          "name": "_amount",
          "type": "uint256"
        },
        {
          "internalType": "address",
          "name": "_destinationAddress",
          "type": "address"
        },
        {
          "internalType": "bytes",
          "name": "_amlSignature",
          "type": "bytes"
        },
        {
          "internalType": "uint256",
          "name": "_amlDeadline",
          "type": "uint256"
        },
        {
          "internalType": "uint16",
          "name": "targetChain",
          "type": "uint16"
        },
        {
          "internalType": "uint32",
          "name": "targetDomain",
          "type": "uint32"
        },
        {
          "components": [
            {
              "internalType": "address",
              "name": "refundAddress",
              "type": "address"
            },
            {
              "internalType": "bytes",
              "name": "signedQuote",
              "type": "bytes"
            },
            {
              "internalType": "bytes",
              "name": "instructions",
              "type": "bytes"
            }
          ],
          "internalType": "struct ExecutorArgs",
          "name": "executorArgs",
          "type": "tuple"
        },
        {
          "components": [
            {
              "internalType": "uint256",
              "name": "transferTokenFee",
              "type": "uint256"
            },
            {
              "internalType": "uint256",
              "name": "nativeTokenFee",
              "type": "uint256"
            },
            {
              "internalType": "address",
              "name": "payee",
              "type": "address"
            }
          ],
          "internalType": "struct FeeArgs",
          "name": "feeArgs",
          "type": "tuple"
        }
      ],
      "name": "deposit",
      "outputs": [],
      "stateMutability": "payable",
      "type": "function"
    },
    {
      "inputs": [
        {
          "internalType": "uint256",
          "name": "_amount",
          "type": "uint256"
        },
        {
          "internalType": "address",
          "name": "_destinationAddress",
          "type": "address"
        },
        {
          "internalType": "bytes",
          "name": "_amlSignature",
          "type": "bytes"
        },
        {
          "internalType": "uint256",
          "name": "_amlDeadline",
          "type": "uint256"
        },
        {
          "internalType": "uint256",
          "name": "_permitDeadline",
          "type": "uint256"
        },
        {
          "internalType": "uint8",
          "name": "_v",
          "type": "uint8"
        },
        {
          "internalType": "bytes32",
          "name": "_r",
          "type": "bytes32"
        },
        {
          "internalType": "bytes32",
          "name": "_s",
          "type": "bytes32"
        },
        {
          "internalType": "uint16",
          "name": "targetChain",
          "type": "uint16"
        },
        {
          "internalType": "uint32",
          "name": "targetDomain",
          "type": "uint32"
        },
        {
          "components": [
            {
              "internalType": "address",
              "name": "refundAddress",
              "type": "address"
            },
            {
              "internalType": "bytes",
              "name": "signedQuote",
              "type": "bytes"
            },
            {
              "internalType": "bytes",
              "name": "instructions",
              "type": "bytes"
            }
          ],
          "internalType": "struct ExecutorArgs",
          "name": "executorArgs",
          "type": "tuple"
        },
        {
          "components": [
            {
              "internalType": "uint256",
              "name": "transferTokenFee",
              "type": "uint256"
            },
            {
              "internalType": "uint256",
              "name": "nativeTokenFee",
              "type": "uint256"
            },
            {
              "internalType": "address",
              "name": "payee",
              "type": "address"
            }
          ],
          "internalType": "struct FeeArgs",
          "name": "feeArgs",
          "type": "tuple"
        }
      ],
      "name": "depositWithPermit",
      "outputs": [],
      "stateMutability": "payable",
      "type": "function"
    },
    {
      "inputs": [
        {
          "internalType": "uint256",
          "name": "",
          "type": "uint256"
        }
      ],
      "name": "destinationAddresses",
      "outputs": [
        {
          "internalType": "address",
          "name": "",
          "type": "address"
        }
      ],
      "stateMutability": "view",
      "type": "function"
    },
    {
      "inputs": [],
      "name": "getDestinationAddresses",
      "outputs": [
        {
          "internalType": "address[]",
          "name": "",
          "type": "address[]"
        }
      ],
      "stateMutability": "view",
      "type": "function"
    },
    {
      "inputs": [
        {
          "internalType": "address",
          "name": "_tokenAddress",
          "type": "address"
        },
        {
          "internalType": "address",
          "name": "_shareTokenAddress",
          "type": "address"
        },
        {
          "internalType": "address",
          "name": "_amlSignerAddress",
          "type": "address"
        },
        {
          "internalType": "address",
          "name": "_destinationManagerAddress",
          "type": "address"
        },
        {
          "internalType": "address",
          "name": "crossChainVaultAddress",
          "type": "address"
        }
      ],
      "name": "initialize",
      "outputs": [],
      "stateMutability": "nonpayable",
      "type": "function"
    },
    {
      "inputs": [
        {
          "internalType": "address",
          "name": "",
          "type": "address"
        }
      ],
      "name": "isDestination",
      "outputs": [
        {
          "internalType": "bool",
          "name": "",
          "type": "bool"
        }
      ],
      "stateMutability": "view",
      "type": "function"
    },
    {
      "inputs": [],
      "name": "owner",
      "outputs": [
        {
          "internalType": "address",
          "name": "",
          "type": "address"
        }
      ],
      "stateMutability": "view",
      "type": "function"
    },
    {
      "inputs": [],
      "name": "pendingOwner",
      "outputs": [
        {
          "internalType": "address",
          "name": "",
          "type": "address"
        }
      ],
      "stateMutability": "view",
      "type": "function"
    },
    {
      "inputs": [],
      "name": "proxiableUUID",
      "outputs": [
        {
          "internalType": "bytes32",
          "name": "",
          "type": "bytes32"
        }
      ],
      "stateMutability": "view",
      "type": "function"
    },
    {
      "inputs": [
        {
          "internalType": "address",
          "name": "_destination",
          "type": "address"
        }
      ],
      "name": "removeDestinationAddress",
      "outputs": [],
      "stateMutability": "nonpayable",
      "type": "function"
    },
    {
      "inputs": [],
      "name": "renounceOwnership",
      "outputs": [],
      "stateMutability": "nonpayable",
      "type": "function"
    },
    {
      "inputs": [],
      "name": "shareToken",
      "outputs": [
        {
          "internalType": "contract ICustomToken",
          "name": "",
          "type": "address"
        }
      ],
      "stateMutability": "view",
      "type": "function"
    },
    {
      "inputs": [],
      "name": "token",
      "outputs": [
        {
          "internalType": "contract CustomToken",
          "name": "",
          "type": "address"
        }
      ],
      "stateMutability": "view",
      "type": "function"
    },
    {
      "inputs": [
        {
          "internalType": "address",
          "name": "newOwner",
          "type": "address"
        }
      ],
      "name": "transferOwnership",
      "outputs": [],
      "stateMutability": "nonpayable",
      "type": "function"
    },
    {
      "inputs": [
        {
          "internalType": "address",
          "name": "amlSignerAddress",
          "type": "address"
        }
      ],
      "name": "updateAmlSigner",
      "outputs": [],
      "stateMutability": "nonpayable",
      "type": "function"
    },
    {
      "inputs": [
        {
          "internalType": "address",
          "name": "crossChainVaultAddress",
          "type": "address"
        }
      ],
      "name": "updateCrossChainConfig",
      "outputs": [],
      "stateMutability": "nonpayable",
      "type": "function"
    },
    {
      "inputs": [
        {
          "internalType": "address",
          "name": "newImplementation",
          "type": "address"
        },
        {
          "internalType": "bytes",
          "name": "data",
          "type": "bytes"
        }
      ],
      "name": "upgradeToAndCall",
      "outputs": [],
      "stateMutability": "payable",
      "type": "function"
    },
    {
      "inputs": [
        {
          "internalType": "bytes32",
          "name": "",
          "type": "bytes32"
        }
      ],
      "name": "usedSignatures",
      "outputs": [
        {
          "internalType": "bool",
          "name": "",
          "type": "bool"
        }
      ],
      "stateMutability": "view",
      "type": "function"
    },
    {
      "inputs": [
        {
          "internalType": "uint256",
          "name": "_amount",
          "type": "uint256"
        },
        {
          "internalType": "address",
          "name": "_destinationAddress",
          "type": "address"
        },
        {
          "internalType": "bytes",
          "name": "_amlSignature",
          "type": "bytes"
        },
        {
          "internalType": "uint256",
          "name": "_amlDeadline",
          "type": "uint256"
        },
        {
          "internalType": "uint16",
          "name": "targetChain",
          "type": "uint16"
        },
        {
          "internalType": "uint32",
          "name": "targetDomain",
          "type": "uint32"
        },
        {
          "components": [
            {
              "internalType": "address",
              "name": "refundAddress",
              "type": "address"
            },
            {
              "internalType": "bytes",
              "name": "signedQuote",
              "type": "bytes"
            },
            {
              "internalType": "bytes",
              "name": "instructions",
              "type": "bytes"
            }
          ],
          "internalType": "struct ExecutorArgs",
          "name": "executorArgs",
          "type": "tuple"
        },
        {
          "components": [
            {
              "internalType": "uint256",
              "name": "transferTokenFee",
              "type": "uint256"
            },
            {
              "internalType": "uint256",
              "name": "nativeTokenFee",
              "type": "uint256"
            },
            {
              "internalType": "address",
              "name": "payee",
              "type": "address"
            }
          ],
          "internalType": "struct FeeArgs",
          "name": "feeArgs",
          "type": "tuple"
        }
      ],
      "name": "withdraw",
      "outputs": [],
      "stateMutability": "payable",
      "type": "function"
    },
    {
      "inputs": [
        {
          "internalType": "uint256",
          "name": "_amount",
          "type": "uint256"
        },
        {
          "internalType": "address",
          "name": "_destinationAddress",
          "type": "address"
        },
        {
          "internalType": "bytes",
          "name": "_amlSignature",
          "type": "bytes"
        },
        {
          "internalType": "uint256",
          "name": "_amlDeadline",
          "type": "uint256"
        },
        {
          "internalType": "uint256",
          "name": "_permitDeadline",
          "type": "uint256"
        },
        {
          "internalType": "uint8",
          "name": "_v",
          "type": "uint8"
        },
        {
          "internalType": "bytes32",
          "name": "_r",
          "type": "bytes32"
        },
        {
          "internalType": "bytes32",
          "name": "_s",
          "type": "bytes32"
        },
        {
          "internalType": "uint16",
          "name": "targetChain",
          "type": "uint16"
        },
        {
          "internalType": "uint32",
          "name": "targetDomain",
          "type": "uint32"
        },
        {
          "components": [
            {
              "internalType": "address",
              "name": "refundAddress",
              "type": "address"
            },
            {
              "internalType": "bytes",
              "name": "signedQuote",
              "type": "bytes"
            },
            {
              "internalType": "bytes",
              "name": "instructions",
              "type": "bytes"
            }
          ],
          "internalType": "struct ExecutorArgs",
          "name": "executorArgs",
          "type": "tuple"
        },
        {
          "components": [
            {
              "internalType": "uint256",
              "name": "transferTokenFee",
              "type": "uint256"
            },
            {
              "internalType": "uint256",
              "name": "nativeTokenFee",
              "type": "uint256"
            },
            {
              "internalType": "address",
              "name": "payee",
              "type": "address"
            }
          ],
          "internalType": "struct FeeArgs",
          "name": "feeArgs",
          "type": "tuple"
        }
      ],
      "name": "withdrawWithPermit",
      "outputs": [],
      "stateMutability": "payable",
      "type": "function"
    }
  ],
  "bytecode": "0x60a080604052346100ea57306080527ff0c57e16840df040f15088dc2f81fe391c3923bec73e23a9662efc9c229c6a005460ff8160401c166100d9576002600160401b03196001600160401b03821601610073575b6040516121de90816100f082396080518181816109620152610a080152f35b6001600160401b0319166001600160401b039081177ff0c57e16840df040f15088dc2f81fe391c3923bec73e23a9662efc9c229c6a005581527fc7f505b2f371ae2175ee4913f4499e1f2633a7b5936321eed1cdaeb6115181d290602090a13880610054565b63f92ee8a960e01b60005260046000fd5b600080fdfe608080604052600436101561001357600080fd5b600090813560e01c9081630ce32eb314611045575080631459457a14610cfe5780631a04b8f714610c565780633d13272b14610c2d57806342a586fa14610be05780634f1ef286146109b757806352d1902d1461094f5780636147da56146109265780636193d018146108e2578063638e5fc91461083d5780636adda2b61461076f5780636c9fa59e14610746578063715018a6146106c55780637641e6f31461052257806379ba5097146104d45780638c393558146104aa5780638da5cb5b146104745780638ee65da614610397578063986b85341461033b578063aaaae342146102fc578063ad3cb1cc14610282578063e30c39781461024c578063e3f248a41461021f578063f2fde38b14610197578063f978fd61146101685763fc0c546a1461013f57600080fd5b34610165578060031936011261016557546040516001600160a01b039091168152602090f35b80fd5b50346101655760203660031901126101655760ff60406020926004358152600684522054166040519015158152f35b5034610165576020366003190112610165576101b161110a565b6101b9611672565b6000805160206121b283398151915280546001600160a01b0319166001600160a01b03928316908117909155600080516020612132833981519152549091167f38d16b8cac22d99fc7c124b9cd0de2d3fa1faef420bfe791d8c362d765e227008380a380f35b50346101655760203660031901126101655761024961023c61110a565b610244611672565b61157f565b80f35b50346101655780600319360112610165576000805160206121b2833981519152546040516001600160a01b039091168152602090f35b503461016557806003193601126101655760408051916102a28284611208565b60058352640352e302e360dc1b6020840152815192839160208352815191826020850152815b8381106102e5575050828201840152601f01601f19168101030190f35b6020828201810151888301880152879550016102c8565b50346101655760203660031901126101655760209060ff906040906001600160a01b0361032761110a565b168152600584522054166040519015158152f35b5061038261037d61034b36611167565b98929561035d989492979591986116a8565b61037083878761036b6113d2565b6116e4565b6103786113f7565b611814565b611c56565b60016000805160206121728339815191525580f35b50806103ca6103d26103a8366112c4565b9d8c9f99929c988c81959d9c939f9699979a6103c26116a8565b61036b611384565b6103786113aa565b84546001600160a01b031690813b156104705760405163d505accf60e01b8152336004820152306024820152604481018d9052606481019190915260ff92909216608483015260a482019390935260c4810191909152908290829060e490829084905af180156104655761044c575b505061038295611a84565b8161045691611208565b610461578638610441565b8680fd5b6040513d84823e3d90fd5b8580fd5b5034610165578060031936011261016557600080516020612132833981519152546040516001600160a01b039091168152602090f35b5034610165576020366003190112610165576102496104c761110a565b6104cf611672565b61141e565b50346101655780600319360112610165576000805160206121b283398151915254336001600160a01b039091160361050f5761024933611d81565b63118cdaa760e01b815233600452602490fd5b50346101655760403660031901126101655760043560243567ffffffffffffffff81116106c157610557903690600401611139565b610562929192611672565b81156106b25780156106a3576002546040516370a0823160e01b81523060048201526001600160a01b0390911690602081602481855afa908115610698578691610666575b508311610657578085913b1561065357818091602460405180948193630852cd8d60e31b83528960048401525af180156104655761063a575b50507f5b9d46fcafb9d23a7bfeecc55768d5e506ca28c3a3eea2f1a51704fa25bc02fa9160609160018060a01b0360025416948160405192839283378101878152039020936040519182526020820152336040820152a280f35b8161064491611208565b61064f5783386105e0565b8380fd5b5080fd5b631e9acf1760e31b8552600485fd5b90506020813d602011610690575b8161068160209383611208565b810103126104705751386105a7565b3d9150610674565b6040513d88823e3d90fd5b63643d3cf760e01b8452600484fd5b635e85ae7360e01b8452600484fd5b8280fd5b50346101655780600319360112610165576106de611672565b6000805160206121b283398151915280546001600160a01b03199081169091556000805160206121328339815191528054918216905581906001600160a01b03167f8be0079c531659141344cd1fd0a4f28419497f9722a3daafe3b4186f6b6457e08280a380f35b50346101655780600319360112610165576002546040516001600160a01b039091168152602090f35b6107a18261037061077f366112c4565b9c8c9f94969795988c81959c939e6107999e9c959e6116a8565b61036b6113d2565b89546001600160a01b031691823b156108395760405163d505accf60e01b8152336004820152306024820152604481018d9052606481019290925260ff93909316608482015260a481019390935260c48301919091528790829060e490829084905af1801561082e5761081a575b506103829596611c56565b956108288161038298611208565b9561080f565b6040513d89823e3d90fd5b8a80fd5b50346101655760203660031901126101655761085761110a565b61085f611672565b6001600160a01b031680156108a857600180546001600160a01b03191682179055807f4d5e356daffe6b8e8438edef03597d8456db20f09af07d3d4fed737777302aa98380a380f35b604051630b0f5aa160e11b815260206004820152601160248201527018dc9bdcdcc818da185a5b881d985d5b1d607a1b6044820152606490fd5b5034610165576020366003190112610165576004359060045482101561016557602061090d83611293565b905460405160039290921b1c6001600160a01b03168152f35b50346101655780600319360112610165576003546040516001600160a01b039091168152602090f35b50346101655780600319360112610165577f00000000000000000000000000000000000000000000000000000000000000006001600160a01b031630036109a85760206040516000805160206121528339815191528152f35b63703e46dd60e11b8152600490fd5b506040366003190112610165576109cc61110a565b9060243567ffffffffffffffff81116106535736602382011215610653576109fe90369060248160040135910161125c565b6001600160a01b037f000000000000000000000000000000000000000000000000000000000000000016308114908115610bbd575b50610bae57610a40611672565b6040516352d1902d60e01b8152926001600160a01b0381169190602085600481865afa80958596610b76575b50610a8557634c9c8ce360e01b84526004839052602484fd5b9091846000805160206121528339815191528103610b645750813b15610b525760008051602061215283398151915280546001600160a01b031916821790557fbc7cd75a20ee27fd9adebab32041f755214dbc6bffa90cc0225b39da2e5c2d3b8480a28151839015610b385780836020610b2c95519101845af43d15610b30573d91610b1083611240565b92610b1e6040519485611208565b83523d85602085013e6120d0565b5080f35b6060916120d0565b50505034610b435780f35b63b398979f60e01b8152600490fd5b634c9c8ce360e01b8452600452602483fd5b632a87526960e21b8552600452602484fd5b9095506020813d602011610ba6575b81610b9260209383611208565b81010312610ba257519438610a6c565b8480fd5b3d9150610b85565b63703e46dd60e11b8252600482fd5b600080516020612152833981519152546001600160a01b03161415905038610a33565b50610bea36611167565b969293989791949095610bfb6116a8565b8215610c1e5798610c1991610382999a6103ca83878761036b611384565b611a84565b635e85ae7360e01b8952600489fd5b50346101655780600319360112610165576001546040516001600160a01b039091168152602090f35b503461016557602036600319011261016557610c7061110a565b610c78611672565b6001600160a01b03168015610ccb57600380546001600160a01b0319811683179091556001600160a01b03167f7f7b46c0c664af2835dffe8b8e5c1ddbfcef63f608af5bbf2836a2b29a88fcb08380a380f35b604051630b0f5aa160e11b815260206004820152600a60248201526930b6b61039b4b3b732b960b11b6044820152606490fd5b50346101655760a036600319011261016557610d1861110a565b6024356001600160a01b038116908190036106c1576044356001600160a01b0381169081900361064f576064356001600160a01b0381169190829003610ba2576084356001600160a01b038116939084900361047057600080516020612192833981519152549460ff8660401c16159567ffffffffffffffff81168015908161103d575b6001149081611033575b15908161102a575b5061101b5767ffffffffffffffff1981166001176000805160206121928339815191525586610fee575b50610de1611def565b610de9611def565b610df1611def565b3315610fda57610e0033611d81565b610e08611def565b610e10611def565b6001600080516020612172833981519152556001600160a01b0316938415610fa4578115610f70578215610ccb578315610f345780156108a8577fdaa74d7662c0e57b5ae49bf571c205e36bbd19341d93871664c956ed18d8489693608093866001600160601b0360a01b8a5416178955836001600160601b0360a01b6002541617600255806001600160601b0360a01b6003541617600355826001600160601b0360a01b6001541617600155604051938452602084015260408301526060820152a2610eda5780f35b68ff0000000000000000196000805160206121928339815191525416600080516020612192833981519152557fc7f505b2f371ae2175ee4913f4499e1f2633a7b5936321eed1cdaeb6115181d2602060405160018152a180f35b604051630b0f5aa160e11b81526020600482015260136024820152723232b9ba34b730ba34b7b71036b0b730b3b2b960691b6044820152606490fd5b604051630b0f5aa160e11b815260206004820152600b60248201526a39b430b932903a37b5b2b760a91b6044820152606490fd5b604051630b0f5aa160e11b815260206004820152600d60248201526c3232b837b9b4ba103a37b5b2b760991b6044820152606490fd5b631e4fbdf760e01b87526004879052602487fd5b68ffffffffffffffffff191668010000000000000001176000805160206121928339815191525538610dd8565b63f92ee8a960e01b8852600488fd5b90501538610dae565b303b159150610da6565b889150610d9c565b905034610653578160031936011261065357600454808252602082018091600485527f8a35acfbc15ff81a39ae7d344fd709f28e8600b4aa8c65c6b64bfe7fe36bd19b90855b8181106110eb57505050826110a1910383611208565b604051928392602084019060208552518091526040840192915b8181106110c9575050500390f35b82516001600160a01b03168452859450602093840193909201916001016110bb565b82546001600160a01b031684526020909301926001928301920161108b565b600435906001600160a01b038216820361112057565b600080fd5b35906001600160a01b038216820361112057565b9181601f840112156111205782359167ffffffffffffffff8311611120576020838186019501011161112057565b61014060031982011261112057600435916024356001600160a01b0381168103611120579160443567ffffffffffffffff811161112057816111ab91600401611139565b929092916064359160843561ffff81168103611120579160a43563ffffffff81168103611120579160c43567ffffffffffffffff81116111205760608184036003190112611120576060906004019260e31901126111205760e490565b90601f8019910116810190811067ffffffffffffffff82111761122a57604052565b634e487b7160e01b600052604160045260246000fd5b67ffffffffffffffff811161122a57601f01601f191660200190565b92919261126882611240565b916112766040519384611208565b829481845281830111611120578281602093846000960137010152565b6004548110156112ae57600460005260206000200190600090565b634e487b7160e01b600052603260045260246000fd5b6101c060031982011261112057600435916024356001600160a01b0381168103611120579160443567ffffffffffffffff8111611120578161130891600401611139565b92909291606435916084359160a43560ff81168103611120579160c4359160e435916101043561ffff8116810361112057916101243563ffffffff8116810361112057916101443567ffffffffffffffff8111611120576060818403600319011261112057606090600401926101631901126111205761016490565b60405190611393604083611208565b6008825267576974686472617760c01b6020830152565b604051906113b9604083611208565b600a82526915da5d1a191c985dd85b60b21b6020830152565b604051906113e1604083611208565b600782526611195c1bdcda5d60ca1b6020830152565b60405190611406604083611208565b60098252682232b837b9b4ba37b960b91b6020830152565b6000905b600454918281101561154c5761143781611293565b90546001600160a01b03848116959260031b9190911c16841461145f57506001019150611422565b6000198101925082116115365761149361147b6114b793611293565b905460039190911b1c6001600160a01b031691611293565b81546001600160a01b0393841660039290921b91821b9390911b1916919091179055565b806000526005602052604060002060ff198154169055600454801561152057600019016114e381611293565b81549060018060a01b039060031b1b191690556004557febe8af0714f0dd4a7b23bc7163ea1aadcce97af7a8ec25343abdbccdb2ea8a66600080a2565b634e487b7160e01b600052603160045260246000fd5b634e487b7160e01b600052601160045260246000fd5b506001600160a01b031690507f52d051a942d5c9a74e875d9faaa59f6de2ecefa16c6844af092cc73f749baad4600080a2565b6001600160a01b0381169081156116365781600052600560205260ff6040600020541661160e578160005260056020526040600020600160ff19825416179055600454906801000000000000000082101561122a576114938260016115e79401600455611293565b7fcef021749a809ea9d2e4eb3f28a169c12227e99b0bca877f3950fb8c2ccfaa62600080a2565b507f52d051a942d5c9a74e875d9faaa59f6de2ecefa16c6844af092cc73f749baad4600080a2565b604051630b0f5aa160e11b815260206004820152601360248201527264657374696e6174696f6e206164647265737360681b6044820152606490fd5b600080516020612132833981519152546001600160a01b0316330361169357565b63118cdaa760e01b6000523360045260246000fd5b600260008051602061217283398151915254146116d357600260008051602061217283398151915255565b633ee5aeb560e01b60005260046000fd5b929092602081519101207fe09149d2123147c5f43d258257fef0b7b969db78269369ebcf5ebb9eef8592f2811460001461177e57506040519160208301937fa79feebba5eca838f5afb25f042ef9dbee2e9824463ec262b652584c92f243638552336040850152606084015260018060a01b0316608083015260a082015261177860c082800301601f198101835282611208565b51902090565b7f8d7f87ab38a7f75a63dc465e10aadacecfca64c44ca774040b039bfb004e3367146117b5576318b6b25f60e21b60005260046000fd5b6040519160208301937fa9c090963b849011e9176737d7fc342936631fb97bbf2f507ad751e58480ff518552336040850152606084015260018060a01b0316608083015260a082015261177860c082800301601f198101835282611208565b92909342116119575783600052600660205260ff60406000205416611946576118db6118e19260428560206118ea975191012060405160208101917f8b73c3c69bb8fe3d512ecc4cf759cc79239f7b179b0ffacaa9a75d522b39400f835260408201527fc89efdaa54c0f20c7adf612882df0950f5a951637e0307cdcb4c672f298b8bc660608201524660808201523060a082015260a081526118b860c082611208565b5190206040519061190160f01b825260028201528760228201522092369161125c565b90611f1c565b90929192611f58565b6001600160a01b03168015611935576003546001600160a01b0316036119245760005260066020526040600020600160ff19825416179055565b63d1cc738560e01b60005260046000fd5b638bb79cad60e01b60005260046000fd5b63e544c62f60e01b60005260046000fd5b63288a076f60e21b60005260046000fd5b9035601e198236030181121561112057016020813591019167ffffffffffffffff821161112057813603831361112057565b908060209392818452848401376000828201840152601f01601f1916010190565b95929361ffff611a5795610100979463ffffffff949b9a9b60018060a01b03168a5260208a0152166040880152166060860152608085015261012060a085015260018060a01b03611a0b82611125565b16610120850152611a43611a38611a256020840184611968565b606061014089015261018088019161199a565b916040810190611968565b85830361011f19016101608701529061199a565b843560c0840152602085013560e0840152936001600160a01b0390611a7e90604001611125565b16910152565b939594959290926000968515611c47576001600160a01b0385168015611c0b57808952600560205260ff60408a20541615611bc5578854899390611ad6908990309033906001600160a01b0316611e1d565b8354600154611af3918a916001600160a01b039081169116611e68565b60015484546001600160a01b0391821693911690833b156104705787948a93611b3392604051998a9889978897636491d4cd60e11b8952600489016119bb565b039134905af180156106985795611bb091817fc2d6d3c0892701506bd7f775f2f5f485b7d3bc699b4ee794236a3c84c6738a06969798611bb5575b505054600254604080519788526001600160a01b0392831660208901529082169087015292909216606085015261ffff166080840152339290819060a0820190565b0390a2565b611bbe91611208565b3881611b6e565b604051630b0f5aa160e11b815260206004820152601960248201527f64657374696e6174696f6e20646f65736e2774206578697374000000000000006044820152606490fd5b604051630b0f5aa160e11b815260206004820152601360248201527264657374696e6174696f6e206973207a65726f60681b6044820152606490fd5b63162908e360e11b8852600488fd5b939594959290926000968515611c47576001600160a01b0385168015611c0b57808952600560205260ff60408a20541615611bc5578854899390611ca8908990309033906001600160a01b0316611e1d565b8354600154611cc5918a916001600160a01b039081169116611e68565b60015484546001600160a01b0391821693911690833b156104705787948a93611d0592604051998a9889978897636491d4cd60e11b8952600489016119bb565b039134905af180156106985795611bb091817fec00d85a7419eaf32ce126aca75379da78c9f8c7521a12d2b05292035cd2f948969798611bb557505054600254604080519788526001600160a01b0392831660208901529082169087015292909216606085015261ffff166080840152339290819060a0820190565b6000805160206121b283398151915280546001600160a01b031990811690915560008051602061213283398151915280549182166001600160a01b0393841690811790915591167f8be0079c531659141344cd1fd0a4f28419497f9722a3daafe3b4186f6b6457e0600080a3565b60ff6000805160206121928339815191525460401c1615611e0c57565b631afcd79f60e31b60005260046000fd5b6040516323b872dd60e01b60208201526001600160a01b039283166024820152929091166044830152606480830193909352918152611e6691611e61608483611208565b611fe0565b565b60206000604051938285019063095ea7b360e01b825260018060a01b031695866024870152604486015260448552611ea1606486611208565b84519082855af16000513d82611ef7575b505015611ebe57505050565b611e61611e66936040519063095ea7b360e01b602083015260248201526000604482015260448152611ef1606482611208565b82611fe0565b909150611f1457506001600160a01b0381163b15155b3880611eb2565b600114611f0d565b8151919060418303611f4d57611f4692506020820151906060604084015193015160001a90612047565b9192909190565b505060009160029190565b9190916004811015611fca5780611f6e57509050565b600060018203611f895763f645eedf60e01b60005260046000fd5b5060028103611fa7578263fce698f760e01b60005260045260246000fd5b9091600360009214611fb7575050565b6335e2f38360e21b825260045260249150fd5b634e487b7160e01b600052602160045260246000fd5b906000602091828151910182855af11561203b576000513d61203257506001600160a01b0381163b155b6120115750565b635274afe760e01b60009081526001600160a01b0391909116600452602490fd5b6001141561200a565b6040513d6000823e3d90fd5b91907f7fffffffffffffffffffffffffffffff5d576e7357a4501ddfe92f46681b20a084116120c4579160209360809260ff60009560405194855216868401526040830152606082015282805260015afa1561203b576000516001600160a01b038116156120b85790600090600090565b50600090600190600090565b50505060009160039190565b906120f657508051156120e557602081519101fd5b63d6bda27560e01b60005260046000fd5b81511580612128575b612107575090565b639996b31560e01b60009081526001600160a01b0391909116600452602490fd5b50803b156120ff56fe9016d09d72d40fdae2fd8ceac6b6234c7706214fd39c1cd1e609a0528c199300360894a13ba1a3210667c828492db98dca3e2076cc3735a920a3ca505d382bbc9b779b17422d0df92223018b32b4d1fa46e071723d6817e2486d003becc55f00f0c57e16840df040f15088dc2f81fe391c3923bec73e23a9662efc9c229c6a00237e158222e3e6968b72b9db0d8043aacf074ad9f650f0d1606b4d82ee432c00a164736f6c634300081c000a",
  "linkReferences": {},
  "deployedLinkReferences": {}
}