{
  "_format": "hh-sol-artifact-1",
  "contractName": "CrossChainManager",
  "sourceName": "contracts/CrossChainManager.sol",
  "abi": [
    {
      "inputs": [],
      "stateMutability": "nonpayable",
      "type": "constructor"
    },
    {
      "inputs": [],
      "name": "AccessControlBadConfirmation",
      "type": "error"
    },
    {
      "inputs": [
        {
          "internalType": "address",
          "name": "account",
          "type": "address"
        },
        {
          "internalType": "bytes32",
          "name": "neededRole",
          "type": "bytes32"
        }
      ],
      "name": "AccessControlUnauthorizedAccount",
      "type": "error"
    },
    {
      "inputs": [
        {
          "internalType": "address",
          "name": "target",
          "type": "address"
        }
      ],
      "name": "AddressEmptyCode",
      "type": "error"
    },
    {
      "inputs": [],
      "name": "AmlSignatureAlreadyUsed",
      "type": "error"
    },
    {
      "inputs": [],
      "name": "AmlSignatureExpired",
      "type": "error"
    },
    {
      "inputs": [],
      "name": "AmountMustBeGreaterThanZero",
      "type": "error"
    },
    {
      "inputs": [],
      "name": "ECDSAInvalidSignature",
      "type": "error"
    },
    {
      "inputs": [
        {
          "internalType": "uint256",
          "name": "length",
          "type": "uint256"
        }
      ],
      "name": "ECDSAInvalidSignatureLength",
      "type": "error"
    },
    {
      "inputs": [
        {
          "internalType": "bytes32",
          "name": "s",
          "type": "bytes32"
        }
      ],
      "name": "ECDSAInvalidSignatureS",
      "type": "error"
    },
    {
      "inputs": [
        {
          "internalType": "address",
          "name": "implementation",
          "type": "address"
        }
      ],
      "name": "ERC1967InvalidImplementation",
      "type": "error"
    },
    {
      "inputs": [],
      "name": "ERC1967NonPayable",
      "type": "error"
    },
    {
      "inputs": [],
      "name": "FailedCall",
      "type": "error"
    },
    {
      "inputs": [],
      "name": "InsufficientBalance",
      "type": "error"
    },
    {
      "inputs": [
        {
          "internalType": "string",
          "name": "",
          "type": "string"
        }
      ],
      "name": "InvalidAddress",
      "type": "error"
    },
    {
      "inputs": [],
      "name": "InvalidAmlSignature",
      "type": "error"
    },
    {
      "inputs": [],
      "name": "InvalidAmlSigner",
      "type": "error"
    },
    {
      "inputs": [],
      "name": "InvalidAmount",
      "type": "error"
    },
    {
      "inputs": [],
      "name": "InvalidFunctionName",
      "type": "error"
    },
    {
      "inputs": [],
      "name": "InvalidInitialization",
      "type": "error"
    },
    {
      "inputs": [],
      "name": "InvalidMintTransactionHash",
      "type": "error"
    },
    {
      "inputs": [],
      "name": "NotInitializing",
      "type": "error"
    },
    {
      "inputs": [
        {
          "internalType": "address",
          "name": "owner",
          "type": "address"
        }
      ],
      "name": "OwnableInvalidOwner",
      "type": "error"
    },
    {
      "inputs": [
        {
          "internalType": "address",
          "name": "account",
          "type": "address"
        }
      ],
      "name": "OwnableUnauthorizedAccount",
      "type": "error"
    },
    {
      "inputs": [],
      "name": "ReentrancyGuardReentrantCall",
      "type": "error"
    },
    {
      "inputs": [
        {
          "internalType": "address",
          "name": "token",
          "type": "address"
        }
      ],
      "name": "SafeERC20FailedOperation",
      "type": "error"
    },
    {
      "inputs": [],
      "name": "UUPSUnauthorizedCallContext",
      "type": "error"
    },
    {
      "inputs": [
        {
          "internalType": "bytes32",
          "name": "slot",
          "type": "bytes32"
        }
      ],
      "name": "UUPSUnsupportedProxiableUUID",
      "type": "error"
    },
    {
      "anonymous": false,
      "inputs": [
        {
          "indexed": true,
          "internalType": "address",
          "name": "crossChainVaultAddress",
          "type": "address"
        }
      ],
      "name": "CrossChainConfigUpdated",
      "type": "event"
    },
    {
      "anonymous": false,
      "inputs": [
        {
          "indexed": true,
          "internalType": "address",
          "name": "tokenAddress",
          "type": "address"
        },
        {
          "indexed": false,
          "internalType": "address",
          "name": "shareTokenAddress",
          "type": "address"
        },
        {
          "indexed": false,
          "internalType": "address",
          "name": "amlSignerAddress",
          "type": "address"
        },
        {
          "indexed": false,
          "internalType": "address",
          "name": "destinationManagerAddress",
          "type": "address"
        },
        {
          "indexed": false,
          "internalType": "address",
          "name": "burnAdminAddress",
          "type": "address"
        },
        {
          "indexed": false,
          "internalType": "address",
          "name": "crossChainVaultAddress",
          "type": "address"
        }
      ],
      "name": "CrossChainManagerInitialized",
      "type": "event"
    },
    {
      "anonymous": false,
      "inputs": [
        {
          "indexed": true,
          "internalType": "address",
          "name": "user",
          "type": "address"
        },
        {
          "indexed": false,
          "internalType": "uint256",
          "name": "amount",
          "type": "uint256"
        },
        {
          "indexed": false,
          "internalType": "address",
          "name": "token",
          "type": "address"
        },
        {
          "indexed": false,
          "internalType": "address",
          "name": "shareToken",
          "type": "address"
        },
        {
          "indexed": false,
          "internalType": "address",
          "name": "destinationAddress",
          "type": "address"
        },
        {
          "indexed": false,
          "internalType": "uint16",
          "name": "targetChain",
          "type": "uint16"
        }
      ],
      "name": "Deposited",
      "type": "event"
    },
    {
      "anonymous": false,
      "inputs": [
        {
          "indexed": true,
          "internalType": "address",
          "name": "destination",
          "type": "address"
        }
      ],
      "name": "DestinationAddressAdded",
      "type": "event"
    },
    {
      "anonymous": false,
      "inputs": [
        {
          "indexed": true,
          "internalType": "address",
          "name": "destination",
          "type": "address"
        }
      ],
      "name": "DestinationAddressRemoved",
      "type": "event"
    },
    {
      "anonymous": false,
      "inputs": [
        {
          "indexed": true,
          "internalType": "address",
          "name": "destination",
          "type": "address"
        }
      ],
      "name": "DestinationAddressSkipped",
      "type": "event"
    },
    {
      "anonymous": false,
      "inputs": [
        {
          "indexed": false,
          "internalType": "uint64",
          "name": "version",
          "type": "uint64"
        }
      ],
      "name": "Initialized",
      "type": "event"
    },
    {
      "anonymous": false,
      "inputs": [
        {
          "indexed": true,
          "internalType": "address",
          "name": "previousOwner",
          "type": "address"
        },
        {
          "indexed": true,
          "internalType": "address",
          "name": "newOwner",
          "type": "address"
        }
      ],
      "name": "OwnershipTransferStarted",
      "type": "event"
    },
    {
      "anonymous": false,
      "inputs": [
        {
          "indexed": true,
          "internalType": "address",
          "name": "previousOwner",
          "type": "address"
        },
        {
          "indexed": true,
          "internalType": "address",
          "name": "newOwner",
          "type": "address"
        }
      ],
      "name": "OwnershipTransferred",
      "type": "event"
    },
    {
      "anonymous": false,
      "inputs": [
        {
          "indexed": true,
          "internalType": "bytes32",
          "name": "role",
          "type": "bytes32"
        },
        {
          "indexed": true,
          "internalType": "bytes32",
          "name": "previousAdminRole",
          "type": "bytes32"
        },
        {
          "indexed": true,
          "internalType": "bytes32",
          "name": "newAdminRole",
          "type": "bytes32"
        }
      ],
      "name": "RoleAdminChanged",
      "type": "event"
    },
    {
      "anonymous": false,
      "inputs": [
        {
          "indexed": true,
          "internalType": "bytes32",
          "name": "role",
          "type": "bytes32"
        },
        {
          "indexed": true,
          "internalType": "address",
          "name": "account",
          "type": "address"
        },
        {
          "indexed": true,
          "internalType": "address",
          "name": "sender",
          "type": "address"
        }
      ],
      "name": "RoleGranted",
      "type": "event"
    },
    {
      "anonymous": false,
      "inputs": [
        {
          "indexed": true,
          "internalType": "bytes32",
          "name": "role",
          "type": "bytes32"
        },
        {
          "indexed": true,
          "internalType": "address",
          "name": "account",
          "type": "address"
        },
        {
          "indexed": true,
          "internalType": "address",
          "name": "sender",
          "type": "address"
        }
      ],
      "name": "RoleRevoked",
      "type": "event"
    },
    {
      "anonymous": false,
      "inputs": [
        {
          "indexed": false,
          "internalType": "uint256",
          "name": "amount",
          "type": "uint256"
        },
        {
          "indexed": false,
          "internalType": "address",
          "name": "shareToken",
          "type": "address"
        },
        {
          "indexed": false,
          "internalType": "address",
          "name": "burner",
          "type": "address"
        },
        {
          "indexed": true,
          "internalType": "string",
          "name": "mintTransactionHash",
          "type": "string"
        }
      ],
      "name": "TokensBurned",
      "type": "event"
    },
    {
      "anonymous": false,
      "inputs": [
        {
          "indexed": true,
          "internalType": "address",
          "name": "implementation",
          "type": "address"
        }
      ],
      "name": "Upgraded",
      "type": "event"
    },
    {
      "anonymous": false,
      "inputs": [
        {
          "indexed": true,
          "internalType": "address",
          "name": "user",
          "type": "address"
        },
        {
          "indexed": false,
          "internalType": "uint256",
          "name": "amount",
          "type": "uint256"
        },
        {
          "indexed": false,
          "internalType": "address",
          "name": "token",
          "type": "address"
        },
        {
          "indexed": false,
          "internalType": "address",
          "name": "shareToken",
          "type": "address"
        },
        {
          "indexed": false,
          "internalType": "address",
          "name": "destinationAddress",
          "type": "address"
        },
        {
          "indexed": false,
          "internalType": "uint16",
          "name": "targetChain",
          "type": "uint16"
        }
      ],
      "name": "Withdrawn",
      "type": "event"
    },
    {
      "inputs": [],
      "name": "BURN_ADMIN_ROLE",
      "outputs": [
        {
          "internalType": "bytes32",
          "name": "",
          "type": "bytes32"
        }
      ],
      "stateMutability": "view",
      "type": "function"
    },
    {
      "inputs": [],
      "name": "BURN_ROLE",
      "outputs": [
        {
          "internalType": "bytes32",
          "name": "",
          "type": "bytes32"
        }
      ],
      "stateMutability": "view",
      "type": "function"
    },
    {
      "inputs": [],
      "name": "DEFAULT_ADMIN_ROLE",
      "outputs": [
        {
          "internalType": "bytes32",
          "name": "",
          "type": "bytes32"
        }
      ],
      "stateMutability": "view",
      "type": "function"
    },
    {
      "inputs": [],
      "name": "DESTINATION_MANAGER_ADMIN_ROLE",
      "outputs": [
        {
          "internalType": "bytes32",
          "name": "",
          "type": "bytes32"
        }
      ],
      "stateMutability": "view",
      "type": "function"
    },
    {
      "inputs": [],
      "name": "DESTINATION_MANAGER_ROLE",
      "outputs": [
        {
          "internalType": "bytes32",
          "name": "",
          "type": "bytes32"
        }
      ],
      "stateMutability": "view",
      "type": "function"
    },
    {
      "inputs": [],
      "name": "UPGRADE_INTERFACE_VERSION",
      "outputs": [
        {
          "internalType": "string",
          "name": "",
          "type": "string"
        }
      ],
      "stateMutability": "view",
      "type": "function"
    },
    {
      "inputs": [],
      "name": "acceptOwnership",
      "outputs": [],
      "stateMutability": "nonpayable",
      "type": "function"
    },
    {
      "inputs": [
        {
          "internalType": "address",
          "name": "_destination",
          "type": "address"
        }
      ],
      "name": "addDestinationAddress",
      "outputs": [],
      "stateMutability": "nonpayable",
      "type": "function"
    },
    {
      "inputs": [],
      "name": "amlSigner",
      "outputs": [
        {
          "internalType": "address",
          "name": "",
          "type": "address"
        }
      ],
      "stateMutability": "view",
      "type": "function"
    },
    {
      "inputs": [
        {
          "internalType": "uint256",
          "name": "amount",
          "type": "uint256"
        },
        {
          "internalType": "string",
          "name": "mintTransactionHash",
          "type": "string"
        }
      ],
      "name": "burn",
      "outputs": [],
      "stateMutability": "nonpayable",
      "type": "function"
    },
    {
      "inputs": [],
      "name": "crossChainVault",
      "outputs": [
        {
          "internalType": "contract CrossChainVault",
          "name": "",
          "type": "address"
        }
      ],
      "stateMutability": "view",
      "type": "function"
    },
    {
      "inputs": [
        {
          "internalType": "uint256",
          "name": "_amount",
          "type": "uint256"
        },
        {
          "internalType": "address",
          "name": "_destinationAddress",
          "type": "address"
        },
        {
          "internalType": "bytes",
          "name": "_amlSignature",
          "type": "bytes"
        },
        {
          "internalType": "uint256",
          "name": "_amlDeadline",
          "type": "uint256"
        },
        {
          "internalType": "uint16",
          "name": "targetChain",
          "type": "uint16"
        },
        {
          "internalType": "uint32",
          "name": "targetDomain",
          "type": "uint32"
        },
        {
          "components": [
            {
              "internalType": "address",
              "name": "refundAddress",
              "type": "address"
            },
            {
              "internalType": "bytes",
              "name": "signedQuote",
              "type": "bytes"
            },
            {
              "internalType": "bytes",
              "name": "instructions",
              "type": "bytes"
            }
          ],
          "internalType": "struct ExecutorArgs",
          "name": "executorArgs",
          "type": "tuple"
        },
        {
          "components": [
            {
              "internalType": "uint256",
              "name": "transferTokenFee",
              "type": "uint256"
            },
            {
              "internalType": "uint256",
              "name": "nativeTokenFee",
              "type": "uint256"
            },
            {
              "internalType": "address",
              "name": "payee",
              "type": "address"
            }
          ],
          "internalType": "struct FeeArgs",
          "name": "feeArgs",
          "type": "tuple"
        }
      ],
      "name": "deposit",
      "outputs": [],
      "stateMutability": "payable",
      "type": "function"
    },
    {
      "inputs": [
        {
          "internalType": "uint256",
          "name": "_amount",
          "type": "uint256"
        },
        {
          "internalType": "address",
          "name": "_destinationAddress",
          "type": "address"
        },
        {
          "internalType": "bytes",
          "name": "_amlSignature",
          "type": "bytes"
        },
        {
          "internalType": "uint256",
          "name": "_amlDeadline",
          "type": "uint256"
        },
        {
          "internalType": "uint256",
          "name": "_permitDeadline",
          "type": "uint256"
        },
        {
          "internalType": "uint8",
          "name": "_v",
          "type": "uint8"
        },
        {
          "internalType": "bytes32",
          "name": "_r",
          "type": "bytes32"
        },
        {
          "internalType": "bytes32",
          "name": "_s",
          "type": "bytes32"
        },
        {
          "internalType": "uint16",
          "name": "targetChain",
          "type": "uint16"
        },
        {
          "internalType": "uint32",
          "name": "targetDomain",
          "type": "uint32"
        },
        {
          "components": [
            {
              "internalType": "address",
              "name": "refundAddress",
              "type": "address"
            },
            {
              "internalType": "bytes",
              "name": "signedQuote",
              "type": "bytes"
            },
            {
              "internalType": "bytes",
              "name": "instructions",
              "type": "bytes"
            }
          ],
          "internalType": "struct ExecutorArgs",
          "name": "executorArgs",
          "type": "tuple"
        },
        {
          "components": [
            {
              "internalType": "uint256",
              "name": "transferTokenFee",
              "type": "uint256"
            },
            {
              "internalType": "uint256",
              "name": "nativeTokenFee",
              "type": "uint256"
            },
            {
              "internalType": "address",
              "name": "payee",
              "type": "address"
            }
          ],
          "internalType": "struct FeeArgs",
          "name": "feeArgs",
          "type": "tuple"
        }
      ],
      "name": "depositWithPermit",
      "outputs": [],
      "stateMutability": "payable",
      "type": "function"
    },
    {
      "inputs": [
        {
          "internalType": "uint256",
          "name": "",
          "type": "uint256"
        }
      ],
      "name": "destinationAddresses",
      "outputs": [
        {
          "internalType": "address",
          "name": "",
          "type": "address"
        }
      ],
      "stateMutability": "view",
      "type": "function"
    },
    {
      "inputs": [],
      "name": "getCrossChainContractAddress",
      "outputs": [
        {
          "internalType": "address",
          "name": "",
          "type": "address"
        }
      ],
      "stateMutability": "view",
      "type": "function"
    },
    {
      "inputs": [],
      "name": "getDestinationAddresses",
      "outputs": [
        {
          "internalType": "address[]",
          "name": "",
          "type": "address[]"
        }
      ],
      "stateMutability": "view",
      "type": "function"
    },
    {
      "inputs": [
        {
          "internalType": "bytes32",
          "name": "role",
          "type": "bytes32"
        }
      ],
      "name": "getRoleAdmin",
      "outputs": [
        {
          "internalType": "bytes32",
          "name": "",
          "type": "bytes32"
        }
      ],
      "stateMutability": "view",
      "type": "function"
    },
    {
      "inputs": [
        {
          "internalType": "bytes32",
          "name": "role",
          "type": "bytes32"
        },
        {
          "internalType": "address",
          "name": "account",
          "type": "address"
        }
      ],
      "name": "grantRole",
      "outputs": [],
      "stateMutability": "nonpayable",
      "type": "function"
    },
    {
      "inputs": [
        {
          "internalType": "bytes32",
          "name": "role",
          "type": "bytes32"
        },
        {
          "internalType": "address",
          "name": "account",
          "type": "address"
        }
      ],
      "name": "hasRole",
      "outputs": [
        {
          "internalType": "bool",
          "name": "",
          "type": "bool"
        }
      ],
      "stateMutability": "view",
      "type": "function"
    },
    {
      "inputs": [
        {
          "internalType": "address",
          "name": "_tokenAddress",
          "type": "address"
        },
        {
          "internalType": "address",
          "name": "_shareTokenAddress",
          "type": "address"
        },
        {
          "internalType": "address",
          "name": "_amlSignerAddress",
          "type": "address"
        },
        {
          "internalType": "address",
          "name": "_destinationManagerAddress",
          "type": "address"
        },
        {
          "internalType": "address",
          "name": "burnAdminAddress",
          "type": "address"
        },
        {
          "internalType": "address",
          "name": "crossChainVaultAddress",
          "type": "address"
        }
      ],
      "name": "initialize",
      "outputs": [],
      "stateMutability": "nonpayable",
      "type": "function"
    },
    {
      "inputs": [
        {
          "internalType": "address",
          "name": "",
          "type": "address"
        }
      ],
      "name": "isDestination",
      "outputs": [
        {
          "internalType": "bool",
          "name": "",
          "type": "bool"
        }
      ],
      "stateMutability": "view",
      "type": "function"
    },
    {
      "inputs": [
        {
          "internalType": "address",
          "name": "_destination",
          "type": "address"
        }
      ],
      "name": "isDestinationExists",
      "outputs": [
        {
          "internalType": "bool",
          "name": "",
          "type": "bool"
        }
      ],
      "stateMutability": "view",
      "type": "function"
    },
    {
      "inputs": [],
      "name": "owner",
      "outputs": [
        {
          "internalType": "address",
          "name": "",
          "type": "address"
        }
      ],
      "stateMutability": "view",
      "type": "function"
    },
    {
      "inputs": [],
      "name": "pendingOwner",
      "outputs": [
        {
          "internalType": "address",
          "name": "",
          "type": "address"
        }
      ],
      "stateMutability": "view",
      "type": "function"
    },
    {
      "inputs": [],
      "name": "proxiableUUID",
      "outputs": [
        {
          "internalType": "bytes32",
          "name": "",
          "type": "bytes32"
        }
      ],
      "stateMutability": "view",
      "type": "function"
    },
    {
      "inputs": [
        {
          "internalType": "address",
          "name": "_destination",
          "type": "address"
        }
      ],
      "name": "removeDestinationAddress",
      "outputs": [],
      "stateMutability": "nonpayable",
      "type": "function"
    },
    {
      "inputs": [],
      "name": "renounceOwnership",
      "outputs": [],
      "stateMutability": "nonpayable",
      "type": "function"
    },
    {
      "inputs": [
        {
          "internalType": "bytes32",
          "name": "role",
          "type": "bytes32"
        },
        {
          "internalType": "address",
          "name": "callerConfirmation",
          "type": "address"
        }
      ],
      "name": "renounceRole",
      "outputs": [],
      "stateMutability": "nonpayable",
      "type": "function"
    },
    {
      "inputs": [
        {
          "internalType": "bytes32",
          "name": "role",
          "type": "bytes32"
        },
        {
          "internalType": "address",
          "name": "account",
          "type": "address"
        }
      ],
      "name": "revokeRole",
      "outputs": [],
      "stateMutability": "nonpayable",
      "type": "function"
    },
    {
      "inputs": [],
      "name": "shareToken",
      "outputs": [
        {
          "internalType": "contract ICustomToken",
          "name": "",
          "type": "address"
        }
      ],
      "stateMutability": "view",
      "type": "function"
    },
    {
      "inputs": [
        {
          "internalType": "bytes4",
          "name": "interfaceId",
          "type": "bytes4"
        }
      ],
      "name": "supportsInterface",
      "outputs": [
        {
          "internalType": "bool",
          "name": "",
          "type": "bool"
        }
      ],
      "stateMutability": "view",
      "type": "function"
    },
    {
      "inputs": [],
      "name": "token",
      "outputs": [
        {
          "internalType": "contract CustomToken",
          "name": "",
          "type": "address"
        }
      ],
      "stateMutability": "view",
      "type": "function"
    },
    {
      "inputs": [
        {
          "internalType": "address",
          "name": "newOwner",
          "type": "address"
        }
      ],
      "name": "transferOwnership",
      "outputs": [],
      "stateMutability": "nonpayable",
      "type": "function"
    },
    {
      "inputs": [
        {
          "internalType": "address",
          "name": "crossChainVaultAddress",
          "type": "address"
        }
      ],
      "name": "updateCrossChainConfig",
      "outputs": [],
      "stateMutability": "nonpayable",
      "type": "function"
    },
    {
      "inputs": [
        {
          "internalType": "address",
          "name": "newImplementation",
          "type": "address"
        },
        {
          "internalType": "bytes",
          "name": "data",
          "type": "bytes"
        }
      ],
      "name": "upgradeToAndCall",
      "outputs": [],
      "stateMutability": "payable",
      "type": "function"
    },
    {
      "inputs": [
        {
          "internalType": "bytes32",
          "name": "",
          "type": "bytes32"
        }
      ],
      "name": "usedSignatures",
      "outputs": [
        {
          "internalType": "bool",
          "name": "",
          "type": "bool"
        }
      ],
      "stateMutability": "view",
      "type": "function"
    },
    {
      "inputs": [
        {
          "internalType": "uint256",
          "name": "_amount",
          "type": "uint256"
        },
        {
          "internalType": "address",
          "name": "_destinationAddress",
          "type": "address"
        },
        {
          "internalType": "bytes",
          "name": "_amlSignature",
          "type": "bytes"
        },
        {
          "internalType": "uint256",
          "name": "_amlDeadline",
          "type": "uint256"
        },
        {
          "internalType": "uint16",
          "name": "targetChain",
          "type": "uint16"
        },
        {
          "internalType": "uint32",
          "name": "targetDomain",
          "type": "uint32"
        },
        {
          "components": [
            {
              "internalType": "address",
              "name": "refundAddress",
              "type": "address"
            },
            {
              "internalType": "bytes",
              "name": "signedQuote",
              "type": "bytes"
            },
            {
              "internalType": "bytes",
              "name": "instructions",
              "type": "bytes"
            }
          ],
          "internalType": "struct ExecutorArgs",
          "name": "executorArgs",
          "type": "tuple"
        },
        {
          "components": [
            {
              "internalType": "uint256",
              "name": "transferTokenFee",
              "type": "uint256"
            },
            {
              "internalType": "uint256",
              "name": "nativeTokenFee",
              "type": "uint256"
            },
            {
              "internalType": "address",
              "name": "payee",
              "type": "address"
            }
          ],
          "internalType": "struct FeeArgs",
          "name": "feeArgs",
          "type": "tuple"
        }
      ],
      "name": "withdraw",
      "outputs": [],
      "stateMutability": "payable",
      "type": "function"
    },
    {
      "inputs": [
        {
          "internalType": "uint256",
          "name": "_amount",
          "type": "uint256"
        },
        {
          "internalType": "address",
          "name": "_destinationAddress",
          "type": "address"
        },
        {
          "internalType": "bytes",
          "name": "_amlSignature",
          "type": "bytes"
        },
        {
          "internalType": "uint256",
          "name": "_amlDeadline",
          "type": "uint256"
        },
        {
          "internalType": "uint256",
          "name": "_permitDeadline",
          "type": "uint256"
        },
        {
          "internalType": "uint8",
          "name": "_v",
          "type": "uint8"
        },
        {
          "internalType": "bytes32",
          "name": "_r",
          "type": "bytes32"
        },
        {
          "internalType": "bytes32",
          "name": "_s",
          "type": "bytes32"
        },
        {
          "internalType": "uint16",
          "name": "targetChain",
          "type": "uint16"
        },
        {
          "internalType": "uint32",
          "name": "targetDomain",
          "type": "uint32"
        },
        {
          "components": [
            {
              "internalType": "address",
              "name": "refundAddress",
              "type": "address"
            },
            {
              "internalType": "bytes",
              "name": "signedQuote",
              "type": "bytes"
            },
            {
              "internalType": "bytes",
              "name": "instructions",
              "type": "bytes"
            }
          ],
          "internalType": "struct ExecutorArgs",
          "name": "executorArgs",
          "type": "tuple"
        },
        {
          "components": [
            {
              "internalType": "uint256",
              "name": "transferTokenFee",
              "type": "uint256"
            },
            {
              "internalType": "uint256",
              "name": "nativeTokenFee",
              "type": "uint256"
            },
            {
              "internalType": "address",
              "name": "payee",
              "type": "address"
            }
          ],
          "internalType": "struct FeeArgs",
          "name": "feeArgs",
          "type": "tuple"
        }
      ],
      "name": "withdrawWithPermit",
      "outputs": [],
      "stateMutability": "payable",
      "type": "function"
    }
  ],
  "bytecode": "0x60a080604052346100ea57306080527ff0c57e16840df040f15088dc2f81fe391c3923bec73e23a9662efc9c229c6a005460ff8160401c166100d9576002600160401b03196001600160401b03821601610073575b604051612adc90816100f08239608051818181611084015261112a0152f35b6001600160401b0319166001600160401b039081177ff0c57e16840df040f15088dc2f81fe391c3923bec73e23a9662efc9c229c6a005581527fc7f505b2f371ae2175ee4913f4499e1f2633a7b5936321eed1cdaeb6115181d290602090a13880610054565b63f92ee8a960e01b60005260046000fd5b600080fdfe608080604052600436101561001357600080fd5b600090813560e01c90816301ffc9a71461156c575080630ce32eb3146114a4578063205020091461134b578063248a9ca31461147d57806325f2ba49146114425780632ba960c3146114145780632c7e2d5e146113eb5780632f2ff15d146113b957806336568abe146113745780633d13272b1461134b57806342a586fa146112fe5780634f1ef286146110d957806352d1902d146110715780636147da56146110485780636193d01814611004578063638e5fc914610f9a5780636adda2b614610ecc5780636c9fa59e14610ea3578063715018a614610e225780637641e6f314610c2957806379ba509714610bdb5780638c39355814610bb15780638da5cb5b14610b7b5780638ee65da614610aa257806391d1485414610a49578063986b8534146109ed578063a217fddf146109d1578063aaaae34214610992578063ad3cb1cc14610918578063b3cb1991146108dd578063b930908f146108b4578063cc2a9a5b14610341578063d547741f14610306578063e30c3978146102d0578063e3f248a4146102a3578063f2fde38b1461021b578063f978fd61146101ec5763fc0c546a146101c357600080fd5b346101e957806003193601126101e957546040516001600160a01b039091168152602090f35b80fd5b50346101e95760203660031901126101e95760ff60406020926004358152600684522054166040519015158152f35b50346101e95760203660031901126101e9576102356115c1565b61023d6125e9565b600080516020612a9083398151915280546001600160a01b0319166001600160a01b039283169081179091556000805160206129d0833981519152549091167f38d16b8cac22d99fc7c124b9cd0de2d3fa1faef420bfe791d8c362d765e227008380a380f35b50346101e95760203660031901126101e9576102cd6102c06115c1565b6102c8611b89565b611a96565b80f35b50346101e957806003193601126101e957600080516020612a90833981519152546040516001600160a01b039091168152602090f35b50346101e95760403660031901126101e95761033d6004356103266115dc565b9061033861033382611851565b611be9565b611e7e565b5080f35b50346101e95760c03660031901126101e95761035b6115c1565b6103636115dc565b6044356001600160a01b038116908190036108b057606435906001600160a01b038216908183036108ac57608435916001600160a01b0383168084036108a85760a4356001600160a01b03811692908390036108a457600080516020612a50833981519152549760ff8960401c16159867ffffffffffffffff81168015908161089c575b6001149081610892575b159081610889575b5061087a5767ffffffffffffffff198116600117600080516020612a50833981519152558961084d575b5061042c61278c565b61043461278c565b61043c61278c565b33156108395761044b3361261f565b61045361278c565b61045b61278c565b61046361278c565b6001600080516020612a30833981519152556001600160a01b0316968715610803576001600160a01b03169384156107cf57801561079c57811561076057821561072d5783156106f35761067660a0966106707f140f04db8f9f6d9bb315e777c49cbb7d9ca219fa539bc4c522f79671844533ed997f0a30bae60ea06f344bebb63f4eb39612b0328589ecd1132302e75991373fee2d8e8d6001600160601b038d1b8254161781558a6001600160601b038d1b6002541617600255866001600160601b038d1b6003541617600355896001600160601b038d1b6001541617600155600080516020612a708339815191528152600080516020612a108339815191526020527f0a160a5caf036f8340e8ee83de9fc0ad381d65eb292d6dfa44b33f603e10eae06001604083200154600080516020612a708339815191528352600080516020612a10833981519152602052816001604085200155600080516020612a708339815191527fbd79b86ffe0ab8e8776151514217cd7cacd52c909f66475c3af44e129f0b00ff8480a4600080516020612ab08339815191528152600080516020612a10833981519152602052600080516020612ab08339815191527fbd79b86ffe0ab8e8776151514217cd7cacd52c909f66475c3af44e129f0b00ff600160408420015492828152600080516020612a1083398151915260205284600160408320015580a4611c33565b50611d07565b506040519485526020850152604084015260608301526080820152a26106995780f35b68ff000000000000000019600080516020612a508339815191525416600080516020612a50833981519152557fc7f505b2f371ae2175ee4913f4499e1f2633a7b5936321eed1cdaeb6115181d2602060405160018152a180f35b604051630b0f5aa160e11b815260206004820152601160248201527018dc9bdcdcc818da185a5b881d985d5b1d607a1b6044820152606490fd5b604051630b0f5aa160e11b815260206004820152600a602482015269313ab9371030b236b4b760b11b6044820152606490fd5b604051630b0f5aa160e11b81526020600482015260136024820152723232b9ba34b730ba34b7b71036b0b730b3b2b960691b6044820152606490fd5b604051630b0f5aa160e11b815260206004820152600a60248201526930b6b61039b4b3b732b960b11b6044820152606490fd5b604051630b0f5aa160e11b815260206004820152600b60248201526a39b430b932903a37b5b2b760a91b6044820152606490fd5b604051630b0f5aa160e11b815260206004820152600d60248201526c3232b837b9b4ba103a37b5b2b760991b6044820152606490fd5b631e4fbdf760e01b8a5260048a905260248afd5b68ffffffffffffffffff19166801000000000000000117600080516020612a508339815191525538610423565b63f92ee8a960e01b8b5260048bfd5b905015386103f9565b303b1591506103f1565b8b91506103e7565b8880fd5b8780fd5b8580fd5b8380fd5b50346101e957806003193601126101e9576020604051600080516020612ab08339815191528152f35b50346101e957806003193601126101e95760206040517f0a30bae60ea06f344bebb63f4eb39612b0328589ecd1132302e75991373fee2d8152f35b50346101e957806003193601126101e957604080519161093882846116d5565b60058352640352e302e360dc1b6020840152815192839160208352815191826020850152815b83811061097b575050828201840152601f01601f19168101030190f35b60208282018101518883018801528795500161095e565b50346101e95760203660031901126101e95760209060ff906040906001600160a01b036109bd6115c1565b168152600584522054166040519015158152f35b50346101e957806003193601126101e957602090604051908152f35b50610a34610a2f6109fd36611634565b989295610a0f98949297959198611f1e565b610a22838787610a1d6118e9565b611f5a565b610a2a61190e565b61208a565b6124c5565b6001600080516020612a308339815191525580f35b50346101e95760403660031901126101e9576040610a656115dc565b916004358152600080516020612a10833981519152602052209060018060a01b0316600052602052602060ff604060002054166040519015158152f35b5080610ad5610add610ab336611791565b9d8c9f99929c988c81959d9c939f9699979a610acd611f1e565b610a1d61189b565b610a2a6118c1565b84546001600160a01b031690813b156108ac5760405163d505accf60e01b8152336004820152306024820152604481018d9052606481019190915260ff92909216608483015260a482019390935260c4810191909152908290829060e490829084905af18015610b7057610b57575b5050610a34956122fa565b81610b61916116d5565b610b6c578638610b4c565b8680fd5b6040513d84823e3d90fd5b50346101e957806003193601126101e9576000805160206129d0833981519152546040516001600160a01b039091168152602090f35b50346101e95760203660031901126101e9576102cd610bce6115c1565b610bd6611b89565b611935565b50346101e957806003193601126101e957600080516020612a9083398151915254336001600160a01b0390911603610c16576102cd3361261f565b63118cdaa760e01b815233600452602490fd5b50346101e95760403660031901126101e95760043560243567ffffffffffffffff8111610e1e57610c5e903690600401611606565b600080516020612ab08339815191528452600080516020612a1083398151915260209081526040808620336000908152925290205491929160ff1615610df9578115610dea578015610ddb576002546040516370a0823160e01b81523060048201526001600160a01b0390911690602081602481855afa908115610dd0578691610d9e575b508311610d8f578085913b15610d8b57818091602460405180948193630852cd8d60e31b83528960048401525af18015610b7057610d76575b50507f5b9d46fcafb9d23a7bfeecc55768d5e506ca28c3a3eea2f1a51704fa25bc02fa9160609160018060a01b0360025416948160405192839283378101878152039020936040519182526020820152336040820152a280f35b81610d80916116d5565b6108b0578338610d1c565b5080fd5b631e9acf1760e31b8552600485fd5b90506020813d602011610dc8575b81610db9602093836116d5565b810103126108ac575138610ce3565b3d9150610dac565b6040513d88823e3d90fd5b63643d3cf760e01b8452600484fd5b635e85ae7360e01b8452600484fd5b63e2517d3f60e01b845233600452600080516020612ab0833981519152602452604484fd5b8280fd5b50346101e957806003193601126101e957610e3b6125e9565b600080516020612a9083398151915280546001600160a01b03199081169091556000805160206129d08339815191528054918216905581906001600160a01b03167f8be0079c531659141344cd1fd0a4f28419497f9722a3daafe3b4186f6b6457e08280a380f35b50346101e957806003193601126101e9576002546040516001600160a01b039091168152602090f35b610efe82610a22610edc36611791565b9c8c9f94969795988c81959c939e610ef69e9c959e611f1e565b610a1d6118e9565b89546001600160a01b031691823b15610f965760405163d505accf60e01b8152336004820152306024820152604481018d9052606481019290925260ff93909316608482015260a481019390935260c48301919091528790829060e490829084905af18015610f8b57610f77575b50610a3495966124c5565b95610f8581610a34986116d5565b95610f6c565b6040513d89823e3d90fd5b8a80fd5b50346101e95760203660031901126101e957610fb46115c1565b610fbc611b89565b6001600160a01b031680156106f357600180546001600160a01b031916821790557f832469fa47154901582d6cf83daeee106a33960814589bd742b85118b4fed0638280a280f35b50346101e95760203660031901126101e957600435906004548210156101e957602061102f83611760565b905460405160039290921b1c6001600160a01b03168152f35b50346101e957806003193601126101e9576003546040516001600160a01b039091168152602090f35b50346101e957806003193601126101e9577f00000000000000000000000000000000000000000000000000000000000000006001600160a01b031630036110ca5760206040516000805160206129f08339815191528152f35b63703e46dd60e11b8152600490fd5b5060403660031901126101e9576110ee6115c1565b9060243567ffffffffffffffff8111610d8b5736602382011215610d8b57611120903690602481600401359101611729565b6001600160a01b037f0000000000000000000000000000000000000000000000000000000000000000163081149081156112db575b506112cc576111626125e9565b6040516352d1902d60e01b8152926001600160a01b0381169190602085600481865afa80958596611294575b506111a757634c9c8ce360e01b84526004839052602484fd5b9091846000805160206129f083398151915281036112825750813b15611270576000805160206129f083398151915280546001600160a01b031916821790557fbc7cd75a20ee27fd9adebab32041f755214dbc6bffa90cc0225b39da2e5c2d3b8480a28151839015611256578083602061033d95519101845af43d1561124e573d916112328361170d565b9261124060405194856116d5565b83523d85602085013e61296e565b60609161296e565b505050346112615780f35b63b398979f60e01b8152600490fd5b634c9c8ce360e01b8452600452602483fd5b632a87526960e21b8552600452602484fd5b9095506020813d6020116112c4575b816112b0602093836116d5565b810103126112c05751943861118e565b8480fd5b3d91506112a3565b63703e46dd60e11b8252600482fd5b6000805160206129f0833981519152546001600160a01b03161415905038611155565b5061130836611634565b969293989791949095611319611f1e565b821561133c579861133791610a34999a610ad5838787610a1d61189b565b6122fa565b635e85ae7360e01b8952600489fd5b50346101e957806003193601126101e9576001546040516001600160a01b039091168152602090f35b50346101e95760403660031901126101e95761138e6115dc565b336001600160a01b038216036113aa5761033d90600435611e7e565b63334bd91960e11b8252600482fd5b50346101e95760403660031901126101e95761033d6004356113d96115dc565b906113e661033382611851565b611dd5565b50346101e957806003193601126101e9576020604051600080516020612a708339815191528152f35b50346101e95760203660031901126101e95760206114386114336115c1565b611872565b6040519015158152f35b50346101e957806003193601126101e95760206040517f0a160a5caf036f8340e8ee83de9fc0ad381d65eb292d6dfa44b33f603e10eae08152f35b50346101e95760203660031901126101e957602061149c600435611851565b604051908152f35b50346101e957806003193601126101e95760405180602060045491828152018091600485527f8a35acfbc15ff81a39ae7d344fd709f28e8600b4aa8c65c6b64bfe7fe36bd19b90855b81811061154d57505050826115039103836116d5565b604051928392602084019060208552518091526040840192915b81811061152b575050500390f35b82516001600160a01b031684528594506020938401939092019160010161151d565b82546001600160a01b03168452602090930192600192830192016114ed565b905034610d8b576020366003190112610d8b5760043563ffffffff60e01b8116809103610e1e5760209250637965db0b60e01b81149081156115b0575b5015158152f35b6301ffc9a760e01b149050386115a9565b600435906001600160a01b03821682036115d757565b600080fd5b602435906001600160a01b03821682036115d757565b35906001600160a01b03821682036115d757565b9181601f840112156115d75782359167ffffffffffffffff83116115d757602083818601950101116115d757565b6101406003198201126115d757600435916024356001600160a01b03811681036115d7579160443567ffffffffffffffff81116115d7578161167891600401611606565b929092916064359160843561ffff811681036115d7579160a43563ffffffff811681036115d7579160c43567ffffffffffffffff81116115d757606081840360031901126115d7576060906004019260e31901126115d75760e490565b90601f8019910116810190811067ffffffffffffffff8211176116f757604052565b634e487b7160e01b600052604160045260246000fd5b67ffffffffffffffff81116116f757601f01601f191660200190565b9291926117358261170d565b9161174360405193846116d5565b8294818452818301116115d7578281602093846000960137010152565b60045481101561177b57600460005260206000200190600090565b634e487b7160e01b600052603260045260246000fd5b6101c06003198201126115d757600435916024356001600160a01b03811681036115d7579160443567ffffffffffffffff81116115d757816117d591600401611606565b92909291606435916084359160a43560ff811681036115d7579160c4359160e435916101043561ffff811681036115d757916101243563ffffffff811681036115d757916101443567ffffffffffffffff81116115d757606081840360031901126115d757606090600401926101631901126115d75761016490565b600052600080516020612a1083398151915260205260016040600020015490565b6001600160a01b031660009081526005602052604090205460ff1661189657600090565b600190565b604051906118aa6040836116d5565b6008825267576974686472617760c01b6020830152565b604051906118d06040836116d5565b600a82526915da5d1a191c985dd85b60b21b6020830152565b604051906118f86040836116d5565b600782526611195c1bdcda5d60ca1b6020830152565b6040519061191d6040836116d5565b60098252682232b837b9b4ba37b960b91b6020830152565b6000905b6004549182811015611a635761194e81611760565b90546001600160a01b03848116959260031b9190911c16841461197657506001019150611939565b600019810192508211611a4d576119aa6119926119ce93611760565b905460039190911b1c6001600160a01b031691611760565b81546001600160a01b0393841660039290921b91821b9390911b1916919091179055565b806000526005602052604060002060ff1981541690556004548015611a3757600019016119fa81611760565b81549060018060a01b039060031b1b191690556004557febe8af0714f0dd4a7b23bc7163ea1aadcce97af7a8ec25343abdbccdb2ea8a66600080a2565b634e487b7160e01b600052603160045260246000fd5b634e487b7160e01b600052601160045260246000fd5b506001600160a01b031690507f52d051a942d5c9a74e875d9faaa59f6de2ecefa16c6844af092cc73f749baad4600080a2565b6001600160a01b038116908115611b4d5781600052600560205260ff60406000205416611b25578160005260056020526040600020600160ff1982541617905560045490680100000000000000008210156116f7576119aa826001611afe9401600455611760565b7fcef021749a809ea9d2e4eb3f28a169c12227e99b0bca877f3950fb8c2ccfaa62600080a2565b507f52d051a942d5c9a74e875d9faaa59f6de2ecefa16c6844af092cc73f749baad4600080a2565b604051630b0f5aa160e11b815260206004820152601360248201527264657374696e6174696f6e206164647265737360681b6044820152606490fd5b3360009081527fe0f49631d31e008cd72b9d6c5c7f7b2aea3c32d690788903106296f865135b11602052604090205460ff1615611bc257565b63e2517d3f60e01b60005233600452600080516020612a7083398151915260245260446000fd5b6000818152600080516020612a108339815191526020908152604080832033845290915290205460ff1615611c1b5750565b63e2517d3f60e01b6000523360045260245260446000fd5b6001600160a01b03811660009081527f29b8ff238ebd8c7d6f606a8413b26e49d7fdde8308763ac1856181e9dfcb517f602052604090205460ff16611d01576001600160a01b031660008181527f29b8ff238ebd8c7d6f606a8413b26e49d7fdde8308763ac1856181e9dfcb517f60205260408120805460ff191660011790553391907f0a160a5caf036f8340e8ee83de9fc0ad381d65eb292d6dfa44b33f603e10eae0907f2f8788117e7eff1d82e926ec794901d17c78024a50270940304540a733656f0d9080a4600190565b50600090565b6001600160a01b03811660009081527f99d7401b6c7fae7e32559c2f2939eb2955c262626d0b69e0397921638ab2ab8a602052604090205460ff16611d01576001600160a01b031660008181527f99d7401b6c7fae7e32559c2f2939eb2955c262626d0b69e0397921638ab2ab8a60205260408120805460ff191660011790553391907f0a30bae60ea06f344bebb63f4eb39612b0328589ecd1132302e75991373fee2d907f2f8788117e7eff1d82e926ec794901d17c78024a50270940304540a733656f0d9080a4600190565b6000818152600080516020612a10833981519152602090815260408083206001600160a01b038616845290915290205460ff16611e77576000818152600080516020612a10833981519152602090815260408083206001600160a01b0395909516808452949091528120805460ff19166001179055339291907f2f8788117e7eff1d82e926ec794901d17c78024a50270940304540a733656f0d9080a4600190565b5050600090565b6000818152600080516020612a10833981519152602090815260408083206001600160a01b038616845290915290205460ff1615611e77576000818152600080516020612a10833981519152602090815260408083206001600160a01b0395909516808452949091528120805460ff19169055339291907ff6391f5c32d9c69d2a47ea670b442974b53935d1edc7fd64eb21e047a839171b9080a4600190565b6002600080516020612a308339815191525414611f49576002600080516020612a3083398151915255565b633ee5aeb560e01b60005260046000fd5b929092602081519101207fe09149d2123147c5f43d258257fef0b7b969db78269369ebcf5ebb9eef8592f28114600014611ff457506040519160208301937fa79feebba5eca838f5afb25f042ef9dbee2e9824463ec262b652584c92f243638552336040850152606084015260018060a01b0316608083015260a0820152611fee60c082800301601f1981018352826116d5565b51902090565b7f8d7f87ab38a7f75a63dc465e10aadacecfca64c44ca774040b039bfb004e33671461202b576318b6b25f60e21b60005260046000fd5b6040519160208301937fa9c090963b849011e9176737d7fc342936631fb97bbf2f507ad751e58480ff518552336040850152606084015260018060a01b0316608083015260a0820152611fee60c082800301601f1981018352826116d5565b92909342116121cd5783600052600660205260ff604060002054166121bc57612151612157926042856020612160975191012060405160208101917f8b73c3c69bb8fe3d512ecc4cf759cc79239f7b179b0ffacaa9a75d522b39400f835260408201527fc89efdaa54c0f20c7adf612882df0950f5a951637e0307cdcb4c672f298b8bc660608201524660808201523060a082015260a0815261212e60c0826116d5565b5190206040519061190160f01b8252600282015287602282015220923691611729565b906127ba565b909291926127f6565b6001600160a01b031680156121ab576003546001600160a01b03160361219a5760005260066020526040600020600160ff19825416179055565b63d1cc738560e01b60005260046000fd5b638bb79cad60e01b60005260046000fd5b63e544c62f60e01b60005260046000fd5b63288a076f60e21b60005260046000fd5b9035601e19823603018112156115d757016020813591019167ffffffffffffffff82116115d75781360383136115d757565b908060209392818452848401376000828201840152601f01601f1916010190565b95929361ffff6122cd95610100979463ffffffff949b9a9b60018060a01b03168a5260208a0152166040880152166060860152608085015261012060a085015260018060a01b03612281826115f2565b166101208501526122b96122ae61229b60208401846121de565b6060610140890152610180880191612210565b9160408101906121de565b85830361011f190161016087015290612210565b843560c0840152602085013560e0840152936001600160a01b03906122f4906040016115f2565b16910152565b9395949592909260009685156124b6576001600160a01b038516801561247a5761232386611872565b15612434578854899390612345908990309033906001600160a01b031661268d565b8354600154612362918a916001600160a01b0390811691166126d8565b60015484546001600160a01b0391821693911690833b156108ac5787948a936123a292604051998a9889978897636491d4cd60e11b895260048901612231565b039134905af18015610dd0579561241f91817fc2d6d3c0892701506bd7f775f2f5f485b7d3bc699b4ee794236a3c84c6738a06969798612424575b505054600254604080519788526001600160a01b0392831660208901529082169087015292909216606085015261ffff166080840152339290819060a0820190565b0390a2565b61242d916116d5565b38816123dd565b604051630b0f5aa160e11b815260206004820152601960248201527f64657374696e6174696f6e20646f65736e2774206578697374000000000000006044820152606490fd5b604051630b0f5aa160e11b815260206004820152601360248201527264657374696e6174696f6e206973207a65726f60681b6044820152606490fd5b63162908e360e11b8852600488fd5b9395949592909260009685156124b6576001600160a01b038516801561247a576124ee86611872565b15612434578854899390612510908990309033906001600160a01b031661268d565b835460015461252d918a916001600160a01b0390811691166126d8565b60015484546001600160a01b0391821693911690833b156108ac5787948a9361256d92604051998a9889978897636491d4cd60e11b895260048901612231565b039134905af18015610dd0579561241f91817fec00d85a7419eaf32ce126aca75379da78c9f8c7521a12d2b05292035cd2f94896979861242457505054600254604080519788526001600160a01b0392831660208901529082169087015292909216606085015261ffff166080840152339290819060a0820190565b6000805160206129d0833981519152546001600160a01b0316330361260a57565b63118cdaa760e01b6000523360045260246000fd5b600080516020612a9083398151915280546001600160a01b03199081169091556000805160206129d083398151915280549182166001600160a01b0393841690811790915591167f8be0079c531659141344cd1fd0a4f28419497f9722a3daafe3b4186f6b6457e0600080a3565b6040516323b872dd60e01b60208201526001600160a01b0392831660248201529290911660448301526064808301939093529181526126d6916126d16084836116d5565b61287e565b565b60206000604051938285019063095ea7b360e01b825260018060a01b0316958660248701526044860152604485526127116064866116d5565b84519082855af16000513d82612767575b50501561272e57505050565b6126d16126d6936040519063095ea7b360e01b6020830152602482015260006044820152604481526127616064826116d5565b8261287e565b90915061278457506001600160a01b0381163b15155b3880612722565b60011461277d565b60ff600080516020612a508339815191525460401c16156127a957565b631afcd79f60e31b60005260046000fd5b81519190604183036127eb576127e492506020820151906060604084015193015160001a906128e5565b9192909190565b505060009160029190565b9190916004811015612868578061280c57509050565b6000600182036128275763f645eedf60e01b60005260046000fd5b5060028103612845578263fce698f760e01b60005260045260246000fd5b9091600360009214612855575050565b6335e2f38360e21b825260045260249150fd5b634e487b7160e01b600052602160045260246000fd5b906000602091828151910182855af1156128d9576000513d6128d057506001600160a01b0381163b155b6128af5750565b635274afe760e01b60009081526001600160a01b0391909116600452602490fd5b600114156128a8565b6040513d6000823e3d90fd5b91907f7fffffffffffffffffffffffffffffff5d576e7357a4501ddfe92f46681b20a08411612962579160209360809260ff60009560405194855216868401526040830152606082015282805260015afa156128d9576000516001600160a01b038116156129565790600090600090565b50600090600190600090565b50505060009160039190565b90612994575080511561298357602081519101fd5b63d6bda27560e01b60005260046000fd5b815115806129c6575b6129a5575090565b639996b31560e01b60009081526001600160a01b0391909116600452602490fd5b50803b1561299d56fe9016d09d72d40fdae2fd8ceac6b6234c7706214fd39c1cd1e609a0528c199300360894a13ba1a3210667c828492db98dca3e2076cc3735a920a3ca505d382bbc02dd7bc7dec4dceedda775e58dd541e08a116c6c53815c0bd028192f7b6268009b779b17422d0df92223018b32b4d1fa46e071723d6817e2486d003becc55f00f0c57e16840df040f15088dc2f81fe391c3923bec73e23a9662efc9c229c6a00224ddcd460adf9de7c6e6271e8a93026e66a0cec23d4223bbe4cdea09e0b7d34237e158222e3e6968b72b9db0d8043aacf074ad9f650f0d1606b4d82ee432c00e97b137254058bd94f28d2f3eb79e2d34074ffb488d042e3bc958e0a57d2fa22a164736f6c634300081c000a",
  "linkReferences": {},
  "deployedLinkReferences": {}
}