{
  "_format": "hh-sol-artifact-1",
  "contractName": "Withdrawal",
  "sourceName": "contracts/Withdrawal.sol",
  "abi": [
    {
      "inputs": [],
      "name": "AccessControlBadConfirmation",
      "type": "error"
    },
    {
      "inputs": [
        {
          "internalType": "address",
          "name": "account",
          "type": "address"
        },
        {
          "internalType": "bytes32",
          "name": "neededRole",
          "type": "bytes32"
        }
      ],
      "name": "AccessControlUnauthorizedAccount",
      "type": "error"
    },
    {
      "inputs": [],
      "name": "AmlSignatureAlreadyUsed",
      "type": "error"
    },
    {
      "inputs": [],
      "name": "AmlSignatureExpired",
      "type": "error"
    },
    {
      "inputs": [],
      "name": "AmountMustBeGreaterThanZero",
      "type": "error"
    },
    {
      "inputs": [],
      "name": "ECDSAInvalidSignature",
      "type": "error"
    },
    {
      "inputs": [
        {
          "internalType": "uint256",
          "name": "length",
          "type": "uint256"
        }
      ],
      "name": "ECDSAInvalidSignatureLength",
      "type": "error"
    },
    {
      "inputs": [
        {
          "internalType": "bytes32",
          "name": "s",
          "type": "bytes32"
        }
      ],
      "name": "ECDSAInvalidSignatureS",
      "type": "error"
    },
    {
      "inputs": [],
      "name": "InsufficientBalance",
      "type": "error"
    },
    {
      "inputs": [
        {
          "internalType": "string",
          "name": "",
          "type": "string"
        }
      ],
      "name": "InvalidAddress",
      "type": "error"
    },
    {
      "inputs": [],
      "name": "InvalidAmlSignature",
      "type": "error"
    },
    {
      "inputs": [],
      "name": "InvalidAmlSigner",
      "type": "error"
    },
    {
      "inputs": [],
      "name": "InvalidInitialization",
      "type": "error"
    },
    {
      "inputs": [],
      "name": "InvalidMintTransactionHash",
      "type": "error"
    },
    {
      "inputs": [],
      "name": "NotInitializing",
      "type": "error"
    },
    {
      "inputs": [
        {
          "internalType": "address",
          "name": "token",
          "type": "address"
        }
      ],
      "name": "SafeERC20FailedOperation",
      "type": "error"
    },
    {
      "anonymous": false,
      "inputs": [
        {
          "indexed": false,
          "internalType": "uint64",
          "name": "version",
          "type": "uint64"
        }
      ],
      "name": "Initialized",
      "type": "event"
    },
    {
      "anonymous": false,
      "inputs": [
        {
          "indexed": true,
          "internalType": "bytes32",
          "name": "role",
          "type": "bytes32"
        },
        {
          "indexed": true,
          "internalType": "bytes32",
          "name": "previousAdminRole",
          "type": "bytes32"
        },
        {
          "indexed": true,
          "internalType": "bytes32",
          "name": "newAdminRole",
          "type": "bytes32"
        }
      ],
      "name": "RoleAdminChanged",
      "type": "event"
    },
    {
      "anonymous": false,
      "inputs": [
        {
          "indexed": true,
          "internalType": "bytes32",
          "name": "role",
          "type": "bytes32"
        },
        {
          "indexed": true,
          "internalType": "address",
          "name": "account",
          "type": "address"
        },
        {
          "indexed": true,
          "internalType": "address",
          "name": "sender",
          "type": "address"
        }
      ],
      "name": "RoleGranted",
      "type": "event"
    },
    {
      "anonymous": false,
      "inputs": [
        {
          "indexed": true,
          "internalType": "bytes32",
          "name": "role",
          "type": "bytes32"
        },
        {
          "indexed": true,
          "internalType": "address",
          "name": "account",
          "type": "address"
        },
        {
          "indexed": true,
          "internalType": "address",
          "name": "sender",
          "type": "address"
        }
      ],
      "name": "RoleRevoked",
      "type": "event"
    },
    {
      "anonymous": false,
      "inputs": [
        {
          "indexed": false,
          "internalType": "uint256",
          "name": "amount",
          "type": "uint256"
        },
        {
          "indexed": true,
          "internalType": "address",
          "name": "shareToken",
          "type": "address"
        },
        {
          "indexed": true,
          "internalType": "address",
          "name": "burner",
          "type": "address"
        },
        {
          "indexed": true,
          "internalType": "string",
          "name": "mintTransactionHash",
          "type": "string"
        }
      ],
      "name": "TokensBurned",
      "type": "event"
    },
    {
      "anonymous": false,
      "inputs": [
        {
          "indexed": true,
          "internalType": "address",
          "name": "user",
          "type": "address"
        },
        {
          "indexed": false,
          "internalType": "uint256",
          "name": "amount",
          "type": "uint256"
        },
        {
          "indexed": true,
          "internalType": "address",
          "name": "shareToken",
          "type": "address"
        },
        {
          "indexed": true,
          "internalType": "address",
          "name": "paymentToken",
          "type": "address"
        }
      ],
      "name": "Withdraw",
      "type": "event"
    },
    {
      "anonymous": false,
      "inputs": [
        {
          "indexed": true,
          "internalType": "address",
          "name": "shareTokenAddress",
          "type": "address"
        },
        {
          "indexed": true,
          "internalType": "address",
          "name": "paymentTokenAddress",
          "type": "address"
        },
        {
          "indexed": true,
          "internalType": "address",
          "name": "amlSignerAddress",
          "type": "address"
        }
      ],
      "name": "WithdrawalInitialized",
      "type": "event"
    },
    {
      "inputs": [],
      "name": "BURN_ROLE",
      "outputs": [
        {
          "internalType": "bytes32",
          "name": "",
          "type": "bytes32"
        }
      ],
      "stateMutability": "view",
      "type": "function"
    },
    {
      "inputs": [],
      "name": "DEFAULT_ADMIN_ROLE",
      "outputs": [
        {
          "internalType": "bytes32",
          "name": "",
          "type": "bytes32"
        }
      ],
      "stateMutability": "view",
      "type": "function"
    },
    {
      "inputs": [],
      "name": "amlSigner",
      "outputs": [
        {
          "internalType": "address",
          "name": "",
          "type": "address"
        }
      ],
      "stateMutability": "view",
      "type": "function"
    },
    {
      "inputs": [
        {
          "internalType": "uint256",
          "name": "amount",
          "type": "uint256"
        },
        {
          "internalType": "string",
          "name": "mintTransactionHash",
          "type": "string"
        }
      ],
      "name": "burn",
      "outputs": [],
      "stateMutability": "nonpayable",
      "type": "function"
    },
    {
      "inputs": [
        {
          "internalType": "bytes32",
          "name": "role",
          "type": "bytes32"
        }
      ],
      "name": "getRoleAdmin",
      "outputs": [
        {
          "internalType": "bytes32",
          "name": "",
          "type": "bytes32"
        }
      ],
      "stateMutability": "view",
      "type": "function"
    },
    {
      "inputs": [
        {
          "internalType": "bytes32",
          "name": "role",
          "type": "bytes32"
        },
        {
          "internalType": "address",
          "name": "account",
          "type": "address"
        }
      ],
      "name": "grantRole",
      "outputs": [],
      "stateMutability": "nonpayable",
      "type": "function"
    },
    {
      "inputs": [
        {
          "internalType": "bytes32",
          "name": "role",
          "type": "bytes32"
        },
        {
          "internalType": "address",
          "name": "account",
          "type": "address"
        }
      ],
      "name": "hasRole",
      "outputs": [
        {
          "internalType": "bool",
          "name": "",
          "type": "bool"
        }
      ],
      "stateMutability": "view",
      "type": "function"
    },
    {
      "inputs": [
        {
          "internalType": "address",
          "name": "_shareTokenAddress",
          "type": "address"
        },
        {
          "internalType": "address",
          "name": "_paymentTokenAddress",
          "type": "address"
        },
        {
          "internalType": "address",
          "name": "_amlSignerAddress",
          "type": "address"
        },
        {
          "internalType": "address",
          "name": "burnUser",
          "type": "address"
        }
      ],
      "name": "initialize",
      "outputs": [],
      "stateMutability": "nonpayable",
      "type": "function"
    },
    {
      "inputs": [],
      "name": "paymentToken",
      "outputs": [
        {
          "internalType": "address",
          "name": "",
          "type": "address"
        }
      ],
      "stateMutability": "view",
      "type": "function"
    },
    {
      "inputs": [
        {
          "internalType": "bytes32",
          "name": "role",
          "type": "bytes32"
        },
        {
          "internalType": "address",
          "name": "callerConfirmation",
          "type": "address"
        }
      ],
      "name": "renounceRole",
      "outputs": [],
      "stateMutability": "nonpayable",
      "type": "function"
    },
    {
      "inputs": [
        {
          "internalType": "bytes32",
          "name": "role",
          "type": "bytes32"
        },
        {
          "internalType": "address",
          "name": "account",
          "type": "address"
        }
      ],
      "name": "revokeRole",
      "outputs": [],
      "stateMutability": "nonpayable",
      "type": "function"
    },
    {
      "inputs": [],
      "name": "shareToken",
      "outputs": [
        {
          "internalType": "contract ICustomToken",
          "name": "",
          "type": "address"
        }
      ],
      "stateMutability": "view",
      "type": "function"
    },
    {
      "inputs": [
        {
          "internalType": "bytes4",
          "name": "interfaceId",
          "type": "bytes4"
        }
      ],
      "name": "supportsInterface",
      "outputs": [
        {
          "internalType": "bool",
          "name": "",
          "type": "bool"
        }
      ],
      "stateMutability": "view",
      "type": "function"
    },
    {
      "inputs": [
        {
          "internalType": "bytes32",
          "name": "",
          "type": "bytes32"
        }
      ],
      "name": "usedSignatures",
      "outputs": [
        {
          "internalType": "bool",
          "name": "",
          "type": "bool"
        }
      ],
      "stateMutability": "view",
      "type": "function"
    },
    {
      "inputs": [
        {
          "internalType": "uint256",
          "name": "_amount",
          "type": "uint256"
        },
        {
          "internalType": "bytes",
          "name": "_amlSignature",
          "type": "bytes"
        },
        {
          "internalType": "uint256",
          "name": "_amlDeadline",
          "type": "uint256"
        }
      ],
      "name": "withdraw",
      "outputs": [],
      "stateMutability": "nonpayable",
      "type": "function"
    },
    {
      "inputs": [
        {
          "internalType": "uint256",
          "name": "_amount",
          "type": "uint256"
        },
        {
          "internalType": "bytes",
          "name": "_amlSignature",
          "type": "bytes"
        },
        {
          "internalType": "uint256",
          "name": "_amlDeadline",
          "type": "uint256"
        },
        {
          "internalType": "uint256",
          "name": "_permitDeadline",
          "type": "uint256"
        },
        {
          "internalType": "uint8",
          "name": "_v",
          "type": "uint8"
        },
        {
          "internalType": "bytes32",
          "name": "_r",
          "type": "bytes32"
        },
        {
          "internalType": "bytes32",
          "name": "_s",
          "type": "bytes32"
        }
      ],
      "name": "withdrawWithPermit",
      "outputs": [],
      "stateMutability": "nonpayable",
      "type": "function"
    }
  ],
  "bytecode": "0x60808060405234601557611150908161001b8239f35b600080fdfe608080604052600436101561001357600080fd5b600090813560e01c90816301ffc9a71461094357508063248a9ca31461091c5780632f2ff15d146108ea5780633013ce29146108c157806336568abe1461087c5780635922f3c71461077e5780636147da56146107555780636c9fa59e1461072e5780637641e6f31461053b57806391d14854146104e2578063a217fddf146104c6578063b930908f1461049d578063c0aa89a01461042a578063d547741f146103ef578063f8c8765e146101025763f978fd61146100d157600080fd5b346100ff5760203660031901126100ff5760ff60406020926004358152600384522054166040519015158152f35b80fd5b50346100ff5760803660031901126100ff576004356001600160a01b038116908190036103eb57610131610998565b6044356001600160a01b038116908190036103e7576064356001600160a01b03811681036103e357600080516020611104833981519152549260ff8460401c16159367ffffffffffffffff8116801590816103db575b60011490816103d1575b1590816103c8575b506103b95767ffffffffffffffff198116600117600080516020611104833981519152558461038c575b5060ff6000805160206111048339815191525460401c161561037d578415610337576001600160a01b03169081156102f95782156102be5785546001600160a01b0319908116861787556001805482168417905560028054909116841790556102359061022f81610a84565b50610b36565b50604051937fb54fd45a826ea9782a41ca5924adc49769ad92ee0993866d017c19319a36e8998680a4610266575080f35b60207fc7f505b2f371ae2175ee4913f4499e1f2633a7b5936321eed1cdaeb6115181d29168ff00000000000000001960008051602061110483398151915254166000805160206111048339815191525560018152a180f35b604051630b0f5aa160e11b815260206004820152601260248201527124b73b30b634b21020a6a61039b4b3b732b960711b6044820152606490fd5b604051630b0f5aa160e11b815260206004820152601560248201527424b73b30b634b2103830bcb6b2b73a103a37b5b2b760591b6044820152606490fd5b604051630b0f5aa160e11b815260206004820152601860248201527f496e76616c6964207769746864726177616c20746f6b656e00000000000000006044820152606490fd5b631afcd79f60e31b8652600486fd5b68ffffffffffffffffff1916680100000000000000011760008051602061110483398151915255386101c3565b63f92ee8a960e01b8752600487fd5b90501538610199565b303b159150610191565b869150610187565b8480fd5b8380fd5b5080fd5b50346100ff5760403660031901126100ff5761042660043561040f610998565b9061042161041c826109e1565b610a3a565b610c9b565b5080f35b50346100ff5760603660031901126100ff5760043560243567ffffffffffffffff81116104995761045f9036906004016109b3565b60443591831561048a579161048291849361047d8361048797610d3b565b610daa565b610eca565b80f35b635e85ae7360e01b8552600485fd5b8280fd5b50346100ff57806003193601126100ff5760206040516000805160206111248339815191528152f35b50346100ff57806003193601126100ff57602090604051908152f35b50346100ff5760403660031901126100ff5760406104fe610998565b9160043581526000805160206110e4833981519152602052209060018060a01b0316600052602052602060ff604060002054166040519015158152f35b50346100ff5760403660031901126100ff5760043560243567ffffffffffffffff8111610499576105709036906004016109b3565b60008051602061112483398151915284526000805160206110e483398151915260209081526040808620336000908152925290205491929160ff16156107095781156106fa5780156106eb5783546040516370a0823160e01b81523060048201526001600160a01b0390911690602081602481855afa9081156106e05786916106aa575b50831161069b578085913b156103eb57818091602460405180948193630852cd8d60e31b83528960048401525af180156106905761067b575b505060018060a01b03845416928160405192839283378101858152039020916040519182527f5b9d46fcafb9d23a7bfeecc55768d5e506ca28c3a3eea2f1a51704fa25bc02fa60203393a480f35b8161068591610a02565b6103e757833861062d565b6040513d84823e3d90fd5b631e9acf1760e31b8552600485fd5b90506020813d6020116106d8575b816106c560209383610a02565b810103126106d45751386105f4565b8580fd5b3d91506106b8565b6040513d88823e3d90fd5b63643d3cf760e01b8452600484fd5b635e85ae7360e01b8452600484fd5b63e2517d3f60e01b845233600452600080516020611124833981519152602452604484fd5b50346100ff57806003193601126100ff57546040516001600160a01b039091168152602090f35b50346100ff57806003193601126100ff576002546040516001600160a01b039091168152602090f35b50346100ff5760e03660031901126100ff5760043560243567ffffffffffffffff8111610499576107b39036906004016109b3565b604435906084359260ff84168094036106d457841561086d57916107de9186949361047d8388610d3b565b81546001600160a01b0316803b156104995760e48392604051948593849263d505accf60e01b84523360048501523060248501528860448501526064356064850152608484015260a43560a484015260c43560c48401525af180156108625761084c575b5061048790610eca565b9161085b816104879394610a02565b9190610842565b6040513d85823e3d90fd5b635e85ae7360e01b8652600486fd5b50346100ff5760403660031901126100ff57610896610998565b336001600160a01b038216036108b25761042690600435610c9b565b63334bd91960e11b8252600482fd5b50346100ff57806003193601126100ff576001546040516001600160a01b039091168152602090f35b50346100ff5760403660031901126100ff5761042660043561090a610998565b9061091761041c826109e1565b610bf2565b50346100ff5760203660031901126100ff57602061093b6004356109e1565b604051908152f35b9050346103eb5760203660031901126103eb5760043563ffffffff60e01b81168091036104995760209250637965db0b60e01b8114908115610987575b5015158152f35b6301ffc9a760e01b14905038610980565b602435906001600160a01b03821682036109ae57565b600080fd5b9181601f840112156109ae5782359167ffffffffffffffff83116109ae57602083818601950101116109ae57565b6000526000805160206110e483398151915260205260016040600020015490565b90601f8019910116810190811067ffffffffffffffff821117610a2457604052565b634e487b7160e01b600052604160045260246000fd5b60008181526000805160206110e48339815191526020908152604080832033845290915290205460ff1615610a6c5750565b63e2517d3f60e01b6000523360045260245260446000fd5b6001600160a01b03811660009081527fb7db2dd08fcb62d0c9e08c51941cae53c267786a0b75803fb7960902fc8ef97d602052604090205460ff16610b30576001600160a01b031660008181527fb7db2dd08fcb62d0c9e08c51941cae53c267786a0b75803fb7960902fc8ef97d60205260408120805460ff191660011790553391907f2f8788117e7eff1d82e926ec794901d17c78024a50270940304540a733656f0d8180a4600190565b50600090565b6001600160a01b03811660009081527f5a9c57bd7b5011b34bc70988dc11c44b0d52e6a1a9ec425ce2d00d4b0dd2822c602052604090205460ff16610b30576001600160a01b031660008181527f5a9c57bd7b5011b34bc70988dc11c44b0d52e6a1a9ec425ce2d00d4b0dd2822c60205260408120805460ff19166001179055339190600080516020611124833981519152907f2f8788117e7eff1d82e926ec794901d17c78024a50270940304540a733656f0d9080a4600190565b60008181526000805160206110e4833981519152602090815260408083206001600160a01b038616845290915290205460ff16610c945760008181526000805160206110e4833981519152602090815260408083206001600160a01b0395909516808452949091528120805460ff19166001179055339291907f2f8788117e7eff1d82e926ec794901d17c78024a50270940304540a733656f0d9080a4600190565b5050600090565b60008181526000805160206110e4833981519152602090815260408083206001600160a01b038616845290915290205460ff1615610c945760008181526000805160206110e4833981519152602090815260408083206001600160a01b0395909516808452949091528120805460ff19169055339291907ff6391f5c32d9c69d2a47ea670b442974b53935d1edc7fd64eb21e047a839171b9080a4600190565b60005491600154916040519260208401943360601b86526bffffffffffffffffffffffff199060601b1660348501526bffffffffffffffffffffffff199060601b166048840152605c8301523060601b607c830152609082015260908152610da460b082610a02565b51902090565b92919060018060a01b0360025416924211610eb95783600052600360205260ff60406000205416610ea8577f19457468657265756d205369676e6564204d6573736167653a0a33320000000060005283601c52603c60002067ffffffffffffffff8311610a245760405190610e29601f8501601f191660200183610a02565b83825236848401116109ae576000602085610e5896610e4f968387013784010152610f96565b90929192610fd2565b6001600160a01b03168015610e975703610e865760005260036020526040600020600160ff19825416179055565b63d1cc738560e01b60005260046000fd5b638bb79cad60e01b60005260046000fd5b63e544c62f60e01b60005260046000fd5b63288a076f60e21b60005260046000fd5b60018060a01b036000541660206000604051828101906323b872dd60e01b825233602482015230604482015285606482015260648152610f0b608482610a02565b519082855af115610f8a576000513d610f815750803b155b610f6d57506000546001546040519283526001600160a01b039081169291169033907f9dfef32f0f1af6520e7a4f8eff8cc6a3444943d083e156ae859ee6002c28b02990602090a4565b635274afe760e01b60005260045260246000fd5b60011415610f23565b6040513d6000823e3d90fd5b8151919060418303610fc757610fc092506020820151906060604084015193015160001a9061105a565b9192909190565b505060009160029190565b91909160048110156110445780610fe857509050565b6000600182036110035763f645eedf60e01b60005260046000fd5b5060028103611021578263fce698f760e01b60005260045260246000fd5b9091600360009214611031575050565b6335e2f38360e21b825260045260249150fd5b634e487b7160e01b600052602160045260246000fd5b91907f7fffffffffffffffffffffffffffffff5d576e7357a4501ddfe92f46681b20a084116110d7579160209360809260ff60009560405194855216868401526040830152606082015282805260015afa15610f8a576000516001600160a01b038116156110cb5790600090600090565b50600090600190600090565b5050506000916003919056fe02dd7bc7dec4dceedda775e58dd541e08a116c6c53815c0bd028192f7b626800f0c57e16840df040f15088dc2f81fe391c3923bec73e23a9662efc9c229c6a00e97b137254058bd94f28d2f3eb79e2d34074ffb488d042e3bc958e0a57d2fa22a164736f6c634300081c000a",
  "linkReferences": {},
  "deployedLinkReferences": {}
}