{
  "_format": "hh-sol-artifact-1",
  "contractName": "Withdrawal",
  "sourceName": "contracts/Withdrawal.sol",
  "abi": [
    {
      "inputs": [],
      "name": "AccessControlBadConfirmation",
      "type": "error"
    },
    {
      "inputs": [
        {
          "internalType": "address",
          "name": "account",
          "type": "address"
        },
        {
          "internalType": "bytes32",
          "name": "neededRole",
          "type": "bytes32"
        }
      ],
      "name": "AccessControlUnauthorizedAccount",
      "type": "error"
    },
    {
      "inputs": [],
      "name": "AmlSignatureAlreadyUsed",
      "type": "error"
    },
    {
      "inputs": [],
      "name": "AmlSignatureExpired",
      "type": "error"
    },
    {
      "inputs": [],
      "name": "AmountMustBeGreaterThanZero",
      "type": "error"
    },
    {
      "inputs": [],
      "name": "ECDSAInvalidSignature",
      "type": "error"
    },
    {
      "inputs": [
        {
          "internalType": "uint256",
          "name": "length",
          "type": "uint256"
        }
      ],
      "name": "ECDSAInvalidSignatureLength",
      "type": "error"
    },
    {
      "inputs": [
        {
          "internalType": "bytes32",
          "name": "s",
          "type": "bytes32"
        }
      ],
      "name": "ECDSAInvalidSignatureS",
      "type": "error"
    },
    {
      "inputs": [],
      "name": "InsufficientBalance",
      "type": "error"
    },
    {
      "inputs": [
        {
          "internalType": "string",
          "name": "",
          "type": "string"
        }
      ],
      "name": "InvalidAddress",
      "type": "error"
    },
    {
      "inputs": [],
      "name": "InvalidAmlSignature",
      "type": "error"
    },
    {
      "inputs": [],
      "name": "InvalidAmlSigner",
      "type": "error"
    },
    {
      "inputs": [],
      "name": "InvalidInitialization",
      "type": "error"
    },
    {
      "inputs": [],
      "name": "InvalidMintTransactionHash",
      "type": "error"
    },
    {
      "inputs": [],
      "name": "NotInitializing",
      "type": "error"
    },
    {
      "inputs": [
        {
          "internalType": "address",
          "name": "token",
          "type": "address"
        }
      ],
      "name": "SafeERC20FailedOperation",
      "type": "error"
    },
    {
      "anonymous": false,
      "inputs": [
        {
          "indexed": false,
          "internalType": "uint64",
          "name": "version",
          "type": "uint64"
        }
      ],
      "name": "Initialized",
      "type": "event"
    },
    {
      "anonymous": false,
      "inputs": [
        {
          "indexed": true,
          "internalType": "bytes32",
          "name": "role",
          "type": "bytes32"
        },
        {
          "indexed": true,
          "internalType": "bytes32",
          "name": "previousAdminRole",
          "type": "bytes32"
        },
        {
          "indexed": true,
          "internalType": "bytes32",
          "name": "newAdminRole",
          "type": "bytes32"
        }
      ],
      "name": "RoleAdminChanged",
      "type": "event"
    },
    {
      "anonymous": false,
      "inputs": [
        {
          "indexed": true,
          "internalType": "bytes32",
          "name": "role",
          "type": "bytes32"
        },
        {
          "indexed": true,
          "internalType": "address",
          "name": "account",
          "type": "address"
        },
        {
          "indexed": true,
          "internalType": "address",
          "name": "sender",
          "type": "address"
        }
      ],
      "name": "RoleGranted",
      "type": "event"
    },
    {
      "anonymous": false,
      "inputs": [
        {
          "indexed": true,
          "internalType": "bytes32",
          "name": "role",
          "type": "bytes32"
        },
        {
          "indexed": true,
          "internalType": "address",
          "name": "account",
          "type": "address"
        },
        {
          "indexed": true,
          "internalType": "address",
          "name": "sender",
          "type": "address"
        }
      ],
      "name": "RoleRevoked",
      "type": "event"
    },
    {
      "anonymous": false,
      "inputs": [
        {
          "indexed": false,
          "internalType": "uint256",
          "name": "amount",
          "type": "uint256"
        },
        {
          "indexed": false,
          "internalType": "address",
          "name": "shareToken",
          "type": "address"
        },
        {
          "indexed": false,
          "internalType": "address",
          "name": "burner",
          "type": "address"
        },
        {
          "indexed": true,
          "internalType": "string",
          "name": "mintTransactionHash",
          "type": "string"
        }
      ],
      "name": "TokensBurned",
      "type": "event"
    },
    {
      "anonymous": false,
      "inputs": [
        {
          "indexed": true,
          "internalType": "address",
          "name": "user",
          "type": "address"
        },
        {
          "indexed": false,
          "internalType": "uint256",
          "name": "amount",
          "type": "uint256"
        },
        {
          "indexed": false,
          "internalType": "address",
          "name": "shareToken",
          "type": "address"
        },
        {
          "indexed": false,
          "internalType": "address",
          "name": "paymentToken",
          "type": "address"
        }
      ],
      "name": "Withdraw",
      "type": "event"
    },
    {
      "anonymous": false,
      "inputs": [
        {
          "indexed": false,
          "internalType": "address",
          "name": "shareTokenAddress",
          "type": "address"
        },
        {
          "indexed": false,
          "internalType": "address",
          "name": "paymentTokenAddress",
          "type": "address"
        },
        {
          "indexed": false,
          "internalType": "address",
          "name": "amlSignerAddress",
          "type": "address"
        }
      ],
      "name": "WithdrawalInitialized",
      "type": "event"
    },
    {
      "inputs": [],
      "name": "BURN_ADMIN_ROLE",
      "outputs": [
        {
          "internalType": "bytes32",
          "name": "",
          "type": "bytes32"
        }
      ],
      "stateMutability": "view",
      "type": "function"
    },
    {
      "inputs": [],
      "name": "BURN_ROLE",
      "outputs": [
        {
          "internalType": "bytes32",
          "name": "",
          "type": "bytes32"
        }
      ],
      "stateMutability": "view",
      "type": "function"
    },
    {
      "inputs": [],
      "name": "DEFAULT_ADMIN_ROLE",
      "outputs": [
        {
          "internalType": "bytes32",
          "name": "",
          "type": "bytes32"
        }
      ],
      "stateMutability": "view",
      "type": "function"
    },
    {
      "inputs": [],
      "name": "amlSigner",
      "outputs": [
        {
          "internalType": "address",
          "name": "",
          "type": "address"
        }
      ],
      "stateMutability": "view",
      "type": "function"
    },
    {
      "inputs": [
        {
          "internalType": "uint256",
          "name": "amount",
          "type": "uint256"
        },
        {
          "internalType": "string",
          "name": "mintTransactionHash",
          "type": "string"
        }
      ],
      "name": "burn",
      "outputs": [],
      "stateMutability": "nonpayable",
      "type": "function"
    },
    {
      "inputs": [
        {
          "internalType": "bytes32",
          "name": "role",
          "type": "bytes32"
        }
      ],
      "name": "getRoleAdmin",
      "outputs": [
        {
          "internalType": "bytes32",
          "name": "",
          "type": "bytes32"
        }
      ],
      "stateMutability": "view",
      "type": "function"
    },
    {
      "inputs": [
        {
          "internalType": "bytes32",
          "name": "role",
          "type": "bytes32"
        },
        {
          "internalType": "address",
          "name": "account",
          "type": "address"
        }
      ],
      "name": "grantRole",
      "outputs": [],
      "stateMutability": "nonpayable",
      "type": "function"
    },
    {
      "inputs": [
        {
          "internalType": "bytes32",
          "name": "role",
          "type": "bytes32"
        },
        {
          "internalType": "address",
          "name": "account",
          "type": "address"
        }
      ],
      "name": "hasRole",
      "outputs": [
        {
          "internalType": "bool",
          "name": "",
          "type": "bool"
        }
      ],
      "stateMutability": "view",
      "type": "function"
    },
    {
      "inputs": [
        {
          "internalType": "address",
          "name": "_shareTokenAddress",
          "type": "address"
        },
        {
          "internalType": "address",
          "name": "_paymentTokenAddress",
          "type": "address"
        },
        {
          "internalType": "address",
          "name": "_amlSignerAddress",
          "type": "address"
        },
        {
          "internalType": "address",
          "name": "burnAdminAddress",
          "type": "address"
        }
      ],
      "name": "initialize",
      "outputs": [],
      "stateMutability": "nonpayable",
      "type": "function"
    },
    {
      "inputs": [],
      "name": "paymentToken",
      "outputs": [
        {
          "internalType": "address",
          "name": "",
          "type": "address"
        }
      ],
      "stateMutability": "view",
      "type": "function"
    },
    {
      "inputs": [
        {
          "internalType": "bytes32",
          "name": "role",
          "type": "bytes32"
        },
        {
          "internalType": "address",
          "name": "callerConfirmation",
          "type": "address"
        }
      ],
      "name": "renounceRole",
      "outputs": [],
      "stateMutability": "nonpayable",
      "type": "function"
    },
    {
      "inputs": [
        {
          "internalType": "bytes32",
          "name": "role",
          "type": "bytes32"
        },
        {
          "internalType": "address",
          "name": "account",
          "type": "address"
        }
      ],
      "name": "revokeRole",
      "outputs": [],
      "stateMutability": "nonpayable",
      "type": "function"
    },
    {
      "inputs": [],
      "name": "shareToken",
      "outputs": [
        {
          "internalType": "contract ICustomToken",
          "name": "",
          "type": "address"
        }
      ],
      "stateMutability": "view",
      "type": "function"
    },
    {
      "inputs": [
        {
          "internalType": "bytes4",
          "name": "interfaceId",
          "type": "bytes4"
        }
      ],
      "name": "supportsInterface",
      "outputs": [
        {
          "internalType": "bool",
          "name": "",
          "type": "bool"
        }
      ],
      "stateMutability": "view",
      "type": "function"
    },
    {
      "inputs": [
        {
          "internalType": "bytes32",
          "name": "",
          "type": "bytes32"
        }
      ],
      "name": "usedSignatures",
      "outputs": [
        {
          "internalType": "bool",
          "name": "",
          "type": "bool"
        }
      ],
      "stateMutability": "view",
      "type": "function"
    },
    {
      "inputs": [
        {
          "internalType": "uint256",
          "name": "_amount",
          "type": "uint256"
        },
        {
          "internalType": "bytes",
          "name": "_amlSignature",
          "type": "bytes"
        },
        {
          "internalType": "uint256",
          "name": "_amlDeadline",
          "type": "uint256"
        }
      ],
      "name": "withdraw",
      "outputs": [],
      "stateMutability": "nonpayable",
      "type": "function"
    },
    {
      "inputs": [
        {
          "internalType": "uint256",
          "name": "_amount",
          "type": "uint256"
        },
        {
          "internalType": "bytes",
          "name": "_amlSignature",
          "type": "bytes"
        },
        {
          "internalType": "uint256",
          "name": "_amlDeadline",
          "type": "uint256"
        },
        {
          "internalType": "uint256",
          "name": "_permitDeadline",
          "type": "uint256"
        },
        {
          "internalType": "uint8",
          "name": "_v",
          "type": "uint8"
        },
        {
          "internalType": "bytes32",
          "name": "_r",
          "type": "bytes32"
        },
        {
          "internalType": "bytes32",
          "name": "_s",
          "type": "bytes32"
        }
      ],
      "name": "withdrawWithPermit",
      "outputs": [],
      "stateMutability": "nonpayable",
      "type": "function"
    }
  ],
  "bytecode": "0x6080806040523460155761124e908161001b8239f35b600080fdfe608080604052600436101561001357600080fd5b600090813560e01c90816301ffc9a714610a7057508063248a9ca314610a495780632f2ff15d14610a175780633013ce29146109ee57806336568abe146109a95780635922f3c7146108ab5780636147da56146108825780636c9fa59e1461085b5780637641e6f31461064657806391d14854146105ed578063a217fddf146105d1578063b3cb199114610596578063b930908f1461056d578063c0aa89a0146104fa578063d547741f146104bf578063f8c8765e1461010d5763f978fd61146100dc57600080fd5b3461010a57602036600319011261010a5760ff60406020926004358152600384522054166040519015158152f35b80fd5b503461010a57608036600319011261010a576004356001600160a01b038116908190036104bb5761013c610ac5565b906044356001600160a01b03811691908290036104b757606435906001600160a01b03821682036104b357600080516020611202833981519152549360ff8560401c16159467ffffffffffffffff8116801590816104ab575b60011490816104a1575b159081610498575b506104895767ffffffffffffffff198116600117600080516020611202833981519152558561045c575b5060ff6000805160206112028339815191525460401c161561044d578115610407576001600160a01b03169283156103c957801561038e577fb54fd45a826ea9782a41ca5924adc49769ad92ee0993866d017c19319a36e8999361031b606094846001600160601b0360a01b8a5416178955826001600160601b0360a01b6001541617600155836001600160601b0360a01b600254161760025560008051602061122283398151915289526000805160206111e28339815191526020527f0a30bae60ea06f344bebb63f4eb39612b0328589ecd1132302e75991373fee2d600160408b2001546000805160206112228339815191528b526000805160206111e283398151915260205281600160408d2001556000805160206112228339815191527fbd79b86ffe0ab8e8776151514217cd7cacd52c909f66475c3af44e129f0b00ff8c80a4610bb1565b5060405192835260208301526040820152a16103345780f35b68ff0000000000000000196000805160206112028339815191525416600080516020611202833981519152557fc7f505b2f371ae2175ee4913f4499e1f2633a7b5936321eed1cdaeb6115181d2602060405160018152a180f35b604051630b0f5aa160e11b815260206004820152601260248201527124b73b30b634b21020a6a61039b4b3b732b960711b6044820152606490fd5b604051630b0f5aa160e11b815260206004820152601560248201527424b73b30b634b2103830bcb6b2b73a103a37b5b2b760591b6044820152606490fd5b604051630b0f5aa160e11b815260206004820152601860248201527f496e76616c6964207769746864726177616c20746f6b656e00000000000000006044820152606490fd5b631afcd79f60e31b8652600486fd5b68ffffffffffffffffff1916680100000000000000011760008051602061120283398151915255386101d1565b63f92ee8a960e01b8752600487fd5b905015386101a7565b303b15915061019f565b879150610195565b8480fd5b8380fd5b5080fd5b503461010a57604036600319011261010a576104f66004356104df610ac5565b906104f16104ec82610b0e565b610b67565b610d2e565b5080f35b503461010a57606036600319011261010a5760043560243567ffffffffffffffff81116105695761052f903690600401610ae0565b60443591831561055a579161055291849361054d8361055797610dce565b610e20565b610fc0565b80f35b635e85ae7360e01b8552600485fd5b8280fd5b503461010a578060031936011261010a5760206040516000805160206112228339815191528152f35b503461010a578060031936011261010a5760206040517f0a30bae60ea06f344bebb63f4eb39612b0328589ecd1132302e75991373fee2d8152f35b503461010a578060031936011261010a57602090604051908152f35b503461010a57604036600319011261010a576040610609610ac5565b9160043581526000805160206111e2833981519152602052209060018060a01b0316600052602052602060ff604060002054166040519015158152f35b503461010a57604036600319011261010a5760043560243567ffffffffffffffff81116105695761067b903690600401610ae0565b909160008051602061122283398151915284526000805160206111e28339815191526020526040842060018060a01b03331660005260205260ff60406000205416156108365780156108275781156108185783546040516370a0823160e01b81523060048201526001600160a01b0390911690602081602481855afa90811561080d5786916107d7575b5082116107c8578085913b156104bb57818091602460405180948193630852cd8d60e31b83528860048401525af180156107bd576107a8575b505083546040516001600160a01b03909116937f5b9d46fcafb9d23a7bfeecc55768d5e506ca28c3a3eea2f1a51704fa25bc02fa938291819083378101868152039020604080519283526001600160a01b039490941660208301523393820193909352606090a280f35b816107b291610b2f565b6104b757833861073e565b6040513d84823e3d90fd5b631e9acf1760e31b8552600485fd5b90506020813d602011610805575b816107f260209383610b2f565b81010312610801575138610705565b8580fd5b3d91506107e5565b6040513d88823e3d90fd5b63643d3cf760e01b8452600484fd5b635e85ae7360e01b8452600484fd5b63e2517d3f60e01b845233600452600080516020611222833981519152602452604484fd5b503461010a578060031936011261010a57546040516001600160a01b039091168152602090f35b503461010a578060031936011261010a576002546040516001600160a01b039091168152602090f35b503461010a5760e036600319011261010a5760043560243567ffffffffffffffff8111610569576108e0903690600401610ae0565b604435906084359260ff841680940361080157841561099a579161090b9186949361054d8388610dce565b81546001600160a01b0316803b156105695760e48392604051948593849263d505accf60e01b84523360048501523060248501528860448501526064356064850152608484015260a43560a484015260c43560c48401525af1801561098f57610979575b5061055790610fc0565b91610988816105579394610b2f565b919061096f565b6040513d85823e3d90fd5b635e85ae7360e01b8652600486fd5b503461010a57604036600319011261010a576109c3610ac5565b336001600160a01b038216036109df576104f690600435610d2e565b63334bd91960e11b8252600482fd5b503461010a578060031936011261010a576001546040516001600160a01b039091168152602090f35b503461010a57604036600319011261010a576104f6600435610a37610ac5565b90610a446104ec82610b0e565b610c85565b503461010a57602036600319011261010a576020610a68600435610b0e565b604051908152f35b9050346104bb5760203660031901126104bb5760043563ffffffff60e01b81168091036105695760209250637965db0b60e01b8114908115610ab4575b5015158152f35b6301ffc9a760e01b14905038610aad565b602435906001600160a01b0382168203610adb57565b600080fd5b9181601f84011215610adb5782359167ffffffffffffffff8311610adb5760208381860195010111610adb57565b6000526000805160206111e283398151915260205260016040600020015490565b90601f8019910116810190811067ffffffffffffffff821117610b5157604052565b634e487b7160e01b600052604160045260246000fd5b60008181526000805160206111e28339815191526020908152604080832033845290915290205460ff1615610b995750565b63e2517d3f60e01b6000523360045260245260446000fd5b6001600160a01b03811660009081527f99d7401b6c7fae7e32559c2f2939eb2955c262626d0b69e0397921638ab2ab8a602052604090205460ff16610c7f576001600160a01b031660008181527f99d7401b6c7fae7e32559c2f2939eb2955c262626d0b69e0397921638ab2ab8a60205260408120805460ff191660011790553391907f0a30bae60ea06f344bebb63f4eb39612b0328589ecd1132302e75991373fee2d907f2f8788117e7eff1d82e926ec794901d17c78024a50270940304540a733656f0d9080a4600190565b50600090565b60008181526000805160206111e2833981519152602090815260408083206001600160a01b038616845290915290205460ff16610d275760008181526000805160206111e2833981519152602090815260408083206001600160a01b0395909516808452949091528120805460ff19166001179055339291907f2f8788117e7eff1d82e926ec794901d17c78024a50270940304540a733656f0d9080a4600190565b5050600090565b60008181526000805160206111e2833981519152602090815260408083206001600160a01b038616845290915290205460ff1615610d275760008181526000805160206111e2833981519152602090815260408083206001600160a01b0395909516808452949091528120805460ff19169055339291907ff6391f5c32d9c69d2a47ea670b442974b53935d1edc7fd64eb21e047a839171b9080a4600190565b906040519060208201927f670494645826f51c96acb2044f178b6747d8e4e4da4056015e58f6cc15f1561d84523360408401526060830152608082015260808152610e1a60a082610b2f565b51902090565b924211610faf5782600052600360205260ff60406000205416610f9e57604260405160208101907f8b73c3c69bb8fe3d512ecc4cf759cc79239f7b179b0ffacaa9a75d522b39400f82527f5c2eed7e29b3502a726faf503ac4316b7101f3da813654e8df02c13449e03da860408201527fc89efdaa54c0f20c7adf612882df0950f5a951637e0307cdcb4c672f298b8bc660608201524660808201523060a082015260a08152610ed160c082610b2f565b5190206040519061190160f01b825260028201528460228201522067ffffffffffffffff8311610b515760405190610f13601f8501601f191660200183610b2f565b8382523684840111610adb576000602085610f4296610f39968387013784010152611094565b909291926110d0565b6001600160a01b03168015610f8d576002546001600160a01b031603610f7c5760005260036020526040600020600160ff19825416179055565b63d1cc738560e01b60005260046000fd5b638bb79cad60e01b60005260046000fd5b63e544c62f60e01b60005260046000fd5b63288a076f60e21b60005260046000fd5b60018060a01b036000541660206000604051828101906323b872dd60e01b825233602482015230604482015285606482015260648152611001608482610b2f565b519082855af115611088576000513d61107f5750803b155b61106b5750600054600154604080519384526001600160a01b03928316602085015291169082015233907f9dfef32f0f1af6520e7a4f8eff8cc6a3444943d083e156ae859ee6002c28b02990606090a2565b635274afe760e01b60005260045260246000fd5b60011415611019565b6040513d6000823e3d90fd5b81519190604183036110c5576110be92506020820151906060604084015193015160001a90611158565b9192909190565b505060009160029190565b919091600481101561114257806110e657509050565b6000600182036111015763f645eedf60e01b60005260046000fd5b506002810361111f578263fce698f760e01b60005260045260246000fd5b909160036000921461112f575050565b6335e2f38360e21b825260045260249150fd5b634e487b7160e01b600052602160045260246000fd5b91907f7fffffffffffffffffffffffffffffff5d576e7357a4501ddfe92f46681b20a084116111d5579160209360809260ff60009560405194855216868401526040830152606082015282805260015afa15611088576000516001600160a01b038116156111c95790600090600090565b50600090600190600090565b5050506000916003919056fe02dd7bc7dec4dceedda775e58dd541e08a116c6c53815c0bd028192f7b626800f0c57e16840df040f15088dc2f81fe391c3923bec73e23a9662efc9c229c6a00e97b137254058bd94f28d2f3eb79e2d34074ffb488d042e3bc958e0a57d2fa22a164736f6c634300081c000a",
  "linkReferences": {},
  "deployedLinkReferences": {}
}