{
  "_format": "hh-sol-artifact-1",
  "contractName": "Withdrawal",
  "sourceName": "contracts/Withdrawal.sol",
  "abi": [
    {
      "inputs": [],
      "name": "AccessControlBadConfirmation",
      "type": "error"
    },
    {
      "inputs": [
        {
          "internalType": "address",
          "name": "account",
          "type": "address"
        },
        {
          "internalType": "bytes32",
          "name": "neededRole",
          "type": "bytes32"
        }
      ],
      "name": "AccessControlUnauthorizedAccount",
      "type": "error"
    },
    {
      "inputs": [],
      "name": "AmlSignatureAlreadyUsed",
      "type": "error"
    },
    {
      "inputs": [],
      "name": "AmlSignatureExpired",
      "type": "error"
    },
    {
      "inputs": [],
      "name": "AmountMustBeGreaterThanZero",
      "type": "error"
    },
    {
      "inputs": [],
      "name": "ECDSAInvalidSignature",
      "type": "error"
    },
    {
      "inputs": [
        {
          "internalType": "uint256",
          "name": "length",
          "type": "uint256"
        }
      ],
      "name": "ECDSAInvalidSignatureLength",
      "type": "error"
    },
    {
      "inputs": [
        {
          "internalType": "bytes32",
          "name": "s",
          "type": "bytes32"
        }
      ],
      "name": "ECDSAInvalidSignatureS",
      "type": "error"
    },
    {
      "inputs": [],
      "name": "InsufficientBalance",
      "type": "error"
    },
    {
      "inputs": [
        {
          "internalType": "string",
          "name": "",
          "type": "string"
        }
      ],
      "name": "InvalidAddress",
      "type": "error"
    },
    {
      "inputs": [],
      "name": "InvalidAmlSignature",
      "type": "error"
    },
    {
      "inputs": [],
      "name": "InvalidAmlSigner",
      "type": "error"
    },
    {
      "inputs": [],
      "name": "InvalidInitialization",
      "type": "error"
    },
    {
      "inputs": [],
      "name": "InvalidMintTransactionHash",
      "type": "error"
    },
    {
      "inputs": [],
      "name": "NotInitializing",
      "type": "error"
    },
    {
      "inputs": [
        {
          "internalType": "address",
          "name": "token",
          "type": "address"
        }
      ],
      "name": "SafeERC20FailedOperation",
      "type": "error"
    },
    {
      "anonymous": false,
      "inputs": [
        {
          "indexed": false,
          "internalType": "uint64",
          "name": "version",
          "type": "uint64"
        }
      ],
      "name": "Initialized",
      "type": "event"
    },
    {
      "anonymous": false,
      "inputs": [
        {
          "indexed": true,
          "internalType": "bytes32",
          "name": "role",
          "type": "bytes32"
        },
        {
          "indexed": true,
          "internalType": "bytes32",
          "name": "previousAdminRole",
          "type": "bytes32"
        },
        {
          "indexed": true,
          "internalType": "bytes32",
          "name": "newAdminRole",
          "type": "bytes32"
        }
      ],
      "name": "RoleAdminChanged",
      "type": "event"
    },
    {
      "anonymous": false,
      "inputs": [
        {
          "indexed": true,
          "internalType": "bytes32",
          "name": "role",
          "type": "bytes32"
        },
        {
          "indexed": true,
          "internalType": "address",
          "name": "account",
          "type": "address"
        },
        {
          "indexed": true,
          "internalType": "address",
          "name": "sender",
          "type": "address"
        }
      ],
      "name": "RoleGranted",
      "type": "event"
    },
    {
      "anonymous": false,
      "inputs": [
        {
          "indexed": true,
          "internalType": "bytes32",
          "name": "role",
          "type": "bytes32"
        },
        {
          "indexed": true,
          "internalType": "address",
          "name": "account",
          "type": "address"
        },
        {
          "indexed": true,
          "internalType": "address",
          "name": "sender",
          "type": "address"
        }
      ],
      "name": "RoleRevoked",
      "type": "event"
    },
    {
      "anonymous": false,
      "inputs": [
        {
          "indexed": false,
          "internalType": "uint256",
          "name": "amount",
          "type": "uint256"
        },
        {
          "indexed": false,
          "internalType": "address",
          "name": "shareToken",
          "type": "address"
        },
        {
          "indexed": false,
          "internalType": "address",
          "name": "burner",
          "type": "address"
        },
        {
          "indexed": true,
          "internalType": "string",
          "name": "mintTransactionHash",
          "type": "string"
        }
      ],
      "name": "TokensBurned",
      "type": "event"
    },
    {
      "anonymous": false,
      "inputs": [
        {
          "indexed": true,
          "internalType": "address",
          "name": "user",
          "type": "address"
        },
        {
          "indexed": false,
          "internalType": "uint256",
          "name": "amount",
          "type": "uint256"
        },
        {
          "indexed": false,
          "internalType": "address",
          "name": "shareToken",
          "type": "address"
        },
        {
          "indexed": false,
          "internalType": "address",
          "name": "paymentToken",
          "type": "address"
        }
      ],
      "name": "Withdraw",
      "type": "event"
    },
    {
      "anonymous": false,
      "inputs": [
        {
          "indexed": false,
          "internalType": "address",
          "name": "shareTokenAddress",
          "type": "address"
        },
        {
          "indexed": false,
          "internalType": "address",
          "name": "paymentTokenAddress",
          "type": "address"
        },
        {
          "indexed": false,
          "internalType": "address",
          "name": "amlSignerAddress",
          "type": "address"
        }
      ],
      "name": "WithdrawalInitialized",
      "type": "event"
    },
    {
      "inputs": [],
      "name": "BURN_ADMIN_ROLE",
      "outputs": [
        {
          "internalType": "bytes32",
          "name": "",
          "type": "bytes32"
        }
      ],
      "stateMutability": "view",
      "type": "function"
    },
    {
      "inputs": [],
      "name": "BURN_ROLE",
      "outputs": [
        {
          "internalType": "bytes32",
          "name": "",
          "type": "bytes32"
        }
      ],
      "stateMutability": "view",
      "type": "function"
    },
    {
      "inputs": [],
      "name": "DEFAULT_ADMIN_ROLE",
      "outputs": [
        {
          "internalType": "bytes32",
          "name": "",
          "type": "bytes32"
        }
      ],
      "stateMutability": "view",
      "type": "function"
    },
    {
      "inputs": [],
      "name": "amlSigner",
      "outputs": [
        {
          "internalType": "address",
          "name": "",
          "type": "address"
        }
      ],
      "stateMutability": "view",
      "type": "function"
    },
    {
      "inputs": [
        {
          "internalType": "uint256",
          "name": "amount",
          "type": "uint256"
        },
        {
          "internalType": "string",
          "name": "mintTransactionHash",
          "type": "string"
        }
      ],
      "name": "burn",
      "outputs": [],
      "stateMutability": "nonpayable",
      "type": "function"
    },
    {
      "inputs": [
        {
          "internalType": "bytes32",
          "name": "role",
          "type": "bytes32"
        }
      ],
      "name": "getRoleAdmin",
      "outputs": [
        {
          "internalType": "bytes32",
          "name": "",
          "type": "bytes32"
        }
      ],
      "stateMutability": "view",
      "type": "function"
    },
    {
      "inputs": [
        {
          "internalType": "bytes32",
          "name": "role",
          "type": "bytes32"
        },
        {
          "internalType": "address",
          "name": "account",
          "type": "address"
        }
      ],
      "name": "grantRole",
      "outputs": [],
      "stateMutability": "nonpayable",
      "type": "function"
    },
    {
      "inputs": [
        {
          "internalType": "bytes32",
          "name": "role",
          "type": "bytes32"
        },
        {
          "internalType": "address",
          "name": "account",
          "type": "address"
        }
      ],
      "name": "hasRole",
      "outputs": [
        {
          "internalType": "bool",
          "name": "",
          "type": "bool"
        }
      ],
      "stateMutability": "view",
      "type": "function"
    },
    {
      "inputs": [
        {
          "internalType": "address",
          "name": "_shareTokenAddress",
          "type": "address"
        },
        {
          "internalType": "address",
          "name": "_paymentTokenAddress",
          "type": "address"
        },
        {
          "internalType": "address",
          "name": "_amlSignerAddress",
          "type": "address"
        },
        {
          "internalType": "address",
          "name": "burnUser",
          "type": "address"
        }
      ],
      "name": "initialize",
      "outputs": [],
      "stateMutability": "nonpayable",
      "type": "function"
    },
    {
      "inputs": [],
      "name": "paymentToken",
      "outputs": [
        {
          "internalType": "address",
          "name": "",
          "type": "address"
        }
      ],
      "stateMutability": "view",
      "type": "function"
    },
    {
      "inputs": [
        {
          "internalType": "bytes32",
          "name": "role",
          "type": "bytes32"
        },
        {
          "internalType": "address",
          "name": "callerConfirmation",
          "type": "address"
        }
      ],
      "name": "renounceRole",
      "outputs": [],
      "stateMutability": "nonpayable",
      "type": "function"
    },
    {
      "inputs": [
        {
          "internalType": "bytes32",
          "name": "role",
          "type": "bytes32"
        },
        {
          "internalType": "address",
          "name": "account",
          "type": "address"
        }
      ],
      "name": "revokeRole",
      "outputs": [],
      "stateMutability": "nonpayable",
      "type": "function"
    },
    {
      "inputs": [],
      "name": "shareToken",
      "outputs": [
        {
          "internalType": "contract ICustomToken",
          "name": "",
          "type": "address"
        }
      ],
      "stateMutability": "view",
      "type": "function"
    },
    {
      "inputs": [
        {
          "internalType": "bytes4",
          "name": "interfaceId",
          "type": "bytes4"
        }
      ],
      "name": "supportsInterface",
      "outputs": [
        {
          "internalType": "bool",
          "name": "",
          "type": "bool"
        }
      ],
      "stateMutability": "view",
      "type": "function"
    },
    {
      "inputs": [
        {
          "internalType": "bytes32",
          "name": "",
          "type": "bytes32"
        }
      ],
      "name": "usedSignatures",
      "outputs": [
        {
          "internalType": "bool",
          "name": "",
          "type": "bool"
        }
      ],
      "stateMutability": "view",
      "type": "function"
    },
    {
      "inputs": [
        {
          "internalType": "uint256",
          "name": "_amount",
          "type": "uint256"
        },
        {
          "internalType": "bytes",
          "name": "_amlSignature",
          "type": "bytes"
        },
        {
          "internalType": "uint256",
          "name": "_amlDeadline",
          "type": "uint256"
        }
      ],
      "name": "withdraw",
      "outputs": [],
      "stateMutability": "nonpayable",
      "type": "function"
    },
    {
      "inputs": [
        {
          "internalType": "uint256",
          "name": "_amount",
          "type": "uint256"
        },
        {
          "internalType": "bytes",
          "name": "_amlSignature",
          "type": "bytes"
        },
        {
          "internalType": "uint256",
          "name": "_amlDeadline",
          "type": "uint256"
        },
        {
          "internalType": "uint256",
          "name": "_permitDeadline",
          "type": "uint256"
        },
        {
          "internalType": "uint8",
          "name": "_v",
          "type": "uint8"
        },
        {
          "internalType": "bytes32",
          "name": "_r",
          "type": "bytes32"
        },
        {
          "internalType": "bytes32",
          "name": "_s",
          "type": "bytes32"
        }
      ],
      "name": "withdrawWithPermit",
      "outputs": [],
      "stateMutability": "nonpayable",
      "type": "function"
    }
  ],
  "bytecode": "0x608080604052346015576112a7908161001b8239f35b600080fdfe608080604052600436101561001357600080fd5b600090813560e01c90816301ffc9a714610a7a57508063248a9ca314610a535780632f2ff15d14610a215780633013ce29146109f857806336568abe146109b35780635922f3c7146108b55780636147da561461088c5780636c9fa59e146108655780637641e6f31461065057806391d14854146105f7578063a217fddf146105db578063b3cb1991146105a0578063b930908f14610577578063c0aa89a014610504578063d547741f146104c9578063f8c8765e1461010d5763f978fd61146100dc57600080fd5b3461010a57602036600319011261010a5760ff60406020926004358152600384522054166040519015158152f35b80fd5b503461010a57608036600319011261010a576004356001600160a01b038116908190036104c55761013c610acf565b906044356001600160a01b03811691908290036104c157606435906001600160a01b03821682036104bd5760008051602061125b833981519152549360ff8560401c16159467ffffffffffffffff8116801590816104b5575b60011490816104ab575b1590816104a2575b506104935767ffffffffffffffff19811660011760008051602061125b8339815191525585610466575b5060ff60008051602061125b8339815191525460401c1615610457578115610411576001600160a01b03169283156103d3578015610398577fb54fd45a826ea9782a41ca5924adc49769ad92ee0993866d017c19319a36e89993610325606094846001600160601b0360a01b8a5416178955826001600160601b0360a01b6001541617600155836001600160601b0360a01b600254161760025560008051602061127b833981519152895260008051602061123b8339815191526020527f0a30bae60ea06f344bebb63f4eb39612b0328589ecd1132302e75991373fee2d600160408b20015460008051602061127b8339815191528b5260008051602061123b83398151915260205281600160408d20015560008051602061127b8339815191527fbd79b86ffe0ab8e8776151514217cd7cacd52c909f66475c3af44e129f0b00ff8c80a461031f33610bbb565b50610c8f565b5060405192835260208301526040820152a161033e5780f35b68ff00000000000000001960008051602061125b833981519152541660008051602061125b833981519152557fc7f505b2f371ae2175ee4913f4499e1f2633a7b5936321eed1cdaeb6115181d2602060405160018152a180f35b604051630b0f5aa160e11b815260206004820152601260248201527124b73b30b634b21020a6a61039b4b3b732b960711b6044820152606490fd5b604051630b0f5aa160e11b815260206004820152601560248201527424b73b30b634b2103830bcb6b2b73a103a37b5b2b760591b6044820152606490fd5b604051630b0f5aa160e11b815260206004820152601860248201527f496e76616c6964207769746864726177616c20746f6b656e00000000000000006044820152606490fd5b631afcd79f60e31b8652600486fd5b68ffffffffffffffffff1916680100000000000000011760008051602061125b83398151915255386101d1565b63f92ee8a960e01b8752600487fd5b905015386101a7565b303b15915061019f565b879150610195565b8480fd5b8380fd5b5080fd5b503461010a57604036600319011261010a576105006004356104e9610acf565b906104fb6104f682610b18565b610b71565b610df4565b5080f35b503461010a57606036600319011261010a5760043560243567ffffffffffffffff811161057357610539903690600401610aea565b604435918315610564579161055c9184936105578361056197610e94565b610ef9565b611019565b80f35b635e85ae7360e01b8552600485fd5b8280fd5b503461010a578060031936011261010a57602060405160008051602061127b8339815191528152f35b503461010a578060031936011261010a5760206040517f0a30bae60ea06f344bebb63f4eb39612b0328589ecd1132302e75991373fee2d8152f35b503461010a578060031936011261010a57602090604051908152f35b503461010a57604036600319011261010a576040610613610acf565b91600435815260008051602061123b833981519152602052209060018060a01b0316600052602052602060ff604060002054166040519015158152f35b503461010a57604036600319011261010a5760043560243567ffffffffffffffff811161057357610685903690600401610aea565b909160008051602061127b833981519152845260008051602061123b8339815191526020526040842060018060a01b03331660005260205260ff60406000205416156108405780156108315781156108225783546040516370a0823160e01b81523060048201526001600160a01b0390911690602081602481855afa9081156108175786916107e1575b5082116107d2578085913b156104c557818091602460405180948193630852cd8d60e31b83528860048401525af180156107c7576107b2575b505083546040516001600160a01b03909116937f5b9d46fcafb9d23a7bfeecc55768d5e506ca28c3a3eea2f1a51704fa25bc02fa938291819083378101868152039020604080519283526001600160a01b039490941660208301523393820193909352606090a280f35b816107bc91610b39565b6104c1578338610748565b6040513d84823e3d90fd5b631e9acf1760e31b8552600485fd5b90506020813d60201161080f575b816107fc60209383610b39565b8101031261080b57513861070f565b8580fd5b3d91506107ef565b6040513d88823e3d90fd5b63643d3cf760e01b8452600484fd5b635e85ae7360e01b8452600484fd5b63e2517d3f60e01b84523360045260008051602061127b833981519152602452604484fd5b503461010a578060031936011261010a57546040516001600160a01b039091168152602090f35b503461010a578060031936011261010a576002546040516001600160a01b039091168152602090f35b503461010a5760e036600319011261010a5760043560243567ffffffffffffffff8111610573576108ea903690600401610aea565b604435906084359260ff841680940361080b5784156109a45791610915918694936105578388610e94565b81546001600160a01b0316803b156105735760e48392604051948593849263d505accf60e01b84523360048501523060248501528860448501526064356064850152608484015260a43560a484015260c43560c48401525af1801561099957610983575b5061056190611019565b91610992816105619394610b39565b9190610979565b6040513d85823e3d90fd5b635e85ae7360e01b8652600486fd5b503461010a57604036600319011261010a576109cd610acf565b336001600160a01b038216036109e95761050090600435610df4565b63334bd91960e11b8252600482fd5b503461010a578060031936011261010a576001546040516001600160a01b039091168152602090f35b503461010a57604036600319011261010a57610500600435610a41610acf565b90610a4e6104f682610b18565b610d4b565b503461010a57602036600319011261010a576020610a72600435610b18565b604051908152f35b9050346104c55760203660031901126104c55760043563ffffffff60e01b81168091036105735760209250637965db0b60e01b8114908115610abe575b5015158152f35b6301ffc9a760e01b14905038610ab7565b602435906001600160a01b0382168203610ae557565b600080fd5b9181601f84011215610ae55782359167ffffffffffffffff8311610ae55760208381860195010111610ae557565b60005260008051602061123b83398151915260205260016040600020015490565b90601f8019910116810190811067ffffffffffffffff821117610b5b57604052565b634e487b7160e01b600052604160045260246000fd5b600081815260008051602061123b8339815191526020908152604080832033845290915290205460ff1615610ba35750565b63e2517d3f60e01b6000523360045260245260446000fd5b6001600160a01b03811660009081527f99d7401b6c7fae7e32559c2f2939eb2955c262626d0b69e0397921638ab2ab8a602052604090205460ff16610c89576001600160a01b031660008181527f99d7401b6c7fae7e32559c2f2939eb2955c262626d0b69e0397921638ab2ab8a60205260408120805460ff191660011790553391907f0a30bae60ea06f344bebb63f4eb39612b0328589ecd1132302e75991373fee2d907f2f8788117e7eff1d82e926ec794901d17c78024a50270940304540a733656f0d9080a4600190565b50600090565b6001600160a01b03811660009081527f5a9c57bd7b5011b34bc70988dc11c44b0d52e6a1a9ec425ce2d00d4b0dd2822c602052604090205460ff16610c89576001600160a01b031660008181527f5a9c57bd7b5011b34bc70988dc11c44b0d52e6a1a9ec425ce2d00d4b0dd2822c60205260408120805460ff1916600117905533919060008051602061127b833981519152907f2f8788117e7eff1d82e926ec794901d17c78024a50270940304540a733656f0d9080a4600190565b600081815260008051602061123b833981519152602090815260408083206001600160a01b038616845290915290205460ff16610ded57600081815260008051602061123b833981519152602090815260408083206001600160a01b0395909516808452949091528120805460ff19166001179055339291907f2f8788117e7eff1d82e926ec794901d17c78024a50270940304540a733656f0d9080a4600190565b5050600090565b600081815260008051602061123b833981519152602090815260408083206001600160a01b038616845290915290205460ff1615610ded57600081815260008051602061123b833981519152602090815260408083206001600160a01b0395909516808452949091528120805460ff19169055339291907ff6391f5c32d9c69d2a47ea670b442974b53935d1edc7fd64eb21e047a839171b9080a4600190565b60005491600154916040519260208401943360601b86526001600160601b03199060601b1660348501526001600160601b03199060601b166048840152605c8301523060601b607c830152609082015260908152610ef360b082610b39565b51902090565b92919060018060a01b03600254169242116110085783600052600360205260ff60406000205416610ff7577f19457468657265756d205369676e6564204d6573736167653a0a33320000000060005283601c52603c60002067ffffffffffffffff8311610b5b5760405190610f78601f8501601f191660200183610b39565b8382523684840111610ae5576000602085610fa796610f9e9683870137840101526110ed565b90929192611129565b6001600160a01b03168015610fe65703610fd55760005260036020526040600020600160ff19825416179055565b63d1cc738560e01b60005260046000fd5b638bb79cad60e01b60005260046000fd5b63e544c62f60e01b60005260046000fd5b63288a076f60e21b60005260046000fd5b60018060a01b036000541660206000604051828101906323b872dd60e01b82523360248201523060448201528560648201526064815261105a608482610b39565b519082855af1156110e1576000513d6110d85750803b155b6110c45750600054600154604080519384526001600160a01b03928316602085015291169082015233907f9dfef32f0f1af6520e7a4f8eff8cc6a3444943d083e156ae859ee6002c28b02990606090a2565b635274afe760e01b60005260045260246000fd5b60011415611072565b6040513d6000823e3d90fd5b815191906041830361111e5761111792506020820151906060604084015193015160001a906111b1565b9192909190565b505060009160029190565b919091600481101561119b578061113f57509050565b60006001820361115a5763f645eedf60e01b60005260046000fd5b5060028103611178578263fce698f760e01b60005260045260246000fd5b9091600360009214611188575050565b6335e2f38360e21b825260045260249150fd5b634e487b7160e01b600052602160045260246000fd5b91907f7fffffffffffffffffffffffffffffff5d576e7357a4501ddfe92f46681b20a0841161122e579160209360809260ff60009560405194855216868401526040830152606082015282805260015afa156110e1576000516001600160a01b038116156112225790600090600090565b50600090600190600090565b5050506000916003919056fe02dd7bc7dec4dceedda775e58dd541e08a116c6c53815c0bd028192f7b626800f0c57e16840df040f15088dc2f81fe391c3923bec73e23a9662efc9c229c6a00e97b137254058bd94f28d2f3eb79e2d34074ffb488d042e3bc958e0a57d2fa22a164736f6c634300081c000a",
  "linkReferences": {},
  "deployedLinkReferences": {}
}