{
  "_format": "hh-sol-artifact-1",
  "contractName": "Withdrawal",
  "sourceName": "contracts/Withdrawal.sol",
  "abi": [
    {
      "inputs": [],
      "name": "AccessControlBadConfirmation",
      "type": "error"
    },
    {
      "inputs": [
        {
          "internalType": "address",
          "name": "account",
          "type": "address"
        },
        {
          "internalType": "bytes32",
          "name": "neededRole",
          "type": "bytes32"
        }
      ],
      "name": "AccessControlUnauthorizedAccount",
      "type": "error"
    },
    {
      "inputs": [],
      "name": "AmlSignatureAlreadyUsed",
      "type": "error"
    },
    {
      "inputs": [],
      "name": "AmlSignatureExpired",
      "type": "error"
    },
    {
      "inputs": [],
      "name": "AmountMustBeGreaterThanZero",
      "type": "error"
    },
    {
      "inputs": [],
      "name": "ECDSAInvalidSignature",
      "type": "error"
    },
    {
      "inputs": [
        {
          "internalType": "uint256",
          "name": "length",
          "type": "uint256"
        }
      ],
      "name": "ECDSAInvalidSignatureLength",
      "type": "error"
    },
    {
      "inputs": [
        {
          "internalType": "bytes32",
          "name": "s",
          "type": "bytes32"
        }
      ],
      "name": "ECDSAInvalidSignatureS",
      "type": "error"
    },
    {
      "inputs": [],
      "name": "InsufficientBalance",
      "type": "error"
    },
    {
      "inputs": [
        {
          "internalType": "string",
          "name": "",
          "type": "string"
        }
      ],
      "name": "InvalidAddress",
      "type": "error"
    },
    {
      "inputs": [],
      "name": "InvalidAmlSignature",
      "type": "error"
    },
    {
      "inputs": [],
      "name": "InvalidAmlSigner",
      "type": "error"
    },
    {
      "inputs": [],
      "name": "InvalidInitialization",
      "type": "error"
    },
    {
      "inputs": [],
      "name": "InvalidMintTransactionHash",
      "type": "error"
    },
    {
      "inputs": [],
      "name": "NotInitializing",
      "type": "error"
    },
    {
      "inputs": [
        {
          "internalType": "address",
          "name": "token",
          "type": "address"
        }
      ],
      "name": "SafeERC20FailedOperation",
      "type": "error"
    },
    {
      "anonymous": false,
      "inputs": [
        {
          "indexed": false,
          "internalType": "uint64",
          "name": "version",
          "type": "uint64"
        }
      ],
      "name": "Initialized",
      "type": "event"
    },
    {
      "anonymous": false,
      "inputs": [
        {
          "indexed": true,
          "internalType": "bytes32",
          "name": "role",
          "type": "bytes32"
        },
        {
          "indexed": true,
          "internalType": "bytes32",
          "name": "previousAdminRole",
          "type": "bytes32"
        },
        {
          "indexed": true,
          "internalType": "bytes32",
          "name": "newAdminRole",
          "type": "bytes32"
        }
      ],
      "name": "RoleAdminChanged",
      "type": "event"
    },
    {
      "anonymous": false,
      "inputs": [
        {
          "indexed": true,
          "internalType": "bytes32",
          "name": "role",
          "type": "bytes32"
        },
        {
          "indexed": true,
          "internalType": "address",
          "name": "account",
          "type": "address"
        },
        {
          "indexed": true,
          "internalType": "address",
          "name": "sender",
          "type": "address"
        }
      ],
      "name": "RoleGranted",
      "type": "event"
    },
    {
      "anonymous": false,
      "inputs": [
        {
          "indexed": true,
          "internalType": "bytes32",
          "name": "role",
          "type": "bytes32"
        },
        {
          "indexed": true,
          "internalType": "address",
          "name": "account",
          "type": "address"
        },
        {
          "indexed": true,
          "internalType": "address",
          "name": "sender",
          "type": "address"
        }
      ],
      "name": "RoleRevoked",
      "type": "event"
    },
    {
      "anonymous": false,
      "inputs": [
        {
          "indexed": true,
          "internalType": "uint256",
          "name": "amount",
          "type": "uint256"
        },
        {
          "indexed": true,
          "internalType": "address",
          "name": "burner",
          "type": "address"
        },
        {
          "indexed": true,
          "internalType": "string",
          "name": "mintTransactionHash",
          "type": "string"
        }
      ],
      "name": "TokensBurned",
      "type": "event"
    },
    {
      "anonymous": false,
      "inputs": [
        {
          "indexed": true,
          "internalType": "address",
          "name": "user",
          "type": "address"
        },
        {
          "indexed": true,
          "internalType": "uint256",
          "name": "amount",
          "type": "uint256"
        },
        {
          "indexed": true,
          "internalType": "address",
          "name": "paymentToken",
          "type": "address"
        }
      ],
      "name": "Withdraw",
      "type": "event"
    },
    {
      "anonymous": false,
      "inputs": [
        {
          "indexed": true,
          "internalType": "address",
          "name": "withdrawalTokenAddress",
          "type": "address"
        },
        {
          "indexed": true,
          "internalType": "address",
          "name": "paymentTokenAddress",
          "type": "address"
        },
        {
          "indexed": true,
          "internalType": "address",
          "name": "amlSignerAddress",
          "type": "address"
        }
      ],
      "name": "WithdrawalInitialized",
      "type": "event"
    },
    {
      "inputs": [],
      "name": "BURN_ROLE",
      "outputs": [
        {
          "internalType": "bytes32",
          "name": "",
          "type": "bytes32"
        }
      ],
      "stateMutability": "view",
      "type": "function"
    },
    {
      "inputs": [],
      "name": "DEFAULT_ADMIN_ROLE",
      "outputs": [
        {
          "internalType": "bytes32",
          "name": "",
          "type": "bytes32"
        }
      ],
      "stateMutability": "view",
      "type": "function"
    },
    {
      "inputs": [],
      "name": "amlSigner",
      "outputs": [
        {
          "internalType": "address",
          "name": "",
          "type": "address"
        }
      ],
      "stateMutability": "view",
      "type": "function"
    },
    {
      "inputs": [
        {
          "internalType": "uint256",
          "name": "amount",
          "type": "uint256"
        },
        {
          "internalType": "string",
          "name": "mintTransactionHash",
          "type": "string"
        }
      ],
      "name": "burn",
      "outputs": [],
      "stateMutability": "nonpayable",
      "type": "function"
    },
    {
      "inputs": [
        {
          "internalType": "bytes32",
          "name": "role",
          "type": "bytes32"
        }
      ],
      "name": "getRoleAdmin",
      "outputs": [
        {
          "internalType": "bytes32",
          "name": "",
          "type": "bytes32"
        }
      ],
      "stateMutability": "view",
      "type": "function"
    },
    {
      "inputs": [
        {
          "internalType": "bytes32",
          "name": "role",
          "type": "bytes32"
        },
        {
          "internalType": "address",
          "name": "account",
          "type": "address"
        }
      ],
      "name": "grantRole",
      "outputs": [],
      "stateMutability": "nonpayable",
      "type": "function"
    },
    {
      "inputs": [
        {
          "internalType": "bytes32",
          "name": "role",
          "type": "bytes32"
        },
        {
          "internalType": "address",
          "name": "account",
          "type": "address"
        }
      ],
      "name": "hasRole",
      "outputs": [
        {
          "internalType": "bool",
          "name": "",
          "type": "bool"
        }
      ],
      "stateMutability": "view",
      "type": "function"
    },
    {
      "inputs": [
        {
          "internalType": "address",
          "name": "_withdrawalTokenAddress",
          "type": "address"
        },
        {
          "internalType": "address",
          "name": "_paymentTokenAddress",
          "type": "address"
        },
        {
          "internalType": "address",
          "name": "_amlSignerAddress",
          "type": "address"
        },
        {
          "internalType": "address",
          "name": "burnUser",
          "type": "address"
        }
      ],
      "name": "initialize",
      "outputs": [],
      "stateMutability": "nonpayable",
      "type": "function"
    },
    {
      "inputs": [],
      "name": "paymentToken",
      "outputs": [
        {
          "internalType": "address",
          "name": "",
          "type": "address"
        }
      ],
      "stateMutability": "view",
      "type": "function"
    },
    {
      "inputs": [
        {
          "internalType": "bytes32",
          "name": "role",
          "type": "bytes32"
        },
        {
          "internalType": "address",
          "name": "callerConfirmation",
          "type": "address"
        }
      ],
      "name": "renounceRole",
      "outputs": [],
      "stateMutability": "nonpayable",
      "type": "function"
    },
    {
      "inputs": [
        {
          "internalType": "bytes32",
          "name": "role",
          "type": "bytes32"
        },
        {
          "internalType": "address",
          "name": "account",
          "type": "address"
        }
      ],
      "name": "revokeRole",
      "outputs": [],
      "stateMutability": "nonpayable",
      "type": "function"
    },
    {
      "inputs": [
        {
          "internalType": "bytes4",
          "name": "interfaceId",
          "type": "bytes4"
        }
      ],
      "name": "supportsInterface",
      "outputs": [
        {
          "internalType": "bool",
          "name": "",
          "type": "bool"
        }
      ],
      "stateMutability": "view",
      "type": "function"
    },
    {
      "inputs": [
        {
          "internalType": "bytes32",
          "name": "",
          "type": "bytes32"
        }
      ],
      "name": "usedSignatures",
      "outputs": [
        {
          "internalType": "bool",
          "name": "",
          "type": "bool"
        }
      ],
      "stateMutability": "view",
      "type": "function"
    },
    {
      "inputs": [
        {
          "internalType": "uint256",
          "name": "_amount",
          "type": "uint256"
        },
        {
          "internalType": "bytes",
          "name": "_amlSignature",
          "type": "bytes"
        },
        {
          "internalType": "uint256",
          "name": "_amlDeadline",
          "type": "uint256"
        }
      ],
      "name": "withdraw",
      "outputs": [],
      "stateMutability": "nonpayable",
      "type": "function"
    },
    {
      "inputs": [
        {
          "internalType": "uint256",
          "name": "_amount",
          "type": "uint256"
        },
        {
          "internalType": "bytes",
          "name": "_amlSignature",
          "type": "bytes"
        },
        {
          "internalType": "uint256",
          "name": "_amlDeadline",
          "type": "uint256"
        },
        {
          "internalType": "uint256",
          "name": "_permitDeadline",
          "type": "uint256"
        },
        {
          "internalType": "uint8",
          "name": "_v",
          "type": "uint8"
        },
        {
          "internalType": "bytes32",
          "name": "_r",
          "type": "bytes32"
        },
        {
          "internalType": "bytes32",
          "name": "_s",
          "type": "bytes32"
        }
      ],
      "name": "withdrawWithPermit",
      "outputs": [],
      "stateMutability": "nonpayable",
      "type": "function"
    },
    {
      "inputs": [],
      "name": "withdrawalToken",
      "outputs": [
        {
          "internalType": "contract ICustomToken",
          "name": "",
          "type": "address"
        }
      ],
      "stateMutability": "view",
      "type": "function"
    }
  ],
  "bytecode": "0x60808060405234601557611f08908161001b8239f35b600080fdfe608080604052600436101561001357600080fd5b600090813560e01c90816301ffc9a71461126257508063248a9ca31461123b5780632f2ff15d146112095780633013ce29146111e057806336568abe1461119b5780635188875b146111745780635922f3c714610ee45780636147da5614610ebb5780637641e6f314610a1857806391d14854146109bf578063a217fddf146109a3578063b930908f1461097a578063c0aa89a0146107a0578063d547741f14610765578063f8c8765e146101025763f978fd61146100d157600080fd5b346100ff5760203660031901126100ff5760ff60406020926004358152600384522054166040519015158152f35b80fd5b50346100ff5760803660031901126100ff576004356001600160a01b03811690819003610761576101316112b7565b6044356001600160a01b0381169081900361075d576064356001600160a01b03811681036107595761017760408051672cd5beccd685a64a602082015260208152611321565b600080516020611ebc833981519152549260ff8460401c16159367ffffffffffffffff811680159081610751575b6001149081610747575b15908161073e575b5061072f5767ffffffffffffffff198116600117600080516020611ebc8339815191525584610702575b506102006040805167d5011d0a82ba5b35602082015260208152611321565b61021e604080516711eeb080e68888e6602082015260208152611321565b61023c60408051674d05a66f7942963a602082015260208152611321565b61025a6040805167b5cc0a9ea3c03553602082015260208152611321565b60ff600080516020611ebc8339815191525460401c16156106f357610293604080516749f5f013841e8599602082015260208152611321565b6102b160408051676440c5acb7da7223602082015260208152611321565b84610338576102d4604080516707a7f2f0f7cbd04c602082015260208152611321565b6102f2604080516752951353ceef17d1602082015260208152611321565b604051630b0f5aa160e11b815260206004820152601860248201527f496e76616c6964207769746864726177616c20746f6b656e00000000000000006044820152606490fd5b61035660408051679e60f8ceeec1e5aa602082015260208152611321565b6103746040805167d468c5e4f0d27b92602082015260208152611321565b610392604080516730b9ec02315a3055602082015260208152611321565b6001600160a01b0316908161041b576103bf6040805167c6a215242c015f64602082015260208152611321565b6103dd6040805167b2cf92fefdacd3aa602082015260208152611321565b604051630b0f5aa160e11b815260206004820152601560248201527424b73b30b634b2103830bcb6b2b73a103a37b5b2b760591b6044820152606490fd5b61043960408051676df435a6ab4fc4c1602082015260208152611321565b61045760408051671e8ce99bd392a3ac602082015260208152611321565b610475604080516798eb5ae9ee1cff98602082015260208152611321565b826104f157610498604080516720679dcf18f50210602082015260208152611321565b6104b6604080516735c01f4e85222b96602082015260208152611321565b604051630b0f5aa160e11b815260206004820152601260248201527124b73b30b634b21020a6a61039b4b3b732b960711b6044820152606490fd5b61062e906105136040805167d8cc0095e8099262602082015260208152611321565b6105316040805167da9e07630d000e89602082015260208152611321565b856001600160601b0360a01b88541617875561056160408051675d1115d08e10709a602082015260208152611321565b826001600160601b0360a01b6001541617600155610593604080516768e9169d4b8c0bcb602082015260208152611321565b836001600160601b0360a01b60025416176002556105c56040805167f02501a0b3931e9c602082015260208152611321565b6105e36040805167a401cd63ad22b730602082015260208152611321565b6105ec816113a3565b5061060b604080516772aab46c7e2bfb6e602082015260208152611321565b610629604080516783da11bfb1b32137602082015260208152611321565b611455565b5061064d604080516757ca0b0071a5d416602082015260208152611321565b61066b6040805167dc70e99694460c04602082015260208152611321565b604051937fb54fd45a826ea9782a41ca5924adc49769ad92ee0993866d017c19319a36e8998680a461069b575080f35b60207fc7f505b2f371ae2175ee4913f4499e1f2633a7b5936321eed1cdaeb6115181d29168ff000000000000000019600080516020611ebc8339815191525416600080516020611ebc8339815191525560018152a180f35b631afcd79f60e31b8652600486fd5b68ffffffffffffffffff19166801000000000000000117600080516020611ebc83398151915255386101e1565b63f92ee8a960e01b8752600487fd5b905015386101b7565b303b1591506101af565b8691506101a5565b8480fd5b8380fd5b5080fd5b50346100ff5760403660031901126100ff5761079c6004356107856112b7565b9061079761079282611300565b611359565b6115ba565b5080f35b50346100ff5760603660031901126100ff5760043560243567ffffffffffffffff8111610976576107d59036906004016112d2565b604435916107f76040805167e941a55d32ac792c602082015260208152611321565b61081560408051678bc61994fff34700602082015260208152611321565b6108336040805167130e2d095ff505bb602082015260208152611321565b836108835760048561085960408051671061b785200ad304602082015260208152611321565b61087760408051673f44baa5819f6638602082015260208152611321565b635e85ae7360e01b8152fd5b916109329161097394936108ab60408051673fe9a18f18902082602082015260208152611321565b6108c9604080516703526d8a93a335cb602082015260208152611321565b6108e76040805167803906bdafb01ab2602082015260208152611321565b6108f1838661165a565b61090f6040805167868021f2dc832362602082015260208152611321565b61092d6040805167648cb80135bd0f23602082015260208152611321565b611773565b61095060408051677b3881cdc7822a24602082015260208152611321565b61096e604080516716f6a5bc1a2d855c602082015260208152611321565b611bfc565b80f35b8280fd5b50346100ff57806003193601126100ff576020604051600080516020611edc8339815191528152f35b50346100ff57806003193601126100ff57602090604051908152f35b50346100ff5760403660031901126100ff5760406109db6112b7565b916004358152600080516020611e9c833981519152602052209060018060a01b0316600052602052602060ff604060002054166040519015158152f35b50346100ff5760403660031901126100ff5760043560243567ffffffffffffffff811161097657610a4d9036906004016112d2565b90610a6c6040805167c54a8f93b2e2c8f7602082015260208152611321565b600080516020611edc8339815191528452600080516020611e9c83398151915260209081526040808620336000908152925290205460ff1615610e9657610ac760408051678c650f70514d4cb1602082015260208152611321565b610ae5604080516769f17d735bc0f761602082015260208152611321565b610b03604080516794302eb5c720f0b5602082015260208152611321565b610b216040805167c4ff4edd09cbf8af602082015260208152611321565b82610b6557600484610b476040805167fa5931b7101aafc2602082015260208152611321565b61087760408051673b06a99f7656bdcf602082015260208152611321565b610b83604080516759d43b91d1e371fd602082015260208152611321565b610ba1604080516752a096ef0384a3c7602082015260208152611321565b610bbf6040805167e5fcb838e3bead67602082015260208152611321565b81610c0f57600484610be56040805167b2655f2cab81ff53602082015260208152611321565b610c036040805167a601422fc4592d69602082015260208152611321565b63643d3cf760e01b8152fd5b610c2d60408051673ba16ed810b2d6c9602082015260208152611321565b610c4b6040805167c8a45a7cd150457d602082015260208152611321565b610c696040805167f049ca19b9dd5173602082015260208152611321565b83546040516370a0823160e01b81523060048201526001600160a01b0390911690602081602481855afa908115610e8b578691610e55575b50610cc06040805167470eac7f2beff43a602082015260208152611321565b610cde6040805167887e483e377c0e95602082015260208152611321565b841115610d3057600485610d0660408051675c94d7c0974d3c05602082015260208152611321565b610d246040805167abe4ef21db091507602082015260208152611321565b631e9acf1760e31b8152fd5b8490610d506040805167a32458f2d666a40e602082015260208152611321565b610d6e6040805167c2c6b4a631b226c7602082015260208152611321565b610d8c6040805167f8d2b4458d90e02b602082015260208152611321565b803b1561076157818091602460405180948193630852cd8d60e31b83528a60048401525af18015610e4a57610e35575b5050610ddc604080516718530ce3035b1836602082015260208152611321565b610dfa604080516765d4b277a1f94b4a602082015260208152611321565b81604051928392833781018481520390209033907ff20f1639e6439b0d6096a8249af64d8cd0a4ac7406bf79f4bc73e6f066d735278480a480f35b81610e3f91611321565b61075d578338610dbc565b6040513d84823e3d90fd5b90506020813d602011610e83575b81610e7060209383611321565b81010312610e7f575138610ca1565b8580fd5b3d9150610e63565b6040513d88823e3d90fd5b63e2517d3f60e01b845233600452600080516020611edc833981519152602452604484fd5b50346100ff57806003193601126100ff576002546040516001600160a01b039091168152602090f35b50346100ff5760e03660031901126100ff5760043560243567ffffffffffffffff811161097657610f199036906004016112d2565b604435906084359260ff8416809403610e7f57610f4a604080516724999ef8e171883b602082015260208152611321565b610f6860408051670e8cb73daf87e9c4602082015260208152611321565b610f86604080516761023010e480984b602082015260208152611321565b84610fca57600486610fac6040805167847c23de6dd53a02602082015260208152611321565b61087760408051674c922b2b2c106264602082015260208152611321565b9161107291869493610ff060408051671f7760b4b8db6341602082015260208152611321565b61100e6040805167813769499a277470602082015260208152611321565b61102c6040805167f2393322a6a47111602082015260208152611321565b611036838861165a565b61105460408051676e5abf2fc528b712602082015260208152611321565b61092d60408051674a019101269d5ed4602082015260208152611321565b61109060408051677a75a0cdadaa9530602082015260208152611321565b6110ae6040805167a5cfa01d6ef2e156602082015260208152611321565b81546001600160a01b0316803b156109765760e48392604051948593849263d505accf60e01b84523360048501523060248501528860448501526064356064850152608484015260a43560a484015260c43560c48401525af1801561116957611153575b50610973906111356040805167bca64e2a4db3bd62602082015260208152611321565b61096e6040805167df3afe3c0693f170602082015260208152611321565b91611162816109739394611321565b9190611112565b6040513d85823e3d90fd5b50346100ff57806003193601126100ff57546040516001600160a01b039091168152602090f35b50346100ff5760403660031901126100ff576111b56112b7565b336001600160a01b038216036111d15761079c906004356115ba565b63334bd91960e11b8252600482fd5b50346100ff57806003193601126100ff576001546040516001600160a01b039091168152602090f35b50346100ff5760403660031901126100ff5761079c6004356112296112b7565b9061123661079282611300565b611511565b50346100ff5760203660031901126100ff57602061125a600435611300565b604051908152f35b9050346107615760203660031901126107615760043563ffffffff60e01b81168091036109765760209250637965db0b60e01b81149081156112a6575b5015158152f35b6301ffc9a760e01b1490503861129f565b602435906001600160a01b03821682036112cd57565b600080fd5b9181601f840112156112cd5782359167ffffffffffffffff83116112cd57602083818601950101116112cd57565b600052600080516020611e9c83398151915260205260016040600020015490565b90601f8019910116810190811067ffffffffffffffff82111761134357604052565b634e487b7160e01b600052604160045260246000fd5b6000818152600080516020611e9c8339815191526020908152604080832033845290915290205460ff161561138b5750565b63e2517d3f60e01b6000523360045260245260446000fd5b6001600160a01b03811660009081527fb7db2dd08fcb62d0c9e08c51941cae53c267786a0b75803fb7960902fc8ef97d602052604090205460ff1661144f576001600160a01b031660008181527fb7db2dd08fcb62d0c9e08c51941cae53c267786a0b75803fb7960902fc8ef97d60205260408120805460ff191660011790553391907f2f8788117e7eff1d82e926ec794901d17c78024a50270940304540a733656f0d8180a4600190565b50600090565b6001600160a01b03811660009081527f5a9c57bd7b5011b34bc70988dc11c44b0d52e6a1a9ec425ce2d00d4b0dd2822c602052604090205460ff1661144f576001600160a01b031660008181527f5a9c57bd7b5011b34bc70988dc11c44b0d52e6a1a9ec425ce2d00d4b0dd2822c60205260408120805460ff19166001179055339190600080516020611edc833981519152907f2f8788117e7eff1d82e926ec794901d17c78024a50270940304540a733656f0d9080a4600190565b6000818152600080516020611e9c833981519152602090815260408083206001600160a01b038616845290915290205460ff166115b3576000818152600080516020611e9c833981519152602090815260408083206001600160a01b0395909516808452949091528120805460ff19166001179055339291907f2f8788117e7eff1d82e926ec794901d17c78024a50270940304540a733656f0d9080a4600190565b5050600090565b6000818152600080516020611e9c833981519152602090815260408083206001600160a01b038616845290915290205460ff16156115b3576000818152600080516020611e9c833981519152602090815260408083206001600160a01b0395909516808452949091528120805460ff19169055339291907ff6391f5c32d9c69d2a47ea670b442974b53935d1edc7fd64eb21e047a839171b9080a4600190565b6116786040805167203fa1ebfd15c4ee602082015260208152611321565b6116966040805167e376f720c56a296b602082015260208152611321565b6116b46040805167db90a951adfddd79602082015260208152611321565b6116d26040805167190e20b2fbf19bb7602082015260208152611321565b6116f0604080516709994bc078fb9f7d602082015260208152611321565b61170e6040805167a52b82f72346f274602082015260208152611321565b60005491600154916040519260208401943360601b86526001600160601b03199060601b1660348501526001600160601b03199060601b166048840152605c8301523060601b607c83015260908201526090815261176d60b082611321565b51902090565b9291906117946040805167f380b3bd9f7ee9d3602082015260208152611321565b6117b260408051674804458506d95648602082015260208152611321565b6117d06040805167318e1c34f1a7c1b2602082015260208152611321565b60018060a01b0360025416926117fa60408051671560cded1e30ca96602082015260208152611321565b6118186040805167287392d6bde80e80602082015260208152611321565b6118366040805167c17166d1a1ffb91a602082015260208152611321565b42111561188a5761185b6040805167b09d7fc90d023985602082015260208152611321565b61187960408051678891f7fe2053cd76602082015260208152611321565b63288a076f60e21b60005260046000fd5b6118a860408051678cfc46846df71463602082015260208152611321565b6118c660408051679d28be264201719c602082015260208152611321565b6118e460408051675b4f65f56bbec396602082015260208152611321565b83600052600360205260ff6040600020541660001461194a5761191b6040805167c3264f170033920c602082015260208152611321565b61193960408051679649fc99b7436e4b602082015260208152611321565b63e544c62f60e01b60005260046000fd5b611968604080516747c63540ab71ac63602082015260208152611321565b6119866040805167d54166501385730d602082015260208152611321565b6119a46040805167b93d06049baf35cb602082015260208152611321565b7f19457468657265756d205369676e6564204d6573736167653a0a33320000000060005283601c52603c6000206119ef60408051677be082039558ca47602082015260208152611321565b611a0d6040805167bf7b2a01af70bae9602082015260208152611321565b67ffffffffffffffff83116113435760405190611a34601f8501601f191660200183611321565b83825236848401116112cd576000602085611a6396611a5a968387013784010152611d4e565b90929192611d8a565b611a8160408051677980637171d3205a602082015260208152611321565b611a9f604080516706a7784b01114560602082015260208152611321565b6001600160a01b031680611afa57611acb604080516735da2488ec16ff43602082015260208152611321565b611ae96040805167583bd9aa1fe9e041602082015260208152611321565b638bb79cad60e01b60005260046000fd5b611b186040805167c79a9b1aa4d341b3602082015260208152611321565b611b366040805167c138bd6e41bf4aaa602082015260208152611321565b611b54604080516717dd4fc37a784e66602082015260208152611321565b14611ba657611b7760408051674f133bce925afd1d602082015260208152611321565b611b95604080516782367aa718b3465f602082015260208152611321565b63d1cc738560e01b60005260046000fd5b611bc46040805167ea2e07206c74b90d602082015260208152611321565b611be26040805167a9da9729c73f95a3602082015260208152611321565b60005260036020526040600020600160ff19825416179055565b611c1a6040805167a6aa13c28db98359602082015260208152611321565b611c386040805167faaffcaa90057d97602082015260208152611321565b611c56604080516702199e0e1be2f440602082015260208152611321565b60018060a01b036000541660206000604051828101906323b872dd60e01b825233602482015230604482015285606482015260648152611c97608482611321565b519082855af115611d42576000513d611d395750803b155b611d255750611cd26040805167d3058c98e76158a4602082015260208152611321565b611cf06040805167edaedf86123c0a34602082015260208152611321565b6001546001600160a01b031690337f56c54ba9bd38d8fd62012e42c7ee564519b09763c426d331b3661b537ead19b2600080a4565b635274afe760e01b60005260045260246000fd5b60011415611caf565b6040513d6000823e3d90fd5b8151919060418303611d7f57611d7892506020820151906060604084015193015160001a90611e12565b9192909190565b505060009160029190565b9190916004811015611dfc5780611da057509050565b600060018203611dbb5763f645eedf60e01b60005260046000fd5b5060028103611dd9578263fce698f760e01b60005260045260246000fd5b9091600360009214611de9575050565b6335e2f38360e21b825260045260249150fd5b634e487b7160e01b600052602160045260246000fd5b91907f7fffffffffffffffffffffffffffffff5d576e7357a4501ddfe92f46681b20a08411611e8f579160209360809260ff60009560405194855216868401526040830152606082015282805260015afa15611d42576000516001600160a01b03811615611e835790600090600090565b50600090600190600090565b5050506000916003919056fe02dd7bc7dec4dceedda775e58dd541e08a116c6c53815c0bd028192f7b626800f0c57e16840df040f15088dc2f81fe391c3923bec73e23a9662efc9c229c6a00e97b137254058bd94f28d2f3eb79e2d34074ffb488d042e3bc958e0a57d2fa22a164736f6c634300081c000a",
  "linkReferences": {},
  "deployedLinkReferences": {}
}