{
  "_format": "hh-sol-artifact-1",
  "contractName": "CustomToken",
  "sourceName": "contracts/CustomToken.sol",
  "abi": [
    {
      "inputs": [
        {
          "internalType": "string",
          "name": "_name",
          "type": "string"
        },
        {
          "internalType": "string",
          "name": "_symbol",
          "type": "string"
        },
        {
          "internalType": "address",
          "name": "_admin",
          "type": "address"
        },
        {
          "internalType": "uint8",
          "name": "_decimals",
          "type": "uint8"
        }
      ],
      "stateMutability": "nonpayable",
      "type": "constructor"
    },
    {
      "inputs": [],
      "name": "AccessControlBadConfirmation",
      "type": "error"
    },
    {
      "inputs": [
        {
          "internalType": "address",
          "name": "account",
          "type": "address"
        },
        {
          "internalType": "bytes32",
          "name": "neededRole",
          "type": "bytes32"
        }
      ],
      "name": "AccessControlUnauthorizedAccount",
      "type": "error"
    },
    {
      "inputs": [],
      "name": "ECDSAInvalidSignature",
      "type": "error"
    },
    {
      "inputs": [
        {
          "internalType": "uint256",
          "name": "length",
          "type": "uint256"
        }
      ],
      "name": "ECDSAInvalidSignatureLength",
      "type": "error"
    },
    {
      "inputs": [
        {
          "internalType": "bytes32",
          "name": "s",
          "type": "bytes32"
        }
      ],
      "name": "ECDSAInvalidSignatureS",
      "type": "error"
    },
    {
      "inputs": [
        {
          "internalType": "address",
          "name": "spender",
          "type": "address"
        },
        {
          "internalType": "uint256",
          "name": "allowance",
          "type": "uint256"
        },
        {
          "internalType": "uint256",
          "name": "needed",
          "type": "uint256"
        }
      ],
      "name": "ERC20InsufficientAllowance",
      "type": "error"
    },
    {
      "inputs": [
        {
          "internalType": "address",
          "name": "sender",
          "type": "address"
        },
        {
          "internalType": "uint256",
          "name": "balance",
          "type": "uint256"
        },
        {
          "internalType": "uint256",
          "name": "needed",
          "type": "uint256"
        }
      ],
      "name": "ERC20InsufficientBalance",
      "type": "error"
    },
    {
      "inputs": [
        {
          "internalType": "address",
          "name": "approver",
          "type": "address"
        }
      ],
      "name": "ERC20InvalidApprover",
      "type": "error"
    },
    {
      "inputs": [
        {
          "internalType": "address",
          "name": "receiver",
          "type": "address"
        }
      ],
      "name": "ERC20InvalidReceiver",
      "type": "error"
    },
    {
      "inputs": [
        {
          "internalType": "address",
          "name": "sender",
          "type": "address"
        }
      ],
      "name": "ERC20InvalidSender",
      "type": "error"
    },
    {
      "inputs": [
        {
          "internalType": "address",
          "name": "spender",
          "type": "address"
        }
      ],
      "name": "ERC20InvalidSpender",
      "type": "error"
    },
    {
      "inputs": [
        {
          "internalType": "uint256",
          "name": "deadline",
          "type": "uint256"
        }
      ],
      "name": "ERC2612ExpiredSignature",
      "type": "error"
    },
    {
      "inputs": [
        {
          "internalType": "address",
          "name": "signer",
          "type": "address"
        },
        {
          "internalType": "address",
          "name": "owner",
          "type": "address"
        }
      ],
      "name": "ERC2612InvalidSigner",
      "type": "error"
    },
    {
      "inputs": [
        {
          "internalType": "address",
          "name": "account",
          "type": "address"
        },
        {
          "internalType": "uint256",
          "name": "currentNonce",
          "type": "uint256"
        }
      ],
      "name": "InvalidAccountNonce",
      "type": "error"
    },
    {
      "inputs": [],
      "name": "InvalidShortString",
      "type": "error"
    },
    {
      "inputs": [
        {
          "internalType": "string",
          "name": "str",
          "type": "string"
        }
      ],
      "name": "StringTooLong",
      "type": "error"
    },
    {
      "anonymous": false,
      "inputs": [
        {
          "indexed": true,
          "internalType": "address",
          "name": "owner",
          "type": "address"
        },
        {
          "indexed": true,
          "internalType": "address",
          "name": "spender",
          "type": "address"
        },
        {
          "indexed": false,
          "internalType": "uint256",
          "name": "value",
          "type": "uint256"
        }
      ],
      "name": "Approval",
      "type": "event"
    },
    {
      "anonymous": false,
      "inputs": [],
      "name": "EIP712DomainChanged",
      "type": "event"
    },
    {
      "anonymous": false,
      "inputs": [
        {
          "indexed": true,
          "internalType": "bytes32",
          "name": "role",
          "type": "bytes32"
        },
        {
          "indexed": true,
          "internalType": "bytes32",
          "name": "previousAdminRole",
          "type": "bytes32"
        },
        {
          "indexed": true,
          "internalType": "bytes32",
          "name": "newAdminRole",
          "type": "bytes32"
        }
      ],
      "name": "RoleAdminChanged",
      "type": "event"
    },
    {
      "anonymous": false,
      "inputs": [
        {
          "indexed": true,
          "internalType": "bytes32",
          "name": "role",
          "type": "bytes32"
        },
        {
          "indexed": true,
          "internalType": "address",
          "name": "account",
          "type": "address"
        },
        {
          "indexed": true,
          "internalType": "address",
          "name": "sender",
          "type": "address"
        }
      ],
      "name": "RoleGranted",
      "type": "event"
    },
    {
      "anonymous": false,
      "inputs": [
        {
          "indexed": true,
          "internalType": "bytes32",
          "name": "role",
          "type": "bytes32"
        },
        {
          "indexed": true,
          "internalType": "address",
          "name": "account",
          "type": "address"
        },
        {
          "indexed": true,
          "internalType": "address",
          "name": "sender",
          "type": "address"
        }
      ],
      "name": "RoleRevoked",
      "type": "event"
    },
    {
      "anonymous": false,
      "inputs": [
        {
          "indexed": true,
          "internalType": "address",
          "name": "from",
          "type": "address"
        },
        {
          "indexed": true,
          "internalType": "uint256",
          "name": "amount",
          "type": "uint256"
        }
      ],
      "name": "TokensBurned",
      "type": "event"
    },
    {
      "anonymous": false,
      "inputs": [
        {
          "indexed": true,
          "internalType": "address",
          "name": "from",
          "type": "address"
        },
        {
          "indexed": true,
          "internalType": "address",
          "name": "to",
          "type": "address"
        },
        {
          "indexed": false,
          "internalType": "uint256",
          "name": "value",
          "type": "uint256"
        }
      ],
      "name": "Transfer",
      "type": "event"
    },
    {
      "inputs": [],
      "name": "DEFAULT_ADMIN_ROLE",
      "outputs": [
        {
          "internalType": "bytes32",
          "name": "",
          "type": "bytes32"
        }
      ],
      "stateMutability": "view",
      "type": "function"
    },
    {
      "inputs": [],
      "name": "DOMAIN_SEPARATOR",
      "outputs": [
        {
          "internalType": "bytes32",
          "name": "",
          "type": "bytes32"
        }
      ],
      "stateMutability": "view",
      "type": "function"
    },
    {
      "inputs": [],
      "name": "MINTER_ROLE",
      "outputs": [
        {
          "internalType": "bytes32",
          "name": "",
          "type": "bytes32"
        }
      ],
      "stateMutability": "view",
      "type": "function"
    },
    {
      "inputs": [
        {
          "internalType": "address",
          "name": "owner",
          "type": "address"
        },
        {
          "internalType": "address",
          "name": "spender",
          "type": "address"
        }
      ],
      "name": "allowance",
      "outputs": [
        {
          "internalType": "uint256",
          "name": "",
          "type": "uint256"
        }
      ],
      "stateMutability": "view",
      "type": "function"
    },
    {
      "inputs": [
        {
          "internalType": "address",
          "name": "spender",
          "type": "address"
        },
        {
          "internalType": "uint256",
          "name": "value",
          "type": "uint256"
        }
      ],
      "name": "approve",
      "outputs": [
        {
          "internalType": "bool",
          "name": "",
          "type": "bool"
        }
      ],
      "stateMutability": "nonpayable",
      "type": "function"
    },
    {
      "inputs": [
        {
          "internalType": "address",
          "name": "account",
          "type": "address"
        }
      ],
      "name": "balanceOf",
      "outputs": [
        {
          "internalType": "uint256",
          "name": "",
          "type": "uint256"
        }
      ],
      "stateMutability": "view",
      "type": "function"
    },
    {
      "inputs": [
        {
          "internalType": "uint256",
          "name": "amount",
          "type": "uint256"
        }
      ],
      "name": "burn",
      "outputs": [],
      "stateMutability": "nonpayable",
      "type": "function"
    },
    {
      "inputs": [
        {
          "internalType": "address",
          "name": "account",
          "type": "address"
        },
        {
          "internalType": "uint256",
          "name": "amount",
          "type": "uint256"
        }
      ],
      "name": "burnFrom",
      "outputs": [],
      "stateMutability": "nonpayable",
      "type": "function"
    },
    {
      "inputs": [],
      "name": "decimals",
      "outputs": [
        {
          "internalType": "uint8",
          "name": "",
          "type": "uint8"
        }
      ],
      "stateMutability": "view",
      "type": "function"
    },
    {
      "inputs": [],
      "name": "eip712Domain",
      "outputs": [
        {
          "internalType": "bytes1",
          "name": "fields",
          "type": "bytes1"
        },
        {
          "internalType": "string",
          "name": "name",
          "type": "string"
        },
        {
          "internalType": "string",
          "name": "version",
          "type": "string"
        },
        {
          "internalType": "uint256",
          "name": "chainId",
          "type": "uint256"
        },
        {
          "internalType": "address",
          "name": "verifyingContract",
          "type": "address"
        },
        {
          "internalType": "bytes32",
          "name": "salt",
          "type": "bytes32"
        },
        {
          "internalType": "uint256[]",
          "name": "extensions",
          "type": "uint256[]"
        }
      ],
      "stateMutability": "view",
      "type": "function"
    },
    {
      "inputs": [
        {
          "internalType": "bytes32",
          "name": "role",
          "type": "bytes32"
        }
      ],
      "name": "getRoleAdmin",
      "outputs": [
        {
          "internalType": "bytes32",
          "name": "",
          "type": "bytes32"
        }
      ],
      "stateMutability": "view",
      "type": "function"
    },
    {
      "inputs": [
        {
          "internalType": "bytes32",
          "name": "role",
          "type": "bytes32"
        },
        {
          "internalType": "address",
          "name": "account",
          "type": "address"
        }
      ],
      "name": "grantRole",
      "outputs": [],
      "stateMutability": "nonpayable",
      "type": "function"
    },
    {
      "inputs": [
        {
          "internalType": "bytes32",
          "name": "role",
          "type": "bytes32"
        },
        {
          "internalType": "address",
          "name": "account",
          "type": "address"
        }
      ],
      "name": "hasRole",
      "outputs": [
        {
          "internalType": "bool",
          "name": "",
          "type": "bool"
        }
      ],
      "stateMutability": "view",
      "type": "function"
    },
    {
      "inputs": [
        {
          "internalType": "address",
          "name": "to",
          "type": "address"
        },
        {
          "internalType": "uint256",
          "name": "amount",
          "type": "uint256"
        }
      ],
      "name": "mint",
      "outputs": [],
      "stateMutability": "nonpayable",
      "type": "function"
    },
    {
      "inputs": [],
      "name": "name",
      "outputs": [
        {
          "internalType": "string",
          "name": "",
          "type": "string"
        }
      ],
      "stateMutability": "view",
      "type": "function"
    },
    {
      "inputs": [
        {
          "internalType": "address",
          "name": "owner",
          "type": "address"
        }
      ],
      "name": "nonces",
      "outputs": [
        {
          "internalType": "uint256",
          "name": "",
          "type": "uint256"
        }
      ],
      "stateMutability": "view",
      "type": "function"
    },
    {
      "inputs": [
        {
          "internalType": "address",
          "name": "owner",
          "type": "address"
        },
        {
          "internalType": "address",
          "name": "spender",
          "type": "address"
        },
        {
          "internalType": "uint256",
          "name": "value",
          "type": "uint256"
        },
        {
          "internalType": "uint256",
          "name": "deadline",
          "type": "uint256"
        },
        {
          "internalType": "uint8",
          "name": "v",
          "type": "uint8"
        },
        {
          "internalType": "bytes32",
          "name": "r",
          "type": "bytes32"
        },
        {
          "internalType": "bytes32",
          "name": "s",
          "type": "bytes32"
        }
      ],
      "name": "permit",
      "outputs": [],
      "stateMutability": "nonpayable",
      "type": "function"
    },
    {
      "inputs": [
        {
          "internalType": "bytes32",
          "name": "role",
          "type": "bytes32"
        },
        {
          "internalType": "address",
          "name": "callerConfirmation",
          "type": "address"
        }
      ],
      "name": "renounceRole",
      "outputs": [],
      "stateMutability": "nonpayable",
      "type": "function"
    },
    {
      "inputs": [
        {
          "internalType": "bytes32",
          "name": "role",
          "type": "bytes32"
        },
        {
          "internalType": "address",
          "name": "account",
          "type": "address"
        }
      ],
      "name": "revokeRole",
      "outputs": [],
      "stateMutability": "nonpayable",
      "type": "function"
    },
    {
      "inputs": [
        {
          "internalType": "bytes4",
          "name": "interfaceId",
          "type": "bytes4"
        }
      ],
      "name": "supportsInterface",
      "outputs": [
        {
          "internalType": "bool",
          "name": "",
          "type": "bool"
        }
      ],
      "stateMutability": "view",
      "type": "function"
    },
    {
      "inputs": [],
      "name": "symbol",
      "outputs": [
        {
          "internalType": "string",
          "name": "",
          "type": "string"
        }
      ],
      "stateMutability": "view",
      "type": "function"
    },
    {
      "inputs": [],
      "name": "totalSupply",
      "outputs": [
        {
          "internalType": "uint256",
          "name": "",
          "type": "uint256"
        }
      ],
      "stateMutability": "view",
      "type": "function"
    },
    {
      "inputs": [
        {
          "internalType": "address",
          "name": "to",
          "type": "address"
        },
        {
          "internalType": "uint256",
          "name": "value",
          "type": "uint256"
        }
      ],
      "name": "transfer",
      "outputs": [
        {
          "internalType": "bool",
          "name": "",
          "type": "bool"
        }
      ],
      "stateMutability": "nonpayable",
      "type": "function"
    },
    {
      "inputs": [
        {
          "internalType": "address",
          "name": "from",
          "type": "address"
        },
        {
          "internalType": "address",
          "name": "to",
          "type": "address"
        },
        {
          "internalType": "uint256",
          "name": "value",
          "type": "uint256"
        }
      ],
      "name": "transferFrom",
      "outputs": [
        {
          "internalType": "bool",
          "name": "",
          "type": "bool"
        }
      ],
      "stateMutability": "nonpayable",
      "type": "function"
    }
  ],
  "bytecode": "0x61016080604052346104ad57600090611c31803803809161002082856104b2565b83398101906080818303126104a15780516001600160401b0381116104a9578261004b91830161050e565b602082015190926001600160401b0382116104a55761006b91830161050e565b92604082015160018060a01b038116928382036104a1576060015160ff81168091036104a1576040948551906100a187836104b2565b60018252603160f81b6020830190815281519091906001600160401b0381116103b257600354600181811c91168015610497575b602082101461039457601f8111610434575b50806020601f82116001146103d15788916103c6575b508160011b916000199060031b1c1916176003555b88516001600160401b0381116103b257600454600181811c911680156103a8575b602082101461039457601f8111610331575b506020601f82116001146102c757819088999a9b61021e99926102bc575b50508160011b916000199060031b1c1916176004555b61018281610676565b6101205261018f8361081d565b6101405260208151910120918260e05251902080610100524660a05287519060208201927f8b73c3c69bb8fe3d512ecc4cf759cc79239f7b179b0ffacaa9a75d522b39400f84528983015260608201524660808201523060a082015260a081526101fa60c0826104b2565b5190206080523060c05260ff19600954161760095561021881610562565b506105de565b5081156102a857506000818152602081815283518281527fddf252ad1be2c89b69c2b068fc378daa952ba7f163c4a11628f55a4df523b3ef9190a3516112719081610960823960805181610e58015260a05181610f15015260c05181610e22015260e05181610ea701526101005181610ecd015261012051816104e0015261014051816105090152f35b63ec442f0560e01b81526004819052602490fd5b015190503880610163565b600488528088209a601f198316895b81811061031957509161021e999a9b9c91846001959410610300575b505050811b01600455610179565b015160001960f88460031b161c191690553880806102f2565b838301518e556001909d019c602093840193016102d6565b600488527f8a35acfbc15ff81a39ae7d344fd709f28e8600b4aa8c65c6b64bfe7fe36bd19b601f830160051c8101916020841061038a575b601f0160051c01905b81811061037f5750610145565b888155600101610372565b9091508190610369565b634e487b7160e01b88526022600452602488fd5b90607f1690610133565b634e487b7160e01b87526041600452602487fd5b9050820151386100fd565b600389528089209150601f198316895b81811061041c57509083600194939210610403575b5050811b01600355610112565b84015160001960f88460031b161c1916905538806103f6565b919260206001819286890151815501940192016103e1565b600388527fc2575a0e9e593c00f959f8c92f12db2869c3395a3b0502d05e2516446f71f85b601f830160051c8101916020841061048d575b601f0160051c01905b81811061048257506100e7565b888155600101610475565b909150819061046c565b90607f16906100d5565b8280fd5b8480fd5b8380fd5b600080fd5b601f909101601f19168101906001600160401b038211908210176104d557604052565b634e487b7160e01b600052604160045260246000fd5b60005b8381106104fe5750506000910152565b81810151838201526020016104ee565b81601f820112156104ad5780516001600160401b0381116104d55760405192610541601f8301601f1916602001856104b2565b818452602082840101116104ad5761055f91602080850191016104eb565b90565b6001600160a01b0381166000908152600080516020611c11833981519152602052604090205460ff166105d8576001600160a01b03166000818152600080516020611c1183398151915260205260408120805460ff19166001179055339190600080516020611bd18339815191528180a4600190565b50600090565b6001600160a01b0381166000908152600080516020611bf1833981519152602052604090205460ff166105d8576001600160a01b03166000818152600080516020611bf183398151915260205260408120805460ff191660011790553391907f9f2df0fed2c77648de5860a4cc508cd0818c85b8b8a1ab4ceeef8d981c8956a690600080516020611bd18339815191529080a4600190565b908151602081106000146106f1575090601f8151116106b25760208151910151602082106106a2571790565b6000198260200360031b1b161790565b6044604051809263305a27a960e01b8252602060048301526106e381518092816024860152602086860191016104eb565b601f01601f19168101030190fd5b6001600160401b0381116104d557600554600181811c91168015610813575b60208210146107fd57601f81116107c7575b50602092601f82116001146107625792819293600092610757575b50508160011b916000199060031b1c19161760055560ff90565b01519050388061073d565b601f198216936005600052806000209160005b8681106107af5750836001959610610796575b505050811b0160055560ff90565b015160001960f88460031b161c19169055388080610788565b91926020600181928685015181550194019201610775565b6005600052601f6020600020910160051c810190601f830160051c015b8181106107f15750610722565b600081556001016107e4565b634e487b7160e01b600052602260045260246000fd5b90607f1690610710565b90815160208110600014610849575090601f8151116106b25760208151910151602082106106a2571790565b6001600160401b0381116104d557600654600181811c91168015610955575b60208210146107fd57601f811161091f575b50602092601f82116001146108ba57928192936000926108af575b50508160011b916000199060031b1c19161760065560ff90565b015190503880610895565b601f198216936006600052806000209160005b86811061090757508360019596106108ee575b505050811b0160065560ff90565b015160001960f88460031b161c191690553880806108e0565b919260206001819286850151815501940192016108cd565b6006600052601f6020600020910160051c810190601f830160051c015b818110610949575061087a565b6000815560010161093c565b90607f169061086856fe608080604052600436101561001357600080fd5b60003560e01c90816301ffc9a714610a185750806306fdde0314610970578063095ea7b31461094a57806318160ddd1461092c57806323b872dd146108f4578063248a9ca3146108c75780632f2ff15d14610887578063313ce567146108665780633644e5151461084357806336568abe146107fd57806340c10f19146106e057806342966c681461069a57806370a082311461066057806379cc6790146105fe5780637ecebe00146105c457806384b0196e146104c757806391d148541461047a57806395d89b4114610395578063a217fddf14610379578063a9059cbb14610348578063d505accf146101ff578063d5391393146101c4578063d547741f1461017d5763dd62ed3e1461012757600080fd5b3461017857604036600319011261017857610140610aac565b610148610ac2565b6001600160a01b039182166000908152600160209081526040808320949093168252928352819020549051908152f35b600080fd5b34610178576040366003190112610178576101c260043561019c610ac2565b906101bd6101b882600052600860205260016040600020015490565b610d53565b610f3b565b005b346101785760003660031901126101785760206040517f9f2df0fed2c77648de5860a4cc508cd0818c85b8b8a1ab4ceeef8d981c8956a68152f35b346101785760e036600319011261017857610218610aac565b610220610ac2565b604435906064359260843560ff8116810361017857844211610333576102f66102ff9160018060a01b038416968760005260076020526040600020908154916001830190556040519060208201927f6e71edae12b1b97f4d1f60370fef10105fa2faae0126114a169c64845d6126c984528a604084015260018060a01b038916606084015289608084015260a083015260c082015260c081526102c460e082610b95565b5190206102cf610e1f565b906040519161190160f01b83526002830152602282015260c43591604260a4359220611147565b909291926111dc565b6001600160a01b031684810361031a57506101c29350611042565b84906325c0072360e11b60005260045260245260446000fd5b8463313c898160e11b60005260045260246000fd5b346101785760403660031901126101785761036e610364610aac565b6024359033610ca4565b602060405160018152f35b3461017857600036600319011261017857602060405160008152f35b346101785760003660031901126101785760405160006004546103b781610ad8565b808452906001811690811561045657506001146103f7575b6103f3836103df81850382610b95565b604051918291602083526020830190610a6b565b0390f35b600460009081527f8a35acfbc15ff81a39ae7d344fd709f28e8600b4aa8c65c6b64bfe7fe36bd19b939250905b80821061043c575090915081016020016103df6103cf565b919260018160209254838588010152019101909291610424565b60ff191660208086019190915291151560051b840190910191506103df90506103cf565b3461017857604036600319011261017857610493610ac2565b600435600052600860205260406000209060018060a01b0316600052602052602060ff604060002054166040519015158152f35b34610178576000366003190112610178576105666105047f00000000000000000000000000000000000000000000000000000000000000006110a9565b61052d7f0000000000000000000000000000000000000000000000000000000000000000611110565b6020610574604051926105408385610b95565b600084526000368137604051958695600f60f81b875260e08588015260e0870190610a6b565b908582036040870152610a6b565b466060850152306080850152600060a085015283810360c085015281808451928381520193019160005b8281106105ad57505050500390f35b83518552869550938101939281019260010161059e565b34610178576020366003190112610178576001600160a01b036105e5610aac565b1660005260076020526020604060002054604051908152f35b3461017857604036600319011261017857610617610aac565b60243590610626823383610bcd565b6106308282610fc1565b6001600160a01b03167ffd38818f5291bf0bb3a2a48aadc06ba8757865d1dabd804585338aab3009dcb6600080a3005b34610178576020366003190112610178576001600160a01b03610681610aac565b1660005260006020526020604060002054604051908152f35b34610178576020366003190112610178576004356106b88133610fc1565b337ffd38818f5291bf0bb3a2a48aadc06ba8757865d1dabd804585338aab3009dcb6600080a3005b34610178576040366003190112610178576106f9610aac565b3360009081527f51a495916474fe1a0c0fcfb65a8a97682b84a054118858cdd1f5dfd7fc0919eb6020526040902054602435919060ff16156107c4576001600160a01b031680156107ae5760025491808301809311610798576020926002557fddf252ad1be2c89b69c2b068fc378daa952ba7f163c4a11628f55a4df523b3ef600093849284845283825260408420818154019055604051908152a380f35b634e487b7160e01b600052601160045260246000fd5b63ec442f0560e01b600052600060045260246000fd5b63e2517d3f60e01b600052336004527f9f2df0fed2c77648de5860a4cc508cd0818c85b8b8a1ab4ceeef8d981c8956a660245260446000fd5b3461017857604036600319011261017857610816610ac2565b336001600160a01b03821603610832576101c290600435610f3b565b63334bd91960e11b60005260046000fd5b3461017857600036600319011261017857602061085e610e1f565b604051908152f35b3461017857600036600319011261017857602060ff60095416604051908152f35b34610178576040366003190112610178576101c26004356108a6610ac2565b906108c26101b882600052600860205260016040600020015490565b610d90565b3461017857602036600319011261017857602061085e600435600052600860205260016040600020015490565b346101785760603660031901126101785761036e610910610aac565b610918610ac2565b60443591610927833383610bcd565b610ca4565b34610178576000366003190112610178576020600254604051908152f35b346101785760403660031901126101785761036e610966610aac565b6024359033611042565b3461017857600036600319011261017857604051600060035461099281610ad8565b808452906001811690811561045657506001146109b9576103f3836103df81850382610b95565b600360009081527fc2575a0e9e593c00f959f8c92f12db2869c3395a3b0502d05e2516446f71f85b939250905b8082106109fe575090915081016020016103df6103cf565b9192600181602092548385880101520191019092916109e6565b34610178576020366003190112610178576004359063ffffffff60e01b821680920361017857602091637965db0b60e01b8114908115610a5a575b5015158152f35b6301ffc9a760e01b14905083610a53565b919082519283825260005b848110610a97575050826000602080949584010152601f8019910116010190565b80602080928401015182828601015201610a76565b600435906001600160a01b038216820361017857565b602435906001600160a01b038216820361017857565b90600182811c92168015610b08575b6020831014610af257565b634e487b7160e01b600052602260045260246000fd5b91607f1691610ae7565b60009291815491610b2283610ad8565b8083529260018116908115610b785750600114610b3e57505050565b60009081526020812093945091925b838310610b5e575060209250010190565b600181602092949394548385870101520191019190610b4d565b915050602093945060ff929192191683830152151560051b010190565b90601f8019910116810190811067ffffffffffffffff821117610bb757604052565b634e487b7160e01b600052604160045260246000fd5b6001600160a01b039081166000818152600160209081526040808320948616835293905291909120549291906000198410610c09575b50505050565b828410610c7f578015610c69576001600160a01b03821615610c5357600052600160205260406000209060018060a01b031660005260205260406000209103905538808080610c03565b634a1406b160e11b600052600060045260246000fd5b63e602df0560e01b600052600060045260246000fd5b508290637dc7a0d960e11b60005260018060a01b031660045260245260445260646000fd5b6001600160a01b0316908115610d3d576001600160a01b03169182156107ae576000828152806020526040812054828110610d235791604082827fddf252ad1be2c89b69c2b068fc378daa952ba7f163c4a11628f55a4df523b3ef958760209652828652038282205586815280845220818154019055604051908152a3565b916064928463391434e360e21b8452600452602452604452fd5b634b637e8f60e11b600052600060045260246000fd5b600081815260086020908152604080832033845290915290205460ff1615610d785750565b63e2517d3f60e01b6000523360045260245260446000fd5b60008181526008602090815260408083206001600160a01b038616845290915290205460ff16610e185760008181526008602090815260408083206001600160a01b0395909516808452949091528120805460ff19166001179055339291907f2f8788117e7eff1d82e926ec794901d17c78024a50270940304540a733656f0d9080a4600190565b5050600090565b307f00000000000000000000000000000000000000000000000000000000000000006001600160a01b03161480610f12575b15610e7a577f000000000000000000000000000000000000000000000000000000000000000090565b60405160208101907f8b73c3c69bb8fe3d512ecc4cf759cc79239f7b179b0ffacaa9a75d522b39400f82527f000000000000000000000000000000000000000000000000000000000000000060408201527f000000000000000000000000000000000000000000000000000000000000000060608201524660808201523060a082015260a08152610f0c60c082610b95565b51902090565b507f00000000000000000000000000000000000000000000000000000000000000004614610e51565b60008181526008602090815260408083206001600160a01b038616845290915290205460ff1615610e185760008181526008602090815260408083206001600160a01b0395909516808452949091528120805460ff19169055339291907ff6391f5c32d9c69d2a47ea670b442974b53935d1edc7fd64eb21e047a839171b9080a4600190565b6001600160a01b03168015610d3d5760009181835282602052604083205481811061102957817fddf252ad1be2c89b69c2b068fc378daa952ba7f163c4a11628f55a4df523b3ef926020928587528684520360408620558060025403600255604051908152a3565b6064939263391434e360e21b8452600452602452604452fd5b6001600160a01b0316908115610c69576001600160a01b0316918215610c535760207f8c5be1e5ebec7d5bd14f71427d1e84f3dd0314c0f7b2291e5b200ac8c7c3b925918360005260018252604060002085600052825280604060002055604051908152a3565b60ff81146110f35760ff811690601f82116110e25760408051926110cd8285610b95565b6020808552840191601f190136833783525290565b632cd44ac360e21b60005260046000fd5b5060405161110d81611106816005610b12565b0382610b95565b90565b60ff81146111345760ff811690601f82116110e25760408051926110cd8285610b95565b5060405161110d81611106816006610b12565b91907f7fffffffffffffffffffffffffffffff5d576e7357a4501ddfe92f46681b20a084116111d0579160209360809260ff60009560405194855216868401526040830152606082015282805260015afa156111c4576000516001600160a01b038116156111b85790600090600090565b50600090600190600090565b6040513d6000823e3d90fd5b50505060009160039190565b919091600481101561124e57806111f257509050565b60006001820361120d5763f645eedf60e01b60005260046000fd5b506002810361122b578263fce698f760e01b60005260045260246000fd5b909160036000921461123b575050565b6335e2f38360e21b825260045260249150fd5b634e487b7160e01b600052602160045260246000fdfea164736f6c634300081c000a2f8788117e7eff1d82e926ec794901d17c78024a50270940304540a733656f0d51a495916474fe1a0c0fcfb65a8a97682b84a054118858cdd1f5dfd7fc0919eb5eff886ea0ce6ca488a3d6e336d6c0f75f46d19b42c06ce5ee98e42c96d256c7",
  "linkReferences": {},
  "deployedLinkReferences": {}
}