{
  "_format": "hh-sol-artifact-1",
  "contractName": "CustomToken",
  "sourceName": "contracts/CustomToken.sol",
  "abi": [
    {
      "inputs": [
        {
          "internalType": "string",
          "name": "_name",
          "type": "string"
        },
        {
          "internalType": "string",
          "name": "_symbol",
          "type": "string"
        },
        {
          "internalType": "address",
          "name": "_admin",
          "type": "address"
        },
        {
          "internalType": "uint8",
          "name": "_decimals",
          "type": "uint8"
        }
      ],
      "stateMutability": "nonpayable",
      "type": "constructor"
    },
    {
      "inputs": [],
      "name": "AccessControlBadConfirmation",
      "type": "error"
    },
    {
      "inputs": [
        {
          "internalType": "address",
          "name": "account",
          "type": "address"
        },
        {
          "internalType": "bytes32",
          "name": "neededRole",
          "type": "bytes32"
        }
      ],
      "name": "AccessControlUnauthorizedAccount",
      "type": "error"
    },
    {
      "inputs": [],
      "name": "ECDSAInvalidSignature",
      "type": "error"
    },
    {
      "inputs": [
        {
          "internalType": "uint256",
          "name": "length",
          "type": "uint256"
        }
      ],
      "name": "ECDSAInvalidSignatureLength",
      "type": "error"
    },
    {
      "inputs": [
        {
          "internalType": "bytes32",
          "name": "s",
          "type": "bytes32"
        }
      ],
      "name": "ECDSAInvalidSignatureS",
      "type": "error"
    },
    {
      "inputs": [
        {
          "internalType": "address",
          "name": "spender",
          "type": "address"
        },
        {
          "internalType": "uint256",
          "name": "allowance",
          "type": "uint256"
        },
        {
          "internalType": "uint256",
          "name": "needed",
          "type": "uint256"
        }
      ],
      "name": "ERC20InsufficientAllowance",
      "type": "error"
    },
    {
      "inputs": [
        {
          "internalType": "address",
          "name": "sender",
          "type": "address"
        },
        {
          "internalType": "uint256",
          "name": "balance",
          "type": "uint256"
        },
        {
          "internalType": "uint256",
          "name": "needed",
          "type": "uint256"
        }
      ],
      "name": "ERC20InsufficientBalance",
      "type": "error"
    },
    {
      "inputs": [
        {
          "internalType": "address",
          "name": "approver",
          "type": "address"
        }
      ],
      "name": "ERC20InvalidApprover",
      "type": "error"
    },
    {
      "inputs": [
        {
          "internalType": "address",
          "name": "receiver",
          "type": "address"
        }
      ],
      "name": "ERC20InvalidReceiver",
      "type": "error"
    },
    {
      "inputs": [
        {
          "internalType": "address",
          "name": "sender",
          "type": "address"
        }
      ],
      "name": "ERC20InvalidSender",
      "type": "error"
    },
    {
      "inputs": [
        {
          "internalType": "address",
          "name": "spender",
          "type": "address"
        }
      ],
      "name": "ERC20InvalidSpender",
      "type": "error"
    },
    {
      "inputs": [
        {
          "internalType": "uint256",
          "name": "deadline",
          "type": "uint256"
        }
      ],
      "name": "ERC2612ExpiredSignature",
      "type": "error"
    },
    {
      "inputs": [
        {
          "internalType": "address",
          "name": "signer",
          "type": "address"
        },
        {
          "internalType": "address",
          "name": "owner",
          "type": "address"
        }
      ],
      "name": "ERC2612InvalidSigner",
      "type": "error"
    },
    {
      "inputs": [
        {
          "internalType": "address",
          "name": "account",
          "type": "address"
        },
        {
          "internalType": "uint256",
          "name": "currentNonce",
          "type": "uint256"
        }
      ],
      "name": "InvalidAccountNonce",
      "type": "error"
    },
    {
      "inputs": [],
      "name": "InvalidShortString",
      "type": "error"
    },
    {
      "inputs": [
        {
          "internalType": "string",
          "name": "str",
          "type": "string"
        }
      ],
      "name": "StringTooLong",
      "type": "error"
    },
    {
      "anonymous": false,
      "inputs": [
        {
          "indexed": true,
          "internalType": "address",
          "name": "owner",
          "type": "address"
        },
        {
          "indexed": true,
          "internalType": "address",
          "name": "spender",
          "type": "address"
        },
        {
          "indexed": false,
          "internalType": "uint256",
          "name": "value",
          "type": "uint256"
        }
      ],
      "name": "Approval",
      "type": "event"
    },
    {
      "anonymous": false,
      "inputs": [],
      "name": "EIP712DomainChanged",
      "type": "event"
    },
    {
      "anonymous": false,
      "inputs": [
        {
          "indexed": true,
          "internalType": "bytes32",
          "name": "role",
          "type": "bytes32"
        },
        {
          "indexed": true,
          "internalType": "bytes32",
          "name": "previousAdminRole",
          "type": "bytes32"
        },
        {
          "indexed": true,
          "internalType": "bytes32",
          "name": "newAdminRole",
          "type": "bytes32"
        }
      ],
      "name": "RoleAdminChanged",
      "type": "event"
    },
    {
      "anonymous": false,
      "inputs": [
        {
          "indexed": true,
          "internalType": "bytes32",
          "name": "role",
          "type": "bytes32"
        },
        {
          "indexed": true,
          "internalType": "address",
          "name": "account",
          "type": "address"
        },
        {
          "indexed": true,
          "internalType": "address",
          "name": "sender",
          "type": "address"
        }
      ],
      "name": "RoleGranted",
      "type": "event"
    },
    {
      "anonymous": false,
      "inputs": [
        {
          "indexed": true,
          "internalType": "bytes32",
          "name": "role",
          "type": "bytes32"
        },
        {
          "indexed": true,
          "internalType": "address",
          "name": "account",
          "type": "address"
        },
        {
          "indexed": true,
          "internalType": "address",
          "name": "sender",
          "type": "address"
        }
      ],
      "name": "RoleRevoked",
      "type": "event"
    },
    {
      "anonymous": false,
      "inputs": [
        {
          "indexed": true,
          "internalType": "address",
          "name": "from",
          "type": "address"
        },
        {
          "indexed": true,
          "internalType": "uint256",
          "name": "amount",
          "type": "uint256"
        }
      ],
      "name": "TokensBurned",
      "type": "event"
    },
    {
      "anonymous": false,
      "inputs": [
        {
          "indexed": true,
          "internalType": "address",
          "name": "from",
          "type": "address"
        },
        {
          "indexed": true,
          "internalType": "address",
          "name": "to",
          "type": "address"
        },
        {
          "indexed": false,
          "internalType": "uint256",
          "name": "value",
          "type": "uint256"
        }
      ],
      "name": "Transfer",
      "type": "event"
    },
    {
      "inputs": [],
      "name": "DEFAULT_ADMIN_ROLE",
      "outputs": [
        {
          "internalType": "bytes32",
          "name": "",
          "type": "bytes32"
        }
      ],
      "stateMutability": "view",
      "type": "function"
    },
    {
      "inputs": [],
      "name": "DOMAIN_SEPARATOR",
      "outputs": [
        {
          "internalType": "bytes32",
          "name": "",
          "type": "bytes32"
        }
      ],
      "stateMutability": "view",
      "type": "function"
    },
    {
      "inputs": [],
      "name": "MINTER_ROLE",
      "outputs": [
        {
          "internalType": "bytes32",
          "name": "",
          "type": "bytes32"
        }
      ],
      "stateMutability": "view",
      "type": "function"
    },
    {
      "inputs": [
        {
          "internalType": "address",
          "name": "owner",
          "type": "address"
        },
        {
          "internalType": "address",
          "name": "spender",
          "type": "address"
        }
      ],
      "name": "allowance",
      "outputs": [
        {
          "internalType": "uint256",
          "name": "",
          "type": "uint256"
        }
      ],
      "stateMutability": "view",
      "type": "function"
    },
    {
      "inputs": [
        {
          "internalType": "address",
          "name": "spender",
          "type": "address"
        },
        {
          "internalType": "uint256",
          "name": "value",
          "type": "uint256"
        }
      ],
      "name": "approve",
      "outputs": [
        {
          "internalType": "bool",
          "name": "",
          "type": "bool"
        }
      ],
      "stateMutability": "nonpayable",
      "type": "function"
    },
    {
      "inputs": [
        {
          "internalType": "address",
          "name": "account",
          "type": "address"
        }
      ],
      "name": "balanceOf",
      "outputs": [
        {
          "internalType": "uint256",
          "name": "",
          "type": "uint256"
        }
      ],
      "stateMutability": "view",
      "type": "function"
    },
    {
      "inputs": [
        {
          "internalType": "uint256",
          "name": "amount",
          "type": "uint256"
        }
      ],
      "name": "burn",
      "outputs": [],
      "stateMutability": "nonpayable",
      "type": "function"
    },
    {
      "inputs": [
        {
          "internalType": "address",
          "name": "account",
          "type": "address"
        },
        {
          "internalType": "uint256",
          "name": "amount",
          "type": "uint256"
        }
      ],
      "name": "burnFrom",
      "outputs": [],
      "stateMutability": "nonpayable",
      "type": "function"
    },
    {
      "inputs": [],
      "name": "decimals",
      "outputs": [
        {
          "internalType": "uint8",
          "name": "",
          "type": "uint8"
        }
      ],
      "stateMutability": "view",
      "type": "function"
    },
    {
      "inputs": [],
      "name": "eip712Domain",
      "outputs": [
        {
          "internalType": "bytes1",
          "name": "fields",
          "type": "bytes1"
        },
        {
          "internalType": "string",
          "name": "name",
          "type": "string"
        },
        {
          "internalType": "string",
          "name": "version",
          "type": "string"
        },
        {
          "internalType": "uint256",
          "name": "chainId",
          "type": "uint256"
        },
        {
          "internalType": "address",
          "name": "verifyingContract",
          "type": "address"
        },
        {
          "internalType": "bytes32",
          "name": "salt",
          "type": "bytes32"
        },
        {
          "internalType": "uint256[]",
          "name": "extensions",
          "type": "uint256[]"
        }
      ],
      "stateMutability": "view",
      "type": "function"
    },
    {
      "inputs": [
        {
          "internalType": "bytes32",
          "name": "role",
          "type": "bytes32"
        }
      ],
      "name": "getRoleAdmin",
      "outputs": [
        {
          "internalType": "bytes32",
          "name": "",
          "type": "bytes32"
        }
      ],
      "stateMutability": "view",
      "type": "function"
    },
    {
      "inputs": [
        {
          "internalType": "bytes32",
          "name": "role",
          "type": "bytes32"
        },
        {
          "internalType": "address",
          "name": "account",
          "type": "address"
        }
      ],
      "name": "grantRole",
      "outputs": [],
      "stateMutability": "nonpayable",
      "type": "function"
    },
    {
      "inputs": [
        {
          "internalType": "bytes32",
          "name": "role",
          "type": "bytes32"
        },
        {
          "internalType": "address",
          "name": "account",
          "type": "address"
        }
      ],
      "name": "hasRole",
      "outputs": [
        {
          "internalType": "bool",
          "name": "",
          "type": "bool"
        }
      ],
      "stateMutability": "view",
      "type": "function"
    },
    {
      "inputs": [
        {
          "internalType": "address",
          "name": "to",
          "type": "address"
        },
        {
          "internalType": "uint256",
          "name": "amount",
          "type": "uint256"
        }
      ],
      "name": "mint",
      "outputs": [],
      "stateMutability": "nonpayable",
      "type": "function"
    },
    {
      "inputs": [],
      "name": "name",
      "outputs": [
        {
          "internalType": "string",
          "name": "",
          "type": "string"
        }
      ],
      "stateMutability": "view",
      "type": "function"
    },
    {
      "inputs": [
        {
          "internalType": "address",
          "name": "owner",
          "type": "address"
        }
      ],
      "name": "nonces",
      "outputs": [
        {
          "internalType": "uint256",
          "name": "",
          "type": "uint256"
        }
      ],
      "stateMutability": "view",
      "type": "function"
    },
    {
      "inputs": [
        {
          "internalType": "address",
          "name": "owner",
          "type": "address"
        },
        {
          "internalType": "address",
          "name": "spender",
          "type": "address"
        },
        {
          "internalType": "uint256",
          "name": "value",
          "type": "uint256"
        },
        {
          "internalType": "uint256",
          "name": "deadline",
          "type": "uint256"
        },
        {
          "internalType": "uint8",
          "name": "v",
          "type": "uint8"
        },
        {
          "internalType": "bytes32",
          "name": "r",
          "type": "bytes32"
        },
        {
          "internalType": "bytes32",
          "name": "s",
          "type": "bytes32"
        }
      ],
      "name": "permit",
      "outputs": [],
      "stateMutability": "nonpayable",
      "type": "function"
    },
    {
      "inputs": [
        {
          "internalType": "bytes32",
          "name": "role",
          "type": "bytes32"
        },
        {
          "internalType": "address",
          "name": "callerConfirmation",
          "type": "address"
        }
      ],
      "name": "renounceRole",
      "outputs": [],
      "stateMutability": "nonpayable",
      "type": "function"
    },
    {
      "inputs": [
        {
          "internalType": "bytes32",
          "name": "role",
          "type": "bytes32"
        },
        {
          "internalType": "address",
          "name": "account",
          "type": "address"
        }
      ],
      "name": "revokeRole",
      "outputs": [],
      "stateMutability": "nonpayable",
      "type": "function"
    },
    {
      "inputs": [
        {
          "internalType": "bytes4",
          "name": "interfaceId",
          "type": "bytes4"
        }
      ],
      "name": "supportsInterface",
      "outputs": [
        {
          "internalType": "bool",
          "name": "",
          "type": "bool"
        }
      ],
      "stateMutability": "view",
      "type": "function"
    },
    {
      "inputs": [],
      "name": "symbol",
      "outputs": [
        {
          "internalType": "string",
          "name": "",
          "type": "string"
        }
      ],
      "stateMutability": "view",
      "type": "function"
    },
    {
      "inputs": [],
      "name": "totalSupply",
      "outputs": [
        {
          "internalType": "uint256",
          "name": "",
          "type": "uint256"
        }
      ],
      "stateMutability": "view",
      "type": "function"
    },
    {
      "inputs": [
        {
          "internalType": "address",
          "name": "to",
          "type": "address"
        },
        {
          "internalType": "uint256",
          "name": "value",
          "type": "uint256"
        }
      ],
      "name": "transfer",
      "outputs": [
        {
          "internalType": "bool",
          "name": "",
          "type": "bool"
        }
      ],
      "stateMutability": "nonpayable",
      "type": "function"
    },
    {
      "inputs": [
        {
          "internalType": "address",
          "name": "from",
          "type": "address"
        },
        {
          "internalType": "address",
          "name": "to",
          "type": "address"
        },
        {
          "internalType": "uint256",
          "name": "value",
          "type": "uint256"
        }
      ],
      "name": "transferFrom",
      "outputs": [
        {
          "internalType": "bool",
          "name": "",
          "type": "bool"
        }
      ],
      "stateMutability": "nonpayable",
      "type": "function"
    }
  ],
  "bytecode": "0x610160806040523461059557600090611f708038038091610020828561059a565b83398101906080818303126105895780516001600160401b038111610591578261004b9183016105f6565b602082015190926001600160401b03821161058d5761006b9183016105f6565b92604082015160018060a01b03811692838203610589576060015160ff8116809103610589576040948551906100a1878361059a565b60018252603160f81b6020830190815281519091906001600160401b03811161049a57600354600181811c9116801561057f575b602082101461047c57601f811161051c575b50806020601f82116001146104b95788916104ae575b508160011b916000199060031b1c1916176003555b88516001600160401b03811161049a57600454600181811c91168015610490575b602082101461047c57601f8111610419575b506020601f82116001146103af57819088999a9b6102cc99926103a4575b50508160011b916000199060031b1c1916176004555b6101828161075e565b6101205261018f83610905565b6101405260208151910120918260e05251902080610100524660a05287519060208201927f8b73c3c69bb8fe3d512ecc4cf759cc79239f7b179b0ffacaa9a75d522b39400f84528983015260608201524660808201523060a082015260a081526101fa60c08261059a565b5190206080523060c0526102218680516786eddc060f961d8160208201526020815261059a565b61023e86805167d625b276694a8e4d60208201526020815261059a565b60ff19600954161760095561026685805167430c82e8e929b3fe60208201526020815261059a565b61028385805167d3e394f7714063e860208201526020815261059a565b61028c8161064a565b506102aa858051671d0bbc90bbf0729160208201526020815261059a565b6102c78580516795589aa0a94b830c60208201526020815261059a565b6106c6565b506102ea8380516702a09529f8de572660208201526020815261059a565b61030783805167a800c34f758643c860208201526020815261059a565b811561039057506000818152602081815283518281527fddf252ad1be2c89b69c2b068fc378daa952ba7f163c4a11628f55a4df523b3ef9190a3516114c89081610a488239608051816110af015260a0518161116c015260c05181611079015260e051816110fe01526101005181611124015261012051816104e0015261014051816105090152f35b63ec442f0560e01b81526004819052602490fd5b015190503880610163565b600488528088209a601f198316895b8181106104015750916102cc999a9b9c918460019594106103e8575b505050811b01600455610179565b015160001960f88460031b161c191690553880806103da565b838301518e556001909d019c602093840193016103be565b600488527f8a35acfbc15ff81a39ae7d344fd709f28e8600b4aa8c65c6b64bfe7fe36bd19b601f830160051c81019160208410610472575b601f0160051c01905b8181106104675750610145565b88815560010161045a565b9091508190610451565b634e487b7160e01b88526022600452602488fd5b90607f1690610133565b634e487b7160e01b87526041600452602487fd5b9050820151386100fd565b600389528089209150601f198316895b818110610504575090836001949392106104eb575b5050811b01600355610112565b84015160001960f88460031b161c1916905538806104de565b919260206001819286890151815501940192016104c9565b600388527fc2575a0e9e593c00f959f8c92f12db2869c3395a3b0502d05e2516446f71f85b601f830160051c81019160208410610575575b601f0160051c01905b81811061056a57506100e7565b88815560010161055d565b9091508190610554565b90607f16906100d5565b8280fd5b8480fd5b8380fd5b600080fd5b601f909101601f19168101906001600160401b038211908210176105bd57604052565b634e487b7160e01b600052604160045260246000fd5b60005b8381106105e65750506000910152565b81810151838201526020016105d6565b81601f820112156105955780516001600160401b0381116105bd5760405192610629601f8301601f19166020018561059a565b818452602082840101116105955761064791602080850191016105d3565b90565b6001600160a01b0381166000908152600080516020611f50833981519152602052604090205460ff166106c0576001600160a01b03166000818152600080516020611f5083398151915260205260408120805460ff19166001179055339190600080516020611f108339815191528180a4600190565b50600090565b6001600160a01b0381166000908152600080516020611f30833981519152602052604090205460ff166106c0576001600160a01b03166000818152600080516020611f3083398151915260205260408120805460ff191660011790553391907f9f2df0fed2c77648de5860a4cc508cd0818c85b8b8a1ab4ceeef8d981c8956a690600080516020611f108339815191529080a4600190565b908151602081106000146107d9575090601f81511161079a57602081519101516020821061078a571790565b6000198260200360031b1b161790565b6044604051809263305a27a960e01b8252602060048301526107cb81518092816024860152602086860191016105d3565b601f01601f19168101030190fd5b6001600160401b0381116105bd57600554600181811c911680156108fb575b60208210146108e557601f81116108af575b50602092601f821160011461084a579281929360009261083f575b50508160011b916000199060031b1c19161760055560ff90565b015190503880610825565b601f198216936005600052806000209160005b868110610897575083600195961061087e575b505050811b0160055560ff90565b015160001960f88460031b161c19169055388080610870565b9192602060018192868501518155019401920161085d565b6005600052601f6020600020910160051c810190601f830160051c015b8181106108d9575061080a565b600081556001016108cc565b634e487b7160e01b600052602260045260246000fd5b90607f16906107f8565b90815160208110600014610931575090601f81511161079a57602081519101516020821061078a571790565b6001600160401b0381116105bd57600654600181811c91168015610a3d575b60208210146108e557601f8111610a07575b50602092601f82116001146109a25792819293600092610997575b50508160011b916000199060031b1c19161760065560ff90565b01519050388061097d565b601f198216936006600052806000209160005b8681106109ef57508360019596106109d6575b505050811b0160065560ff90565b015160001960f88460031b161c191690553880806109c8565b919260206001819286850151815501940192016109b5565b6006600052601f6020600020910160051c810190601f830160051c015b818110610a315750610962565b60008155600101610a24565b90607f169061095056fe608080604052600436101561001357600080fd5b60003560e01c90816301ffc9a714610c6f5750806306fdde0314610bc7578063095ea7b314610ba157806318160ddd14610b8357806323b872dd14610b4b578063248a9ca314610b1e5780632f2ff15d14610ade578063313ce56714610a635780633644e51514610a4057806336568abe146109fa57806340c10f191461084857806342966c681461076c57806370a082311461073257806379cc6790146105fe5780637ecebe00146105c457806384b0196e146104c757806391d148541461047a57806395d89b4114610395578063a217fddf14610379578063a9059cbb14610348578063d505accf146101ff578063d5391393146101c4578063d547741f1461017d5763dd62ed3e1461012757600080fd5b3461017857604036600319011261017857610140610d03565b610148610d19565b6001600160a01b039182166000908152600160209081526040808320949093168252928352819020549051908152f35b600080fd5b34610178576040366003190112610178576101c260043561019c610d19565b906101bd6101b882600052600860205260016040600020015490565b610faa565b611192565b005b346101785760003660031901126101785760206040517f9f2df0fed2c77648de5860a4cc508cd0818c85b8b8a1ab4ceeef8d981c8956a68152f35b346101785760e036600319011261017857610218610d03565b610220610d19565b604435906064359260843560ff8116810361017857844211610333576102f66102ff9160018060a01b038416968760005260076020526040600020908154916001830190556040519060208201927f6e71edae12b1b97f4d1f60370fef10105fa2faae0126114a169c64845d6126c984528a604084015260018060a01b038916606084015289608084015260a083015260c082015260c081526102c460e082610dec565b5190206102cf611076565b906040519161190160f01b83526002830152602282015260c43591604260a435922061139e565b90929192611433565b6001600160a01b031684810361031a57506101c29350611299565b84906325c0072360e11b60005260045260245260446000fd5b8463313c898160e11b60005260045260246000fd5b346101785760403660031901126101785761036e610364610d03565b6024359033610efb565b602060405160018152f35b3461017857600036600319011261017857602060405160008152f35b346101785760003660031901126101785760405160006004546103b781610d2f565b808452906001811690811561045657506001146103f7575b6103f3836103df81850382610dec565b604051918291602083526020830190610cc2565b0390f35b600460009081527f8a35acfbc15ff81a39ae7d344fd709f28e8600b4aa8c65c6b64bfe7fe36bd19b939250905b80821061043c575090915081016020016103df6103cf565b919260018160209254838588010152019101909291610424565b60ff191660208086019190915291151560051b840190910191506103df90506103cf565b3461017857604036600319011261017857610493610d19565b600435600052600860205260406000209060018060a01b0316600052602052602060ff604060002054166040519015158152f35b34610178576000366003190112610178576105666105047f0000000000000000000000000000000000000000000000000000000000000000611300565b61052d7f0000000000000000000000000000000000000000000000000000000000000000611367565b6020610574604051926105408385610dec565b600084526000368137604051958695600f60f81b875260e08588015260e0870190610cc2565b908582036040870152610cc2565b466060850152306080850152600060a085015283810360c085015281808451928381520193019160005b8281106105ad57505050500390f35b83518552869550938101939281019260010161059e565b34610178576020366003190112610178576001600160a01b036105e5610d03565b1660005260076020526020604060002054604051908152f35b3461017857604036600319011261017857610617610d03565b6024359061063960408051678f69241496baa5f4602082015260208152610dec565b6106576040805167fce90133f29c9643602082015260208152610dec565b610675604080516784ba172e538392a0602082015260208152610dec565b610680823383610e24565b61069e604080516733ab6057dc6ea1f8602082015260208152610dec565b6106bc60408051674f94062dfca1e139602082015260208152610dec565b6106c68282611218565b6106e4604080516763596764756f3d1f602082015260208152610dec565b6107026040805167ce31f89f83f1ebd8602082015260208152610dec565b6001600160a01b03167ffd38818f5291bf0bb3a2a48aadc06ba8757865d1dabd804585338aab3009dcb6600080a3005b34610178576020366003190112610178576001600160a01b03610753610d03565b1660005260006020526020604060002054604051908152f35b346101785760203660031901126101785760043561079e604080516736cc34fc6f95b753602082015260208152610dec565b6107bc60408051677d31405a9c21675b602082015260208152610dec565b6107da604080516745901ed301494feb602082015260208152610dec565b6107e48133611218565b6108026040805167e0c3b9ba863cf7ea602082015260208152610dec565b61082060408051674934b5eb18bd7634602082015260208152610dec565b337ffd38818f5291bf0bb3a2a48aadc06ba8757865d1dabd804585338aab3009dcb6600080a3005b3461017857604036600319011261017857610861610d03565b6024359061088360408051674b0d4a56192bb9c6602082015260208152610dec565b3360009081527f51a495916474fe1a0c0fcfb65a8a97682b84a054118858cdd1f5dfd7fc0919eb602052604090205460ff16156109c1576108d860408051676ae3cf913caec693602082015260208152610dec565b6108f660408051675ac2c6a7641160fe602082015260208152610dec565b610914604080516703abe08c9c0ce158602082015260208152610dec565b6109326040805167126d37b4e0fb3c16602082015260208152610dec565b6001600160a01b031680156109ab5760025491808301809311610995576020926002557fddf252ad1be2c89b69c2b068fc378daa952ba7f163c4a11628f55a4df523b3ef600093849284845283825260408420818154019055604051908152a380f35b634e487b7160e01b600052601160045260246000fd5b63ec442f0560e01b600052600060045260246000fd5b63e2517d3f60e01b600052336004527f9f2df0fed2c77648de5860a4cc508cd0818c85b8b8a1ab4ceeef8d981c8956a660245260446000fd5b3461017857604036600319011261017857610a13610d19565b336001600160a01b03821603610a2f576101c290600435611192565b63334bd91960e11b60005260046000fd5b34610178576000366003190112610178576020610a5b611076565b604051908152f35b3461017857600036600319011261017857610a9260408051679abf70f8238a4b6a602082015260208152610dec565b610ab06040805167ac78ee220f768213602082015260208152610dec565b610ace6040805167bf6bfdf60d847b09602082015260208152610dec565b602060ff60095416604051908152f35b34610178576040366003190112610178576101c2600435610afd610d19565b90610b196101b882600052600860205260016040600020015490565b610fe7565b34610178576020366003190112610178576020610a5b600435600052600860205260016040600020015490565b346101785760603660031901126101785761036e610b67610d03565b610b6f610d19565b60443591610b7e833383610e24565b610efb565b34610178576000366003190112610178576020600254604051908152f35b346101785760403660031901126101785761036e610bbd610d03565b6024359033611299565b34610178576000366003190112610178576040516000600354610be981610d2f565b80845290600181169081156104565750600114610c10576103f3836103df81850382610dec565b600360009081527fc2575a0e9e593c00f959f8c92f12db2869c3395a3b0502d05e2516446f71f85b939250905b808210610c55575090915081016020016103df6103cf565b919260018160209254838588010152019101909291610c3d565b34610178576020366003190112610178576004359063ffffffff60e01b821680920361017857602091637965db0b60e01b8114908115610cb1575b5015158152f35b6301ffc9a760e01b14905083610caa565b919082519283825260005b848110610cee575050826000602080949584010152601f8019910116010190565b80602080928401015182828601015201610ccd565b600435906001600160a01b038216820361017857565b602435906001600160a01b038216820361017857565b90600182811c92168015610d5f575b6020831014610d4957565b634e487b7160e01b600052602260045260246000fd5b91607f1691610d3e565b60009291815491610d7983610d2f565b8083529260018116908115610dcf5750600114610d9557505050565b60009081526020812093945091925b838310610db5575060209250010190565b600181602092949394548385870101520191019190610da4565b915050602093945060ff929192191683830152151560051b010190565b90601f8019910116810190811067ffffffffffffffff821117610e0e57604052565b634e487b7160e01b600052604160045260246000fd5b6001600160a01b039081166000818152600160209081526040808320948616835293905291909120549291906000198410610e60575b50505050565b828410610ed6578015610ec0576001600160a01b03821615610eaa57600052600160205260406000209060018060a01b031660005260205260406000209103905538808080610e5a565b634a1406b160e11b600052600060045260246000fd5b63e602df0560e01b600052600060045260246000fd5b508290637dc7a0d960e11b60005260018060a01b031660045260245260445260646000fd5b6001600160a01b0316908115610f94576001600160a01b03169182156109ab576000828152806020526040812054828110610f7a5791604082827fddf252ad1be2c89b69c2b068fc378daa952ba7f163c4a11628f55a4df523b3ef958760209652828652038282205586815280845220818154019055604051908152a3565b916064928463391434e360e21b8452600452602452604452fd5b634b637e8f60e11b600052600060045260246000fd5b600081815260086020908152604080832033845290915290205460ff1615610fcf5750565b63e2517d3f60e01b6000523360045260245260446000fd5b60008181526008602090815260408083206001600160a01b038616845290915290205460ff1661106f5760008181526008602090815260408083206001600160a01b0395909516808452949091528120805460ff19166001179055339291907f2f8788117e7eff1d82e926ec794901d17c78024a50270940304540a733656f0d9080a4600190565b5050600090565b307f00000000000000000000000000000000000000000000000000000000000000006001600160a01b03161480611169575b156110d1577f000000000000000000000000000000000000000000000000000000000000000090565b60405160208101907f8b73c3c69bb8fe3d512ecc4cf759cc79239f7b179b0ffacaa9a75d522b39400f82527f000000000000000000000000000000000000000000000000000000000000000060408201527f000000000000000000000000000000000000000000000000000000000000000060608201524660808201523060a082015260a0815261116360c082610dec565b51902090565b507f000000000000000000000000000000000000000000000000000000000000000046146110a8565b60008181526008602090815260408083206001600160a01b038616845290915290205460ff161561106f5760008181526008602090815260408083206001600160a01b0395909516808452949091528120805460ff19169055339291907ff6391f5c32d9c69d2a47ea670b442974b53935d1edc7fd64eb21e047a839171b9080a4600190565b6001600160a01b03168015610f945760009181835282602052604083205481811061128057817fddf252ad1be2c89b69c2b068fc378daa952ba7f163c4a11628f55a4df523b3ef926020928587528684520360408620558060025403600255604051908152a3565b6064939263391434e360e21b8452600452602452604452fd5b6001600160a01b0316908115610ec0576001600160a01b0316918215610eaa5760207f8c5be1e5ebec7d5bd14f71427d1e84f3dd0314c0f7b2291e5b200ac8c7c3b925918360005260018252604060002085600052825280604060002055604051908152a3565b60ff811461134a5760ff811690601f82116113395760408051926113248285610dec565b6020808552840191601f190136833783525290565b632cd44ac360e21b60005260046000fd5b506040516113648161135d816005610d69565b0382610dec565b90565b60ff811461138b5760ff811690601f82116113395760408051926113248285610dec565b506040516113648161135d816006610d69565b91907f7fffffffffffffffffffffffffffffff5d576e7357a4501ddfe92f46681b20a08411611427579160209360809260ff60009560405194855216868401526040830152606082015282805260015afa1561141b576000516001600160a01b0381161561140f5790600090600090565b50600090600190600090565b6040513d6000823e3d90fd5b50505060009160039190565b91909160048110156114a5578061144957509050565b6000600182036114645763f645eedf60e01b60005260046000fd5b5060028103611482578263fce698f760e01b60005260045260246000fd5b9091600360009214611492575050565b6335e2f38360e21b825260045260249150fd5b634e487b7160e01b600052602160045260246000fdfea164736f6c634300081c000a2f8788117e7eff1d82e926ec794901d17c78024a50270940304540a733656f0d51a495916474fe1a0c0fcfb65a8a97682b84a054118858cdd1f5dfd7fc0919eb5eff886ea0ce6ca488a3d6e336d6c0f75f46d19b42c06ce5ee98e42c96d256c7",
  "linkReferences": {},
  "deployedLinkReferences": {}
}