{
  "_format": "hh-sol-artifact-1",
  "contractName": "CustomToken",
  "sourceName": "contracts/CustomToken.sol",
  "abi": [
    {
      "inputs": [
        {
          "internalType": "string",
          "name": "_name",
          "type": "string"
        },
        {
          "internalType": "string",
          "name": "_symbol",
          "type": "string"
        },
        {
          "internalType": "address",
          "name": "_admin",
          "type": "address"
        },
        {
          "internalType": "uint8",
          "name": "_decimals",
          "type": "uint8"
        }
      ],
      "stateMutability": "nonpayable",
      "type": "constructor"
    },
    {
      "inputs": [],
      "name": "AccessControlBadConfirmation",
      "type": "error"
    },
    {
      "inputs": [
        {
          "internalType": "address",
          "name": "account",
          "type": "address"
        },
        {
          "internalType": "bytes32",
          "name": "neededRole",
          "type": "bytes32"
        }
      ],
      "name": "AccessControlUnauthorizedAccount",
      "type": "error"
    },
    {
      "inputs": [],
      "name": "ECDSAInvalidSignature",
      "type": "error"
    },
    {
      "inputs": [
        {
          "internalType": "uint256",
          "name": "length",
          "type": "uint256"
        }
      ],
      "name": "ECDSAInvalidSignatureLength",
      "type": "error"
    },
    {
      "inputs": [
        {
          "internalType": "bytes32",
          "name": "s",
          "type": "bytes32"
        }
      ],
      "name": "ECDSAInvalidSignatureS",
      "type": "error"
    },
    {
      "inputs": [
        {
          "internalType": "address",
          "name": "spender",
          "type": "address"
        },
        {
          "internalType": "uint256",
          "name": "allowance",
          "type": "uint256"
        },
        {
          "internalType": "uint256",
          "name": "needed",
          "type": "uint256"
        }
      ],
      "name": "ERC20InsufficientAllowance",
      "type": "error"
    },
    {
      "inputs": [
        {
          "internalType": "address",
          "name": "sender",
          "type": "address"
        },
        {
          "internalType": "uint256",
          "name": "balance",
          "type": "uint256"
        },
        {
          "internalType": "uint256",
          "name": "needed",
          "type": "uint256"
        }
      ],
      "name": "ERC20InsufficientBalance",
      "type": "error"
    },
    {
      "inputs": [
        {
          "internalType": "address",
          "name": "approver",
          "type": "address"
        }
      ],
      "name": "ERC20InvalidApprover",
      "type": "error"
    },
    {
      "inputs": [
        {
          "internalType": "address",
          "name": "receiver",
          "type": "address"
        }
      ],
      "name": "ERC20InvalidReceiver",
      "type": "error"
    },
    {
      "inputs": [
        {
          "internalType": "address",
          "name": "sender",
          "type": "address"
        }
      ],
      "name": "ERC20InvalidSender",
      "type": "error"
    },
    {
      "inputs": [
        {
          "internalType": "address",
          "name": "spender",
          "type": "address"
        }
      ],
      "name": "ERC20InvalidSpender",
      "type": "error"
    },
    {
      "inputs": [
        {
          "internalType": "uint256",
          "name": "deadline",
          "type": "uint256"
        }
      ],
      "name": "ERC2612ExpiredSignature",
      "type": "error"
    },
    {
      "inputs": [
        {
          "internalType": "address",
          "name": "signer",
          "type": "address"
        },
        {
          "internalType": "address",
          "name": "owner",
          "type": "address"
        }
      ],
      "name": "ERC2612InvalidSigner",
      "type": "error"
    },
    {
      "inputs": [
        {
          "internalType": "address",
          "name": "account",
          "type": "address"
        },
        {
          "internalType": "uint256",
          "name": "currentNonce",
          "type": "uint256"
        }
      ],
      "name": "InvalidAccountNonce",
      "type": "error"
    },
    {
      "inputs": [],
      "name": "InvalidShortString",
      "type": "error"
    },
    {
      "inputs": [
        {
          "internalType": "string",
          "name": "str",
          "type": "string"
        }
      ],
      "name": "StringTooLong",
      "type": "error"
    },
    {
      "anonymous": false,
      "inputs": [
        {
          "indexed": true,
          "internalType": "address",
          "name": "owner",
          "type": "address"
        },
        {
          "indexed": true,
          "internalType": "address",
          "name": "spender",
          "type": "address"
        },
        {
          "indexed": false,
          "internalType": "uint256",
          "name": "value",
          "type": "uint256"
        }
      ],
      "name": "Approval",
      "type": "event"
    },
    {
      "anonymous": false,
      "inputs": [],
      "name": "EIP712DomainChanged",
      "type": "event"
    },
    {
      "anonymous": false,
      "inputs": [
        {
          "indexed": true,
          "internalType": "bytes32",
          "name": "role",
          "type": "bytes32"
        },
        {
          "indexed": true,
          "internalType": "bytes32",
          "name": "previousAdminRole",
          "type": "bytes32"
        },
        {
          "indexed": true,
          "internalType": "bytes32",
          "name": "newAdminRole",
          "type": "bytes32"
        }
      ],
      "name": "RoleAdminChanged",
      "type": "event"
    },
    {
      "anonymous": false,
      "inputs": [
        {
          "indexed": true,
          "internalType": "bytes32",
          "name": "role",
          "type": "bytes32"
        },
        {
          "indexed": true,
          "internalType": "address",
          "name": "account",
          "type": "address"
        },
        {
          "indexed": true,
          "internalType": "address",
          "name": "sender",
          "type": "address"
        }
      ],
      "name": "RoleGranted",
      "type": "event"
    },
    {
      "anonymous": false,
      "inputs": [
        {
          "indexed": true,
          "internalType": "bytes32",
          "name": "role",
          "type": "bytes32"
        },
        {
          "indexed": true,
          "internalType": "address",
          "name": "account",
          "type": "address"
        },
        {
          "indexed": true,
          "internalType": "address",
          "name": "sender",
          "type": "address"
        }
      ],
      "name": "RoleRevoked",
      "type": "event"
    },
    {
      "anonymous": false,
      "inputs": [
        {
          "indexed": true,
          "internalType": "address",
          "name": "from",
          "type": "address"
        },
        {
          "indexed": false,
          "internalType": "uint256",
          "name": "amount",
          "type": "uint256"
        }
      ],
      "name": "TokensBurned",
      "type": "event"
    },
    {
      "anonymous": false,
      "inputs": [
        {
          "indexed": true,
          "internalType": "address",
          "name": "from",
          "type": "address"
        },
        {
          "indexed": true,
          "internalType": "address",
          "name": "to",
          "type": "address"
        },
        {
          "indexed": false,
          "internalType": "uint256",
          "name": "value",
          "type": "uint256"
        }
      ],
      "name": "Transfer",
      "type": "event"
    },
    {
      "inputs": [],
      "name": "DEFAULT_ADMIN_ROLE",
      "outputs": [
        {
          "internalType": "bytes32",
          "name": "",
          "type": "bytes32"
        }
      ],
      "stateMutability": "view",
      "type": "function"
    },
    {
      "inputs": [],
      "name": "DOMAIN_SEPARATOR",
      "outputs": [
        {
          "internalType": "bytes32",
          "name": "",
          "type": "bytes32"
        }
      ],
      "stateMutability": "view",
      "type": "function"
    },
    {
      "inputs": [],
      "name": "MINTER_ADMIN_ROLE",
      "outputs": [
        {
          "internalType": "bytes32",
          "name": "",
          "type": "bytes32"
        }
      ],
      "stateMutability": "view",
      "type": "function"
    },
    {
      "inputs": [],
      "name": "MINTER_ROLE",
      "outputs": [
        {
          "internalType": "bytes32",
          "name": "",
          "type": "bytes32"
        }
      ],
      "stateMutability": "view",
      "type": "function"
    },
    {
      "inputs": [
        {
          "internalType": "address",
          "name": "owner",
          "type": "address"
        },
        {
          "internalType": "address",
          "name": "spender",
          "type": "address"
        }
      ],
      "name": "allowance",
      "outputs": [
        {
          "internalType": "uint256",
          "name": "",
          "type": "uint256"
        }
      ],
      "stateMutability": "view",
      "type": "function"
    },
    {
      "inputs": [
        {
          "internalType": "address",
          "name": "spender",
          "type": "address"
        },
        {
          "internalType": "uint256",
          "name": "value",
          "type": "uint256"
        }
      ],
      "name": "approve",
      "outputs": [
        {
          "internalType": "bool",
          "name": "",
          "type": "bool"
        }
      ],
      "stateMutability": "nonpayable",
      "type": "function"
    },
    {
      "inputs": [
        {
          "internalType": "address",
          "name": "account",
          "type": "address"
        }
      ],
      "name": "balanceOf",
      "outputs": [
        {
          "internalType": "uint256",
          "name": "",
          "type": "uint256"
        }
      ],
      "stateMutability": "view",
      "type": "function"
    },
    {
      "inputs": [
        {
          "internalType": "uint256",
          "name": "amount",
          "type": "uint256"
        }
      ],
      "name": "burn",
      "outputs": [],
      "stateMutability": "nonpayable",
      "type": "function"
    },
    {
      "inputs": [
        {
          "internalType": "address",
          "name": "account",
          "type": "address"
        },
        {
          "internalType": "uint256",
          "name": "amount",
          "type": "uint256"
        }
      ],
      "name": "burnFrom",
      "outputs": [],
      "stateMutability": "nonpayable",
      "type": "function"
    },
    {
      "inputs": [],
      "name": "decimals",
      "outputs": [
        {
          "internalType": "uint8",
          "name": "",
          "type": "uint8"
        }
      ],
      "stateMutability": "view",
      "type": "function"
    },
    {
      "inputs": [],
      "name": "eip712Domain",
      "outputs": [
        {
          "internalType": "bytes1",
          "name": "fields",
          "type": "bytes1"
        },
        {
          "internalType": "string",
          "name": "name",
          "type": "string"
        },
        {
          "internalType": "string",
          "name": "version",
          "type": "string"
        },
        {
          "internalType": "uint256",
          "name": "chainId",
          "type": "uint256"
        },
        {
          "internalType": "address",
          "name": "verifyingContract",
          "type": "address"
        },
        {
          "internalType": "bytes32",
          "name": "salt",
          "type": "bytes32"
        },
        {
          "internalType": "uint256[]",
          "name": "extensions",
          "type": "uint256[]"
        }
      ],
      "stateMutability": "view",
      "type": "function"
    },
    {
      "inputs": [
        {
          "internalType": "bytes32",
          "name": "role",
          "type": "bytes32"
        }
      ],
      "name": "getRoleAdmin",
      "outputs": [
        {
          "internalType": "bytes32",
          "name": "",
          "type": "bytes32"
        }
      ],
      "stateMutability": "view",
      "type": "function"
    },
    {
      "inputs": [
        {
          "internalType": "bytes32",
          "name": "role",
          "type": "bytes32"
        },
        {
          "internalType": "address",
          "name": "account",
          "type": "address"
        }
      ],
      "name": "grantRole",
      "outputs": [],
      "stateMutability": "nonpayable",
      "type": "function"
    },
    {
      "inputs": [
        {
          "internalType": "bytes32",
          "name": "role",
          "type": "bytes32"
        },
        {
          "internalType": "address",
          "name": "account",
          "type": "address"
        }
      ],
      "name": "hasRole",
      "outputs": [
        {
          "internalType": "bool",
          "name": "",
          "type": "bool"
        }
      ],
      "stateMutability": "view",
      "type": "function"
    },
    {
      "inputs": [
        {
          "internalType": "address",
          "name": "to",
          "type": "address"
        },
        {
          "internalType": "uint256",
          "name": "amount",
          "type": "uint256"
        }
      ],
      "name": "mint",
      "outputs": [],
      "stateMutability": "nonpayable",
      "type": "function"
    },
    {
      "inputs": [],
      "name": "name",
      "outputs": [
        {
          "internalType": "string",
          "name": "",
          "type": "string"
        }
      ],
      "stateMutability": "view",
      "type": "function"
    },
    {
      "inputs": [
        {
          "internalType": "address",
          "name": "owner",
          "type": "address"
        }
      ],
      "name": "nonces",
      "outputs": [
        {
          "internalType": "uint256",
          "name": "",
          "type": "uint256"
        }
      ],
      "stateMutability": "view",
      "type": "function"
    },
    {
      "inputs": [
        {
          "internalType": "address",
          "name": "owner",
          "type": "address"
        },
        {
          "internalType": "address",
          "name": "spender",
          "type": "address"
        },
        {
          "internalType": "uint256",
          "name": "value",
          "type": "uint256"
        },
        {
          "internalType": "uint256",
          "name": "deadline",
          "type": "uint256"
        },
        {
          "internalType": "uint8",
          "name": "v",
          "type": "uint8"
        },
        {
          "internalType": "bytes32",
          "name": "r",
          "type": "bytes32"
        },
        {
          "internalType": "bytes32",
          "name": "s",
          "type": "bytes32"
        }
      ],
      "name": "permit",
      "outputs": [],
      "stateMutability": "nonpayable",
      "type": "function"
    },
    {
      "inputs": [
        {
          "internalType": "bytes32",
          "name": "role",
          "type": "bytes32"
        },
        {
          "internalType": "address",
          "name": "callerConfirmation",
          "type": "address"
        }
      ],
      "name": "renounceRole",
      "outputs": [],
      "stateMutability": "nonpayable",
      "type": "function"
    },
    {
      "inputs": [
        {
          "internalType": "bytes32",
          "name": "role",
          "type": "bytes32"
        },
        {
          "internalType": "address",
          "name": "account",
          "type": "address"
        }
      ],
      "name": "revokeRole",
      "outputs": [],
      "stateMutability": "nonpayable",
      "type": "function"
    },
    {
      "inputs": [
        {
          "internalType": "bytes4",
          "name": "interfaceId",
          "type": "bytes4"
        }
      ],
      "name": "supportsInterface",
      "outputs": [
        {
          "internalType": "bool",
          "name": "",
          "type": "bool"
        }
      ],
      "stateMutability": "view",
      "type": "function"
    },
    {
      "inputs": [],
      "name": "symbol",
      "outputs": [
        {
          "internalType": "string",
          "name": "",
          "type": "string"
        }
      ],
      "stateMutability": "view",
      "type": "function"
    },
    {
      "inputs": [],
      "name": "totalSupply",
      "outputs": [
        {
          "internalType": "uint256",
          "name": "",
          "type": "uint256"
        }
      ],
      "stateMutability": "view",
      "type": "function"
    },
    {
      "inputs": [
        {
          "internalType": "address",
          "name": "to",
          "type": "address"
        },
        {
          "internalType": "uint256",
          "name": "value",
          "type": "uint256"
        }
      ],
      "name": "transfer",
      "outputs": [
        {
          "internalType": "bool",
          "name": "",
          "type": "bool"
        }
      ],
      "stateMutability": "nonpayable",
      "type": "function"
    },
    {
      "inputs": [
        {
          "internalType": "address",
          "name": "from",
          "type": "address"
        },
        {
          "internalType": "address",
          "name": "to",
          "type": "address"
        },
        {
          "internalType": "uint256",
          "name": "value",
          "type": "uint256"
        }
      ],
      "name": "transferFrom",
      "outputs": [
        {
          "internalType": "bool",
          "name": "",
          "type": "bool"
        }
      ],
      "stateMutability": "nonpayable",
      "type": "function"
    }
  ],
  "bytecode": "0x61016080604052346104f057611cca803803809161001d82856104f5565b833981016080828203126104f05781516001600160401b0381116104f0578161004791840161053b565b602083015190916001600160401b0382116104f05761006791840161053b565b604083015190926001600160a01b03821682036104f0576060015160ff81168091036104f05760409283519061009d85836104f5565b60018252603160f81b6020830190815281519091906001600160401b0381116103fa57600354600181811c911680156104e6575b60208210146103da57601f8111610481575b50806020601f821160011461041b57600091610410575b508160011b916000199060031b1c1916176003555b86516001600160401b0381116103fa57600454600181811c911680156103f0575b60208210146103da57601f8111610375575b506020601f82116001146103095781906102ae98996000926102fe575b50508160011b916000199060031b1c1916176004555b61017e816106b3565b6101205261018b83610844565b6101405260208151910120918260e05251902080610100524660a05285519060208201927f8b73c3c69bb8fe3d512ecc4cf759cc79239f7b179b0ffacaa9a75d522b39400f84528783015260608201524660808201523060a082015260a081526101f660c0826104f5565b5190206080523060c05260ff196009541617600955600080516020611caa83398151915260005260086020527f70480ee89cb38eff00b7d23da25713d52ce19c6ed428691d22c58b2f615e3d676001846000200154600080516020611caa8339815191526000526008602052816001866000200155600080516020611caa8339815191527fbd79b86ffe0ab8e8776151514217cd7cacd52c909f66475c3af44e129f0b00ff600080a46102a83361058f565b5061062d565b50516112c39081610987823960805181610eaa015260a05181610f67015260c05181610e74015260e05181610ef901526101005181610f1f015261012051816104eb015261014051816105140152f35b01519050388061015f565b601f198216986004600052816000209960005b81811061035d5750916102ae999a91846001959410610344575b505050811b01600455610175565b015160001960f88460031b161c19169055388080610336565b838301518c556001909b019a6020938401930161031c565b60046000527f8a35acfbc15ff81a39ae7d344fd709f28e8600b4aa8c65c6b64bfe7fe36bd19b601f830160051c810191602084106103d0575b601f0160051c01905b8181106103c45750610142565b600081556001016103b7565b90915081906103ae565b634e487b7160e01b600052602260045260246000fd5b90607f1690610130565b634e487b7160e01b600052604160045260246000fd5b9050820151386100fa565b600360009081528181209250601f198416905b81811061046957509083600194939210610450575b5050811b0160035561010f565b84015160001960f88460031b161c191690553880610443565b9192602060018192868901518155019401920161042e565b60036000527fc2575a0e9e593c00f959f8c92f12db2869c3395a3b0502d05e2516446f71f85b601f830160051c810191602084106104dc575b601f0160051c01905b8181106104d057506100e3565b600081556001016104c3565b90915081906104ba565b90607f16906100d1565b600080fd5b601f909101601f19168101906001600160401b038211908210176103fa57604052565b60005b83811061052b5750506000910152565b818101518382015260200161051b565b81601f820112156104f05780516001600160401b0381116103fa576040519261056e601f8301601f1916602001856104f5565b818452602082840101116104f05761058c9160208085019101610518565b90565b6001600160a01b0381166000908152600080516020611c6a833981519152602052604090205460ff16610627576001600160a01b03166000818152600080516020611c6a83398151915260205260408120805460ff191660011790553391907f70480ee89cb38eff00b7d23da25713d52ce19c6ed428691d22c58b2f615e3d6790600080516020611c4a8339815191529080a4600190565b50600090565b6001600160a01b0381166000908152600080516020611c8a833981519152602052604090205460ff16610627576001600160a01b03166000818152600080516020611c8a83398151915260205260408120805460ff19166001179055339190600080516020611caa83398151915290600080516020611c4a8339815191529080a4600190565b9081516020811060001461072e575090601f8151116106ef5760208151910151602082106106df571790565b6000198260200360031b1b161790565b6044604051809263305a27a960e01b8252602060048301526107208151809281602486015260208686019101610518565b601f01601f19168101030190fd5b6001600160401b0381116103fa57600554600181811c9116801561083a575b60208210146103da57601f8111610804575b50602092601f821160011461079f5792819293600092610794575b50508160011b916000199060031b1c19161760055560ff90565b01519050388061077a565b601f198216936005600052806000209160005b8681106107ec57508360019596106107d3575b505050811b0160055560ff90565b015160001960f88460031b161c191690553880806107c5565b919260206001819286850151815501940192016107b2565b6005600052601f6020600020910160051c810190601f830160051c015b81811061082e575061075f565b60008155600101610821565b90607f169061074d565b90815160208110600014610870575090601f8151116106ef5760208151910151602082106106df571790565b6001600160401b0381116103fa57600654600181811c9116801561097c575b60208210146103da57601f8111610946575b50602092601f82116001146108e157928192936000926108d6575b50508160011b916000199060031b1c19161760065560ff90565b0151905038806108bc565b601f198216936006600052806000209160005b86811061092e5750836001959610610915575b505050811b0160065560ff90565b015160001960f88460031b161c19169055388080610907565b919260206001819286850151815501940192016108f4565b6006600052601f6020600020910160051c810190601f830160051c015b81811061097057506108a1565b60008155600101610963565b90607f169061088f56fe608080604052600436101561001357600080fd5b60003560e01c90816301ffc9a714610a6a5750806306fdde03146109c2578063095ea7b31461099c5780631339324b1461096157806318160ddd1461094357806323b872dd1461090b578063248a9ca3146108de5780632f2ff15d1461089e578063313ce5671461087d5780633644e5151461085a57806336568abe1461081457806340c10f19146106f757806342966c68146106ab57806370a082311461067157806379cc6790146106095780637ecebe00146105cf57806384b0196e146104d257806391d148541461048557806395d89b41146103a0578063a217fddf14610384578063a9059cbb14610353578063d505accf1461020a578063d5391393146101cf578063d547741f146101885763dd62ed3e1461013257600080fd5b346101835760403660031901126101835761014b610afe565b610153610b14565b6001600160a01b039182166000908152600160209081526040808320949093168252928352819020549051908152f35b600080fd5b34610183576040366003190112610183576101cd6004356101a7610b14565b906101c86101c382600052600860205260016040600020015490565b610da5565b610f8d565b005b346101835760003660031901126101835760206040517f9f2df0fed2c77648de5860a4cc508cd0818c85b8b8a1ab4ceeef8d981c8956a68152f35b346101835760e036600319011261018357610223610afe565b61022b610b14565b604435906064359260843560ff811681036101835784421161033e5761030161030a9160018060a01b038416968760005260076020526040600020908154916001830190556040519060208201927f6e71edae12b1b97f4d1f60370fef10105fa2faae0126114a169c64845d6126c984528a604084015260018060a01b038916606084015289608084015260a083015260c082015260c081526102cf60e082610be7565b5190206102da610e71565b906040519161190160f01b83526002830152602282015260c43591604260a4359220611199565b9092919261122e565b6001600160a01b031684810361032557506101cd9350611094565b84906325c0072360e11b60005260045260245260446000fd5b8463313c898160e11b60005260045260246000fd5b346101835760403660031901126101835761037961036f610afe565b6024359033610cf6565b602060405160018152f35b3461018357600036600319011261018357602060405160008152f35b346101835760003660031901126101835760405160006004546103c281610b2a565b80845290600181169081156104615750600114610402575b6103fe836103ea81850382610be7565b604051918291602083526020830190610abd565b0390f35b600460009081527f8a35acfbc15ff81a39ae7d344fd709f28e8600b4aa8c65c6b64bfe7fe36bd19b939250905b808210610447575090915081016020016103ea6103da565b91926001816020925483858801015201910190929161042f565b60ff191660208086019190915291151560051b840190910191506103ea90506103da565b346101835760403660031901126101835761049e610b14565b600435600052600860205260406000209060018060a01b0316600052602052602060ff604060002054166040519015158152f35b346101835760003660031901126101835761057161050f7f00000000000000000000000000000000000000000000000000000000000000006110fb565b6105387f0000000000000000000000000000000000000000000000000000000000000000611162565b602061057f6040519261054b8385610be7565b600084526000368137604051958695600f60f81b875260e08588015260e0870190610abd565b908582036040870152610abd565b466060850152306080850152600060a085015283810360c085015281808451928381520193019160005b8281106105b857505050500390f35b8351855286955093810193928101926001016105a9565b34610183576020366003190112610183576001600160a01b036105f0610afe565b1660005260076020526020604060002054604051908152f35b3461018357604036600319011261018357610622610afe565b7ffd38818f5291bf0bb3a2a48aadc06ba8757865d1dabd804585338aab3009dcb6602060243592610654843383610c1f565b61065e8482611013565b6040519384526001600160a01b031692a2005b34610183576020366003190112610183576001600160a01b03610692610afe565b1660005260006020526020604060002054604051908152f35b34610183576020366003190112610183576004356106c98133611013565b6040519081527ffd38818f5291bf0bb3a2a48aadc06ba8757865d1dabd804585338aab3009dcb660203392a2005b3461018357604036600319011261018357610710610afe565b3360009081527f51a495916474fe1a0c0fcfb65a8a97682b84a054118858cdd1f5dfd7fc0919eb6020526040902054602435919060ff16156107db576001600160a01b031680156107c557600254918083018093116107af576020926002557fddf252ad1be2c89b69c2b068fc378daa952ba7f163c4a11628f55a4df523b3ef600093849284845283825260408420818154019055604051908152a380f35b634e487b7160e01b600052601160045260246000fd5b63ec442f0560e01b600052600060045260246000fd5b63e2517d3f60e01b600052336004527f9f2df0fed2c77648de5860a4cc508cd0818c85b8b8a1ab4ceeef8d981c8956a660245260446000fd5b346101835760403660031901126101835761082d610b14565b336001600160a01b03821603610849576101cd90600435610f8d565b63334bd91960e11b60005260046000fd5b34610183576000366003190112610183576020610875610e71565b604051908152f35b3461018357600036600319011261018357602060ff60095416604051908152f35b34610183576040366003190112610183576101cd6004356108bd610b14565b906108d96101c382600052600860205260016040600020015490565b610de2565b34610183576020366003190112610183576020610875600435600052600860205260016040600020015490565b3461018357606036600319011261018357610379610927610afe565b61092f610b14565b6044359161093e833383610c1f565b610cf6565b34610183576000366003190112610183576020600254604051908152f35b346101835760003660031901126101835760206040517f70480ee89cb38eff00b7d23da25713d52ce19c6ed428691d22c58b2f615e3d678152f35b34610183576040366003190112610183576103796109b8610afe565b6024359033611094565b346101835760003660031901126101835760405160006003546109e481610b2a565b80845290600181169081156104615750600114610a0b576103fe836103ea81850382610be7565b600360009081527fc2575a0e9e593c00f959f8c92f12db2869c3395a3b0502d05e2516446f71f85b939250905b808210610a50575090915081016020016103ea6103da565b919260018160209254838588010152019101909291610a38565b34610183576020366003190112610183576004359063ffffffff60e01b821680920361018357602091637965db0b60e01b8114908115610aac575b5015158152f35b6301ffc9a760e01b14905083610aa5565b919082519283825260005b848110610ae9575050826000602080949584010152601f8019910116010190565b80602080928401015182828601015201610ac8565b600435906001600160a01b038216820361018357565b602435906001600160a01b038216820361018357565b90600182811c92168015610b5a575b6020831014610b4457565b634e487b7160e01b600052602260045260246000fd5b91607f1691610b39565b60009291815491610b7483610b2a565b8083529260018116908115610bca5750600114610b9057505050565b60009081526020812093945091925b838310610bb0575060209250010190565b600181602092949394548385870101520191019190610b9f565b915050602093945060ff929192191683830152151560051b010190565b90601f8019910116810190811067ffffffffffffffff821117610c0957604052565b634e487b7160e01b600052604160045260246000fd5b6001600160a01b039081166000818152600160209081526040808320948616835293905291909120549291906000198410610c5b575b50505050565b828410610cd1578015610cbb576001600160a01b03821615610ca557600052600160205260406000209060018060a01b031660005260205260406000209103905538808080610c55565b634a1406b160e11b600052600060045260246000fd5b63e602df0560e01b600052600060045260246000fd5b508290637dc7a0d960e11b60005260018060a01b031660045260245260445260646000fd5b6001600160a01b0316908115610d8f576001600160a01b03169182156107c5576000828152806020526040812054828110610d755791604082827fddf252ad1be2c89b69c2b068fc378daa952ba7f163c4a11628f55a4df523b3ef958760209652828652038282205586815280845220818154019055604051908152a3565b916064928463391434e360e21b8452600452602452604452fd5b634b637e8f60e11b600052600060045260246000fd5b600081815260086020908152604080832033845290915290205460ff1615610dca5750565b63e2517d3f60e01b6000523360045260245260446000fd5b60008181526008602090815260408083206001600160a01b038616845290915290205460ff16610e6a5760008181526008602090815260408083206001600160a01b0395909516808452949091528120805460ff19166001179055339291907f2f8788117e7eff1d82e926ec794901d17c78024a50270940304540a733656f0d9080a4600190565b5050600090565b307f00000000000000000000000000000000000000000000000000000000000000006001600160a01b03161480610f64575b15610ecc577f000000000000000000000000000000000000000000000000000000000000000090565b60405160208101907f8b73c3c69bb8fe3d512ecc4cf759cc79239f7b179b0ffacaa9a75d522b39400f82527f000000000000000000000000000000000000000000000000000000000000000060408201527f000000000000000000000000000000000000000000000000000000000000000060608201524660808201523060a082015260a08152610f5e60c082610be7565b51902090565b507f00000000000000000000000000000000000000000000000000000000000000004614610ea3565b60008181526008602090815260408083206001600160a01b038616845290915290205460ff1615610e6a5760008181526008602090815260408083206001600160a01b0395909516808452949091528120805460ff19169055339291907ff6391f5c32d9c69d2a47ea670b442974b53935d1edc7fd64eb21e047a839171b9080a4600190565b6001600160a01b03168015610d8f5760009181835282602052604083205481811061107b57817fddf252ad1be2c89b69c2b068fc378daa952ba7f163c4a11628f55a4df523b3ef926020928587528684520360408620558060025403600255604051908152a3565b6064939263391434e360e21b8452600452602452604452fd5b6001600160a01b0316908115610cbb576001600160a01b0316918215610ca55760207f8c5be1e5ebec7d5bd14f71427d1e84f3dd0314c0f7b2291e5b200ac8c7c3b925918360005260018252604060002085600052825280604060002055604051908152a3565b60ff81146111455760ff811690601f821161113457604080519261111f8285610be7565b6020808552840191601f190136833783525290565b632cd44ac360e21b60005260046000fd5b5060405161115f81611158816005610b64565b0382610be7565b90565b60ff81146111865760ff811690601f821161113457604080519261111f8285610be7565b5060405161115f81611158816006610b64565b91907f7fffffffffffffffffffffffffffffff5d576e7357a4501ddfe92f46681b20a08411611222579160209360809260ff60009560405194855216868401526040830152606082015282805260015afa15611216576000516001600160a01b0381161561120a5790600090600090565b50600090600190600090565b6040513d6000823e3d90fd5b50505060009160039190565b91909160048110156112a0578061124457509050565b60006001820361125f5763f645eedf60e01b60005260046000fd5b506002810361127d578263fce698f760e01b60005260045260246000fd5b909160036000921461128d575050565b6335e2f38360e21b825260045260249150fd5b634e487b7160e01b600052602160045260246000fdfea164736f6c634300081c000a2f8788117e7eff1d82e926ec794901d17c78024a50270940304540a733656f0d267107a7d4eda433452cdee79185e30ce4915d979ed303051c8fbb217e6bbccf51a495916474fe1a0c0fcfb65a8a97682b84a054118858cdd1f5dfd7fc0919eb9f2df0fed2c77648de5860a4cc508cd0818c85b8b8a1ab4ceeef8d981c8956a6",
  "linkReferences": {},
  "deployedLinkReferences": {}
}